:020000040800F2
:1000000000000220056900085569000855690008CC
:10001000556900085569000855690008000000008E
:10002000000000000000000000000000556900080A
:10003000556900080000000055690008FD1200081D
:10004000E5140008E7140008E9140008EB140008A0
:10005000ED140008EF140008F1140008F314000870
:10006000F5140008F7140008F9140008A915000891
:10007000C5150008E1150008FD150008191600084F
:100080003516000851160008FB140008FD1400087E
:10009000FF140008011500080315000805150008E5
:1000A000391500083B1500083D1500083F150008EC
:1000B00041150008431500084515000807150008FC
:1000C000091500080B1500080D1500086917000830
:1000D0007517000855150008711500088D150008E2
:1000E0000F15000811150008131500084D1500081C
:1000F0004F15000851150008531500086D1600082B
:100100001515000817150008471500088117000885
:10011000191500081B150008491500084B150008A3
:1001200089160008A5160008C1160008DD1600088B
:10013000F916000800000000000000001D1500086E
:100140001F150008211500082315000825150008B3
:1001500015170008311700084D170008271500086B
:10016000291500082B1500082D1500082F1500086B
:1001700031150008331500080000000000000000E1
:080180003515000837150008D1
:1001900010B5054C237833B9044B13B10448AFF3C1
:1001A00000800123237010BD6800002000000000C3
:1001B000C072000808B5034B1BB103490348AFF3F5
:1001C000008008BD000000006C000020C072000824
:1001D000034613F8012B002AFBD1181A0138704787
:1001E00001F0FF01102A2BDB10F0070F08D010F8E8
:1001F000013B013A8B422DD010F0070F42B3F6D1EC
:10020000F0B441EA012141EA014122F007047FF004
:1002100000070023F0E80256083C85EA010586EA5B
:10022000010685FA47F5A3FA87F586FA47F6A5FA97
:1002300087F68EB9EED1F0BC01F0FF0102F00702A3
:1002400032B110F8013B013A83EA010313B1F8D14E
:100250000020704701387047002D06BF354603382F
:10026000073815F0010F07D1013015F4807F02BF68
:10027000013015F4C03F0130F0BC0138704700BFB9
:100280004209012300F01F0003FA00F0014B43F87C
:100290002200704700E100E0436901334361704789
:1002A00070477047012A03D0022A03D0002070470C
:1002B0000160FBE70B680360F8E77047012A03D091
:1002C000022A03D0002070470160FBE70B6803603F
:1002D000F8E7012A03D0022A03D00020704701600A
:1002E000FBE70B680360F8E7D0E9003010B502685F
:1002F00003EB8203541C0460196110BD012A03D072
:10030000022A03D0002070470160FBE70B680360FE
:10031000F8E7012A03D0022A03D0002070470160C9
:10032000FBE70B680360F8E7012A03D0022A03D039
:10033000002070470160FBE70B680360F8E7012AC3
:1003400003D0022A03D0002070470160FBE70B684E
:100350000360F8E7012A03D0022A03D00020704787
:100360000160FBE70B680360F8E7012A03D0022A6B
:1003700003D0002070470160FBE70B680360F8E7DB
:10038000012A03D0022A03D0002070470160FBE756
:100390000B680360F8E7012A03D0022A03D000208B
:1003A00070470160FBE70B680360F8E7012A03D0A0
:1003B000022A03D0002070470160FBE70B6803604E
:1003C000F8E7012A03D0022A03D000207047016019
:1003D000FBE70B680360F8E7012A03D0022A03D089
:1003E000002070470160FBE70B680360F8E7012A13
:1003F00003D0022A03D0002070470160FBE70B689E
:100400000360F8E7012A03D0022A03D000207047D6
:100410000160FBE70B680360F8E7012A03D0022ABA
:1004200003D0002070470160FBE70B680360F8E72A
:10043000012A03D0022A03D0002070470160FBE7A5
:100440000B680360F8E7012A03D0022A03D00020DA
:1004500070470160FBE70B680360F8E7012A03D0EF
:10046000022A03D0002070470160FBE70B6803609D
:10047000F8E7012A03D0022A03D000207047016068
:10048000FBE70B680360F8E7012A03D0022A03D0D8
:10049000002070470160FBE70B680360F8E7012A62
:1004A00003D0022A03D0002070470160FBE70B68ED
:1004B0000360F8E7012A03D0022A03D00020704726
:1004C0000160FBE70B680360F8E7012A03D0022A0A
:1004D00003D0002070470160FBE70B680360F8E77A
:1004E000012A03D0022A03D0002070470160FBE7F5
:1004F0000B680360F8E7012A03D0022A03D000202A
:1005000070470160FBE70B680360F8E7012A03D03E
:10051000022A03D0002070470160FBE70B680360EC
:10052000F8E7012A03D0022A03D0002070470160B7
:10053000FBE70B680360F8E7012A03D0022A03D027
:10054000002070470160FBE70B680360F8E7012AB1
:1005500003D0022A03D0002070470160FBE70B683C
:100560000360F8E7012A03D0022A03D00020704775
:100570000160FBE70B680360F8E7012A03D0022A59
:1005800003D0002070470160FBE70B680360F8E7C9
:10059000012A03D0022A03D0002070470160FBE744
:1005A0000B680360F8E7012A03D0022A03D0002079
:1005B00070470160FBE70B680360F8E7012A03D08E
:1005C000022A03D0002070470160FBE70B6803603C
:1005D000F8E7012A03D0022A03D000207047016007
:1005E000FBE70B680360F8E7012A03D0022A03D077
:1005F000002070470160FBE70B680360F8E7012A01
:1006000003D0022A03D0002070470160FBE70B688B
:100610000360F8E7012A03D0022A03D000207047C4
:100620000160FBE70B680360F8E7012A03D0022AA8
:1006300003D0002070470160FBE70B680360F8E718
:10064000012A03D0022A03D0002070470160FBE793
:100650000B680360F8E7012A03D0022A03D00020C8
:1006600070470160FBE70B680360F8E7012A03D0DD
:10067000022A03D0002070470160FBE70B6803608B
:10068000F8E7012A03D0022A03D000207047016056
:10069000FBE70B680360F8E7012A03D0022A03D0C6
:1006A000002070470160FBE70B680360F8E7012A50
:1006B00003D0022A03D0002070470160FBE70B68DB
:1006C0000360F8E77047012A08BF01600020704707
:1006D000012A03D0022A03D0002070470160FBE703
:1006E0000B680360F8E7012A03D0022A03D0002038
:1006F00070470160FBE70B680360F8E7012A03D04D
:10070000022A03D0002070470160FBE70B680360FA
:10071000F8E7012A08BF016000207047012A03D0D2
:10072000022A03D0002070470160FBE70B680360DA
:10073000F8E7012A03D0022A03D0002070470160A5
:10074000FBE70B680360F8E7012A03D0022A03D015
:10075000002070470160FBE70B680360F8E7012A9F
:1007600003D0022A03D0002070470160FBE70B682A
:100770000360F8E7012A03D0022A03D00020704763
:100780000160FBE70B680360F8E7012A03D0022A47
:1007900003D0002070470160FBE70B680360F8E7B7
:1007A000012A03D0022A03D0002070470160FBE732
:1007B0000B680360F8E7012A03D0022A03D0002067
:1007C00070470160FBE70B680360F8E7012A03D07C
:1007D000022A03D0002070470160FBE70B6803602A
:1007E000F8E7012A03D0022A03D0002070470160F5
:1007F000FBE70B680360F8E7012A03D0022A03D065
:10080000002070470160FBE70B680360F8E7012AEE
:1008100003D0022A03D0002070470160FBE70B6879
:100820000360F8E7012A03D0022A03D000207047B2
:100830000160FBE70B680360F8E7C36D0133C36534
:1008400070470022027042707047002202704270AE
:1008500070470022027042707047704770477047BF
:10086000704770477047704770477047012A03D040
:10087000022A03D0002070470160FBE70B68036089
:10088000F8E7012A03D0022A03D000207047016054
:10089000FBE70B680360F8E7012A03D0022A03D0C4
:1008A000002070470160FBE70B680360F8E7012A4E
:1008B00003D0022A03D0002070470160FBE70B68D9
:1008C0000360F8E7012A03D0022A03D00020704712
:1008D0000160FBE70B680360F8E7012A03D0022AF6
:1008E00003D0002070470160FBE70B680360F8E766
:1008F000012A03D0022A03D0002070470160FBE7E1
:100900000B680360F8E7012A03D0022A03D0002015
:1009100070470160FBE70B680360F8E7012A03D02A
:10092000022A03D0002070470160FBE70B680360D8
:10093000F8E7012A03D0022A03D0002070470160A3
:10094000FBE70B680360F8E7012A03D0022A03D013
:10095000002070470160FBE70B680360F8E7012A9D
:1009600003D0022A03D0002070470160FBE70B6828
:100970000360F8E7012A03D0022A03D00020704761
:100980000160FBE70B680360F8E7012A03D0022A45
:1009900003D0002070470160FBE70B680360F8E7B5
:1009A000012A03D0022A03D0002070470160FBE730
:1009B0000B680360F8E7012A03D0022A03D0002065
:1009C00070470160FBE70B680360F8E7012A03D07A
:1009D000022A03D0002070470160FBE70B68036028
:1009E000F8E7012A03D0022A03D0002070470160F3
:1009F000FBE70B680360F8E7012A03D0022A03D063
:100A0000002070470160FBE70B680360F8E7012AEC
:100A100003D0022A03D0002070470160FBE70B6877
:100A20000360F8E7012A03D0022A03D000207047B0
:100A30000160FBE70B680360F8E7012A03D0022A94
:100A400003D0002070470160FBE70B680360F8E704
:100A5000012A03D0022A03D0002070470160FBE77F
:100A60000B680360F8E7012A03D0022A03D00020B4
:100A700070470160FBE70B680360F8E7012A03D0C9
:100A8000022A03D0002070470160FBE70B68036077
:100A9000F8E7012A03D0022A03D000207047016042
:100AA000FBE70B680360F8E7012A03D0022A03D0B2
:100AB000002070470160FBE70B680360F8E7012A3C
:100AC00003D0022A03D0002070470160FBE70B68C7
:100AD0000360F8E7012A03D0022A03D00020704700
:100AE0000160FBE70B680360F8E7012A03D0022AE4
:100AF00003D0002070470160FBE70B680360F8E754
:100B0000012A03D0022A03D0002070470160FBE7CE
:100B10000B680360F8E7012A03D0022A03D0002003
:100B200070470160FBE70B680360F8E7012A03D018
:100B3000022A03D0002070470160FBE70B680360C6
:100B4000F8E7012A03D0022A03D000207047016091
:100B5000FBE70B680360F8E7012A03D0022A03D001
:100B6000002070470160FBE70B680360F8E7012A8B
:100B700003D0022A03D0002070470160FBE70B6816
:100B80000360F8E7012A03D0022A03D0002070474F
:100B90000160FBE70B680360F8E7012A03D0022A33
:100BA00003D0002070470160FBE70B680360F8E7A3
:100BB000012A03D0022A03D0002070470160FBE71E
:100BC0000B680360F8E7012A03D0022A03D0002053
:100BD00070470160FBE70B680360F8E7012A03D068
:100BE000022A03D0002070470160FBE70B68036016
:100BF000F8E7012A03D0022A03D0002070470160E1
:100C0000FBE70B680360F8E7012A03D0022A03D050
:100C1000002070470160FBE70B680360F8E7012ADA
:100C200003D0022A03D0002070470160FBE70B6865
:100C30000360F8E7012A03D0022A03D0002070479E
:100C40000160FBE70B680360F8E7012A03D0022A82
:100C500003D0002070470160FBE70B680360F8E7F2
:100C6000012A03D0022A03D0002070470160FBE76D
:100C70000B680360F8E78368D96CD1F81821126813
:100C8000D20618D5D1F820215268002092B2C1F8BE
:100C90000001C2F1FF00FF2828BFFF20FF2AC1F892
:100CA000040108D0DA6DD96C1A66D1F80421D1F8A4
:100CB0000011521A1A67704770B50546006803683C
:100CC0000C469B68984723682C6020461B68BDE84B
:100CD00070401847006800F5B6718830FFF7ECBF28
:100CE000006800F1F0018830FFF7E6BF006800F50A
:100CF00019718830FFF7E0BF0168D1F880309B7F21
:100D000001F188001BB101F29C41FFF7D5BF01F54D
:100D10007B71FAE7006800F552718830FFF7CCBFAD
:100D2000006800F534618830FFF7C6BF006800F541
:100D300029618830FFF7C0BF006800F5B6718830C0
:100D4000FFF7BABF006800F5BF618830FFF7B4BF96
:100D5000006800F5D4618830FFF7AEBF006800F589
:100D6000E9618830FFF7A8BF006800F2EC718830B5
:100D7000FFF7A2BF006800F5B6718830FFF79CBF8F
:100D8000006890F84433D0F88020003318BF012366
:100D900000F5B67153778830FFF78EBF006800F515
:100DA000B6718830FFF788BF006800F5AA61883007
:100DB000FFF782BF0068D0F88030012200F1F00117
:100DC0009A778830FFF778BF006800F5B6718830F1
:100DD000FFF772BF006800F5AA618830FFF76CBFAB
:100DE0000068D0F88030002200F1F0019A77883056
:100DF000FFF762BF0168D1F880309B7F01F1880066
:100E00001BB101F29C41FFF757BF01F57B71FAE777
:100E1000016891F84C35D1F88020003318BF0123C8
:100E20001377D1F880309B7F01F188001BB101F26C
:100E30009C41FFF741BF01F57B71FAE7006800F5BF
:100E400019718830FFF738BF0068D0F8803090F80B
:100E5000F4255A7600F519718830FFF72DBF006828
:100E600000F519718830FFF727BF0068D0F880308F
:100E7000B0F89C265A8100F519718830FFF71CBF25
:100E8000006800F519718830FFF716BF0068D0F8C8
:100E90008030B0F844271A8100F519718830FFF7C7
:100EA0000BBF006800F5B6718830FFF705BF00681A
:100EB00000F6B4018830FFF7FFBE006800F6441169
:100EC0008830FFF7F9BE006800F6EC118830FFF7B4
:100ED000F3BE006800F2EC718830FFF7EDBE0068E9
:100EE00000F2EC718830FFF7E7BE006800F2EC71A9
:100EF0008830FFF7E1BE006800F5B6718830FFF773
:100F0000DBBE006800F5B6718830FFF7D5BE00681B
:100F100000F53F618830FFF7CFBE006800F534610F
:100F20008830FFF7C9BE006800F6D4418830FFF76B
:100F3000C3BE006800F67C518830FFF7BDBE006874
:100F400000F624618830FFF7B7BE006800F6CC6178
:100F50008830FFF7B1BE006800F53F618830FFF7C9
:100F6000ABBE006890F8D03CD0F88020003318BFAA
:100F7000012300F53F61D3778830FFF79DBE0068FD
:100F800000F53F618830FFF797BE0068D0F88030E9
:100F9000B0F8782D9A8200F53F618830FFF78CBE5B
:100FA000006800F53F618830FFF786BE0068D0F822
:100FB000803090F8202E1A7600F53F618830FFF7D8
:100FC0007BBE006800F53F618830FFF775BE0068A2
:100FD000D0F88030B0F8C82EDA8200F53F61883052
:100FE000FFF76ABE0068D0F8842090F840399383F8
:100FF000D0F8802000F2EC7193768830FFF75CBE69
:101000000068D0F8842090F8E8399387D0F88020E1
:1010100000F2EC71D3768830FFF74EBE0B1A9B10AE
:10102000002B10DD027812B342780AB90130704704
:1010300082780AB902307047C2780AB90330704723
:101040000430013BECE70B1A022B0BD0032B06D02C
:10105000012B0BD10378002B18BF0846704703788B
:101060002BB10130037813B10130F3E70846704724
:101070000B1A9B10002B10DD027812BB42780AB1CC
:101080000130704782780AB102307047C2780AB1E5
:10109000033070470430013BECE70B1A022B0BD0F6
:1010A000032B06D0012B0BD10378002B08BF084679
:1010B000704703782BB90130037813B90130F3E797
:1010C0000846704710B504462CB1236820461B68BB
:1010D00098476468F8E710BD30235943037A43B159
:1010E0000F4B9B680360994224BFCB1A43600023D7
:1010F000037203680A4A994207D892689B1A994278
:101100000CD8012303720020704791688B4205D8E8
:10111000536892689B1A42689342F2D2012070474A
:1011200010E000E0D0F88C203221531CC0F88C3045
:10113000B2FBF1F301FB132323B9D0F88800036855
:101140005B68184770470A1A02D0202105F05DBC81
:1011500070477047704700000369002BBFBF034B07
:10116000436003F188334360704700BF2301674544
:10117000D0E900120123103293408B61704703685D
:1011800010B504469869FFF7F3FFC8216068FFF7C0
:10119000A3FF0028F9D123689B69D3E9002101232B
:1011A0008B409361C8216068FFF796FF0028F9D152
:1011B00010BD38B50368044618690D46FFF7D8FF1F
:1011C00023686068DA699B6A53F835309361FFF7EA
:1011D000D6FF23686068996ADA6901EBC5014B683C
:1011E0009361FFF7CCFF6421A068FFF775FF00282B
:1011F000F9D138BD38B5437B012B044625D002D345
:10120000022B2FD038BD4069FFF7B2FF2369256A52
:101210001A685B68012101FA03F39361626B502045
:1012200053186363B2FBF0F300FB1323124A52F826
:101230002330EA5C636A03EBC20553F83200E269CB
:101240006B689061E3626173DCE78069D0E900213B
:101250008B409361FFF78CFFE369E26A9A61022396
:101260006373CFE78069D0E9002101238B4093614C
:10127000FFF77EFF0023F3E71C7500080368416851
:101280001A6901238B40134214BF012000207047CC
:1012900010B504682CB1236820461B689847A468E1
:1012A000F8E710BD10B58368044613B10322014668
:1012B0009847204610BD000010B5064B044640F884
:1012C000203BFFF7EFFF04F11000FFF7EBFF204694
:1012D00010BD00BF2073000810B504460830FFF7AA
:1012E000D7FFD4E90421531C2361B2FBF1F301FBC6
:1012F000132313B92046FFF7CBFF10BD0148FFF7BA
:10130000EBBF00BF4C040020426903699A424FF0D2
:10131000000326BF4361012018467047037BC3B119
:1013200000230373D0E901236AB143B1936083685A
:101330005A600023C0E9013370470B60F8E70549A4
:1013400093604A60F5E70349002BF6D1C1E9003309
:10135000EFE770474C04002000224261FFF7DEBF38
:10136000037B53B901230373044B5A68426002B1F3
:1013700090601A68586002B9186070474C040020E9
:101380000A2A10B501D00F2A15D1204B9A68C2F352
:101390004232D2B1042A1AD0052A1AD01C4B1D4C55
:1013A000062A08BF234607291AD8DFE801F0141AD5
:1013B0001D202326292C0B3A032A04D8134B9A68A4
:1013C000C2F38222E5E70023EDE7134BEBE7134B73
:1013D000E9E7134BE7E74FF41652B3FBF2F38360F0
:1013E00010BD4FF46152F8E74FF49642F5E74FF421
:1013F000E142F2E74FF41642EFE74FF46142ECE7C7
:101400004FF49632E9E74FF4E132E6E70038024064
:10141000C0C62D00808D5B00006CDC0200366E01C2
:10142000001BB70019B90068C0F3401070470129CC
:1014300003D10068C0F3C0207047022903D10068BF
:10144000C0F340507047032903D10068C0F3C06067
:101450007047042901D14068E6E7052901D14068B9
:10146000E8E7062901D14068EAE7072901D1406889
:10147000ECE70020704770B58668F36C93F828118C
:10148000D3F81401FFF7CEFF58B3F46C0025C4F86D
:101490000051C4F80451D4F81001FFF769FED4F8E4
:1014A0001C311A6865F300021A60D4F820311A68FA
:1014B00065F300021A60FF225A60D4F820311A68DE
:1014C00042F001021A601A68D207FCD5D4F818213C
:1014D000D36843F01003D3603046BDE87040FFF797
:1014E0003FBF70BDFEE7FEE7FEE7FEE7FEE7FEE773
:1014F000FEE7FEE7FEE7FEE7FEE7FEE7FEE7FEE7C4
:10150000FEE7FEE7FEE7FEE7FEE7FEE7FEE7FEE7B3
:10151000FEE7FEE7FEE7FEE7FEE7FEE7FEE7FEE7A3
:10152000FEE7FEE7FEE7FEE7FEE7FEE7FEE7FEE793
:10153000FEE7FEE7FEE7FEE7FEE7FEE7FEE7FEE783
:10154000FEE7FEE7FEE7FEE7FEE7FEE7FEE7FEE773
:10155000FEE7FEE708B5044B1868FFF7B3FD034B41
:101560001A685B6808BD00BF340400200010014009
:1015700008B5044B1868FFF7A5FD034B1A685B68B4
:1015800008BD00BF3C0400200044004008B5044BE7
:101590001868FFF797FD034B1A685B6808BD00BF2A
:1015A000440400200048004008B5044B1868FFF7C9
:1015B00089FD034B3D229A6008BD00BF9C030020BB
:1015C0000060024008B5044B1868FFF77BFD034B31
:1015D0004FF474629A6008BDA403002000600240CA
:1015E00008B5044B1868FFF76DFD034B4FF47412F8
:1015F0009A6008BDAC0300200060024008B5044BAF
:101600001868FFF75FFD034B4FF074629A6008BDE6
:10161000B40300200060024008B5044B1868FFF7CF
:1016200051FD034B4FF47462DA6008BDBC03002027
:101630000060024008B5044B1868FFF743FD034BF8
:101640004FF47462DA6008BDC403002000600240F9
:1016500008B5044B1868FFF735FD034B4FF47412BF
:10166000DA6008BDCC0300200060024008B5044BDE
:101670001868FFF727FD034B4FF07462DA6008BD6E
:10168000D40300200060024008B5044B1868FFF73F
:1016900019FD034B3D229A6008BD00BFDC0300200A
:1016A0000064024008B5044B1868FFF70BFD034BBC
:1016B0004FF474629A6008BDE403002000640240A5
:1016C00008B5044B1868FFF7FDFC034B4FF4741288
:1016D0009A6008BDEC0300200064024008B5044B8A
:1016E0001868FFF7EFFC034B4FF074629A6008BD77
:1016F000F40300200064024008B5044B1868FFF7AB
:10170000E1FC034B3D22DA6008BD00BFFC03002072
:101710000064024008B5044B1868FFF7D3FC034B84
:101720004FF47462DA6008BD0404002000640240D3
:1017300008B5044B1868FFF7C5FC034B4FF474124F
:10174000DA6008BD0C0400200064024008B5044BB8
:101750001868FFF7B7FC034B4FF07462DA6008BDFE
:101760001404002000640240014B1868FFF7AABC73
:101770001C040020014B1868FFF7A4BC24040020BF
:10178000014B1868FFF79EBC2C040020026810B5BE
:10179000541C02440460517204685021B4FBF1F2FD
:1017A00001FB1242026010BD10B504681421B4FBA5
:1017B000F1F201FB1242034612B92021FFF7E6FFC6
:1017C00014241968B1FBF4F204FB121222B1202197
:1017D0001846FFF7DBFFF4E7184610BD08B50346CF
:1017E0001A6822B120211846FFF7D0FFF8E7184603
:1017F00008BD38B505460C46084609B1FEF7E8FCB9
:10180000C5E90004284638BD10B514240368B3FBAD
:10181000F4F304FB03115024B1FBF4F304FB1311A4
:10182000016010BD38B50468D4F8AC30F3B1013BA9
:10183000C4F8AC30D4F8A830606814256B4303605A
:101840000F21FFF7E1FF2021FFF7A0FFD4F8A83018
:101850006068013B5D43C4F8A8300F210560FFF7C5
:10186000D3FF7E21BDE83840FFF790BF38BD38B5C3
:101870000468D4F8AC30012B1ED00133C4F8AC306E
:10188000D4F8A830606814256B4303600F21FFF77C
:10189000BBFF2021FFF77AFFD4F8A830606801333E
:1018A0005D43C4F8A8300F210560FFF7ADFF7E212E
:1018B000BDE83840FFF76ABF38BD437A70B50546CA
:1018C00000F10C062BB100234372C1613046FFF7D3
:1018D00047FD3046FFF718FD012428B13046FFF7D9
:1018E0003BFD6C72002070BD2046FCE770B58EB0E9
:1018F00005AD0023CDE901500C93CDE90533CDE9C9
:1019000009330B933B4E0D930123044608968DF843
:101910001D308DF81C300090CDF80CD0049564215A
:101920002846FFF7CAFF0028F9D12069FFF720FCFD
:101930006069FFF71DFCA369D3E9002101238B40F7
:101940009361A26AE369D2699A616846FFF717FC5E
:1019500005212846FFF7B1FF0028F9D1A26AE36903
:10196000D2699A616846FFF70AFC64212846FFF7AE
:10197000B3FB0028F9D1A26AE369D2699A6168468B
:10198000FFF7FDFB32212846FFF7A6FB0028F9D11F
:10199000A26AE36952699A616846FFF7F0FB322157
:1019A0002846FFF799FB0028F9D1282102A8FFF764
:1019B00000FC0C2102A8FFF7FCFB062102A8FFF7A0
:1019C000F8FB012102A8FFF7F4FB802102A8FFF732
:1019D000F0FB01212846FFF770FF0028F9D10EA87F
:1019E000012384F8303040F8186DFFF797FC0EB0F3
:1019F00070BD00BF0073000810B504465030FFF7FB
:101A000051FC04F14000FFF74DFC04F13000FFF7FA
:101A100049FC04F12000FFF745FC04F11000FFF73A
:101A200041FC2046FFF73EFC204610BD204B1A68C3
:101A3000052161F302021A60A3F580631A6842F47B
:101A400080321A601A689203FCD59A686FF3071205
:101A50009A609A68042161F38C229A609A686FF305
:101A60004F329A609A68022161F301029A605A68C3
:101A7000082161F305025A605A68C02161F38E1291
:101A80005A605A68072161F31B625A605A68012143
:101A900061F311425A605A6842F480025A601A682F
:101AA00042F080721A60034A13689B01FCD57047AC
:101AB000003C0240003802407B487C49F8B503688E
:101AC00013F0010F7CD17A4B7A4C1A6812F0010F97
:101AD00006D1DFF8F8E10922C4E900E201221A6028
:101AE000754B1A6B42F001021A63226815680226D0
:101AF00066F393451560556A072666F30715556228
:101B0000D5686FF39345D5606C4D2A6812F0010FCC
:101B10006B4A06D1DFF8B4C10A26C2E900C6012625
:101B20002E601D6B45F001051D6313681D680226BC
:101B300066F315551D605D6A072666F30B255D6229
:101B4000DD686FF31555DD605E4D2B6813F0010FF6
:101B50005D4B05D15D4F0C26C3E9007601262E6052
:101B6000554E356B45F0010535631D682F6801261C
:101B700066F319672F60EF686FF31967EF60C1F8BC
:101B80001031534BC1F81431A3F5AA33C1F8183101
:101B900003F5AA33B833C1F81C31783BC1F82031C2
:101BA0000A230025C1F824310723C1F80051C1F8E8
:101BB0000451C1F80841C1F80C2181F828310660B0
:101BC0003D4C636C43F010036364D1F81831DA685C
:101BD00042F00802DA60DA6842F00402DA605A6918
:101BE00042F080025A615A6942F040025A61394B10
:101BF00093F90400FEF744FB236B43F48003236353
:101C0000D1F81C311A68012060F387121A60D1F8EC
:101C100000210A44DA60D1F8182104329A601A6867
:101C200042F480621A601A686FF34E321A601A68C2
:101C30006FF3CC221A601A6842F010021A60264B29
:101C400093F90400FEF71CFBD1F820311A686FF3FA
:101C500087121A60D1F800210A44DA60D1F81821FD
:101C600004329A60FF225A601A6842F480621A6055
:101C70001A686FF34E321A601A686FF3CC221A603A
:101C80001A6842F480721A60D1F820311A68042070
:101C900060F35B621A60D1F81C311A6860F35B6212
:101CA0001A600248F8BD00BF94010020980100208E
:101CB000DC020020E002002000380240D0020020B8
:101CC000D4020020C4020020C8020020000002400C
:101CD00000640240340400201404002043490B68CF
:101CE00013F0010F70B5424C5DD1424B42481A6867
:101CF00012F0010F06D1DFF81CE10622C0E900E274
:101D000001221A603D4B1A6B42F004021A6302680A
:101D10001568022666F30D351560156A032666F30D
:101D20001B651562D5686FF30D35D560344D2A6893
:101D300012F0010F334A06D1DFF8D8C00726C2E9F6
:101D400000C601262E601D6B45F004051D63136857
:101D50001D68022666F38F351D601D6A032666F333
:101D60001F751D62DD686FF38F35DD600023C4E9E8
:101D700001332373A361A36284F8303084F83130D7
:101D800003F18043C4E90D0203F5823318481E4D68
:101D9000E3632560FFF7E4FA01230B601B4A1C494B
:101DA000134804F0D8FD154A1148536C43F0020360
:101DB0005364E36B9A68032161F302029A609A69A3
:101DC000012161F301029A619A6961F309229A6122
:101DD0001A6A42F002021A621A6A6FF3C3021A62A6
:101DE00000225A621A680A431A6070BD3801002046
:101DF0003C010020880100208C01002000380240B6
:101E00007C010020800100202073000800000020D9
:101E1000B91200080008024010B50C1A134605D08C
:101E200001462246184604F0D7FD0346181910BD96
:101E30002DE9F34702AB03E906000768037A00F1D6
:101E400009080646DDE9004508EB070263B3132CD9
:101E500022D8C4F1140902EB590910464946FFF78C
:101E600072F929194A462846FFF7D6FF09EB040AFA
:101E700007F1140141445046FFF765F933685021DA
:101E80001433B3FBF1F201FB12333360002330460D
:101E9000337202B0BDE8F087143C05EB540000F14A
:101EA0001401FFF7B9FFE9E7C7F15001A14205EBC3
:101EB000040907D949462846FFF7AEFF30680444B5
:101EC0003460E3E729442846FFF7A6FF3368A4F10E
:101ED00050071F44E41B2C44502F2046424604F177
:101EE000500404D92146FFF797FF503FF4E74946D5
:101EF000FFF792FF336850221F44B7FBF2F302FB57
:101F000013773760C2E7000030B589B00A4604464F
:101F1000114905A804F07EFE05A901A8FFF769FC98
:101F20006368019A934208D99B1A13F1FF3304D3D3
:101F300020212046FFF72AFCF7E703AD05A9284634
:101F4000FFF757FC95E806002046FFF771FF0023D6
:101F50002046636009B030BD86780008F8B50546B4
:101F60000F464FF47A7691FBF6F42146FFF7CCFF4B
:101F70002E212846FFF70AFC06FB14740A2394FB63
:101F8000F3F4092C08DC00212846FFF7BDFF2146A9
:101F9000FFF7BAFF2846F8BD21462846F8E70000BB
:101FA000F7B50546406802260660AB6FB3F8DC1053
:101FB000FFF7D4FF6C4607460E492046FFF719FC91
:101FC00094E806003846FFF733FF68681E23C0E92F
:101FD0000036AB6FB3F87C11FFF796FF0649054654
:101FE0002046FFF706FC94E806002846FFF720FF8E
:101FF00003B0F0BD747800087878000838B5002385
:1020000083608B6804460D462BB102229847EB682B
:10201000E360AB68A360204638BD38B50023836019
:102020008B6804460D462BB102229847EB68E360AB
:10203000AB68A360204638BD38B504460D46FFF7AF
:10204000DDFF05F1100104F11000FFF7D7FF05F1E6
:10205000200104F12000FFF7D1FF05F1300104F168
:102060003000FFF7CBFF05F1400104F14000FFF71E
:10207000D4FF05F1500104F15000FFF7CEFF2046D8
:1020800038BD38B5002383608B6804460D462BB1FC
:1020900002229847EB68E360AB68A360204638BD36
:1020A000826810B50AB904F05BFCC368BDE8104053
:1020B000184730B585B004460025694608300295BA
:1020C000FFF7EEFF6846FFF7EDF8694604F11800E8
:1020D0000295FFF7E5FF6846FFF7E4F8694604F16B
:1020E00038000295FFF7DCFF6846FFF7DBF805B024
:1020F00030BD30B585B004460025694608300295EC
:10210000FFF7CEFF6846FFF7CDF8694604F11800E7
:102110000295FFF7C5FF6846FFF7C4F8694604F16A
:1021200028000295FFF7BCFF6846FFF7BBF8694639
:1021300004F138000295FFF7B3FF6846FFF7B2F8E5
:1021400005B030BD30B585B004460025694608307D
:102150000295FFF7A5FF6846FFF7A4F8694604F16A
:1021600018000295FFF79CFF6846FFF79BF8694649
:1021700004F128000295FFF793FF6846FFF792F8F5
:10218000694604F138000295FFF78AFF6846FFF7B9
:1021900089F805B030BD30B585B0044600256946E4
:1021A00008300295FFF77CFF6846FFF77BF8694629
:1021B00004F118000295FFF773FF6846FFF772F805
:1021C000694604F128000295FFF76AFF6846FFF7A9
:1021D00069F8694604F138000295FFF761FF684627
:1021E000FFF760F805B030BD30B585B00446002576
:1021F000694608300295FFF753FF6846FFF752F82B
:10220000694604F118000295FFF74AFF6846FFF798
:1022100049F8694604F128000295FFF741FF684636
:10222000FFF740F8694604F138000295FFF738FFE0
:102230006846FFF737F805B030BD30B585B00446C5
:102240000025694628300295FFF72AFF6846FFF708
:1022500029F8694604F108000295FFF721FF684656
:10226000FFF720F8694604F118000295FFF718FF00
:102270006846FFF717F8694604F138000295FFF742
:102280000FFF6846FFF70EF805B030BD1FB5224BB3
:1022900000900446694603930830204B0293FFF7F1
:1022A000FFFE6846FEF7FEFF1D4B039369461D4B7C
:1022B000029304F118000094FFF7F2FE6846FEF75F
:1022C000F1FF194B03936946184B029304F1380050
:1022D0000094FFF7E5FE6846FEF7E4FF6068002320
:1022E000036004F1780393E80600FFF7A1FDFFF710
:1022F0005BFA606814230360D4F888301988FFF70C
:1023000003FE04F1800393E80600FFF791FD606887
:10231000FFF764FA04B010BDA3020008A50200088C
:10232000BB020008BD02000855240008D3020008C3
:102330007FB5284B00906C46054621460393383004
:10234000254B0293FFF7ACFE2046FEF7ABFF6E680D
:1023500006F1590106F10900FEF7F5FE002333608E
:102360006E681E4933602046FFF743FA94E8060082
:102370003046FFF75DFD6E6819490B233360204638
:10238000FFF737FA94E806003046FFF751FD6E6814
:102390001449142333602046FFF72BFA94E8060013
:1023A0003046FFF745FD68681E220223C0E900237E
:1023B000AB6FB3F87C11FFF7A7FD0B49054620462C
:1023C000FFF717FA94E806002846FFF731FD04B03E
:1023D00070BD00BF612400086D0800087B7800080C
:1023E0007E7800088178000884780008826810B53B
:1023F0000AB904F0B5FAC368BDE81040184708B53B
:10240000C36B5A6AC2F34E02012A09D190F8301008
:1024100031B980F8302059622030FFF7E7FF08BD5E
:102420005A6A47F6FF71C2F34E028A4202D190F80F
:1024300031204AB15B6A9BB2012BF0D8002380F8AF
:10244000303080F83130EAE7012180F831105A62EB
:102450001030E2E708B500686830FFF7C7FF08BD35
:1024600008B500686830FFF7C1FF08BD08B503680C
:10247000D3F89C2093F8A03013700068D0F8843013
:102480001BB17C30FFF7B2FF08BD6C30FAE708B52E
:1024900000686C30FFF7AAFF08BD08B50368D3F8E1
:1024A000C400182202FB00308030FFF79FFF08BDF8
:1024B00008B500686830FFF799FF08BD006808B5E7
:1024C000D0F89C30B0F8A0201A80D0F884301BB12E
:1024D0007C30FFF78BFF08BD6C30FAE708B5006869
:1024E0006C30FFF783FF08BD08B50368D3F89C2064
:1024F00093F8A03013700068D0F884301BB17C30A2
:10250000FFF774FF08BD6C30FAE708B500686C305F
:10251000FFF76CFF08BD08B50368D3F89C2093F85B
:10252000A03013700068D0F884301BB17C30FFF706
:102530005DFF08BD6C30FAE708B500686C30FFF746
:1025400055FF08BD08B50368D3F8AC00182202FB9C
:1025500000308030FFF74AFF08BD08B500686830DA
:10256000FFF744FF08BD08B50368D3F89C2093F833
:10257000A03013700068D0F884301BB17C30FFF7B6
:1025800035FF08BD6C30FAE708B500686C30FFF71E
:102590002DFF08BD08B50368D3F8DC00182202FB44
:1025A00000308030FFF722FF08BD08B500686830B2
:1025B000FFF71CFF08BD08B50368D3F8F400182224
:1025C00002FB00308030FFF711FF08BD08B500683E
:1025D0006830FFF70BFF08BD38B5002383608B68B8
:1025E00004460D462BB102229847EB68E360AB68C6
:1025F000A360204638BD10B50B460446D1E9000162
:1026000084E8030003F1080104F10800FFF739FD35
:10261000204610BD38B51D46124B0446C0E90031B6
:1026200011460830FFF708FD294604F16800FFF75E
:1026300028FD049904F17800FFF7DDFF059904F106
:102640009000FFF7D8FF069904F1A800FFF7D3FF29
:10265000079904F1C000FFF7CEFF0023C4E9363329
:10266000204638BD4073000838B51D460D4B044662
:10267000C0E9003111460830FFF7DEFC294604F1BD
:102680006800FFF7FEFC049904F17800FFF7B3FF40
:10269000059904F19000FFF7AEFF0023C4E92A3347
:1026A000204638BD68730008D0F80431FE2B9FBF68
:1026B000C154D0F804310133C0F80431704713B568
:1026C0000B460446D0E900016A4682E8030093E81D
:1026D000030084E8030092E8030083E8030002B0EB
:1026E00010BD38B505460C46FFF7E9FFAB68A26898
:1026F000AA60A360E268EB68EA60E36038BD1FB5DA
:1027000004466846FFF7BDFC21466846FFF7E9FF2F
:102710006846FEF7C7FD204604B010BD08B544303A
:10272000FFF7EDFF08BD08B53430FFF7E8FF08BD3F
:1027300008B52430FFF7E3FF08BD08B51430FFF7F4
:10274000DEFF08BD08B54430FFF7D9FF08BD08B566
:102750003430FFF7D4FF08BD08B52430FFF7CFFFB2
:1027600008BD08B51430FFF7CAFF08BD08B54430EE
:10277000FFF7C5FF08BD08B53430FFF7C0FF08BD3F
:1027800008B52430FFF7BBFF08BD08B51430FFF7CC
:10279000B6FF08BD30B5044689B008460023694637
:1027A0000293FFF79EFF2368DC6F2368694604A845
:1027B000DD68FFF766FC04A92046A84704A8FEF7D9
:1027C00071FD6846FEF76EFD09B030BD10B50446D8
:1027D00088B00846002369460293FFF782FF23680A
:1027E0001C6F694604A8FFF74CFC04A904F1200003
:1027F000FFF785FF04A8FEF755FD6846FEF752FD7A
:1028000008B010BD10B5044688B0084600236946DC
:102810000293FFF766FF23681C6F694604A8FFF761
:1028200030FC04A904F11000FFF769FF04A8FEF7CB
:1028300039FD6846FEF736FD08B010BD30B50446D8
:1028400089B00846002369460293FFF74AFF2368D0
:10285000DC6F2368694604A89D68FFF712FC04A991
:102860002046A84704A8FEF71DFD6846FEF71AFD9E
:1028700009B030BDF0B5C26CD2F80431D2F8001105
:102880005C1A022C33D999423EBF03F1FF33C2F8E0
:102890000431D55CC26CDFF860C0D2F80431D2F8E4
:1028A0000011144F28BF00258B4282BF03F1FF3374
:1028B000C2F80431D65CC36CD3F80021D3F80411FC
:1028C0004FF0FF001A4498BF00260B44044612F84C
:1028D000011B414093421CF8010080EA04007C5C2B
:1028E000F5D1AC4203D1831B58425841F0BD0020C2
:1028F000FCE700BF5C7700085C76000838B5836DA4
:102900001D68C36CD3F800219A5C2B799A42044667
:102910000FD0AB690921EA1811750133032293FB2B
:10292000F2F202EB42029B1AAB61A36F0133A36781
:1029300038BDFFF79FFF18B9AB691021EA18EBE724
:10294000E26CD2F80031D2F80411994284BF01330D
:10295000C2F80031E36CD3F80021D3F8041191429E
:1029600083BF511CC3F800119B5C00231B0611D5CB
:10297000E36CD3F80021D3F80411914282BF511CBB
:10298000C3F800119A5CAB6905EB030198BF002204
:102990000A75C2E72B7A032BCAD1E26CD2F8003158
:1029A000D2F80411994284BF0133C2F80031E36CBC
:1029B000E868D3F80021D3F80411541CA14217D9B8
:1029C000914284BFC3F800419C5CD3F8002198BFBA
:1029D0000024914283BF511CC3F800119A5C00226D
:1029E0004FF0000362F3070364F30F2303809FE7B4
:1029F0000023FBE70B1A1B11002B14DD0268127C6D
:102A00004AB34268127C0AB9043070478268127C6B
:102A10000AB908307047C268127C0AB90C30704796
:102A20001030013BE8E70B1A9B10022B0DD0032B53
:102A300007D0012B0ED103681B7C002B18BF084662
:102A4000704703681B7C33B1043003681B7C13B1EF
:102A50000430F0E708467047437B012BF7B5044686
:102A600006D0C0F0B780022B00F0E38003B0F0BDC9
:102A700000F14C054FF00003806D1A462946FFF720
:102A8000B9FF8542A06503D104F11003A365EDE70A
:102A9000E36C05680026C3F80061C3F80461297976
:102AA000E06CFFF701FE297AE06CFFF7FDFD31468F
:102AB000E06CFFF7F9FDA979E06CFFF7F5FD2B7AE3
:102AC000032B01D0102B5CD10021E06CFFF7ECFD53
:102AD0000121E06CFFF7E8FD2B7A102B07D10021D4
:102AE000E06CFFF7E1FDEB681978FFF7DDFD2B7A6D
:102AF000032B01D0052B51D12B6829461B6801A857
:102B000098479DF80510E06CFFF7CEFD9DF8041086
:102B1000FFF7CAFDA36E2366E36F0133E36700226C
:102B2000E36C2267D3F81011D1E900050121A94017
:102B30008161D3F81811C86862F30410C860D3F833
:102B40002011086862F300000860D3F81C110868BF
:102B500062F300000860D3F80421D3F80001D3F831
:102B60001C11121A023292B24A60D3F81C311A6850
:102B700042F001021A601A68D207FCD50023637381
:102B800074E7052BA8D1EB68E06C1988002914BF05
:102B9000FF210021FFF788FD31469AE7102BB9D1BC
:102BA000E06CDFF8B0C0D0F80031D0F80421284F35
:102BB000FF21034486180D4613F8012B4A409E421C
:102BC0001CF8021081EA0501BD5CF5D1FFF76CFD30
:102BD00029469DE7C16C826ED1F80431D1F800110D
:102BE0005B1A016F9942C16D38BF02668A4213DCDD
:102BF000836D18688369C218122515750133032285
:102C000093FBF2F202EB42029B1A8361A36FE1662F
:102C10000133A36702236373236EC91A636E99425B
:102C2000FFF624AF2046FFF769FEE36DE36602235B
:102C3000A5E7C36DC26E093B93427FF717AF002330
:102C4000C365FEF76BFB836D04338365012396E751
:102C50005C7700085C7600082DE9F04F364BADF547
:102C6000A95D85B003F1200661AD34461868596846
:102C70002A4603C20833B3421546F7D12F4B71934E
:102C80002F4B75932F4B829300224FF480312E48A7
:102C9000869361AB839185918DF81D227292739218
:102CA0008DF8D0217F92ADF80022819284908DF82A
:102CB0001C228DF81E228DF820227693FF2171AB05
:102CC00013440132202A1976F9D10DF5D27800216A
:102CD000404603F09AFE7598FEF73EFA759B1A6916
:102CE000012767F309221A611A6971AD42F08072F7
:102CF0001A6100264FF6FF7AA946D5E9113103EB98
:102D0000410199420FD01A781F2A09D80DF5E27CAB
:102D10006244587810761A7808F802700233F0E7A7
:102D20001A885245FAD18693696C99420ED17F96E2
:102D30000835C6B90126E0E7D8720008A88800085F
:102D4000003C024000000A0800000808AA6C01EBE1
:102D50004202934200F09782494640467F96FEF732
:102D60005DF98145E4D17F9A71AB03EBC201D1E9F2
:102D70001130869903EB4003994206D180AB0121C3
:102D8000995400237F93829B869371AE31464046CF
:102D9000FEF744F9B042054640F07A8274AB769A69
:102DA00077AE03F12C07334603CBBB421060516072
:102DB0001E4602F10802F6D100238DF81E329DF85E
:102DC00000328BB97F9B7BB1829A839B4FF6FF7059
:102DD00002EB43018A42134640F060820B465B1AC5
:102DE00018BF01238DF800329DF80132ABB97F9BEB
:102DF000012B12D0849B859A4FF6FF7003EB4202A1
:102E00009A42194604D00E88864203F10203F7D095
:102E1000521A18BF01228DF8012274AB0DF202265E
:102E200003F130003146FEF723F9864218BF032331
:102E3000759A18BF8DF81D32136943F00043136172
:102E400071AB9D4209D0D94B61AD186859682A46CB
:102E500003C20833A3421546F7D171A8FEF780FAE2
:102E6000D34B1A6812F0010FD24A06D1DFF89C93B7
:102E70000A21C2E9009101211960CF4B196B41F081
:102E80000401196312681168012060F31551116083
:102E9000D1686FF31551D160C8490A6812F0010F6B
:102EA00008BFDFF86C83C64A02BF08600F24C2E97E
:102EB0000084196B41F0010119631368C1491A6854
:102EC000012666F39F721A60DA68F8AC6FF39F729E
:102ED000DA600823E380F891FFAB09211022E36058
:102EE000E18400230DF21C410DF25C478DF8F633AE
:102EF00022722374ADF8F433A36184F82820E162D0
:102F000084F83030267184F82460ADF81434E76614
:102F1000AD4FAE49276605272162A4F886700DF2F1
:102F20003C410DF27C47E164C4F88C70A849A94F7C
:102F3000216403250A20C4F88070042106278DF837
:102F400016348DF836348DF856348DF87634A36304
:102F5000A4F8460084F84820ADF83434A365A4F8FA
:102F60005C3084F87030ADF85434A367A4F87C303A
:102F700084F89030ADF87434C4F89830A4F89C30DC
:102F800084F8446084F86460A4F8661084F868509B
:102F900084F8846084F8885084F8A460A4F8A6704B
:102FA0000DF29C47C4F8AC70A4F8E6008A4FC4F850
:102FB000A0700DF2DC400727C4F8EC008748A4F8A5
:102FC000C670C4F8E0000DF2BC470B20C4F8CC700A
:102FD000A4F80601824F8DF896340DF2FC408DF86E
:102FE000B6348DF8D63484F8B030ADF89434C4F8E3
:102FF000B830A4F8BC3084F8D030ADF8B434C4F89C
:10300000D830C4F8C070A4F8DC3084F8F030ADF8E3
:10301000D434C4F8F830A4F8FC3084F8A85084F80C
:10302000C46084F8C85084F8E46084F8E85084F8F8
:10303000046184F80851C4F80C016A48C4F800011E
:103040000C20A4F826010DF21C50C4F82C0166488F
:10305000C4F820010D20A4F846010DF23C50C4F83C
:103060004C016248C4F840010E20A4F866010DF23C
:103070005C508DF8F6348DF816358DF8363584F8B9
:103080001031ADF8F434C4F81831A4F81C3184F8C8
:103090003031ADF81435C4F83831A4F83C3184F837
:1030A0005031ADF83435C4F85831A4F85C31C4F867
:1030B0006C0184F87031ADF8543584F8246184F8DB
:1030C000285184F8446184F8485184F8646184F894
:1030D00068518DF85635A4F8A6210DF29C5244484B
:1030E000C4F8AC21434AC4F86001C4F8A0210F2001
:1030F0001122A4F88601A4F8C6210DF27C500DF22D
:10310000BC52C4F88C01C4F8CC213B483B4A8DF832
:1031100076358DF896358DF8B635C4F87831A4F843
:103120007C3184F89031ADF87435C4F89831A4F846
:103130009C3184F8B031ADF89435C4F8B831A4F8B6
:10314000BC3184F8D031ADF8B435C4F8D831C4F806
:10315000C02184F8846184F88851C4F8800184F81F
:10316000A46184F8A85184F8C46184F8C851A4F813
:10317000DC319DF89E31A3839DF89F31A387204BBE
:1031800084F850601A68BDF886710693324040F0AA
:103190007081CDE90712FEF78FFCC7F3400380462C
:1031A00018480593184B089A036033E0D87200085A
:1031B000F4020020F802002000380240E80200205B
:1031C000EC020020E0730008F8730008EC730008BC
:1031D000CC880008047400081074000828740008E3
:1031E0001C74000834740008407400084C74000813
:1031F000587400087074000864740008D8880008C7
:10320000000300200403002094740008000802401A
:1032100000000240304B467307EA0609C7F3800BF3
:10322000C7F3C10A2D4E027300F1100EC7F3421707
:10323000C0E90122C0F84C8003654665C0E916E28A
:103240009C4607998FB3012F05D0022F2FD0AF4294
:1032500014BF0125022500224FF0640E8267C0E9E9
:103260001AE280F87420C267C0F884201C4AC0F8B3
:103270008020DCF800204566C0F88800D2B9194AE1
:10328000CCF800201BE071AB334483F83C704FE571
:103290007F9B80AA0121D15405238EE51E8886429A
:1032A00002F102023FF496AD99E50D46D3E73D46A3
:1032B000D1E70A4651680029FBD10A495160002232
:1032C000C0F89020084AC0F88C203268C0F89400FA
:1032D0007AB9064A326011E0340400201404002058
:1032E0007C74000884030020887400089003002088
:1032F0000A4651680029FBD1CA4951600DF5B862F0
:103300000DAE0021CDE90D02CDF8C01530462146A5
:10331000FCF7EAFF96E803000FAD85E803002846B6
:103320000DF58061FCF7E0FF95E8030011AE86E83B
:10333000030030460DF58461FCF7D6FF96E80300E4
:1033400013AD85E8030028460DF58861FCF7CCFF36
:1033500095E8030015AE86E8030030460DF58C6154
:10336000FCF7C2FF96E8030017AD85E80300284686
:103370000DF59061FCF7B8FF95E8030019AE86E8FB
:10338000030030460DF59461FCF7AEFF96E80300AC
:103390001BAD85E8030028460DF59861FCF7A4FFF6
:1033A00095E803001DAE86E8030030460DF59C61EC
:1033B000FCF79AFF96E803001FAD85E80300284656
:1033C0000DF5A061FCF790FF95E8030021AE86E8BB
:1033D000030030460DF5A461FCF786FF96E8030074
:1033E00023AD85E8030028460DF5A861FCF77CFFB6
:1033F00095E8030025AE86E803000DF5AC61304684
:10340000FCF772FF96E8030027AD85E803000DF591
:10341000B0612846FCF768FF95E8030029AA82E816
:10342000030010460DF5B461FCF75EFFD8F82421C7
:10343000D8F818013946FDF7A3FF059BC26863F36E
:103440004922C260C3686BF30C33C36003696AF33B
:103450000D330361C368B9F1000F01F0878343F4B2
:103460008063C360C36843F40053C360069A0123BA
:103470001360FEF733FC6C4AA1920DF521792032DE
:10348000C9F80420694A0C900023C9E9023389F87D
:10349000103089F81130C9F81C30C9F82C30C9F83F
:1034A0003C30C9F84C30C9F85C30136813F0010F98
:1034B0005F4B05D15F4D0E21C3E900510121116021
:1034C0005D4D2A6B42F002022A631A6811686FF39D
:1034D0001D711160D1686FF31D71D160A2A8002128
:1034E0000126C9E91A1689F8701089F87110C9F80F
:1034F0006430FDF735FF514B514ABE930DF53E78D0
:103500002033C8F80430136888F8101013F0010F46
:1035100008BF48484B4B88F81110C8E90211C8F899
:103520001C10C8F82C10C8F83C10C8F84C10C8F88B
:103530005C1002BF0D21C3E9000116602A6B3E4EEC
:1035400042F002022A631A6811686FF39B611160EE
:10355000D1686FF39B61D16001250021BFA8C8E944
:103560001A1588F8701088F87110C8F86430FDF7E3
:10357000F7FE354B354ADB93DBAF20337B601368B6
:10358000397413F0010F08BFDFF8DCB0304B7974E9
:10359000C7E90211F961F962F963F964F96502BFDB
:1035A0000821C3E900B11560326B42F001023263B9
:1035B0001A6811686FF311411160D1686FF31141FE
:1035C000D160DCA800214FF0010A7B66C7E91A1A16
:1035D00087F8701087F87110FDF7C2FE0DF5B86519
:1035E0000C9B0593C5E901111A4B2973C5E9041118
:1035F00029760DF2D9500DF229612B60FDF7A3FD5C
:10360000154B06931A6812F0010F3246134E40F024
:10361000A580134913480B68DFF850B013F0010F71
:1036200026E000BF90030020A07400082C010020B9
:10363000300100200004024000380240CC74000831
:103640002001002024010020F8740008140100204B
:1036500018010020B4880008B4000020B800002041
:10366000080100200C010020000002400008024078
:1036700001BF0D23C1F800A0C0F800B04360136B78
:10368000AF4943F00403136303681A684FF0010C59
:103690006CF39B621A60DA686FF39B62DA60A94A86
:1036A000136813F0010F04BF0F234B60A64B04BF38
:1036B000C1F800B0C2F800C01A6B42F004021A63ED
:1036C0000A68D2F800C04FF0010E6EF39F7CC2F87A
:1036D00000C0D2F80CC06FF39F7CC2F80CC0DFF8BA
:1036E000D4C2DCF8002012F0010F984A01BFCCF8D8
:1036F00000E04FF00E0AC2F800B0C2F804A0D3F800
:1037000030C04CF0040CC3F830C01368D3F800E0AC
:103710004FF0010C6CF31D7EC3F800E0D3F80CE011
:103720006FF31D7EC3F80CE00023C6E9062B0DF2F3
:10373000D952C6E9013333737373326286F830307D
:10374000834A7363C6E90401069BDFF86CE2726288
:10375000804AC6F800E0B262C3F800C07E4A13682F
:1037600013F0010F7D4B06D1DFF850A20221C3E90F
:1037700000A101211160744A116B41F00401116331
:103780001B681868012161F305101860D8686FF391
:103790000510D8607248036813F0010F08BFDFF806
:1037A0001CE2704B02BF01604FF0030CC3E900EC58
:1037B000116B41F0040111631B686B491A68012009
:1037C00060F387121A60DA686FF38712DA60674A6B
:1037D0001368034002BFDFF8E4C11060C1E900C311
:1037E000594A136B43F0040313630B6818680121F3
:1037F00061F301001860D8686FF30100D8605C487D
:10380000036813F0010F08BFDFF8B0C1594B04BFC4
:10381000C3E900C10160116B574841F00401116315
:103820001B681A684FF0010A6AF383021A60DA68AB
:103830006FF38302DA60FEF759F8337B13BB4F4A0C
:1038400086F80CA0D368736003B19E609368D6605D
:1038500003B9966002235361494B1A686FF3000263
:103860001A6045F6BF525A6000229A601A6842F008
:1038700004021A601A6842F002021A601A6842F0E2
:1038800001021A60059BEE66C5E91C3961ABC5E90A
:1038900020340DF5D663C5F888300023C5F88C3088
:1038A000384B32932FA9384B2F952BA8C5E91E878B
:1038B0003193FEF7A3FB354B3A93354B399333AB3A
:1038C00037A9184637950593FEF798FB314B42937D
:1038D000314B41933BAB4CAF3FA918463F95079303
:1038E000FEF78CFB2D4B499547F80C3955AE2C4B08
:1038F000BB60394643A8FEF781FB2A4B55950DF571
:103900000C78F3603146284BB3604FA8FEF785FB77
:10391000264B48F80C5C48F80C395BAC244BC8F8D3
:10392000083041462046FEF778FB2BA90DF5CA600A
:10393000FEF764FB05990DF5CC60FEF75FFB3FE0F9
:1039400000010020FC00002000380240F4000020AC
:103950008C7800088C800008A8000020AC000020B3
:103960009C000020A0000020940000209000002077
:103970008400002088000020B80000204C040020B3
:1039800010E000E0CD270008FD020008052800082F
:10399000130300083D2800082903000895270008A4
:1039A0003F030008214C000855030008E94B0008BC
:1039B0006B030008F0000020C088000800080240E7
:1039C00007990DF5CE60FEF719FB43A90DF5D06000
:1039D000FEF714FB4FA90DF5D260FEF71EFB214642
:1039E0000DF5D460FEF719FB2046FDF75BFC404661
:1039F000FDF758FC4FA8FDF755FC3046FDF752FC8B
:103A000043A8FDF74FFC3846FDF74CFC0798FDF73F
:103A100049FC3FA8FDF746FC0598FDF743FC37A895
:103A2000FDF740FC2BA8FDF73DFC2FA8FDF73AFC65
:103A30000DF5CA614046FEF7FFFABB4B5B95214688
:103A4000E3603046B94BA3600DF5BA6BFEF719FB86
:103A5000B74BC5F8F030C5F8F4B041460DF5D76066
:103A6000D5F88490FEF7E8FA31460DF5E360FEF7ED
:103A700008FBC5F868913046FDF714FC2046FDF7B9
:103A800011FC4046FDF7B8FF0DF5CA614046FEF750
:103A9000D3FAA84B42933FA9A74B07983F95419370
:103AA000FEF7EFFAA54B4493A54B4893A54B4793DC
:103AB000A54BC5F870B14FF00909CDF82491C7E9BD
:103AC0000135A24B7B61A24B3B610C234F93A14B71
:103AD0005093A14B5493A14B53930C235593A04B5C
:103AE0004595C6E901359F4B73619F4B33610623B2
:103AF0005B939E4B5195C4E901359D4B63619D4B92
:103B000023619D4BC5F86C3141460DF23470CDF800
:103B10000C91FEF791FA07990DF29470FEF7B1FA45
:103B200043A90DF2A470FEF766FD39460DF2BC7094
:103B3000FEF761FD4FA90DF2D470FEF75CFD314632
:103B40000DF2EC70FEF757FD21460DF60400FEF76E
:103B500052FD0023C5F85C32C5F860325DAB1846F3
:103B60000593FDF79FFB57AB18460693FDF79AFBAD
:103B700051AB18460893FDF795FB4BAB18460993DC
:103B8000FDF790FB45A8FDF78DFB0798FDF78AFB35
:103B90003FA8FDF787FB4046FDF72EFF0DF5CA61F4
:103BA0004046FEF749FA754B469343A9744B43953B
:103BB0003FA84593FEF765FA08234993714B519549
:103BC000C7E90135704B7B61704B3B61704B509383
:103BD000704B5493704B53930F2355936F4BCDF809
:103BE0003C91C6E901356E4B73616E4B33610B231B
:103BF0005B936D4BC4E901356C4B63616C4B236186
:103C00004FAB42465946CDE90073CDE902643FAB64
:103C10000DF62400FEF7FEFC0598FDF743FB069821
:103C2000FDF740FB0898FDF73DFB0998FDF73AFBCF
:103C30003FA8FDF737FB43A8FDF734FB4046FDF7EF
:103C4000DBFED5F880300DF5CA615B7F85F8443323
:103C50004046FEF7F1F957493FA8FDF7CAFD56491E
:103C600043A8FDF7C6FD554B52934FA9544B4F95B2
:103C700038465193FEF705FA524B5B952146E360B7
:103C80003046514BA360FEF7FCF9409B0A93439BDF
:103C900007934E49C5F848134FF48073A5F84C3389
:103CA000C5F850B33F9A0B9241460DF61410DDF85B
:103CB00010A1FEF7C1F939460DF67410FEF7E1F9CF
:103CC00031460DF68410FEF7DCF90A9BC5F8D833AF
:103CD000079BC5F8DC330DF60413C5F8E4330B9AE3
:103CE00095F84433C5F8D42385F8E833C5F8E0A344
:103CF0003046FDF7D7FA2046FDF7D4FA3846FDF7EF
:103D0000D1FA4FA8FDF7CEFA4046FDF775FE0DF546
:103D1000CA614046FEF790F92D4B52934FA92D4BA7
:103D20004F953846519357E0D50C000881030008A1
:103D300094880008E10C000897030008DC8800085C
:103D4000ED0C0008AD030008E6880008F90C000837
:103D5000C3030008F0880008150D0008D903000807
:103D6000FD880008210D0008EF0300080A890008FB
:103D70002D0D0008050400082C730008390D0008FB
:103D80001B04000811890008450D000831040008D3
:103D90001A890008510D000847040008248900080A
:103DA0005D0D00085D04000834890008690D0008F5
:103DB0007304000840890008CC8A0008750D0008CB
:103DC00089040008810D00089F040008547300084E
:103DD0009D0D0008B5040008FEF753F90F22C94BEA
:103DE00055927361C84B3361C84BDFF8A0A306221C
:103DF0005B92C4E90135C64B6361C64B2361C6E9DA
:103E000001A542463B465946CDE900640DF6AC108B
:103E1000FEF72AFC0598FDF745FA0698FDF742FAE9
:103E20003846FDF73FFA4FA8FDF73CFA4046FDF74C
:103E3000E3FD0DF5CA614046FEF7FEF8B64B52931E
:103E40004FA9B64B4F9538465193FEF71AF90F22FA
:103E5000B34B55927361B34B3361B34BCDF86C9157
:103E6000C4E90135B14B6361B14B2361C6E901A5DA
:103E7000424659463B46CDE900640DF65C20FEF70C
:103E8000F3FB0598FDF70EFA0698FDF70BFA384696
:103E90000DF5B865FDF706FA4FA8FDF703FA4046A1
:103EA000FDF7AAFDD5F880300DF5CA611B7F85F8B6
:103EB0004C354046FEF7C0F89E493FA8FDF799FCF7
:103EC0009D4943A8FDF795FC9C4B52934FA99C4BF1
:103ED0004F9538465193FEF7D4F89A4B5B9521469F
:103EE000E3603046984BA360FEF7CBF83F9B0A9304
:103EF000409B964A07934FF48073C5F85025A5F868
:103F00005435C5F858B541460DF61C30DDF80CA106
:103F1000DDF81091FEF790F839460DF67C30FEF78B
:103F2000B0F831460DF68C30FEF7ABF80A9BC5F8B9
:103F3000DC35079BC5F8E0350DF60C33C5F8EC35DC
:103F400095F84C3585F8F035C5F8E4A5C5F8E89541
:103F50003046FDF7A7F92046FDF7A4F93846FDF7EE
:103F6000A1F94FA8FDF79EF94046FDF745FDD5F8AC
:103F700080300DF5CA625B7E85F8F4351146404607
:103F8000FEF75AF872493FA8FDF733FC714943A880
:103F9000FDF72FFC4FAA704B529311466F4B4F9574
:103FA00038465193FEF76DF86D4B5B952146E36003
:103FB00030466C4BA360FEF764F83F9B409A0A932F
:103FC0000792694BC5F8F8354FF4C842A5F8FC25AF
:103FD000C5F800B641460DF6C430DDF80CA1DDF899
:103FE0001091FEF729F839460DF62440FEF749F8FE
:103FF00031460DF63440FEF744F80A9BC5F8843686
:104000000DF6B433079AC5F8943695F8F435C5F82B
:10401000882685F89836C5F88CA6C5F8909630465F
:10402000FDF740F92046FDF73DF93846FDF73AF92E
:104030004FA8FDF737F94046FDF7DEFCD5F8803094
:104040000DF5CA615B89A5F89C364046FDF7F4FF83
:1040500046493FA8FDF7CDFB454943A8FDF7C9FBFD
:10406000444B52934FA9444B4F9538465193FEF71A
:1040700008F8424B5B952146E3603046404BA36015
:10408000FDF7FFFF409A07923E4AC5F8A0263E4A38
:10409000C5F8A4263F9BC5F8A8B641460DF66C406E
:1040A0000A93DDF80CA1DDF81091FDF7C5FF394644
:1040B0000DF6CC40FDF7E5FF31460DF6DC40FDF78F
:1040C000E0FF0A9BC5F82C370DF65C430799C5F84D
:1040D0003C37B5F89C36C5F83017A5F84037C5F819
:1040E00034A7C5F838973046FDF7DCF82046FDF7D1
:1040F000D9F83846FDF7D6F84FA8FDF7D3F8404673
:1041000046E000BFA90D0008CB0400085D89000847
:10411000B50D0008E1040008C90D0008F704000807
:10412000D50D00080D05000864890008E10D0008A0
:1041300023050008E6880008CC8A0008F50D000871
:1041400039050008110E00084F0500087C730008AF
:104150006E8900087F8900083D0E0008650500088B
:10416000490E00087B05000890730008828900084A
:10417000928900085F0E0008910500086B0E000888
:10418000A7050008A47300080000E02E4D89000870
:10419000FDF732FCD5F880300DF5CA611B89A5F812
:1041A00044374046FDF748FFC6493FA8FDF721FBCD
:1041B000C54943A8FDF71DFBC44B52934FA9C44BFF
:1041C0004F9538465193FDF75CFFC24B5B952146F6
:1041D000E3603046C04BA360FDF753FFBF4AC5F80C
:1041E00048274099BE4AC5F84C273F9BC5F850B7B1
:1041F00007910DF6145041460A93DDF80CA1DDF845
:104200001091FDF719FF39460DF67450FDF739FF8F
:1042100031460DF68450FDF734FF0A9BC5F8D437BC
:104220000DF604530799C5F8E437B5F84437A5F8F7
:10423000E837C5F8D817C5F8DCA7C5F8E0973046C9
:10424000FDF730F82046FDF72DF83846FDF72AF83F
:104250004FA8FDF727F84046FDF7CEFB0DF5CA61E4
:104260004046FDF7E9FE9F4B49953946FB6043A860
:104270009D4BBB60FDF705FF9C4B50939C4B5493AB
:104280009C4B539307219C4B4F910C215591C6E9B0
:1042900001359A4B73619A4B33610E235B93994BB3
:1042A000C5F8F0B7C4E90135974B6361974B2361BB
:1042B000974BC5F8EC3741460DF6B4505195FDF7D4
:1042C000BBFE43A90DF61460FDF7DBFE4FA90DF60A
:1042D0002460FEF790F931460DF63C60FEF78BF94D
:1042E00021460DF65460FEF786F90021C5F8AC189A
:1042F000C5F8B0180598FCF7D5FF0698FCF7D2FF73
:104300000898FCF7CFFF43A8FCF7CCFF3846FCF732
:10431000C9FF4046FDF770FB0DF5CA614046FDF749
:104320008BFE7C4B5B952146E36030467A4BA36065
:10433000FDF7A7FE79493846FDF75BFA78494FA8A3
:10434000FDF757FAD5F884304F9907917549C5F8AC
:10435000B418C5F8B8B8499A0B9203F5BE7941462E
:104360007B680A930DF67C60DDF840A1FDF764FEE2
:1043700031460DF6DC60FDF784FE0B9A0A9B079927
:10438000C5F82C29C5F83039C5F83419C5F838A94D
:10439000C5F83C993046FCF785FF2046FCF782FFC4
:1043A0004046FDF729FBD5F880300DF5CA619B7EAC
:1043B00085F840394046FDF73FFE5B493FA8FDF7D1
:1043C00018FA574943A8FDF714FA584B52934FA9CE
:1043D000574B4F9538465193FDF753FE554B5B9520
:1043E0002146E3603046544BA360FDF74AFE3F9BF5
:1043F0000A934FF4C840514BC5F84439409AA5F888
:104400004809C5F84CB941460DF571600792DDF8D1
:104410000CA1DDF81091FDF70FFE39460DF5776020
:10442000FDF72FFE31460DF57860FDF72AFE0A9B59
:10443000C5F8D0390DF57063079AC5F8E03995F8DD
:104440004039C5F8D42985F8E439C5F8D8A9C5F8A4
:10445000DC993046FCF726FF2046FCF723FF384660
:10446000FCF720FF0DF59E7C6046FCF71BFF4046E5
:10447000FDF7C2FAD5F880300DF5CA61DB7E85F80C
:10448000E8394046FDF7D8FD0DF1FC0C2C4960469B
:10449000FDF7AFF90DF5867C60462149FDF7A9F9D6
:1044A000284B52934FA9284B4F9538465193FDF70F
:1044B000E8FD264B5B952146E3603046244BA36024
:1044C00048E000BF2489000896890008810E000892
:1044D000BD0500088D0E0008D3050008A473000870
:1044E0005046C8AFA30E0008E90500089A890008E5
:1044F000AF0E0008FF050008A2890008BB0E0008E7
:1045000015060008AF890008C70E00082B06000832
:10451000B8730008D30E000841060008BE890008E1
:10452000CE8900080C730008D1890008DF0E00084E
:1045300057060008E50F00086D0600089073000894
:10454000E1890008EB0E000883060008011000084E
:1045500099060008FDF795FD409B43990A934FF497
:10456000C840C14BC5F8EC393F9AA5F8F009C5F829
:10457000F4B907910DF6B87041460B92DDF810A121
:10458000FDF75AFD0DF5805039461830FDF779FDDD
:104590000DF5815031460830FDF773FD0A9BC5F8D3
:1045A0007C3A0DF6A8730B9A0799C5F8883A95F8E6
:1045B000E839C5F8782A85F88C3AC5F8801AC5F824
:1045C00084AA3046FCF76EFE2046FCF76BFE3846A8
:1045D000FCF768FE4FA8FCF765FE4046FDF70CFAB5
:1045E0000DF5CA614046FDF727FDA04B52934FA938
:1045F0009F4B4F9538465193FDF743FD9D4B73609C
:10460000D9469D4BDFF8FCA24FF00A0BCDF854B110
:1046100073619A4B33619A4B08215B91C4E9013570
:10462000984B63610DF58250974B236142463B46A0
:104630004946CDE900641030FEF716F80598FCF7FE
:1046400031FE0698FCF72EFE3846FCF72BFE4FA8ED
:10465000FCF728FE4046FDF7CFF90DF5CA6140464C
:10466000FDF7EAFC894B52934FA9894B4F95384689
:104670005193FDF706FD874B08215591C6E9013599
:10468000854B7361854B3361854B63600721854B97
:104690005B916361844B236142463B464946CDE9C9
:1046A00000640DF58850FDF7DFFF0598FCF7FAFD73
:1046B0000698FCF7F7FD3846FCF7F4FD4FA8FCF729
:1046C000F1FD4046FDF798F90DF5CA614046FDF74A
:1046D000B3FC764B469343A9754B43953FA845934E
:1046E000FDF7CFFC0821734B49917B61724B3B6115
:1046F000724B5093724B5493724B5393724B4F9136
:104700000B215591C6E90135704B7361704B3361D4
:10471000704BCDF86CB1C4E901356F4B63613FA8B4
:104720006E4B23614FA903460DF58D504246C7E9F4
:1047300001A51030CDE90071CDE9026449465195DB
:10474000FDF768FF0598FCF7ADFD0698FCF7AAFD9C
:104750000898FCF7A7FD0998FCF7A4FD3FA8FCF713
:10476000A1FD43A8FCF79EFD4046FDF745F9D5F8AD
:1047700080300DF5CA61DB7F85F8D03C4046FDF7FF
:104780005BFC51463FA8FDF734F8554943A8FDF7B7
:1047900030F8544B52934FA9534B4F953846519391
:1047A000FDF76FFC514B5B952146E3603046504B63
:1047B000A360FDF766FC4F49C5F8D41C4FF4807127
:1047C0003F9A409BA5F8D81CC5F8DC9C41460DF5E6
:1047D000955006920593DDF80CB1DDF810A1FDF7B8
:1047E0002BFC39460DF59850FDF74BFC0DF5985014
:1047F00031461030FDF745FC059BC5F8643D0DF5CD
:1048000094531033069AC5F8703D95F8D03CC5F81E
:10481000602D85F8743DC5F868BDC5F86CAD3046AF
:10482000FCF740FD2046FCF73DFD3846FCF73AFD1D
:104830004FA8FCF737FD4046FDF7DEF8D5F880308D
:104840000DF5CA619B8AA5F8783D4046FDF7F4FB5B
:1048500029493FA8FCF7CDFF284943A8FCF7C9FF29
:10486000274B52934FA94FE090730008F70E0008B2
:10487000AF060008F0890008C5060008C706000852
:10488000FB89000855110008D1060008030F000835
:10489000E7060008048A00080F0F0008FD0600085C
:1048A0000D8A000853110008130700081B0F0008A9
:1048B0001D070008270F0008330700081E8A00089C
:1048C000330F000849070008278A00083F0F000837
:1048D0005F070008338A00084B0F000875070008BF
:1048E000CC8A0008570F00088B070008630F0008E8
:1048F000A1070008CC7300083E8A000896890008CA
:104900007F0F0008158A00089D4B4F95384651933C
:10491000FDF7B7FB9B4B5B952146E36030469A4B16
:10492000A360FDF7AEFB3F9A06924FF07A61974A7B
:10493000C5F87C2D0DF59A50409BC5F8801DC5F833
:10494000849D414608300593DDF80CB1DDF810A1D7
:10495000FDF772FB0DF59D5039460830FDF791FBD0
:104960000DF59D5031461830FDF78BFB059BC5F8C2
:104970000C3E0DF599531833069AC5F8183EB5F854
:10498000783DC5F8082EA5F81C3EC5F810BEC5F840
:1049900014AE3046FCF786FC2046FCF783FC384614
:1049A000FCF780FC4FA8FCF77DFC4046FDF724F89F
:1049B000D5F880300DF5CA611B7E85F8203E404653
:1049C000FDF73AFB72493FA8FCF713FF714943A872
:1049D000FCF70FFF704B52934FA9704B4F95384621
:1049E0005193FDF74EFB6E4B5B952146E3603046DD
:1049F0006C4BA360FDF745FB409B059346F20241DB
:104A0000694BC5F8243E0DF59F503F9AA5F8281E26
:104A1000C5F82C9E414610300692DDF80CB1DDF849
:104A200010A1FDF709FB0DF5A25039461030FDF736
:104A300028FB31460DF5A350FDF723FB059BC5F878
:104A4000B43E0DF59F53069AC5F8C03E95F8203E3A
:104A5000C5F8B02E85F8C43EC5F8B8BEC5F8BCAEE2
:104A60003046FCF71FFC2046FCF71CFC3846FCF7E0
:104A700019FC4FA8FCF716FC4046FCF7BDFFD5F823
:104A800080300DF5CA61DB8AA5F8C83E4046FDF7C7
:104A9000D3FA46493FA8FCF7ACFE454943A8FCF7CA
:104AA000A8FE444B52934FA9434B4F9538460DF502
:104AB000B8655193FDF7E5FA404B5B952146E360FD
:104AC00030463F4BA360FDF7DCFA3F9A06923D4922
:104AD0002E4A409BC5F8CC2E0DF5A450C5F8D01E2B
:104AE000C5F8D49E414618300593DDF80CB1DDF8C9
:104AF00010A1FDF7A1FA0DF5A75039461830FDF7C2
:104B0000C0FA0DF5A85031460830FDF7BAFA059BFA
:104B1000C5F85C3F0DF5A4530833069AC5F8683F05
:104B2000B5F8C83EC5F8582FA5F86C3FC5F860BF6A
:104B3000C5F864AF3046FCF7B5FB2046FCF7B2FB86
:104B40003846FCF7AFFB4FA8FCF7ACFB4046FCF740
:104B500053FF2846FCF704FCD5F8880003681B685F
:104B60009847EB6E93F8303023B9FEE769F38A2358
:104B7000FEF777BC144C2046FDF76EFF30BFFAE716
:104B8000B70700088B0F0008CD070008A4730008C2
:104B90004F8A0008CB8A0008A10F0008E30700082D
:104BA000AD0F0008F907000890730008608A00083C
:104BB000708A0008C30F00080F080008CF0F000814
:104BC000250800086400D0070403002038B5054616
:104BD0000C46FDF774FDAB68A268AA60A360E268AA
:104BE000EB68EA60E36038BD30B5044689B008463A
:104BF000002369460293FFF7E9FF23689C6F23684F
:104C0000694604A81D69FDF7E7FC04A92046A847EA
:104C100004A8FCF747FB6846FCF744FB09B030BD2D
:104C200030B5044689B00846002369460293FFF771
:104C3000CDFF23685C6F2368694604A81D69FDF7F2
:104C4000CBFC04A92046A84704A8FCF72BFB684628
:104C5000FCF728FB09B030BD1FB504466846FDF7D8
:104C6000BBFC21466846FFF7B1FF6846FCF71AFB1C
:104C7000204604B010BD08B55430FFF7EDFF08BD65
:104C800008B55430FFF7E8FF08BD08B55430FFF70A
:104C9000E3FF08BD1FB550B16846FDF7F2F9029B6E
:104CA00013B16846FDF7A2FB6846FCF7FBFA05B0B6
:104CB0005DF804FB07B5826801910AB901F050FE66
:104CC000C36801A9984703B05DF804FB7FB50446AB
:104CD000406EFCF7D3FA08B9A36E8BB3606EFCF795
:104CE000CDFA054680BB637C63BB94F8706004F129
:104CF00024016846FDF7C5F969463046FFF7CAFF4B
:104D00006846FCF7CFFA637C33B994F870501DB154
:104D100094F8715085F0010504F134016846FDF7FF
:104D2000B0F969462846FFF7B5FF6846FCF7BAFABE
:104D300000230122C4E91A3284F8703084F87130FB
:104D400004B070BD0646D2E7A36E0133092BA366FB
:104D500022D994F870208AB9657C012384F87030D8
:104D60005D4004F114016846FDF78BF92846694659
:104D7000FFF790FF6846FCF795FAE1E7B3F57A7F15
:104D80000AD394F871203AB9657C012384F8713014
:104D90005D4004F14401E6E7E26D002AD0D0B3F5AE
:104DA0007A7FCDD9B3F5FA6F0CD8C821B3FBF1F2F5
:104DB00001FB1233002BC3D1012104F15400FFF792
:104DC00079FFBDE740F6B832934201D86421EDE7A0
:104DD000B3F57A6F01D83221E8E71921B3FBF1F27C
:104DE00001FB123241F288318B4202D8002AA7D14E
:104DF000E2E7002AA4D1E16E04F15400FFF75AFF64
:104E0000A16E4FF47A72B1FBF2F302FB1313002B85
:104E100096D1E36E0133E36692E7A0F1040055E713
:104E20007FB50446406EFCF729FA08B9A36E8BB330
:104E3000606EFCF723FA054680BB637C63BB94F885
:104E4000706004F124016846FDF71BF9694630469D
:104E5000FFF720FF6846FCF725FA637C33B994F826
:104E600070501DB194F8715085F0010504F13401C2
:104E70006846FDF706F969462846FFF70BFF6846C6
:104E8000FCF710FA00230122C4E91A3284F87030CA
:104E900084F8713004B070BD0646D2E7A36E0133CA
:104EA000092BA36622D994F870208AB9657C012366
:104EB00084F870305D4004F114016846FDF7E1F8B4
:104EC00028466946FFF7E6FE6846FCF7EBF9E1E79E
:104ED000B3F57A7F0AD394F871203AB9657C01233F
:104EE00084F871305D4004F14401E6E7E26D002A88
:104EF000D0D0B3F57A7FCDD9B3F5FA6F0CD8C821ED
:104F0000B3FBF1F201FB1233002BC3D1012104F1F9
:104F10005400FFF7CFFEBDE740F6B832934201D808
:104F20006421EDE7B3F57A6F01D83221E8E7192162
:104F3000B3FBF1F201FB123241F288318B4202D80D
:104F4000002AA7D1E2E7002AA4D1E16E04F15400BF
:104F5000FFF7B0FEA16E4FF47A72B1FBF2F302FBE1
:104F60001313002B96D1E36E0133E36692E7A0F1B1
:104F7000040055E77FB50446406EFCF77FF908B999
:104F8000A36E8BB3606EFCF779F9054680BB637C3A
:104F900063BB94F8706004F124016846FDF771F872
:104FA00069463046FFF776FE6846FCF77BF9637C7E
:104FB00033B994F870501DB194F8715085F0010523
:104FC00004F134016846FDF75CF869462846FFF7AE
:104FD00061FE6846FCF766F900230122C4E91A3233
:104FE00084F8703084F8713004B070BD0646D2E7A2
:104FF000A36E0133092BA36622D994F870208AB9D5
:10500000657C012384F870305D4004F1140168462A
:10501000FDF737F828466946FFF73CFE6846FCF77F
:1050200041F9E1E7B3F57A7F0AD394F871203AB9F0
:10503000657C012384F871305D4004F14401E6E7AA
:10504000E26D002AD0D0B3F57A7FCDD9B3F5FA6FEF
:105050000CD8C821B3FBF1F201FB1233002BC3D1F2
:10506000012104F15400FFF725FEBDE740F6B832F8
:10507000934201D86421EDE7B3F57A6F01D832216C
:10508000E8E71921B3FBF1F201FB123241F288315A
:105090008B4202D8002AA7D1E2E7002AA4D1E16E10
:1050A00004F15400FFF706FEA16E4FF47A72B1FBD3
:1050B000F2F302FB1313002B96D1E36E0133E36688
:1050C00092E7A0F1040055E7F0B5FF23074F084E23
:1050D0001D4611F8014B5C4091423B5D83EA05039C
:1050E000355DF6D105704370F0BD00BF5C760008F9
:1050F0005C7700081FB50023CDF80630ADF80A3004
:1051000040F20133ADF8043011238DF8073001234C
:105110008DF809300DF10A02062301A90446039314
:10512000FFF7D2FF204604B010BD1FB50023CDF815
:105130000630ADF80A3040F20133ADF804301023E8
:105140008DF8073001238DF809300DF10A0206238E
:1051500001A904460393FFF7B7FF204604B010BD32
:105160001FB50023CDF80630ADF80A3040F2013308
:10517000ADF804300F238DF8073001238DF8093086
:105180000DF10A02062301A904460393FFF79CFFD1
:10519000204604B010BD1FB50023CDF80630ADF891
:1051A0000A3040F20133ADF804300E238DF8073099
:1051B00001238DF809300DF10A02062301A90446E6
:1051C0000393FFF781FF204604B010BD1FB50023F5
:1051D000CDF80630ADF80A3040F20133ADF80430B6
:1051E0000D238DF8073001238DF809300DF10A02E7
:1051F000062301A904460393FFF766FF204604B087
:1052000010BD1FB50023CDF80630ADF80A3040F2CE
:105210000133ADF804300C238DF8073001238DF8ED
:1052200009300DF10A02062301A904460393FFF792
:105230004BFF204604B010BD1FB50023CDF806304B
:10524000ADF80A3040F20133ADF804300B238DF88D
:10525000073001238DF809300DF10A02062301A958
:1052600004460393FFF730FF204604B010BD1FB57E
:105270000023CDF80630ADF80A3040F20133ADF826
:1052800004300A238DF8073001238DF809300DF121
:105290000A02062301A904460393FFF715FF2046DF
:1052A00004B010BD1FB50023CDF80630ADF80A30AC
:1052B00040F20133ADF8043007238DF807300123A5
:1052C0008DF809300DF10A02062301A90446039363
:1052D000FFF7FAFE204604B010BD1FB50023CDF83D
:1052E0000630ADF80A30012240F20133ADF8043047
:1052F0008DF8092006230DF10A0201A904468DF854
:1053000007300393FFF7E0FE204604B010BD1FB541
:105310000023CDF80630ADF80A3040F20133ADF885
:10532000043005238DF8073001238DF809300DF185
:105330000A02062301A904460393FFF7C5FE20468F
:1053400004B010BD1FB50023CDF80630ADF80A300B
:1053500040F20133ADF8043004238DF80730012307
:105360008DF809300DF10A02062301A904460393C2
:10537000FFF7AAFE204604B010BD30B50B1A9B10F3
:10538000002B15DD14780578A54203D04578A54299
:1053900001D1013030BD8578A54201D10230F9E755
:1053A000C578A54201D10330F4E70430013BE7E7BB
:1053B0000B1A022B0ED0032B07D0012B10D104782F
:1053C00013789C4218BF0846E4E7047813789C429F
:1053D000E0D00130047813789C42DBD00130EEE756
:1053E0000846D7E72DE9F34190F859304169044662
:1053F000052B1BD8DFE813F006001D004A008200D1
:10540000B400E80090F85C30C218C95C127E91428A
:1054100040F0F6800133DBB2202B28BF002380F858
:105420005C30B3FA83F35B0980F8583002B0BDE812
:10543000F0810069C268C2F30042002AF6D1036914
:10544000002BF3DAFBF788FE2369186962F3410049
:1054500018611A6942F001021A6123691A69012070
:1054600060F309221A611A6942F080721A6194F895
:105470005C30CA5C84F85B2094F85B10626D43EA90
:1054800001231380022384F85930CFE70369DA68D7
:10549000D107CBD5DA6842F00102DA601A6942F02E
:1054A00000421A6190F85C3090F85B2003441A7651
:1054B000426D836B0232426500EBC300D0E91115E7
:1054C00001EB45018A4203D094F85A30DBB2DAE7A7
:1054D0000122E1181344022B28BF002381F83C204D
:1054E000A36304EBC3035B6C6365002384F85C3047
:1054F00084F85920052384F85A3097E70769FD6836
:10550000C5F30045002D91D13B69002B8EDA02AA2C
:1055100000F13E06012300F13C0802F8013D31464E
:105520004046FFF72AFFB042CED0A0EB080020642F
:105530003846FBF711FE236C324AD25C036965F3EF
:1055400000030361036943F002030361036962F32B
:10555000C6030361036943F480330361042392E7C4
:105560000369DA68D2077FF561AFDA6842F00102B9
:10557000DA601A6942F000421A61016C00EBC10363
:10558000D3E911234FF6FF7502EB43039342104614
:1055900018D00688AE4202F10202F7D01B1A21444D
:1055A00018BF012304F13E0581F83C3004F13C00B2
:1055B0002946FBF75DFD854214BF0320002084F8D7
:1055C000590033E71846E9E790F85C300133DBB265
:1055D0001F2B11D9002380F85C3004F13E052946C9
:1055E00004F13C00FBF744FD854214BF032000207A
:1055F00084F8590000237EE780F85C30002BECD063
:10560000012340E78978000873B590F8A0308668D8
:1056100019444379C9B28B4238BF037980F8A0108E
:1056200038BF80F8A0301423336090F8A0200B4BD3
:105630006D4653F8221004462846FCF7DAF89434F5
:1056400095E806003046FCF7F3FB94E80600FCF70B
:10565000EFFBFCF7A9F802B070BD00BF6C78000842
:1056600008B501210068FFF7CFFF08BD08B509683C
:105670000068FFF7C9FF08BD73B590F8A030591A4C
:105680000379C9B28B42044680F8A01001D8FF29E3
:1056900002D1637984F8A030A6681423336094F8AB
:1056A000A0200A4B6D4653F822102846FCF7A1F8BB
:1056B000943495E806003046FCF7BAFB94E80600FF
:1056C000FCF7B6FBFCF770F802B070BD6C78000810
:1056D00008B501210068FFF7CFFF08BD08B50968CC
:1056E0000068FFF7C9FF08BD826810B50AB901F06C
:1056F00037F9C368BDE81040184730B585B0044697
:10570000002569460C300295FCF7CAFC6846FBF799
:10571000C9FD694604F11C000295FCF7C1FC68460E
:10572000FBF7C0FD694604F12C000295FCF7B8FCBC
:105730006846FBF7B7FD694604F13C000295FCF7AB
:10574000AFFC6846FBF7AEFD694604F14C000295DC
:10575000FFF7CAFF6846FBF7A5FD694604F15C0048
:105760000295FFF7C1FF6846FBF79CFD05B030BD11
:1057700030B585B00446002569460C300295FCF72B
:105780008FFC6846FBF78EFD694604F11C0002950C
:10579000FCF786FC6846FBF785FD694604F12C00A2
:1057A0000295FCF77DFC6846FBF77CFD694604F139
:1057B0003C000295FCF774FC6846FBF773FD6946F4
:1057C00004F14C000295FFF78FFF6846FBF76AFD76
:1057D000694604F15C000295FFF786FF6846FBF717
:1057E00061FD05B030BD30B585B004460025694681
:1057F0000C300295FCF754FC6846FBF753FD6946F4
:1058000004F11C000295FCF74BFC6846FBF74AFDCF
:10581000694604F12C000295FCF742FC6846FBF750
:1058200041FD694604F13C000295FCF739FC6846ED
:10583000FBF738FD694604F14C000295FFF754FF71
:105840006846FBF72FFD694604F15C000295FFF7FF
:105850004BFF6846FBF726FD05B030BD30B585B07F
:105860000446002569460C300295FCF719FC684691
:10587000FBF718FD694604F11C000295FCF710FCCB
:105880006846FBF70FFD694604F12C000295FCF712
:1058900007FC6846FBF706FD694604F13C000295EB
:1058A000FCF7FEFB6846FBF7FDFC694604F14C0083
:1058B0000295FFF719FF6846FBF7F4FC694604F10F
:1058C0005C000295FFF710FF6846FBF7EBFC05B0A4
:1058D00030BD30B585B00446002569460C300295D0
:1058E000FCF7DEFB6846FBF7DDFC694604F11C00B3
:1058F0000295FCF7D5FB6846FBF7D4FC694604F13A
:105900002C000295FCF7CCFB6846FBF7CBFC694604
:1059100004F13C000295FCF7C3FB6846FBF7C2FCB0
:10592000694604F14C000295FFF7DEFE6846FBF77E
:10593000B9FC694604F15C000295FFF7D5FE6846A4
:10594000FBF7B0FC05B030BD7FB53C4B00906D4619
:105950000446294603930C30394B0293FCF7A0FB15
:105960002846FBF79FFC374B03932946364B02939F
:1059700004F11C000094FCF793FB2846FBF792FC13
:10598000324B03932946324B029304F14C000094AE
:10599000FFF7AAFE2846FBF785FC2E4B039329460A
:1059A0002D4B029304F15C000094FFF79DFE284606
:1059B000FBF778FC294B03932946294B029304F10A
:1059C0002C000094FCF76CFB2846FBF76BFC254B86
:1059D00003932946244B029304F13C000094FCF706
:1059E0005FFB2846FBF75EFCA0680023036004F120
:1059F0008C0393E80600FCF71BFAFBF7D5FED4F8FE
:105A00009C30A6681B7884F8A0301423336094F887
:105A1000A020164B284653F82210FBF7EAFE9434D8
:105A200095E806003046FCF703FA94E80600FCF718
:105A3000FFF9FBF7B9FE04B070BD00BF6156000866
:105A400083080008D1560008990800086D56000820
:105A5000AF080008DD560008C50800086D240008DE
:105A6000DB0800088F240008F10800086C780008A3
:105A70001FB5354B00900446694603930C30334BF9
:105A80000293FCF70DFB6846FBF70CFC304B0393CD
:105A90006946304B029304F11C000094FCF700FBB4
:105AA0006846FBF7FFFB2C4B039369462B4B029395
:105AB00004F14C000094FFF717FE6846FBF7F2FB79
:105AC000274B03936946274B029304F15C00009433
:105AD000FFF70AFE6846FBF7E5FB234B0393694695
