:020000040800F2
:10000000000002205D820008AD820008AD82000879
:10001000AD820008AD820008AD820008000000003B
:10002000000000000000000000000000AD82000899
:10003000AD82000800000000AD820008BD16000877
:10004000A518000815190008A7180008A918000825
:10005000AB180008AD180008AF180008B118000868
:10006000B3180008B5180008B71800088D19000863
:10007000A9190008C5190008E1190008FD190008B0
:10008000191A0008351A0008B9180008BB1800082A
:10009000BD180008BF180008C1180008C3180008E0
:1000A000F7180008F9180008FB180008FD180008E8
:1000B000FF1800080119000803190008C5180008F6
:1000C000C7180008C9180008CB1800084D1B000805
:1000D000591B000839190008551900087119000842
:1000E000CD180008CF180008D11800080B19000817
:1000F0000D1900080F19000811190008511A0008FD
:10010000D3180008D518000805190008651B000859
:10011000D7180008D918000807190008091900089D
:100120006D1A0008891A0008A51A0008C11A0008EB
:10013000DD1A00080000000000000000DB180008C5
:10014000DD180008DF180008E1180008E3180008AF
:10015000F91A0008151B0008311B0008E5180008F3
:10016000E7180008E9180008EB180008ED18000867
:10017000EF180008F118000800000000000000005F
:08018000F3180008F51800084F
:1001900010B5054C237833B9044B13B10448AFF3C1
:1001A00000800123237010BD6800002000000000C3
:1001B000188C000808B5034B1BB103490348AFF383
:1001C000008008BD000000006C000020188C0008B2
:1001D000034613F8012B002AFBD1181A0138704787
:1001E00001F0FF01102A2BDB10F0070F08D010F8E8
:1001F000013B013A8B422DD010F0070F42B3F6D1EC
:10020000F0B441EA012141EA014122F007047FF004
:1002100000070023F0E80256083C85EA010586EA5B
:10022000010685FA47F5A3FA87F586FA47F6A5FA97
:1002300087F68EB9EED1F0BC01F0FF0102F00702A3
:1002400032B110F8013B013A83EA010313B1F8D14E
:100250000020704701387047002D06BF354603382F
:10026000073815F0010F07D1013015F4807F02BF68
:10027000013015F4C03F0130F0BC0138704700BFB9
:100280004209012300F01F0003FA00F0014B43F87C
:100290002200704700E100E0436901334361704789
:1002A00070477047012A03D0022A03D0002070470C
:1002B0000160FBE70B680360F8E77047012A03D091
:1002C000022A03D0002070470160FBE70B6803603F
:1002D000F8E7012A03D0022A03D00020704701600A
:1002E000FBE70B680360F8E770B50546D0F89800A7
:1002F00003680C469B689847C5F8984023682046D9
:100300001B68BDE87040184703681A7F82F001023D
:100310001A7742681278520744BFB3F81C22A3F838
:100320009C207047012A034603D0022A03D00020F4
:1003300070470160FBE703C983E80300F7E7036840
:1003400093F83C2082F0010283F83C204268127846
:10035000120744BFB3F81C22A3F89C207047012A5F
:10036000034603D0022A03D0002070470160FBE758
:1003700003C983E80300F7E7D0E9003010B502684D
:1003800003EB8203541C0460196110BD012A03D0E1
:10039000022A03D0002070470160FBE70B6803606E
:1003A000F8E7012A03D0022A03D000207047016039
:1003B000FBE70B680360F8E7012A03D0022A03D0A9
:1003C000002070470160FBE70B680360F8E7012A33
:1003D00003D0022A03D0002070470160FBE70B68BE
:1003E0000360F8E7012A03D0022A03D000207047F7
:1003F0000160FBE70B680360F8E7012A03D0022ADB
:1004000003D0002070470160FBE70B680360F8E74A
:10041000006800F5E471FFF767BF012A03D0022AE4
:1004200003D0002070470160FBE70B680360F8E72A
:1004300010B50446006800F58071FFF755FF23688A
:10044000D3F88030012283F8502110BD012A03D057
:10045000022A03D0002070470160FBE70B680360AD
:10046000F8E710B50446006800F53871FFF73CFF67
:100470002268D2F88010002381F8B031D2F88010C1
:1004800081F8F031D2F8802082F8503210BD012A74
:1004900003D0022A03D0002070470160FBE70B68FD
:1004A0000360F8E7006800F28441FFF71DBF012AEE
:1004B00003D0022A03D0002070470160FBE70B68DD
:1004C0000360F8E7006800F57771FFF70DBF012AB8
:1004D00003D0022A03D0002070470160FBE70B68BD
:1004E0000360F8E7006800F60C31FFF7FDBE012A53
:1004F00003D0022A03D0002070470160FBE70B689D
:100500000360F8E7006800F65C21FFF7EDBE012A02
:1005100003D0022A03D0002070470160FBE70B687C
:100520000360F8E710B50446006800F57461FFF752
:10053000DBFE2268D2F88010002381F89031D2F8D7
:10054000802082F8703110BD012A03D0022A03D026
:10055000002070470160FBE70B680360F8E7006864
:10056000D0F88020012382F8D030D0F8802082F8A3
:10057000B031D0F8802082F8B030D0F8802082F8F6
:10058000F031D0F8802082F8F030D0F8802000F5EB
:10059000E47182F85032FFF7A7BE012A03D0022A85
:1005A00003D0002070470160FBE70B680360F8E7A9
:1005B0000368D3F88020B2F8BC2183F8D822006801
:1005C00000F5A561FFF790BE012A03D0022A03D0EF
:1005D000002070470160FBE70B680360F8E70368E1
:1005E000D3F88020B2F85C22A3F8DC22006800F285
:1005F000CC51FFF779BE012A03D0022A03D0002094
:1006000070470160FBE70B680360F8E70368D3F805
:100610008020B2F8FC21A3F8DA22006800F5CE6150
:10062000FFF762BE012A03D0022A03D000207047E0
:100630000160FBE70B680360F8E70068D0F88020F2
:10064000002382F89032D0F8802000F5E36182F830
:10065000B032FFF749BE012A03D0022A03D000209E
:1006600070470160FBE70B680360F8E7006800F67D
:10067000B811FFF739BE012A03D0022A03D00020A7
:1006800070470160FBE70B680360F8E7006800F55E
:10069000E471FFF729BE012A03D0022A03D000200B
:1006A00070470160FBE70B680360F8E70068D0F86B
:1006B000882090F8D8331178003318BF012363F3F2
:1006C00082011170C26F9375D0F88030002283F8D8
:1006D0005021D0F88830D0F880201B78C3F38003F5
:1006E00083F0010382F89030D0F88030B3F81C22F8
:1006F000A3F89C2000F5E471FFF7F6BD012A03D0B2
:10070000022A03D0002070470160FBE70B680360FA
:10071000F8E7006800F5E471FFF7E6BD012A03D0B1
:10072000022A03D0002070470160FBE70B680360DA
:10073000F8E70068D0F8882090F88034117863F3E7
:10074000C3011170C26FD375D0F88030002283F8D6
:100750005021D0F88830D0F880201B78C3F3C00334
:1007600083F0010382F89030D0F88030B3F81C2277
:10077000A3F89C2000F5E471FFF7B6BD012A03D071
:10078000022A03D0002070470160FBE70B6803607A
:10079000F8E7006800F53871FFF7A6BD012A03D01D
:1007A000022A03D0002070470160FBE70B6803605A
:1007B000F8E70068D0F8803090F8D822A3F8DC2061
:1007C000D0F88030002283F8D02000F53871FFF790
:1007D0008BBD012A03D0022A03D00020704701609C
:1007E000FBE70B680360F8E7006800F53871FFF776
:1007F0007BBD012A03D0022A03D00020704701608C
:10080000FBE70B680360F8E70068D0F88030B0F8C9
:10081000DC22A3F8FC20D0F88030002283F8F020FE
:1008200000F53871FFF760BD012A03D0022A03D01A
:10083000002070470160FBE70B680360F8E7006881
:1008400000F53871FFF750BD012A03D0022A03D00A
:10085000002070470160FBE70B680360F8E7006861
:10086000D0F88030B0F8DA22A3F8BC20D0F880307D
:10087000002283F8B02000F53871FFF735BD012A5A
:1008800003D0022A03D0002070470160FBE70B6809
:100890000360F8E70068D0F88020012382F8103167
:1008A000D0F8802082F83031D0F8802082F8903261
:1008B000D0F8802000F5E47182F8B032FFF714BD63
:1008C000012A03D0022A03D0002070470160FBE711
:1008D0000B680360F8E7006800F5FC61FFF704BDF2
:1008E000012A03D0022A03D0002070470160FBE7F1
:1008F0000B680360F8E70368D3F88020B2F89C2205
:10090000A3F81427006800F66C01FFF7EDBC012A7C
:1009100003D0022A03D0002070470160FBE70B6878
:100920000360F8E70368D3F88020B2F8BC22A3F88C
:100930001627006800F51161FFF7D6BC012A03D025
:10094000022A03D0002070470160FBE70B680360B8
:10095000F8E7006800F5E361FFF7C6BC012A03D0A1
:10096000022A03D0002070470160FBE70B68036098
:10097000F8E7006800F5E361FFF7B6BC012A03D091
:10098000022A03D0002070470160FBE70B68036078
:10099000F8E70068D0F88030B0F81427A3F81C21DD
:1009A000D0F88030002283F8102100F5E361FFF7D2
:1009B0009BBC012A03D0022A03D0002070470160AB
:1009C000FBE70B680360F8E7006800F5E361FFF7F9
:1009D0008BBC012A03D0022A03D00020704701609B
:1009E000FBE70B680360F8E70068D0F88030B0F8E8
:1009F0001627A3F83C21D0F88030002283F830215C
:100A000000F5E361FFF770BC012A03D0022A03D08E
:100A1000002070470160FBE70B680360F8E700689F
:100A200000F53871FFF760BC012A03D0022A03D019
:100A3000002070470160FBE70B680360F8E700687F
:100A4000C36F90F8B4295A7500F53871FFF74CBCA4
:100A5000012A03D0022A03D0002070470160FBE77F
:100A60000B680360F8E7006800F5E471FFF73CBC31
:100A7000012A03D0022A03D0002070470160FBE75F
:100A80000B680360F8E77047012A08BF0160002087
:100A90007047012A03D0022A03D00020704701606A
:100AA000FBE70B680360F8E7006800F5E471FFF707
:100AB0001BBC012A03D0022A03D00020704701602A
:100AC000FBE70B680360F8E7006800F6BC31FFF74E
:100AD0000BBC012A03D0022A03D00020704701601A
:100AE000FBE70B680360F8E7012A08BF01600020FC
:100AF0007047006800F60C31FFF7F6BB012A03D0FF
:100B0000022A03D0002070470160FBE70B680360F6
:100B1000F8E7006800F54A61FFF7E6BB012A03D059
:100B2000022A03D0002070470160FBE70B680360D6
:100B3000F8E7006800F64851FFF7D6BB012A03D05A
:100B4000022A03D0002070470160FBE70B680360B6
:100B5000F8E7006800F55F61FFF7C6BB012A03D024
:100B6000022A03D0002070470160FBE70B68036096
:100B7000F8E7006800F69861FFF7B6BB012A03D0DA
:100B8000022A03D0002070470160FBE70B68036076
:100B9000F8E7006800F6BC31FFF7A6BB012A03D0D6
:100BA000022A03D0002070470160FBE70B68036056
:100BB000F8E7006890F89C3CC26F003318BF01232F
:100BC000137600F6BC31FFF78FBB012A03D0022A4F
:100BD00003D0002070470160FBE70B680360F8E773
:100BE000006800F6BC31FFF77FBB012A03D0022A60
:100BF00003D0002070470160FBE70B680360F8E753
:100C00000068C36FB0F8442D1A8200F6BC31FFF7BC
:100C10006BBB012A03D0022A03D000207047016079
:100C2000FBE70B680360F8E7006800F6BC31FFF7EC
:100C30005BBB012A03D0022A03D000207047016069
:100C4000FBE70B680360F8E70068C36F90F8EC2DD2
:100C50001A7500F6BC31FFF747BB012A03D0022A00
:100C600003D0002070470160FBE70B680360F8E7E2
:100C7000006800F6BC31FFF737BB012A03D0022A17
:100C800003D0002070470160FBE70B680360F8E7C2
:100C90000068C36FB0F8942E5A8200F6BC31FFF79B
:100CA00023BB012A03D0022A03D000207047016031
:100CB000FBE70B680360F8E70068D0F880200123A9
:100CC00082F89031D0F8802082F87030D0F88020FF
:100CD00082F87031D0F8802000F5E47182F850304D
:100CE000FFF702BB012A03D0022A03D0002070477D
:100CF0000160FBE70B680360F8E70368D3F8802026
:100D0000B2F89C21A3F83C2F006800F58151FFF751
:100D1000EBBA012A03D0022A03D0002070470160F9
:100D2000FBE70B680360F8E70268D2F88C301B78A9
:100D30005B09A2F83E3F7047012A03D0022A03D084
:100D4000002070470160FBE70B680360F8E7012AA9
:100D500003D0022A03D0002070470160FBE70B6834
:100D60000360F8E7012A03D0022A03D0002070476D
:100D70000160FBE70B680360F8E7006800F5746149
:100D8000FFF7B2BA012A03D0022A03D0002070472D
:100D90000160FBE70B680360F8E70068D0F880307B
:100DA000B0F83C2FA3F87C20D0F88030002283F8E4
:100DB000702000F57461FFF797BA012A03D0022A68
:100DC00003D0002070470160FBE70B680360F8E781
:100DD000C36F0133C36770470022027042707047CF
:100DE0000022027042707047002202704270704709
:100DF00000220270427070470022027042707047F9
:100E000000220270427070470022027042707047E8
:100E100000220270427070470022027042707047D8
:100E2000704770477047704770477047704770470A
:100E300070477047012A03D0022A03D00020704770
:100E40000160FBE70B680360F8E703689A6FB2F88C
:100E50009C300A33A2F89C307047012A03D0022A42
:100E600003D0002070470160FBE70B680360F8E7E0
:100E700003689A6FB2F89C300A3BA2F89C30704726
:100E8000012A03D0022A03D0002070470160FBE74B
:100E90000B680360F8E7012A03D0022A03D0002080
:100EA00070470160FBE70B680360F8E703689A6F1F
:100EB0000B68B2F89C100B44A2F89C307047012AD2
:100EC00003D0022A03D0002070470160FBE70B68C3
:100ED0000360F8E7036809689A6FB2F89C305B1A00
:100EE000A2F89C307047012A03D0022A03D00020C8
:100EF00070470160FBE70B680360F8E7012A03D045
:100F0000022A03D0002070470160FBE70B680360F2
:100F1000F8E7012A03D0022A03D0002070470160BD
:100F2000FBE70B680360F8E7012A03D0022A03D02D
:100F3000002070470160FBE70B680360F8E7012AB7
:100F400003D0022A03D0002070470160FBE70B6842
:100F50000360F8E7012A03D0022A03D0002070477B
:100F60000160FBE70B680360F8E7012A03D0022A5F
:100F700003D0002070470160FBE70B680360F8E7CF
:100F8000012A03D0022A03D0002070470160FBE74A
:100F90000B680360F8E7012A03D0022A03D000207F
:100FA00070470160FBE70B680360F8E7012A03D094
:100FB000022A03D0002070470160FBE70B68036042
:100FC000F8E7012A03D0022A03D00020704701600D
:100FD000FBE70B680360F8E7012A03D0022A03D07D
:100FE000002070470160FBE70B680360F8E7012A07
:100FF00003D0022A03D0002070470160FBE70B6892
:101000000360F8E7012A03D0022A03D000207047CA
:101010000160FBE70B680360F8E7012A03D0022AAE
:1010200003D0002070470160FBE70B680360F8E71E
:10103000012A03D0022A03D0002070470160FBE799
:101040000B680360F8E7012A03D0022A03D00020CE
:1010500070470160FBE70B680360F8E7012A03D0E3
:10106000022A03D0002070470160FBE70B68036091
:10107000F8E7012A03D0022A03D00020704701605C
:10108000FBE70B680360F8E7012A03D0022A03D0CC
:10109000002070470160FBE70B680360F8E7012A56
:1010A00003D0022A03D0002070470160FBE70B68E1
:1010B0000360F8E7012A03D0022A03D0002070471A
:1010C0000160FBE70B680360F8E7012A03D0022AFE
:1010D00003D0002070470160FBE70B680360F8E76E
:1010E000012A03D0022A03D0002070470160FBE7E9
:1010F0000B680360F8E7012A03D0022A03D000201E
:1011000070470160FBE70B680360F8E7012A03D032
:10111000022A03D0002070470160FBE70B680360E0
:10112000F8E7012A03D0022A03D0002070470160AB
:10113000FBE70B680360F8E7012A03D0022A03D01B
:10114000002070470160FBE70B680360F8E7012AA5
:1011500003D0022A03D0002070470160FBE70B6830
:101160000360F8E7012A03D0022A03D00020704769
:101170000160FBE70B680360F8E7012A03D0022A4D
:1011800003D0002070470160FBE70B680360F8E7BD
:10119000012A03D0022A03D0002070470160FBE738
:1011A0000B680360F8E7012A03D0022A03D000206D
:1011B00070470160FBE70B680360F8E7012A03D082
:1011C000022A03D0002070470160FBE70B68036030
:1011D000F8E7012A03D0022A03D0002070470160FB
:1011E000FBE70B680360F8E7012A03D0022A03D06B
:1011F000002070470160FBE70B680360F8E7012AF5
:1012000003D0022A03D0002070470160FBE70B687F
:101210000360F8E7012A03D0022A03D000207047B8
:101220000160FBE70B680360F8E7012A03D0022A9C
:1012300003D0002070470160FBE70B680360F8E70C
:10124000012A03D0022A03D0002070470160FBE787
:101250000B680360F8E7012A03D0022A03D00020BC
:1012600070470160FBE70B680360F8E7012A03D0D1
:10127000022A03D0002070470160FBE70B6803607F
:10128000F8E7012A03D0022A03D00020704701604A
:10129000FBE70B680360F8E7012A03D0022A03D0BA
:1012A000002070470160FBE70B680360F8E7012A44
:1012B00003D0022A03D0002070470160FBE70B68CF
:1012C0000360F8E7012A03D0022A03D00020704708
:1012D0000160FBE70B680360F8E7012A03D0022AEC
:1012E00003D0002070470160FBE70B680360F8E75C
:1012F000012A03D0022A03D0002070470160FBE7D7
:101300000B680360F8E7012A03D0022A03D000200B
:1013100070470160FBE70B680360F8E7012A03D020
:10132000022A03D0002070470160FBE70B680360CE
:10133000F8E7012A03D0022A03D000207047016099
:10134000FBE70B680360F8E78368D96ED1F81821D2
:101350001268D2061AD5D1F820215268002092B224
:10136000C1F80001C2F1FF00FF2828BFFF20FF2ABB
:10137000C1F804010AD0DA6FD96EC3F88020D1F821
:101380000421D1F80011521AC3F890207047037855
:10139000C3F3001020B9C3F3401008B9C3F38010A1
:1013A00070470B1A9B10002B10DD027812B34278A5
:1013B0000AB90130704782780AB902307047C278A2
:1013C0000AB9033070470430013BECE70B1A022BDB
:1013D0000BD0032B06D0012B0BD10378002B18BFA9
:1013E0000846704703782BB10130037813B1013000
:1013F000F3E7084670470B1A9B10002B10DD0278AC
:1014000012BB42780AB10130704782780AB10230CB
:101410007047C2780AB1033070470430013BECE7F3
:101420000B1A022B0BD0032B06D0012B0BD1037808
:10143000002B08BF0846704703782BB901300378AA
:1014400013B90130F3E708467047FEF719BF036888
:1014500013B90160704713465A68002AFBD15960DE
:10146000704710B504462CB1236820461B68984786
:101470006468F8E710BD0000A8235943037A43B11C
:101480000F4B9B680360994224BFCB1A4360002333
:10149000037203680A4A994207D892689B1A9942D4
:1014A0000CD8012303720020704791688B4205D845
:1014B000536892689B1A42689342F2D201207047A7
:1014C00010E000E0D0F89C203221531CC0F89C3082
:1014D000B2FBF1F301FB132323B9D0F898000368A2
:1014E0005B681847704770470A1A02D0202106F03F
:1014F00038BF704770477047704770470369002BCB
:10150000BFBF034B436003F188334360704700BFA4
:1015100023016745D0E9002101238B409361704787
:10152000D0E900120123103293408B6170470368A9
:1015300010B504469869FFF7F3FFC8216068FFF70C
:101540009BFF0028F9D123689869FFF7E3FFC821C2
:101550006068FFF791FF0028F9D110BD38B5036826
:10156000044618690D46FFF7DBFF23686068DA69F7
:101570009B6A53F835309361FFF7D9FF23686068A1
:10158000996ADA6901EBC5014B689361FFF7CFFFF8
:101590006421A068FFF770FF0028F9D138BD000072
:1015A000437B012B10B5044622D002D3022B2AD054
:1015B00010BD4069FFF7B4FF2069FFF7ABFF626B16
:1015C000206A531C50216363B2FBF1F301FB132328
:1015D000114A52F82330C25C636A03EBC20053F82D
:1015E0003210E26943689161E36201236373DFE7CC
:1015F0008069FFF78FFFA069FFF792FFE369E26A56
:101600009A610223F2E78069FFF784FFA069FFF780
:1016100087FF0023EAE700BF308F000803684168B6
:101620001A6901238B40134214BF01200020704728
:1016300070B50D460646FFF7F1FF5DB1D6E90042F1
:101640000123266903FA02F10E421DBF10329340B6
:10165000A361A1616840C0B270BD10B504682CB12F
:10166000236820461B689847A468F8E710BD10B5AA
:101670008368044613B1032201469847204610BDF3
:1016800010B5044B044640F8343BFFF7F0FF20460A
:1016900010BD00BF60A4000810B504460830FFF775
:1016A000DCFFD4E90421531C2361B2FBF1F301FBFD
:1016B000132313B92046FFF7D0FF10BD0148FFF7F1
:1016C000EBBF00BFB4050020426903699A424FF0A6
:1016D000000326BF4361012018467047037BC3B156
:1016E00000230373D0E901236AB143B19360836897
:1016F0005A600023C0E9013370470B60F8E70549E1
:1017000093604A60F5E70349002BF6D1C1E9003345
:10171000EFE77047B405002000224261FFF7DEBF0B
:10172000037B53B901230373044B5A68426002B12F
:1017300090601A68586002B918607047B4050020BC
:101740000C2A10B501D0112A15D1204B9A68C2F38A
:101750004232D2B1042A1AD0052A1AD01C4B1D4C91
:10176000062A08BF234607291AD8DFE801F0141A11
:101770001D202326292C0D3A032A04D8134B9A68DE
:10178000C2F38222E5E70023EDE7134BEBE7134BAF
:10179000E9E7134BE7E74FF41652B3FBF2F383602C
:1017A00010BD4FF46152F8E74FF49642F5E74FF45D
:1017B000E142F2E74FF41642EFE74FF46142ECE703
:1017C0004FF49632E9E74FF4E132E6E700380240A1
:1017D000A037A000406F4001007A030A00BD010558
:1017E00080DE800219B90068C0F3401070470129FB
:1017F00003D10068C0F3C0207047022903D10068FC
:10180000C0F340507047032903D10068C0F3C060A3
:101810007047042901D14068E6E7052901D14068F5
:10182000E8E7062901D14068EAE7072901D14068C5
:10183000ECE70020704770B58668F36E93F82811C6
:10184000D3F81401FFF7CEFF58B3F46E0025C4F8A7
:101850000051C4F80451D4F81001FFF761FED4F828
:101860001C311A6865F300021A60D4F820311A6836
:1018700065F300021A60FF225A60D4F820311A681A
:1018800042F001021A601A68D207FCD5D4F8182178
:10189000D36843F01003D3603046BDE87040FFF7D3
:1018A0003FBF70BDFEE7FEE7FEE7FEE7FEE7FEE7AF
:1018B000FEE7FEE7FEE7FEE7FEE7FEE7FEE7FEE700
:1018C000FEE7FEE7FEE7FEE7FEE7FEE7FEE7FEE7F0
:1018D000FEE7FEE7FEE7FEE7FEE7FEE7FEE7FEE7E0
:1018E000FEE7FEE7FEE7FEE7FEE7FEE7FEE7FEE7D0
:1018F000FEE7FEE7FEE7FEE7FEE7FEE7FEE7FEE7C0
:10190000FEE7FEE7FEE7FEE7FEE7FEE7FEE7FEE7AF
:10191000FEE7000010B5064C6269D30303D5054B02
:101920001868FFF79EFD4FF48033636110BD00BF60
:10193000003C01407405002008B5044B1868FFF70F
:1019400090FD034B1A685B6808BD00BF940500203A
:101950000010014008B5044B1868FFF782FD034BE7
:101960001A685B6808BD00BF9C0500200044004069
:1019700008B5044B1868FFF774FD034B1A685B68E1
:1019800008BD00BFA40500200048004008B5044B76
:101990001868FFF766FD034B3D229A6008BD00BF43
:1019A000F40400200060024008B5044B1868FFF7FB
:1019B00058FD034B4FF474629A6008BDFC0400208C
:1019C0000060024008B5044B1868FFF74AFD034B5E
:1019D0004FF474129A6008BD0405002000600240B4
:1019E00008B5044B1868FFF73CFD034B4FF07462D9
:1019F0009A6008BD0C0500200060024008B5044B49
:101A00001868FFF72EFD034B4FF47462DA6008BDCF
:101A1000140500200060024008B5044B1868FFF769
:101A200020FD034B4FF47462DA6008BD1C050020F2
:101A30000060024008B5044B1868FFF712FD034B25
:101A40004FF47412DA6008BD2405002000600240E3
:101A500008B5044B1868FFF704FD034B4FF07462A0
:101A6000DA6008BD2C0500200060024008B5044B78
:101A70001868FFF7F6FC034B3D229A6008BD00BFD3
:101A8000340500200064024008B5044B1868FFF7D5
:101A9000E8FC034B4FF474629A6008BD3C050020DB
:101AA0000064024008B5044B1868FFF7DAFC034BEA
:101AB0004FF474129A6008BD44050020006402408F
:101AC00008B5044B1868FFF7CCFC034B4FF0746269
:101AD0009A6008BD4C0500200064024008B5044B24
:101AE0001868FFF7BEFC034B3D22DA6008BD00BF5B
:101AF000540500200064024008B5044B1868FFF745
:101B0000B0FC034B4FF47462DA6008BD5C05002042
:101B10000064024008B5044B1868FFF7A2FC034BB1
:101B20004FF47412DA6008BD6405002000640240BE
:101B300008B5044B1868FFF794FC034B4FF0746230
:101B4000DA6008BD6C05002000640240014B186893
:101B5000FFF787BC7C050020014B1868FFF781BCAC
:101B600084050020014B1868FFF77BBC8C05002022
:101B7000026810B5541C024404605172046850217C
:101B8000B4FBF1F201FB1242026010BD10B5046813
:101B90001421B4FBF1F201FB1242034612B92021D9
:101BA000FFF7E6FF14241968B1FBF4F204FB1212EC
:101BB00022B120211846FFF7DBFFF4E7184610BDDD
:101BC00008B503461A6822B120211846FFF7D0FF56
:101BD000F8E7184608BD38B505460C46084609B171
:101BE000FEF7F6FAC5E90004284638BD10B51424FE
:101BF0000368B3FBF4F304FB03115024B1FBF4F3CB
:101C000004FB1311016010BD38B50468D4F8AC3082
:101C1000F3B1013BC4F8AC30D4F8A83060681425A7
:101C20006B4303600F21FFF7E1FF2021FFF7A0FFC7
:101C3000D4F8A8306068013B5D43C4F8A8300F2198
:101C40000560FFF7D3FF7E21BDE83840FFF790BF66
:101C500038BD38B50468D4F8AC30012B1ED0013340
:101C6000C4F8AC30D4F8A830606814256B43036026
:101C70000F21FFF7BBFF2021FFF77AFFD4F8A83030
:101C8000606801335D43C4F8A8300F210560FFF799
:101C9000ADFF7E21BDE83840FFF76ABF38BD437A0B
:101CA00070B5054600F10C062BB100234372C161EB
:101CB0003046FFF735FD3046FFF706FD012428B119
:101CC0003046FFF729FD6C72002070BD2046FCE70E
:101CD00070B58EB005AD0023CDE901500C93CDE970
:101CE0000533CDE909330B93394E0D930123044697
:101CF00008968DF81D308DF81C300090CDF80CD072
:101D0000049564212846FFF7CAFF0028F9D120690D
:101D1000FFF706FC6069FFF703FCA069FFF7FAFB19
:101D2000A26AE369D2699A616846FFF700FC05215F
:101D30002846FFF7B4FF0028F9D1A26AE369D26907
:101D40009A616846FFF7F3FB64212846FFF794FB8E
:101D50000028F9D1A26AE369D2699A616846FFF75F
:101D6000E6FB32212846FFF787FB0028F9D1A26A5B
:101D7000E36952699A616846FFF7D9FB3221284628
:101D8000FFF77AFB0028F9D1282102A8FFF7E6FB2C
:101D90000C2102A8FFF7E2FB062102A8FFF7DEFBF9
:101DA000012102A8FFF7DAFB802102A8FFF7D6FB8A
:101DB00001212846FFF773FF0028F9D10EA801235F
:101DC00084F8303040F8186DFFF788FC0EB070BD15
:101DD000548C000821B9036962F302030361704760
:101DE000012903D1036962F3C503F7E7022903D18F
:101DF000036962F38813F1E7032903D1036962F3EE
:101E00004B23EBE7042903D1036962F30E33E5E7C3
:101E1000052903D1036962F3D133DFE7062903D132
:101E2000036962F39443D9E7072903D1036962F395
:101E30005753D3E7082903D1036962F31A63CDE747
:101E4000092903D1036962F3DD63C7E70A2904D1D5
:101E5000C36862F30203C36070470B2903D1C368F0
:101E600062F3C503F7E70C2903D1C36862F3881353
:101E7000F1E70D2903D1C36862F34B23EBE70E2989
:101E800003D1C36862F30E33E5E70F2903D1C368BA
:101E900062F3D133DFE7102903D1C36862F39443BF
:101EA000D9E7112903D1C36862F35753D3E7122945
:101EB000D2D1C36862F31A63CDE7012904D1436B21
:101EC00062F3040343637047022903D1436B62F357
:101ED0004913F7E7032903D1436B62F38E23F1E73C
:101EE000042903D1436B62F3D333EBE7052903D114
:101EF000436B62F31853E5E7062903D1436B62F3A2
:101F00005D63DFE7072904D1036B62F30403036316
:101F10007047082903D1036B62F34913F7E70929D6
:101F200003D1036B62F38E23F1E70A2903D1036B1C
:101F300062F3D333EBE70B2903D1036B62F318533E
:101F4000E5E70C2903D1036B62F35D63DFE70D293D
:101F500004D1C36A62F30403C36270470E2903D13C
:101F6000C36A62F34913F7E70F2903D1C36A62F327
:101F70008E23F1E71029F0D1C36A62F3D333EBE784
:101F8000836A1A6842F001021A601A68D107FCD508
:101F9000036A9A6842F001029A609A68D207FCD5F7
:101FA0009A6842F080429A60704710B504465030FB
:101FB000FFF75DFB04F14000FFF759FB04F130002F
:101FC000FFF755FB04F12000FFF751FB04F110006F
:101FD000FFF74DFB2046FFF74AFB204610BD0000EF
:101FE000204B1A68052161F302021A60A3F5806391
:101FF0001A6842F480321A601A689203FCD59A6813
:102000006FF307129A609A68052161F38C229A6037
:102010009A68042161F34F329A609A68022060F353
:1020200001029A605A6861F305025A605A68A82151
:1020300061F38E125A605A68072161F31B625A607D
:102040005A686FF311425A605A6842F480025A602B
:102050001A6842F080721A60034A13689B01FCD52B
:10206000704700BF003C0240003802407B487C497A
:10207000F8B5036813F0010F7CD17A4B7A4C1A68DB
:1020800012F0010F06D1DFF8F8E10222C4E900E204
:1020900001221A60754B1A6B42F001021A63226822
:1020A0001568022666F305151560156A072666F39E
:1020B0000B251562D5686FF30515D5606C4D2A6840
:1020C00012F0010F6B4A06D1DFF8B4C10326C2E952
:1020D00000C601262E601D6B45F001051D631368C7
:1020E0001D68022666F387151D601D6A072666F3C4
:1020F0000F351D62DD686FF38715DD605E4D2B685F
:1021000013F0010F5D4B05D15D4F0F26C3E900763B
:1021100001262E60554E356B45F0010535631D686F
:102120002F68012666F39F772F60EF686FF39F7724
:10213000EF60C1F81031534BC1F81431A3F50733E8
:10214000C1F8183103F50733A033C1F81C31183B2F
:10215000C1F820310D230025C1F824310623C1F830
:102160000051C1F80451C1F80841C1F80C2181F8AF
:10217000283106603D4C236C43F400332364D1F8CE
:102180001831DA6842F00802DA60DA6842F00402D4
:10219000DA605A6942F080025A615A6942F040029C
:1021A0005A61394B93F90400FFF74FF9236B43F45D
:1021B00000132363D1F81C311A68012060F38712E1
:1021C0001A60D1F800210A44DA60D1F818210432EB
:1021D0009A601A6842F480621A601A686FF34E328D
:1021E0001A601A686FF3CC221A601A6842F0100263
:1021F0001A60264B93F90400FFF727F9D1F8203134
:102200001A686FF387121A60D1F800210A44DA6065
:10221000D1F8182104329A60FF225A601A6842F4F9
:1022200080621A601A686FF34E321A601A686FF390
:10223000CC221A601A6842F480721A60D1F82031F8
:102240001A68042060F35B621A60D1F81C311A68C6
:1022500060F35B621A600248F8BD00BFBC01002059
:10226000C0010020040300200803002000380240C1
:10227000F8020020FC020020EC020020F002002006
:1022800000000240006002409C0500202405002060
:1022900010B50C1A134605D001462246184606F022
:1022A00047F80346181910BD2DE9F34702AB03E9BF
:1022B00006000768037A00F109080646DDE90045D3
:1022C00008EB070263B3132C22D8C4F1140902EB04
:1022D000590910464946FFF707F929194A46284681
:1022E000FFF7D6FF09EB040A07F1140141445046F9
:1022F000FFF7FAF8336850211433B3FBF1F201FB16
:102300001233336000233046337202B0BDE8F087E9
:10231000143C05EB540000F11401FFF7B9FFE9E7A5
:10232000C7F15001A14205EB040907D949462846E7
:10233000FFF7AEFF306804443460E3E729442846E1
:10234000FFF7A6FF3368A4F150071F44E41B2C4499
:10235000502F2046424604F1500404D92146FFF78D
:1023600097FF503FF4E74946FFF792FF336850224A
:102370001F44B7FBF2F302FB13773760C2E700009C
:1023800030B589B00A460446114905A806F0EEF8B2
:1023900005A901A8FFF71FFC6368019A934208D9B9
:1023A0009B1A13F1FF3304D320212046FFF7E0FBF3
:1023B000F7E703AD05A92846FFF70DFC95E80600F1
:1023C0002046FFF771FF00232046636009B030BD4F
:1023D000C0920008F8B505460F464FF47A7691FB97
:1023E000F6F42146FFF7CCFF2E212846FFF7C0FB6D
:1023F00006FB14740A2394FBF3F4092C08DC002177
:102400002846FFF7BDFF2146FFF7BAFF2846F8BD73
:1024100021462846F8E70000F7B504464068022642
:102420000660A36FB3F81C12FFF7D4FF6D46074692
:1024300079492846FFF7CFFB95E806003846FFF7B5
:1024400033FF60680D23C0E90036A36FB3F8DC11D9
:10245000FFF796FF2521FFF78BFB60681E23C0E97D
:102460000036B4F88C10FFF78BFF6C4906462846FF
:10247000FFF7B1FB95E806003046FFF715FFD4F8EB
:10248000AC20D4F88410531C496804EB42020A2B98
:10249000A8BF002389686020B1FBF0F1A2F8B41056
:1024A000C4F8AC300023C4F8B03004F1B40204F135
:1024B000C8009042D4F8B01005D032F8023B19445D
:1024C000C4F8B010F5E7564E0A236422B1FBF3F1CD
:1024D0003346C4F8B010002A0DDD501003EB800C19
:1024E00053F82070B94204D2121A0CF10403013AD5
:1024F000F1E70246EFE79B1B9B10B4F88E109AB2EF
:10250000531AD4F88810A4F88C20002B0978B8BF8F
:102510005B428B4207DBD4F880104B7843F0010319
:102520004B70A4F88E20A36F3E4F93F83C30002BE5
:1025300058D004F19000FFF7C7F894F8A830666807
:1025400083EA000283424FF0220384F8A82033601C
:102550000ED0E36F1B78C3F3C003284657F823104F
:10256000FFF739FB95E806003046FFF79DFE03E0D4
:1025700020213046FFF7FCFA666823233360E36FBF
:102580001B78C3F38003284657F82310FFF723FB7B
:1025900095E806003046FFF787FEE26F1046FEF72B
:1025A000F6FE18BB66682049142333602846FFF7FF
:1025B00012FB95E806003046FFF776FE60681623AA
:1025C0000360A36FB3F83C12FFF704FF17490446FA
:1025D0002846FFF700FB95E806002046FFF764FE5B
:1025E00003B0F0BD666822233360B2E71378D906E2
:1025F00004D564680E4914232360E9E79A0604D5DC
:1026000064680C4914232360E2E75B06E8D564683C
:10261000094914232360DBE7909200089492000894
:10262000C892000870920008979200089A920008D9
:102630009D920008A6920008AF92000838B50023CA
:1026400083608B6804460D462BB102229847EB68E5
:10265000E360AB68A360204638BD38B500238360D3
:102660008B6804460D462BB102229847EB68E36065
:10267000AB68A360204638BD38B504460D46FFF769
:10268000DDFF05F1100104F11000FFF7D7FF05F1A0
:10269000200104F12000FFF7D1FF05F1300104F122
:1026A0003000FFF7CBFF05F1400104F14000FFF7D8
:1026B000D4FF05F1500104F15000FFF7CEFF204692
:1026C00038BD826810B50AB905F0F6FDC368BDE8EB
:1026D0001040184708B500686830FFF7F2FF08BDE2
:1026E00008B500686830FFF7ECFF08BD70B5816879
:1026F00000220B4613B19A605B68FBE7D0E9042324
:1027000002EB43050B469542144609D026889C6887
:1027100034449C605B680232002B08BF0B46F2E732
:10272000C36B13B13430FFF7CCFF70BD08B503683D
:10273000D3F89C2093F8A03013700068D0F8843050
:102740001BB17C30FFF7BDFF08BD6C30FAE708B560
:1027500000686C30FFF7B5FF08BD08B50368D3F813
:10276000DC00182202FB00308030FFF7AAFF08BD12
:1027700008B500686830FFF7A4FF08BD08B5036816
:10278000D3F8AC00182202FB00308030FFF799FF2D
:1027900008BD08B500686830FFF793FF08BD08B5AD
:1027A0000368D3F8C400182202FB00308030FFF722
:1027B00088FF08BD08B500686830FFF782FF08BDD4
:1027C000006808B5D0F89C30B0F8A0201A80D0F886
:1027D00084301BB17C30FFF774FF08BD6C30FAE722
:1027E00008B500686C30FFF76CFF08BD08B50368DA
:1027F000D3F89C2093F8A03013700068D0F8843090
:102800001BB17C30FFF75DFF08BD6C30FAE708B5FF
:1028100000686C30FFF755FF08BD006808B5D0F8B8
:102820009C3090F8A0201A70D0F884301BB17C3016
:10283000FFF747FF08BD6C30FAE708B500686C3059
:10284000FFF73FFF08BD08B50368D3F89C2093F855
:10285000A03013700068D0F884301BB17C30FFF7D3
:1028600030FF08BD6C30FAE708B500686C30FFF740
:1028700028FF08BD08B50368D3F8F400182202FB4E
:1028800000308030FFF71DFF08BD08B500686830D4
:10289000FFF717FF08BD08B50368D3F80C0118222D
:1028A00002FB00308030FFF70CFF08BD08B5006860
:1028B0006830FFF706FF08BD38B53B4D3B4C2B6831
:1028C00013F0010321D13A4A22603A4A226202F50A
:1028D0004072626202F5A03202F58872C4E9060312
:1028E000A2623548636024222146C4E90233C4E968
:1028F0000433E0622263E363FEF7A9FD01232F4A5C
:102900002F492B60204605F0D2FC2E4A536C43F42D
:1029100080735364236A59686FF319615960996829
:1029200041F002019960996841F480719960996859
:1029300041F400719960606A416841F4403141603E
:10294000596841F480715960116B41F48001116341
:1029500003F14C02A36A9A601A686FF387121A6037
:102960001A68012161F34E321A601A6861F3CC22B1
:102970001A601A6842F480621A601A6842F0100203
:102980001A601A6842F480721A601A6842F48072FF
:102990001A601A686FF35B621A60E36A93F90400C5
:1029A000FEF753FD014838BD740100207801002076
:1029B00060A4000800200140340500200000002031
:1029C0008116000800380240F8B504465148524DBF
:1029D000026812F0010F1FD1504A136813F0010F63
:1029E0004F4B05D14F4F0721C3E900710121116001
:1029F0004D490A6B42F001020A631A68116841F4FA
:102A000040411160D1686FF38F31D1600022C5E978
:102A10000022EB6001230360236B206A243B012B1F
:102A20008CBF00260726F7B2072239462E61FFF732
:102A3000D1F9E169206A0131E1613A46FFF73DFAD7
:102A4000D4E90732D16A013B63F31751D162A2681E
:102A50001346002B55D019698E424DDB5B68F8E7B1
:102A60006A60E368A56003B9E5602069A2692F4B3D
:102A700068B1D3F8001150F8045D0439491B5D18A2
:102A8000A8421ABF012183F80411C3F8001161693B
:102A90000A4462612649D3F800518A4294BF520029
:102AA0004FF0FF32281D1044B0F5807F03EB050185
:102AB000C3F800011ED893F80401D8B909B15A51DE
:102AC0000431A36A21611A686FF300021A60A28AB6
:102AD000D9605A601A6842F001021A601A68D20777
:102AE000FCD50D48F8BD1A68C5E900231D602B68A8
:102AF0005D60BAE70021E4E79A42F4D16A601560AC
:102B0000AFE7002AACD0E3682B60002BACD05D604F
:102B1000AAE700BF14010020180100202C010020AA
:102B2000300100200000024000380240EC03002089
:102B3000FCFFFF3F38B5002383608B6804460D46D9
:102B40002BB102229847EB68E360AB68A360204694
:102B500038BD826810B50AB905F0AEFBC368BDE8A0
:102B60001040184730B585B0044600256946083046
:102B70000295FFF7EEFF6846FEF779FD694604F11E
:102B800018000295FFF7E5FF6846FEF770FD6946FD
:102B900004F138000295FFF7DCFF6846FEF767FD99
:102BA00005B030BD30B585B0044600256946083013
:102BB0000295FFF7CEFF6846FEF759FD694604F11E
:102BC00018000295FFF7C5FF6846FEF750FD6946FD
:102BD00004F128000295FFF7BCFF6846FEF747FDA9
:102BE000694604F138000295FFF7B3FF6846FEF727
:102BF0003EFD05B030BD30B585B0044600256946C0
:102C000008300295FFF7A5FF6846FEF730FD6946DC
:102C100004F118000295FFF79CFF6846FEF727FDB8
:102C2000694604F128000295FFF793FF6846FEF716
:102C30001EFD694604F138000295FFF78AFF6846D9
:102C4000FEF715FD05B030BD30B585B00446002552
:102C5000694608300295FFF77CFF6846FEF707FDDE
:102C6000694604F118000295FFF773FF6846FEF706
:102C7000FEFC694604F128000295FFF76AFF6846EA
:102C8000FEF7F5FC694604F138000295FFF761FF95
:102C90006846FEF7ECFC05B030BD30B585B00446A3
:102CA0000025694608300295FFF753FF6846FEF796
:102CB000DEFC694604F118000295FFF74AFF6846FA
:102CC000FEF7D5FC694604F128000295FFF741FFA5
:102CD0006846FEF7CCFC694604F138000295FFF720
:102CE00038FF6846FEF7C3FC05B030BD30B585B08F
:102CF00004460025694608300295FFF72AFF68461A
:102D0000FEF7B5FC694604F118000295FFF721FFB4
:102D10006846FEF7ACFC694604F128000295FFF70F
:102D200018FF6846FEF7A3FC694604F138000295D7
:102D3000FFF70FFF6846FEF79AFC05B030BD0000B4
:102D40001FB5224B00900446694603930830204B80
:102D50000293FFF7FEFE6846FEF789FC1D4B0393C6
:102D600069461D4B029304F118000094FFF7F1FE31
:102D70006846FEF77CFC194B03936946184B029397
:102D800004F138000094FFF7E4FE6846FEF76FFC9C
:102D900060680023036004F1780393E80600FFF7FE
:102DA00083FAFEF7F3FE606814230360D4F88830DA
:102DB0001988FFF7E5FA04F1800393E80600FFF7AE
:102DC00073FA6068FEF7FCFE04B010BDA3020008B1
:102DD000A5020008BB020008BD020008D5260008B5
:102DE000D302000838B5002383608B6804460D4683
:102DF0002BB102229847EB68E360AB68A3602046E2
:102E000038BD10B50B460446D1E9000184E8030043
:102E100003F1080104F10800FFF78CFE204610BD05
:102E200082B038B50593184B0360BDF82830838015
:102E3000BDF82C30C3800446816011460C30099DDA
:102E4000FFF71AFC0C9904F16C00FFF773FE0D9963
:102E500004F17C00FFF76EFE05AA92E8030004F17E
:102E60008C0307AA83E8030092E8030004F19403AB
:102E700083E803002B88C4F89C502046A4F8A030B7
:102E8000BDE8384002B07047D88C000838B51D4600
:102E9000124B0446C0E9003111460830FFF7ECFB45
:102EA000294604F16800FFF745FE049904F1780013
:102EB000FFF7A7FF059904F19000FFF7A2FF06991D
:102EC00004F1A800FFF79DFF079904F1C000FFF788
:102ED00098FF0023C4E93633204638BD148D00081E
:102EE000D0F80431FE2B9FBFC154D0F80431013318
:102EF000C0F8043170470000F0B5C26ED2F804315A
:102F0000D2F800115C1A022C33D999423EBF03F16A
:102F1000FF33C2F80431D55CC26EDFF860C0D2F86E
:102F20000431D2F80011144F28BF00258B4282BF14
:102F300003F1FF33C2F80431D65CC36ED3F800212D
:102F4000D3F804114FF0FF001A4498BF00260B4439
:102F5000044612F8011B414093421CF8010080EA2C
:102F600004007C5CF5D1AC4203D1831B584258412C
:102F7000F0BD0020FCE700BF7091000870900008D1
:102F800038B5836F1D68C36ED3F800219A5C2B7926
:102F90009A42044611D0AB690921EA181175013330
:102FA000032293FBF2F202EB42029B1AAB61D4F8CC
:102FB00098300133C4F8983038BDFFF79DFF18B939
:102FC000AB691021EA18E9E7E26ED2F80031D2F8D5
:102FD0000411994284BF0133C2F80031E36ED3F883
:102FE0000021D3F80411914283BF511CC3F8001192
:102FF0009B5C00231B0611D5E36ED3F80021D3F8A8
:103000000411914282BF511CC3F800119A5CAB6954
:1030100005EB030198BF00220A75C0E72B7A032B4A
:10302000CAD1E26ED2F80031D2F80411994284BFBD
:103030000133C2F80031E36EE868D3F80021D3F819
:103040000411541CA14217D9914284BFC3F8004116
:103050009C5CD3F8002198BF0024914283BF511C8F
:10306000C3F800119A5C00224FF0000362F30703DB
:1030700064F30F2303809FE70023FBE713B50B46A0
:103080000446D0E900016A4682E8030093E80300A1
:1030900084E8030092E8030083E8030002B010BD57
:1030A00038B505460C46FFF7E9FFAB68A268AA6091
:1030B000A360E268EB68EA60E36038BD1FB50446D0
:1030C0006846FFF737FD21466846FFF7E9FF684687
:1030D000FEF7CDFA204604B010BD08B54430FFF726
:1030E000EDFF08BD08B53430FFF7E8FF08BD08B5AF
:1030F0002430FFF7E3FF08BD08B51430FFF7DEFF0B
:1031000008BD08B54430FFF7D9FF08BD08B5343015
:10311000FFF7D4FF08BD08B52430FFF7CFFF08BD87
:1031200008B51430FFF7CAFF08BD08B54430FFF7F3
:10313000C5FF08BD08B53430FFF7C0FF08BD08B5AE
:103140002430FFF7BBFF08BD08B51430FFF7B6FF0A
:1031500008BD08B53430FFF7B1FF08BD08B53430FD
:10316000FFF7ACFF08BD08B54430FFF7A7FF08BD67
:1031700008B54430FFF7A2FF08BD08B52430FFF7BB
:103180009DFF08BD08B51430FFF798FF08BD08B5CE
:103190002430FFF793FF08BD08B51430FFF78EFF0A
:1031A00008BD30B5044689B008460023694602933D
:1031B000FFF776FF23689C6F2368694604A8DD68E3
:1031C000FFF7B8FC04A92046A84704A8FEF74FFA69
:1031D0006846FEF74CFA09B030BD30B5044689B0F8
:1031E0000846002369460293FFF75AFF23681C6FC5
:1031F0002368694604A89D68FFF79CFC04A9204643
:10320000A84704A8FEF733FA6846FEF730FA09B07B
:1032100030BD30B5044689B00846002369460293A4
:10322000FFF73EFF23685C6F2368694604A89D682A
:10323000FFF780FC04A92046A84704A8FEF717FA68
:103240006846FEF714FA09B030BD30B5044689B0BF
:103250000846002369460293FFF722FF23689C6F0C
:103260002368694604A89D68FFF764FC04A920460A
:10327000A84704A8FEF7FBF96846FEF7F8F909B07D
:1032800030BD0B1A1B11002B14DD0268127C4AB3EF
:103290004268127C0AB9043070478268127C0AB90D
:1032A00008307047C268127C0AB90C307047103081
:1032B000013BE8E70B1A9B10022B0DD0032B07D024
:1032C000012B0ED103681B7C002B18BF08467047EA
:1032D00003681B7C33B1043003681B7C13B10430DA
:1032E000F0E7084670470000437B012BF7B5044622
:1032F00006D0C0F0C280022B00F0F78003B0F0BD12
:1033000000F16C054FF00003806F1A462946FFF765
:10331000B8FF8542A06703D104F11003A367EDE76E
:10332000E36E05680026C3F80061C3F804612979DB
:10333000E06EFFF7D5FD297AE06EFFF7D1FD31464B
:10334000E06EFFF7CDFDA979E06EFFF7C9FD2B7A9E
:10335000032B01D0102B67D10021E06EFFF7C0FDD9
:103360000121E06EFFF7BCFD2B7A102B10D102215A
:10337000E06EFFF7B5FD2B7A102B09D1EB68E06EFC
:103380001988090AFFF7ACFDEB681978FFF7A8FD6B
:103390002B7A032B01D0052B53D12B6829461B68B0
:1033A00001A898479DF80510E06EFFF799FD9DF87C
:1033B0000410FFF795FDD4F88830C4F88030D4F8B5
:1033C0009C30E56E00260133C4F89C30C4F8906050
:1033D000D5F81001FEF79EF8D5F81831DA6866F3D3
:1033E0000412DA60D5F820311A6866F300021A6018
:1033F000D5F81C311A6866F300021A60D5F804315A
:10340000D5F80011D5F81C215B1A02339BB253602A
:10341000D5F81C311A6842F001021A601A68D20706
:10342000FCD50023637369E7052BB1D1EB68E06E2F
:103430001988002914BFFF210021FFF751FD3146F3
:1034400096E7102BB7D1E06EDFF8C4C0D0F800319A
:10345000D0F804212D4FFF21034486180D4613F8A0
:10346000012B4A409E421CF8021081EA0501BD5C16
:10347000F5D1FFF735FD29469BE7C16ED0F88820CE
:10348000D1F80431D1F800115B1AD0F890109942AC
:10349000C16F38BFC0F880208A4216DC836F18687D
:1034A0008369C218122515750133032293FBF2F2CA
:1034B00002EB42029B1A8361D4F89830C4F88C1056
:1034C0000133C4F8983002236373D4F88030C91AEA
:1034D000D4F884309942FFF611AF2046FFF750FD33
:1034E000E36FC4F88C3002239CE7C36FD0F88C20C4
:1034F000093B93427FF702AF0023C367FEF7EEF864
:10350000836F0433836701238CE700BF7091000849
:10351000709000082DE9F04F394BADF5C25D87B0D2
:1035200003F118077EAD77AA3E461868596814461D
:1035300003C40833BB422246F7D11B88238086ACE4
:10354000002244F804292F4B85932F4B23612F4BE6
:103550002F4823654FF48031C4E9103177ABC4E9BB
:10356000120184F85520A260227362632287E2630D
:1035700084F8542084F8562084F858206361FF2191
:10358000A31801321A2A1976FAD10021284604F02C
:10359000E8FE2069FDF7B2FF23691A694FF00109BF
:1035A00069F309221A611A6942F080721A6127468A
:1035B0004FF000084FF6FF7B05F11A0AD7E91031EA
:1035C00003EB410199420DD01A78192A07D82244F9
:1035D000587810761A7805F802900233F2E71A88C4
:1035E0005A45FAD12365396C994213D1C4F8348015
:1035F0000837B8F1000F1BD14FF00108DEE700BF1C
:10360000308C000880A40008003C024000000A083A
:10361000000008087A6C01EB4202934202F06181DB
:10362000C4F8348051462846FDF7BBFE8245DFD101
:10363000626B04EBC201D1E91030216D03EB400352
:10364000994206D193AB0121995400236363236C03
:10365000236505F11A0841462846FDF7A2FE4045BC
:10366000074642F0448163690DF50B7C0DF5117E30
:10367000624603CA724518605960944603F1080314
:10368000F6D112881A80002384F8563094F8383026
:103690008BB9636B7BB1D4E910234FF6FF7002EB5B
:1036A00043018A42134642F029810B465B1A18BF38
:1036B000012384F8383094F83930B3B9636B012BA7
:1036C00013D0D4E912324FF6FF7003EB42029A4254
:1036D000194605D0B1F800C0844503F10203F6D0C5
:1036E000521A18BF012284F8392086AB0DF24E28F9
:1036F00003F134004146FDF77EFE804518BF0323E9
:10370000226918BF84F85530136905F11A0043F097
:103710000043874213610BD0DE4B77AA18685968C3
:10372000154603C50833B3422A46F7D11B882B80C0
:103730002046FDF7F5FFD84B1A6812F0010FD74A63
:1037400005D1D74E0521C2E9006101211960D54B91
:10375000196B41F00101196312681168012060F3CF
:103760008B211160D1686FF38B21D160CE490A683B
:1037700012F0010F08BFCA4DCC4A02BF08600424F2
:10378000C2E90054196B41F00101196313681A680A
:10379000012666F309221A60DA680DF597646FF363
:1037A0000922DA6004F804690DF59A62E260C04A01
:1037B000CDF8B424002305200DF59E620DF5A2611D
:1037C0008DF8CA34E38020722374ADF8C834A36145
:1037D000A38384F82800E26284F82460E68484F8F5
:1037E0003030E164B34921640DF5AA650DF5A66199
:1037F000B14AE166C4F88C50B049B14D22622166ED
:1038000010220421C4F880500DF5AE658DF8EA341D
:103810008DF80A358DF82A358DF84A35ADF8E8343B
:10382000A363A387A4F8463084F84820ADF8083590
:10383000A365A4F85C3084F86820ADF82835A36748
:10384000A4F87C3084F88820ADF84835C4F8983066
:10385000A4F89C3084F8446084F86460A4F866603E
:1038600084F88460A4F8861084F8A460C4F8AC508E
:10387000944DC4F8A0500DF5B265C4F8CC50924DEB
:10388000C4F8C0500DF5B665C4F8EC508F4DC4F8BF
:10389000E050082507274FF0060CA4F806510DF557
:1038A000C26E0DF5BA658DF86A358DF88A358DF8DA
:1038B000AA35A4F8A60084F8A820ADF86835C4F8A5
:1038C000B830A4F8BC3084F8C820ADF88835C4F806
:1038D000D830A4F8DC30A4F8E67084F8E820ADF81D
:1038E000A835C4F8F830A4F8FC3084F80821C4F8EE
:1038F0000C51ADF8C8358DF8CA35754D84F8C460E3
:10390000A4F8C6C084F8E46084F80461C4F81831EF
:10391000C4F84CE1DFF8D4E1C4F80051C4F840E148
:1039200009254FF0020EA4F82651A4F866E10DF522
:10393000BE650DF5C66EC4F82C51C4F86CE1654D3A
:10394000DFF8ACE1C4F820514FF003080A25C4F8B1
:1039500060E10DF5CA6E8DF8EA358DF80A368DF8FE
:103960002A36A4F81C3184F82821ADF8E835C4F8CB
:103970003831A4F83C31A4F8465184F84821ADF818
:103980000836C4F85831A4F85C31ADF82836C4F8CC
:103990007831A4F87C3184F8246184F8446184F897
:1039A000646184F8688184F88461A4F8868184F86D
:1039B0008881C4F88CE1A4F8C6010DF5D260C4F882
:1039C000CC014548DFF82CE1C4F8C0010DF5D66004
:1039D000C4F880E1C4F8EC010DF5CE6E3F48C4F8A0
:1039E000ACE1C4F8E001DFF810E18DF84A360DF5DE
:1039F000DA608DF86A368DF88A368DF8AA36ADF819
:103A00004836C4F89831A4F89C31ADF86836C4F84B
:103A1000B831A4F8BC3184F8D031ADF88836C4F898
:103A2000D831A4F8DC31ADF8A836C4F8F83184F800
:103A3000A461A4F8A61184F8A881C4F8A0E184F8D0
:103A4000C46184F8C88184F8E461A4F8E6C184F80C
:103A5000E881A4F8FC31C4F80C022148C4F8000243
:103A60000DF5DE60C4F82C021E48C4F820020B20BD
:103A7000A4F846020DF5E260C4F84C021A48C4F8F6
:103A800040020E20A4F866020DF5E6608DF8CA36F5
:103A900034E000BF308C00081C030020200300200D
:103AA00000000240003802401003002014030020F0
:103AB0003C8D0008548D0008488D0008608D00087A
:103AC0006C8D0008788D0008848D0008908D0008AA
:103AD0009C8D0008A88D0008D88D0008E48D000892
:103AE000F08D0008FC8D0008088E0008A4A40008D2
:103AF000B48D0008C08D0008CC8D00088DF8EA3622
:103B00008DF80A37A4F8067284F81032ADF8C8367A
:103B1000C4F81832A4F81C32A4F8265284F83032C3
:103B2000ADF8E836C4F83832A4F83C32ADF80837BE
:103B3000C4F85832A4F85C3284F8046284F808822D
:103B400084F8246284F8288284F8446284F84882E5
:103B500084F8646284F86882C4F86C02A4F8A6222F
:103B60000DF5EE62E648C4F8AC22E64AC4F86002FD
:103B7000C4F8A0220F201122A4F88602A4F8C622BD
:103B80000DF5EA600DF5F262C4F88C02C4F8CC229F
:103B9000DD48DE4A8DF82A378DF84A378DF86A37C6
:103BA0008DF88A3784F87032ADF82837C4F8783247
:103BB000A4F87C32ADF84837C4F89832A4F89C32A7
:103BC000ADF86837C4F8B832A4F8BC3284F8D03203
:103BD000ADF88837C4F8D83284F8846284F88882D3
:103BE000C4F8800284F8A46284F8A88284F8C462CD
:103BF00084F8C882C4F8C022A4F8DC32C44B84F82C
:103C000050601A6884F87060324084F8906084F8DC
:103C1000B06084F8D06084F8F06084F8106184F8B3
:103C2000306184F8506184F8706184F8906184F8A0
:103C3000B06184F8F06184F8506284F8906284F88E
:103C4000B062BDF8DE910A93B24F0DF2947540F068
:103C50008581CDE90B12FEF709FAC9F3800282468D
:103C6000AD4809923860C9F3C102AC480892386780
:103C70000C9AAB48786709EA060BC9F3400307F1D1
:103C80001000C9F34219C7E901223A737E73C7F8DD
:103C90006CA0C7E91E020B99B9F1000F0AD0B1451B
:103CA00001F03586B9F1020F01F03486C14514BF29
:103CB0003146022100266422C7E92226994AC7F824
:103CC0008410C7F8A460C7F8A02097499348C7F8A4
:103CD000A8700B93C7F8986087F89460C7F89C6049
:103CE000FDF7B5FB914AC7F8AC200DF15C08C7F8A9
:103CF000B0608F49786FC7F8B470FDF7A8FB4046F5
:103D00002146CDF89467CDE91775FCF735FB98E8A7
:103D1000030019AE86E8030030460DF2D441FCF7EB
:103D20002BFB96E803000DF16C0888E80300404681
:103D30000DF2F441FCF720FB98E803001DAE86E885
:103D4000030030460DF21451FCF716FB96E8030011
:103D50000DF17C0888E8030040460DF23451FCF771
:103D60000BFB98E8030021AE86E8030030460DF215
:103D70005451FCF701FB96E803000DF18C0888E82C
:103D8000030040460DF27451FCF7F6FA98E8030080
:103D900025AE86E8030030460DF29451FCF7ECFAAC
:103DA00096E803000DF19C0888E8030040460DF2F8
:103DB000B451FCF7E1FA98E8030029AE86E8030065
:103DC00030460DF2D451FCF7D7FA96E803000DF116
:103DD000AC0888E8030040460DF2F451FCF7CCFA39
:103DE00098E803002DAE86E8030030460DF214611A
:103DF000FCF7C2FA96E803000DF1BC0888E803005E
:103E000040460DF23461FCF7B7FA98E8030031AE92
:103E100086E8030030460DF25461FCF7ADFA96E8EF
:103E200003000DF1CC0888E8030040460DF27461F0
:103E3000FCF7A2FA98E8030035AE86E803003046A6
:103E40000DF29461FCF798FA96E803000DF1DC0896
:103E500088E8030040460DF2B461FCF78DFA98E85B
:103E6000030039AE86E8030030460DF2D461FCF75A
:103E700083FA96E803000DF1EC0888E80300404659
:103E80000DF2F461FCF778FA98E803003DAE86E89D
:103E9000030030460DF21471FCF76EFA96E8030049
:103EA0000DF1FC0888E803000DF234714046FCF780
:103EB00063FA98E8030041AE86E803000DF25471FE
:103EC0003046FCF759FA96E8030043AA82E803005B
:103ED00010460DF27471FCF74FFADAF82421DAF883
:103EE00018014946FDF72CFC0B9BC26863F349227D
:103EF000C260C368099A62F30C33C3601AE000BF62
:103F0000148E00082C8E0008208E0008B0A4000833
:103F1000280300202C030020508E00089C05002060
:103F200024050020388E0008CC030020448E0008B1
:103F3000D80300200369089A62F30D330361C36854
:103F4000BBF1000F01F0E98443F48063C360C368F0
:103F500043F40053C3600A9A0123136016979EAF7F
:103F60000023BC4A47F808399C9220327A60BA4A4A
:103F7000FB603B747B74FB61FB62FB63FB64FB6572
:103F8000136813F0010FB54B05D1B5480D21C3E9F6
:103F9000000101211160B34E326B42F00202326324
:103FA0001A6811686FF39B611160D1686FF39B61B0
:103FB000D1604FF0010900219DA8C7E91A1987F8BF
:103FC000701087F871107B66FDF7AAFBA64BA74A15
:103FD000B9930DF539782033C8F80430136888F8A0
:103FE000101013F0010F08BFDFF8A0B2A04B88F843
:103FF0001110C8E90211C8F81C10C8F82C10C8F834
:104000003C10C8F84C10C8F85C1002BF0921C3E985
:1040100000B1C2F80090326B42F0040232631A68B9
:1040200011686FF393411160D1686FF39341D160D0
:1040300001260021BAA8C8E91A1688F8701088F875
:104040007110C8F86430FDF76BFB8A4B8A4AD6932F
:104050002033D7931368D89113F0010F08BFDFF80E
:1040600000A2864BD9918DF868138DF86913DD9104
:10407000E191E591E991ED9102BF0F21C3E900A122
:104080001660784E326B42F0020232631A68116891
:104090006FF39F711160D1686FF39F71D160D7A8E2
:1040A00000214FF00109EF93F0918DF8C8138DF8BE
:1040B000C913CDF8C493FDF733FB714B2973C5E9E0
:1040C0000111CDF894370DF5F36303F11500C5E93F
:1040D000041129760DF2FD71FDF706FA694A13689D
:1040E00013F0010F3046684E40F08280DFF8C0C107
:1040F000DFF8C0E1DCF80030644913F0010F01BFC4
:104100000D23CCF80090CEF80010CEF80430036BED
:10411000DFF8A4C143F004030363DEF8003018683D
:104120004FF0010969F39B601860D8686FF39B60DA
:10413000D8605748036813F0010F04BF0F23CCF871
:104140000430484B04BFCCF80010C0F80090186B46
:1041500040F004001863DCF80000D0F800904FF045
:10416000010A6AF39F79C0F80090D0F80C906FF3C1
:104170009F79C0F80C90DFF84491D9F8000010F056
:10418000010F444801BFC9F800A04FF00E0B0160B9
:10419000C0F804B0D3F8309049F00409C3F8309067
:1041A0000368D3F800A04FF0010969F31D7AC3F842
:1041B00000A0D3F80CA06FF31D7AC3F80CA0002365
:1041C000C6E906010DF2AD713162C6E9013332492B
:1041D000DFF8ECA07162C6E904EC30493373C6F82D
:1041E00000A07373B16286F830307363C2F8009038
:1041F0002B492C4A0B6813F0010301BF2348C2E985
:10420000000301230B60174B196B41F00401196384
:1042100012681068012161F301001060D0686FF32B
:104220000100D0602048026812F0010F08BFDFF8DB
:104230005CC01E4A04BF0160C2E900C1196B41F0B5
:104240000401196313681A68012161F383021A607B
:10425000DA6837E05C8E0008680100206C010020FD
:104260000004024000380240888E00085C010020F3
:1042700060010020B48E000850010020540100208D
:104280008CA40008B4000020B80000200008024000
:10429000FC000020F400002058940008589C0008FE
:1042A000A8000020AC0000209C000020A0000020FE
:1042B000080100200C01002000010020F000002077
:1042C00098A400086FF38302DA60B94B1A6812F001
:1042D000010F08BFDFF84093B64A02BF1960022001
:1042E000C2E90090B44B196B41F0040119631268E4
:1042F0001168012060F305111160D1686FF3051199
:10430000D160AE490A6812F0010F08BFDFF808E378
:10431000AB4A02BF08604FF0030CC2E900EC196B16
:10432000A84841F00401196313681A684FF00109A5
:1043300069F387121A60DA686FF38712DA60FDF7A3
:10434000C7FC337B0BBBA04B86F80C90DA6872601D
:1043500002B196609A68DE6002B99E6002225A61DC
:104360009A4B1A686FF300021A60994A5A60002249
:104370009A601A6842F004021A601A6842F0020257
:104380001A601A6842F001021A60D6ABAB6777ABCD
:10439000C5E91F3412ABC5F8843013ABC5F88830BB
:1043A00014ABC5F88C3015ABC5F89030894BC5F807
:1043B0009430C5E91B670DF69403F6AEC5F8983046
:1043C000854BF39546F80C396EAF4FF0000A834BDE
:1043D000C5F8748031460DF58860C5F89CA0B360BF
:1043E000FEF72CF97E4B6B9547F80C3971A87D4B85
:1043F000BB603946FEF722F97B4B62935FA97B4B8A
:104400005F9565A80DF5B27B6193FEF717F9784BC0
:10441000589355A9774B559558465793FEF70EF983
:10442000754B50934DA9754B4D9551A84F93FEF781
:1044300014F9734B4893734B479349AB18460DF6E9
:10444000340845A945950893FEF707F90DF58861ED
:104450004046FEF7F3F871A90DF64400FEF7EEF8BA
:1044600065A90DF65400FEF7E9F859460DF664000B
:10447000FEF7E4F851A90DF67400FEF7EEF808997E
:104480000DF68400FEF7E9F80898FDF7F0F845A866
:10449000FDF7EDF851A8FDF7EAF84DA8FDF7E7F8AC
:1044A0005846FDF7E4F855A8FDF7E1F865A8FDF7D3
:1044B000DEF85FA8FDF7DBF871A8FDF7D8F83846FD
:1044C000FDF7D5F80DF58860FDF7D1F83046FDF71A
:1044D000CEF841460DF58860FEF7CEF84A4B74934E
:1044E00071A94A4B719530467393FEF723FBD5F8BB
:1044F0008430E96F0B93D5F88830099301F11503E7
:104500000A934349D5F88020C5F800110DF2A47331
:10451000C5F804310DF588610DF69C00D5F894902E
:104520000C920893FEF7A8F831460DF6FC00FEF752
:1045300001FB0B9BC5F87C31099BC5F880310A9BB8
:10454000C5F88831334BC5F890310C9AC5F87821FD
:104550004FF4FA73C5F8A0A1C5F88491C5F8A4A1D9
:10456000C5F88CA1C5F8A031C5F894A1C5F898A1EB
:1045700085F89CA10DF62410FDF7D2F885F8A8A1C6
:10458000C5F8ACA1C5F8B0A1D9F80000FDF7F8FC5A
:104590003046FDF76CF871A8FDF769F80DF58860F5
:1045A000FDF703FD41460DF58860FEF765F835E03F
:1045B0009000002094000020003802408400002079
:1045C00088000020B8000020B405002010E000E0C2
:1045D0001F480100E4030020DB3100088D030008C0
:1045E00013320008A30300084B320008B903000887
:1045F000A3310008CF030008E15B0008E5030008D1
:10460000A95B0008FB030008110400081B04000854
:104610006CA40008548C000800080240B74B549367
:1046200051A9B74B519555A85393FEF783FAB54B53
:1046300073950922F392C6E90135B34B7361B34B0D
:1046400033610F237193B24B7293B24B7693B24B9B
:1046500075930C236B93B14B6795C7E90135B04B4C
:104660007B61B04B3B610C236593AF4B6693AF4BC3
:104670006A93AF4B699306235F93AE4B6093AE4B47
:104680006493AE4B63930E235993AD4B6195CBE985
:104690000135AC4BCBF81430AB4BCBF81030AB4BF7
:1046A000C5F8C8310D92089BC5F8CC310DF588616D
:1046B0000DF66410FDF7E0FF55A90DF6C410FEF7E6
:1046C00039FA31460DF6D410FEF79BFB71A90DF6B1
:1046D000EC10FEF796FB39460DF60420FEF791FB31
:1046E00065A90DF61C20FEF78CFB5FA90DF63420A2
:1046F000FEF787FB59460DF64C20FEF782FB0DF5C1
:10470000C279C5F8D0A2C5F8D4A25BA8FCF7AFFF68
:104710004846FCF7ACFF67AB18460C93FCF7A7FFC5
:104720006DAB18460B93FCF7A2FF73AB18460993C9
:10473000FCF79DFFF5AB18460A93FCF798FF55A8C8
:10474000FCF795FF51A8FCF792FF0DF58860FDF787
:104750002CFC41460DF5886085F8D8A2A5F8DAA2B0
:10476000A5F8DCA2FDF788FF794B589355A9794B42
:10477000559558465793FEF7DDF90823F393764B8A
:104780000D9A7395C6E90135744B7361744B3361AF
:10479000744B7293744B7693744B75930F236B9396
:1047A000734B6795C7E90135724B7B61724B3B6177
:1047B0000F236593714B6693714B6A93714B6993A9
:1047C00007235F93704B6093704B6493704B6393BC
:1047D000704BC5F8E032089BC5F8E4320DF58861EE
:1047E0000DF67C2061957192FDF746FF59460DF656
:1047F000DC20FEF79FF931460DF6EC20FEF701FBB9
:1048000071A90DF60430FEF7FCFA39460DF61C309E
:10481000FEF7F7FA65A90DF63430FEF7F2FA5FA954
:104820000DF64C30FEF7EDFAC5F8D0A3C5F8D4A3C9
:104830004846FCF71CFF0C98FCF719FF0B98FCF797
:1048400016FF0998FCF713FF0A98FCF710FF58466B
:10485000FCF70DFF55A8FCF70AFF0DF58860FDF782
:10486000A4FBEB6F41469B7D85F8D8330DF588603E
:10487000FDF702FF48495FA8FDF7ADF947495846E3
:10488000FDF7A9F9464B749371A9464B71953046D3
:104890007393FEF74FF9444B68930DF29475434BB5
:1048A000659565A938466793FEF744F95F9B0D93BC
:1048B0003F4BC5F8DC33609A0E924FF48073A5F835
:1048C000E0330DF588620DF2A473C5F8E4331146A8
:1048D0000DF67C300893DDF86491DBF80480FDF779
:1048E000CBFE31460DF6DC30FEF724F939460DF6E5
:1048F000EC30FEF71FF90D9B5CE000BF31040008AF
:104900004D040008B4A40008630400088F040008E4
:10491000BEA40008A5040008AF040008CEA4000847
:10492000C5040008CF040008DBA40008E504000863
:10493000EF040008E8A40008050500080F050008BA
:10494000EFA400082505000849050008748C00083C
:104950005F0500089B050008FEA40008B1050008DB
:10496000C905000807A50008DF050008F7050008CD
:1049700011A500080D0600082506000821A500085D
:104980003B0600085706000831A500086D06000820
:1049900077060008888C000839A50008EFA60008F3
:1049A0008D06000897060008AD060008FD06000801
:1049B0009C8C0008C5F868340DF66C330E9AC5F867
:1049C000783495F8D833C5F86C2485F87C34C5F86C
:1049D0007094C5F874843846FCF749FE65A8FCF766
:1049E00046FE3046FCF743FE71A8FCF740FE0DF58D
:1049F0008860FDF7DAFAEB6F0DF63409DB7D85F898
:104A0000803449460DF58860FDF736FEC2495FA83F
:104A1000FDF7E1F8C1495846FDF7DDF871AAC04B32
:104A200074931146BF4B719530467393FEF782F82D
:104A300065AABD4B68931146BC4B65953846679394
:104A4000FEF778F85F9B599A0D93609B0E930F9237
:104A5000B74BC5F884344FF0010285F88924089BD0
:104A6000C5F88C340DF5886285F888A411460DF6DA
:104A70002440DBF80480FDF7FFFD31460DF684404D
:104A8000FEF758F839460DF69440FEF753F80D9BA3
:104A9000C5F810350E9BC5F814350DF614430F9A62
:104AA000C5F8203595F88034C5F8182585F82435E3
:104AB000C5F81C853846FCF7DAFD65A8FCF7D7FD7C
:104AC0003046FCF7D4FD71A8FCF7D1FD0DF58860E8
:104AD000FDF76BFA49460DF58860FDF7CDFD954968
:104AE0005FA8FDF778F894495846FDF774F871AA65
:104AF000924B74931146924B719530467393FEF727
:104B000019F865AA8F4B689311468F4B6595384607
:104B10006793FEF70FF85F9B599A0D93609B0E9376
:104B20000F928A4B089AC5F82835C5F830254FF4FE
:104B3000C8430DF58862A5F82C3511460DF6C8401E
:104B4000DBF80480FDF798FD31460DF62850FDF79F
:104B5000F1FF39460DF63850FDF7ECFF0D9AC5F818
:104B6000B4250DF66C230E9AC5F8B825C5F8C435E2
:104B70000F9A95F8D832C5F8BC2585F8C835C5F820
:104B8000C0853846FCF773FD65A8FCF770FD30461C
:104B9000FCF76DFD71A8FCF76AFD0DF58860FDF767
:104BA00004FA49460DF58860FDF766FD68495FA87F
:104BB000FDF711F867495846FDF70DF871AA664BE5
:104BC00074931146654B719530467393FDF7B2FFB0
:104BD00065AA634B68931146624B659538466793A7
:104BE000FDF7A8FFCDE9066742F6E063ADF81430A3
:104BF0000DF527630393ADF810A09BE803000DF1BA
:104C0000040888E80300609B089900930DF588620A
:104C10005F9B0DF55660FEF703F93846FCF727FD5C
:104C200065A8FCF724FD3046FCF721FD71A8FCF7D0
:104C30001EFD0DF58860FDF7B8F949460DF5886051
:104C4000FDF71AFD48495FA8FCF7C5FF47495846DC
:104C5000FCF7C1FF71AA464B74931146454B719501
:104C600030467393FDF766FF65AA434B6893114680
:104C7000424B659538466793FDF75CFF4AF6C8736B
:104C8000ADF81430CDE9066744F25063ADF810304A
:104C90000DF66E2303939BE8030088E80300609BF6
:104CA000089900930DF588625F9B0DF60460FEF78E
:104CB000B7F83846FCF7DBFC65A8FCF7D8FC3046B3
:104CC000FCF7D5FC71A8FCF7D2FC0DF58860FDF768
:104CD0006CF9C5F814A749460DF58860FDF7CCFCC2
:104CE0005FAA274B62931146264B5F9565A8619397
:104CF000FDF720FF244B73950722F392C6E9013597
:104D0000224B7361224B3361224B7293224B769379
:104D1000224B759344E000BF46A50008EFA60008AB
:104D2000130700081D070008330700087D07000867
:104D3000B08C000850A5000861A500089307000882
:104D40009D070008B3070008D3070008C48C0008BB
:104D500064A5000874A50008E9070008F307000827
:104D6000090800082908000811A5000878A500080E
:104D70003F080008490800085F0800087F0800088D
:104D800095080008C10800087CA50008D70800089D
:104D9000E108000884A50008F70800080F090008CA
:104DA0000C22C54B71920E226B92C7E90135C34BA1
:104DB000089A7B61C24BC5F81C273B610DF58862E0
:104DC000C04BC5F8183711460DF6B460FDF754FC1A
:104DD00065AA11460DF61470FDF7ACFE31460DF6CE
:104DE0002470FEF70EF871AA11460DF63C70FEF71E
:104DF00008F839460DF65470FEF703F8C5F8D8A741
:104E0000C5F8DCA70B98FCF732FC0998FCF72FFCDF
:104E10000A98FCF72CFC65A8FCF729FC5FA8FCF7B6
:104E200026FC0DF58860FDF7C0F849460DF5886051
:104E3000FDF722FC71AAA44B74931146A34B719504
:104E400030467393FDF776FEA1493846FCF7C3FE62
:104E5000A04965A8FCF7BFFE6B9A0D927A680E9286
:104E6000659A0F92669A10929B4AD5F88030C5F8E1
:104E7000E027089AC5F8E4270DF5886203F51F734B
:104E800011460DF67C701193FDF7F6FB31460DF6D9
:104E9000DC70FDF74FFE0D9AC5F858280E9AC5F83C
:104EA0005C280F9A119BC5F86028109AC5F86428F1
:104EB000C5F868383046FCF7DAFB71A8FCF7D7FB79
:104EC0000DF58860FDF771F849460DF58860FDF72E
:104ED000D3FB82495FA8FCF77EFE7E495846FCF76B
:104EE0007AFE71AA7E4B749311467E4B71953046C3
:104EF0007393FDF71FFE65AA7B4B689311467B4BAE
:104F0000659538466793FDF715FECDE906674FF0C6
:104F100064020DF6A863ADF814200393ADF810A059
:104F20009BE8030088E803000DF58860609B089902
:104F3000009302465F9B0DF58050FDF771FF3846E8
:104F4000FCF795FB65A8FCF792FB3046FCF78FFB5E
:104F500071A8FCF78CFB0DF58860FDF726F8494633
:104F60000DF58860FDF788FB61495FA8FCF733FE0B
:104F700058495846FCF72FFE5E4B749371A95E4B5F
:104F8000719530467393FDF7D5FD5C4B689365A929
:104F90005B4B659538466793FDF7CCFDCDE9066719
:104FA0004FF064020DF6AA63ADF814200393ADF838
:104FB00010A09BE8030088E803000DF58860024616
:104FC000609B089900930DF585505F9B0430FDF7B9
:104FD00027FF3846FCF74BFB65A8FCF748FB30463B
:104FE000FCF745FB71A8FCF742FB0DF58860FCF768
:104FF000DCFFEB6F49465B7D85F8B4390DF58860C1
:10500000FDF73AFB3F495FA8FCF7E5FD31495846FB
:10501000FCF7E1FD3C4B749371A93C4B7195304614
:105020007393FDF787FD3A4B689365A9394B6595F6
:1050300038466793FDF77EFD5F9A0D92609A0E9257
:10504000354B599AC5F8B8390F9241F60263089A60
:10505000A5F8BC390DF58A50C5F8C0290DF5886151
:105060001830DBF80480FDF707FB0DF58D50314655
:105070001830FDF75FFD0DF5F360394600F523604C
:10508000FDF758FD0D9AC5F8442A0DF5F3600E9A08
:10509000C5F8482A00F51B630F9AC5F8543A95F8ED
:1050A000B439C5F84C2A85F8583AC5F8508A3846BC
:1050B000FCF7DDFA32E000BF91A5000825090008E1
:1050C0003D090008EC8C0008530900085D09000840
:1050D000A0A50008B0A50008608C0008B3A50008D2
:1050E000730900087D09000893090008B309000846
:1050F000C3A50008C9090008D3090008E909000888
:10510000090A000831A500081F0A0008290A00083A
:105110003F0A0008510A0008C48C000865A8FCF783
:10512000A6FA3046FCF7A3FA71A8FCF7A0FA0DF531
:105130008860FCF73AFF49460DF58860FDF79CFA58
:10514000BE4B689365A9BE4B659538466793FDF7DE
:10515000F1FCBC4B73600A22BB4BF3927361BB4BF7
:1051600033610820BA4BDFF868830D927190089A7A
:1051700072930DF5F360B74BC5F8602AC5F85C8AE9
:1051800076930DF58861B44B759300F526607395A1
:10519000FDF772FA0DF5F360394600F52C60FDF766
:1051A000C9FC0DF5F360314600F52D60FDF729FED1
:1051B00071A90DF59450FDF724FEC5F804ABC5F8B0
:1051C00008AB0998FCF753FA0A98FCF750FA3846EE
:1051D000FCF74DFA65A8FCF74AFA0DF58860FCF774
:1051E000E4FE49460DF58860FDF746FA9B4B68934F
:1051F00065A99B4B659538466793FDF79BFC994BDA
:10520000089AC5F8102B0820F390C6E90135964B93
:105210007361964B33610720954B719072930DF536
:10522000F360944BC5F80C8B76930DF58861924B27
:10523000759300F53160FDF71FFA0DF5F3603946FF
:1052400000F53760FDF776FC0DF5F360314600F5AB
:105250003860FDF7D6FD0DF5F36071A900F69830C2
:10526000FDF7CFFDC5F8B4ABC5F8B8AB0998DFF8CA
:105270006482FCF7FCF90A98FCF7F9F93846FCF768
:10528000F6F965A8FCF7F3F90DF58860FCF78DFEDB
:1052900049460DF58860FDF7EFF9784B5995594669
:1052A000CBF80C305FA8764BCBF80830FDF742FC0A
:1052B0000820744BF3907361734B3361734B72939B
:1052C000734B7693734B75930B236B93724B0D9AC1
:1052D0007190C7E90135714B7B61714B3B61714B3B
:1052E0006693714B65926A9365AA704B69935FA848
:1052F0000346C6E901850DF58860CDE9027271AA01
:10530000CDE9006202460DF5F3600899739500F649
:10531000B8306795FDF7BAFD0C98FCF7A8F90B9823
:10532000FCF7A5F90998FCF7A2F90A98FCF79FF990
:105330005FA8FCF79CF95846FCF799F90DF58860D1
:10534000FCF733FEEB6F49461B7E85F89C3C0DF560
:105350008860FDF791F941465FA8FCF73CFC544991
:105360005846FCF738FC534B749371A9524B719516
:1053700030467393FDF7DEFB504B689365A9504BA5
:10538000659538466793FDF7D5FB5F9A0992609A59
:105390000A92599A4B4B0B924FF48071089AC5F8B8
:1053A000A03CC5F8A82CA5F8A41C0DF5A2500DF53D
:1053B0008861DBF80480FDF75FF931460DF5A550F3
:1053C000FDF7B8FB0DF5F360394600F61850FDF710
:1053D000B1FB0DF5F361099AC5F82C2D01F6984340
:1053E0000A9AC5F8302DC5F83C3D0B9A95F89C3CBF
:1053F000C5F8342D85F8403DC5F8388D3846FCF7A2
:1054000036F965A8FCF733F93046FCF730F971A896
:10541000FCF72DF90DF58860FCF7C7FDEB6F4946E9
:105420001B8AA5F8443D0DF58860FDF725F926494E
:105430005FA8FCF7D0FB254958464DE0670A0008F5
:10544000710A0008D2A50008870A0008890A000826
:10545000DDA50008F7140008930A0008A90A00084F
:10546000B30A0008E6A50008C90A0008D30A000824
:10547000EFA50008F9140008E90A0008F30A00087B
:10548000FD0A0008130B00081D0B000800A6000809
:10549000330B00083D0B000809A60008530B000859
:1054A0005D0B000815A60008730B00087D0B0008B3
:1054B000EFA60008930B00089D0B0008B30B000833
:1054C000CB0B0008288D000820A6000878A500084E
:1054D000008D0008F7A50008FCF77DFBBD4B749319
:1054E0000DF29475BC4B719571A930467393FDF71D
:1054F00021FBBA4B689365A9B94B6595384667930C
:10550000FDF718FB4FF47A63ADF81430CDE9066768
:105510000DF5A65318330393ADF810A001A90A4660
:1055200008919BE80300C2E900010DF2A479609B99
:1055300000930DF588610DF5A6500A465F9B49461C
:105540001C30FDF76DFC3846FCF791F865A8FCF7B8
:105550008EF83046FCF78BF871A8FCF788F80DF54B
:105560008860FCF722FDEB6F0DF634081B7D85F893
:10557000EC3D41460DF58860FDF77EF899495FA83E
:10558000FCF729FB98495846FCF725FB974B749389
:1055900071A9974B719530467393FDF7CBFA954BF4
:1055A000689365A9944B659538466793FDF7C2FAF1
:1055B0005F9A609B0C920B93599A904BC5F8F03D03
:1055C00046F202410DF5AC50A5F8F41D0992C5F85C
:1055D000F89DDBF804200A920DF588611030FDF784
:1055E0004BF80DF5AF5031461030FDF7A3FA3946B0
:1055F0000DF5B050FDF79EFA0B9BC5F8803E099B58
:10560000C5F8843E0A9BC5F8883E0DF5AC530C9A4C
:10561000C5F88C3E95F8EC3DC5F87C2E85F8903E9B
:105620003846FCF724F865A8FCF721F83046FCF76B
:105630001EF871A8FCF71BF80DF58860FCF7B5FCA7
:10564000EB6F41465B8AA5F8943E0DF58860FDF747
:1056500013F86B495FA8FCF7BEFA6A495846FCF795
:10566000BAFA694B749371A9684B7195304673937C
:10567000FDF760FA664B689365A9664B65953846F9
:105680006793FDF757FA4FF4FA63ADF81430CDE99C
:1056900006670DF5B1534FF064020833ADF81020E2
:1056A00003939BE80300089B83E803000DF5B150CA
:1056B000609B00930DF588625F9B49460C30FDF7B7
:1056C000AFFB3846FBF7D3FF65A8FBF7D0FF3046AA
:1056D000FBF7CDFF71A8FBF7CAFF0DF58860FCF75B
:1056E00064FCC5F83CAF41460DF58860FCF7C4FF8B
:1056F000494B59955946CBF80C305FA8474BCBF82E
:105700000830FDF717FA0523F393454B7395C6E967
:105710000135444B7361444B336108237193434B10
:105720007293434B7693434B759310236B93424B89
:105730006795C7E90135414B7B61414B3B610F23C5
:105740006593404B6693404B6A93404B699365ABBE
:10575000CDE902730DF5B65071AB0DF5886249467F
:10576000CDE9006314305FABFDF790FB67A8FBF752
:105770007EFF6DA8FBF77BFF73A8FBF778FFF5A80A
:10578000FBF775FF5FA8FBF772FF5846FBF76FFF4B
:105790000DF58860FCF709FC41460DF58860FCF7C3
:1057A0006BFF2B495FA8FCF716FA2A495846FCF70D
:1057B00012FA294B749371A9284B71953046739353
:1057C000FDF7B8F9264B689365A9264B65953846D1
:1057D0004AE000BFE10B0008EB0B0008010C0008D9
:1057E000130C000831A60008EEA60008290C0008DA
:1057F000330C0008490C00085B0C0008C48C00083E
:1058000042A6000852A60008710C00087B0C000894
:10581000910C0008A30C0008B90C0008E50C000866
:1058200056A60008FB0C0008130D00085CA6000833
:10583000290D0008390D000865A60008FB140008B2
:105840004F0D000876A60008E7140008650D000853
:1058500086A60008EFA600087B0D0008850D00084D
:105860009B0D0008BB0D00086793FDF763F9FF234C
:10587000ADF814304FF00103ADF81030CDE90667F4
:105880000DF5B653103303939BE80300089B83E8A0
:105890000300609B00930DF588625F9B494605F508
:1058A0008150FDF7BDFA3846FBF7E1FE65A8FBF72E
:1058B000DEFE3046FBF7DBFE71A8FBF7D8FE0DF5E8
:1058C0008860FCF772FB2846FBF72AFFD5F89800A2
:1058D00003681B689847EB6E93F8303012AD03BB3A
:1058E000FEE704EB080383F83890FDF781BE636B95
:1058F00093AA0121D1540523FDF7C6BEB3F800C019
:10590000844502F102023DF4CCAEFDF7CFBE414624
:10591000FEF7D0B94946FEF7CDB96BF38A23FEF7FF
:1059200015BB8A4A0023C6E902333374F39220324E
:105930007260874A7374F361F362F363F364F3652F
:10594000136813F0010F834B05D1834F0C21C3E97A
:10595000007101211160DFF82C82D8F8302042F06C
:105960000102C8F830201A6811686FF319611160DC
:10597000D1686FF319610027D1604FF00109F4A8D5
:105980007366C6E91A7986F8707086F87170FBF74D
:10599000C7FE724BCDF84C340DF58861704BCDF8D5
:1059A0004834F8A8CDF84044CDF84454FDF786FBC0
:1059B0000DF58860FBF75BFE6A4B6B4ACDF840340F
:1059C0002033CDF844341368CDF8487413F0010F38
:1059D00008BF664E664BCDF84C7404BF0721C3E97F
:1059E00000618DF850748DF85174CDF85C74CDF869
:1059F0006C74CDF87C74CDF88C74CDF89C7408BFB1
:105A0000C2F80090D8F830205A4F42F00202C8F88D
:105A100030201A68DFF8708111686FF38F311160E0
:105A2000D1686FF38F31D1600026CDF8A4340DF228
:105A300044400123CDF8AC34CDF8A8648DF8B064AF
:105A40008DF8B164FBF76CFE4B4B749371A94B4B13
:105A500073930DF2544071947295FDF72FFB71A86A
:105A6000FBF705FE464B719371A84FF4FA737596D8
:105A700072967696739675938DF8D061FBF750FE0B
:105A80009DF84C309DF8F22162F382039DF8F321DA
:105A900062F3C3038DF84C30BDF84C30A4F85C3190
:105AA0002B78180701D5990704D42B785A0736D5D7
:105AB0009B0734D484F890609DF84D30D8076B78FC
:105AC00048BF84F85061990748BF9DF84D3016983B
:105AD00044BF6FF300038DF84D30B4F8DC322B80F7
