:020000040800F2
:1000000000000220697A0008B97A0008B97A00086D
:10001000B97A0008B97A0008B97A0008000000002F
:10002000000000000000000000000000B97A000895
:10003000B97A000800000000B97A0008F516000837
:10004000DD180008DF180008E1180008E3180008B0
:10005000E5180008E7180008E9180008EB18000880
:10006000ED180008EF180008F1180008A1190008A1
:10007000BD190008D9190008F5190008111A00085F
:100080002D1A0008491A0008F3180008F51800088E
:10009000F7180008F9180008FB180008FD180008F8
:1000A00031190008331900083519000837190008FC
:1000B000391900083B1900083D190008FF1800080D
:1000C000011900080319000805190008611B000840
:1000D0006D1B00084D1900086919000885190008F2
:1000E00007190008091900080B190008451900082C
:1000F00047190008491900084B190008651A00083B
:100100000D1900080F1900083F190008791B000895
:1001100011190008131900084119000843190008B3
:10012000811A00089D1A0008B91A0008D51A00089B
:10013000F11A000800000000000000001519000876
:1001400017190008191900081B1900081D190008C3
:100150000D1B0008291B0008451B00081F1900087B
:10016000211900082319000825190008271900087B
:10017000291900082B1900080000000000000000E9
:080180002D1900082F190008D9
:1001900010B5054C237833B9044B13B10448AFF3C1
:1001A00000800123237010BD6400002000000000C7
:1001B0000084000808B5034B1BB103490348AFF3A3
:1001C000008008BD000000006800002000840008D6
:1001D000034613F8012B002AFBD1181A0138704787
:1001E00001F0FF01102A2BDB10F0070F08D010F8E8
:1001F000013B013A8B422DD010F0070F42B3F6D1EC
:10020000F0B441EA012141EA014122F007047FF004
:1002100000070023F0E80256083C85EA010586EA5B
:10022000010685FA47F5A3FA87F586FA47F6A5FA97
:1002300087F68EB9EED1F0BC01F0FF0102F00702A3
:1002400032B110F8013B013A83EA010313B1F8D14E
:100250000020704701387047002D06BF354603382F
:10026000073815F0010F07D1013015F4807F02BF68
:10027000013015F4C03F0130F0BC0138704700BFB9
:100280004209012300F01F0003FA00F0014B43F87C
:100290002200704700E100E0436901334361704789
:1002A00070477047012A03D0022A03D0002070470C
:1002B0000160FBE70B680360F8E77047012A03D091
:1002C000022A03D0002070470160FBE70B6803603F
:1002D000F8E7012A03D0022A03D00020704701600A
:1002E000FBE70B680360F8E70268137F83F0010304
:1002F00013777047012A03D0022A03D000207047E9
:100300000160FBE70B680360F8E7026892F83C3095
:1003100083F0010382F83C307047012A03D0022A9F
:1003200003D0002070470160FBE70B680360F8E72B
:10033000D0E9003010B5026803EB8203541C04605E
:10034000196110BD012A03D0022A03D00020704792
:100350000160FBE70B680360F8E7012A03D0022A7B
:1003600003D0002070470160FBE70B680360F8E7EB
:10037000012A03D0022A03D0002070470160FBE766
:100380000B680360F8E7012A03D0022A03D000209B
:1003900070470160FBE70B680360F8E7012A03D0B0
:1003A000022A03D0002070470160FBE70B6803605E
:1003B000F8E7012A03D0022A03D000207047016029
:1003C000FBE70B680360F8E7012A03D0022A03D099
:1003D000002070470160FBE70B680360F8E7012A23
:1003E00003D0022A03D0002070470160FBE70B68AE
:1003F0000360F8E7012A03D0022A03D000207047E7
:100400000160FBE70B680360F8E7012A03D0022ACA
:1004100003D0002070470160FBE70B680360F8E73A
:10042000012A03D0022A03D0002070470160FBE7B5
:100430000B680360F8E7012A03D0022A03D00020EA
:1004400070470160FBE70B680360F8E7012A03D0FF
:10045000022A03D0002070470160FBE70B680360AD
:10046000F8E7012A03D0022A03D000207047016078
:10047000FBE70B680360F8E7012A03D0022A03D0E8
:10048000002070470160FBE70B680360F8E7012A72
:1004900003D0022A03D0002070470160FBE70B68FD
:1004A0000360F8E7012A03D0022A03D00020704736
:1004B0000160FBE70B680360F8E7012A03D0022A1A
:1004C00003D0002070470160FBE70B680360F8E78A
:1004D000012A03D0022A03D0002070470160FBE705
:1004E0000B680360F8E7012A03D0022A03D000203A
:1004F00070470160FBE70B680360F8E7012A03D04F
:10050000022A03D0002070470160FBE70B680360FC
:10051000F8E7012A03D0022A03D0002070470160C7
:10052000FBE70B680360F8E7012A03D0022A03D037
:10053000002070470160FBE70B680360F8E7012AC1
:1005400003D0022A03D0002070470160FBE70B684C
:100550000360F8E7012A03D0022A03D00020704785
:100560000160FBE70B680360F8E7012A03D0022A69
:1005700003D0002070470160FBE70B680360F8E7D9
:10058000012A03D0022A03D0002070470160FBE754
:100590000B680360F8E7012A03D0022A03D0002089
:1005A00070470160FBE70B680360F8E7012A03D09E
:1005B000022A03D0002070470160FBE70B6803604C
:1005C000F8E7012A03D0022A03D000207047016017
:1005D000FBE70B680360F8E7012A03D0022A03D087
:1005E000002070470160FBE70B680360F8E7012A11
:1005F00003D0022A03D0002070470160FBE70B689C
:100600000360F8E7012A03D0022A03D000207047D4
:100610000160FBE70B680360F8E7012A03D0022AB8
:1006200003D0002070470160FBE70B680360F8E728
:10063000012A03D0022A03D0002070470160FBE7A3
:100640000B680360F8E7012A03D0022A03D00020D8
:1006500070470160FBE70B680360F8E7012A03D0ED
:10066000022A03D0002070470160FBE70B6803609B
:10067000F8E7012A03D0022A03D000207047016066
:10068000FBE70B680360F8E7012A03D0022A03D0D6
:10069000002070470160FBE70B680360F8E7012A60
:1006A00003D0022A03D0002070470160FBE70B68EB
:1006B0000360F8E7012A03D0022A03D00020704724
:1006C0000160FBE70B680360F8E7012A03D0022A08
:1006D00003D0002070470160FBE70B680360F8E778
:1006E000012A03D0022A03D0002070470160FBE7F3
:1006F0000B680360F8E7012A03D0022A03D0002028
:1007000070470160FBE70B680360F8E7012A03D03C
:10071000022A03D0002070470160FBE70B680360EA
:10072000F8E77047012A08BF016000207047012ADE
:1007300003D0022A03D0002070470160FBE70B685A
:100740000360F8E7012A03D0022A03D00020704793
:100750000160FBE70B680360F8E7012A03D0022A77
:1007600003D0002070470160FBE70B680360F8E7E7
:10077000012A08BF016000207047012A03D0022A25
:1007800003D0002070470160FBE70B680360F8E7C7
:10079000012A03D0022A03D0002070470160FBE742
:1007A0000B680360F8E7012A03D0022A03D0002077
:1007B00070470160FBE70B680360F8E7012A03D08C
:1007C000022A03D0002070470160FBE70B6803603A
:1007D000F8E7012A03D0022A03D000207047016005
:1007E000FBE70B680360F8E7012A03D0022A03D075
:1007F000002070470160FBE70B680360F8E7012AFF
:1008000003D0022A03D0002070470160FBE70B6889
:100810000360F8E7012A03D0022A03D000207047C2
:100820000160FBE70B680360F8E7012A03D0022AA6
:1008300003D0002070470160FBE70B680360F8E716
:10084000012A03D0022A03D0002070470160FBE791
:100850000B680360F8E7012A03D0022A03D00020C6
:1008600070470160FBE70B680360F8E7012A03D0DB
:10087000022A03D0002070470160FBE70B68036089
:10088000F8E7012A03D0022A03D000207047016054
:10089000FBE70B680360F8E7012A03D0022A03D0C4
:1008A000002070470160FBE70B680360F8E7012A4E
:1008B00003D0022A03D0002070470160FBE70B68D9
:1008C0000360F8E70268D2F88C301B785B09A2F865
:1008D000963F7047012A03D0022A03D000207047B8
:1008E0000160FBE70B680360F8E7012A03D0022AE6
:1008F00003D0002070470160FBE70B680360F8E756
:10090000012A03D0022A03D0002070470160FBE7D0
:100910000B680360F8E7012A03D0022A03D0002005
:1009200070470160FBE70B680360F8E7012A03D01A
:10093000022A03D0002070470160FBE70B680360C8
:10094000F8E7C36F0133C36770470022027042703B
:10095000704700220270427070470022027042709D
:10096000704700220270427070470022027042708D
:10097000704700220270427070470022027042707D
:10098000704700220270427070470022027042706D
:10099000704770477047704770477047704770479F
:1009A00070477047012A03D0022A03D00020704705
:1009B0000160FBE70B680360F8E703689A6FB2F821
:1009C0009C300A33A2F89C307047012A03D0022AD7
:1009D00003D0002070470160FBE70B680360F8E775
:1009E00003689A6FB2F89C300A3BA2F89C307047BB
:1009F000012A03D0022A03D0002070470160FBE7E0
:100A00000B680360F8E7012A03D0022A03D0002014
:100A100070470160FBE70B680360F8E7012A03D029
:100A2000022A03D0002070470160FBE70B680360D7
:100A3000F8E7012A03D0022A03D0002070470160A2
:100A4000FBE70B680360F8E7012A03D0022A03D012
:100A5000002070470160FBE70B680360F8E7012A9C
:100A600003D0022A03D0002070470160FBE70B6827
:100A70000360F8E7012A03D0022A03D00020704760
:100A80000160FBE70B680360F8E7012A03D0022A44
:100A900003D0002070470160FBE70B680360F8E7B4
:100AA000012A03D0022A03D0002070470160FBE72F
:100AB0000B680360F8E7012A03D0022A03D0002064
:100AC00070470160FBE70B680360F8E7012A03D079
:100AD000022A03D0002070470160FBE70B68036027
:100AE000F8E7012A03D0022A03D0002070470160F2
:100AF000FBE70B680360F8E7012A03D0022A03D062
:100B0000002070470160FBE70B680360F8E7012AEB
:100B100003D0022A03D0002070470160FBE70B6876
:100B20000360F8E7012A03D0022A03D000207047AF
:100B30000160FBE70B680360F8E7012A03D0022A93
:100B400003D0002070470160FBE70B680360F8E703
:100B5000012A03D0022A03D0002070470160FBE77E
:100B60000B680360F8E7012A03D0022A03D00020B3
:100B700070470160FBE70B680360F8E7012A03D0C8
:100B8000022A03D0002070470160FBE70B68036076
:100B9000F8E7012A03D0022A03D000207047016041
:100BA000FBE70B680360F8E7012A03D0022A03D0B1
:100BB000002070470160FBE70B680360F8E7012A3B
:100BC00003D0022A03D0002070470160FBE70B68C6
:100BD0000360F8E7012A03D0022A03D000207047FF
:100BE0000160FBE70B680360F8E7012A03D0022AE3
:100BF00003D0002070470160FBE70B680360F8E753
:100C0000012A03D0022A03D0002070470160FBE7CD
:100C10000B680360F8E7012A03D0022A03D0002002
:100C200070470160FBE70B680360F8E7012A03D017
:100C3000022A03D0002070470160FBE70B680360C5
:100C4000F8E7012A03D0022A03D000207047016090
:100C5000FBE70B680360F8E7012A03D0022A03D000
:100C6000002070470160FBE70B680360F8E7012A8A
:100C700003D0022A03D0002070470160FBE70B6815
:100C80000360F8E7012A03D0022A03D0002070474E
:100C90000160FBE70B680360F8E7012A03D0022A32
:100CA00003D0002070470160FBE70B680360F8E7A2
:100CB000012A03D0022A03D0002070470160FBE71D
:100CC0000B680360F8E7012A03D0022A03D0002052
:100CD00070470160FBE70B680360F8E7012A03D067
:100CE000022A03D0002070470160FBE70B68036015
:100CF000F8E7012A03D0022A03D0002070470160E0
:100D0000FBE70B680360F8E7012A03D0022A03D04F
:100D1000002070470160FBE70B680360F8E7012AD9
:100D200003D0022A03D0002070470160FBE70B6864
:100D30000360F8E7012A03D0022A03D0002070479D
:100D40000160FBE70B680360F8E7012A03D0022A81
:100D500003D0002070470160FBE70B680360F8E7F1
:100D6000012A03D0022A03D0002070470160FBE76C
:100D70000B680360F8E7012A03D0022A03D00020A1
:100D800070470160FBE70B680360F8E7012A03D0B6
:100D9000022A03D0002070470160FBE70B68036064
:100DA000F8E7012A03D0022A03D00020704701602F
:100DB000FBE70B680360F8E7012A03D0022A03D09F
:100DC000002070470160FBE70B680360F8E7012A29
:100DD00003D0022A03D0002070470160FBE70B68B4
:100DE0000360F8E7012A03D0022A03D000207047ED
:100DF0000160FBE70B680360F8E7012A03D0022AD1
:100E000003D0002070470160FBE70B680360F8E740
:100E10008368D96ED1F818211268D2061AD5D1F894
:100E200020215268002092B2C1F80001C2F1FF00F7
:100E3000FF2828BFFF20FF2AC1F804010AD0DA6F7B
:100E4000D96EC3F88020D1F80421D1F80011521ACC
:100E5000C3F8902070470378C3F3001020B9C3F3A0
:100E6000401008B9C3F38010704770B5054600689C
:100E700003680C469B68984723682C6020461B68D3
:100E8000BDE870401847006800F5C0719430FFF766
:100E9000ECBF10B50446006800F1FC019430FFF788
:100EA000E4FF2368D3F88030012283F8502110BD7D
:100EB00010B50446006800F526719430FFF7D5FFA1
:100EC0002268D2F88010002381F8B031D2F8801067
:100ED00081F8F031D2F8802082F8503210BD0168DC
:100EE000D1F884301B789B0701F194004CBF01F2CC
:100EF000D44101F22441FFF7B8BF006800F55F71EB
:100F00009430FFF7B2BF006800F664319430FFF709
:100F1000ACBF006800F6B4219430FFF7A6BF10B54F
:100F20000446006800F698719430FFF79EFF22682F
:100F3000D2F88010002381F89031D2F8802082F816
:100F4000703110BD0068D0F88020012382F8D030C5
:100F5000D0F8802082F8B031D0F8802082F8B0300C
:100F6000D0F8802082F8F031D0F8802082F8F0307C
:100F7000D0F8802000F5C07182F850329430FFF72D
:100F800074BF0068D0F88020002382F89032D0F837
:100F9000802000F6180182F8B0329430FFF765BF68
:100FA000006800F5C0719430FFF75FBF10B50446CC
:100FB000006800F5C0719430FFF757FF2368D3F83D
:100FC0008030012283F8502110BD0268D2F88430AD
:100FD0001B78C3F3C00382F82034006800F2845108
:100FE0009430FFF742BF10B50446006800F5C071A9
:100FF0009430FFF73AFF2368D3F88030012283F85A
:10100000502110BD0268D2F884301B78C3F3C003AE
:1010100082F82034006800F284519430FFF725BF35
:101020000168D1F884301B789B0701F194004CBF14
:1010300001F2D44101F22441FFF717BF0168D1F852
:10104000883091F820041A7860F3C3021A70D1F83E
:101050008030002283F85021D1F884301B789B0720
:1010600001F194004CBF01F2D44101F22441FFF799
:10107000FCBE006800F526719430FFF7F6BE0068EC
:1010800000F526719430FFF7F0BE006800F5267178
:101090009430FFF7EABE0068D0F88020012382F880
:1010A0001031D0F8802082F83031D0F8802082F8DA
:1010B0009032D0F8802000F5C07182F8B0329430C0
:1010C000FFF7D3BE006800F50E619430FFF7CDBE88
:1010D000006800F618019430FFF7C7BE006800F6FC
:1010E00018019430FFF7C1BE006800F61801943073
:1010F000FFF7BBBE006800F5C0719430FFF7B5BEC6
:10110000006800F5C0719430FFF7AFBE006800F6CC
:1011100014419430FFF7A9BE006800F664319430A2
:10112000FFF7A3BE006800F6F8419430FFF79DBEBC
:10113000006800F55A619430FFF797BE006800F62A
:1011400048619430FFF791BE006800F56F619430FC
:10115000FFF78BBE006800F614419430FFF785BEA0
:10116000006890F8F43CC26F003318BF012300F60A
:10117000144193759430FFF778BE006800F614416F
:101180009430FFF772BE0068C36FB0F89C2D1A82CE
:1011900000F614419430FFF768BE006800F6144171
:1011A0009430FFF762BE0068C36F90F8442E1A7542
:1011B00000F614419430FFF758BE006800F6144161
:1011C0009430FFF752BE0068C36FB0F8EC2E5A821D
:1011D00000F614419430FFF748BE0068D0F8802034
:1011E000012382F89031D0F8802082F87030D0F856
:1011F000802082F87031D0F8802000F5C07182F82C
:1012000050309430FFF731BE006800F6987194308A
:10121000FFF72BBE0068D0F88030012283F83C2015
:10122000D0F88030002200F1FC0183F830209430A7
:10123000FFF71BBE0068D0F88020002382F83C3006
:10124000D0F8802000F1FC0182F830309430FFF7B4
:101250000CBE0368D3F88020B2F8BC2183F890223A
:10126000006800F5C5619430FFF7FFBD0368D3F84F
:101270008020B2F85C22A3F89422006800F2CC61CE
:101280009430FFF7F2BD0368D3F88020B2F8FC2158
:10129000A3F89222006800F5EE619430FFF7E5BDF7
:1012A0000068D0F8882090F878331178003318BFA0
:1012B000012363F382011170D0F88030002283F89B
:1012C0005021D0F88830D0F880201B78C3F38003F9
:1012D00083F0010382F89030D0F88030B3F81C22FC
:1012E000A3F89C2000F5C0719430FFF7BEBD0068E4
:1012F000D0F8803090F89022A3F8DC20D0F880302D
:10130000002200F5267183F8D0209430FFF7ADBDA0
:101310000068D0F88030B0F89422A3F8FC20D0F810
:101320008030002200F5267183F8F0209430FFF71A
:101330009CBD0068D0F88030B0F89222A3F8BC20A1
:10134000D0F88030002200F5267183F8B020943068
:10135000FFF78BBD0368D3F88020B2F89C22A3F876
:101360001428006800F66C119430FFF77EBD036806
:10137000D3F88020B2F8BC22A3F81628006800F544
:1013800021619430FFF771BD0068D0F88030B0F86B
:101390001428A3F81C21D0F88030002200F6180190
:1013A00083F810219430FFF760BD0068D0F88030DA
:1013B000B0F81628A3F83C21D0F88030002200F6BF
:1013C000180183F830219430FFF74FBD0368D3F83C
:1013D0008020B2F89C21A3F8942F006800F5835177
:1013E00018319430FFF741BD0068D0F88030B0F874
:1013F000942FA3F87C20D0F88030002200F698715A
:1014000083F870209430FFF730BD0B1A9B10002B2F
:1014100010DD027812B342780AB901307047827841
:101420000AB902307047C2780AB9033070470430F5
:10143000013BECE70B1A022B0BD0032B06D0012B40
:101440000BD10378002B18BF0846704703782BB1E7
:101450000130037813B10130F3E7084670470B1AE7
:101460009B10002B10DD027812BB42780AB10130CC
:10147000704782780AB102307047C2780AB10330EF
:1014800070470430013BECE70B1A022B0BD0032B07
:1014900006D0012B0BD10378002B08BF08467047FC
:1014A00003782BB90130037813B90130F3E708460C
:1014B000704710B504462CB1236820461B68984736
:1014C0006468F8E710BD000030235943037A43B144
:1014D0000F4B9B680360994224BFCB1A43600023E3
:1014E000037203680A4A994207D892689B1A994284
:1014F0000CD8012303720020704791688B4205D8F5
:10150000536892689B1A42689342F2D20120704756
:1015100010E000E0D0F898203221531CC0F8983039
:10152000B2FBF1F301FB132323B9D0F89400036855
:101530005B681847704770470A1A02D0202106F0EE
:1015400004BB704770477047704770470369002BB2
:10155000BFBF034B436003F188334360704700BF54
:1015600023016745D0E9002101238B409361704737
:10157000D0E900120123103293408B617047036859
:1015800010B504469869FFF7F3FFC8216068FFF7BC
:101590009BFF0028F9D123689869FFF7E3FFC82172
:1015A0006068FFF791FF0028F9D110BD38B50368D6
:1015B000044618690D46FFF7DBFF23686068DA69A7
:1015C0009B6A53F835309361FFF7D9FF2368606851
:1015D000996ADA6901EBC5014B689361FFF7CFFFA8
:1015E0006421A068FFF770FF0028F9D138BD000022
:1015F000437B012B10B5044622D002D3022B2AD004
:1016000010BD4069FFF7B4FF2069FFF7ABFF626BC5
:10161000206A531C50216363B2FBF1F301FB1323D7
:10162000114A52F82330C25C636A03EBC20053F8DC
:101630003210E26943689161E36201236373DFE77B
:101640008069FFF78FFFA069FFF792FFE369E26A05
:101650009A610223F2E78069FFF784FFA069FFF730
:1016600087FF0023EAE700BF00870008036841689E
:101670001A6901238B40134214BF012000207047D8
:1016800070B50D460646FFF7F1FF5DB1D6E90042A1
:101690000123266903FA02F10E421DBF1032934066
:1016A000A361A1616840C0B270BD10B504682CB1DF
:1016B000236820461B689847A468F8E710BD10B55A
:1016C0008368044613B1032201469847204610BDA3
:1016D00010B504460830FFF7E8FFD4E90421531C95
:1016E0002361B2FBF1F301FB132313B92046FFF78B
:1016F000DCFF10BD0148FFF7EBBF00BF2C0400204A
:10170000426903699A424FF0000326BF43610120FA
:1017100018467047037BC3B100230373D0E901234C
:101720006AB143B1936083685A600023C0E9013312
:1017300070470B60F8E7054993604A60F5E7034995
:10174000002BF6D1C1E90033EFE770472C040020ED
:1017500000224261FFF7DEBF037B53B9012303730D
:10176000044B5A68426002B190601A68586002B92E
:10177000186070472C0400200A2A10B501D00F2AE7
:1017800015D1204B9A68C2F34232D2B1042A1AD042
:10179000052A1AD01C4B1D4C062A08BF23460729D0
:1017A0001AD8DFE801F0141A1D202326292C0B3A41
:1017B000032A04D8134B9A68C2F38222E5E7002378
:1017C000EDE7134BEBE7134BE9E7134BE7E74FF478
:1017D0001652B3FBF2F3836010BD4FF46152F8E789
:1017E0004FF49642F5E74FF4E142F2E74FF4164228
:1017F000EFE74FF46142ECE74FF49632E9E74FF43C
:10180000E132E6E700380240C0C62D00808D5B0063
:10181000006CDC0200366E01001BB70019B90068CD
:10182000C0F340107047012903D10068C0F3C02005
:101830007047022903D10068C0F340507047032964
:1018400003D10068C0F3C0607047042901D140682B
:10185000E6E7052901D14068E8E7062901D140689B
:10186000EAE7072901D14068ECE70020704770B52E
:101870008668F36E93F82811D3F81401FFF7CEFFB2
:1018800058B3F46E0025C4F80051C4F80451D4F8DC
:101890001001FFF76DFED4F81C311A6865F30002E1
:1018A0001A60D4F820311A6865F300021A60FF222A
:1018B0005A60D4F820311A6842F001021A601A689E
:1018C000D207FCD5D4F81821D36843F01003D360B5
:1018D0003046BDE87040FFF73FBF70BDFEE7FEE752
:1018E000FEE7FEE7FEE7FEE7FEE7FEE7FEE7FEE7D0
:1018F000FEE7FEE7FEE7FEE7FEE7FEE7FEE7FEE7C0
:10190000FEE7FEE7FEE7FEE7FEE7FEE7FEE7FEE7AF
:10191000FEE7FEE7FEE7FEE7FEE7FEE7FEE7FEE79F
:10192000FEE7FEE7FEE7FEE7FEE7FEE7FEE7FEE78F
:10193000FEE7FEE7FEE7FEE7FEE7FEE7FEE7FEE77F
:10194000FEE7FEE7FEE7FEE7FEE7FEE708B5044B2D
:101950001868FFF7AEFD034B1A685B6808BD00BF4F
:101960000C0400200010014008B5044B1868FFF774
:10197000A0FD034B1A685B6808BD00BF140400207B
:101980000044004008B5044B1868FFF792FD034B74
:101990001A685B6808BD00BF1C04002000480040B6
:1019A00008B5044B1868FFF784FD034B3D229A608D
:1019B00008BD00BF740300200060024008B5044B5E
:1019C0001868FFF776FD034B4FF474629A6008BD08
:1019D0007C0300200060024008B5044B1868FFF744
:1019E00068FD034B4FF474129A6008BD8403002015
:1019F0000060024008B5044B1868FFF75AFD034B1E
:101A00004FF074629A6008BD8C03002000600240B1
:101A100008B5044B1868FFF74CFD034B4FF4746294
:101A2000DA6008BD940300200060024008B5044B52
:101A30001868FFF73EFD034B4FF47462DA6008BD8F
:101A40009C0300200060024008B5044B1868FFF7B3
:101A500030FD034B4FF47412DA6008BDA40300207C
:101A60000060024008B5044B1868FFF722FD034BE5
:101A70004FF07462DA6008BDAC03002000600240E1
:101A800008B5044B1868FFF714FD034B3D229A601C
:101A900008BD00BFB40300200064024008B5044B39
:101AA0001868FFF706FD034B4FF474629A6008BD97
:101AB000BC0300200064024008B5044B1868FFF71F
:101AC000F8FC034B4FF474129A6008BDC403002065
:101AD0000064024008B5044B1868FFF7EAFC034BAA
:101AE0004FF074629A6008BDCC030020006402408D
:101AF00008B5044B1868FFF7DCFC034B3D22DA60A5
:101B000008BD00BFD40300200064024008B5044BA8
:101B10001868FFF7CEFC034B4FF47462DA6008BD1F
:101B2000DC0300200064024008B5044B1868FFF78E
:101B3000C0FC034B4FF47412DA6008BDE4030020CC
:101B40000064024008B5044B1868FFF7B2FC034B71
:101B50004FF07462DA6008BDEC03002000640240BC
:101B6000014B1868FFF7A5BCF4030020014B18686F
:101B7000FFF79FBCFC030020014B1868FFF799BCDE
:101B800004040020026810B5541C02440460517221
:101B900004685021B4FBF1F201FB1242026010BD57
:101BA00010B504681421B4FBF1F201FB12420346A4
:101BB00012B92021FFF7E6FF14241968B1FBF4F2F3
:101BC00004FB121222B120211846FFF7DBFFF4E7D5
:101BD000184610BD08B503461A6822B120211846E0
:101BE000FFF7D0FFF8E7184608BD38B505460C46A4
:101BF000084609B1FEF7ECFAC5E90004284638BDED
:101C000010B514240368B3FBF4F304FB0311502450
:101C1000B1FBF4F304FB1311016010BD38B5046887
:101C2000D4F8AC30F3B1013BC4F8AC30D4F8A830F0
:101C3000606814256B4303600F21FFF7E1FF20214B
:101C4000FFF7A0FFD4F8A8306068013B5D43C4F8FB
:101C5000A8300F210560FFF7D3FF7E21BDE8384093
:101C6000FFF790BF38BD38B50468D4F8AC30012B0D
:101C70001ED00133C4F8AC30D4F8A8306068142505
:101C80006B4303600F21FFF7BBFF2021FFF77AFFB3
:101C9000D4F8A830606801335D43C4F8A8300F2140
:101CA0000560FFF7ADFF7E21BDE83840FFF76ABF52
:101CB00038BD437A70B5054600F10C062BB1002300
:101CC0004372C1613046FFF747FD3046FFF718FD0C
:101CD000012428B13046FFF73BFD6C72002070BD37
:101CE0002046FCE770B58EB005AD0023CDE901506C
:101CF0000C93CDE90533CDE909330B93394E0D93A0
:101D00000123044608968DF81D308DF81C30009094
:101D1000CDF80CD0049564212846FFF7CAFF0028AF
:101D2000F9D12069FFF724FC6069FFF721FCA06965
:101D3000FFF718FCA26AE369D2699A616846FFF767
:101D40001EFC05212846FFF7B4FF0028F9D1A26A3E
:101D5000E369D2699A616846FFF711FC642128465D
:101D6000FFF7B2FB0028F9D1A26AE369D2699A6150
:101D70006846FFF704FC32212846FFF7A5FB002840
:101D8000F9D1A26AE36952699A616846FFF7F7FBE5
:101D900032212846FFF798FB0028F9D1282102A814
:101DA000FFF704FC0C2102A8FFF700FC062102A8A3
:101DB000FFF7FCFB012102A8FFF7F8FB802102A836
:101DC000FFF7F4FB01212846FFF773FF0028F9D144
:101DD0000EA8012384F8303040F8186DFFF79AFC04
:101DE0000EB070BD3884000810B504465030FFF7BF
:101DF00066FC04F14000FFF762FC04F13000FFF7DD
:101E00005EFC04F12000FFF75AFC04F11000FFF71C
:101E100056FC2046FFF753FC204610BD204B1A68A5
:101E2000052161F302021A60A3F580631A6842F487
:101E300080321A601A689203FCD59A686FF3071211
:101E40009A609A68042161F38C229A609A686FF311
:101E50004F329A609A68022161F301029A605A68CF
:101E6000082161F305025A605A68C02161F38E129D
:101E70005A605A68072161F31B625A605A6801214F
:101E800061F311425A605A6842F480025A601A683B
:101E900042F080721A60034A13689B01FCD57047B8
:101EA000003C0240003802407B487C49F8B503689A
:101EB00013F0010F7CD17A4B7A4C1A6812F0010FA3
:101EC00006D1DFF8F8E10222C4E900E201221A603B
:101ED000754B1A6B42F001021A63226815680226DC
:101EE00066F305151560156A072666F30B2515625E
:101EF000D5686FF30515D5606C4D2A6812F0010F97
:101F00006B4A06D1DFF8B4C10326C2E900C6012638
:101F10002E601D6B45F001051D6313681D680226C8
:101F200066F387151D601D6A072666F30F351D626F
:101F3000DD686FF38715DD605E4D2B6813F0010FD0
:101F40005D4B05D15D4F0F26C3E9007601262E605B
:101F5000554E356B45F0010535631D682F68012628
:101F600066F39F772F60EF686FF39F77EF60C1F89C
:101F70001031534BC1F81431A3F50733C1F81831B0
:101F800003F50733A033C1F81C31183BC1F82031E9
:101F90000B230025C1F824310623C1F80051C1F8F4
:101FA0000451C1F80841C1F80C2181F828310660BC
:101FB0003D4C236C43F400332364D1F81831DA68C4
:101FC00042F00802DA60DA6842F00402DA605A6924
:101FD00042F080025A615A6942F040025A61394B1C
:101FE00093F90400FEF74CF9236B43F400132363C9
:101FF000D1F81C311A68012060F387121A60D1F8F9
:1020000000210A44DA60D1F8182104329A601A6873
:1020100042F480621A601A686FF34E321A601A68CE
:102020006FF3CC221A601A6842F010021A60264B35
:1020300093F90400FEF724F9D1F820311A686FF300
:1020400087121A60D1F800210A44DA60D1F8182109
:1020500004329A60FF225A601A6842F480621A6061
:102060001A686FF34E321A601A686FF3CC221A6046
:102070001A6842F480721A60D1F820311A6804207C
:1020800060F35B621A60D1F81C311A6860F35B621E
:102090001A600248F8BD00BF4C010020500100202A
:1020A000940200209802002000380240880200209C
:1020B0008C0200207C0200208002002000000240F0
:1020C0000060024014040020A403002010B50C1A84
:1020D000134605D001462246184605F01DFD03466D
:1020E000181910BD2DE9F34702AB03E90600076894
:1020F000037A00F109080646DDE9004508EB07020E
:1021000063B3132C22D8C4F1140902EB5909104609
:102110004946FFF711FA29194A462846FFF7D6FF24
:1021200009EB040A07F1140141445046FFF704FA91
:10213000336850211433B3FBF1F201FB12333360E7
:1021400000233046337202B0BDE8F087143C05EB43
:10215000540000F11401FFF7B9FFE9E7C7F150019E
:10216000A14205EB040907D949462846FFF7AEFF0F
:10217000306804443460E3E729442846FFF7A6FFAB
:102180003368A4F150071F44E41B2C44502F204611
:10219000424604F1500404D92146FFF797FF503F0F
:1021A000F4E74946FFF792FF336850221F44B7FB1C
:1021B000F2F302FB13773760C2E7000030B589B055
:1021C0000A460446114905A805F0C4FD05A901A861
:1021D000FFF70BFD6368019A934208D99B1A13F12C
:1021E000FF3304D320212046FFF7CCFCF7E703ADF3
:1021F00005A92846FFF7F9FC95E806002046FFF7F9
:1022000071FF00232046636009B030BD908A00084A
:10221000F8B505460F464FF47A7691FBF6F4214661
:10222000FFF7CCFF2E212846FFF7ACFC06FB147409
:102230000A2394FBF3F4092C08DC00212846FFF75D
:10224000BDFF2146FFF7BAFF2846F8BD21462846C4
:10225000F8E70000F7B50546406802260660AB6F58
:10226000B3F81C12FFF7D4FF6C46074642492046DC
:10227000FFF7BBFC94E806003846FFF733FF6868B9
:102280003E4F0D23C0E90036AB6FB3F8DC11FFF70A
:1022900095FF2521FFF776FC68681E23C0E900360C
:1022A000AB6FB3F87C12FFF789FF3549064620462D
:1022B000FFF79BFC94E806003046FFF713FF6E68BB
:1022C00022233360EB6F1B78C3F3C003204657F81B
:1022D0002310FFF78AFC94E806003046FFF702FF60
:1022E0006E6823233360EB6F1B78C3F380032046B3
:1022F00057F82310FFF779FC94E806003046FFF703
:10230000F1FEEA6F1046FEF7A6FDF8B96E681D49AA
:10231000142333602046FFF768FC94E8060030463B
:10232000FFF7E0FE686816230360AB6FB3F83C125A
:10233000FFF76EFF144905462046FFF756FC94E868
:1023400006002846FFF7CEFE03B0F0BD1378D9068D
:1023500004D56D680D4914232B60EDE79A0604D56A
:102360006D680B4914232B60E6E75B06ECD56D68BE
:10237000084914232B60DFE7608A0008408A0008C0
:10238000648A0008678A00086A8A00086D8A000863
:10239000768A00087F8A000838B5002383608B683E
:1023A00004460D462BB102229847EB68E360AB6808
:1023B000A360204638BD38B5002383608B6804468F
:1023C0000D462BB102229847EB68E360AB68A3602F
:1023D000204638BD38B504460D46FFF7DDFF05F150
:1023E000100104F11000FFF7D7FF05F1200104F1FF
:1023F0002000FFF7D1FF05F1300104F13000FFF7B5
:10240000CBFF05F1400104F14000FFF7D4FF05F1D7
:10241000500104F15000FFF7CEFF204638BD38B51B
:10242000002383608B6804460D462BB10222984737
:10243000EB68E360AB68A360204638BD826810B5E6
:102440000AB905F03AFBC368BDE81040184730B53B
:1024500085B004460025694608300295FFF7EEFF77
:102460006846FFF72CF9694604F118000295FFF75A
:10247000E5FF6846FFF723F9694604F13800029545
:10248000FFF7DCFF6846FFF71AF905B030BD30B53D
:1024900085B004460025694608300295FFF7CEFF57
:1024A0006846FFF70CF9694604F118000295FFF73A
:1024B000C5FF6846FFF703F9694604F12800029555
:1024C000FFF7BCFF6846FFF7FAF8694604F13800E9
:1024D0000295FFF7B3FF6846FFF7F1F805B030BD8E
:1024E00030B585B004460025694608300295FFF7EF
:1024F000A5FF6846FFF7E3F8694604F11800029566
:10250000FFF79CFF6846FFF7DAF8694604F12800F8
:102510000295FFF793FF6846FFF7D1F8694604F18B
:1025200038000295FFF78AFF6846FFF7C8F805B044
:1025300030BD30B585B004460025694608300295A7
:10254000FFF77CFF6846FFF7BAF8694604F1180008
:102550000295FFF773FF6846FFF7B1F8694604F18B
:1025600028000295FFF76AFF6846FFF7A8F869465A
:1025700004F138000295FFF761FF6846FFF79FF806
:1025800005B030BD30B585B0044600256946083039
:102590000295FFF753FF6846FFF791F8694604F18B
:1025A00018000295FFF74AFF6846FFF788F869466A
:1025B00004F128000295FFF741FF6846FFF77FF816
:1025C000694604F138000295FFF738FF6846FFF7C7
:1025D00076F805B030BD30B585B0044600256946B3
:1025E00028300295FFF72AFF6846FFF768F869462A
:1025F00004F108000295FFF721FF6846FFF75FF836
:10260000694604F118000295FFF718FF6846FFF7C6
:1026100056F8694604F138000295FFF70FFF684647
:10262000FFF74DF805B030BD1FB5224B00900446B2
:10263000694603930830204B0293FFF7FFFE68467C
:10264000FFF73DF81D4B039369461D4B029304F1C0
:1026500018000094FFF7F2FE6846FFF730F8194BB8
:1026600003936946184B029304F138000094FFF776
:10267000E5FE6846FFF723F860680023036004F175
:10268000780393E80600FFF72DFDFFF789FA6068ED
:1026900014230360D4F888301988FFF78FFD04F104
:1026A000800393E80600FFF71DFD6068FFF792FACC
:1026B00004B010BDA3020008A5020008BB02000878
:1026C000BD0200084B280008D3020008F0B585B011
:1026D0006C464C4B009005462146039328304A4BEC
:1026E0000293FFF7ABFE2046FEF7E9FF474B03934B
:1026F0002146474B029305F108000095FFF79EFE27
:102700002046FEF7DCFF434B03932146424B0293E6
:1027100005F118000095FFF791FE2046FEF7CFFF68
:102720003E4B039321463E4B029305F13800009542
:10273000FFF784FE2046FEF7C2FF6E68394F06F1B0
:10274000590106F10900FEF7F7FE002333606E68B9
:10275000354933602046FFF748FA94E806003046D2
:10276000FFF7C0FC6E6831490B2333602046FFF74A
:102770003CFA94E806003046FFF7B4FC6E682C493A
:10278000142333602046FFF730FA94E80600304601
:10279000FFF7A8FC68681E220223C0E90023AB6F84
:1027A000B3F87C12FFF70AFD224906462046FFF7E0
:1027B0001CFA94E806003046FFF794FC6E6822236A
:1027C0003360EB6F1B78C3F3C003204657F8231028
:1027D000FFF70BFA94E806003046FFF783FC6E68BB
:1027E00023233360EB6F1B78C3F38003204657F835
:1027F0002310FFF7FAF994E806003046FFF772FC61
:1028000005B0F0BD45150008A5090008BB09000882
:10281000CB090008E1090008F10900085728000861
:10282000070A0008408A0008888A00088B8A000886
:10283000678A00088E8A0008826810B50AB905F018
:102840003CF9C368BDE81040184708B50068683017
:10285000FFF7F2FF08BD08B500686830FFF7ECFF2E
:1028600008BD08B50368D3F89C2093F8A030137016
:102870000068D0F884301BB17C30FFF7DDFF08BD65
:102880006C30FAE708B500686C30FFF7D5FF08BD7B
:1028900008B50368D3F8C400182202FB003080306A
:1028A000FFF7CAFF08BD08B500686830FFF7C4FF2E
:1028B00008BD006808B5D0F89C30B0F8A0201A8098
:1028C000D0F884301BB17C30FFF7B6FF08BD6C3008
:1028D000FAE708B500686C30FFF7AEFF08BD08B531
:1028E0000368D3F89C2093F8A03013700068D0F8E8
:1028F00084301BB17C30FFF79FFF08BD6C30FAE7D6
:1029000008B500686C30FFF797FF08BD006808B590
:10291000D0F89C3090F8A0201A70D0F884301BB109
:102920007C30FFF789FF08BD6C30FAE708B5006816
:102930006C30FFF781FF08BD08B50368D3F8AC0021
:10294000182202FB00308030FFF776FF08BD08B583
:1029500000686830FFF770FF08BD08B50368D3F85A
:102960009C2093F8A03013700068D0F884301BB11D
:102970007C30FFF761FF08BD6C30FAE708B50068EE
:102980006C30FFF759FF08BD08B50368D3F8DC00C9
:10299000182202FB00308030FFF74EFF08BD08B55B
:1029A00000686830FFF748FF08BD08B50368D3F832
:1029B0000C01182202FB00308030FFF73DFF08BDFC
:1029C00008B500686830FFF737FF08BD38B5002349
:1029D00083608B6804460D462BB102229847EB6852
:1029E000E360AB68A360204638BD10B50B460446D3
:1029F000D1E9000184E8030003F1080104F10800B3
:102A0000FFF70DFD204610BD38B51D46124B04469C
:102A1000C0E9003111460830FFF7DCFC294604F11B
:102A20006800FFF7FCFC049904F17800FFF7DDFF74
:102A3000059904F19000FFF7D8FF069904F1A8006A
:102A4000FFF7D3FF079904F1C000FFF7CEFF002383
:102A5000C4E93633204638BD6C84000838B51D46BD
:102A60000D4B0446C0E9003111460830FFF7B2FCB7
:102A7000294604F16800FFF7D2FC049904F17800BC
:102A8000FFF7B3FF059904F19000FFF7AEFF0023B5
:102A9000C4E92A33204638BD9484000882B038B592
:102AA0000593184B0360BDF828308380BDF82C30A7
:102AB000C3800446816011460C30099DFFF78AFCF3
:102AC0000C9904F16C00FFF7AAFC0D9904F17C004D
:102AD000FFF7A5FC05AA92E8030004F18C0307AAFE
:102AE00083E8030092E8030004F1940383E8030001
:102AF0002B88C4F89C502046A4F8A030BDE838408C
:102B000002B07047D0840008D0F80431FE2B9FBF7C
:102B1000C154D0F804310133C0F80431704713B503
:102B20000B460446D0E900016A4682E8030093E8B8
:102B3000030084E8030092E8030083E8030002B086
:102B400010BD38B505460C46FFF7E9FFAB68A26833
:102B5000AA60A360E268EB68EA60E36038BD1FB575
:102B600004466846FFF75BFC21466846FFF7E9FF2D
:102B70006846FEF7A4FD204604B010BD08B54430F9
:102B8000FFF7EDFF08BD08B53430FFF7E8FF08BDDB
:102B900008B52430FFF7E3FF08BD08B51430FFF790
:102BA000DEFF08BD08B54430FFF7D9FF08BD08B502
:102BB0003430FFF7D4FF08BD08B52430FFF7CFFF4E
:102BC00008BD08B51430FFF7CAFF08BD08B544308A
:102BD000FFF7C5FF08BD08B53430FFF7C0FF08BDDB
:102BE00008B52430FFF7BBFF08BD08B51430FFF768
:102BF000B6FF08BD08B53430FFF7B1FF08BD08B512
:102C00003430FFF7ACFF08BD08B54430FFF7A7FF2D
:102C100008BD08B54430FFF7A2FF08BD08B5243051
:102C2000FFF79DFF08BD08B51430FFF798FF08BDFA
:102C300008B52430FFF793FF08BD08B51430FFF73F
:102C40008EFF08BD30B5044689B0084600236946AA
:102C50000293FFF776FF23689C6F2368694604A8F8
:102C6000DD68FFF7DCFB04A92046A84704A8FEF7AF
:102C700026FD6846FEF723FD09B030BD30B5044699
:102C800089B00846002369460293FFF75AFF23687C
:102C90001C6F2368694604A89D68FFF7C0FB04A960
:102CA0002046A84704A8FEF70AFD6846FEF707FD80
:102CB00009B030BD30B5044689B0084600236946E6
:102CC0000293FFF73EFF23685C6F2368694604A800
:102CD0009D68FFF7A4FB04A92046A84704A8FEF7B7
:102CE000EEFC6846FEF7EBFC09B030BD30B504469B
:102CF00089B00846002369460293FFF722FF236844
:102D00009C6F2368694604A89D68FFF788FB04A9A7
:102D10002046A84704A8FEF7D2FC6846FEF7CFFC81
:102D200009B030BDF0B5C26ED2F80431D2F800114E
:102D30005C1A022C33D999423EBF03F1FF33C2F82B
:102D40000431D55CC26EDFF860C0D2F80431D2F82D
:102D50000011144F28BF00258B4282BF03F1FF33BF
:102D6000C2F80431D65CC36ED3F80021D3F8041145
:102D70004FF0FF001A4498BF00260B44044612F897
:102D8000011B414093421CF8010080EA04007C5C76
:102D9000F5D1AC4203D1831B58425841F0BD00200D
:102DA000FCE700BF408900084088000838B5836F01
:102DB0001D68C36ED3F800219A5C2B799A420446B1
:102DC00011D0AB690921EA1811750133032293FB75
:102DD000F2F202EB42029B1AAB61D4F89830013355
:102DE000C4F8983038BDFFF79DFF18B9AB691021C2
:102DF000EA18E9E7E26ED2F80031D2F804119942FC
:102E000084BF0133C2F80031E36ED3F80021D3F858
:102E10000411914283BF511CC3F800119B5C002335
:102E20001B0611D5E36ED3F80021D3F804119142AB
:102E300082BF511CC3F800119A5CAB6905EB03011A
:102E400098BF00220A75C0E72B7A032BCAD1E26E25
:102E5000D2F80031D2F80411994284BF0133C2F88C
:102E60000031E36EE868D3F80021D3F80411541C54
:102E7000A14217D9914284BFC3F800419C5CD3F8AA
:102E8000002198BF0024914283BF511CC3F8001158
:102E90009A5C00224FF0000362F3070364F30F23F0
:102EA00003809FE70023FBE70B1A1B11002B14DDA7
:102EB0000268127C4AB34268127C0AB90430704737
:102EC0008268127C0AB908307047C268127C0AB95D
:102ED0000C3070471030013BE8E70B1A9B10022BB7
:102EE0000DD0032B07D0012B0ED103681B7C002BC8
:102EF00018BF0846704703681B7C33B10430036871
:102F00001B7C13B10430F0E708467047437B012B6C
:102F1000F7B5044606D0C0F0C280022B00F0F7805F
:102F200003B0F0BD00F16C054FF00003806F1A464E
:102F30002946FFF7B9FF8542A06703D104F11003CA
:102F4000A367EDE7E36E05680026C3F80061C3F8E8
:102F500004612979E06EFFF7D7FD297AE06EFFF76B
:102F6000D3FD3146E06EFFF7CFFDA979E06EFFF7A4
:102F7000CBFD2B7A032B01D0102B67D10021E06E03
:102F8000FFF7C2FD0121E06EFFF7BEFD2B7A102B8B
:102F900010D10221E06EFFF7B7FD2B7A102B09D17B
:102FA000EB68E06E1988090AFFF7AEFDEB68197847
:102FB000FFF7AAFD2B7A032B01D0052B53D12B68E9
:102FC00029461B6801A898479DF80510E06EFFF799
:102FD0009BFD9DF80410FFF797FDD4F88830C4F8E6
:102FE0008030D4F89C30E56E00260133C4F89C3064
:102FF000C4F89060D5F81001FEF7B4FAD5F818318E
:10300000DA6866F30412DA60D5F820311A6866F3DC
:1030100000021A60D5F81C311A6866F300021A60C3
:10302000D5F80431D5F80011D5F81C215B1A02330C
:103030009BB25360D5F81C311A6842F001021A6045
:103040001A68D207FCD50023637369E7052BB1D159
:10305000EB68E06E1988002914BFFF210021FFF7FB
:1030600053FD314696E7102BB7D1E06EDFF8C4C0B0
:10307000D0F80031D0F804212D4FFF2103448618E9
:103080000D4613F8012B4A409E421CF8021081EABB
:103090000501BD5CF5D1FFF737FD29469BE7C16E01
:1030A000D0F88820D1F80431D1F800115B1AD0F89B
:1030B00090109942C16F38BFC0F880208A4216DC58
:1030C000836F18688369C2181225157501330322AE
:1030D00093FBF2F202EB42029B1A8361D4F8983020
:1030E000C4F88C100133C4F8983002236373D4F809
:1030F0008030C91AD4F884309942FFF611AF2046C7
:10310000FFF754FEE36FC4F88C3002239CE7C36FD3
:10311000D0F88C20093B93427FF702AF0023C367AE
:10312000FEF7F8FA836F0433836701238CE700BF4F
:1031300040890008408800082DE9F04F374BADF575
:10314000C55D81B058AD03F118072E463C4618689E
:103150005968324603C20833BB421646F7D1304B9A
:103160008293304B869300224FF480312E4B2F48B0
:10317000929194918DF85922839284928DF8142221
:103180008E92ADF83C2290929193939095938DF806
:1031900058228DF85A228DF85C228795FF2182AB48
:1031A00013440132182A1976F9D10DF5F879002166
:1031B000484604F0CAFC8698FEF7C8F9869B1A694F
:1031C0004FF0010868F309221A611A6982AE42F0D1
:1031D00080721A6100274FF6FF7BB246D6E90F31A5
:1031E00003EB410199420FD01A78172A09D80DF53F
:1031F000027C6244587810761A7809F8028002330B
:10320000F0E71A885A45FAD19593F16B99420FD19C
:103210008E970836CFB90127E0E700BF1884000871
:10322000B49A0008003C024000000A0800000808A8
:10323000326C01EB4202934200F0588351464846FB
:103240008E97FEF7E2F88245E3D18E9A82AB03EBCC
:10325000C201D1E90F30959903EB4003994206D1A1
:103260008FAB0121995400238E93919B959382AF4C
:1032700039464846FEF7C9F8B842064640F03B8357
:1032800088AF879A07F1180C3B4603CB6345106063
:1032900051601F4602F10802F6D100238DF85A3220
:1032A0009DF83C328BB98E9B7BB1919A929B4FF6E5
:1032B000FF7002EB43018A42134640F022830B4623
:1032C0005B1A18BF01238DF83C329DF83D32ABB933
:1032D0008E9B012B12D0939B949A4FF6FF7003EBB9
:1032E00042029A42194604D00F88874203F1020332
:1032F000F7D0521A18BF01228DF83D2288AB0DF28B
:103300003E2703F11C003946FEF7A9F8874218BF93
:103310000323869A18BF8DF85932136943F000438E
:10332000136182AB9E4209D0DE4B2E461868596865
:10333000324603C20833A3421646F7D182A8FEF7ED
:103340000BFAD94B1A6812F0010FD84A06D1DFF8F0
:10335000B8E30521C2E900E101211960D44B196BE2
:1033600041F00101196312681168012060F38B219B
:103370001160D1686FF38B21D160CE490A6812F0D9
:10338000010F08BFDFF880C3CB4A02BF08600424E6
:10339000C2E900C4196B41F0010119631368C74900
:1033A0001A68012666F309221A60DA680DF5986B2F
:1033B000ABF11C046FF30922DA604BF81C1C0DF50D
:1033C0009C6100224FF0050CE162BD490BF8062C10
:1033D000E28084F808C022742BF8082CA261A28332
:1033E00084F828C02671C4F80CB084F82460E68400
:1033F00084F8302021620DF5A061E164B1492164B7
:103400000DF5A8670DF5A461E166C4F88C70AE49AE
:10341000AE4F216610200421C4F880700DF5AC6712
:103420008BF81A208BF83A208BF85A208BF87A20E8
:10343000ABF81820A263A287A4F8462084F84800BD
:10344000ABF83820A265A4F85C2084F86800ABF8DB
:103450005820A267A4F87C2084F88800ABF8782074
:10346000C4F89820A4F89C2084F8446084F8646030
:10347000A4F8666084F88460A4F8861084F8A460D8
:10348000C4F8AC70924FC4F8A0700DF5B067C4F8E2
:10349000CC70904FC4F8C0700DF5B467C4F8EC70F0
:1034A0008D4FC4F8E0700827A4F806710DF5B867D1
:1034B0004FF006094FF00708C4F80C71874F8BF8DE
:1034C0009A208BF8BA208BF8DA20A4F8A6C084F8EA
:1034D000A800ABF89820C4F8B820A4F8BC2084F861
:1034E000C800ABF8B820C4F8D820A4F8DC2084F8D1
:1034F000E800ABF8D820C4F8F820A4F8FC2084F841
:103500000801ABF8F8208BF8FA2084F8C460A4F81E
:10351000C69084F8E460A4F8E68084F80461C4F8F6
:103520001821C4F800710927A4F826710DF5BC67AD
:10353000C4F82C716A4FC4F820710DF5C067C4F847
:103540004C710DF5C463674FC4F84071C4F86C3119
:103550000227654BA4F866714FF00A0E0327C4F8E2
:1035600060310DF5C8638BF81A218BF83A218BF87E
:103570005A21A4F81C2184F82801ABF81821C4F8BA
:103580003821A4F83C2184F84801ABF83821C4F86C
:103590005821A4F85C21ABF85821C4F87821A4F88C
:1035A0007C2184F8246184F84461A4F846E184F81D
:1035B000646184F8687184F88461A4F8867184F881
:1035C0008871C4F88C31494BC4F880310DF5CC6357
:1035D000C4F8AC31464BC4F8A0310DF5D063C4F843
:1035E000CC31444BC4F8C0310DF5D463C4F8EC3190
:1035F000414BC4F8E0310DF5D8638BF87A218BF894
:103600009A218BF8BA218BF8DA21ABF87821C4F82B
:103610009821A4F89C21ABF89821C4F8B821A4F80B
:10362000BC21A4F8C6C184F8D021ABF8B821C4F8F5
:10363000D821A4F8DC21ABF8D821C4F8F82184F80B
:10364000A461A4F8A61184F8A87184F8C46184F870
:10365000C87184F8E461A4F8E69184F8E871A4F8EC
:10366000FC21C4F80C32254BC4F800320DF5DC63A4
:10367000C4F82C32224BC4F820320DF5E0634FF031
:103680000B0CC4F84C321F4BA4F846C2C4F84032AD
:103690004FF00E0C0DF5E4638BF8FA218BF81A222B
:1036A00034E000BF18840008AC020020B002002003
:1036B00000380240A0020020A40200200C8500086F
:1036C0001885000824850008308500083C8500081E
:1036D0004885000854850008608500086C8500084E
:1036E00078850008D89A000884850008908500082D
:1036F0009C850008A8850008B4850008C0850008DE
:10370000CC850008D8850008000002408BF83A22DA
:1037100084F81022ABF8F821C4F81822A4F81C226F
:1037200084F83022ABF81822C4F83822A4F83C22DE
:10373000ABF83822C4F85822A4F85C22A4F866C278
:1037400084F80462A4F8068284F8087284F824627B
:10375000A4F826E284F8287284F8446284F8487257
:1037600084F8646284F86872C4F86C32A4F8A60223
:103770000DF5EC60C4F8AC027148724BC4F8A002BD
:103780001120C4F86032A4F8C6020DF5E8630DF507
:10379000F060C4F88C32C4F8CC024FF00F0C6A48C9
:1037A0006A4B8BF85A228BF87A228BF89A228BF884
:1037B000BA2284F87022ABF85822C4F87822A4F810
:1037C0007C22ABF87822C4F89822A4F89C22ABF8AB
:1037D0009822C4F8B822A4F8BC2284F8D022ABF80E
:1037E000B822C4F8D82284F88462A4F886C284F887
:1037F0008872C4F8803284F8A46284F8A87284F8CD
:10380000C46284F8C872C4F8C0025148A4F8DC222B
:10381000026884F85060324084F8706084F89060E8
:1038200084F8B06084F8D06084F8F06084F81061A7
:1038300084F8306184F8506184F8706184F8906194
:1038400084F8B06184F8F06184F8506284F8906282
:1038500084F8B0626D880B9040F0BC81CDE90C1209
:10386000FEF722FBC5F340038046099339480D9AC1
:103870004673C5F3C1030A93374B0360374B02739A
:1038800005EA0609C5F3800A354EC0F86C8000F1E0
:10389000100EC5F34215C0E9012203674667C0E96F
:1038A0001EE29C460C999DB3012D05D0022D31D00E
:1038B000BD4214BF012702270022C0F8847064278C
:1038C000C0F89820C0E9227280F89420C0F89C20AB
:1038D000C0F8A420234AC0F8A020DCF80020C0F8DB
:1038E000A800D2B9204ACCF800201BE082AB3B44B0
:1038F00083F834808DE48E9B8FAA0121D154052357
:10390000CCE41F88874202F102023FF4D4ACD7E432
:103910000F46D1E72F46CFE70A4651680029FBD171
:10392000114951600022C0F8B020104AC0F8AC2004
:103930003268C0F8B400F2B90D4A326020E000BF2E
:10394000FC850008E4850008E49A0008F08500087A
:10395000B8020020BC0200202086000814040020C9
:10396000A4030020088600085C03002014860008D9
:10397000680300200A4651680029FBD1CB495160F9
:103980000DF2847216AE0021CDE91602CDF884172F
:1039900030462146FCF7CCFC96E8030018AF87E8D8
:1039A000030038460BF10401FCF7C2FC97E8030062
:1039B0001AAA82E8030010460BF124010C92FCF7CE
:1039C000B7FC0C9A92E8030020AEA6F1100787E836
:1039D000030038460BF14401FCF7AAFC97E803000A
:1039E000A6F1080282E8030010460BF164010C9274
:1039F000FCF79EFC0C9A92E8030086E80300304630
:103A00000BF18401FCF794FC96E8030022AA82E8FB
:103A1000030010460BF1A4010C92FCF789FC0C9AF0
:103A200092E8030028AFA7F1100686E803003046AD
:103A30000BF1C401FCF77CFC96E80300A7F1080237
:103A400082E8030010460BF1E4010C92FCF770FCD5
:103A50000C9A92E8030087E8030038460BF5827160
:103A6000FCF766FC97E803002AAA82E803001046E8
:103A70000BF592710C92FCF75BFC0C9A92E8030038
:103A800030AEA6F1100787E8030038460BF5A271A7
:103A9000FCF74EFC97E80300A6F1080282E8030059
:103AA00010460BF5B2710C92FCF742FC0C9A92E8AE
:103AB000030086E8030030460BF5C271FCF738FCC2
:103AC00096E8030032AA82E8030010460BF5D27193
:103AD0000C92FCF72DFC0C9A92E8030038AFA7F18A
:103AE000100686E8030030460BF5E271FCF720FC77
:103AF00096E80300A7F1080282E8030010460BF5E0
:103B0000F2710C92FCF714FC0C9A92E8030087E81F
:103B1000030038460BF50171FCF70AFC97E8030037
:103B20003AAA82E8030010460BF509710C92FCF7E3
:103B3000FFFB0C9A92E8030040AEA6F1100787E85D
:103B400003000BF511713846FCF7F2FB97E8030010
:103B5000A6F1080282E8030010460BF519710C92D9
:103B6000FCF7E6FB0C9A92E8030086E803000BF5ED
:103B700021713046FCF7DCFB96E8030042AA82E89C
:103B8000030010460BF52971FCF7D2FBD8F824216D
:103B9000D8F818012946FDF7EFFD099AC36862F3CA
:103BA0004923C360C3686AF30C33C36003690A9A8C
:103BB00062F30D330361C368B9F1000F01F0A6840D
:103BC00043F48063C360C36843F40053C3600B9A3B
:103BD00001231360364A989220329992354A002385
:103BE0009A939B938DF870328DF871329F93A393C3
:103BF000A793AB93AF93136813F0010F2E4B05D12E
:103C00002E480D21C3E90001012111602C4D2A6BC2
:103C100042F002022A631A6811686FF39B61116017
:103C2000D1686FF39B610126D16099A80021B396FA
:103C3000B2918DF8D0128DF8D112B193FDF78CFDB1
:103C4000204B214AB593B5AF20337B60136839749C
:103C500013F0010F08BFDFF878B01C4B7974C7E987
:103C60000211F961F962F963F964F96502BF09218A
:103C7000C3E900B116602A6B42F004022A631A6895
:103C800011686FF393411160D1686FF39341D16074
:103C900001250021B6A8C7E91A1587F8701087F822
:103CA00071107B66FDF758FD14E000BF680300202B
:103CB0002C8600084001002044010020000402403E
:103CC00000380240588600083401002038010020E6
:103CD00000080240B44BB54AD293D2AE2033736091
:103CE0001368317413F0010F08BFDFF814A3B04B51
:103CF0007174C6E90211F161F162F163F164F16579
:103D000002BF0F21C3E900A11560AA4D2A6B42F042
:103D100002022A631A6811686FF39F711160D168FB
:103D20006FF39F71D160D3A800214FF00109736632
:103D3000C6E91A1986F8701086F87110FDF70CFDA7
:103D40000DF284789C4B88F80C10C8E90111CDF86D
:103D500084370DF5F463C8E9041188F81810D81EEB
:103D60000DF2ED71FDF7E8FB944A136813F0010FB3
:103D70002946934D40F08280DFF888E2DFF888C260
:103D8000DEF800308F4813F0010F01BF0D23CEF88D
:103D90000090CCF80000CCF804300B6BDFF86CE23C
:103DA00043F004030B63DCF8003019684FF001099D
:103DB00069F39B611960D9686FF39B61D96082498F
:103DC0000B6813F0010F04BF0F23CEF80430794BBA
:103DD00004BFCEF80000C1F80090196B41F0040157
:103DE0001963DEF80010D1F800A04FF0010969F363
:103DF0009F7AC1F800A0D1F80CA06FF39F7AC1F8A8
:103E00000CA0DFF80CA2DAF8001011F0010F6F49D6
:103E100008BFCAF800909B4602BF0E2308604B60A3
:103E2000DBF8303043F00403CBF830300B68D3F8C4
:103E300000A04FF0010969F31D7AC3F800A0D3F880
:103E40000CA06FF31D7AC3F80CA00023C5E906107F
:103E50000DF29D712962C5E901335D49DFF8B4A116
:103E60006962C5E904CE5B492B73C5F800A06B738A
:103E7000A96285F830306B63C2F800905649574A02
:103E80000B6813F0010301BF4E48C2E90003012390
:103E90000B60484B196B41F00401196312681068FC
:103EA000012161F301001060D0686FF30100D06060
:103EB0004B48026812F0010F08BFDFF808C1494AF9
:103EC00004BF0160C2E900C1196B41F0040119632C
:103ED00013681A68012161F383021A60DA686FF3CC
:103EE0008302DA60404B1A6812F0010F08BFDFF856
:103EF000D4903E4A02BF19600220C2E900902D4BC7
:103F0000196B41F00401196312681168012060F314
:103F100005111160D1686FF30511D16034490A6849
:103F200012F0010F08BFDFF89CE0324A02BF0860C0
:103F30004FF0030CC2E900EC196B214841F0040179
:103F4000196313681A684FF0010969F387121A6040
:103F5000DA686FF38712DA60FDF7C4FE2B7B002B63
:103F60005BD1254B85F80C90DA686A6002B19560E8
:103F70009A68DD6002B99D6002225A611F4B1A687F
:103F80006FF300021A6045F6BF525A6000229A6031
:103F90001A6842F004021A601A6842F002021A60BB
:103FA0001A6842F0010237E08486000828010020E8
:103FB0002C01002000380240C09A0008B000002008
:103FC000B400002000080240F8000020F0000020AB
:103FD000988A000898920008A4000020A8000020F9
:103FE000980000209C0000208C0000209000002001
:103FF00080000020840000202C04002010E000E05D
:10400000000402400401002008010020FC00002000
:10401000EC000020CC9A00081A6098ABC8E91C3765
:1040200058ABC8E91F3412ABC8F8843013ABC8F8DA
:10403000883014ABC8F88C3015ABC8F890300DF54B
:104040000863C8F894300023C8F89830C84B4B93E5
:1040500048A9C84BC8F86C5044A8C8F87860CDF897
:1040600020814A93FEF798F9C34B539350A9C34B51
:10407000CDF840814CA870AD5293FEF78DF9C04B3E
:104080006193A5F1180BBF4BCDF878815EA954A8B8
:104090000DF5C87A6093FEF77FF9BB4B45F8188C95
:1040A00076AFCBF80C305946B84BCBF808305046B9
:1040B000FEF772F9B64BCDF8D8813946FB60284639
:1040C000B44BBB60EFAEFEF776F9B34BCDF83C34A2
:1040D0000DF50269B14BCDF830840DF5866130469F
:1040E000CDF83834FEF767F944A94846FEF754F98D
:1040F0004CA90DF50360FEF74FF954A90DF50460C6
:10410000FEF74AF951460DF50560FEF745F92946D7
:104110000DF50660FEF74FF931460DF50760FEF725
:104120004AF93046FDF7CBFA0DF58660FDF7C7FA80
:104130002846FDF7C4FA3846FDF7C1FA5046FDF7A8
:10414000BEFA5846FDF7BBFA54A8FDF7B8FA5EA8C8
:10415000FDF7B5FA4CA8FDF7B2FA50A8FDF7AFFA93
:1041600044A8FDF7ACFA48A8FDF7A9FA49460DF5B1
:104170008660FEF72FF98A4BCDF8BC833146F36099
:104180003846884BB360FEF74AF9D8F880300C9374
:10419000D8F884300993D8F88830834A0B930DF20D
:1041A0009473C8F8FC20C8F800310DF586610DF64F
:1041B00088000A93FEF70EF939460DF6E800FEF77F
:1041C0002EF90C9BC8F87431099BC8F878310B9B09
:1041D000C8F87C313846FDF772FA3046FDF76FFAC1
:1041E0000DF58660FDF700FE49460DF58660FEF789
:1041F000F1F86E4B579354A96D4BCDF8508150A8F0
:104200005693FEF70CF909235E936A4B5F936A4B52
:1042100063936A4B629309236493694BCDF8808161
:10422000CAE90138674BCAF81430674BCAF8103036
:104230000C2345F8183C654BCBE90138644BCBF8AF
:104240001430644BCBF810300C232B60624BC5E963
:104250000138624B6B61624B2B6106237693614B95
:10426000C7E90138604B7B61604B3B610E23EF93E4
:104270005F4BC6E901385F4B73615F4B33615F4B46
:10428000C8F880310DF586610A9BC8F884310DF6B7
:104290000C10FEF79FF850A90DF66C10FEF7BFF852
:1042A0005EA90DF67C10FEF7A0FB51460DF69410AA
:1042B000FEF79BFB59460DF6AC10FEF796FB294620
:1042C0000DF6C410FEF791FB39460DF6DC10FEF733
:1042D0008CFB31460DF6F410FEF787FB0023C8F87F
:1042E0008832C8F88C32F1AB18460993FDF7E7F92C
:1042F00078A8FDF7E4F905F1080318460B93FDF7DC
:10430000DEF9A5F1100318460D93FDF7D8F966A85C
:10431000FDF7D5F960A8FDF7D2F950A8FDF7CFF960
:1043200054A8FDF7CCF90DF58660FDF75DFD4FF063
:10433000000388F8903249464FF000030DF586607F
:10434000A8F89232A8F89432FEF744F82C4BCDF836
:1043500090815146CAF80C305EA82A4BCAF8083042
:10436000FEF75DF8082345F8183C274B0A994DE005
:104370007D2C000845030008B52C00085B030008ED
:10438000ED2C000871030008452C00088703000885
:10439000DD5700089D030008A5570008B303000877
:1043A000870E0008C9030008A09A0008930E0008B1
:1043B000DF030008E89A0008B10E0008F5030008C2
:1043C000F29A0008DF0E00080B040008FC9A0008AF
:1043D000FB0E000821040008099B0008070F0008D5
:1043E00037040008169B0008130F00084D0400084E
:1043F0001D9B00081F0F0008630400085884000874
:10440000450F0008790400082C9B0008CBE901380F
:10441000C64BCBF81430C64BCBF8103009232B60B9
:10442000C44BC5E90138C44B6B61C44B2B610F23EE
:104430007693C34BC7E90138C24B7B61C24B3B61EA
:104440000B23EF93C14BC6E90138C14B7361C14BDC
:1044500033610DF586625EABCDE90276CDE900B53C
:104460000DF61C20FEF7D0FA0998FDF728F978A878
:10447000FDF725F90B98FDF722F90D98FDF71FF9C7
:104480005EA8FDF71CF95046FDF719F90DF5866099
:10449000FDF7AAFCD8F87C3049465B7D88F8783374
:1044A0000DF58660FDF796FFAB495EA8FDF79DFB15
:1044B000AA495046FDF799FBA94BC5F80080EB606F
:1044C0002946A84BAB605846FDF7A9FFA64BCDF88F
:1044D000BC833146F3603846A44BB360FDF79FFFC1
:1044E0005E9B10935F9B0C93649B0E93DAF80430F1
:1044F0000F934FF48073A8F880339D4A0A9BC8F845
:104500007C23C8F884330DF586610DF60C30FDF779
:1045100061FF59460DF66C30FDF781FF39460DF607
:104520007C30FDF77CFF109BC8F808340C9BC8F862
:104530000C340E9BC8F810340F9BC8F814340DF6D9
:10454000FC23C8F8183498F8783388F81C343846B7
:10455000FDF7B5F83046FDF7B2F85846FDF7AFF86D
:104560002846FDF7ACF80DF586621046FDF73CFCD9
:10457000D8F884301B780DF58662C3F3C003494632
:10458000104688F82034FDF725FF7A4BC5F80080E7
:10459000EB602946784BAB605846FDF740FF0F2390
:1045A0007693764BC7E90138754B7B61754B3B6160
:1045B0000622754BEF9273600DF5F462734B7361D5
:1045C0000DF28478A2F10C09714BC6F808804946B7
:1045D00033610DF586625B46CDE900760DF6A830B5
:1045E000FEF73CFA0998FDF76AF878AA1046FDF73D
:1045F00066F85846FDF763F82846FDF760F80DF5B4
:1046000086621046FDF7F0FB0DF5866210460DF54B
:104610000261FDF7DFFE5F4BC5F80080EB602946C5
:104620005D4BAB605846FDF7FAFE544B0F22769275
:10463000C7E90138594B7B61594B3B610923EF9323
:10464000584BC6E90138584B7361584B33614946A2
:104650005B460DF58662CDE900760DF65840FEF713
:10466000FDF90998FDF72BF878AA1046FDF727F811
:104670005846FDF724F82846FDF721F80DF5866227
:104680001046FDF7B1FB0DF586620DF5026110468F
:10469000FDF7A0FE5EAA10464549FDF7A6FA2F4990
:1046A0005046FDF7A2FA434BC5F80080EB6029465F
:1046B000414BAB605846FDF7B2FE404BCDF8BC8392
:1046C0003146F36038463E4BB360FDF7A8FE5E9B73
:1046D0003C4AC8F884250F934FF000025F9B88F88E
:1046E00088250A934FF00102649B88F88925C8F851
:1046F0008C950C930DF58661DAF804300E930DF667
:104700001450FDF767FE59460DF67450FDF787FE0D
:1047100039460DF68450FDF782FE0F9BC8F810361F
:104720000A9BC8F814360C9B4EE000BF53120008D9
:104730008F040008359B00086D120008A5040008CE
:104740003F9B000887120008BB0400084F9B00082D
:10475000830F0008D10400085B9B0008289D000817
:10476000A10F0008E7040008A1120008FD040008DA
:1047700080840008AD0F000813050008689B00083E
:10478000CB0F000829050008789B000815120008C7
:104790003F050008E70F0008550500080510000850
:1047A0006B0500087F9B0008351200088105000892
:1047B000F29A000821100008970500083D10000833
:1047C000AD050008A8840008C8F818360E9BC8F884
:1047D0001C360DF6A433C8F8203698F8203488F833
:1047E00024363846FCF76BFF3046FCF768FF584626
:1047F000FCF765FF2846FCF762FF0DF58662104660
:10480000FDF7F2FA0DF586620DF502611046FDF72F
:10481000E1FD5EAA1046D149FDF7E7F9D0495046BF
:10482000FDF7E3F9CF4BC5F80080EB602946CE4B8E
:10483000AB605846FDF7F3FDCC4BCDF8BC83314659
:10484000F3603846CA4BB360FDF7E9FD5E9B0F93FA
:104850005F9B0E93649B0A93DAF804300C934FF439
:10486000C842C44BC8F82836A8F82C26C8F8309699
:104870000DF586610DF6B850FDF7ACFD59460DF605
:104880001860FDF7CCFD39460DF62860FDF7C7FD31
:104890000F9B0E9AC8F8B436C8F8B8260DF6142344
:1048A0000A9AC8F8BC26C8F8C4360C9A98F8903210
:1048B00088F8C836C8F8C0263846FCF700FF3046EE
:1048C000FCF7FDFE5846FCF7FAFE2846FCF7F7FE1B
:1048D0000DF586621046FDF787FA0DF586620DF537
:1048E00002611046FDF776FD5EAA1046A249FDF76B
:1048F0007CF9A2495046FDF778F9A14BC5F8008034
:10490000EB6029469F4BAB605846FDF788FD9E4BF8
:10491000CDF8BC833146F36038469C4BB360FDF75D
:104920007EFDCDE906B742F6E063ADF814304FF0F6
:1049300000020DF61823ADF81020039301A90A46D2
:104940000C919AE80300C2E900010DF586615F9BB6
:1049500000930A465E9B49460DF56560FEF79EF89A
:104960003846FCF7ACFE3046FCF7A9FE5846FCF78B
:10497000A6FE2846FCF7A3FE0DF586610846FDF766
:1049800033FA0DF502610DF58660FDF723FD8049D0
:104990005EA8FDF72AF97F495046FDF726F97E4BC0
:1049A000C5F80080EB6029467C4BAB605846FDF7AC
:1049B00036FD7B4BCDF8BC833146F3603846794BEE
:1049C000B360FDF72CFD4AF6C873ADF81430CDE99D
:1049D00006B744F25063ADF810300DF6162303937A
:1049E0009AE803000C9AC2E900010DF586615F9B0D
:1049F00000930A465E9B49460DF6F460FEF74EF8BA
:104A00003846FCF75CFE3046FCF759FE5846FCF78A
:104A100056FE2846FCF753FE0DF586610846FDF765
:104A2000E3F90021C8F814180DF586600DF5026150
:104A3000FDF7D0FC5C4B45F8188C5946CBF80C3090
:104A400050465A4BCBF80830FDF7E9FC584BC8F8F4
:104A50001C98C5E90138574B6B61574B2B610721F7
:104A6000564B29600C217691C7E90138544B7B6184
:104A7000544B3B61544B0E21EF91C6E90138534B27
:104A80007361534B3361534BC8F818380DF5866189
:104A90000DF6A470FDF79EFC0DF5805051460430D4
:104AA000FDF7BDFC0DF5805029461430FDF79DFF44
:104AB0000DF5815039460C30FDF797FF0DF582500A
:104AC00031460430FDF791FF0021C8F8D818C8F826
:104AD000DC180998FCF7F3FD78A90846FCF7EFFD10
:104AE0000B98FCF7ECFD5046FCF7E9FD5846FCF747
:104AF000E6FD0DF586610846FDF776F90DF50261D4
:104B00000DF58660FDF766FC334BCDF8BC8331466E
:104B1000F3603846314BB360FDF781FC30495846AD
:104B2000FDF763F82F492846FDF75FF855F8182C74
:104B3000D8F880301092DBF804200A922A492A68BB
:104B4000C8F8E0180DF58350C8F8E49803F51F7312
:104B50000E920DF586616A6848E000BF899B0008E7
:104B60009A9B000873100008C3050008EF120008A4
:104B7000D9050008BC8400089D9B0008AD9B000877
:104B80007F100008EF050008111300080506000853
:104B90003F9B0008B19B00088B1000081B06000813
:104BA0003313000831060008971000084706000874
:104BB000B59B0008C51000085D060008BD9B0008F5
:104BC0005513000873060008CA9B00086F130008FD
:104BD00089060008E4840008D11000089F06000838
:104BE000D99B0008E99B00084484000811930C300D
:104BF0000F92FDF7EFFB0DF5865039460C30FDF7AF
:104C00000EFC109AC8F858290A9AC8F85C290E9A1E
:104C1000119BC8F860290F9AC8F86429C8F8683948
:104C20003846FCF74CFD3046FCF749FD0DF5866132
:104C30000846FDF7D9F80DF502610DF58660FDF720
:104C4000C9FBCA495EA8FCF7D0FFC9495046FCF72A
:104C5000CCFFC84BC5F80080EB602946C64BAB6063
:104C60005846FDF7DCFBC54BCDF8BC833146F360FD
:104C70003846C34BB360FDF7D2FBCDE906B74FF022
:104C800064014FF000020DF69873ADF81020039305
:104C9000ADF814109AE803000C9AC2E900010DF572
:104CA000866C5F9B00930DF5875062465E9B49467C
:104CB0001030FDF7F3FE3846FCF701FD3046FCF7F7
:104CC000FEFC5846FCF7FBFC2846FCF7F8FC0DF50B
:104CD0008660FDF789F80DF5026211460DF58660D4
:104CE0000A92FDF777FBA7495EA8FCF77EFFA04973
:104CF0005046FCF77AFFA44BC5F80080EB602946CC
:104D0000A24BAB605846FDF78AFBA14BCDF8BC83A4
:104D10003146F36038469F4BB360FDF780FBCDE929
:104D200006B74FF064014FF000020DF69A73ADF82C
:104D300010200393ADF814109AE803000C9AC2E90E
:104D400000010DF5866C5F9B00930DF58C5062465B
:104D50005E9B49461430FDF7A1FE3846FCF7AFFCD8
:104D60003046FCF7ACFC5846FCF7A9FC2846FCF79B
:104D7000A6FC0DF58660FDF737F80A990DF58660FB
:104D8000FDF728FB844BC5F80080EB602946834B78
:104D9000AB605846FDF743FB814B7B604FF00A0C3C
:104DA000804BCDF8D8C17B617F4B3B617F4B4FF08F
:104DB000080CCDF8BCC3C6E901380DF5866C7C4BF8
:104DC000736162467B4B33610DF5F46C0CF69820F1
:104DD0005B464946CDE90076FDF740FE0998FCF7B1
:104DE0006EFC78A8FCF76BFC5846FCF768FC28467C
:104DF000FCF765FC0DF58660FCF7F6FF0A990DF5EA
:104E00008660FDF7E7FA6C4BC5F80080EB60294639
:104E10006A4BAB605846FDF702FB694B4FF0080C3C
:104E2000CDF8D8C1C7E90138664B7B61664B3B6161
:104E30004FF0070C654BCDF8BCC373600DF5866C65
:104E4000634B73616246634B33610DF5F46C0CF692
:104E500048305B464946CDE90076FDF7FFFD0998ED
:104E6000FCF72DFC78A8FCF72AFC5846FCF727FC39
:104E70002846FCF724FC0DF58660FCF7B5FF0A997F
:104E80000DF58660FDF7A6FA534BCDF8908151469B
:104E9000CAF80C305EA8514BCAF80830FDF7BFFACB
:104EA0004FF0080C4E4B45F818CCCBF814304D4B56
:104EB000CBF810304C4BC5F800C0C5E901384B4B5E
:104EC0006B614B4B2B614B4B4B4A4FF00B0CCDF8AE
:104ED000D8C1C7E90138494B7B61494B3B61494B1C
:104EE0004FF00A0CCDF8BCC3C6E90138464B7361DC
:104EF0000DF5BC7C454B336163460DF5866CCBE903
:104F0000012862460DF5F46C0CF6F8304946CDE9FF
:104F10000276CDE900B5FDF777FD0998FCF7CFFBE8
:104F200078A8FCF7CCFB0B98FCF7C9FB0D98FCF7B5
:104F3000C6FB5EA8FCF7C3FB5046FCF7C0FB0DF5B3
:104F40008660FCF751FFD8F87C300A999B7D88F881
:104F5000F43C0DF58660FDF73DFA27495EA8FCF7A5
:104F600044FE2B495046FCF740FE53E0EC9B000802
:104F7000E99B0008DD100008B50600088913000849
:104F8000CB060008FC9B0008E9100008E1060008B9
:104F9000AB130008F7060008F51000080D0700081D
:104FA0000B9C00082307000825070008169C000832
:104FB000471500082F0700080111000845070008E1
:104FC0001F9C00080D1100085B070008289C0008C2
:104FD0004915000871070008191100087B0700082F
:104FE0002511000891070008399C000831110008BC
:104FF000A7070008429C0008309C00083D110008EB
:10500000BD0700084E9C000849110008D30700089E
:10501000289D0008D24BC5F80080EB602946D14B93
:10502000AB605846FDF7FBF9CF4BCDF8BC8331465A
:10503000F3603846CD4BB360FDF7F1F95F9A099202
:105040004FF48070649AA8F8FC0C0E920DF58660FF
:10505000DAF804200F920146C54AC8F8F82C0DF57D
:10506000F460C8F8009D5E9B109300F6E840FDF7E1
:10507000B1F90DF5F460594600F64850FDF7CFF947
:105080000DF5F460394600F65850FDF7C8F9109B4D
:10509000099AC8F8843D0DF5F460C8F8882D00F62B
:1050A000D8430E9AC8F88C2DC8F8943D0F9A98F8FA
:1050B000F43CC8F8902D88F8983D3846FCF7FFFA84
:1050C0003046FCF7FCFA5846FCF7F9FA2846FCF79C
:1050D000F6FA0DF58660FCF787FED8F87C300A9961
:1050E0001B8AA8F89C3D0DF58660FDF773F9A14970
:1050F0005EA8FCF77AFDA0495046FCF776FD9F4B71
:10510000C5F80080EB6029469D4BAB605846FDF723
:1051100086F99C4BCDF8BC833146F36038469A4BF8
:10512000B360FDF77CF9CDE906B74FF47A63ADF8CB
:1051300014304FF000020DF5A953ADF81020039381
:105140009AE803000C9A82E803000DF5F4605F9B77
:1051500000930DF5866249465E9B00F68450FDF78C
:105160009DFC3846FCF7ABFA3046FCF7A8FA5846E7
:10517000FCF7A5FA2846FCF7A2FA0DF58660FCF7C5
:1051800033FED8F87C300A991B7D88F8443E0DF533
:105190008660FDF71FF97D495EA8FCF726FD7C4976
:1051A0005046FCF722FD7B4BC5F80080EB6029469A
:1051B000794BAB605846FDF732F9784BCDF8BC839C
:1051C0003146F3603846764BB360FDF728F95E9BB5
:1051D0005F9A0E930992734B649AC8F8483E0A92FC
:1051E0000DF58663DAF804200C92194646F2024265
:1051F0000DF5F463A8F84C2EC8F8509E03F63860FD
:10520000FDF7E8F80DF5F463594603F69860FDF7ED
:1052100006F90DF5F463394603F6A860FDF7FFF8CB
:105220000E9BC8F8D43E099BC8F8D83E0A9BC8F824
:10523000DC3E0C9BC8F8E03E0DF5F46303F62863F2
:10524000C8F8E43E0DF28478384698F8443E88F871
:10525000E83EFCF734FA3046FCF731FA5846FCF7E2
:105260002EFA2846FCF72BFA0DF58660FCF7BCFDFC
:10527000D8F87C305B8AA8F8EC3E0DF5026319463D
:105280000DF58660FDF7A6F847495EA8FCF7ADFC72
:1052900046495046FCF7A9FC454BEB602946454B77
:1052A000C5F800805846AB60FDF7B9F8424BCDF821
:1052B000BC833146F3603846404BB360FDF7AFF82E
:1052C0004FF4FA63ADF81430CDE906B70DF5B353DA
:1052D0004FF0640110330393ADF810109AE8030007
:1052E00001AB099383E803000DF294795F9B00936F
:1052F0000DF5B3500DF586625E9B49461430FDF7FF
:10530000CDFB3846FCF7DBF93046FCF7D8F95846B8
:10531000FCF7D5F92846FCF7D2F90DF58660FCF7C5
:1053200063FD0023C8F8943F0DF502610DF586601A
:10533000FDF750F8224BCDF890815146CAF80C3059
:105340005EA8204BCAF80830FDF769F8052345F838
:10535000183C1D4BCBE901381C4BCBF8143037E01F
:1053600055110008E907000861110008FF0700084F
:10537000F8840008599C0008B19B00087B110008C4
:1053800015080008871100082B0800086A9C00080F
:10539000279D00089B11000841080008A71100087C
:1053A00057080008BC8400087B9C00088B9C000800
:1053B000BB1100086D080008C71100088308000829
:1053C000DB110008990800088F9C0008CD13000825
:1053D000C24BCBF8103008232B60C14BC5E9013814
:1053E000C04B6B61C04B2B6110237693BF4BC7E959
:1053F0000138BF4B7B61BF4B3B610F23EF93BE4B2B
:10540000C6E90138BD4B73610DF5B850BC4B336133
:105410000DF586625EAB4946CDE90276CDE900B571
:105420001C30FDF7F1FAF1A8FCF749F978A8FCF770
:1054300046F90B98FCF743F90D98FCF740F95EA884
:10544000FCF73DF95046FCF73AF90DF58660FCF79C
:10545000CBFC0DF502610DF58660FCF7BBFFA94999
:105460005EA8FCF7C2FBA8495046FCF7BEFBA74B61
:10547000EB602946A64BC5F800805846AB60FCF7A8
:10548000CEFFA44BCDF8BC833146F3603846A24B27
:10549000B360FCF7C4FFFF23ADF814304FF00103F5
:1054A000ADF81030CDE906B70DF5B85318330393B6
:1054B0009AE80300099B83E8030008F583505F9B8B
:1054C00000930DF586625E9B49461830FDF7E6FABB
:1054D0003846FCF7F4F83046FCF7F1F85846FCF78C
:1054E000EEF82846FCF7EBF80DF58660FCF77CFC3F
:1054F0004046FCF731F9D8F8940003681B689847D8
:10550000D8F86C3093F8303023B9FEE769F38A237A
:10551000FEF758BB814A0023C6E902333374EF9289
:10552000203272607E4A7374F361F362F363F36452
:10553000F365136813F0010F7A4B05D17A4D0C21F6
:10554000C3E9005101211160DFF80C82D8F8302046
:1055500042F00102C8F830201A6811686FF319612F
:105560001160D1686FF319610025D1604FF0010916
:10557000F0A8C6E91A59736686F8705086F871501B
:10558000FCF7EAF8694BCDF83C340DF58661684BC1
:10559000CDF83834F4A8CDF83044FDF7E0FA0DF535
:1055A0008660FCF78CF8634B634ACDF830342033C7
:1055B000CDF834341368CDF8385413F0010F08BF18
:1055C0005E485F4B02BFC2F800900721C3E90001AB
:1055D000CDF83C548DF840548DF84154CDF84C54DE
:1055E000CDF85C54CDF86C54CDF87C54CDF88C5487
:1055F000D8F83020DFF86491524E42F00202C8F829
:1056000030201A6811686FF38F311160D1686FF321
:105610008F31D1600025CDF894340DF23440012350
:10562000CDF89854CDF89C348DF8A0548DF8A15441
:10563000FCF792F8444B76943946FB600DF24440F7
:10564000424BBB60FDF78BFA3846FCF738F8404B0D
:105650003D73C7E90155384676934FF4FA733D61BF
:105660007D613B61FCF778F83A4DB4F8DC32BDF867
:105670004C20ADF84830DBB2A4F85C211A0701D504
:105680009B0705D49DF84830580769D5990767D41A
:105690000023484684F89030FDF738FC9DF84830E8
:1056A000DA0763D59B0712A85CD5FBF7D4FB00286B
:1056B0005CD13846FCF724F801462846FBF7E0FFAA
:1056C00012A8FBF7C8FB00285AD03846FCF718F898
:1056D00001463046FBF7D4FF30BFC6E7AF080008ED
:1056E000959C0008C5080008D50800089E9C000885
:1056F0004B150008EB080008AF9C000837150008A0
:1057000001090008BF9C0008289D00080912000834
:1057100017090008E91300082D090008B0860008E1
:105720001C0100202001002000000240E9020008C6
:10573000F5020008DC860008100100200004024089
:1057400014010020A40200200B0300081B03000822
:1057500038840008B002002000380240BC0200205B
:10576000012396E7FBF777FB804618B12846FBF745
:10577000FFFEA5E72846FBF7F5FE84F83C809FE78F
:105780003046FBF7F5FEA7E738B505460C46FDF7B2
:10579000C6F9AB68A268AA60A360E268EB68EA6039
:1057A000E36038BD30B5044689B008460023694639
:1057B0000293FFF7E9FF23685C6F2368694604A83A
:1057C0001D69FDF703F904A92046A84704A8FBF7C3
:1057D00076FF6846FBF773FF09B030BD30B504466D
:1057E00089B00846002369460293FFF7CDFF23687E
:1057F0001C6F2368694604A81D69FDF7E7F804A932
:105800002046A84704A8FBF75AFF6846FBF757FF56
:1058100009B030BD1FB504466846FDF7D7F82146EC
:105820006846FFF7B1FF6846FBF749FF204604B022
:1058300010BD08B55430FFF7EDFF08BD08B5543072
:10584000FFF7E8FF08BD08B55430FFF7E3FF08BDD8
:1058500008B55430FFF7DEFF08BD08B55430FFF738
:10586000D9FF08BD1FB550B16846FCF7D8FD029BB3
:1058700013B16846FCF7E0FF6846FBF720FF05B070
:105880005DF804FB07B5826801910AB902F015F9C9
:10589000C36801A9984703B05DF804FB7FB50446CF
:1058A000406EFBF7E3FE08B9A36E8BB3606EFBF7A7
:1058B000DDFE054680BB637C63BB94F8706004F139
:1058C00024016846FCF7ABFD69463046FFF7CAFF86
:1058D0006846FBF7F4FE637C33B994F870501DB151
:1058E00094F8715085F0010504F134016846FCF725
:1058F00096FD69462846FFF7B5FF6846FBF7DFFED1
:1059000000230122C4E91A3284F8703084F871301F
:1059100004B070BD0646D2E7A36E0133092BA3661F
:1059200022D994F870208AB9657C012384F87030FC
:105930005D4004F114016846FCF771FD2846694694
:10594000FFF790FF6846FBF7BAFEE1E7B3F57A7F11
:105950000AD394F871203AB9657C012384F8713038
:105960005D4004F14401E6E7E26D002AD0D0B3F5D2
:105970007A7FCDD9B3F5FA6F0CD8C821B3FBF1F219
:1059800001FB1233002BC3D1012104F15400FFF7B6
:1059900079FFBDE740F6B832934201D86421EDE7C4
:1059A000B3F57A6F01D83221E8E71921B3FBF1F2A0
:1059B00001FB123241F288318B4202D8002AA7D172
:1059C000E2E7002AA4D1E16E04F15400FFF75AFF88
:1059D000A16E4FF47A72B1FBF2F302FB1313002BAA
:1059E00096D1E36E0133E36692E7A0F1040055E738
:1059F0007FB50446406EFBF739FE08B9A36E8BB342
:105A0000606EFBF733FE054680BB637C63BB94F896
:105A1000706004F124016846FCF701FD69463046D8
:105A2000FFF720FF6846FBF74AFE637C33B994F822
:105A300070501DB194F8715085F0010504F13401E6
:105A40006846FCF7ECFC69462846FFF70BFF684602
:105A5000FBF735FE00230122C4E91A3284F87030C6
:105A600084F8713004B070BD0646D2E7A36E0133EE
:105A7000092BA36622D994F870208AB9657C01238A
:105A800084F870305D4004F114016846FCF7C7FCEF
:105A900028466946FFF7E6FE6846FBF710FEE1E799
:105AA000B3F57A7F0AD394F871203AB9657C012363
:105AB00084F871305D4004F14401E6E7E26D002AAC
:105AC000D0D0B3F57A7FCDD9B3F5FA6F0CD8C82111
:105AD000B3FBF1F201FB1233002BC3D1012104F11E
