:020000040800F2
:1000000000000220D1780008217900082179000839
:1000100021790008217900082179000800000000FA
:10002000000000000000000000000000217900082E
:100030002179000800000000217900087D160008E1
:100040006518000867180008691800086B18000890
:100050006D1800086F180008711800087318000860
:100060007518000877180008791800082919000881
:1000700045190008611900087D1900089919000840
:10008000B5190008D11900087B1800087D18000870
:100090007F180008811800088318000885180008D8
:1000A000B9180008BB180008BD180008BF180008E0
:1000B000C1180008C3180008C518000887180008F0
:1000C000891800088B1800088D180008E91A000824
:1000D000F51A0008D5180008F11800080D190008D5
:1000E0008F1800089118000893180008CD18000810
:1000F000CF180008D1180008D3180008ED1900081F
:100100009518000897180008C7180008011B000878
:10011000991800089B180008C9180008CB18000897
:10012000091A0008251A0008411A00085D1A00087B
:10013000791A000800000000000000009D18000867
:100140009F180008A1180008A3180008A5180008A7
:10015000951A0008B11A0008CD1A0008A71800085F
:10016000A9180008AB180008AD180008AF1800085F
:10017000B1180008B31800080000000000000000DB
:08018000B5180008B7180008CB
:1001900010B5054C237833B9044B13B10448AFF3C1
:1001A00000800123237010BD6400002000000000C7
:1001B0006882000808B5034B1BB103490348AFF33D
:1001C000008008BD00000000680000206882000870
:1001D000034613F8012B002AFBD1181A0138704787
:1001E00001F0FF01102A2BDB10F0070F08D010F8E8
:1001F000013B013A8B422DD010F0070F42B3F6D1EC
:10020000F0B441EA012141EA014122F007047FF004
:1002100000070023F0E80256083C85EA010586EA5B
:10022000010685FA47F5A3FA87F586FA47F6A5FA97
:1002300087F68EB9EED1F0BC01F0FF0102F00702A3
:1002400032B110F8013B013A83EA010313B1F8D14E
:100250000020704701387047002D06BF354603382F
:10026000073815F0010F07D1013015F4807F02BF68
:10027000013015F4C03F0130F0BC0138704700BFB9
:100280004209012300F01F0003FA00F0014B43F87C
:100290002200704700E100E0436901334361704789
:1002A00070477047012A03D0022A03D0002070470C
:1002B0000160FBE70B680360F8E77047012A03D091
:1002C000022A03D0002070470160FBE70B6803603F
:1002D000F8E7012A03D0022A03D00020704701600A
:1002E000FBE70B680360F8E770B50546D0F89400AB
:1002F00003680C469B689847C5F8944023682046DD
:100300001B68BDE8704018470268137F83F0010343
:1003100013777047012A03D0022A03D000207047C8
:100320000160FBE70B680360F8E7026892F83C3075
:1003300083F0010382F83C307047012A03D0022A7F
:1003400003D0002070470160FBE70B680360F8E70B
:10035000D0E9003010B5026803EB8203541C04603E
:10036000196110BD012A03D0022A03D00020704772
:100370000160FBE70B680360F8E7012A03D0022A5B
:1003800003D0002070470160FBE70B680360F8E7CB
:10039000012A03D0022A03D0002070470160FBE746
:1003A0000B680360F8E7012A03D0022A03D000207B
:1003B00070470160FBE70B680360F8E7012A03D090
:1003C000022A03D0002070470160FBE70B6803603E
:1003D000F8E7012A03D0022A03D000207047016009
:1003E000FBE70B680360F8E7006800F5CE71FFF7E4
:1003F0007BBF012A03D0022A03D00020704701608E
:10040000FBE70B680360F8E710B50446006800F1ED
:10041000FC01FFF769FF2368D3F88030012283F8DD
:10042000502110BD012A03D0022A03D000207047BA
:100430000160FBE70B680360F8E710B5044600684D
:1004400000F52D71FFF750FF2268D2F880100023CD
:1004500081F8B031D2F8801081F8F031D2F88020E4
:1004600082F8503210BD012A03D0022A03D00020A6
:1004700070470160FBE70B680360F8E70068D0F89D
:1004800084301B789B074CBF00F59E6100F58861A6
:10049000FFF72ABF012A03D0022A03D000207047A9
:1004A0000160FBE70B680360F8E7006800F5667120
:1004B000FFF71ABF012A03D0022A03D00020704799
:1004C0000160FBE70B680360F8E7006800F538613E
:1004D000FFF70ABF012A03D0022A03D00020704789
:1004E0000160FBE70B680360F8E7006800F52D6129
:1004F000FFF7FABE012A03D0022A03D0002070477A
:100500000160FBE70B680360F8E710B5044600687C
:1005100000F6B471FFF7E8FE2268D2F880100023DD
:1005200081F89031D2F8802082F8703110BD012A14
:1005300003D0022A03D0002070470160FBE70B685C
:100540000360F8E70068D0F88020012382F8D030FB
:10055000D0F8802082F8B031D0F8802082F8B03016
:10056000D0F8802082F8F031D0F8802082F8F03086
:10057000D0F8802000F5CE7182F85032FFF7B4BE7B
:10058000012A03D0022A03D0002070470160FBE754
:100590000B680360F8E70368D3F88020B2F8BC2149
:1005A00083F8AC22006800F24461FFF79DBE012A87
:1005B00003D0022A03D0002070470160FBE70B68DC
:1005C0000360F8E70368D3F88020B2F85C22A3F850
:1005D000B022006800F5DD61FFF786BE012A03D076
:1005E000022A03D0002070470160FBE70B6803601C
:1005F000F8E70368D3F88020B2F8FC21A3F8AE2214
:10060000006800F28C71FFF76FBE012A03D0022A46
:1006100003D0002070470160FBE70B680360F8E738
:100620000068D0F88020002382F89032D0F8802033
:1006300000F6340182F8B032FFF756BE012A03D02B
:10064000022A03D0002070470160FBE70B680360BB
:10065000F8E7006800F5CE71FFF746BE012A03D027
:10066000022A03D0002070470160FBE70B6803609B
:10067000F8E70068D0F8882090F8943311780033B8
:1006800018BF012363F382011170D0F8803000227B
:1006900083F85021D0F88830D0F880201B78C3F33D
:1006A000800383F0010382F89030D0F88030B3F8F3
:1006B0001C22A3F89C2000F5CE71FFF715BE012A7D
:1006C00003D0022A03D0002070470160FBE70B68CB
:1006D0000360F8E710B50446006800F5CE71FFF737
:1006E00003FE2368D3F88030012283F8502110BD27
:1006F000012A03D0022A03D0002070470160FBE7E3
:100700000B680360F8E70268D2F884301B78C3F303
:10071000C00382F83C34006800F5B461FFF7E4BD23
:10072000012A03D0022A03D0002070470160FBE7B2
:100730000B680360F8E70068D0F88030012283F886
:100740003C20D0F88030002283F8302000F1FC01FA
:10075000FFF7CABD012A03D0022A03D00020704748
:100760000160FBE70B680360F8E710B5044600681A
:1007700000F5CE71FFF7B8FD2368D3F88030012271
:1007800083F8502110BD012A03D0022A03D0002093
:1007900070470160FBE70B680360F8E70268D2F876
:1007A00084301B78C3F3C00382F83C34006800F542
:1007B000B461FFF799BD012A03D0022A03D00020BB
:1007C00070470160FBE70B680360F8E70068D0F84A
:1007D0008020002382F83C30D0F8802000F1FC011A
:1007E00082F83030FFF780BD012A03D0022A03D0FF
:1007F000002070470160FBE70B680360F8E70068C2
:10080000D0F884301B789B074CBF00F59E6100F543
:100810008861FFF769BD012A03D0022A03D00020B6
:1008200070470160FBE70B680360F8E70068D0F8E9
:10083000883090F83C141A7861F3C3021A70D0F82B
:100840008030002283F85021D0F884301B789B0739
:100850004CBF00F59E6100F58861FFF745BD012A98
:1008600003D0022A03D0002070470160FBE70B6829
:100870000360F8E7006800F52D71FFF735BD012A28
:1008800003D0022A03D0002070470160FBE70B6809
:100890000360F8E70068D0F8803090F8AC22A3F845
:1008A000DC20D0F88030002283F8D02000F52D71B4
:1008B000FFF71ABD012A03D0022A03D00020704797
:1008C0000160FBE70B680360F8E7006800F52D7135
:1008D000FFF70ABD012A03D0022A03D00020704787
:1008E0000160FBE70B680360F8E70068D0F8803030
:1008F000B0F8B022A3F8FC20D0F88030002283F8B2
:10090000F02000F52D71FFF7EFBC012A03D0022A79
:1009100003D0002070470160FBE70B680360F8E735
:10092000006800F52D71FFF7DFBC012A03D0022A11
:1009300003D0002070470160FBE70B680360F8E715
:100940000068D0F88030B0F8AE22A3F8BC20D0F810
:100950008030002283F8B02000F52D71FFF7C4BC71
:10096000012A03D0022A03D0002070470160FBE770
:100970000B680360F8E70068D0F88020012382F854
:100980001031D0F8802082F83031D0F8802082F801
:100990009032D0F8802000F5CE7182F8B032FFF7A7
:1009A000A3BC012A03D0022A03D0002070470160B3
:1009B000FBE70B680360F8E7006800F6FC01FFF74F
:1009C00093BC012A03D0022A03D0002070470160A3
:1009D000FBE70B680360F8E70368D3F88020B2F800
:1009E0009C22A3F83028006800F68811FFF77CBC31
:1009F000012A03D0022A03D0002070470160FBE7E0
:100A00000B680360F8E70368D3F88020B2F8BC22D3
:100A1000A3F83228006800F62C21FFF765BC012AF4
:100A200003D0022A03D0002070470160FBE70B6867
:100A30000360F8E7006800F63401FFF755BC012AAF
:100A400003D0022A03D0002070470160FBE70B6847
:100A50000360F8E7006800F63401FFF745BC012A9F
:100A600003D0022A03D0002070470160FBE70B6827
:100A70000360F8E70068D0F88030B0F83028A3F8B9
:100A80001C21D0F88030002283F8102100F63401B8
:100A9000FFF72ABC012A03D0022A03D000207047A6
:100AA0000160FBE70B680360F8E7006800F63401BB
:100AB000FFF71ABC012A03D0022A03D00020704796
:100AC0000160FBE70B680360F8E70068D0F880304E
:100AD000B0F83228A3F83C21D0F88030002283F807
:100AE000302100F63401FFF7FFBB012A03D0022AB0
:100AF00003D0002070470160FBE70B680360F8E754
:100B0000006800F5CE71FFF7EFBB012A03D0022A7F
:100B100003D0002070470160FBE70B680360F8E733
:100B20007047012A08BF016000207047012A03D0E6
:100B3000022A03D0002070470160FBE70B680360C6
:100B4000F8E7006800F5CE71FFF7CEBB012A03D0AD
:100B5000022A03D0002070470160FBE70B680360A6
:100B6000F8E7006800F54361FFF7BEBB012A03D038
:100B7000022A03D0002070470160FBE70B68036086
:100B8000F8E7012A08BF016000207047006800F5FF
:100B90003861FFF7A9BB012A03D0022A03D0002045
:100BA00070470160FBE70B680360F8E7006800F638
:100BB0001451FFF799BB012A03D0022A03D0002069
:100BC00070470160FBE70B680360F8E7006800F618
:100BD000BC51FFF789BB012A03D0022A03D00020B1
:100BE00070470160FBE70B680360F8E7006800F6F8
:100BF0006461FFF779BB012A03D0022A03D00020E9
:100C000070470160FBE70B680360F8E7006800F6D7
:100C10000C71FFF769BB012A03D0022A03D0002020
:100C200070470160FBE70B680360F8E7006800F5B8
:100C30004361FFF759BB012A03D0022A03D00020E9
:100C400070470160FBE70B680360F8E7006890F805
:100C5000103DC26F003318BF0123937500F5436147
:100C6000FFF742BB012A03D0022A03D000207047BD
:100C70000160FBE70B680360F8E7006800F543617B
:100C8000FFF732BB012A03D0022A03D000207047AD
:100C90000160FBE70B680360F8E70068C36FB0F81A
:100CA000B82D1A8200F54361FFF71EBB012A03D05D
:100CB000022A03D0002070470160FBE70B68036045
:100CC000F8E7006800F54361FFF70EBB012A03D087
:100CD000022A03D0002070470160FBE70B68036025
:100CE000F8E70068C36F90F8602E1A7500F543614D
:100CF000FFF7FABA012A03D0022A03D00020704776
:100D00000160FBE70B680360F8E7006800F54361EA
:100D1000FFF7EABA012A03D0022A03D00020704765
:100D20000160FBE70B680360F8E70068C36FB0F889
:100D3000082F5A8200F54361FFF7D6BA012A03D083
:100D4000022A03D0002070470160FBE70B680360B4
:100D5000F8E70068D0F88020012382F89031D0F8BD
:100D6000802082F87030D0F8802082F87031D0F87E
:100D7000802000F5CE7182F85030FFF7B5BA012A15
:100D800003D0022A03D0002070470160FBE70B6804
:100D90000360F8E70368D3F88020B2F89C21A3F839
:100DA000B02F006800F584511431FFF79DBA012A75
:100DB00003D0022A03D0002070470160FBE70B68D4
:100DC0000360F8E70268D2F88C301B785B09A2F860
:100DD000B23F7047012A03D0022A03D00020704797
:100DE0000160FBE70B680360F8E7012A03D0022AE1
:100DF00003D0002070470160FBE70B680360F8E751
:100E0000012A03D0022A03D0002070470160FBE7CB
:100E10000B680360F8E7006800F6B471FFF764BA86
:100E2000012A03D0022A03D0002070470160FBE7AB
:100E30000B680360F8E70068D0F88030B0F8B02F96
:100E4000A3F87C20D0F88030002283F8702000F6D0
:100E5000B471FFF749BA012A03D0022A03D0002057
:100E600070470160FBE70B680360F8E7C36F01336D
:100E7000C367704700220270427070470022027000
:100E80004270704700220270427070470022027068
:100E90004270704700220270427070470022027058
:100EA0004270704700220270427070470022027048
:100EB000427070470022027042707047704770475E
:100EC0007047704770477047704770477047012AF6
:100ED00003D0022A03D0002070470160FBE70B68B3
:100EE0000360F8E703689A6FB2F89C300A33A2F8FF
:100EF0009C307047012A03D0022A03D0002070479B
:100F00000160FBE70B680360F8E703689A6FB2F8CB
:100F10009C300A3BA2F89C307047012A03D0022A79
:100F200003D0002070470160FBE70B680360F8E71F
:100F3000012A03D0022A03D0002070470160FBE79A
:100F40000B680360F8E7012A03D0022A03D00020CF
:100F500070470160FBE70B680360F8E7012A03D0E4
:100F6000022A03D0002070470160FBE70B68036092
:100F7000F8E7012A03D0022A03D00020704701605D
:100F8000FBE70B680360F8E7012A03D0022A03D0CD
:100F9000002070470160FBE70B680360F8E7012A57
:100FA00003D0022A03D0002070470160FBE70B68E2
:100FB0000360F8E7012A03D0022A03D0002070471B
:100FC0000160FBE70B680360F8E7012A03D0022AFF
:100FD00003D0002070470160FBE70B680360F8E76F
:100FE000012A03D0022A03D0002070470160FBE7EA
:100FF0000B680360F8E7012A03D0022A03D000201F
:1010000070470160FBE70B680360F8E7012A03D033
:10101000022A03D0002070470160FBE70B680360E1
:10102000F8E7012A03D0022A03D0002070470160AC
:10103000FBE70B680360F8E7012A03D0022A03D01C
:10104000002070470160FBE70B680360F8E7012AA6
:1010500003D0022A03D0002070470160FBE70B6831
:101060000360F8E7012A03D0022A03D0002070476A
:101070000160FBE70B680360F8E7012A03D0022A4E
:1010800003D0002070470160FBE70B680360F8E7BE
:10109000012A03D0022A03D0002070470160FBE739
:1010A0000B680360F8E7012A03D0022A03D000206E
:1010B00070470160FBE70B680360F8E7012A03D083
:1010C000022A03D0002070470160FBE70B68036031
:1010D000F8E7012A03D0022A03D0002070470160FC
:1010E000FBE70B680360F8E7012A03D0022A03D06C
:1010F000002070470160FBE70B680360F8E7012AF6
:1011000003D0022A03D0002070470160FBE70B6880
:101110000360F8E7012A03D0022A03D000207047B9
:101120000160FBE70B680360F8E7012A03D0022A9D
:1011300003D0002070470160FBE70B680360F8E70D
:10114000012A03D0022A03D0002070470160FBE788
:101150000B680360F8E7012A03D0022A03D00020BD
:1011600070470160FBE70B680360F8E7012A03D0D2
:10117000022A03D0002070470160FBE70B68036080
:10118000F8E7012A03D0022A03D00020704701604B
:10119000FBE70B680360F8E7012A03D0022A03D0BB
:1011A000002070470160FBE70B680360F8E7012A45
:1011B00003D0022A03D0002070470160FBE70B68D0
:1011C0000360F8E7012A03D0022A03D00020704709
:1011D0000160FBE70B680360F8E7012A03D0022AED
:1011E00003D0002070470160FBE70B680360F8E75D
:1011F000012A03D0022A03D0002070470160FBE7D8
:101200000B680360F8E7012A03D0022A03D000200C
:1012100070470160FBE70B680360F8E7012A03D021
:10122000022A03D0002070470160FBE70B680360CF
:10123000F8E7012A03D0022A03D00020704701609A
:10124000FBE70B680360F8E7012A03D0022A03D00A
:10125000002070470160FBE70B680360F8E7012A94
:1012600003D0022A03D0002070470160FBE70B681F
:101270000360F8E7012A03D0022A03D00020704758
:101280000160FBE70B680360F8E7012A03D0022A3C
:1012900003D0002070470160FBE70B680360F8E7AC
:1012A000012A03D0022A03D0002070470160FBE727
:1012B0000B680360F8E7012A03D0022A03D000205C
:1012C00070470160FBE70B680360F8E7012A03D071
:1012D000022A03D0002070470160FBE70B6803601F
:1012E000F8E7012A03D0022A03D0002070470160EA
:1012F000FBE70B680360F8E7012A03D0022A03D05A
:10130000002070470160FBE70B680360F8E7012AE3
:1013100003D0022A03D0002070470160FBE70B686E
:101320000360F8E7012A03D0022A03D000207047A7
:101330000160FBE70B680360F8E78368D96ED1F8BA
:1013400018211268D2061AD5D1F82021526800203F
:1013500092B2C1F80001C2F1FF00FF2828BFFF20B0
:10136000FF2AC1F804010AD0DA6FD96EC3F88020D1
:10137000D1F80421D1F80011521AC3F89020704717
:101380000378C3F3001020B9C3F3401008B9C3F3C6
:10139000801070470B1A9B10002B10DD027812B3DF
:1013A00042780AB90130704782780AB90230704732
:1013B000C2780AB9033070470430013BECE70B1ADE
:1013C000022B0BD0032B06D0012B0BD10378002B63
:1013D00018BF0846704703782BB10130037813B16A
:1013E0000130F3E7084670470B1A9B10002B10DD05
:1013F000027812BB42780AB10130704782780AB194
:1014000002307047C2780AB1033070470430013BA4
:10141000ECE70B1A022B0BD0032B06D0012B0BD1C0
:101420000378002B08BF0846704703782BB90130BA
:10143000037813B90130F3E70846704710B5044646
:101440002CB1236820461B6898476468F8E710BDF4
:10145000A8235943037A43B10F4B9B680360994219
:1014600024BFCB1A43600023037203680A4A9942DF
:1014700007D892689B1A99420CD801230372002066
:10148000704791688B4205D8536892689B1A4268EE
:101490009342F2D20120704710E000E0D0F898208B
:1014A0003221531CC0F89830B2FBF1F301FB132337
:1014B00023B9D0F8940003685B68184770477047F9
:1014C0000A1A02D0202106F074BA7047704770479C
:1014D000704770470369002BBFBF034B436003F1A4
:1014E00088334360704700BF23016745D0E900217E
:1014F00001238B4093617047D0E900120123103221
:1015000093408B617047036810B504469869FFF7F4
:10151000F3FFC8216068FFF79BFF0028F9D123681B
:101520009869FFF7E3FFC8216068FFF791FF002883
:10153000F9D110BD38B50368044618690D46FFF7A8
:10154000DBFF23686068DA699B6A53F83530936182
:10155000FFF7D9FF23686068996ADA6901EBC50172
:101560004B689361FFF7CFFF6421A068FFF770FF1E
:101570000028F9D138BD0000437B012B10B504468B
:1015800022D002D3022B2AD010BD4069FFF7B4FF4E
:101590002069FFF7ABFF626B206A531C5021636325
:1015A000B2FBF1F301FB1323114A52F82330C25C62
:1015B000636A03EBC20053F83210E2694368916139
:1015C000E36201236373DFE78069FFF78FFFA069A0
:1015D000FFF792FFE369E26A9A610223F2E780690A
:1015E000FFF784FFA069FFF787FF0023EAE700BF4A
:1015F00068850008036841681A6901238B4013421B
:1016000014BF01200020704770B50D460646FFF755
:10161000F1FF5DB1D6E900420123266903FA02F128
:101620000E421DBF10329340A361A1616840C0B259
:1016300070BD10B504682CB1236820461B6898471C
:10164000A468F8E710BD10B58368044613B10322FF
:1016500001469847204610BD10B504460830FFF7F4
:10166000E8FFD4E90421531C2361B2FBF1F301FB31
:10167000132313B92046FFF7DCFF10BD0148FFF725
:10168000EBBF00BF2C040020426903699A424FF06F
:10169000000326BF4361012018467047037BC3B196
:1016A00000230373D0E901236AB143B193608368D7
:1016B0005A600023C0E9013370470B60F8E7054921
:1016C00093604A60F5E70349002BF6D1C1E9003386
:1016D000EFE770472C04002000224261FFF7DEBFD5
:1016E000037B53B901230373044B5A68426002B170
:1016F00090601A68586002B9186070472C04002086
:101700000B2A10B501D0102A15D1204B9A68C2F3CC
:101710004232D2B1042A1AD0052A1AD01C4B1D4CD1
:10172000062A08BF234607291AD8DFE801F0141A51
:101730001D202326292C0C3A032A04D8134B9A681F
:10174000C2F38222E5E70023EDE7134BEBE7134BEF
:10175000E9E7134BE7E74FF41652B3FBF2F383606C
:1017600010BD4FF46152F8E74FF49642F5E74FF49D
:10177000E142F2E74FF41642EFE74FF46142ECE743
:101780004FF49632E9E74FF4E132E6E700380240E1
:10179000A037A000406F4001007A030A00BD010598
:1017A00080DE800219B90068C0F34010704701293B
:1017B00003D10068C0F3C0207047022903D100683C
:1017C000C0F340507047032903D10068C0F3C060E4
:1017D0007047042901D14068E6E7052901D1406836
:1017E000E8E7062901D14068EAE7072901D1406806
:1017F000ECE70020704770B58668F36E93F8281107
:10180000D3F81401FFF7CEFF58B3F46E0025C4F8E7
:101810000051C4F80451D4F81001FFF76DFED4F85C
:101820001C311A6865F300021A60D4F820311A6876
:1018300065F300021A60FF225A60D4F820311A685A
:1018400042F001021A601A68D207FCD5D4F81821B8
:10185000D36843F01003D3603046BDE87040FFF713
:101860003FBF70BDFEE7FEE7FEE7FEE7FEE7FEE7EF
:10187000FEE7FEE7FEE7FEE7FEE7FEE7FEE7FEE740
:10188000FEE7FEE7FEE7FEE7FEE7FEE7FEE7FEE730
:10189000FEE7FEE7FEE7FEE7FEE7FEE7FEE7FEE720
:1018A000FEE7FEE7FEE7FEE7FEE7FEE7FEE7FEE710
:1018B000FEE7FEE7FEE7FEE7FEE7FEE7FEE7FEE700
:1018C000FEE7FEE7FEE7FEE7FEE7FEE7FEE7FEE7F0
:1018D000FEE7FEE708B5044B1868FFF7AFFD034BC2
:1018E0001A685B6808BD00BF0C04002000100140AE
:1018F00008B5044B1868FFF7A1FD034B1A685B6835
:1019000008BD00BF140400200044004008B5044B8B
:101910001868FFF793FD034B1A685B6808BD00BFAA
:101920001C0400200048004008B5044B1868FFF76D
:1019300085FD034B3D229A6008BD00BF7403002063
:101940000060024008B5044B1868FFF777FD034BB1
:101950004FF474629A6008BD7C030020006002406E
:1019600008B5044B1868FFF769FD034B4FF4741278
:101970009A6008BD840300200060024008B5044B53
:101980001868FFF75BFD034B4FF074629A6008BD67
:101990008C0300200060024008B5044B1868FFF774
:1019A0004DFD034B4FF47462DA6008BD94030020D0
:1019B0000060024008B5044B1868FFF73FFD034B79
:1019C0004FF47462DA6008BD9C030020006002409E
:1019D00008B5044B1868FFF731FD034B4FF4741240
:1019E000DA6008BDA40300200060024008B5044B83
:1019F0001868FFF723FD034B4FF07462DA6008BDEF
:101A0000AC0300200060024008B5044B1868FFF7E3
:101A100015FD034B3D229A6008BD00BFB4030020B2
:101A20000064024008B5044B1868FFF707FD034B3C
:101A30004FF474629A6008BDBC0300200064024049
:101A400008B5044B1868FFF7F9FC034B4FF4741208
:101A50009A6008BDC40300200064024008B5044B2E
:101A60001868FFF7EBFC034B4FF074629A6008BDF7
:101A7000CC0300200064024008B5044B1868FFF74F
:101A8000DDFC034B3D22DA6008BD00BFD40300201B
:101A90000064024008B5044B1868FFF7CFFC034B05
:101AA0004FF47462DA6008BDDC0300200064024079
:101AB00008B5044B1868FFF7C1FC034B4FF47412D0
:101AC000DA6008BDE40300200064024008B5044B5E
:101AD0001868FFF7B3FC034B4FF07462DA6008BD7F
:101AE000EC03002000640240014B1868FFF7A6BC1D
:101AF000F4030020014B1868FFF7A0BCFC03002092
:101B0000014B1868FFF79ABC04040020026810B566
:101B1000541C02440460517204685021B4FBF1F279
:101B200001FB1242026010BD10B504681421B4FB21
:101B3000F1F201FB1242034612B92021FFF7E6FF42
:101B400014241968B1FBF4F204FB121222B1202113
:101B50001846FFF7DBFFF4E7184610BD08B503464B
:101B60001A6822B120211846FFF7D0FFF8E718467F
:101B700008BD38B505460C46084609B1FEF728FBF6
:101B8000C5E90004284638BD10B514240368B3FB2A
:101B9000F4F304FB03115024B1FBF4F304FB131121
:101BA000016010BD38B50468D4F8AC30F3B1013B26
:101BB000C4F8AC30D4F8A830606814256B430360D7
:101BC0000F21FFF7E1FF2021FFF7A0FFD4F8A83095
:101BD0006068013B5D43C4F8A8300F210560FFF742
:101BE000D3FF7E21BDE83840FFF790BF38BD38B540
:101BF0000468D4F8AC30012B1ED00133C4F8AC30EB
:101C0000D4F8A830606814256B4303600F21FFF7F8
:101C1000BBFF2021FFF77AFFD4F8A83060680133BA
:101C20005D43C4F8A8300F210560FFF7ADFF7E21AA
:101C3000BDE83840FFF76ABF38BD437A70B5054646
:101C400000F10C062BB100234372C1613046FFF74F
:101C500047FD3046FFF718FD012428B13046FFF755
:101C60003BFD6C72002070BD2046FCE770B58EB065
:101C700005AD0023CDE901500C93CDE90533CDE945
:101C800009330B93394E0D930123044608968DF8C2
:101C90001D308DF81C300090CDF80CD004956421D7
:101CA0002846FFF7CAFF0028F9D12069FFF724FC76
:101CB0006069FFF721FCA069FFF718FCA26AE369DD
:101CC000D2699A616846FFF71EFC05212846FFF796
:101CD000B4FF0028F9D1A26AE369D2699A61684623
:101CE000FFF711FC64212846FFF7B2FB0028F9D169
:101CF000A26AE369D2699A616846FFF704FC32215F
:101D00002846FFF7A5FB0028F9D1A26AE3695269CA
:101D10009A616846FFF7F7FB32212846FFF798FBE8
:101D20000028F9D1282102A8FFF704FC0C2102A801
:101D3000FFF700FC062102A8FFF7FCFB012102A827
:101D4000FFF7F8FB802102A8FFF7F4FB01212846EA
:101D5000FFF773FF0028F9D10EA8012384F8303073
:101D600040F8186DFFF79AFC0EB070BDA082000815
:101D700010B504465030FFF766FC04F14000FFF751
:101D800062FC04F13000FFF75EFC04F12000FFF775
:101D90005AFC04F11000FFF756FC2046FFF753FCF5
:101DA000204610BD204B1A68052161F302021A601B
:101DB000A3F580631A6842F480321A601A689203AD
:101DC000FCD59A686FF307129A609A68052161F34F
:101DD0008C229A609A68042161F34F329A609A6863
:101DE000022060F301029A605A6861F305025A60AA
:101DF0005A68A82161F38E125A605A68072161F36C
:101E00001B625A605A686FF311425A605A6842F472
:101E100080025A601A6842F080721A60034A13689E
:101E20009B01FCD5704700BF003C024000380240D7
:101E30007B487C49F8B5036813F0010F7CD17A4BDD
:101E40007A4C1A6812F0010F06D1DFF8F8E102228D
:101E5000C4E900E201221A60754B1A6B42F00102DC
:101E60001A6322681568022666F305151560156A5F
:101E7000072666F30B251562D5686FF30515D56047
:101E80006C4D2A6812F0010F6B4A06D1DFF8B4C11D
:101E90000326C2E900C601262E601D6B45F0010530
:101EA0001D6313681D68022666F387151D601D6A91
:101EB000072666F30F351D62DD686FF38715DD6059
:101EC0005E4D2B6813F0010F5D4B05D15D4F0F2662
:101ED000C3E9007601262E60554E356B45F00105AD
:101EE00035631D682F68012666F39F772F60EF68C2
:101EF0006FF39F77EF60C1F81031534BC1F8143185
:101F0000A3F50733C1F8183103F50733A033C1F83F
:101F10001C31183BC1F820310C230025C1F82431B5
:101F20000623C1F80051C1F80451C1F80841C1F8B5
:101F30000C2181F8283106603D4C236C43F40033BA
:101F40002364D1F81831DA6842F00802DA60DA68FE
:101F500042F00402DA605A6942F080025A615A691A
:101F600042F040025A61394B93F90400FEF788F9B8
:101F7000236B43F400132363D1F81C311A6801204A
:101F800060F387121A60D1F800210A44DA60D1F8B0
:101F9000182104329A601A6842F480621A601A6842
:101FA0006FF34E321A601A686FF3CC221A601A6807
:101FB00042F010021A60264B93F90400FEF760F914
:101FC000D1F820311A686FF387121A60D1F8002116
:101FD0000A44DA60D1F8182104329A60FF225A606C
:101FE0001A6842F480621A601A686FF34E321A60FF
:101FF0001A686FF3CC221A601A6842F480721A6071
:10200000D1F820311A68042060F35B621A60D1F8BD
:102010001C311A6860F35B621A600248F8BD00BFA9
:102020004C01002050010020940200209802002062
:1020300000380240880200208C0200207C02002030
:1020400080020020000002400060024014040020D2
:10205000A403002010B50C1A134605D001462246F1
:10206000184605F08DFC0346181910BD2DE9F347FD
:1020700002AB03E906000768037A00F10908064687
:10208000DDE9004508EB070263B3132C22D8C4F145
:10209000140902EB590910464946FFF711FA2919AC
:1020A0004A462846FFF7D6FF09EB040A07F1140158
:1020B00041445046FFF704FA336850211433B3FB10
:1020C000F1F201FB1233336000233046337202B069
:1020D000BDE8F087143C05EB540000F11401FFF754
:1020E000B9FFE9E7C7F15001A14205EB040907D99F
:1020F00049462846FFF7AEFF306804443460E3E702
:1021000029442846FFF7A6FF3368A4F150071F446F
:10211000E41B2C44502F2046424604F1500404D9BD
:102120002146FFF797FF503FF4E74946FFF792FF3C
:10213000336850221F44B7FBF2F302FB137737607A
:10214000C2E7000030B589B00A460446114905A827
:1021500005F034FD05A901A8FFF70BFD6368019A9E
:10216000934208D99B1A13F1FF3304D32021204650
:10217000FFF7CCFCF7E703AD05A92846FFF7F9FC0C
:1021800095E806002046FFF771FF002320466360B4
:1021900009B030BDF8880008F8B505460F464FF481
:1021A0007A7691FBF6F42146FFF7CCFF2E212846E4
:1021B000FFF7ACFC06FB14740A2394FBF3F4092C20
:1021C00008DC00212846FFF7BDFF2146FFF7BAFFD4
:1021D0002846F8BD21462846F8E70000F7B5054631
:1021E000406802260660AB6FB3F81C12FFF7D4FFFD
:1021F0006C46074650492046FFF7BBFC94E80600B2
:102200003846FFF733FF68684C4F0D23C0E90036AE
:10221000AB6FB3F8DC11FFF795FF2521FFF776FCD4
:1022200068681E23C0E90036AB6FB3F87C12FFF775
:1022300089FF434906462046FFF79BFC94E80600C9
:102240003046FFF713FFAB6F93F83C30002B58D0AC
:1022500005F18400FFF718FA95F89C306E6883EA60
:10226000000283424FF0220385F89C2033600ED099
:10227000EB6F1B78C3F3C003204657F82310FFF71A
:1022800078FC94E806003046FFF7F0FE03E02021DA
:102290003046FFF73BFC6E6823233360EB6F1B78FF
:1022A000C3F38003204657F82310FFF762FC94E83D
:1022B00006003046FFF7DAFEEA6F1046FFF760F8D7
:1022C00018BB6E681F49142333602046FFF751FC8A
:1022D00094E806003046FFF7C9FE686816230360DD
:1022E000AB6FB3F83C12FFF757FF1749054620467E
:1022F000FFF73FFC94E806002846FFF7B7FE03B05F
:10230000F0BD6E6822233360B2E71378D90604D596
:102310006D680E4914232B60E9E79A0604D56D68B1
:102320000B4914232B60E2E75B06E8D56D68094989
:1023300014232B60DBE700BFC8880008A8880008CA
:10234000CC880008CF880008D2880008D58800080B
:10235000DE880008E788000838B5002383608B68B2
:1023600004460D462BB102229847EB68E360AB6848
:10237000A360204638BD38B5002383608B680446CF
:102380000D462BB102229847EB68E360AB68A3606F
:10239000204638BD38B504460D46FFF7DDFF05F190
:1023A000100104F11000FFF7D7FF05F1200104F13F
:1023B0002000FFF7D1FF05F1300104F13000FFF7F5
:1023C000CBFF05F1400104F14000FFF7D4FF05F118
:1023D000500104F15000FFF7CEFF204638BD38B55C
:1023E000002383608B6804460D462BB10222984778
:1023F000EB68E360AB68A360204638BD826810B527
:102400000AB905F08EFAC368BDE81040184730B528
:1024100085B004460025694608300295FFF7EEFFB7
:102420006846FFF710F9694604F118000295FFF7B6
:10243000E5FF6846FFF707F9694604F138000295A1
:10244000FFF7DCFF6846FFF7FEF805B030BD30B59A
:1024500085B004460025694608300295FFF7CEFF97
:102460006846FFF7F0F8694604F118000295FFF797
:10247000C5FF6846FFF7E7F8694604F128000295B2
:10248000FFF7BCFF6846FFF7DEF8694604F1380045
:102490000295FFF7B3FF6846FFF7D5F805B030BDEA
:1024A00030B585B004460025694608300295FFF72F
:1024B000A5FF6846FFF7C7F8694604F118000295C2
:1024C000FFF79CFF6846FFF7BEF8694604F1280055
:1024D0000295FFF793FF6846FFF7B5F8694604F1E8
:1024E00038000295FFF78AFF6846FFF7ACF805B0A1
:1024F00030BD30B585B004460025694608300295E8
:10250000FFF77CFF6846FFF79EF8694604F1180064
:102510000295FFF773FF6846FFF795F8694604F1E7
:1025200028000295FFF76AFF6846FFF78CF86946B6
:1025300004F138000295FFF761FF6846FFF783F862
:1025400005B030BD30B585B0044600256946083079
:102550000295FFF753FF6846FFF775F8694604F1E7
:1025600018000295FFF74AFF6846FFF76CF86946C6
:1025700004F128000295FFF741FF6846FFF763F872
:10258000694604F138000295FFF738FF6846FFF707
:102590005AF805B030BD30B585B00446002569460F
:1025A00028300295FFF72AFF6846FFF74CF8694686
:1025B00004F108000295FFF721FF6846FFF743F892
:1025C000694604F118000295FFF718FF6846FFF707
:1025D0003AF8694604F138000295FFF70FFF6846A4
:1025E000FFF731F805B030BD1FB5224B009004460F
:1025F000694603930830204B0293FFF7FFFE6846BD
:10260000FFF721F81D4B039369461D4B029304F11C
:1026100018000094FFF7F2FE6846FFF714F8194B14
:1026200003936946184B029304F138000094FFF7B6
:10263000E5FE6846FFF707F860680023036004F1D1
:10264000780393E80600FFF711FDFFF76DFA606865
:1026500014230360D4F888301988FFF773FD04F160
:10266000800393E80600FFF701FD6068FFF776FA44
:1026700004B010BDA3020008A5020008BB020008B8
:10268000BD0200080B280008D3020008F0B585B091
:102690006C464C4B009005462146039328304A4B2C
:1026A0000293FFF7ABFE2046FEF7CDFF474B0393A7
:1026B0002146474B029305F108000095FFF79EFE67
:1026C0002046FEF7C0FF434B03932146424B029343
:1026D00005F118000095FFF791FE2046FEF7B3FFC5
:1026E0003E4B039321463E4B029305F13800009583
:1026F000FFF784FE2046FEF7A6FF6E68394F06F10D
:10270000590106F10900FEF7DBFE002333606E6815
:10271000354933602046FFF72CFA94E8060030462E
:10272000FFF7A4FC6E6831490B2333602046FFF7A6
:1027300020FA94E806003046FFF798FC6E682C49B2
:10274000142333602046FFF714FA94E8060030465D
:10275000FFF78CFC68681E220223C0E90023AB6FE0
:10276000B3F87C12FFF7EEFC224906462046FFF73D
:1027700000FA94E806003046FFF778FC6E682223E2
:102780003360EB6F1B78C3F3C003204657F8231068
:10279000FFF7EFF994E806003046FFF767FC6E6834
:1027A00023233360EB6F1B78C3F38003204657F875
:1027B0002310FFF7DEF994E806003046FFF756FCD9
:1027C00005B0F0BD17280008CF0E0008E50E000880
:1027D000F50E00080B0F00081B0F0008CD140008B1
:1027E000310F0008A8880008F0880008F388000866
:1027F000CF880008F6880008826810B50AB905F08D
:1028000090F8C368BDE81040184708B50068683004
:10281000FFF7F2FF08BD08B500686830FFF7ECFF6E
:1028200008BD08B50368D3F89C2093F8A030137056
:102830000068D0F884301BB17C30FFF7DDFF08BDA5
:102840006C30FAE708B500686C30FFF7D5FF08BDBB
:1028500008B50368D3F8C400182202FB00308030AA
:10286000FFF7CAFF08BD08B500686830FFF7C4FF6E
:1028700008BD006808B5D0F89C30B0F8A0201A80D8
:10288000D0F884301BB17C30FFF7B6FF08BD6C3048
:10289000FAE708B500686C30FFF7AEFF08BD08B571
:1028A0000368D3F89C2093F8A03013700068D0F828
:1028B00084301BB17C30FFF79FFF08BD6C30FAE716
:1028C00008B500686C30FFF797FF08BD006808B5D1
:1028D000D0F89C3090F8A0201A70D0F884301BB14A
:1028E0007C30FFF789FF08BD6C30FAE708B5006857
:1028F0006C30FFF781FF08BD08B50368D3F8AC0062
:10290000182202FB00308030FFF776FF08BD08B5C3
:1029100000686830FFF770FF08BD08B50368D3F89A
:102920009C2093F8A03013700068D0F884301BB15D
:102930007C30FFF761FF08BD6C30FAE708B500682E
:102940006C30FFF759FF08BD08B50368D3F8DC0009
:10295000182202FB00308030FFF74EFF08BD08B59B
:1029600000686830FFF748FF08BD08B50368D3F872
:102970000C01182202FB00308030FFF73DFF08BD3C
:1029800008B500686830FFF737FF08BD38B5002389
:1029900083608B6804460D462BB102229847EB6892
:1029A000E360AB68A360204638BD10B50B46044613
:1029B000D1E9000184E8030003F1080104F10800F3
:1029C000FFF70DFD204610BD38B51D46124B0446DD
:1029D000C0E9003111460830FFF7DCFC294604F15C
:1029E0006800FFF7FCFC049904F17800FFF7DDFFB5
:1029F000059904F19000FFF7D8FF069904F1A800AB
:102A0000FFF7D3FF079904F1C000FFF7CEFF0023C3
:102A1000C4E93633204638BDD482000838B51D4697
:102A20000D4B0446C0E9003111460830FFF7B2FCF7
:102A3000294604F16800FFF7D2FC049904F17800FC
:102A4000FFF7B3FF059904F19000FFF7AEFF0023F5
:102A5000C4E92A33204638BDFC82000882B038B56C
:102A60000593184B0360BDF828308380BDF82C30E7
:102A7000C3800446816011460C30099DFFF78AFC33
:102A80000C9904F16C00FFF7AAFC0D9904F17C008D
:102A9000FFF7A5FC05AA92E8030004F18C0307AA3E
:102AA00083E8030092E8030004F1940383E8030041
:102AB0002B88C4F89C502046A4F8A030BDE83840CC
:102AC00002B0704738830008D0F80431FE2B9FBF56
:102AD000C154D0F804310133C0F80431704713B544
:102AE0000B460446D0E900016A4682E8030093E8F9
:102AF000030084E8030092E8030083E8030002B0C7
:102B000010BD38B505460C46FFF7E9FFAB68A26873
:102B1000AA60A360E268EB68EA60E36038BD1FB5B5
:102B200004466846FFF75BFC21466846FFF7E9FF6D
:102B30006846FEF788FD204604B010BD08B5443055
:102B4000FFF7EDFF08BD08B53430FFF7E8FF08BD1B
:102B500008B52430FFF7E3FF08BD08B51430FFF7D0
:102B6000DEFF08BD08B54430FFF7D9FF08BD08B542
:102B70003430FFF7D4FF08BD08B52430FFF7CFFF8E
:102B800008BD08B51430FFF7CAFF08BD08B54430CA
:102B9000FFF7C5FF08BD08B53430FFF7C0FF08BD1B
:102BA00008B52430FFF7BBFF08BD08B51430FFF7A8
:102BB000B6FF08BD08B53430FFF7B1FF08BD08B552
:102BC0003430FFF7ACFF08BD08B54430FFF7A7FF6E
:102BD00008BD08B54430FFF7A2FF08BD08B5243092
:102BE000FFF79DFF08BD08B51430FFF798FF08BD3B
:102BF00008B52430FFF793FF08BD08B51430FFF780
:102C00008EFF08BD30B5044689B0084600236946EA
:102C10000293FFF776FF23689C6F2368694604A838
:102C2000DD68FFF7DCFB04A92046A84704A8FEF7EF
:102C30000AFD6846FEF707FD09B030BD30B5044611
:102C400089B00846002369460293FFF75AFF2368BC
:102C50001C6F2368694604A89D68FFF7C0FB04A9A0
:102C60002046A84704A8FEF7EEFC6846FEF7EBFCFA
:102C700009B030BD30B5044689B008460023694626
:102C80000293FFF73EFF23685C6F2368694604A840
:102C90009D68FFF7A4FB04A92046A84704A8FEF7F7
:102CA000D2FC6846FEF7CFFC09B030BD30B5044613
:102CB00089B00846002369460293FFF722FF236884
:102CC0009C6F2368694604A89D68FFF788FB04A9E8
:102CD0002046A84704A8FEF7B6FC6846FEF7B3FCFA
:102CE00009B030BDF0B5C26ED2F80431D2F800118F
:102CF0005C1A022C33D999423EBF03F1FF33C2F86C
:102D00000431D55CC26EDFF860C0D2F80431D2F86D
:102D10000011144F28BF00258B4282BF03F1FF33FF
:102D2000C2F80431D65CC36ED3F80021D3F8041185
:102D30004FF0FF001A4498BF00260B44044612F8D7
:102D4000011B414093421CF8010080EA04007C5CB6
:102D5000F5D1AC4203D1831B58425841F0BD00204D
:102D6000FCE700BFA8870008A886000838B5836F75
:102D70001D68C36ED3F800219A5C2B799A420446F1
:102D800011D0AB690921EA1811750133032293FBB5
:102D9000F2F202EB42029B1AAB61D4F89830013395
:102DA000C4F8983038BDFFF79DFF18B9AB69102102
:102DB000EA18E9E7E26ED2F80031D2F8041199423C
:102DC00084BF0133C2F80031E36ED3F80021D3F899
:102DD0000411914283BF511CC3F800119B5C002376
:102DE0001B0611D5E36ED3F80021D3F804119142EC
:102DF00082BF511CC3F800119A5CAB6905EB03015B
:102E000098BF00220A75C0E72B7A032BCAD1E26E65
:102E1000D2F80031D2F80411994284BF0133C2F8CC
:102E20000031E36EE868D3F80021D3F80411541C94
:102E3000A14217D9914284BFC3F800419C5CD3F8EA
:102E4000002198BF0024914283BF511CC3F8001198
:102E50009A5C00224FF0000362F3070364F30F2330
:102E600003809FE70023FBE70B1A1B11002B14DDE7
:102E70000268127C4AB34268127C0AB90430704777
:102E80008268127C0AB908307047C268127C0AB99D
:102E90000C3070471030013BE8E70B1A9B10022BF7
:102EA0000DD0032B07D0012B0ED103681B7C002B08
:102EB00018BF0846704703681B7C33B104300368B1
:102EC0001B7C13B10430F0E708467047437B012BAD
:102ED000F7B5044606D0C0F0C280022B00F0F780A0
:102EE00003B0F0BD00F16C054FF00003806F1A468F
:102EF0002946FFF7B9FF8542A06703D104F110030B
:102F0000A367EDE7E36E05680026C3F80061C3F828
:102F100004612979E06EFFF7D7FD297AE06EFFF7AB
:102F2000D3FD3146E06EFFF7CFFDA979E06EFFF7E4
:102F3000CBFD2B7A032B01D0102B67D10021E06E43
:102F4000FFF7C2FD0121E06EFFF7BEFD2B7A102BCB
:102F500010D10221E06EFFF7B7FD2B7A102B09D1BB
:102F6000EB68E06E1988090AFFF7AEFDEB68197887
:102F7000FFF7AAFD2B7A032B01D0052B53D12B6829
:102F800029461B6801A898479DF80510E06EFFF7D9
:102F90009BFD9DF80410FFF797FDD4F88830C4F826
:102FA0008030D4F89C30E56E00260133C4F89C30A4
:102FB000C4F89060D5F81001FEF798FAD5F81831EA
:102FC000DA6866F30412DA60D5F820311A6866F31D
:102FD00000021A60D5F81C311A6866F300021A6004
:102FE000D5F80431D5F80011D5F81C215B1A02334D
:102FF0009BB25360D5F81C311A6842F001021A6086
:103000001A68D207FCD50023637369E7052BB1D199
:10301000EB68E06E1988002914BFFF210021FFF73B
:1030200053FD314696E7102BB7D1E06EDFF8C4C0F0
:10303000D0F80031D0F804212D4FFF210344861829
:103040000D4613F8012B4A409E421CF8021081EAFB
:103050000501BD5CF5D1FFF737FD29469BE7C16E41
:10306000D0F88820D1F80431D1F800115B1AD0F8DB
:1030700090109942C16F38BFC0F880208A4216DC98
:10308000836F18688369C2181225157501330322EE
:1030900093FBF2F202EB42029B1A8361D4F8983060
:1030A000C4F88C100133C4F8983002236373D4F849
:1030B0008030C91AD4F884309942FFF611AF204607
:1030C000FFF754FEE36FC4F88C3002239CE7C36F14
:1030D000D0F88C20093B93427FF702AF0023C367EF
:1030E000FEF7DCFA836F0433836701238CE700BFAC
:1030F000A8870008A88600082DE9F04F374BADF5EA
:10310000C65D81B059AE03F1180735463C461868D4
:1031100059682A4603C20833BB421546F7D1304BE3
:103120008393304B879300224FF480312E4B2F48EE
:10313000939195918DF85D22849285928DF8182255
:103140008F92ADF8402291929293949096938DF83D
:103150005C228DF85E228DF860228896FF2183AB79
:1031600013440132182A1976F9D10DF5FA790021A4
:10317000484604F01EFC8798FEF7ACF9879B1A6955
:103180004FF0010868F309221A611A6983AD42F011
:1031900080721A6100274FF6FF7BAA46D5E90F31EE
:1031A00003EB410199420FD01A78172A09D80DF57F
:1031B000037C6244587810761A7809F8028002334A
:1031C000F0E71A885A45FAD19693E96B99420FD1E4
:1031D0008F970835CFB90127E0E700BF808200084C
:1031E0001C990008003C024000000A080000080882
:1031F0002A6C01EB4202934200F06083514648463C
:103200008F97FEF7C7F88245E3D18F9A83AB03EB24
:10321000C201D1E90F30969903EB4003994206D1E0
:1032200090AB0121995400238F93929B969383AF87
:1032300039464846FEF7AEF8B842054640F04383AB
:1032400088AB889A89AF03F11C0C3B4603CB6345DE
:10325000106051601F4602F10802F6D100238DF87C
:103260005E329DF840328BB98F9B7BB1929A939BD3
:103270004FF6FF7002EB43018A42134640F0298368
:103280000B465B1A18BF01238DF840329DF841327E
:10329000ABB98F9B012B12D0949B959A4FF6FF7080
:1032A00003EB42029A42194604D00F88874203F189
:1032B0000203F7D0521A18BF01228DF8412288ABC1
:1032C0000DF2422703F120003946FEF78DF88742C0
:1032D00018BF0323879A18BF8DF85D32136943F036
:1032E0000043136183AB9D4209D0E64B3546186815
:1032F00059682A4603C20833A3421546F7D183A86A
:10330000FEF7EEF9E04B1A6812F0010FDF4A06D122
:10331000DFF884C30521C2E900C101211960DC4B3B
:10332000196B41F00101196312681168012060F303
:103330008B211160D1686FF38B21D160D5490A6868
:1033400012F0010F08BFD44FD44A02BF0860042412
:10335000C2E90074196B41F00101196313681A681E
:10336000012464F309221A60DA686FF30922DA6033
:103370000DF2C442CDF8B424C94ACDF8A8240DF208
:10338000E44200230520CDF8D424C64A8DF8B004C9
:103390008DF8D0048DF8AC44ADF8AE348DF8B83467
:1033A000ADF8BC348DF8BE34CDF8C034ADF8C434BB
:1033B0008DF8CC44ADF8CE448DF8D834CDF8C8247F
:1033C0000DF20452CDF8F424B74ACDF8E8240DF2FA
:1033D00044550DF22452CDF81425CDF83455B34A96
:1033E000B34DCDF8082510210422CDF828550DF253
:1033F00064558DF8F0148DF810158DF83015ADF872
:10340000DC348DF8DE34CDF8E034ADF8E4348DF8FA
:10341000EC44ADF8EE34ADF8FC348DF8FE34CDF864
:103420000035ADF804358DF80C45ADF80E45ADF816
:103430001C358DF81E35CDF82035ADF824358DF8C6
:103440002C45ADF82E25ADF83C358DF83E35CDF840
:103450004035ADF844358DF84C45CDF85455954D73
:10346000CDF848550DF28455CDF87455924DCDF8F0
:1034700068550DF2A455CDF89455904DCDF888556A
:103480000825ADF8AE550DF2C4554FF0060E4FF0BD
:10349000070CCDF8B4558A4DADF84E058DF8501592
:1034A0008DF870158DF890158DF8B015ADF85C3568
:1034B0008DF85E35CDF86035ADF864358DF86C4526
:1034C000ADF86EE5ADF87C358DF87E35CDF88035FC
:1034D000ADF884358DF88C45ADF88EC5ADF89C35CA
:1034E0008DF89E35CDF8A035ADF8A4358DF8AC45F6
:1034F000ADF8BC358DF8BE35CDF8C035CDF8A85542
:103500000925ADF8CE550DF2E455CDF8D4556D4DE5
:10351000CDF8C8550DF20465CDF8F4550DF22468C8
:10352000694DCDF8E855CDF814860225DFF8B08155
:10353000ADF80E560A270325CDF808860DF244682B
:103540008DF8D015ADF8EE758DF8F015ADF8C435E1
:103550008DF8CC45ADF8DC358DF8DE35CDF8E035AD
:10356000ADF8E4358DF8EC45ADF8FC358DF8FE3559
:10357000CDF80036ADF804368DF80C468DF81056AF
:10358000ADF81C368DF81E36CDF82036ADF8243651
:103590008DF82C46ADF82E568DF83056CDF8348681
:1035A000ADF86E060DF28460CDF874064748DFF87A
:1035B0003481CDF868060DF2A460CDF82886CDF8E8
:1035C00094060DF264684248CDF85486CDF888061A
:1035D000DFF81481ADF83C360DF2C4608DF83E364C
:1035E000CDF84036ADF844368DF84C46ADF84E2651
:1035F0008DF85056ADF85C368DF85E36CDF86036F5
:10360000CDF84886ADF864368DF86C468DF8705666
:10361000ADF87C368DF87E36CDF88036ADF8843640
:103620008DF88C46ADF88EE68DF89056ADF89C3648
:103630008DF89E36CDF8A036ADF8A4368DF8AC46A0
:10364000CDF8B4062348CDF8A8060DF2E460CDF815
:10365000D4062148CDF8C8060B20ADF8EE060DF2D1
:103660000470CDF8F4061D48CDF8E8060E20ADF83C
:103670000E070DF22470ADF8CE76CDF81407ADF834
:10368000AEC633E080820008AC020020B002002009
:1036900000380240A002002000000240A4020020E6
:1036A00074830008808300088C83000898830008D6
:1036B000A4830008B0830008BC830008C883000806
:1036C000D4830008E08300084099000810840008B3
:1036D0001C84000828840008348400084084000802
:1036E000EC830008F8830008048400088DF8B056C5
:1036F0008DF8B836ADF8BC368DF8BE36CDF8C0368C
:10370000ADF8C4368DF8CC468DF8D056ADF8DC3621
:103710008DF8DE36CDF8E036ADF8E4368DF8EC46BF
:103720008DF8F056ADF8FC368DF8FE36CDF8003742
:10373000ADF804378DF80C478DF81057ADF81C37ED
:103740008DF81E37ADF84E170DF264717048CDF844
:1037500054177049CDF80807CDF848170F201121EC
:10376000ADF82E07ADF86E170DF244700DF28471AE
:10377000694FCDF83407CDF8741768486849CDF81B
:103780006817CDF82037ADF824378DF82C478DF821
:103790003057ADF83C378DF83E37CDF84037CDF88F
:1037A0002807ADF844378DF84C478DF85057ADF8E1
:1037B0005C378DF85E37CDF86037ADF864378DF83B
:1037C0006C478DF870578DF87837ADF87C378DF8E9
:1037D0007E37CDF88037ADF884378DF8F8448DF812
:1037E000184539688DF8384521408DF858458DF8D1
:1037F00078458DF898458DF8B8458DF8D8458DF801
:10380000F8458DF818468DF838468DF858468DF8ED
:1038100098468DF8F8468DF838478DF858478DF85A
:1038200018478DF8D8468DF87846768840F09D8107
:10383000CDE90921FEF7FCFAC6F34003804639487A
:103840000893394B0A990360384B447306EA04091C
:1038500000F1100EC6F3800BC6F3C10A344C01739D
:10386000C6F34216C0E90111C0E91EE1C0F86C8040
:10387000046743670146099A18468EB3012E05D0A6
:10388000022E2FD0AE4214BF012502250022C1F81E
:1038900084506425C1F89820C1E9225281F894200F
:1038A000C1F89C20C1F8A420224AC1F8A0202268B7
:1038B000C1F8A810CAB9204A22601BE083AB3B4480
:1038C00083F8348085E48F9B90AA0121D15405238D
:1038D000C5E41F88874202F102023FF4CDACD0E478
:1038E0001546D3E73546D1E722465468002CFBD174
:1038F000114C54600022C1F8B020104AC1F8AC202D
:103900000268C1F8B410F2B90D4A026020E000BFAD
:103910004C84000864840008B80200205884000821
:103920004C990008BC02002088840008A4030020F1
:1039300014040020708400085C0300207C840008CC
:1039400068030020024650680028FBD1CE48506032
:1039500018AC0DF5F16244F8041C44F80429002069
:10396000CDF888070DF595612046FCF7F1FC94E849
:10397000030019AD85E8030028460DF59961FCF7B1
:10398000E7FC95E803001BAC84E8030020460DF536
:103990009D61FCF7DDFC94E803001DAD85E80300A4
:1039A00028460DF5A161FCF7D3FC95E803001FAC98
:1039B00084E8030020460DF5A561FCF7C9FC94E8F6
:1039C000030021AD85E8030028460DF5A961FCF749
:1039D000BFFC95E8030023AC84E8030020460DF506
:1039E000AD61FCF7B5FC94E8030025AD85E8030064
:1039F00028460DF5B161FCF7ABFC95E8030027AC58
:103A000084E8030020460DF5B561FCF7A1FC94E8BD
:103A1000030029AD85E8030028460DF5B961FCF7E0
:103A200097FC95E803002BAC84E8030020460DF5D5
:103A3000BD61FCF78DFC94E803002DAD85E8030023
:103A400028460DF5C161FCF783FC95E803002FAC17
:103A500084E8030020460DF5C561FCF779FC94E885
:103A6000030031AD85E8030028460DF5C961FCF778
:103A70006FFC95E8030033AC84E8030020460DF5A5
:103A8000CD61FCF765FC94E8030035AD85E80300E3
:103A900028460DF5D161FCF75BFC95E8030037ACD7
:103AA00084E8030020460DF5D561FCF751FC94E84D
:103AB000030039AD85E8030028460DF5D961FCF710
:103AC00047FC95E803003BAC84E8030020460DF575
:103AD000DD61FCF73DFC94E803003DAD85E80300A3
:103AE00028460DF5E161FCF733FC95E803003FAC97
:103AF00084E803000DF5E5612046FCF729FC94E815
:103B0000030041AD85E803000DF5E9612846FCF7A7
:103B10001FFC95E8030043AA82E8030010460DF558
:103B2000ED61FCF715FCD8F82421D8F818013146CE
:103B3000FDF7E6FD089BC26863F34922C260C368D3
:103B40006BF30C33C36003696AF30D330361C3681D
:103B5000B9F1000F01F0218443F48063C360C368AE
:103B600043F40053C36001233B60484A99920DF52A
:103B700019782032C8F80420454A0023C8E90233E6
:103B800088F8103088F81130C8F81C30C8F82C308C
:103B9000C8F83C30C8F84C30C8F85C30136813F0F3
:103BA000010F3C4B05D13C480D21C3E90001012127
:103BB00011603A4C226B42F0020222631A681168CB
:103BC0006FF39B611160D1686FF39B61D160012538
:103BD00000219AA8C8E91A1588F8701088F87110A1
:103BE000C8F86430FDF77CFDB8AE2D4B46F80819D7
:103BF0002C4AB693203373601368F16013F0010F01
:103C000008BFDFF8B4B0284B31747174F161F16210
:103C1000F163F164F16502BF0921C3E900B11560E8
:103C2000226B42F0040222631A6811686FF3934119
:103C30001160D1686FF39341D16001240021B7A8CE
:103C4000C6E91A1486F8701086F871107366FDF7CD
:103C500047FD164B164AD393D3AF20337B601368CE
:103C6000397413F0010F08BFDFF82CA0114B7974E1
:103C7000C7E90211F961F962F963F964F96504BFF2
:103C80000F21C3E900A119E0680300209484000813
:103C9000400100204401002000040240003802409E
:103CA000C08400083401002038010020EC840008A2
:103CB000280100202C0100200008024008BF1460E9
:103CC000B54C226B42F0020222631A6811686FF34E
:103CD0009F711160D1686FF39F71D1604FF001093E
:103CE0000021D4A87B66C7E91A1987F8701087F8F5
:103CF0007110FDF7F5FC0DF5F165A84B2973C5E9C9
:103D00000111CDF888370DF5F463C5E90411297662
:103D100003EB09000DF2F171FDF7D2FBA04A136825
:103D200013F0010F21469F4C40F08380DFF8C0E282
:103D3000DFF8C0C2DEF800309B4813F0010F01BF6E
:103D40000D23CEF80090CCF80000CCF804300B6BBB
:103D5000DFF8A4E243F004030B63DCF800301968D9
:103D60004FF0010969F39B611960D9686FF39B619A
:103D7000D9608E490B6813F0010F04BF0F23CEF8F2
:103D80000430854B04BFCEF80000C1F80090196BD9
:103D900041F004011963DEF80010D1F800A04FF0E3
:103DA000010969F39F7AC1F800A0D1F80CA06FF364
:103DB0009F7AC1F80CA0DFF844A2DAF8001011F0E5
:103DC000010F7B4908BFCAF800909B4602BF0E2333
:103DD00008604B60DBF8303043F00403CBF8303040
:103DE0000B68D3F800A04FF0010969F31D7AC3F8FE
:103DF00000A0D3F80CA06FF31D7AC3F80CA0C4E99F
:103E000006100DF5F461002349442162C4E9013331
:103E10006849DFF8ECA16162C4E904CE6649237306
:103E2000C4F800A06373A16284F830306363C2F801
:103E300000906249624A0B6813F0010301BF5A48BF
:103E4000C2E9000301230B60534B196B41F00401DD
:103E5000196312681068012161F301001060D068D5
:103E60006FF30100D0605748026812F0010F08BFDD
:103E7000DFF834C1544A04BF0160C2E900C1196BC4
:103E800041F00401196313681A68012161F3830288
:103E90001A60DA686FF38302DA604C4B1A6812F02A
:103EA000010F08BFDFF80091494A02BF19600220E4
:103EB000C2E90090384B196B41F004011963126894
:103EC0001168012060F305111160D1686FF30511CD
:103ED000D16040490A6812F0010F08BFDFF8C8E05E
:103EE0003D4A02BF08604FF0030CC2E900EC196BB9
:103EF0002C4841F00401196313681A684FF0010956
:103F000069F387121A60DA686FF38712DA60FDF7D7
:103F1000ADFE237B0BBB314B84F80C90DA686260FA
:103F200002B194609A68DC6002B99C6002225A6116
:103F30002B4B1A686FF300021A602A4A5A6000225B
:103F40009A601A6842F004021A601A6842F002028B
:103F50001A601A6842F001021A6059ABEB670DF55E
:103F60009563C5F8803013ABC5F8843014ABC5F841
:103F7000883015ABC5F88C3016ABC5F890300DF60F
:103F80008403C5F89430184B4C934FF00009174B3D
:103F9000C5F8989049A935E00038024028990008F2
:103FA000B0000020B400002000080240F80000200B
:103FB000F00000200089000800910008A400002003
:103FC000A8000020980000209C0000208C00002009
:103FD0009000002080000020840000202C0400209D
:103FE00010E000E01F4801003D2C000865030008B8
:103FF0000401002008010020FC000020EC0000204B
:104000003499000845A8C5E91B48C5E91D674995CD
:104010004B93FEF7A1F9C24B5493C24B53934DAB54
:1040200051A9184651950893FEF796F9BE4B629335
:104030000DF5D67BBD4B5F955FA955A80DF5CA7AE6
:104040006193FEF789F9BA4B6B9577AECBF80C30DC
:104050005946B84BCBF808305046FEF77DF9B64BC1
:1040600077950DF58867F3603146B44BB36071A85E
:10407000FEF781F9B24B47F80C5C47F80C39F0AC0D
:10408000B04BBB600DF6240839462046FEF773F9A5
:1040900045A94046FEF760F908990DF63400FEF791
:1040A0005BF955A90DF64400FEF756F951460DF699
:1040B0005400FEF751F971A90DF66400FEF75BF9A3
:1040C00021460DF67400FEF756F92046FDF7BBFABF
:1040D0003846FDF7B8FA71A8FDF7B5FA3046FDF796
:1040E000B2FA5046FDF7AFFA5846FDF7ACFA55A8BC
:1040F000FDF7A9FA5FA8FDF7A6FA0898FDF7A3FA5D
:1041000051A8FDF7A0FA45A8FDF79DFA49A8FDF7CB
:104110009AFA41463846FEF73DF98B4B2560E3603D
:1041200021468A4BA3603046FEF759F9D5F8803016
:104130000993D5F884300A93854BC5F8FC300DF50A
:10414000F363D5F88820C5F8003139460DF68C00A8
:104150000B920893FEF71EF931460DF6EC00FEF7C0
:104160003EF9099BC5F874310A9BC5F87831794B43
:104170000B9AC5F880314FF4FA73C5F87C21C5F865
:104180009091C5F88491C5F89491C5F88891C5F8C7
:10419000903185F88C910DF60810FDF7A1FA85F89D
:1041A00098913046FDF74FFA2046FDF74CFA384615
:1041B000FDF7DEFD41463846FEF7ECF8664B5893B6
:1041C00055A9664B559551A85793FEF708F9092351
:1041D0005F93634B6093634B6493634B63930923D7
:1041E0006593624B6195CAE90135614BCAF8143099
:1041F000604BCAF810300C236B935F4B7395CBE97F
:1042000001355E4BCBF814305D4BCBF810300C23EE
:1042100071935C4B72935C4B76935C4B7593062366
:1042200077935B4BC6E901355A4B73615A4B336147
:104230000E232360594BC4E90135594B6361594B37
:104240002361594BC5F89C313946089BC5F8A0310C
:104250000DF62C10FEF79EF851A90DF68C10FEF706
:10426000BEF85FA90DF69C10FEF79FFB51460DF6B8
:10427000B410FEF79AFB59460DF6CC10FEF795FBED
:1042800071A90DF6E410FEF790FB31460DF6FC1017
:10429000FEF78BFB21460DF61420FEF786FB04F19A
:1042A0000803C5F8A492C5F8A89218460993FDF72B
:1042B000CAF979AB18460A93FDF7C5F973AB1846EE
:1042C0000C93FDF7C0F96DAB18460D93FDF7BBF9E4
:1042D00067A8FDF7B8F961A8FDF7B5F951A8FDF792
:1042E000B2F955A8FDF7AFF93846FDF741FD414653
:1042F000384685F8AC92A5F8AE92A5F8B092FEF7D4
:1043000049F82A4B65955146CAF80C305FA8284BEE
:10431000CAF80830FEF763F808236B934AE000BF41
:10432000752C00087B030008AD2C000891030008E1
:10433000052C0008A703000845560008BD03000827
:104340000D560008D3030008E9030008F303000832
:1043500008990008A0820008090400082504000844
:10436000509900083B040008670400085A990008A7
:104370007D0400089504000864990008AB04000857
:10438000B504000871990008CB040008D5040008A2
:104390007E990008EB040008F504000885990008E0
:1043A0000B0500082F050008C0820008450500081D
:1043B00081050008BB4B08997395CBE90135BA4BD1
:1043C000CBF81430B94BCBF8103009237193B84BAC
:1043D0007293B84B7693B84B75930F237793B74B83
:1043E000C6E90135B64B7361B64B33610B232360CD
:1043F000B54BC4E90135B54B6361B54B236171AB76
:104400003A46CDE900B3CDE902645FAB0DF63C203E
:10441000FEF7DAFA0998FDF716F90A98FDF713F98D
:104420000C98FDF710F90D98FDF70DF95FA8FDF751
:104430000AF95046FDF707F93846FDF799FCEB6F8E
:1044400041465B7D85F894333846FDF7A3FFA149CB
:104450005FA8FDF78EFBA0495046FDF78AFB9F4BF6
:10446000749371A99E4B719558467393FDF7B7FFEE
:104470009C4B2560E36021469B4BA3603046FDF7D3
:10448000AEFF5F9B0B93609B0E93659B0F93974BC7
:10449000C5F898334FF48073A5F89C33089BC5F892
:1044A000A033DAF80420109239460DF62C30FDF7CF
:1044B00071FF59460DF68C30FDF791FF31460DF630
:1044C0009C30FDF78CFF0B9BC5F824340E9BC5F880
:1044D00028340F9BC5F82C340DF61C33109AC5F800
:1044E000343495F89433C5F8302485F838343046A0
:1044F000FDF7A9F82046FDF7A6F85846FDF7A3F802
:1045000071A8FDF7A0F83846FDF732FCD5F88430E5
:104510001B784146C3F3C003384685F83C34FDF7A9
:1045200039FF71AA724B74931146724B71955846BC
:104530007393FDF754FF0F2377936F4B0899C6E9E8
:1045400001356E4B73616E4B33616E4BC4E90135BF
:104550006D4B636106226D4B226023613A465B46D8
:10456000CDE900640DF6C830FEF758FA0998FDF75A
:104570006AF80A98FDF767F85846FDF764F871A8DD
:10458000FDF761F83846FDF7F3FB41463846FDF785
:1045900001FF71AA5E4B749311465E4B71955846AC
:1045A0007393FDF71CFF544B08990F227792C6E9CD
:1045B0000135594B7361594B336109232360584BC3
:1045C000C4E90135574B6361574B23613A465B465B
:1045D000CDE900640DF67840FEF720FA0998FDF762
:1045E00032F80A98FDF72FF85846FDF72CF871A815
:1045F000FDF729F83846FDF7BBFB41463846FDF785
:10460000C9FE4A495FA8FDF7B4FA33495046FDF7A1
:10461000B0FA71AA464B74931146464B71955846B1
:104620007393FDF7DCFE444B2560E3602146434B6A
:10463000A3603046FDF7D3FE5F9B0B93609B0E9308
:10464000659BDAF804200F933D4BC5F8A035109216
:10465000089BC5F8A8354FF0010285F8A52585F817
:10466000A49539460DF63450FDF794FE59460DF6E3
:104670009450FDF7B4FE31460DF6A450FDF7AFFEA1
:104680000B9BC5F82C360E9BC5F830360F9BC5F832
:1046900034360DF6C433109AC5F83C3695F83C34E0
:1046A00050E000BF9499000897050008AF05000886
:1046B0009D990008C5050008DD050008A7990008B8
:1046C000F30500080B060008B7990008210600084A
:1046D0003D060008C3990008909B00085306000897
:1046E0005D06000873060008BF060008E88200089F
:1046F000D5060008F1060008D09900080707000851
:1047000021070008E099000837070008550700084E
:104710006B070008870700089D070008B707000817
:10472000E7990008CD070008E90700085A99000832
:10473000FF070008170800082D0800085F08000898
:1047400010830008C5F8382685F840363046FCF757
:104750007AFF2046FCF777FF5846FCF774FF71A8F4
:10476000FCF771FF3846FDF703FB41463846FDF77D
:1047700011FEC4495FA8FDF7FCF9C3495046FDF797
:10478000F8F971AAC14B74931146C14B7195584603
:104790007393FDF724FEBF4B2560E3602146BE4BBB
:1047A000A3603046FDF71BFE5F9B0E93609B0F934B
:1047B000659BDAF804200B93B84BC5F84436109289
:1047C0004FF4C843089AA5F84836C5F84C26394630
:1047D0000DF6D850FDF7DEFD59460DF63860FDF7B1
:1047E000FEFD31460DF64860FDF7F9FD0E9AC5F85D
:1047F000D0260F9AC5F8D4260DF634230B9AC5F8A7
:10480000D826C5F8E036109A95F8AC32C5F8DC2603
:1048100085F8E4363046FCF716FF2046FCF713FF18
:104820005846FCF710FF71A8FCF70DFF3846FDF75E
:104830009FFA41463846FDF7ADFD99495FA8FDF75F
:1048400098F998495046FDF794F971AA964B7493DC
:104850001146964B719558467393FDF7C0FD944BE6
:104860002560E3602146934BA3603046FDF7B7FD1A
:10487000CDE906B642F6E063ADF814300DF6382304
:104880000393ADF810909AE8030001AA0B9282E816
:104890000300609B089900933A465F9B0DF56760A3
:1048A000FEF7DCF83046FCF7CEFE2046FCF7CBFEE8
:1048B0005846FCF7C8FE71A8FCF7C5FE3846FDF760
:1048C00057FA41463846FDF765FD7B495FA8FDF77D
:1048D00050F97A495046FDF74CF971AA784B749318
:1048E0001146784B719558467393FDF778FD764BDA
:1048F0002560E3602146754BA3603046FDF76FFDF0
:104900004AF6C873ADF81430CDE906B644F25063E8
:10491000ADF810300DF6362303939AE803000B9A96
:1049200082E80300609B089900933A465F9B0DF66E
:104930001470FEF793F83046FCF785FE2046FCF72E
:1049400082FE5846FCF77FFE71A8FCF77CFE3846D5
:10495000FDF70EFAC5F8309841463846FDF71AFDC6
:104960005B4B6B955946CBF80C305046594BCBF806
:104970000830FDF734FD584B7293584B7693584BE3
:1049800075930722574B71920C227792C6E9013535
:10499000554B7361554B3361554B7395C4E90135E4
:1049A000544B63610E22544B22602361089A534B8F
:1049B000C5F83438C5F8382839460DF6C470FDF707
:1049C000E9FC0DF5F462514602F68400FDF707FD9F
:1049D00071AA11460DF5F46202F69400FDF7E5FFA9
:1049E0000DF5F462314602F6AC00FDF7DEFF0DF581
:1049F000F46202F6C4002146FDF7D7FFC5F8F4982B
:104A0000C5F8F8980998FCF71EFE0A98FCF71BFEFB
:104A10000C98FCF718FE5046FCF715FE5846FCF7BC
:104A200012FE3846FDF7A4F941463846FDF7B2FCC0
:104A3000334B2560E3602146324BA3603046FDF7DF
:104A4000CEFC31495846FDF794F8304971A8FDF77E
:104A500090F8DBF804200E92719A0F92729A1092DD
:104A60002B4AD5F88030C5F8FC28089AC5F80029EB
:104A70000DF5F46203F51F7802F6EC006B9B1193C1
:104A800048E000BFF1990008029A00087508000884
:104A90007F08000895080008B5080008248300086E
:104AA000059A0008159A0008CB080008D5080008E8
:104AB000EB0800080B090008A7990008199A0008DC
:104AC000210900082B0900084109000861090008B4
:104AD00077090008A30900081D9A0008B909000811
:104AE000C3090008259A0008D9090008F10900083F
:104AF000329A0008070A00081F0A00084C830008C1
:104B0000350A00083F0A0008419A0008519A000837
:104B1000AC8200083946FDF73DFC0DF587500DF5D8
:104B2000F16531460C30FDF75AFC0E9AC5F878292C
:104B30000F9A119BC5F87C29109AC5F87439C5F8ED
:104B40008029C5F884893046FCF77DFD20460DF6A6
:104B50002408FCF778FD3846FDF70AF94146384647
:104B6000FDF718FCB9495FA8FDF703F8B8495046AE
:104B7000FCF7FFFF71AAB74B74931146B64B7195C2
:104B800058467393FDF72BFCB44B2560E360214638
:104B9000B34BA3603046FDF722FC0DF5F362CDE97F
:104BA00007620DF6B8734FF06402ADF8142003935A
:104BB000CDF818B0ADF810909AE803000B9AC2E94E
:104BC00000010DF58850609B089900933A465F9B61
:104BD0001030FDF743FF3046FCF735FD2046FCF76B
:104BE00032FD5846FCF72FFD71A8FCF72CFD384626
:104BF000FDF7BEF841463846FDF7CCFB99495FA862
:104C0000FCF7B7FF92495046FCF7B3FF964B7493FD
:104C100071A9964B719558467393FDF7E0FB944B41
:104C20002560E3602146934BA3603046FDF7D7FB38
:104C3000CDE906B64FF064020DF6BA73ADF8142054
:104C40000393ADF810909AE803000B9AC2E90001B3
:104C50000DF58D50609B089900933A465F9B143088
:104C6000FDF7FCFE3046FCF7EEFC2046FCF7EBFCC3
:104C70005846FCF7E8FC71A8FCF7E5FC3846FDF760
:104C800077F841463846FDF785FB7B4B749371A955
:104C90007A4B719558467393FDF7A1FB784B73607F
:104CA0000A20784B77907361774B3361774B089983
:104CB000C4E901350820764B206063610DF5F4608E
:104CC000744B23613A465B46CDE9006400F6B82098
:104CD000FDF7A4FE0998FCF7B6FC0A98FCF7B3FCB4
:104CE0005846FCF7B0FC71A8FCF7ADFC3846FDF760
:104CF0003FF841463846FDF74DFB674B749371A969
:104D0000664B719558467393FDF769FB644B0899A0
:104D100008207790C6E90135624B7361624B3361BD
:104D2000624B63600720624B206063610DF5F460A5
:104D3000604B23613A465B46CDE9006400F668307B
:104D4000FDF76CFE0998FCF77EFC0A98FCF77BFCEB
:104D50005846FCF778FC71A8FCF775FC3846FDF75F
:104D600007F841463846FDF715FB534B659551460C
:104D7000CAF80C305FA8514BCAF80830FDF72FFB7A
:104D800008204F4B6B90CBF814304E4BCBF81030C3
:104D90004D4B72934D4B76934D4B75934D4B71909C
:104DA0000B207790C6E901354B4B73614B4B336158
:104DB0004B4B4C4A08997395C4E901350A204A4B7C
:104DC000206063615FA8494B2361CBE9012503465D
:104DD00071AA0DF5F460CDE900B2CDE902643A465E
:104DE00000F61840FDF7F0FD0998FCF72CFC0A9836
:104DF000FCF729FC0C98FCF726FC0D98FCF723FC2B
:104E00005FA8FCF720FC5046FCF71DFC3846FCF779
:104E1000AFFFEB6F41469B7D85F8103D3846FDF7AF
:104E2000B9FA30495FA8FCF7A4FE31495046FCF7B7
:104E3000A0FE304B749371A92F4B71955846739314
:104E4000FDF7CDFA2D4B25605AE000BF549A0008BB
:104E5000519A0008550A00085F0A0008750A000800
:104E6000950A0008649A0008AB0A0008B50A000811
:104E7000CB0A0008EB0A0008010B00080B0B000826
:104E8000739A0008210B0008230B00087E9A000883
:104E9000CF1400082D0B0008430B00084D0B000831
:104EA000879A0008630B00086D0B0008909A0008B1
:104EB000D1140008830B00088D0B0008970B000825
:104EC000AD0B0008B70B0008A19A0008CD0B000835
:104ED000D70B0008AA9A0008ED0B0008F70B000892
:104EE000B69A0008989A00080D0C0008170C0008E4
:104EF000909B00082D0C0008370C00084D0C000892
:104F0000E3602146C44BA3603046FDF768FA5F9A20
:104F10000C92609A0A92659A0D92DAF80420BF4BBF
:104F20000E924FF48071089AC5F8143D0DF5F460A7
:104F3000C5F81C2DA5F8181D00F608503946FDF7D8
:104F400029FA0DF5F460594600F66850FDF747FA66
:104F50000DF5F460314600F67850FDF740FA0C9AF2
:104F6000C5F8A02D0DF5F4610A9AC5F8A42D01F637
:104F7000F8430D9AC5F8A82DC5F8B03D0E9A95F8DE
:104F8000103DC5F8AC2D85F8B43D3046FCF75BFB11
:104F90002046FCF758FB5846FCF755FB71A8FCF778
:104FA00052FB3846FCF7E4FEEB6F41461B8AA5F83E
:104FB000B83D3846FDF7EEF999495FA8FCF7D9FDF1
:104FC00098495046FCF7D5FD974B749371A9974BC0
:104FD000719558467393FDF702FA954B2560E3608F
:104FE0002146944BA3603046FDF7F9F9CDE906B6AA
:104FF0004FF47A63ADF814300DF5AA530393ADF86E
:1050000010909AE803000B9AC2E900010DF5F460D4
:10501000609B089900933A465F9B00F6A450FDF709
:105020001DFD3046FCF70FFB2046FCF70CFB5846F5
:10503000FCF709FB71A8FCF706FB3846FCF798FE65
:10504000EB6F41461B7D85F8603E3846FDF7A2F9BF
:1050500079495FA8FCF78DFD78495046FCF789FD3A
:10506000774B749371A9774B719558467393FDF7FD
:10507000B6F9754B2560E3602146744BA36030465A
:10508000FDF7ADF9724BC5F8643E5F9A0A9246F29D
:105090000243A5F8683E609A089BC5F86C3E0DF582
:1050A000AF500B923946659A0C921830DAF80480AA
:1050B000FDF770F90DF5B25059461830FDF78FF92C
:1050C0000DF5B3500DF5F16531460830FDF787F960
:1050D0000A9BC5F8F03E0B9BC5F8F43E0DF5AF53A7
:1050E00008330C9AC5F8003F95F8603EC5F8F82ED5
:1050F00085F8043FC5F8FC8E3046FCF7A4FA20463C
:10510000FCF7A1FA5846FCF79EFA71A8FCF79BFA47
:105110003846FCF72DFEEB6F5B8AA5F8083F0DF6CD
:105120002403194638460893FDF734F949495FA826
:10513000FCF71FFD48495046FCF71BFD474B749395
:1051400071A9474B739358467195FDF748F9454B44
:10515000E3602146444B25603046A360FDF73FF9EC
:105160004FF4FA63ADF81430CDE906B60DF5B4533B
:105170004FF064021033ADF8102003939AE8030057
:1051800001AB0A9383E803000DF5F368609B00937D
:105190000DF5B4503A465F9B41461430FDF75EFC76
:1051A0003046FCF750FA2046FCF74DFA5846FCF71B
:1051B0004AFA71A8FCF747FA3846FCF7D9FD089976
:1051C000C5F8B09F3846FDF7E5F8284B6595514680
:1051D000CAF80C305FA8264BCAF80830FDF7FFF874
:1051E00005236B93234B7395CBE90135224BCBF809
:1051F0001430224BCBF8103008237193204B72935C
:10520000204B7693204B7593102377931F4BC6E961
:1052100001351F4B73613DE0650C00086083000899
:10522000C19A0008199A00087B0C0008850C000838
:105230009B0C0008AD0C0008D29A00088F9B000858
:10524000C30C0008CD0C0008E30C0008F50C0008A6
:1052500024830008E39A0008F39A00080B0D000865
:10526000150D00082B0D00083D0D0008530D00081A
:105270007F0D0008F79A0008950D0008AF0D000893
:10528000FD9A0008C50D0008D50D0008069B000812
:10529000D3140008BB4B33610F232360BA4BC4E91E
:1052A0000135BA4B6361BA4B23610DF5B95071AB4F
:1052B0003A464146CDE900B3CDE902645FAB1C300C
:1052C000FDF782FB0998FCF7BEF979A8FCF7BBF95A
:1052D00073A8FCF7B8F96DA8FCF7B5F95FA8FCF75F
:1052E000B2F95046FCF7AFF93846FCF741FD089992
:1052F0003846FDF74FF8A7495FA8FCF73AFCA649E6
:105300005046FCF736FCA54B749371A9A44B7393DC
:1053100058467195FDF763F8A24BE3602146A24B16
:1053200025603046A360FDF75AF8FF23ADF814302E
:105330004FF00103ADF81030CDE906B60DF5B953C5
:10534000183303939AE803000A9B83E8030005F5EA
:105350008450609B00933A465F9B41461430FDF7B2
:105360007DFB3046FCF76FF92046FCF76CF9584698
:10537000FCF769F971A8FCF766F93846FCF7F8FC08
:105380002846FCF7ADF9D5F8940003681B689847E8
:10539000EB6E93F8302022B9FEE769F38A23FEF71B
:1053A000DDBB824A226020326260814A84F810901C
:1053B000136884F8119013F0010FC4E90299C4F83E
:1053C0001C90C4F82C90C4F83C90C4F84C90C4F8DD
:1053D0005C90784B05D1784D0C21C3E90051012137
:1053E0001160DFF80482D8F8302042F00102C8F8DA
:1053F00030201A6811686FF319611160D1686FF37A
:1054000019610025D160201D4FF001096366C4E9D0
:105410001A5984F8705084F87150FCF761F90DF551
:105420009563CDF83434654BFB603946644BBB6003
:1054300004F11400FDF773FB3846FCF704F9614BE7
:10544000614A3D74C7E90255CDF8343420337B609E
:1054500013687D7413F0010F08BF5C485C4BFD615D
:1054600004BF0721C3E90001FD62FD63FD64FD6522
:1054700008BFC2F80090D8F83020564D42F0020222
:10548000C8F830201A68DFF8648111686FF38F3133
:105490001160D1686FF38F31D16000247B660DF508
:1054A00087600123C7E91A4387F8704087F8714085
:1054B000FCF716F90DF595637793474BF36031468A
:1054C000464BB3600DF58960FDF729FB3046FCF7CC
:1054D000BAF8434B3473C6E90144304677934FF42E
:1054E000FA73346174613361FCF7FAF83D4CBDF82E
:1054F0008437BDF85020ADF84C30DBB2ADF804264F
:105500001A0701D59F0705D49DF84C30580725D5BB
:10551000990723D4002340468DF83835FDF7D6FC93
:105520009DF84C30DA071FD59B0713A818D5FBF759
:1055300027FFC8B93046FCF7A7F801462046FCF71C
:1055400063F813A8FBF71CFFC0B13046FCF79CF8CA
:1055500001462846FCF758F830BFC8E70123DAE7D0
:10556000FBF70EFF074618B12046FBF7C5FFE8E73B
:105570002046FBF7BBFF8DF8E474E2E72846FBF713
:10558000BBFFE9E7EB0D0008179B0008BF140008FC
:10559000010E0008279B0008909B0008170E0008CA
:1055A000210E0008370E0008570E00081885000865
:1055B0001C01002020010020000002400903000817
:1055C0001503000844850008100100200004024073
:1055D00014010020A40200202B0300083B03000854
:1055E000A0820008B002002000380240BC02002067
:1055F00038B505460C46FDF772FAAB68A268AA609A
:10560000A360E268EB68EA60E36038BD30B5044649
:1056100089B00846002369460293FFF7E9FF236833
:105620005C6F2368694604A81D69FDF7AFF904A9FA
:105630002046A84704A8FCF706F86846FCF703F8DC
:1056400009B030BD30B5044689B00846002369462C
:105650000293FFF7CDFF23681C6F2368694604A8F7
:105660001D69FDF793F904A92046A84704A8FBF794
:10567000EAFF6846FBF7E7FF09B030BD1FB50446F7
:105680006846FDF783F921466846FFF7B1FF684693
:10569000FBF7D9FF204604B010BD08B55430FFF722
:1056A000EDFF08BD08B55430FFF7E8FF08BD08B5A9
:1056B0005430FFF7E3FF08BD08B55430FFF7DEFFB5
:1056C00008BD08B55430FFF7D9FF08BD1FB550B16C
:1056D0006846FCF784FE029B13B16846FDF78CF820
:1056E0006846FBF7B0FF05B05DF804FB07B58268BC
:1056F00001910AB902F015F9C36801A9984703B0EE
:105700005DF804FB7FB50446406EFBF773FF08B9F4
:10571000A36E8BB3606EFBF76DFF054680BB637CA9
:1057200063BB94F8706004F124016846FCF757FEEF
:1057300069463046FFF7CAFF6846FBF784FF637C83
:1057400033B994F870501DB194F8715085F001058B
:1057500004F134016846FCF742FE69462846FFF72B
:10576000B5FF6846FBF76FFF00230122C4E91A3238
:1057700084F8703084F8713004B070BD0646D2E70A
:10578000A36E0133092BA36622D994F870208AB93D
:10579000657C012384F870305D4004F11401684693
:1057A000FCF71DFE28466946FFF790FF6846FBF7A9
:1057B0004AFFE1E7B3F57A7F0AD394F871203AB94A
:1057C000657C012384F871305D4004F14401E6E713
:1057D000E26D002AD0D0B3F57A7FCDD9B3F5FA6F58
:1057E0000CD8C821B3FBF1F201FB1233002BC3D15B
:1057F000012104F15400FFF779FFBDE740F6B8320C
:10580000934201D86421EDE7B3F57A6F01D83221D4
:10581000E8E71921B3FBF1F201FB123241F28831C2
:105820008B4202D8002AA7D1E2E7002AA4D1E16E78
:1058300004F15400FFF75AFFA16E4FF47A72B1FBE6
:10584000F2F302FB1313002B96D1E36E0133E366F0
:1058500092E7A0F1040055E77FB50446406EFBF7E0
:10586000C9FE08B9A36E8BB3606EFBF7C3FE054695
:1058700080BB637C63BB94F8706004F124016846CC
:10588000FCF7ADFD69463046FFF720FF6846FBF7A1
:10589000DAFE637C33B994F870501DB194F87150FE
:1058A00085F0010504F134016846FCF798FD69466E
:1058B0002846FFF70BFF6846FBF7C5FE00230122D1
:1058C000C4E91A3284F8703084F8713004B070BDC5
:1058D0000646D2E7A36E0133092BA36622D994F8BA
:1058E00070208AB9657C012384F870305D4004F132
:1058F00014016846FCF773FD28466946FFF7E6FE8B
:105900006846FBF7A0FEE1E7B3F57A7F0AD394F887
:1059100071203AB9657C012384F871305D4004F14F
:105920004401E6E7E26D002AD0D0B3F57A7FCDD905
:10593000B3F5FA6F0CD8C821B3FBF1F201FB1233B7
:10594000002BC3D1012104F15400FFF7CFFEBDE7C6
:1059500040F6B832934201D86421EDE7B3F57A6F8F
:1059600001D83221E8E71921B3FBF1F201FB123231
:1059700041F288318B4202D8002AA7D1E2E7002AFF
:10598000A4D1E16E04F15400FFF7B0FEA16E4FF414
:105990007A72B1FBF2F302FB1313002B96D1E36E84
:1059A0000133E36692E7A0F1040055E77FB50446B2
:1059B000406EFBF71FFE08B9A36E8BB3606EFBF75A
:1059C00019FE054680BB637C63BB94F8706004F1EC
:1059D00024016846FCF703FD69463046FFF776FE72
:1059E0006846FBF730FE637C33B994F870501DB104
:1059F00094F8715085F0010504F134016846FCF714
:105A0000EEFC69462846FFF761FE6846FBF71BFE81
:105A100000230122C4E91A3284F8703084F871300E
:105A200004B070BD0646D2E7A36E0133092BA3660E
:105A300022D994F870208AB9657C012384F87030EB
:105A40005D4004F114016846FCF7C9FC284669462C
:105A5000FFF73CFE6846FBF7F6FDE1E7B3F57A7F1A
:105A60000AD394F871203AB9657C012384F8713027
:105A70005D4004F14401E6E7E26D002AD0D0B3F5C1
:105A80007A7FCDD9B3F5FA6F0CD8C821B3FBF1F208
:105A900001FB1233002BC3D1012104F15400FFF7A5
:105AA00025FEBDE740F6B832934201D86421EDE708
:105AB000B3F57A6F01D83221E8E71921B3FBF1F28F
:105AC00001FB123241F288318B4202D8002AA7D161
:105AD000E2E7002AA4D1E16E04F15400FFF706FECC
