:020000040800F2
:1000000000000220A1810008F1810008F1810008B0
:10001000F1810008F1810008F18100080000000072
:10002000000000000000000000000000F181000856
:10003000F181000800000000F18100086516000849
:100040004D180008BD1800084F1800085118000886
:1000500053180008551800085718000859180008C8
:100060005B1800085D1800085F18000835190008C3
:10007000511900086D19000889190008A519000810
:10008000C1190008DD19000861180008631800088C
:100090006518000867180008691800086B18000840
:1000A0009F180008A1180008A3180008A518000848
:1000B000A7180008A9180008AB1800086D18000858
:1000C0006F1800087118000873180008F51A000866
:1000D000011B0008E1180008FD18000819190008A4
:1000E000751800087718000879180008B318000878
:1000F000B5180008B7180008B9180008F919000861
:100100007B1800087D180008AD1800080D1B0008BA
:100110007F18000881180008AF180008B1180008FF
:10012000151A0008311A00084D1A0008691A00084B
:10013000851A000800000000000000008318000875
:100140008518000887180008891800088B1800080F
:10015000A11A0008BD1A0008D91A00088D18000855
:100160008F180008911800089318000895180008C7
:10017000971800089918000800000000000000000F
:080180009B1800089D180008FF
:1001900010B5054C237833B9044B13B10448AFF3C1
:1001A00000800123237010BD6800002000000000C3
:1001B0005C8B000808B5034B1BB103490348AFF340
:1001C000008008BD000000006C0000205C8B00086F
:1001D000034613F8012B002AFBD1181A0138704787
:1001E00001F0FF01102A2BDB10F0070F08D010F8E8
:1001F000013B013A8B422DD010F0070F42B3F6D1EC
:10020000F0B441EA012141EA014122F007047FF004
:1002100000070023F0E80256083C85EA010586EA5B
:10022000010685FA47F5A3FA87F586FA47F6A5FA97
:1002300087F68EB9EED1F0BC01F0FF0102F00702A3
:1002400032B110F8013B013A83EA010313B1F8D14E
:100250000020704701387047002D06BF354603382F
:10026000073815F0010F07D1013015F4807F02BF68
:10027000013015F4C03F0130F0BC0138704700BFB9
:100280004209012300F01F0003FA00F0014B43F87C
:100290002200704700E100E0436901334361704789
:1002A00070477047012A03D0022A03D0002070470C
:1002B0000160FBE70B680360F8E77047012A03D091
:1002C000022A03D0002070470160FBE70B6803603F
:1002D000F8E7012A03D0022A03D00020704701600A
:1002E000FBE70B680360F8E770B50546D0F89800A7
:1002F00003680C469B689847C5F8984023682046D9
:100300001B68BDE87040184703681A7F82F001023D
:100310001A7742681278520744BFB3F81C22A3F838
:100320009C207047012A034603D0022A03D00020F4
:1003300070470160FBE703C983E80300F7E7036840
:1003400093F83C2082F0010283F83C204268127846
:10035000120744BFB3F81C22A3F89C207047012A5F
:10036000034603D0022A03D0002070470160FBE758
:1003700003C983E80300F7E7D0E9003010B502684D
:1003800003EB8203541C0460196110BD012A03D0E1
:10039000022A03D0002070470160FBE70B6803606E
:1003A000F8E7012A03D0022A03D000207047016039
:1003B000FBE70B680360F8E7012A03D0022A03D0A9
:1003C000002070470160FBE70B680360F8E7012A33
:1003D00003D0022A03D0002070470160FBE70B68BE
:1003E0000360F8E7012A03D0022A03D000207047F7
:1003F0000160FBE70B680360F8E7012A03D0022ADB
:1004000003D0002070470160FBE70B680360F8E74A
:10041000006800F5E471FFF767BF012A03D0022AE4
:1004200003D0002070470160FBE70B680360F8E72A
:1004300010B50446006800F58071FFF755FF23688A
:10044000D3F88030012283F8502110BD012A03D057
:10045000022A03D0002070470160FBE70B680360AD
:10046000F8E710B50446006800F53871FFF73CFF67
:100470002268D2F88010002381F8B031D2F88010C1
:1004800081F8F031D2F8802082F8503210BD012A74
:1004900003D0022A03D0002070470160FBE70B68FD
:1004A0000360F8E7006800F28441FFF71DBF012AEE
:1004B00003D0022A03D0002070470160FBE70B68DD
:1004C0000360F8E7006800F57771FFF70DBF012AB8
:1004D00003D0022A03D0002070470160FBE70B68BD
:1004E0000360F8E7006800F60C31FFF7FDBE012A53
:1004F00003D0022A03D0002070470160FBE70B689D
:100500000360F8E7006800F65C21FFF7EDBE012A02
:1005100003D0022A03D0002070470160FBE70B687C
:100520000360F8E710B50446006800F57461FFF752
:10053000DBFE2268D2F88010002381F89031D2F8D7
:10054000802082F8703110BD012A03D0022A03D026
:10055000002070470160FBE70B680360F8E7006864
:10056000D0F88020012382F8D030D0F8802082F8A3
:10057000B031D0F8802082F8B030D0F8802082F8F6
:10058000F031D0F8802082F8F030D0F8802000F5EB
:10059000E47182F85032FFF7A7BE012A03D0022A85
:1005A00003D0002070470160FBE70B680360F8E7A9
:1005B0000368D3F88020B2F8BC2183F8D822006801
:1005C00000F5A561FFF790BE012A03D0022A03D0EF
:1005D000002070470160FBE70B680360F8E70368E1
:1005E000D3F88020B2F85C22A3F8DC22006800F285
:1005F000CC51FFF779BE012A03D0022A03D0002094
:1006000070470160FBE70B680360F8E70368D3F805
:100610008020B2F8FC21A3F8DA22006800F5CE6150
:10062000FFF762BE012A03D0022A03D000207047E0
:100630000160FBE70B680360F8E70068D0F88020F2
:10064000002382F89032D0F8802000F5E36182F830
:10065000B032FFF749BE012A03D0022A03D000209E
:1006600070470160FBE70B680360F8E7006800F67D
:10067000B811FFF739BE012A03D0022A03D00020A7
:1006800070470160FBE70B680360F8E7006800F55E
:10069000E471FFF729BE012A03D0022A03D000200B
:1006A00070470160FBE70B680360F8E70068D0F86B
:1006B000882090F8D8331178003318BF012363F3F2
:1006C00082011170D0F88030002283F85021D0F8D8
:1006D0008830D0F880201B78C3F3800383F00103B7
:1006E00082F89030D0F88030B3F81C22A3F89C2018
:1006F00000F5E471FFF7F8BD012A03D0022A03D008
:10070000002070470160FBE70B680360F8E70068B2
:1007100000F5E471FFF7E8BD012A03D0022A03D0F7
:10072000002070470160FBE70B680360F8E7006892
:10073000D0F8883090F880141A7861F3C3021A70E8
:10074000D0F88030002283F85021D0F88830D0F8DB
:1007500080201B78C3F3C00383F0010382F890303C
:10076000D0F88030B3F81C22A3F89C2000F5E47187
:10077000FFF7BABD012A03D0022A03D00020704738
:100780000160FBE70B680360F8E7006800F538716B
:10079000FFF7AABD012A03D0022A03D00020704728
:1007A0000160FBE70B680360F8E70068D0F8803071
:1007B00090F8D822A3F8DC20D0F88030002283F80B
:1007C000D02000F53871FFF78FBD012A03D0022A2F
:1007D00003D0002070470160FBE70B680360F8E777
:1007E000006800F53871FFF77FBD012A03D0022AA7
:1007F00003D0002070470160FBE70B680360F8E757
:100800000068D0F88030B0F8DC22A3F8FC20D0F8E3
:100810008030002283F8F02000F53871FFF764BDC6
:10082000012A03D0022A03D0002070470160FBE7B1
:100830000B680360F8E7006800F53871FFF754BDF6
:10084000012A03D0022A03D0002070470160FBE791
:100850000B680360F8E70068D0F88030B0F8DA225F
:10086000A3F8BC20D0F88030002283F8B02000F537
:100870003871FFF739BD012A03D0022A03D00020C6
:1008800070470160FBE70B680360F8E70068D0F889
:100890008020012382F81031D0F8802082F8303196
:1008A000D0F8802082F89032D0F8802000F5E471F2
:1008B00082F8B032FFF718BD012A03D0022A03D014
:1008C000002070470160FBE70B680360F8E70068F1
:1008D00000F5FC61FFF708BD012A03D0022A03D00E
:1008E000002070470160FBE70B680360F8E70368CE
:1008F000D3F88020B2F89C22A3F81427006800F6F1
:100900006C01FFF7F1BC012A03D0022A03D00020BA
:1009100070470160FBE70B680360F8E70368D3F8F2
:100920008020B2F8BC22A3F81627006800F51161F8
:10093000FFF7DABC012A03D0022A03D00020704757
:100940000160FBE70B680360F8E7006800F5E3610E
:10095000FFF7CABC012A03D0022A03D00020704747
:100960000160FBE70B680360F8E7006800F5E361EE
:10097000FFF7BABC012A03D0022A03D00020704737
:100980000160FBE70B680360F8E70068D0F880308F
:10099000B0F81427A3F81C21D0F88030002283F887
:1009A000102100F5E361FFF79FBC012A03D0022A62
:1009B00003D0002070470160FBE70B680360F8E795
:1009C000006800F5E361FFF78FBC012A03D0022A1B
:1009D00003D0002070470160FBE70B680360F8E775
:1009E0000068D0F88030B0F81627A3F83C21D0F882
:1009F0008030002283F8302100F5E361FFF774BCFA
:100A0000012A03D0022A03D0002070470160FBE7CF
:100A10000B680360F8E7006800F53871FFF764BC05
:100A2000012A03D0022A03D0002070470160FBE7AF
:100A30000B680360F8E70068C36F90F8B4295A7533
:100A400000F53871FFF750BC012A03D0022A03D009
:100A5000002070470160FBE70B680360F8E700685F
:100A600000F5E471FFF740BC012A03D0022A03D04D
:100A7000002070470160FBE70B680360F8E77047F0
:100A8000012A08BF016000207047012A03D0022A12
:100A900003D0002070470160FBE70B680360F8E7B4
:100AA000006800F5E471FFF71FBC012A03D0022A99
:100AB00003D0002070470160FBE70B680360F8E794
:100AC000006800F6BC31FFF70FBC012A03D0022AF0
:100AD00003D0002070470160FBE70B680360F8E774
:100AE000012A08BF016000207047006800F60C3141
:100AF000FFF7FABB012A03D0022A03D00020704777
:100B00000160FBE70B680360F8E7006800F54A61E5
:100B1000FFF7EABB012A03D0022A03D00020704766
:100B20000160FBE70B680360F8E7006800F64851D6
:100B3000FFF7DABB012A03D0022A03D00020704756
:100B40000160FBE70B680360F8E7006800F55F6190
:100B5000FFF7CABB012A03D0022A03D00020704746
:100B60000160FBE70B680360F8E7006800F6986136
:100B7000FFF7BABB012A03D0022A03D00020704736
:100B80000160FBE70B680360F8E7006800F6BC3122
:100B9000FFF7AABB012A03D0022A03D00020704726
:100BA0000160FBE70B680360F8E7006890F89C3C85
:100BB000C26F003318BF0123D37500F6BC31FFF7B5
:100BC00093BB012A03D0022A03D0002070470160A2
:100BD000FBE70B680360F8E7006800F6BC31FFF73D
:100BE00083BB012A03D0022A03D000207047016092
:100BF000FBE70B680360F8E70068C36FB0F8442DAB
:100C00001A8200F6BC31FFF76FBB012A03D0022A1B
:100C100003D0002070470160FBE70B680360F8E732
:100C2000006800F6BC31FFF75FBB012A03D0022A3F
:100C300003D0002070470160FBE70B680360F8E712
:100C40000068C36F90F8EC2D1A7500F6BC31FFF701
:100C50004BBB012A03D0022A03D000207047016059
:100C6000FBE70B680360F8E7006800F6BC31FFF7AC
:100C70003BBB012A03D0022A03D000207047016049
:100C8000FBE70B680360F8E70068C36FB0F8942EC9
:100C90005A8200F6BC31FFF727BB012A03D0022A93
:100CA00003D0002070470160FBE70B680360F8E7A2
:100CB0000068D0F88020012382F89031D0F880209D
:100CC00082F87030D0F8802082F87031D0F880201F
:100CD00000F5E47182F85030FFF706BB012A03D01B
:100CE000022A03D0002070470160FBE70B68036015
:100CF000F8E70368D3F88020B2F89C21A3F83C2FD2
:100D0000006800F58151FFF7EFBA012A03D0022AEB
:100D100003D0002070470160FBE70B680360F8E731
:100D20000268D2F88C301B785B09A2F83E3F70470E
:100D3000012A03D0022A03D0002070470160FBE79C
:100D40000B680360F8E7012A03D0022A03D00020D1
:100D500070470160FBE70B680360F8E7012A03D0E6
:100D6000022A03D0002070470160FBE70B68036094
:100D7000F8E7006800F57461FFF7B6BA012A03D0FE
:100D8000022A03D0002070470160FBE70B68036074
:100D9000F8E70068D0F88030B0F83C2FA3F87C204A
:100DA000D0F88030002283F8702000F57461FFF7DE
:100DB0009BBA012A03D0022A03D0002070470160A9
:100DC000FBE70B680360F8E7C36F0133C367704745
:100DD0000022027042707047002202704270704719
:100DE0000022027042707047002202704270704709
:100DF00000220270427070470022027042707047F9
:100E000000220270427070470022027042707047E8
:100E100000220270427070477047704770477047F9
:100E2000704770477047704770477047012A03D07A
:100E3000022A03D0002070470160FBE70B680360C3
:100E4000F8E703689A6FB2F89C300A33A2F89C3036
:100E50007047012A03D0022A03D0002070470160A6
:100E6000FBE70B680360F8E703689A6FB2F89C3001
:100E70000A3BA2F89C307047012A03D0022A03D013
:100E8000002070470160FBE70B680360F8E7012A68
:100E900003D0022A03D0002070470160FBE70B68F3
:100EA0000360F8E7012A03D0022A03D0002070472C
:100EB0000160FBE70B680360F8E7012A03D0022A10
:100EC00003D0002070470160FBE70B680360F8E780
:100ED000012A03D0022A03D0002070470160FBE7FB
:100EE0000B680360F8E7012A03D0022A03D0002030
:100EF00070470160FBE70B680360F8E7012A03D045
:100F0000022A03D0002070470160FBE70B680360F2
:100F1000F8E7012A03D0022A03D0002070470160BD
:100F2000FBE70B680360F8E7012A03D0022A03D02D
:100F3000002070470160FBE70B680360F8E7012AB7
:100F400003D0022A03D0002070470160FBE70B6842
:100F50000360F8E7012A03D0022A03D0002070477B
:100F60000160FBE70B680360F8E7012A03D0022A5F
:100F700003D0002070470160FBE70B680360F8E7CF
:100F8000012A03D0022A03D0002070470160FBE74A
:100F90000B680360F8E7012A03D0022A03D000207F
:100FA00070470160FBE70B680360F8E7012A03D094
:100FB000022A03D0002070470160FBE70B68036042
:100FC000F8E7012A03D0022A03D00020704701600D
:100FD000FBE70B680360F8E7012A03D0022A03D07D
:100FE000002070470160FBE70B680360F8E7012A07
:100FF00003D0022A03D0002070470160FBE70B6892
:101000000360F8E7012A03D0022A03D000207047CA
:101010000160FBE70B680360F8E7012A03D0022AAE
:1010200003D0002070470160FBE70B680360F8E71E
:10103000012A03D0022A03D0002070470160FBE799
:101040000B680360F8E7012A03D0022A03D00020CE
:1010500070470160FBE70B680360F8E7012A03D0E3
:10106000022A03D0002070470160FBE70B68036091
:10107000F8E7012A03D0022A03D00020704701605C
:10108000FBE70B680360F8E7012A03D0022A03D0CC
:10109000002070470160FBE70B680360F8E7012A56
:1010A00003D0022A03D0002070470160FBE70B68E1
:1010B0000360F8E7012A03D0022A03D0002070471A
:1010C0000160FBE70B680360F8E7012A03D0022AFE
:1010D00003D0002070470160FBE70B680360F8E76E
:1010E000012A03D0022A03D0002070470160FBE7E9
:1010F0000B680360F8E7012A03D0022A03D000201E
:1011000070470160FBE70B680360F8E7012A03D032
:10111000022A03D0002070470160FBE70B680360E0
:10112000F8E7012A03D0022A03D0002070470160AB
:10113000FBE70B680360F8E7012A03D0022A03D01B
:10114000002070470160FBE70B680360F8E7012AA5
:1011500003D0022A03D0002070470160FBE70B6830
:101160000360F8E7012A03D0022A03D00020704769
:101170000160FBE70B680360F8E7012A03D0022A4D
:1011800003D0002070470160FBE70B680360F8E7BD
:10119000012A03D0022A03D0002070470160FBE738
:1011A0000B680360F8E7012A03D0022A03D000206D
:1011B00070470160FBE70B680360F8E7012A03D082
:1011C000022A03D0002070470160FBE70B68036030
:1011D000F8E7012A03D0022A03D0002070470160FB
:1011E000FBE70B680360F8E7012A03D0022A03D06B
:1011F000002070470160FBE70B680360F8E7012AF5
:1012000003D0022A03D0002070470160FBE70B687F
:101210000360F8E7012A03D0022A03D000207047B8
:101220000160FBE70B680360F8E7012A03D0022A9C
:1012300003D0002070470160FBE70B680360F8E70C
:10124000012A03D0022A03D0002070470160FBE787
:101250000B680360F8E7012A03D0022A03D00020BC
:1012600070470160FBE70B680360F8E7012A03D0D1
:10127000022A03D0002070470160FBE70B6803607F
:10128000F8E7012A03D0022A03D00020704701604A
:10129000FBE70B680360F8E7012A03D0022A03D0BA
:1012A000002070470160FBE70B680360F8E7012A44
:1012B00003D0022A03D0002070470160FBE70B68CF
:1012C0000360F8E7012A03D0022A03D00020704708
:1012D0000160FBE70B680360F8E7012A03D0022AEC
:1012E00003D0002070470160FBE70B680360F8E75C
:1012F0008368D96ED1F818211268D2061AD5D1F8B0
:1013000020215268002092B2C1F80001C2F1FF0012
:10131000FF2828BFFF20FF2AC1F804010AD0DA6F96
:10132000D96EC3F88020D1F80421D1F80011521AE7
:10133000C3F8902070470378C3F3001020B9C3F3BB
:10134000401008B9C3F3801070470B1A9B10002B94
:1013500010DD027812B342780AB901307047827802
:101360000AB902307047C2780AB9033070470430B6
:10137000013BECE70B1A022B0BD0032B06D0012B01
:101380000BD10378002B18BF0846704703782BB1A8
:101390000130037813B10130F3E7084670470B1AA8
:1013A0009B10002B10DD027812BB42780AB101308D
:1013B000704782780AB102307047C2780AB10330B0
:1013C00070470430013BECE70B1A022B0BD0032BC8
:1013D00006D0012B0BD10378002B08BF08467047BD
:1013E00003782BB90130037813B90130F3E70846CD
:1013F0007047FEF745BF036813B901607047134695
:101400005A68002AFBD15960704710B504462CB1C8
:10141000236820461B6898476468F8E710BD000001
:10142000A8235943037A43B10F4B9B680360994249
:1014300024BFCB1A43600023037203680A4A99420F
:1014400007D892689B1A99420CD801230372002096
:10145000704791688B4205D8536892689B1A42681E
:101460009342F2D20120704710E000E0D0F89C20B7
:101470003221531CC0F89C30B2FBF1F301FB132363
:1014800023B9D0F8980003685B6818477047704725
:101490000A1A02D0202106F006BF70477047704735
:1014A000704770470369002BBFBF034B436003F1D4
:1014B00088334360704700BF23016745D0E90021AE
:1014C00001238B4093617047D0E900120123103251
:1014D00093408B617047036810B504469869FFF725
:1014E000F3FFC8216068FFF79BFF0028F9D123684C
:1014F0009869FFF7E3FFC8216068FFF791FF0028B4
:10150000F9D110BD38B50368044618690D46FFF7D8
:10151000DBFF23686068DA699B6A53F835309361B2
:10152000FFF7D9FF23686068996ADA6901EBC501A2
:101530004B689361FFF7CFFF6421A068FFF770FF4E
:101540000028F9D138BD0000437B012B10B50446BB
:1015500022D002D3022B2AD010BD4069FFF7B4FF7E
:101560002069FFF7ABFF626B206A531C5021636355
:10157000B2FBF1F301FB1323114A52F82330C25C92
:10158000636A03EBC20053F83210E2694368916169
:10159000E36201236373DFE78069FFF78FFFA069D0
:1015A000FFF792FFE369E26A9A610223F2E780693A
:1015B000FFF784FFA069FFF787FF0023EAE700BF7A
:1015C000708E0008036841681A6901238B4013423A
:1015D00014BF01200020704770B50D460646FFF786
:1015E000F1FF5DB1D6E900420123266903FA02F159
:1015F0000E421DBF10329340A361A1616840C0B28A
:1016000070BD10B504682CB1236820461B6898474C
:10161000A468F8E710BD10B58368044613B103222F
:1016200001469847204610BD10B5044B044640F8CB
:10163000343BFFF7F0FF204610BD00BFA0A3000819
:1016400010B504460830FFF7DCFFD4E90421531C31
:101650002361B2FBF1F301FB132313B92046FFF71B
:10166000D0FF10BD0148FFF7EBBF00BFB40500205D
:10167000426903699A424FF0000326BF436101208B
:1016800018467047037BC3B100230373D0E90123DD
:101690006AB143B1936083685A600023C0E90133A3
:1016A00070470B60F8E7054993604A60F5E7034926
:1016B000002BF6D1C1E90033EFE77047B4050020F5
:1016C00000224261FFF7DEBF037B53B9012303739E
:1016D000044B5A68426002B190601A68586002B9BF
:1016E00018607047B40500200B2A10B501D0102AED
:1016F00015D1204B9A68C2F34232D2B1042A1AD0D3
:10170000052A1AD01C4B1D4C062A08BF2346072960
:101710001AD8DFE801F0141A1D202326292C0C3AD0
:10172000032A04D8134B9A68C2F38222E5E7002308
:10173000EDE7134BEBE7134BE9E7134BE7E74FF408
:101740001652B3FBF2F3836010BD4FF46152F8E719
:101750004FF49642F5E74FF4E142F2E74FF41642B8
:10176000EFE74FF46142ECE74FF49632E9E74FF4CC
:10177000E132E6E700380240A037A000406F4001A8
:10178000007A030A00BD010580DE800219B90068F5
:10179000C0F340107047012903D10068C0F3C02096
:1017A0007047022903D10068C0F3405070470329F5
:1017B00003D10068C0F3C0607047042901D14068BC
:1017C000E6E7052901D14068E8E7062901D140682C
:1017D000EAE7072901D14068ECE70020704770B5BF
:1017E0008668F36E93F82811D3F81401FFF7CEFF43
:1017F00058B3F46E0025C4F80051C4F80451D4F86D
:101800001001FFF761FED4F81C311A6865F300027D
:101810001A60D4F820311A6865F300021A60FF22BA
:101820005A60D4F820311A6842F001021A601A682E
:10183000D207FCD5D4F81821D36843F01003D36045
:101840003046BDE87040FFF73FBF70BDFEE7FEE7E2
:10185000FEE7FEE7FEE7FEE7FEE7FEE7FEE7FEE760
:10186000FEE7FEE7FEE7FEE7FEE7FEE7FEE7FEE750
:10187000FEE7FEE7FEE7FEE7FEE7FEE7FEE7FEE740
:10188000FEE7FEE7FEE7FEE7FEE7FEE7FEE7FEE730
:10189000FEE7FEE7FEE7FEE7FEE7FEE7FEE7FEE720
:1018A000FEE7FEE7FEE7FEE7FEE7FEE7FEE7FEE710
:1018B000FEE7FEE7FEE7FEE7FEE7000010B5064C98
:1018C0006269D30303D5054B1868FFF79EFD4FF4FB
:1018D0008033636110BD00BF003C014074050020EF
:1018E00008B5044B1868FFF790FD034B1A685B6856
:1018F00008BD00BF940500200010014008B5044B4E
:101900001868FFF782FD034B1A685B6808BD00BFCB
:101910009C0500200044004008B5044B1868FFF700
:1019200074FD034B1A685B6808BD00BFA405002066
:101930000048004008B5044B1868FFF766FD034BEC
:101940003D229A6008BD00BFF40400200060024000
:1019500008B5044B1868FFF758FD034B4FF4746249
:101960009A6008BDFC0400200060024008B5044BEA
:101970001868FFF74AFD034B4FF474129A6008BDD4
:10198000040500200060024008B5044B1868FFF70A
:101990003CFD034B4FF074629A6008BD0C050020BB
:1019A0000060024008B5044B1868FFF72EFD034B9A
:1019B0004FF47462DA6008BD140500200060024034
:1019C00008B5044B1868FFF720FD034B4FF4746211
:1019D000DA6008BD1C0500200060024008B5044B19
:1019E0001868FFF712FD034B4FF47412DA6008BD5C
:1019F000240500200060024008B5044B1868FFF77A
:101A000004FD034B4FF07462DA6008BD2C05002022
:101A10000060024008B5044B1868FFF7F6FC034B62
:101A20003D229A6008BD00BF3405002000640240DA
:101A300008B5044B1868FFF7E8FC034B4FF47462D9
:101A40009A6008BD3C0500200064024008B5044BC4
:101A50001868FFF7DAFC034B4FF474129A6008BD64
:101A6000440500200064024008B5044B1868FFF7E5
:101A7000CCFC034B4FF074629A6008BD4C0500200B
:101A80000064024008B5044B1868FFF7BEFC034B26
:101A90003D22DA6008BD00BF54050020006402400A
:101AA00008B5044B1868FFF7B0FC034B4FF47462A1
:101AB000DA6008BD5C0500200064024008B5044BF4
:101AC0001868FFF7A2FC034B4FF47412DA6008BDEC
:101AD000640500200064024008B5044B1868FFF755
:101AE00094FC034B4FF07462DA6008BD6C05002073
:101AF00000640240014B1868FFF787BC7C0500209A
:101B0000014B1868FFF781BC84050020014B186861
:101B1000FFF77BBC8C050020026810B5541C024402
:101B20000460517204685021B4FBF1F201FB1242CF
:101B3000026010BD10B504681421B4FBF1F201FB82
:101B40001242034612B92021FFF7E6FF1424196858
:101B5000B1FBF4F204FB121222B120211846FFF768
:101B6000DBFFF4E7184610BD08B503461A6822B13A
:101B700020211846FFF7D0FFF8E7184608BD38B512
:101B800005460C46084609B1FEF722FBC5E90004EC
:101B9000284638BD10B514240368B3FBF4F304FBE6
:101BA00003115024B1FBF4F304FB1311016010BDC9
:101BB00038B50468D4F8AC30F3B1013BC4F8AC30AC
:101BC000D4F8A830606814256B4303600F21FFF739
:101BD000E1FF2021FFF7A0FFD4F8A8306068013BA7
:101BE0005D43C4F8A8300F210560FFF7D3FF7E21C5
:101BF000BDE83840FFF790BF38BD38B50468D4F869
:101C0000AC30012B1ED00133C4F8AC30D4F8A8306E
:101C1000606814256B4303600F21FFF7BBFF202191
:101C2000FFF77AFFD4F8A830606801335D43C4F849
:101C3000A8300F210560FFF7ADFF7E21BDE83840D9
:101C4000FFF76ABF38BD437A70B5054600F10C0650
:101C50002BB100234372C1613046FFF735FD30469A
:101C6000FFF706FD012428B13046FFF729FD6C720D
:101C7000002070BD2046FCE770B58EB005AD002396
:101C8000CDE901500C93CDE90533CDE909330B9330
:101C9000394E0D930123044608968DF81D308DF8BA
:101CA0001C300090CDF80CD0049564212846FFF735
:101CB000CAFF0028F9D12069FFF706FC6069FFF729
:101CC00003FCA069FFF7FAFBA26AE369D2699A6193
:101CD0006846FFF700FC05212846FFF7B4FF0028FF
:101CE000F9D1A26AE369D2699A616846FFF7F3FB0A
:101CF00064212846FFF794FB0028F9D1A26AE36922
:101D0000D2699A616846FFF7E6FB32212846FFF761
:101D100087FB0028F9D1A26AE36952699A61684693
:101D2000FFF7D9FB32212846FFF77AFB0028F9D1CB
:101D3000282102A8FFF7E6FB0C2102A8FFF7E2FB2F
:101D4000062102A8FFF7DEFB012102A8FFF7DAFB5C
:101D5000802102A8FFF7D6FB01212846FFF773FF79
:101D60000028F9D10EA8012384F8303040F8186D0E
:101D7000FFF788FC0EB070BD948B000821B9036991
:101D800062F3020303617047012903D1036962F31F
:101D9000C503F7E7022903D1036962F38813F1E76A
:101DA000032903D1036962F34B23EBE7042903D131
:101DB000036962F30E33E5E7052903D1036962F392
:101DC000D133DFE7062903D1036962F39443D9E7EE
:101DD000072903D1036962F35753D3E7082903D1D5
:101DE000036962F31A63CDE7092903D1036962F33A
:101DF000DD63C7E70A2904D1C36862F30203C36045
:101E000070470B2903D1C36862F3C503F7E70C29B8
:101E100003D1C36862F38813F1E70D2903D1C368C6
:101E200062F34B23EBE70E2903D1C36862F30E3351
:101E3000E5E70F2903D1C36862F3D133DFE7102947
:101E400003D1C36862F39443D9E7112903D1C3686E
:101E500062F35753D3E71229D2D1C36862F31A63EE
:101E6000CDE7012904D1436B62F304034363704758
:101E7000022903D1436B62F34913F7E7032903D126
:101E8000436B62F38E23F1E7042903D1436B62F3C2
:101E9000D333EBE7052903D1436B62F31853E5E72E
:101EA000062903D1436B62F35D63DFE7072904D1A1
:101EB000036B62F3040303637047082903D1036BC8
:101EC00062F34913F7E7092903D1036B62F38E2309
:101ED000F1E70A2903D1036B62F3D333EBE70B2954
:101EE00003D1036B62F31853E5E70C2903D1036BAD
:101EF00062F35D63DFE70D2904D1C36A62F3040373
:101F0000C36270470E2903D1C36A62F34913F7E72E
:101F10000F2903D1C36A62F38E23F1E71029F0D1B0
:101F2000C36A62F3D333EBE7836A1A6842F00102B3
:101F30001A601A68D107FCD5036A9A6842F0010258
:101F40009A609A68D207FCD59A6842F080429A60FB
:101F5000704710B504465030FFF75DFB04F14000B8
:101F6000FFF759FB04F13000FFF755FB04F12000A7
:101F7000FFF751FB04F11000FFF74DFB2046FFF780
:101F80004AFB204610BD0000204B1A68052161F372
:101F900002021A60A3F580631A6842F480321A6064
:101FA0001A689203FCD59A686FF307129A609A68D0
:101FB000052161F38C229A609A68042161F34F3203
:101FC0009A609A68022060F301029A605A6861F38D
:101FD00005025A605A68A82161F38E125A605A6845
:101FE000072161F31B625A605A686FF311425A600D
:101FF0005A6842F480025A601A6842F080721A608D
:10200000034A13689B01FCD5704700BF003C0240A7
:10201000003802407B487C49F8B5036813F0010F93
:102020007CD17A4B7A4C1A6812F0010F06D1DFF896
:10203000F8E10222C4E900E201221A60754B1A6B32
:1020400042F001021A6322681568022666F305153C
:102050001560156A072666F30B251562D5686FF3C0
:102060000515D5606C4D2A6812F0010F6B4A06D138
:10207000DFF8B4C10326C2E900C601262E601D6B3D
:1020800045F001051D6313681D68022666F3871578
:102090001D601D6A072666F30F351D62DD686FF34C
:1020A0008715DD605E4D2B6813F0010F5D4B05D188
:1020B0005D4F0F26C3E9007601262E60554E356B25
:1020C00045F0010535631D682F68012666F39F778B
:1020D0002F60EF686FF39F77EF60C1F81031534BBB
:1020E000C1F81431A3F50733C1F8183103F50733EC
:1020F000A033C1F81C31183BC1F820310C23002556
:10210000C1F824310623C1F80051C1F80451C1F8C7
:102110000841C1F80C2181F8283106603D4C236C40
:1021200043F400332364D1F81831DA6842F008022E
:10213000DA60DA6842F00402DA605A6942F080023A
:102140005A615A6942F040025A61394B93F90400CE
:10215000FFF74FF9236B43F400132363D1F81C31CD
:102160001A68012060F387121A60D1F800210A442E
:10217000DA60D1F8182104329A601A6842F4806259
:102180001A601A686FF34E321A601A686FF3CC2225
:102190001A601A6842F010021A60264B93F9040084
:1021A000FFF727F9D1F820311A686FF387121A6008
:1021B000D1F800210A44DA60D1F8182104329A607B
:1021C000FF225A601A6842F480621A601A686FF33C
:1021D0004E321A601A686FF3CC221A601A6842F401
:1021E00080721A60D1F820311A68042060F35B62B3
:1021F0001A60D1F81C311A6860F35B621A600248F9
:10220000F8BD00BFBC010020C00100200403002075
:102210000803002000380240F8020020FC020020E1
:10222000EC020020F00200200000024000600240AA
:102230009C0500202405002010B50C1A134605D07B
:1022400001462246184606F015F80346181910BD37
:102250002DE9F34702AB03E906000768037A00F1B2
:1022600009080646DDE9004508EB070263B3132CB5
:1022700022D8C4F1140902EB590910464946FFF768
:1022800007F929194A462846FFF7D6FF09EB040A41
:1022900007F1140141445046FFF7FAF83368502122
:1022A0001433B3FBF1F201FB1233336000233046E9
:1022B000337202B0BDE8F087143C05EB540000F126
:1022C0001401FFF7B9FFE9E7C7F15001A14205EB9F
:1022D000040907D949462846FFF7AEFF3068044491
:1022E0003460E3E729442846FFF7A6FF3368A4F1EA
:1022F00050071F44E41B2C44502F2046424604F153
:10230000500404D92146FFF797FF503FF4E74946B0
:10231000FFF792FF336850221F44B7FBF2F302FB32
:1023200013773760C2E7000030B589B00A4604462B
:10233000114905A806F0BCF805A901A8FFF71FFC84
:102340006368019A934208D99B1A13F1FF3304D3AF
:1023500020212046FFF7E0FBF7E703AD05A928465B
:10236000FFF70DFC95E806002046FFF771FF0023FC
:102370002046636009B030BD00920008F8B50546FC
:102380000F464FF47A7691FBF6F42146FFF7CCFF27
:102390002E212846FFF7C0FB06FB14740A2394FB8A
:1023A000F3F4092C08DC00212846FFF7BDFF214685
:1023B000FFF7BAFF2846F8BD21462846F8E7000097
:1023C000F7B50446406802260660A36FB3F81C12F6
:1023D000FFF7D4FF6D46074679492846FFF7CFFB44
:1023E00095E806003846FFF733FF60680D23C0E923
:1023F0000036A36FB3F8DC11FFF796FF2521FFF736
:102400008BFB60681E23C0E90036B4F88C10FFF720
:102410008BFF6C4906462846FFF7B1FB95E806009E
:102420003046FFF715FFD4F8AC20D4F88410531CC5
:10243000496804EB42020A2BA8BF00238968602088
:10244000B1FBF0F1A2F8B410C4F8AC300023C4F82A
:10245000B03004F1B40204F1C8009042D4F8B010D6
:1024600005D032F8023B1944C4F8B010F5E7564ED7
:102470000A236422B1FBF3F13346C4F8B010002AFA
:102480000DDD501003EB800C53F82070B94204D2DC
:10249000121A0CF10403013AF1E70246EFE79B1B25
:1024A0009B10B4F88E109AB2531AD4F88810A4F87E
:1024B0008C20002B0978B8BF5B428B4207DBD4F835
:1024C00080104B7843F001034B70A4F88E20A36F6B
:1024D0003E4F93F83C30002B58D004F19000FFF7AA
:1024E000C7F894F8A830666883EA000283424FF088
:1024F000220384F8A82033600ED0E36F1B78C3F367
:10250000C003284657F82310FFF739FB95E806006B
:102510003046FFF79DFE03E020213046FFF7FCFA2E
:10252000666823233360E36F1B78C3F38003284678
:1025300057F82310FFF723FB95E806003046FFF716
:1025400087FEE26F1046FEF7F6FE18BB666820496C
:10255000142333602846FFF712FB95E80600304647
:10256000FFF776FE606816230360A36FB3F83C1292
:10257000FFF704FF174904462846FFF700FB95E8DC
:1025800006002046FFF764FE03B0F0BD6668222314
:102590003360B2E71378D90604D564680E49142372
:1025A0002360E9E79A0604D564680C491423236084
:1025B000E2E75B06E8D56468094914232360DBE79A
:1025C000D0910008D491000808920008B09100084A
:1025D000D7910008DA910008DD910008E691000823
:1025E000EF91000838B5002383608B6804460D46E0
:1025F0002BB102229847EB68E360AB68A3602046EA
:1026000038BD38B5002383608B6804460D462BB176
:1026100002229847EB68E360AB68A360204638BDB0
:1026200038B504460D46FFF7DDFF05F1100104F152
:102630001000FFF7D7FF05F1200104F12000FFF79C
:10264000D1FF05F1300104F13000FFF7CBFF05F1B8
:10265000400104F14000FFF7D4FF05F1500104F1FF
:102660005000FFF7CEFF204638BD826810B50AB98A
:1026700005F0C4FDC368BDE81040184708B5006800
:102680006830FFF7F2FF08BD08B500686830FFF753
:10269000ECFF08BD70B5816800220B4613B19A604B
:1026A0005B68FBE7D0E9042302EB43050B46954248
:1026B000144609D026889C6834449C605B680232CA
:1026C000002B08BF0B46F2E7C36B13B13430FFF7A2
:1026D000CCFF70BD08B50368D3F89C2093F8A030F8
:1026E00013700068D0F884301BB17C30FFF7BDFF59
:1026F00008BD6C30FAE708B500686C30FFF7B5FF2D
:1027000008BD08B50368D3F8DC00182202FB0030CE
:102710008030FFF7AAFF08BD08B500686830FFF7F2
:10272000A4FF08BD08B50368D3F8AC00182202FB6B
:1027300000308030FFF799FF08BD08B500686830A9
:10274000FFF793FF08BD08B50368D3F8C40018224B
:1027500002FB00308030FFF788FF08BD08B5006835
:102760006830FFF782FF08BD006808B5D0F89C30DC
:10277000B0F8A0201A80D0F884301BB17C30FFF76D
:1027800074FF08BD6C30FAE708B500686C30FFF7DD
:102790006CFF08BD08B50368D3F89C2093F8A030FF
:1027A00013700068D0F884301BB17C30FFF75DFFF8
:1027B00008BD6C30FAE708B500686C30FFF755FFCC
:1027C00008BD006808B5D0F89C3090F8A0201A70B9
:1027D000D0F884301BB17C30FFF747FF08BD6C3068
:1027E000FAE708B500686C30FFF73FFF08BD08B591
:1027F0000368D3F89C2093F8A03013700068D0F8D9
:1028000084301BB17C30FFF730FF08BD6C30FAE735
:1028100008B500686C30FFF728FF08BD08B50368ED
:10282000D3F8F400182202FB00308030FFF71DFFC0
:1028300008BD08B500686830FFF717FF08BD08B588
:102840000368D3F80C01182202FB00308030FFF738
:102850000CFF08BD08B500686830FFF706FF08BD2B
:1028600038B53B4D3B4C2B6813F0010321D13A4A5C
:1028700022603A4A226202F54072626202F5A03298
:1028800002F58872C4E90603A26235486360232218
:102890002146C4E90233C4E90433E0622263E363FE
:1028A000FEF7A9FD01232F4A2F492B60204605F092
:1028B000A0FC2E4A536C43F480735364236A596816
:1028C0006FF319615960996841F002019960996844
:1028D00041F480719960996841F400719960606A6F
:1028E000416841F440314160596841F48071596058
:1028F000116B41F48001116303F14C02A36A9A60E9
:102900001A686FF387121A601A68012161F34E3258
:102910001A601A6861F3CC221A601A6842F4806265
:102920001A601A6842F010021A601A6842F4807243
:102930001A601A6842F480721A601A686FF35B6258
:102940001A60E36A93F90400FEF753FD014838BDAD
:102950007401002078010020A0A30008002001409D
:10296000340500200000002029160008003802402D
:10297000F8B504465148524D026812F0010F1FD1BC
:10298000504A136813F0010F4F4B05D14F4F0721E9
:10299000C3E90071012111604D490A6B42F0010247
:1029A0000A631A68116841F440411160D1686FF3FD
:1029B0008F31D1600022C5E90022EB600123036062
:1029C000236B206A233B012B8CBF00260726F7B21E
:1029D000072239462E61FFF7D1F9E169206A0131FA
:1029E000E1613A46FFF73DFAD4E90732D16A013B8B
:1029F00063F31751D162A2681346002B55D01969B1
:102A00008E424DDB5B68F8E76A60E368A56003B956
:102A1000E5602069A2692F4B68B1D3F8001150F826
:102A2000045D0439491B5D18A8421ABF012183F8CF
:102A30000411C3F8001161690A4462612649D3F8A0
:102A400000518A4294BF52004FF0FF32281D1044BB
:102A5000B0F5807F03EB0501C3F800011ED893F8A1
:102A60000401D8B909B15A510431A36A21611A6825
:102A70006FF300021A60A28AD9605A601A6842F0A5
:102A800001021A601A68D207FCD50D48F8BD1A6811
:102A9000C5E900231D602B685D60BAE70021E4E70B
:102AA0009A42F4D16A601560AFE7002AACD0E368BF
:102AB0002B60002BACD05D60AAE700BF14010020A2
:102AC000180100202C0100203001002000000240ED
:102AD00000380240EC030020FCFFFF3F38B5002324
:102AE00083608B6804460D462BB102229847EB6841
:102AF000E360AB68A360204638BD826810B50AB9B0
:102B000005F07CFBC368BDE81040184730B585B0C0
:102B100004460025694608300295FFF7EEFF684637
:102B2000FEF779FD694604F118000295FFF7E5FF0D
:102B30006846FEF770FD694604F138000295FFF71C
:102B4000DCFF6846FEF767FD05B030BD30B585B0E7
:102B500004460025694608300295FFF7CEFF684617
:102B6000FEF759FD694604F118000295FFF7C5FF0D
:102B70006846FEF750FD694604F128000295FFF70C
:102B8000BCFF6846FEF747FD694604F13800029530
:102B9000FFF7B3FF6846FEF73EFD05B030BD30B528
:102BA00085B004460025694608300295FFF7A5FF69
:102BB0006846FEF730FD694604F118000295FFF7FC
:102BC0009CFF6846FEF727FD694604F12800029540
:102BD000FFF793FF6846FEF71EFD694604F13800D3
:102BE0000295FFF78AFF6846FEF715FD05B030BD78
:102BF00030B585B004460025694608300295FFF7D8
:102C00007CFF6846FEF707FD694604F1180002954F
:102C1000FFF773FF6846FEF7FEFC694604F12800E3
:102C20000295FFF76AFF6846FEF7F5FC694604F176
:102C300038000295FFF761FF6846FEF7ECFC05B02F
:102C400030BD30B585B00446002569460830029590
:102C5000FFF753FF6846FEF7DEFC694604F11800F3
:102C60000295FFF74AFF6846FEF7D5FC694604F176
:102C700028000295FFF741FF6846FEF7CCFC694645
:102C800004F138000295FFF738FF6846FEF7C3FCF1
:102C900005B030BD30B585B0044600256946083022
:102CA0000295FFF72AFF6846FEF7B5FC694604F176
:102CB00018000295FFF721FF6846FEF7ACFC694655
:102CC00004F128000295FFF718FF6846FEF7A3FC01
:102CD000694604F138000295FFF70FFF6846FEF7DA
:102CE0009AFC05B030BD30B585B004460025694674
:102CF00028300295FFF701FF6846FEF78CFC694615
:102D000004F108000295FFF7F8FE6846FEF783FC21
:102D1000694604F118000295FFF7EFFE6846FEF7DA
:102D20007AFC694604F138000295FFF7E6FE684632
:102D3000FEF771FC05B030BD1FB5224B0090044674
:102D4000694603930830204B0293FFF7D6FE68468E
:102D5000FEF761FC1D4B039369461D4B029304F182
:102D600018000094FFF7C9FE6846FEF754FC194BA3
:102D700003936946184B029304F138000094FFF75F
:102D8000BCFE6846FEF747FC60680023036004F160
:102D9000780393E80600FFF75BFAFEF7CBFE606866
:102DA00014230360D4F888301988FFF7BDFA04F1C2
:102DB000800393E80600FFF74BFA6068FEF7D4FE45
:102DC00004B010BDA3020008A5020008BB02000861
:102DD000BD0200087D260008D3020008F0B585B0CA
:102DE0006C464C4B009005462146039328304A4BD5
:102DF0000293FFF782FE2046FEF70DFC474B03933C
:102E00002146474B029305F108000095FFF775FE38
:102E10002046FEF700FC434B03932146424B0293AE
:102E200005F118000095FFF768FE2046FEF7F3FB5A
:102E30003E4B039321463E4B029305F1380000952B
:102E4000FFF75BFE2046FEF7E6FB6E68394F06F1A2
:102E5000590106F10900FEF71BFB002333606E6881
:102E6000354933602046FEF78AFE94E80600304676
:102E7000FFF7EEF96E6831490B2333602046FEF709
:102E80007EFE94E806003046FFF7E2F96E682C49B2
:102E9000142333602046FEF772FE94E806003046A5
:102EA000FFF7D6F9686802231E22C0E90023B5F8AF
:102EB0008C10FFF739FA234906462046FEF75FFEDD
:102EC00094E806003046FFF7C3F96E6822233360AA
:102ED000EB6F1B78C3F3C003204657F82310FEF7AF
:102EE0004EFE94E806003046FFF7B2F96E682323E1
:102EF0003360EB6F1B78C3F38003204657F8231031
:102F0000FEF73DFE94E806003046FFF7A1F905B054
:102F1000F0BD00BF892600082D0E0008430E0008F2
:102F2000530E0008690E0008790E00089D14000871
:102F30008F0E0008B0910008F8910008FB9100087E
:102F4000D7910008FE91000838B5002383608B6894
:102F500004460D462BB102229847EB68E360AB684C
:102F6000A360204638BD10B50B460446D1E90001E8
:102F700084E8030003F1080104F10800FFF7AEFD47
:102F8000204610BD82B038B50593184B0360BDF8DC
:102F900028308380BDF82C30C38004468160114600
:102FA0000C30099DFFF73CFB0C9904F16C00FFF716
:102FB00095FD0D9904F17C00FFF790FD05AA92E8BC
:102FC000030004F18C0307AA83E8030092E80300DE
:102FD00004F1940383E803002B88C4F89C50204636
:102FE000A4F8A030BDE8384002B07047188C000843
:102FF00038B51D46124B0446C0E900311146083071
:10300000FFF70EFB294604F16800FFF767FD0499FE
:1030100004F17800FFF7A7FF059904F19000FFF78E
:10302000A2FF069904F1A800FFF79DFF079904F19C
:10303000C000FFF798FF0023C4E93633204638BDAF
:10304000548C0008D0F80431FE2B9FBFC154D0F837
:1030500004310133C0F8043170470000F0B5C26E8E
:10306000D2F80431D2F800115C1A022C33D99942FB
:103070003EBF03F1FF33C2F80431D55CC26EDFF806
:1030800060C0D2F80431D2F80011144F28BF0025D7
:103090008B4282BF03F1FF33C2F80431D65CC36EAA
:1030A000D3F80021D3F804114FF0FF001A4498BF61
:1030B00000260B44044612F8011B414093421CF8C1
:1030C000010080EA04007C5CF5D1AC4203D1831B93
:1030D00058425841F0BD0020FCE700BFB090000806
:1030E000B08F000838B5836F1D68C36ED3F8002118
:1030F0009A5C2B799A42044611D0AB690921EA18EF
:1031000011750133032293FBF2F202EB42029B1A88
:10311000AB61D4F898300133C4F8983038BDFFF76C
:103120009DFF18B9AB691021EA18E9E7E26ED2F801
:103130000031D2F80411994284BF0133C2F8003142
:10314000E36ED3F80021D3F80411914283BF511CE0
:10315000C3F800119B5C00231B0611D5E36ED3F866
:103160000021D3F80411914282BF511CC3F8001111
:103170009A5CAB6905EB030198BF00220A75C0E7B2
:103180002B7A032BCAD1E26ED2F80031D2F80411A7
:10319000994284BF0133C2F80031E36EE868D3F886
:1031A0000021D3F80411541CA14217D9914284BFC5
:1031B000C3F800419C5CD3F8002198BF00249142E1
:1031C00083BF511CC3F800119A5C00224FF000032A
:1031D00062F3070364F30F2303809FE70023FBE7F9
:1031E00013B50B460446D0E900016A4682E80300A5
:1031F00093E8030084E8030092E8030083E80300F7
:1032000002B010BD38B505460C46FFF7E9FFAB68C4
:10321000A268AA60A360E268EB68EA60E36038BD78
:103220001FB504466846FFF759FC21466846FFF77C
:10323000E9FF6846FEF7EFF9204604B010BD08B577
:103240004430FFF7EDFF08BD08B53430FFF7E8FF65
:1032500008BD08B52430FFF7E3FF08BD08B51430FA
:10326000FFF7DEFF08BD08B54430FFF7D9FF08BD02
:1032700008B53430FFF7D4FF08BD08B52430FFF798
:10328000CFFF08BD08B51430FFF7CAFF08BD08B569
:103290004430FFF7C5FF08BD08B53430FFF7C0FF65
:1032A00008BD08B52430FFF7BBFF08BD08B51430D2
:1032B000FFF7B6FF08BD08B53430FFF7B1FF08BD12
:1032C00008B53430FFF7ACFF08BD08B54430FFF750
:1032D000A7FF08BD08B54430FFF7A2FF08BD08B539
:1032E0002430FFF79DFF08BD08B51430FFF798FFA5
:1032F00008BD08B52430FFF793FF08BD08B51430AA
:10330000FFF78EFF08BD30B5044689B0084600239C
:1033100069460293FFF776FF23689C6F236869462E
:1033200004A8DD68FFF7DAFB04A92046A84704A833
:10333000FEF771F96846FEF76EF909B030BD30B599
:10334000044689B00846002369460293FFF75AFFF6
:1033500023681C6F2368694604A89D68FFF7BEFBBD
:1033600004A92046A84704A8FEF755F96846FEF7C9
:1033700052F909B030BD30B5044689B00846002383
:1033800069460293FFF73EFF23685C6F2368694636
:1033900004A89D68FFF7A2FB04A92046A84704A83B
:1033A000FEF739F96846FEF736F909B030BD30B599
:1033B000044689B00846002369460293FFF722FFBE
:1033C00023689C6F2368694604A89D68FFF786FB05
:1033D00004A92046A84704A8FEF71DF96846FEF791
:1033E0001AF909B030BD0B1A1B11002B14DD02684D
:1033F000127C4AB34268127C0AB904307047826872
:10340000127C0AB908307047C268127C0AB90C30C5
:1034100070471030013BE8E70B1A9B10022B0DD0D0
:10342000032B07D0012B0ED103681B7C002B18BF88
:103430000846704703681B7C33B1043003681B7C6B
:1034400013B10430F0E7084670470000437B012BBE
:10345000F7B5044606D0C0F0C280022B00F0F7801A
:1034600003B0F0BD00F16C054FF00003806F1A4609
:103470002946FFF7B8FF8542A06703D104F1100386
:10348000A367EDE7E36E05680026C3F80061C3F8A3
:1034900004612979E06EFFF7D5FD297AE06EFFF728
:1034A000D1FD3146E06EFFF7CDFDA979E06EFFF763
:1034B000C9FD2B7A032B01D0102B67D10021E06EC0
:1034C000FFF7C0FD0121E06EFFF7BCFD2B7A102B4A
:1034D00010D10221E06EFFF7B5FD2B7A102B09D138
:1034E000EB68E06E1988090AFFF7ACFDEB68197804
:1034F000FFF7A8FD2B7A032B01D0052B53D12B68A6
:1035000029461B6801A898479DF80510E06EFFF753
:1035100099FD9DF80410FFF795FDD4F88830C4F8A4
:103520008030D4F89C30E56E00260133C4F89C301E
:10353000C4F89060D5F81001FDF7C0FFD5F8183138
:10354000DA6866F30412DA60D5F820311A6866F397
:1035500000021A60D5F81C311A6866F300021A607E
:10356000D5F80431D5F80011D5F81C215B1A0233C7
:103570009BB25360D5F81C311A6842F001021A6000
:103580001A68D207FCD50023637369E7052BB1D114
:10359000EB68E06E1988002914BFFF210021FFF7B6
:1035A00051FD314696E7102BB7D1E06EDFF8C4C06D
:1035B000D0F80031D0F804212D4FFF2103448618A4
:1035C0000D4613F8012B4A409E421CF8021081EA76
:1035D0000501BD5CF5D1FFF735FD29469BE7C16EBE
:1035E000D0F88820D1F80431D1F800115B1AD0F856
:1035F00090109942C16F38BFC0F880208A4216DC13
:10360000836F18688369C218122515750133032268
:1036100093FBF2F202EB42029B1A8361D4F89830DA
:10362000C4F88C100133C4F8983002236373D4F8C3
:103630008030C91AD4F884309942FFF611AF204681
:10364000FFF750FDE36FC4F88C3002239CE7C36F93
:10365000D0F88C20093B93427FF702AF0023C36769
:10366000FEF710F8836F0433836701238CE700BFF4
:10367000B0900008B08F00082DE9F04F374BADF542
:10368000C25D85B05AAD03F118072C463E46186856
:103690005968224603C20833BB421446F7D184ACB2
:1036A0002F4B236000222F4B23612F482F4B84F890
:1036B0005120C4E901224FF48031C4E90F31C4E93B
:1036C000110122732263A286A263E36484F850206E
:1036D00084F8522084F854206561FF21A318013238
:1036E000182A1976FAD1A4F1180A0021504604F0DC
:1036F000DAFD2069FDF7D6FE23691A694FF001094A
:1037000069F309221A611A6942F080721A61274628
:103710004FF000084FF6FF7BD7E90F3103EB410173
:1037200099420DD01A78172A07D822445878107673
:103730001A780AF802900233F2E71A885A45FAD149
:10374000E364F96B994213D1C4F830800837B8F1BB
:10375000000F1BD14FF00108DEE700BF748B00089B
:10376000C0A30008003C02400000080800000A084E
:103770003A6C01EB4202934202F07281C4F830804D
:1037800021465046FDF7E1FD8442DFD1226B04EB78
:10379000C201D1E90F30E16C03EB4003994206D13D
:1037A00091AB0121995400232363E36BE364214629
:1037B0005046FDF7CAFDA042074642F057816269B4
:1037C00004F1180C04F1300E634603CB734510600E
:1037D00051609C4602F10802F6D1002384F8523071
:1037E00094F834308BB9236B7BB1D4E90F234FF6B7
:1037F000FF7002EB43018A42134642F03E810B46C2
:103800005B1A18BF012384F8343094F83530B3B90B
:10381000236B012B13D0D4E911324FF6FF7003EB69
:1038200042029A42194605D0B1F800C0844503F11E
:103830000203F6D0521A18BF012284F8352004F191
:103840003608414604F13400FDF7A9FD804518BF54
:103850000323226918BF84F851301369A74243F04B
:103860000043136109D0DF4B2F46186859683A4668
:1038700003C20833B3421746F7D12046FDF724FFB1
:10388000D94B1A6812F0010FD84A05D1D84F05213B
:10389000C2E9007101211960D64B196B41F0010199
:1038A000196312681168012060F38B211160D168DF
:1038B0006FF38B21D160D0490A6812F0010F08BF65
:1038C000CB4ECE4A02BF08600424C2E90064196BE3
:1038D00041F00101196313681A684FF0010969F397
:1038E00009221A60DA680DF596646FF30922DA602E
:1038F00004F804990DF59962E260C14ACDF8AC2450
:10390000002305200DF59D620DF5A1618DF8C234EF
:10391000E38020722374ADF8C034A361A38384F8DC
:103920002800E26284F82490A4F8269084F83030CD
:10393000E164B44921640DF5A9660DF5A561B24AAB
:10394000E166C4F88C60B149B14E22622166102252
:103950000421C4F880600DF5AD668DF8E2348DF871
:1039600002358DF822358DF84235ADF8E034A36389
:10397000A387A4F8463084F84820ADF80035A36545
:10398000A4F85C3084F86820ADF82035A367A4F86B
:103990007C3084F88820ADF84035C4F89830A4F81D
:1039A0009C3084F8449084F86490A4F8669084F87D
:1039B0008490A4F8861084F8A490C4F8AC60954E66
:1039C000C4F8A0600DF5B166C4F8CC60924EC4F89E
:1039D000C0600DF5B566C4F8EC60904EC4F8E060C8
:1039E000082607274FF0060CA4F806610DF5C16EF6
:1039F0000DF5B9668DF862358DF882358DF8A235F2
:103A0000A4F8A60084F8A820ADF86035C4F8B83052
:103A1000A4F8BC3084F8C820ADF88035C4F8D8309C
:103A2000A4F8DC30A4F8E67084F8E820ADF8A035FE
:103A3000C4F8F830A4F8FC3084F80821C4F80C610C
:103A4000ADF8C0358DF8C235754E84F8C490A4F831
:103A5000C6C084F8E49084F80491C4F81831C4F81E
:103A60004CE1DFF8D8E1C4F80061C4F840E1092670
:103A70004FF0020EA4F82661A4F866E10DF5BD66CC
:103A80000DF5C56EC4F82C61C4F86CE1654EDFF825
:103A9000B0E1C4F820614FF0030A0A26C4F860E1DF
:103AA0000DF5C96E8DF8E2358DF802368DF82236A7
:103AB000A4F81C3184F82821ADF8E035C4F8383179
:103AC000A4F83C31A4F8466184F84821ADF80036EA
:103AD000C4F85831A4F85C31ADF82036C4F8783118
:103AE000A4F87C3184F8249184F8449184F864919A
:103AF00084F868A184F88491A4F886A184F888A148
:103B0000C4F88CE1A4F8C6010DF5D160C4F8CC016D
:103B10004548DFF830E1C4F8C0010DF5D560C4F8C0
:103B200080E1C4F8EC010DF5CD6E4048C4F8ACE17D
:103B3000C4F8E001DFF810E18DF842360DF5D960E8
:103B40008DF862368DF882368DF8A236ADF84036A3
:103B5000C4F89831A4F89C31ADF86036C4F8B83197
:103B6000A4F8BC3184F8D031ADF88036C4F8D8312F
:103B7000A4F8DC31ADF8A036C4F8F83184F8A4918B
:103B8000A4F8A61184F8A8A1C4F8A0E184F8C4910F
:103B900084F8C8A184F8E491A4F8E6C184F8E8A107
:103BA000A4F8FC31C4F80C022148C4F800020DF559
:103BB000DD60C4F82C021F48C4F820020B20A4F8D2
:103BC00046020DF5E160C4F84C021B48C4F84002FF
:103BD0000E20A4F866020DF5E5608DF8C2368DF86A
:103BE000E23633E0748B00081C0300202003002021
:103BF000000002400038024010030020140300209F
:103C00007C8C0008948C0008888C0008A08C00082C
:103C1000AC8C0008B88C0008C48C0008D08C00085C
:103C2000DC8C0008E88C0008188D0008248D000842
:103C3000308D00083C8D0008488D0008E4A3000882
:103C4000F48C0008008D00080C8D00088DF80237F8
:103C5000A4F8067284F81032ADF8C036C4F81832F1
:103C6000A4F81C32A4F8266284F83032ADF8E036AD
:103C7000C4F83832A4F83C32ADF80037C4F85832F2
:103C8000A4F85C3284F8049284F808A284F82492A0
:103C900084F828A284F8449284F848A284F86492B4
:103CA00084F868A2C4F86C02A4F8A6220DF5ED62AF
:103CB000E448C4F8AC22E44AC4F86002C4F8A02284
:103CC0000F201122A4F88602A4F8C6220DF5E9609F
:103CD0000DF5F162C4F88C02C4F8CC22DB48DC4A52
:103CE0008DF822378DF842378DF862378DF882379C
:103CF00084F87032ADF82037C4F87832A4F87C32FA
:103D0000ADF84037C4F89832A4F89C32ADF860376B
:103D1000C4F8B832A4F8BC3284F8D032ADF8803799
:103D2000C4F8D83284F8849284F888A2C4F8800257
:103D300084F8A49284F8A8A284F8C49284F8C8A253
:103D4000C4F8C022A4F8DC32C24B6F881A6884F829
:103D5000509012EA090284F8709084F8909084F8E8
:103D6000B09084F8D09084F8F09084F8109184F8A2
:103D7000309184F8509184F8709184F8909184F88F
:103D8000B09184F8F09184F8509284F8909284F87D
:103D9000B0920C93B04E0DF28C750DF1700840F09E
:103DA0009D81CDE90D12FEF735F9C7F34002834638
:103DB0000B92AA483060C7F38002A9480A92C7F361
:103DC000C102099230670E9AA648706707EA090394
:103DD00006F11000C7F34217C6E90122327386F8D4
:103DE0000D90C6F86CB0C6E91E020D994FB14F4553
:103DF00001F04C86022F01F04C86574514BF49460E
:103E000002214FF000096422C6E92229964AC6F829
:103E10008410C6F8A490C6F8A02094499048C6F82B
:103E2000A8600E93C6F8989086F89490C6F89C9077
:103E3000FDF7E1FA8E4AC6F8AC20A8F1100AC6F8E0
:103E4000B0908C49706FC6F8B460FDF7D4FA504654
:103E5000214648E90465CDF88C97FCF78DFA9AE87D
:103E60000300A8F1080989E8030048460DF2CC4197
:103E7000FCF782FA99E8030088E803000DF2EC41B0
:103E80004046FCF779FA98E803000DF1780989E8D3
:103E9000030048460DF20C51FCF76EFA99E8030056
:103EA0000DF1900AAAF1100282E8030010460DF20B
:103EB0002C510D92FCF760FA0D9A92E80300AAF1DA
:103EC000080989E8030048460DF24C51FCF754FA02
:103ED00099E803008AE8030050460DF26C51FCF7A4
:103EE0004BFA9AE8030026AA82E8030010460DF276
:103EF0008C510D92FCF740FA0D9A92E803000DF1F7
:103F0000B009A9F1100A8AE8030050460DF2AC513D
:103F1000FCF732FA9AE80300A9F1080282E80300EC
:103F200010460DF2CC510D92FCF726FA0D9A92E84C
:103F3000030089E8030048460DF2EC51FCF71CFA37
:103F400099E803002EAA82E8030010460DF20C61E6
:103F50000D92FCF711FA0D9A92E803000DF1D00AC8
:103F6000AAF1100989E8030048460DF22C61FCF71C
:103F700003FA99E80300AAF1080282E80300104658
:103F80000DF24C610D92FCF7F7F90D9A92E80300DF
:103F90008AE8030050460DF26C61FCF7EDF99AE8EF
:103FA000030036AA82E8030010460DF28C610D92E0
:103FB000FCF7E2F90D9A92E803000DF1F009A9F17E
:103FC000100A8AE8030050460DF2AC61FCF7D4F900
:103FD0009AE80300A9F1080282E8030010460DF2F6
:103FE000CC610D92FCF7C8F90D9A92E8030089E8BC
:103FF000030048460DF2EC61FCF7BEF999E80300B6
:104000003EAA82E8030010460DF20C710D92FCF7F7
:10401000B3F90D9A92E803000DF5887AAAF1100918
:1040200089E803000DF22C714846FCF7A5F999E8E0
:104030000300AAF1080282E8030010460DF24C7159
:104040001AE000BF548D00086C8D0008608D0008D8
:10405000F0A30008280300202C030020908D000806
:104060009C05002024050020788D0008CC0300204A
:10407000848D0008D80300200D92FCF77DF90D9A7D
:1040800092E803008AE803000DF26C715046FCF7D9
:1040900073F9DBF82421DBF818013946FDF724FB1E
:1040A0000B9BC26863F34922C260C2680A9B63F338
:1040B0000C32C260099B026963F30D3202610E9BF0
:1040C000002B01F0E984C36843F48063C360C368D4
:1040D00043F40053C3600C9A012313609CAF002388
:1040E000BC4A47F808399A9220327A60BA4AFB6093
:1040F0003B747B74FB61FB62FB63FB64FB651368D1
:1041000048F8146C13F0010FB44B05D1B4480D21DD
:10411000C3E9000101211160B24E326B42F002028C
:1041200032631A6811686FF39B611160D1686FF395
:104130009B61D1604FF0010900219BA8C7E91A19C2
:1041400087F8701087F871107B66FDF7BDFAA64BF3
:10415000A64AB7930DF537782033C8F804301368B2
:1041600088F8101013F0010F08BFDFF8A0B2A04BC1
:1041700088F81110C8E90211C8F81C10C8F82C10F2
:10418000C8F83C10C8F84C10C8F85C1002BF0921F0
:10419000C3E900B1C2F80090326B42F0040232630E
:1041A0001A6811686FF393411160D1686FF39341FE
:1041B000D16001260021B8A8C8E91A1688F8701045
:1041C00088F87110C8F86430FDF77EFA894B8A4A86
:1041D000D4932033D5931368D69113F0010F08BF01
:1041E000DFF8FCA1854BD7918DF860138DF8611332
:1041F000DB91DF91E391E791EB9102BF0F21C3E9DE
:1042000000A11660774E326B42F0020232631A68E8
:1042100011686FF39F711160D1686FF39F71D16066
:10422000D5A800214FF00109ED93EE918DF8C01350
:104230008DF8C113CDF8BC93FDF746FA704B297386
:10424000C5E90111CDF88C370DF5F263C5E904110C
:10425000297603F115000DF2F571FDF719F9694A98
:10426000136813F0010F3146674E40F08280DFF88B
:10427000C0E1DFF8C0C1DEF80030644813F0010F80
:1042800001BF0D23CEF80090CCF80000CCF804302C
:104290000B6BDFF8A4E143F004030B63DCF80030A0
:1042A00019684FF0010969F39B611960D9686FF3D0
:1042B0009B61D96056490B6813F0010F04BF0F23AF
:1042C000CEF80430474B04BFCEF80000C1F8009090
:1042D000196B41F004011963DEF80010D1F800A059
:1042E0004FF0010969F39F7AC1F800A0D1F80CA042
:1042F0006FF39F7AC1F80CA0DFF840A1DAF8001044
:1043000011F0010F434908BFCAF800909B4602BF55
:104310000E2308604B60DBF8303043F00403CBF829
:1043200030300B68D3F800A04FF0010969F31D7A13
:10433000C3F800A0D3F80CA06FF31D7AC3F80CA04B
:104340000023C6E906100DF2A5713162C6E90133FA
:104350003149DFF8ECA07162C6E904CE2F4933730E
:10436000C6F800A07373B16286F830307363C2F888
:1043700000902B492B4A0B6813F0010301BF23481F
:10438000C2E9000301230B60164B196B41F00401D5
:10439000196312681068012161F301001060D06890
:1043A0006FF30100D0602048026812F0010F08BFCF
:1043B000DFF858C01D4A04BF0160C2E900C1196B93
:1043C00041F00401196313681A68012161F3830243
:1043D00038E000BF9C8D0008680100206C010020BF
:1043E0000004024000380240C88D00085C01002033
:1043F00060010020F48D00085001002054010020CD
:10440000CCA30008B4000020B8000020000802403F
:10441000FC000020F400002098930008989B0008FE
:10442000A8000020AC0000209C000020A00000207C
:10443000080100200C01002000010020F0000020F5
:10444000D8A300081A60DA686FF38302DA60B84B09
:104450001A6812F0010F08BFDFF83C93B54A02BF9B
:1044600019600220C2E90090B34B196B41F00401BE
:10447000196312681168012060F305111160D16899
:104480006FF30511D160AD490A6812F0010F08BF42
:10449000DFF804E3AA4A02BF08604FF0030CC2E948
:1044A00000EC196BA74841F00401196313681A68FE
:1044B0004FF0010969F387121A60DA686FF3871207
:1044C000DA60FDF7D9FB337B0BBB9F4B86F80C9072
:1044D000DA68726002B196609A68DE6002B99E6026
:1044E00002225A61994B1A686FF300021A60984AC7
:1044F0005A6000229A601A6842F004021A601A6830
:1045000042F002021A601A6842F001021A60D4AB4B
:10451000AB675AABC5E91F3413AA14ABC5E9212315
:1045200015ABC5F88C3016ABC5F89030894BC5F883
:104530009430C5E91B670DF68C03F4AEC5F89830CE
:10454000854BF19546F80C3972AF4FF0000A834B5A
:10455000C5F8748031460DF58760C5F89CA0B3603E
:10456000FEF740F87E4B72953946FB6078A87D4B8C
:10457000BB60FEF737F87C4B699366A97B4B669569
:104580006CA80DF5C07B6893FEF72CF8784B599317
:1045900056A9784B569558465893FEF723F8764B14
:1045A00051934EA9754B4E9552A85093FEF729F89A
:1045B000734B4993734B48934AAB18460DF62C083E
:1045C00046A946950993FEF71CF80DF5876140460C
:1045D000FEF708F878A90DF63C00FEF703F86CA981
:1045E0000DF64C00FDF7FEFF59460DF65C00FDF799
:1045F000F9FF52A90DF66C00FEF703F809990DF6C4
:104600007C00FDF7FEFF0998FDF705F846A8FDF7C9
:1046100002F852A8FCF7FFFF4EA8FCF7FCFF584633
:10462000FCF7F9FF56A8FCF7F6FF6CA8FCF7F3FFC0
:1046300066A8FCF7F0FF78A8FCF7EDFF3846FCF71A
:10464000EAFF0DF58760FCF7E6FF3046FCF7E3FF75
:1046500041460DF58760FDF7E3FF4B4B7B9378A94F
:104660004A4B789530467A93FEF738FAD5F884307D
:10467000E96F0C93D5F88830099301F115030A937B
:104680004349D5F88020C5F800110DF29C73C5F898
:1046900004310DF587610DF69400D5F894900D92D4
:1046A0000B93FDF7BDFF31460DF6F400FEF716FA49
:1046B0000C9BC5F87C31099BC5F880310A9BC5F875
:1046C0008831344BC5F890310D9AC5F878214FF4F4
:1046D000FA73C5F8A0A1C5F88491C5F8A4A1C5F8DE
:1046E0008CA1C5F8A031C5F894A1C5F898A185F8AA
:1046F0009CA10DF61C10FCF7E7FF85F8A8A1C5F8F2
:10470000ACA1C5F8B0A1D9F80000FDF70DFC30460A
:10471000FCF781FF78A8FCF77EFF0DF58760FDF7B9
:1047200018FC41460DF58760FDF77AFF36E000BFC3
:1047300090000020940000200038024084000020F7
:1047400088000020B8000020B405002010E000E040
:104750001F480100E40300203F3300088D030008D8
:1047600077330008A3030008AF330008B90300083B
:1047700007330008CF0300084D5D0008E50300087B
:10478000155D0008FB030008110400081B04000865
:10479000ACA30008948B000800080240B64B559368
:1047A00052A9B64B529556A85493FEF797F9B44BBD
:1047B0007A950922F192C6E90135B24B7361B24B89
:1047C00033610F237893B14B7993B14B7D93B14B08
:1047D0007C930C237293B04B6E95C7E90135AF4BB8
:1047E0007B61AF4B3B610C236C93AE4B6D93AE4B37
:1047F0007193AE4B709306236693AD4B6793AD4BAD
:104800006B93AD4B6A930E236093AC4B6895CBE9E9
:104810000135AB4BCBF81430AA4BCBF81030AA4B78
:10482000C5F8C8310D920B9BC5F8CC310DF58761E9
:104830000DF65C10FDF7F4FE56A90DF6BC10FEF760
:104840004DF931460DF6CC10FEF78DFB78A90DF62B
:10485000E410FEF788FB39460DF6FC10FEF783FBEB
:104860006CA90DF61420FEF77EFB66A90DF62C2030
:10487000FEF779FB59460DF64420FEF774FB0DF563
:10488000D079C5F8D0A2C5F8D4A262A8FCF7C3FEBF
:104890004846FCF7C0FE6EAB18460C93FCF7BBFE17
:1048A00074A8FCF7B8FE7AAB18460993FCF7B3FE80
:1048B000F3AB18460A93FCF7AEFE56A8FCF7ABFE26
:1048C00052A8FCF7A8FE0DF58760FDF742FB4146B4
:1048D0000DF5876085F8D8A2A5F8DAA2A5F8DCA2C4
:1048E000FDF79EFE794B599356A9794B569558463C
:1048F0005893FEF7F3F80823F193764B0D9A7A95C7
:10490000C6E90135744B7361744B3361744B799311
:10491000744B7D93744B7C930F237293734B6E9502
:10492000C7E90135724B7B61724B3B610F236C937E
:10493000714B6D93714B7193714B70930723669319
:10494000704B6793704B6B93704B6A93704BC5F8C9
:10495000E0320B9BC5F8E4320DF587610DF674204B
:1049600068957892FDF75CFE59460DF6D420FEF767
:10497000B5F831460DF6E420FEF7F5FA78A90DF604
:10498000FC20FEF7F0FA39460DF61430FEF7EBFA8C
:104990006CA90DF62C30FEF7E6FA66A90DF6443048
:1049A000FEF7E1FAC5F8D0A3C5F8D4A34846FCF752
:1049B00032FE0C98FCF72FFE74A8FCF72CFE099829
:1049C000FCF729FE0A98FCF726FE5846FCF723FE62
:1049D00056A8FCF720FE0DF58760FDF7BAFAEB6FDD
:1049E00041469B7D85F8D8330DF58760FDF718FEAD
:1049F000484966A8FDF7C3F847495846FDF7BFF890
:104A0000464B7B9378A9464B789530467A93FEF7D0
:104A100065F8444B6F936CA9434B6C9538466E9385
:104A2000FEF75CF8669B0B930DF28C75679B609AA2
:104A30000D933E4BC5F8DC330DF29C794FF4807337
:104A40000E920DF58762A5F8E033C5F8E4931146A0
:104A50000DF67430DBF80480FDF7E2FD31460DF60B
:104A6000D430FEF73BF839460DF6E430FEF736F861
:104A70000B9BC5F868345BE0310400084D04000866
:104A8000F4A30008630400088F040008FEA30008D4
:104A9000A5040008AF0400080EA40008C50400081F
:104AA000CF0400081BA40008E5040008EF04000878
:104AB00028A40008050500080F0500082FA4000819
:104AC0002505000849050008B48B00085F050008AB
:104AD0009B0500083EA40008B1050008C9050008B0
:104AE00047A40008DF050008F705000851A40008E6
:104AF0000D0600082506000861A400083B06000812
:104B00005706000871A400086D0600087706000823
:104B1000C88B000879A400082FA600088D0600089D
:104B200097060008AD060008F9060008DC8B0008AF
:104B30000D9BC5F86C340DF664330E9AC5F87834C5
:104B400095F8D833C5F8702485F87C34C5F874849A
:104B50003846FCF760FD6CA8FCF75DFD3046FCF7BD
:104B60005AFD78A8FCF757FD0DF58760FDF7F1F9C0
:104B7000D5F884301B780DF62C08C3F3C0034146EA
:104B80000DF5876085F88034FDF74AFDC24966A8B7
:104B9000FCF7F5FFC1495846FCF7F1FF78AAC04B76
:104BA0007B931146BF4B789530467A93FDF796FF7D
:104BB0006CAABD4B6F931146BC4B6C9538466E93F7
:104BC000FDF78CFF669BDBF804200B93679B0D932E
:104BD0000F92609B0E934FF0010285F88924B44B2D
:104BE000C5F884340DF58762C5F88C9485F888A4DF
:104BF00011460DF61C40FDF713FD31460DF67C40C5
:104C0000FDF76CFF39460DF68C40FDF767FF0B9BF7
:104C1000C5F810350D9BC5F814350E9BC5F8183531
:104C20000DF60C430F9AC5F8203595F88034C5F879
:104C30001C2585F824353846FCF7EDFC6CA8FCF7FC
:104C4000EAFC3046FCF7E7FC78A8FCF7E4FC0DF53D
:104C50008760FDF77EF941460DF58760FDF7E0FCC2
:104C6000944966A8FCF78BFF93495846FCF787FFE9
:104C700078AA924B7B931146914B789530467A9364
:104C8000FDF72CFF6CAA8F4B6F9311468E4B6C95E2
:104C900038466E93FDF722FF669B0B93679B0D933F
:104CA000609BDBF804200E93884BC5F828350F92E3
:104CB0004FF4C8430DF58762A5F82C35C5F830953B
:104CC00011460DF54C60FDF7ABFC31460DF5526019
:104CD000FDF704FF39460DF55360FDF7FFFE0B9A13
:104CE000C5F8B4250D9AC5F8B8250DF664230E9ABB
:104CF000C5F8BC25C5F8C4350F9A95F8D832C5F863
:104D0000C02585F8C8353846FCF785FC6CA8FCF74B
:104D100082FC3046FCF77FFC78A8FCF77CFC0DF5A4
:104D20008760FDF716F941460DF58760FDF778FCC1
:104D3000674966A8FCF723FF66495846FCF71FFF42
:104D400078AA654B7B931146644B789530467A93ED
:104D5000FDF7C4FE6CAA624B6F931146614B6C95D4
:104D600038466E93FDF7BAFECDE9066742F6E0637A
:104D7000ADF814300DF668230393ADF810A09BE84E
:104D8000030001AA0B9282E80300679B00930DF5D4
:104D90008762669B49460DF65850FEF7F3F8384691
:104DA000FCF739FC6CA8FCF736FC3046FCF733FC0A
:104DB00078A8FCF730FC0DF58760FDF7CAF841468E
:104DC0000DF58760FDF72CFC474966A8FCF7D7FE78
:104DD00046495846FCF7D3FE78AA454B7B931146CB
:104DE000444B789530467A93FDF778FE6CAA424B97
:104DF0006F931146414B6C9538466E93FDF76EFEEE
:104E00004AF6C873CDE90667ADF8143044F2506332
:104E1000ADF810300DF6662303939BE803000B9A60
:104E200082E80300679B00930DF58762669B494605
:104E30000DF6FC50FEF7A6F83846FCF7ECFB6CA824
:104E4000FCF7E9FB3046FCF7E6FB78A8FCF7E3FB50
:104E50000DF58760FDF77DF8C5F814A741460DF5FF
:104E60008760FDF7DDFB66AA254B69931146254B4C
:104E700066956CA86893FDF731FE234BC5F81C9727
:104E80000722F192C6E90135204B7361204B336153
:104E9000204B799340E000BF86A400082FA60008AD
:104EA0000F070008190700082F07000875070008FA
:104EB000F08B000890A40008A1A400088B0700084C
:104EC00095070008AB070008CB070008048C000812
:104ED000A4A40008B4A40008E1070008EB07000838
:104EE000010800082108000851A40008B8A400081F
:104EF000370800084108000857080008770800082C
:104F00008D080008B9080008BCA40008CF080008F4
:104F1000D9080008C4A40008C24B7D93C24B7C93FF
:104F20000C22C24B78920E227292C7E90135C04B17
:104F30007B61C04B3B610DF58762BF4BC5F81837ED
:104F400011460DF6AC607A95FDF76AFB6CAA114626
:104F50000DF60C70FDF7C2FD31460DF61C70FEF724
:104F600002F878AA11460DF63470FDF7FCFF3946B9
:104F70000DF64C70FDF7F7FFC5F8D8A7C5F8DCA70C
:104F800074A8FCF748FB0998FCF745FB0A98FCF766
:104F900042FB6CA8FCF73FFB66A8FCF73CFB0DF559
:104FA0008760FCF7D6FF41460DF58760FDF738FBBB
:104FB00078AAA24B7B931146A14B789530467A9301
:104FC000FDF78CFD9F493846FCF7D9FD9E496CA83A
:104FD000FCF7D5FD729A0D927A680E926C9A0F9238
:104FE0006D9AD5F880301092984AC5F8E0270DF5F3
:104FF0008762C5F8E49703F51F7311460DF67470C8
:105000001193FDF70DFB31460DF6D470FDF766FDEB
:105010000D9AC5F858280E9AC5F85C280F9A119B6E
:10502000C5F86028109AC5F86428C5F86838304675
:10503000FCF7F1FA78A8FCF7EEFA0DF58760FCF7BB
:1050400088FF41460DF58760FDF7EAFA804966A8BA
:10505000FCF795FD7C495846FCF791FD78AA7D4BFD
:105060007B9311467C4B789530467A93FDF736FD5D
:105070006CAA7A4B6F931146794B6C9538466E93B8
:10508000FDF72CFDCDE906674FF064020DF56A636C
:10509000ADF814200393ADF810A09BE803000B9A21
:1050A000C2E900010DF58760679B00930246669B8D
:1050B00049460DF6F870FDF765FF3846FCF7ABFA88
:1050C0006CA8FCF7A8FA3046FCF7A5FA78A8FCF71C
:1050D000A2FA0DF58760FCF73CFF41460DF58760AD
:1050E000FDF79EFA5F4966A8FCF749FD5649584608
:1050F000FCF745FD5C4B7B9378A95C4B789530467B
:105100007A93FDF7EBFC5A4B6F936CA9594B6C9556
:1051100038466E93FDF7E2FCCDE906674FF0640276
:105120000DF6A263ADF814200393ADF810A09BE830
:1051300003000B9AC2E900010DF587600246679BE8
:1051400000930DF584504946669B1C30FDF71AFF0D
:105150003846FCF760FA6CA8FCF75DFA3046FCF7BD
:105160005AFA78A8FCF757FA0DF58760FCF7F1FEBC
:10517000EB6F41465B7D85F8B4390DF58760FDF72F
:105180004FFA3D4966A8FCF7FAFC2F495846FCF750
:10519000F6FC3A4B7B9378A9394B789530467A9355
:1051A000FDF79CFC374B6F936CA9374B6C953846D9
:1051B0006E93FDF793FC669A0D92344B679AC5F88F
:1051C000B8390E9241F60263609AA5F8BC390DF524
:1051D0008A50C5F8C0990F920DF58761DBF804205D
:1051E00010921030FDF71CFA0DF58D50314610303D
:1051F000FDF774FC39460DF58E50FDF76FFC0D9AE6
:10520000C5F8442A0E9AC5F8482A0DF58A530F9A14
:10521000C5F84C2AC5F8543A109A95F8B439C5F82F
:10522000502A35E0EF08000807090008D1A400085B
:105230001D090008350900082C8C00084B090008DE
:1052400055090008E0A40008F0A40008A08B00089D
:10525000F3A400086B090008750900088B09000811
:10526000AB09000803A50008C1090008CB09000824
:10527000E1090008010A000871A40008170A0008E3
:10528000210A0008370A0008490A0008048C0008AF
:1052900085F8583A3846FCF7BEF96CA8FCF7BBF91C
:1052A0003046FCF7B8F978A8FCF7B5F90DF587603A
:1052B000FCF74FFE41460DF58760FDF7B1F9BE4B97
:1052C0006F936CA9BD4B6C9538466E93FDF706FC49
:1052D000BB4B73600A22BB4BF1927361BA4B3361D3
:1052E0000820BA4B0D927890B94A79930DF5F26087
:1052F000B84BC5F85C2AC5F8609A7D930DF58761B7
:10530000B54B7C9300F526607A95FDF789F90DF58C
:10531000F260394600F52C60FDF7E0FB31460DF5F3
:105320009350FDF720FE0DF5F26078A900F6E82015
:10533000FDF719FEC5F804ABC5F808AB0998FCF7F2
:105340006AF90A98FCF767F93846FCF764F96CA823
:10535000FCF761F90DF58760FCF7FBFD41460DF5A3
:105360008760FDF75DF99D4B6F936CA99C4B6C9525
:1053700038466E93FDF7B2FB9A4B954AC5F80C2B55
:105380000821F191C6E90135974B7361974B336161
:10539000974B79930721974BC5F8109B78917D9394
:1053A0000DF58761944B7C930DF59550FDF738F919
:1053B00039460DF59850FDF791FB0DF5F260314639
:1053C00000F53860FDF7CFFD0DF5F26078A900F625
:1053D0009830FDF7C8FDC5F8B4ABC5F8B8AB09986F
:1053E000FCF719F90A98FCF716F93846FCF713F997
:1053F0006CA8FCF710F90DF58760FCF7AAFD414693
:105400000DF58760FDF70CF97C4B60955946CBF89C
:105410000C3066A87A4BCBF80830FDF75FFB08200C
:10542000784BF1907361784B3361784B7993784B7B
:105430007D93784B7C930B237293774B774A7890CC
:10544000C7E90135764B7B61764B3B61764B6D93BB
:10545000C6E90125754B0D9A6C9271936CAA744B39
:10546000709366A80346CDE902720DF5876078AAAD
:10547000CDE9006202460DF5F260494600F6B8300B
:105480007A956E95FDF7B4FD0C98FCF7C4F874A8F6
:10549000FCF7C1F80998FCF7BEF80A98FCF7BBF8CE
:1054A00066A8FCF7B8F85846FCF7B5F80DF5876024
:1054B000FCF74FFDEB6F4146DB7D85F89C3C0DF51D
:1054C0008760FDF7ADF8554966A8FCF758FB5949C8
:1054D0005846FCF754FB584B7B9378A9574B78956B
:1054E00030467A93FDF7FAFA554B6F936CA9554BFA
:1054F0006C9538466E93FDF7F1FA669A0992679AB1
:10550000514B0A924FF48071609AC5F8A03C0DF59A
:10551000F260A5F8A41CC5F8A89C0D920DF5876152
:10552000DBF804200E9200F6A840FDF779F80DF59F
:10553000F260314600F60850FDF7D0FA0DF5F26042
:10554000394600F61850FDF7C9FA099AC5F82C2D0E
:105550000DF5F2610A9AC5F8302D01F698430D9ABF
:10556000C5F8342DC5F83C3D0E9A95F89C3CC5F81D
:10557000382D85F8403D3846FCF74DF86CA8FCF70F
:105580004AF83046FCF747F878A8FCF744F80DF5E0
:105590008760FCF7DEFCEB6F41461B8AA5F8443DB3
:1055A0000DF58760FDF73CF8284966A8FCF7E7FA97
:1055B000274958464EE000BF5F0A0008690A000804
:1055C00012A500087F0A0008810A00081DA500082E
:1055D000408C00089F1400088B0A0008A10A0008EC
:1055E000AB0A000826A50008C10A0008CB0A00087B
:1055F0002FA50008A1140008E10A0008EB0A000822
:10560000F50A00080B0B0008150B000840A5000860
:105610002B0B0008350B000849A5000837A500082A
:105620004B0B0008550B000855A500086B0B000834
:10563000750B00082FA600088B0B0008950B0008BF
:10564000AB0B0008C30B0008688C000860A50008BD
:10565000B8A40008FCF793FABD4B7B9378A9BD4B27
:10566000789530467A93FDF739FABB4B6F936CA966
:10567000BA4B6C9538466E93FDF730FACDE9066764
:105680004FF47A630DF5F261ADF8143001F554630F
:105690000393ADF810A09BE803000B9AC2E9000148
:1056A0000DF58761679B00930DF5F2600A46669BD6
:1056B000494600F64450FDF765FC3846FBF7ABFF62
:1056C0006CA8FBF7A8FF30460DF28C75FBF7A3FF23
:1056D00078A8FBF7A0FF0DF58760FCF73AFC0DF505
:1056E000F261EB6F01F19C091B7D85F8EC3D4946A9
:1056F0000DF58760FCF794FF994966A8FCF73FFA1F
:1057000098495846FCF73BFA974B7B9378A9974BFF
:105710007A9330467895FDF7E1F9954B6F936CA934
:10572000944B6E9338466C95FDF7D8F9669A679B53
:105730000D920DF29C78609A0B9346F202418E4BCB
:10574000C5F8F03D0DF5AC500992A5F8F41DDBF855
:105750000420C5F8F88D0DF5876108300A92FCF732
:105760005FFF0DF5AF5031460830FDF7B7F90DF585
:10577000AF5039461830FDF7B1F90B9BC5F8803EA4
:10578000099BC5F8843E0A9BC5F8883E0DF5AB53CE
:1057900018330D9AC5F88C3E95F8EC3DC5F87C2E73
:1057A00085F8903E3846FBF736FF6CA8FBF733FFD1
:1057B0003046FBF730FF78A8FBF72DFF0DF587602B
:1057C000FCF7C7FBEB6F49465B8AA5F8943E0DF5E5
:1057D0008760FCF725FF694966A8FCF7D0F968499E
:1057E0005846FCF7CCF9674B7B9378A9664B7A93C4
:1057F00030467895FDF772F9644B6F936CA9644B52
:105800006E9338466C95FDF769F9CDE906674FF45C
:10581000FA63ADF814304FF064020DF5B153ADF8F2
:10582000102003939BE8030001AB099383E8030076
:105830000DF5B150679B00930DF58762669B41465D
:105840000430FDF79FFB3846FBF7E5FE6CA8FBF73D
:10585000E2FE3046FBF7DFFE78A8FBF7DCFE0DF535
:105860008760FCF776FB4946C5F83CAF0DF58760CD
:10587000FCF7D6FE474B60955946CBF80C3066A82E
:10588000454BCBF80830FDF729F90523F193434B3D
:105890007A95C6E90135424B7361424B3361082367
:1058A0007893414B7993414B7D93414B7C931023EB
:1058B0007293404B6E95C7E901353F4B7B613F4B7F
:1058C0003B610F236C933E4B6D933E4B71933E4B6C
:1058D00070936CABCDE902730DF5B65078AB0DF556
:1058E00087624146CDE900630C3066ABFDF780FB73
:1058F0000C98FBF790FE74A8FBF78DFE7AA8FBF7D7
:105900008AFEF3A8FBF787FE66A8FBF784FE5846DD
:10591000FBF781FE0DF58760FCF71BFB49460DF593
:105920008760FCF77DFE294966A8FCF728F928491D
:105930005846FCF724F9274B7B9378A9264B7A939A
:1059400030467895FDF7CAF8244B6F936CA947E071
:10595000D90B0008E30B0008F90B00080B0C00083A
:1059600071A500082EA60008210C00082B0C0008C9
:10597000410C0008530C0008048C000882A50008A4
:1059800092A50008690C0008730C0008890C000837
:105990009B0C0008B10C0008DD0C000896A500085F
:1059A000F30C00080B0D00089CA50008210D000851
:1059B000310D0008A5A50008A3140008470D000834
:1059C000B6A500088F1400085D0D0008C6A50008E4
:1059D0002FA60008730D00087D0D0008930D000828
:1059E000B44B6E9338466C95FDF778F8FF23ADF80D
:1059F00014304FF00103CDE90667ADF810300DF516
:105A0000B653083303939BE80300099B83E8030024
:105A1000679B00930DF58762669B414605F58150B3
:105A2000FDF7B0FA3846FBF7F6FD6CA8FBF7F3FD7F
:105A30003046FBF7F0FD78A8FBF7EDFD0DF587602C
:105A4000FCF787FA2846FBF73FFED5F89800036875
:105A50001B689847EB6E93F8303013AF13BBFEE72B
:105A600004EB080383F83490FDF770BE236B91AA12
:105A70000121D1540523FDF7B1BEB3F800C0844520
:105A800002F102023DF4B7AEFDF7BABE5146FEF791
:105A9000B8B93946FEF7B5B9C26863F38A22C26065
:105AA000FEF715BB844A0023C6E902333374F19232
:105AB00020327260814A7374F361F362F363F364BA
:105AC000F365136813F0010F7D4B06D1DFF81CC29C
:105AD0000C21C3E900C101211160DFF81482D8F85C
