:020000040800F2
:1000000000000220E98A0008398B0008398B0008BB
:10001000398B0008398B0008398B0008000000007C
:10002000000000000000000000000000398B000804
:10003000398B000800000000398B00082D190008DA
:10004000191B0008891B00081B1B00081D1B00084A
:100050001F1B0008211B0008231B0008251B00088C
:10006000271B0008291B00082B1B0008011C000887
:100070001D1C0008391C0008551C0008711C0008D4
:100080008D1C0008A91C00082D1B00082F1B000850
:10009000311B0008331B0008351B0008371B000804
:1000A0006B1B00086D1B00086F1B0008711B00080C
:1000B000731B0008751B0008771B0008391B00081C
:1000C0003B1B00083D1B00083F1B0008C11D00082A
:1000D000CD1D0008AD1B0008C91B0008E51B00086A
:1000E000411B0008431B0008451B00087F1B00083C
:1000F000811B0008831B0008851B0008C51C000825
:10010000471B0008491B0008791B0008D91D00087F
:100110004B1B00084D1B00087B1B00087D1B0008C3
:10012000E11C0008FD1C0008191D0008351D000811
:10013000511D000800000000000000004F1B0008D7
:10014000511B0008531B0008551B0008571B0008D3
:100150006D1D0008891D0008A51D0008591B000819
:100160005B1B00085D1B00085F1B0008611B00088B
:10017000631B0008651B0008000000000000000071
:08018000671B0008691B000861
:1001900010B5054C237833B9044B13B10448AFF3C1
:1001A00000800123237010BD6800002000000000C3
:1001B000A494000808B5034B1BB103490348AFF3EF
:1001C000008008BD000000006C000020A49400081E
:1001D000034613F8012B002AFBD1181A0138704787
:1001E00001F0FF01102A2BDB10F0070F08D010F8E8
:1001F000013B013A8B422DD010F0070F42B3F6D1EC
:10020000F0B441EA012141EA014122F007047FF004
:1002100000070023F0E80256083C85EA010586EA5B
:10022000010685FA47F5A3FA87F586FA47F6A5FA97
:1002300087F68EB9EED1F0BC01F0FF0102F00702A3
:1002400032B110F8013B013A83EA010313B1F8D14E
:100250000020704701387047002D06BF354603382F
:10026000073815F0010F07D1013015F4807F02BF68
:10027000013015F4C03F0130F0BC0138704700BFB9
:100280004209012300F01F0003FA00F0014B43F87C
:100290002200704700E100E0436901334361704789
:1002A00070477047012A03D0022A03D0002070470C
:1002B0000160FBE70B680360F8E77047012A03D091
:1002C000022A03D0002070470160FBE70B6803603F
:1002D000F8E7012A03D0022A03D00020704701600A
:1002E000FBE70B680360F8E770B50546D0F89800A7
:1002F00003680C469B689847C5F8984023682046D9
:100300001B68BDE87040184703681A7F82F001023D
:100310001A7742681278520744BFB3F8BC22A3F898
:100320009C207047012A034603D0022A03D00020F4
:1003300070470160FBE703C983E80300F7E7036840
:1003400093F83C2082F0010283F83C204268127846
:10035000120744BFB3F8BC22A3F89C207047012ABF
:10036000034603D0022A03D0002070470160FBE758
:1003700003C983E80300F7E7D0E9003010B502684D
:1003800003EB8203541C0460196110BD012A03D0E1
:10039000022A03D0002070470160FBE70B6803606E
:1003A000F8E7012A03D0022A03D000207047016039
:1003B000FBE70B680360F8E7012A03D0022A03D0A9
:1003C000002070470160FBE70B680360F8E7012A33
:1003D00003D0022A03D0002070470160FBE70B68BE
:1003E0000360F8E7012A03D0022A03D000207047F7
:1003F0000160FBE70B680360F8E7012A03D0022ADB
:1004000003D0002070470160FBE70B680360F8E74A
:10041000006800F5E471FFF767BF012A03D0022AE4
:1004200003D0002070470160FBE70B680360F8E72A
:1004300010B50446006800F58071FFF755FF23688A
:10044000D3F88030012283F8F02110BD012A03D0B7
:10045000022A03D0002070470160FBE70B680360AD
:10046000F8E710B50446006800F53871FFF73CFF67
:100470002268D2F88010002381F85032D2F8801020
:1004800081F89032D2F8802082F8F03210BD012A33
:1004900003D0022A03D0002070470160FBE70B68FD
:1004A0000360F8E7006800F28441FFF71DBF012AEE
:1004B00003D0022A03D0002070470160FBE70B68DD
:1004C0000360F8E7006800F57771FFF70DBF012AB8
:1004D00003D0022A03D0002070470160FBE70B68BD
:1004E0000360F8E7006800F60C31FFF7FDBE012A53
:1004F00003D0022A03D0002070470160FBE70B689D
:100500000360F8E7006800F65C21FFF7EDBE012A02
:1005100003D0022A03D0002070470160FBE70B687C
:100520000360F8E710B50446006800F59051FFF746
:10053000DBFE2268D2F88010002381F83032D2F836
:10054000802082F8103210BD012A03D0022A03D085
:10055000002070470160FBE70B680360F8E7006864
:10056000D0F88020012382F8D030D0F8802082F8A3
:100570005032D0F8802082F8B030D0F8802082F855
:100580009032D0F8802082F8F030D0F8802000F54A
:10059000E47182F8F032FFF7A7BE012A03D0022AE5
:1005A00003D0002070470160FBE70B680360F8E7A9
:1005B0000368D3F88020B2F85C2283F8D822006860
:1005C00000F5A561FFF790BE012A03D0022A03D0EF
:1005D000002070470160FBE70B680360F8E70368E1
:1005E000D3F88020B2F8FC22A3F8DC22006800F2E5
:1005F000CC51FFF779BE012A03D0022A03D0002094
:1006000070470160FBE70B680360F8E70368D3F805
:100610008020B2F89C22A3F8DA22006800F5CE61AF
:10062000FFF762BE012A03D0022A03D000207047E0
:100630000160FBE70B680360F8E70068D0F88020F2
:10064000002382F83033D0F8802000F5E36182F88F
:100650005033FFF749BE012A03D0022A03D00020FD
:1006600070470160FBE70B680360F8E7006800F67D
:10067000B811FFF739BE012A03D0022A03D00020A7
:1006800070470160FBE70B680360F8E7006800F55E
:10069000E471FFF729BE012A03D0022A03D000200B
:1006A00070470160FBE70B680360F8E70068D0F86B
:1006B000882090F8D833117863F382011170C26FEB
:1006C0009376D0F88030002283F8F021D0F888307B
:1006D000D0F880201B78C3F3800383F0010382F8F5
:1006E0009030D0F88030B3F8BC22A3F89C2000F5FD
:1006F000E471FFF7F9BD012A03D0022A03D00020DC
:1007000070470160FBE70B680360F8E7006800F5DD
:10071000E471FFF7E9BD012A03D0022A03D00020CB
:1007200070470160FBE70B680360F8E70068D0F8EA
:10073000882090F88034117863F3C3011170C26F80
:10074000D376D0F88030002283F8F021D0F88830BA
:10075000D0F880201B78C3F3C00383F0010382F834
:100760009030D0F88030B3F8BC22A3F89C2000F57C
:10077000E471FFF7B9BD012A03D0022A03D000209B
:1007800070470160FBE70B680360F8E7006800F55D
:100790003871FFF7A9BD012A03D0022A03D0002037
:1007A00070470160FBE70B680360F8E70068D0F86A
:1007B000803090F8D822A3F8DC20D0F880300022D6
:1007C00083F8D02000F53871FFF78EBD012A03D0E1
:1007D000022A03D0002070470160FBE70B6803602A
:1007E000F8E7006800F53871FFF77EBD012A03D0F5
:1007F000022A03D0002070470160FBE70B6803600A
:10080000F8E70068D0F88030B0F8DC22A3F8FC20CC
:10081000D0F88030002283F8F02000F53871FFF71F
:1008200063BD012A03D0022A03D000207047016073
:10083000FBE70B680360F8E7006800F53871FFF725
:1008400053BD012A03D0022A03D000207047016063
:10085000FBE70B680360F8E70068D0F88030B0F879
:10086000DA22A3F8BC20D0F88030002283F8B02030
:1008700000F53871FFF738BD012A03D0022A03D0F2
:10088000002070470160FBE70B680360F8E7006831
:10089000D0F88020012382F81031D0F8802082F82F
:1008A0003031D0F8802082F83033D0F8802000F545
:1008B000E47182F85033FFF717BD012A03D0022AF2
:1008C00003D0002070470160FBE70B680360F8E786
:1008D000006800F5FC61FFF707BD012A03D0022A7A
:1008E00003D0002070470160FBE70B680360F8E766
:1008F0000368D3F88020B2F83C23A3F814270068DB
:1009000000F66C01FFF7F0BC012A03D0022A03D0E5
:10091000002070470160FBE70B680360F8E703689D
:10092000D3F88020B2F85C23A3F81627006800F5FE
:100930001161FFF7D9BC012A03D0022A03D000209D
:1009400070470160FBE70B680360F8E7006800F59B
:10095000E361FFF7C9BC012A03D0022A03D00020BB
:1009600070470160FBE70B680360F8E7006800F57B
:10097000E361FFF7B9BC012A03D0022A03D00020AB
:1009800070470160FBE70B680360F8E70068D0F888
:100990008030B0F81427A3F81C21D0F88030002252
:1009A00083F8102100F5E361FFF79EBC012A03D014
:1009B000022A03D0002070470160FBE70B68036048
:1009C000F8E7006800F5E361FFF78EBC012A03D069
:1009D000022A03D0002070470160FBE70B68036028
:1009E000F8E70068D0F88030B0F81627A3F83C216B
:1009F000D0F88030002283F8302100F5E361FFF762
:100A000073BC012A03D0022A03D000207047016082
:100A1000FBE70B680360F8E7006800F53871FFF743
:100A200063BC012A03D0022A03D000207047016072
:100A3000FBE70B680360F8E70068C36F90F8B42920
:100A40005A7600F53871FFF74FBC012A03D0022A0D
:100A500003D0002070470160FBE70B680360F8E7F4
:100A6000006800F5E471FFF73FBC012A03D0022AB9
:100A700003D0002070470160FBE70B680360F8E7D4
:100A80007047012A08BF016000207047012A03D087
:100A9000022A03D0002070470160FBE70B68036067
:100AA000F8E70068D0F88020012382F85031D0F8B0
:100AB000802082F87031D0F8802000F5E47182F84F
:100AC0009031FFF711BC012A03D0022A03D0002085
:100AD00070470160FBE70B680360F8E7006800F609
:100AE000BC31FFF701BC012A03D0022A03D0002049
:100AF00070470160FBE70B680360F8E7006800F6E9
:100B00003C71FFF7F1BB012A03D0022A03D0002079
:100B100070470160FBE70B680360F8E70068D0F8F6
:100B20008020012382F85031D0F8802082F8703183
:100B3000D0F8802000F60C3182F89031FFF7D4BB5A
:100B4000012A03D0022A03D0002070470160FBE78E
:100B50000B680360F8E7006800F54A61FFF7C4BB63
:100B6000012A03D0022A03D0002070470160FBE76E
:100B70000B680360F8E7006800F64851FFF7B4BB64
:100B8000012A03D0022A03D0002070470160FBE74E
:100B90000B680360F8E7006800F55F61FFF7A4BB2E
:100BA000012A03D0022A03D0002070470160FBE72E
:100BB0000B680360F8E7006800F69861FFF794BBE4
:100BC000012A03D0022A03D0002070470160FBE70E
:100BD0000B680360F8E7006800F6BC31FFF784BBE0
:100BE000012A03D0022A03D0002070470160FBE7EE
:100BF0000B680360F8E70068D0F88030002283F8C3
:100C0000F021D0F8882090F89C3C517863F3820161
:100C10005170C26F00F6BC311377FFF765BB012A34
:100C200003D0022A03D0002070470160FBE70B6865
:100C30000360F8E7006800F6BC31FFF755BB012AF6
:100C400003D0022A03D0002070470160FBE70B6845
:100C50000360F8E70068D0F88020B0F8443DA2F8BF
:100C60005C31C26F1382D0F88030002283F85021AB
:100C700000F6BC31FFF738BB012A03D0022A03D0AB
:100C8000002070470160FBE70B680360F8E700682D
:100C900000F6BC31FFF728BB012A03D0022A03D09B
:100CA000002070470160FBE70B680360F8E700680D
:100CB000D0F8802090F8EC3DA2F87C31C26F13761A
:100CC000D0F88030002283F8702100F6BC31FFF7A5
:100CD0000BBB012A03D0022A03D000207047016019
:100CE000FBE70B680360F8E7006800F6BC31FFF72C
:100CF000FBBA012A03D0022A03D00020704701600A
:100D0000FBE70B680360F8E70068D0F88020B0F8D4
:100D1000943EA2F89C31C26F5382D0F880300022FA
:100D200083F8902100F6BC31FFF7DEBA012A03D028
:100D3000022A03D0002070470160FBE70B680360C4
:100D4000F8E70068D0F88020012382F8B031D0F8AD
:100D5000802000F60C3182F8D031FFF7C5BA012AA5
:100D600003D0022A03D0002070470160FBE70B6824
:100D70000360F8E7006800F580510831FFF7B4BA66
:100D8000012A03D0022A03D0002070470160FBE74C
:100D90000B680360F8E7006800F585511031FFF734
:100DA000A3BA012A03D0022A03D0002070470160B1
:100DB000FBE70B680360F8E7006800F58A5118311B
:100DC000FFF792BA012A03D0022A03D0002070470D
:100DD0000160FBE70B680360F8E7006800F63C7110
:100DE000FFF782BA012A03D0022A03D000207047FD
:100DF0000160FBE70B680360F8E70068D0F880301B
:100E0000002283F8F021D0F8882041F204035178C1
:100E1000C35C63F3C3015170C26F00F63C7153773A
:100E2000FFF762BA012A03D0022A03D000207047DC
:100E30000160FBE70B680360F8E7006800F63C71AF
:100E4000FFF752BA012A03D0022A03D000207047CC
:100E50000160FBE70B680360F8E7006841F2AC0350
:100E6000D0F88020C35AA2F8BC31C26F9382D0F868
:100E70008030002283F8B02100F63C71FFF734BACD
:100E8000012A03D0022A03D0002070470160FBE74B
:100E90000B680360F8E7006800F63C71FFF724BABE
:100EA000012A03D0022A03D0002070470160FBE72B
:100EB0000B680360F8E7006841F25413D0F8802013
:100EC000C35AA2F8DC31C26FD382D0F8803000223E
:100ED00083F8D02100F63C71FFF706BA012A03D04F
:100EE000022A03D0002070470160FBE70B68036013
:100EF000F8E70068D0F88020012382F83032D0F87B
:100F0000802082F87030D0F8802082F81032D0F83B
:100F1000802000F5E47182F85030FFF7E5B9012A2E
:100F200003D0022A03D0002070470160FBE70B6862
:100F30000360F8E70368D3F88020B2F83C1241F26E
:100F4000FC129952006800F59751FFF7CDB9012ABC
:100F500003D0022A03D0002070470160FBE70B6832
:100F60000360F8E70268D2F88C301B7841F2FE117A
:100F70005B0953527047012A03D0022A03D0002094
:100F800070470160FBE70B680360F8E7012A03D0B4
:100F9000022A03D0002070470160FBE70B68036062
:100FA000F8E7012A03D0022A03D00020704701602D
:100FB000FBE70B680360F8E7006800F59051FFF766
:100FC00093B9012A03D0022A03D0002070470160A0
:100FD000FBE70B680360F8E7006841F2FC1300F5DB
:100FE0009051C25AD0F88030A3F87C20D0F88030DD
:100FF000002283F87020FFF777B9012A03D0022A74
:1010000003D0002070470160FBE70B680360F8E73E
:10101000D0F890300133C0F8903070470022027051
:1010200042707047002202704270704700220270C6
:1010300042707047002202704270704700220270B6
:1010400042707047002202704270704700220270A6
:101050004270704700220270427070470022027096
:101060004270704700220270427070470022027086
:101070004270704700220270427070470022027076
:10108000427070470022027042707047704770478C
:101090007047704770477047704770477047704798
:1010A000012A03D0022A03D0002070470160FBE729
:1010B0000B680360F8E703689A6FB2F89C300A3354
:1010C000A2F89C307047012A03D0022A03D00020E6
:1010D00070470160FBE70B680360F8E703689A6FED
:1010E000B2F89C300A3BA2F89C307047012A03D02A
:1010F000022A03D0002070470160FBE70B68036001
:10110000F8E7012A03D0022A03D0002070470160CB
:10111000FBE70B680360F8E703689A6F0B68B2F8A7
:101120009C100B44A2F89C307047012A03D0022A7D
:1011300003D0002070470160FBE70B680360F8E70D
:10114000036809689A6FB2F89C305B1AA2F89C3069
:101150007047012A03D0022A03D0002070470160A3
:10116000FBE70B680360F8E7012A03D0022A03D0EB
:10117000002070470160FBE70B680360F8E7012A75
:1011800003D0022A03D0002070470160FBE70B6800
:101190000360F8E7012A03D0022A03D00020704739
:1011A0000160FBE70B680360F8E7012A03D0022A1D
:1011B00003D0002070470160FBE70B680360F8E78D
:1011C000012A03D0022A03D0002070470160FBE708
:1011D0000B680360F8E7012A03D0022A03D000203D
:1011E00070470160FBE70B680360F8E7012A03D052
:1011F000022A03D0002070470160FBE70B68036000
:10120000F8E7012A03D0022A03D0002070470160CA
:10121000FBE70B680360F8E7012A03D0022A03D03A
:10122000002070470160FBE70B680360F8E7012AC4
:1012300003D0022A03D0002070470160FBE70B684F
:101240000360F8E7012A03D0022A03D00020704788
:101250000160FBE70B680360F8E7012A03D0022A6C
:1012600003D0002070470160FBE70B680360F8E7DC
:10127000012A03D0022A03D0002070470160FBE757
:101280000B680360F8E7012A03D0022A03D000208C
:1012900070470160FBE70B680360F8E7012A03D0A1
:1012A000022A03D0002070470160FBE70B6803604F
:1012B000F8E7012A03D0022A03D00020704701601A
:1012C000FBE70B680360F8E7012A03D0022A03D08A
:1012D000002070470160FBE70B680360F8E7012A14
:1012E00003D0022A03D0002070470160FBE70B689F
:1012F0000360F8E7012A03D0022A03D000207047D8
:101300000160FBE70B680360F8E7012A03D0022ABB
:1013100003D0002070470160FBE70B680360F8E72B
:10132000012A03D0022A03D0002070470160FBE7A6
:101330000B680360F8E7012A03D0022A03D00020DB
:1013400070470160FBE70B680360F8E7012A03D0F0
:10135000022A03D0002070470160FBE70B6803609E
:10136000F8E7012A03D0022A03D000207047016069
:10137000FBE70B680360F8E7012A03D0022A03D0D9
:10138000002070470160FBE70B680360F8E7012A63
:1013900003D0022A03D0002070470160FBE70B68EE
:1013A0000360F8E7012A03D0022A03D00020704727
:1013B0000160FBE70B680360F8E7012A03D0022A0B
:1013C00003D0002070470160FBE70B680360F8E77B
:1013D000012A03D0022A03D0002070470160FBE7F6
:1013E0000B680360F8E7012A03D0022A03D000202B
:1013F00070470160FBE70B680360F8E7012A03D040
:10140000022A03D0002070470160FBE70B680360ED
:10141000F8E7012A03D0022A03D0002070470160B8
:10142000FBE70B680360F8E7012A03D0022A03D028
:10143000002070470160FBE70B680360F8E7012AB2
:1014400003D0022A03D0002070470160FBE70B683D
:101450000360F8E7012A03D0022A03D00020704776
:101460000160FBE70B680360F8E7012A03D0022A5A
:1014700003D0002070470160FBE70B680360F8E7CA
:10148000012A03D0022A03D0002070470160FBE745
:101490000B680360F8E7012A03D0022A03D000207A
:1014A00070470160FBE70B680360F8E7012A03D08F
:1014B000022A03D0002070470160FBE70B6803603D
:1014C000F8E7012A03D0022A03D000207047016008
:1014D000FBE70B680360F8E7012A03D0022A03D078
:1014E000002070470160FBE70B680360F8E7012A02
:1014F00003D0022A03D0002070470160FBE70B688D
:101500000360F8E7012A03D0022A03D000207047C5
:101510000160FBE70B680360F8E7012A03D0022AA9
:1015200003D0002070470160FBE70B680360F8E719
:10153000012A03D0022A03D0002070470160FBE794
:101540000B680360F8E7012A03D0022A03D00020C9
:1015500070470160FBE70B680360F8E7012A03D0DE
:10156000022A03D0002070470160FBE70B6803608C
:10157000F8E7012A03D0022A03D000207047016057
:10158000FBE70B680360F8E7012A03D0022A03D0C7
:10159000002070470160FBE70B680360F8E7012A51
:1015A00003D0022A03D0002070470160FBE70B68DC
:1015B0000360F8E78368D3F88010D1F81821126827
:1015C000D2061CD5D1F820215268002092B2C1F871
:1015D0000001C2F1FF00FF2828BFFF20FF2AC1F849
:1015E00004010CD0D3F89020D3F88010C3F89420D5
:1015F000D1F80421D1F80011521AC3F8A420704781
:101600000378C3F3001020B9C3F3401008B9C3F343
:10161000801070470B1A9B10002B10DD027812B35C
:1016200042780AB90130704782780AB902307047AF
:10163000C2780AB9033070470430013BECE70B1A5B
:10164000022B0BD0032B06D0012B0BD10378002BE0
:1016500018BF0846704703782BB10130037813B1E7
:101660000130F3E7084670470B1A9B10002B10DD82
:10167000027812BB42780AB10130704782780AB111
:1016800002307047C2780AB1033070470430013B22
:10169000ECE70B1A022B0BD0032B06D0012B0BD13E
:1016A0000378002B08BF0846704703782BB9013038
:1016B000037813B90130F3E708467047FEF7E0BD41
:1016C000036813B90160704713465A68002AFBD1BA
:1016D0005960704710B504462CB1236820461B683A
:1016E00098476468F8E710BDA8235943037A43B1CB
:1016F0000F4B9B680360994224BFCB1A43600023C1
:10170000037203680A4A994207D892689B1A994261
:101710000CD8012303720020704791688B4205D8D2
:10172000536892689B1A42689342F2D20120704734
:1017300010E000E0D0F89C203221531CC0F89C300F
:10174000B2FBF1F301FB132323B9D0F8980003682F
:101750005B681847704770470A1A02D0202107F0CB
:1017600046BA704770477047704700000369002B06
:10177000BFBF034B436003F188334360704700BF32
:1017800023016745D0E9002101238B409361704715
:10179000D0E900120123103293408B617047036837
:1017A00010B504469869FFF7F3FFC8216068FFF79A
:1017B0009BFF0028F9D123689869FFF7E3FFC82150
:1017C0006068FFF791FF0028F9D110BD38B50368B4
:1017D000044618690D46FFF7DBFF23686068DA6985
:1017E0009B6A53F835309361FFF7D9FF236860682F
:1017F000996ADA6901EBC5014B689361FFF7CFFF86
:101800006421A068FFF770FF0028F9D138BD0000FF
:10181000437B012B10B5044622D002D3022B2AD0E1
:1018200010BD4069FFF7B4FF2069FFF7ABFF626BA3
:10183000206A531C50216363B2FBF1F301FB1323B5
:10184000114A52F82330C25C636A03EBC20053F8BA
:101850003210E26943689161E36201236373DFE759
:101860008069FFF78FFFA069FFF792FFE369E26AE3
:101870009A610223F2E78069FFF784FFA069FFF70E
:1018800087FF0023EAE700BFFC9700080368416870
:101890001A6901238B40134214BF012000207047B6
:1018A00070B50D460646FFF7F1FF5DB1D6E900427F
:1018B0000123266903FA02F10E421DBF1032934044
:1018C000A361A1616840C0B270BD10B504682CB1BD
:1018D000236820461B689847A468F8E710BD10B538
:1018E0008368044613B1032201469847204610BD81
:1018F00010B5044B044640F8343BFFF7F0FF204698
:1019000010BD00BF30AD000810B504460830FFF729
:10191000DCFFD4E90421531C2361B2FBF1F301FB8A
:10192000132313B92046FFF7D0FF10BD0148FFF77E
:10193000EBBF00BFC8050020426903699A424FF01F
:10194000000326BF4361012018467047037BC3B1E3
:1019500000230373D0E901236AB143B19360836824
:101960005A600023C0E9013370470B60F8E705496E
:1019700093604A60F5E70349002BF6D1C1E90033D3
:10198000EFE77047C805002000224261FFF7DEBF85
:10199000037B53B901230373044B5A68426002B1BD
:1019A00090601A68586002B918607047C805002036
:1019B0000C2A10B501D0112A15D1204B9A68C2F318
:1019C0004232D2B1042A1AD0052A1AD01C4B1D4C1F
:1019D000062A08BF234607291AD8DFE801F0141A9F
:1019E0001D202326292C0D3A032A04D8134B9A686C
:1019F000C2F38222E5E70023EDE7134BEBE7134B3D
:101A0000E9E7134BE7E74FF41652B3FBF2F38360B9
:101A100010BD4FF46152F8E74FF49642F5E74FF4EA
:101A2000E142F2E74FF41642EFE74FF46142ECE790
:101A30004FF49632E9E74FF4E132E6E7003802402E
:101A4000A037A000406F4001007A030A00BD0105E5
:101A500080DE800219B90068C0F340107047012988
:101A600003D10068C0F3C0207047022903D1006889
:101A7000C0F340507047032903D10068C0F3C06031
:101A80007047042901D14068E6E7052901D1406883
:101A9000E8E7062901D14068EAE7072901D1406853
:101AA000ECE70020704770B58668D6F8803093F870
:101AB0002811D3F81401FFF7CDFF60B3D6F88040AA
:101AC0000025C4F80051C4F80451D4F81001FFF700
:101AD0005FFED4F81C311A6865F300021A60D4F86E
:101AE00020311A6865F300021A60FF225A60D4F8A8
:101AF00020311A6842F001021A601A68D207FCD538
:101B0000D4F81821D36843F01003D3603046BDE801
:101B10007040FFF73DBF70BDFEE7FEE7FEE7FEE762
:101B2000FEE7FEE7FEE7FEE7FEE7FEE7FEE7FEE78D
:101B3000FEE7FEE7FEE7FEE7FEE7FEE7FEE7FEE77D
:101B4000FEE7FEE7FEE7FEE7FEE7FEE7FEE7FEE76D
:101B5000FEE7FEE7FEE7FEE7FEE7FEE7FEE7FEE75D
:101B6000FEE7FEE7FEE7FEE7FEE7FEE7FEE7FEE74D
:101B7000FEE7FEE7FEE7FEE7FEE7FEE7FEE7FEE73D
:101B8000FEE7FEE7FEE7000010B5064C6269D303EE
:101B900003D5054B1868FFF79DFD4FF48033636153
:101BA00010BD00BF003C01408805002008B5044B73
:101BB0001868FFF78FFD034B1A685B6808BD00BF0C
:101BC000A80500200010014008B5044B1868FFF775
:101BD00081FD034B1A685B6808BD00BFB00500209B
:101BE0000044004008B5044B1868FFF773FD034B31
:101BF0001A685B6808BD00BFB805002000480040B7
:101C000008B5044B1868FFF765FD034B3D229A6049
:101C100008BD00BF080500200060024008B5044B65
:101C20001868FFF757FD034B4FF474629A6008BDC4
:101C3000100500200060024008B5044B1868FFF74B
:101C400049FD034B4FF474129A6008BD180500203B
:101C50000060024008B5044B1868FFF73BFD034BDA
:101C60004FF074629A6008BD2005002000600240B9
:101C700008B5044B1868FFF72DFD034B4FF4746251
:101C8000DA6008BD280500200060024008B5044B5A
:101C90001868FFF71FFD034B4FF47462DA6008BD4C
:101CA000300500200060024008B5044B1868FFF7BB
:101CB00011FD034B4FF47412DA6008BD38050020A3
:101CC0000060024008B5044B1868FFF703FD034BA2
:101CD0004FF07462DA6008BD4005002000600240E9
:101CE00008B5044B1868FFF7F5FC034B3D229A60DA
:101CF00008BD00BF480500200064024008B5044B41
:101D00001868FFF7E7FC034B4FF474629A6008BD54
:101D1000500500200064024008B5044B1868FFF726
:101D2000D9FC034B4FF474129A6008BD580500208B
:101D30000064024008B5044B1868FFF7CBFC034B66
:101D40004FF074629A6008BD600500200064024094
:101D500008B5044B1868FFF7BDFC034B3D22DA6061
:101D600008BD00BF680500200064024008B5044BB0
:101D70001868FFF7AFFC034B4FF47462DA6008BDDC
:101D8000700500200064024008B5044B1868FFF796
:101D9000A1FC034B4FF47412DA6008BD78050020F3
:101DA0000064024008B5044B1868FFF793FC034B2E
:101DB0004FF07462DA6008BD8005002000640240C4
:101DC000014B1868FFF786BC90050020014B18688E
:101DD000FFF780BC98050020014B1868FFF77ABC1C
:101DE000A0050020026810B5541C02440460517222
:101DF00004685021B4FBF1F201FB1242026010BDF5
:101E000010B504681421B4FBF1F201FB1242034641
:101E100012B92021FFF7E6FF14241968B1FBF4F290
:101E200004FB121222B120211846FFF7DBFFF4E772
:101E3000184610BD08B503461A6822B1202118467D
:101E4000FFF7D0FFF8E7184608BD38B505460C4641
:101E5000084609B1FEF7BCF9C5E90004284638BDBB
:101E600010B514240368B3FBF4F304FB03115024EE
:101E7000B1FBF4F304FB1311016010BD38B5046825
:101E8000D4F8AC30F3B1013BC4F8AC30D4F8A8308E
:101E9000606814256B4303600F21FFF7E1FF2021E9
:101EA000FFF7A0FFD4F8A8306068013B5D43C4F899
:101EB000A8300F210560FFF7D3FF7E21BDE8384031
:101EC000FFF790BF38BD38B50468D4F8AC30012BAB
:101ED0001ED00133C4F8AC30D4F8A83060681425A3
:101EE0006B4303600F21FFF7BBFF2021FFF77AFF51
:101EF000D4F8A830606801335D43C4F8A8300F21DE
:101F00000560FFF7ADFF7E21BDE83840FFF76ABFEF
:101F100038BD437A70B5054600F10C062BB100239D
:101F20004372C1613046FFF733FD3046FFF704FDD1
:101F3000012428B13046FFF727FD6C72002070BDE8
:101F40002046FCE770B58EB005AD0023CDE9015009
:101F50000C93CDE90533CDE909330B93394E0D933D
:101F60000123044608968DF81D308DF81C30009032
:101F7000CDF80CD0049564212846FFF7CAFF00284D
:101F8000F9D12069FFF704FC6069FFF701FCA06943
:101F9000FFF7F8FBA26AE369D2699A616846FFF726
:101FA000FEFB05212846FFF7B4FF0028F9D1A26AFD
:101FB000E369D2699A616846FFF7F1FB642128461C
:101FC000FFF792FB0028F9D1A26AE369D2699A610E
:101FD0006846FFF7E4FB32212846FFF785FB00281F
:101FE000F9D1A26AE36952699A616846FFF7D7FBA3
:101FF00032212846FFF778FB0028F9D1282102A8D2
:10200000FFF7E4FB0C2102A8FFF7E0FB062102A882
:10201000FFF7DCFB012102A8FFF7D8FB802102A813
:10202000FFF7D4FB01212846FFF773FF0028F9D101
:102030000EA8012384F8303040F8186DFFF786FCB5
:102040000EB070BDE494000821B9036962F3020385
:1020500003617047012903D1036962F3C503F7E700
:10206000022903D1036962F38813F1E7032903D13D
:10207000036962F34B23EBE7042903D1036962F39D
:102080000E33E5E7052903D1036962F3D133DFE7B6
:10209000062903D1036962F39443D9E7072903D1E1
:1020A000036962F35753D3E7082903D1036962F345
:1020B0001A63CDE7092903D1036962F3DD63C7E73A
:1020C0000A2904D1C36862F30203C36070470B2975
:1020D00003D1C36862F3C503F7E70C2903D1C368D2
:1020E00062F38813F1E70D2903D1C36862F34B2330
:1020F000EBE70E2903D1C36862F30E33E5E70F293E
:1021000003D1C36862F3D133DFE7102903D1C36879
:1021100062F39443D9E7112903D1C36862F357539B
:10212000D3E71229D2D1C36862F31A63CDE701293C
:1021300004D1436B62F3040343637047022903D164
:10214000436B62F34913F7E7032903D1436B62F34F
:102150008E23F1E7042903D1436B62F3D333EBE71A
:10216000052903D1436B62F31853E5E7062903D130
:10217000436B62F35D63DFE7072904D1036B62F30E
:10218000040303637047082903D1036B62F3491307
:10219000F7E7092903D1036B62F38E23F1E70A29DC
:1021A00003D1036B62F3D333EBE70B2903D1036B4A
:1021B00062F31853E5E70C2903D1036B62F35D6307
:1021C000DFE70D2904D1C36A62F30403C3627047D9
:1021D0000E2903D1C36A62F34913F7E70F2903D12C
:1021E000C36A62F38E23F1E71029F0D1C36A62F368
:1021F000D333EBE7836A1A6842F001021A601A6867
:10220000D107FCD5036A9A6842F001029A609A6885
:10221000D207FCD59A6842F080429A60704710B5A8
:1022200004465030FFF75BFB04F14000FFF757FB1B
:1022300004F13000FFF753FB04F12000FFF74FFBE0
:1022400004F11000FFF74BFB2046FFF748FB204648
:1022500010BD0000204B1A68052161F302021A60CC
:10226000A3F580631A6842F480321A601A689203F8
:10227000FCD59A686FF307129A609A68052161F39A
:102280008C229A609A68042161F34F329A609A68AE
:10229000022060F301029A605A6861F305025A60F5
:1022A0005A68A82161F38E125A605A68072161F3B7
:1022B0001B625A605A686FF311425A605A6842F4BE
:1022C00080025A601A6842F080721A60034A1368EA
:1022D0009B01FCD5704700BF003C02400038024023
:1022E0007B487C49F8B5036813F0010F7CD17A4B29
:1022F0007A4C1A6812F0010F06D1DFF8F8E10222D9
:10230000C4E900E201221A60754B1A6B42F0010227
:102310001A6322681568022666F305151560156AAA
:10232000072666F30B251562D5686FF30515D56092
:102330006C4D2A6812F0010F6B4A06D1DFF8B4C168
:102340000326C2E900C601262E601D6B45F001057B
:102350001D6313681D68022666F387151D601D6ADC
:10236000072666F30F351D62DD686FF38715DD60A4
:102370005E4D2B6813F0010F5D4B05D15D4F0F26AD
:10238000C3E9007601262E60554E356B45F00105F8
:1023900035631D682F68012666F39F772F60EF680D
:1023A0006FF39F77EF60C1F81031534BC1F81431D0
:1023B000A3F50733C1F8183103F50733A033C1F88B
:1023C0001C31183BC1F820310D230025C1F8243100
:1023D0000623C1F80051C1F80451C1F80841C1F801
:1023E0000C2181F8283106603D4C236C43F4003306
:1023F0002364D1F81831DA6842F00802DA60DA684A
:1024000042F00402DA605A6942F080025A615A6965
:1024100042F040025A61394B93F90400FFF74EF93C
:10242000236B43F400132363D1F81C311A68012095
:1024300060F387121A60D1F800210A44DA60D1F8FB
:10244000182104329A601A6842F480621A601A688D
:102450006FF34E321A601A686FF3CC221A601A6852
:1024600042F010021A60264B93F90400FFF726F998
:10247000D1F820311A686FF387121A60D1F8002161
:102480000A44DA60D1F8182104329A60FF225A60B7
:102490001A6842F480621A601A686FF34E321A604A
:1024A0001A686FF3CC221A601A6842F480721A60BC
:1024B000D1F820311A68042060F35B621A60D1F809
:1024C0001C311A6860F35B621A600248F8BD00BFF5
:1024D000BC010020C00100200403002008030020EC
:1024E00000380240F8020020FC020020EC0200202C
:1024F000F00200200000024000600240B005002011
:102500003805002010B50C1A134605D001462246A6
:10251000184606F053FB0346181910BD2DE9F34782
:1025200002AB03E906000768037A00F109080646D2
:10253000DDE9004508EB070263B3132C22D8C4F190
:10254000140902EB590910464946FFF705F9291904
:102550004A462846FFF7D6FF09EB040A07F11401A3
:1025600041445046FFF7F8F8336850211433B3FB69
:10257000F1F201FB1233336000233046337202B0B4
:10258000BDE8F087143C05EB540000F11401FFF79F
:10259000B9FFE9E7C7F15001A14205EB040907D9EA
:1025A00049462846FFF7AEFF306804443460E3E74D
:1025B00029442846FFF7A6FF3368A4F150071F44BB
:1025C000E41B2C44502F2046424604F1500404D909
:1025D0002146FFF797FF503FF4E74946FFF792FF88
:1025E000336850221F44B7FBF2F302FB13773760C6
:1025F000C2E7000030B589B00A460446114905A873
:1026000006F0FAFB05A901A8FFF71FFC6368019A11
:10261000934208D99B1A13F1FF3304D3202120469B
:10262000FFF7E0FBF7E703AD05A92846FFF70DFC30
:1026300095E806002046FFF771FF002320466360FF
:1026400009B030BD909B0008F8B505460F464FF421
:102650007A7691FBF6F42146FFF7CCFF2E2128462F
:10266000FFF7C0FB06FB14740A2394FBF3F4092C58
:1026700008DC00212846FFF7BDFF2146FFF7BAFF1F
:102680002846F8BD21462846F8E70000F7B504467D
:10269000406802260660A36FB3F8BC12FFF7D4FFB0
:1026A0006D46074679492846FFF7CFFB95E80600B7
:1026B0003846FFF733FF60680D23C0E90036A36F8B
:1026C000B3F87C12FFF796FF2521FFF78BFB6068BC
:1026D0001E23C0E90036B4F88C10FFF78BFF6C495D
:1026E00006462846FFF7B1FB95E806003046FFF79F
:1026F00015FFD4F8AC20D4F88410531C496804EBBF
:1027000042020A2BA8BF002389686020B1FBF0F1C8
:10271000A2F8B410C4F8AC300023C4F8B03004F10F
:10272000B40204F1C8009042D4F8B01005D032F8D9
:10273000023B1944C4F8B010F5E7564E0A23642250
:10274000B1FBF3F13346C4F8B010002A0DDD501090
:1027500003EB800C53F82070B94204D2121A0CF12A
:102760000403013AF1E70246EFE79B1B9B10B4F824
:102770008E109AB2531AD4F88810A4F88C20002B2B
:102780000978B8BF5B428B4207DBD4F880104B78E6
:1027900043F001034B70A4F88E20A36F3E4F93F8D3
:1027A0003C30002B58D004F19000FFF7C5F894F8A6
:1027B000A830666883EA000283424FF0220384F85F
:1027C000A82033600ED0E36F1B78C3F3C003284604
:1027D00057F82310FFF739FB95E806003046FFF75E
:1027E0009DFE03E020213046FFF7FCFA66682323B4
:1027F0003360E36F1B78C3F38003284657F8231038
:10280000FFF723FB95E806003046FFF787FEE26FEF
:102810001046FEF7F5FE18BB6668204914233360A6
:102820002846FFF712FB95E806003046FFF776FED4
:10283000606816230360A36FB3F8DC12FFF704FF90
:10284000174904462846FFF700FB95E80600204696
:10285000FFF764FE03B0F0BD666822233360B2E781
:102860001378D90604D564680E4914232360E9E778
:102870009A0604D564680C4914232360E2E75B06DA
:10288000E8D56468094914232360DBE7609B0008EE
:10289000649B0008989B00083C9B0008679B00080D
:1028A0006A9B00086D9B0008769B00087F9B0008D0
:1028B00038B5002383608B6804460D462BB1022295
:1028C0009847EB68E360AB68A360204638BD38B535
:1028D000002383608B6804460D462BB10222984783
:1028E000EB68E360AB68A360204638BD38B50446AA
:1028F0000D46FFF7DDFF05F1100104F11000FFF7B1
:10290000D7FF05F1200104F12000FFF7D1FF05F109
:10291000300104F13000FFF7CBFF05F1400104F175
:102920004000FFF7D4FF05F1500104F15000FFF71C
:10293000CEFF204638BD826810B50AB906F002F90C
:10294000C368BDE81040184708B500686830FFF755
:10295000F2FF08BD08B500686830FFF7ECFF08BD5E
:1029600070B5816800220B4613B19A605B68FBE783
:10297000D0E9042302EB43050B469542144609D0E7
:1029800026889C6834449C605B680232002B08BF38
:102990000B46F2E7C36B13B13430FFF7CCFF70BDC9
:1029A000006808B5D0F89C3090F8A0201A70D0F8D4
:1029B00084301BB17C30FFF7BEFF08BD6C30FAE7F6
:1029C00008B500686C30FFF7B6FF08BD08B50368AE
:1029D000D3F8DC00182202FB00308030FFF7ABFF99
:1029E00008BD08B500686830FFF7A5FF08BD08B549
:1029F0000368D3F8AC00182202FB00308030FFF7E8
:102A00009AFF08BD08B500686830FFF794FF08BD5D
:102A100008B50368D3F8C400182202FB00308030E8
:102A2000FFF789FF08BD08B500686830FFF783FF2E
:102A300008BD006808B5D0F89C30B0F8A0201A8016
:102A4000D0F884301BB17C30FFF775FF08BD6C30C7
:102A5000FAE708B500686C30FFF76DFF08BD08B5F0
:102A60000368D3F89C2093F8A03013700068D0F866
:102A700084301BB17C30FFF75EFF08BD6C30FAE795
:102A800008B500686C30FFF756FF08BD006808B550
:102A9000D0F89C3090F8A0201A70D0F884301BB188
:102AA0007C30FFF748FF08BD6C30FAE708B50068D6
:102AB0006C30FFF740FF08BD006808B5D0F89C30C7
:102AC00090F8A0201A70D0F884301BB17C30FFF74A
:102AD00032FF08BD6C30FAE708B500686C30FFF7CC
:102AE0002AFF08BD08B50368D3F8F400182202FBDA
:102AF00000308030FFF71FFF08BD08B50068683060
:102B0000FFF719FF08BD08B50368D3F80C011822B8
:102B100002FB00308030FFF70EFF08BD08B50068EB
:102B20006830FFF708FF08BD38B53B4D3B4C2B68BC
:102B300013F0010321D13A4A22603A4A226202F597
:102B40004072626202F5A03202F58872C4E906039F
:102B5000A2623548636024222146C4E90233C4E9F5
:102B60000433E0622263E363FEF7AAFD01232F4AE8
:102B70002F492B60204605F0E0FF2E4A536C43F4AA
:102B800080735364236A59686FF3196159609968B7
:102B900041F002019960996841F4807199609968E7
:102BA00041F400719960606A416841F440314160CC
:102BB000596841F480715960116B41F480011163CF
:102BC00003F14C02A36A9A601A686FF387121A60C5
:102BD0001A68012161F34E321A601A6861F3CC223F
:102BE0001A601A6842F480621A601A6842F0100291
:102BF0001A601A6842F480721A601A6842F480728D
:102C00001A601A686FF35B621A60E36A93F9040052
:102C1000FEF754FD014838BD740100207801002002
:102C200030AD0008002001404805002000000020D1
:102C3000F118000800380240F8B504465148524DDA
:102C4000026812F0010F1FD1504A136813F0010FF0
:102C50004F4B05D14F4F0721C3E90071012111608E
:102C60004D490A6B42F001020A631A68116841F487
:102C700040411160D1686FF38F31D1600022C5E906
:102C80000022EB6001230360236B206A243B012BAD
:102C90008CBF00260726F7B2072239462E61FFF7C0
:102CA000D3F9E169206A0131E1613A46FFF73FFA61
:102CB000D4E90732D16A013B63F31751D162A268AC
:102CC0001346002B55D019698E424DDB5B68F8E73F
:102CD0006A60E368A56003B9E5602069A2692F4BCB
:102CE00068B1D3F8001150F8045D0439491B5D1830
:102CF000A8421ABF012183F80411C3F800116169C9
:102D00000A4462612649D3F800518A4294BF5200B6
:102D10004FF0FF32281D1044B0F5807F03EB050112
:102D2000C3F800011ED893F80401D8B909B15A516B
:102D30000431A36A21611A686FF300021A60A28A43
:102D4000D9605A601A6842F001021A601A68D20704
:102D5000FCD50D48F8BD1A68C5E900231D602B6835
:102D60005D60BAE70021E4E79A42F4D16A60156039
:102D7000AFE7002AACD0E3682B60002BACD05D60DD
:102D8000AAE700BF14010020180100202C01002038
:102D90003001002000000240003802400004002002
:102DA000FCFFFF3F38B5002383608B6804460D4667
:102DB0002BB102229847EB68E360AB68A360204622
:102DC00038BD826810B50AB905F0BCFEC368BDE81D
:102DD0001040184730B585B00446002569460830D4
:102DE0000295FFF7EEFF6846FEF779FD694604F1AC
:102DF00018000295FFF7E5FF6846FEF770FD69468B
:102E000004F138000295FFF7DCFF6846FEF767FD26
:102E100005B030BD30B585B00446002569460830A0
:102E20000295FFF7CEFF6846FEF759FD694604F1AB
:102E300018000295FFF7C5FF6846FEF750FD69468A
:102E400004F128000295FFF7BCFF6846FEF747FD36
:102E5000694604F138000295FFF7B3FF6846FEF7B4
:102E60003EFD05B030BD30B585B00446002569464D
:102E700008300295FFF7A5FF6846FEF730FD69466A
:102E800004F118000295FFF79CFF6846FEF727FD46
:102E9000694604F128000295FFF793FF6846FEF7A4
:102EA0001EFD694604F138000295FFF78AFF684667
:102EB000FEF715FD05B030BD30B585B004460025E0
:102EC000694608300295FFF77CFF6846FEF707FD6C
:102ED000694604F118000295FFF773FF6846FEF794
:102EE000FEFC694604F128000295FFF76AFF684678
:102EF000FEF7F5FC694604F138000295FFF761FF23
:102F00006846FEF7ECFC05B030BD30B585B0044630
:102F10000025694608300295FFF753FF6846FEF723
:102F2000DEFC694604F118000295FFF74AFF684687
:102F3000FEF7D5FC694604F128000295FFF741FF32
:102F40006846FEF7CCFC694604F138000295FFF7AD
:102F500038FF6846FEF7C3FC05B030BD30B585B01C
:102F600004460025694608300295FFF72AFF6846A7
:102F7000FEF7B5FC694604F118000295FFF721FF42
:102F80006846FEF7ACFC694604F128000295FFF79D
:102F900018FF6846FEF7A3FC694604F13800029565
:102FA000FFF70FFF6846FEF79AFC05B030BD000042
:102FB0001FB5224B00900446694603930830204B0E
:102FC0000293FFF7FEFE6846FEF789FC1D4B039354
:102FD00069461D4B029304F118000094FFF7F1FEBF
:102FE0006846FEF77CFC194B03936946184B029325
:102FF00004F138000094FFF7E4FE6846FEF76FFC2A
:1030000060680023036004F1780393E80600FFF78B
:1030100085FAFEF7F5FE606814230360D4F8883063
:103020001988FFF7E7FA04F1800393E80600FFF739
:1030300075FA6068FEF7FEFE04B010BDA30200083A
:10304000A5020008BB020008BD02000849290008CB
:10305000D302000838B5002383608B6804460D4610
:103060002BB102229847EB68E360AB68A36020466F
:1030700038BD10B50B460446D1E9000184E80300D1
:1030800003F1080104F10800FFF78CFE204610BD93
:1030900082B038B50593184B0360BDF828308380A3
:1030A000BDF82C30C3800446816011460C30099D68
:1030B000FFF71CFC0C9904F16C00FFF773FE0D99EF
:1030C00004F17C00FFF76EFE05AA92E8030004F10C
:1030D0008C0307AA83E8030092E8030004F1940339
:1030E00083E803002B88C4F89C502046A4F8A03045
:1030F000BDE8384002B070476895000838B51D46F5
:10310000124B0446C0E9003111460830FFF7EEFBD0
:10311000294604F16800FFF745FE049904F17800A0
:10312000FFF7A7FF059904F19000FFF7A2FF0699AA
:1031300004F1A800FFF79DFF079904F1C000FFF715
:1031400098FF0023C4E93633204638BDA495000813
:10315000D0F80431FE2B9FBFC154D0F804310133A5
:10316000C0F8043170470000F0B5D0F88020D2F8E4
:103170000431D2F800115C1A022C35D999423EBFB5
:1031800003F1FF33C2F80431D55CD0F88020DFF8BA
:1031900060C0D2F80431D2F80011144F28BF0025C6
:1031A0008B4282BF03F1FF33C2F80431D65CD0F802
:1031B0008030D3F80021D3F804114FF0FF001A44F7
:1031C00098BF00260B44044612F8011B414093426D
:1031D0001CF8010080EA04007C5CF5D1AC4203D10C
:1031E000831B58425841F0BD0020FCE73C9A000880
:1031F0003C99000838B5D0F88C301D68D0F8803084
:10320000D3F800219A5C2B799A42044611D0AB691D
:103210000921EA1811750133032293FBF2F202EB44
:1032200042029B1AAB61D4F8AC300133C4F8AC3025
:1032300038BDFFF799FF18B9AB691021EA18E9E723
:10324000D4F88020D2F80031D2F80411994284BF1A
:103250000133C2F80031D4F88030D3F80021D3F81C
:103260000411914283BF511CC3F800119B5C0023E1
:103270001B0612D5D4F88030D3F80021D3F80411FE
:10328000914282BF511CC3F800119A5CAB6905EBF7
:10329000030198BF00220A75BDE72B7A032BC7D123
:1032A000D4F88020D2F80031D2F80411994284BFBA
:1032B0000133C2F80031D4F88030E868D3F8002137
:1032C000D3F80411541CA14217D9914284BFC3F80A
:1032D00000419C5CD3F8002198BF0024914283BF39
:1032E000511CC3F800119A5C00224FF0000362F3F6
:1032F000070364F30F2303809AE70023FBE713B56A
:103300000B460446D0E900016A4682E8030093E8D0
:10331000030084E8030092E8030083E8030002B09E
:1033200010BD38B505460C46FFF7E9FFAB68A2684B
:10333000AA60A360E268EB68EA60E36038BD1FB58D
:1033400004466846FFF72EFD21466846FFF7E9FF71
:103350006846FEF7C4FA204604B010BD08B54430F4
:10336000FFF7EDFF08BD08B53430FFF7E8FF08BDF3
:1033700008B52430FFF7E3FF08BD08B51430FFF7A8
:10338000DEFF08BD08B54430FFF7D9FF08BD08B51A
:103390003430FFF7D4FF08BD08B52430FFF7CFFF66
:1033A00008BD08B51430FFF7CAFF08BD08B54430A2
:1033B000FFF7C5FF08BD08B53430FFF7C0FF08BDF3
:1033C00008B52430FFF7BBFF08BD08B51430FFF780
:1033D000B6FF08BD08B53430FFF7B1FF08BD08B52A
:1033E0003430FFF7ACFF08BD08B54430FFF7A7FF46
:1033F00008BD08B54430FFF7A2FF08BD08B524306A
:10340000FFF79DFF08BD08B51430FFF798FF08BD12
:1034100008B52430FFF793FF08BD08B51430FFF757
:103420008EFF08BD30B5044689B0084600236946C2
:103430000293FFF776FF23689C6F2368694604A810
:10344000DD68FFF7AFFC04A92046A84704A8FEF7F3
:1034500046FA6846FEF743FA09B030BD30B5044677
:1034600089B00846002369460293FFF75AFF236894
:103470001C6F2368694604A89D68FFF793FC04A9A4
:103480002046A84704A8FEF72AFA6846FEF727FA5E
:1034900009B030BD30B5044689B0084600236946FE
:1034A0000293FFF73EFF23685C6F2368694604A818
:1034B0009D68FFF777FC04A92046A84704A8FEF7FB
:1034C0000EFA6846FEF70BFA09B030BD30B5044677
:1034D00089B00846002369460293FFF722FF23685C
:1034E0009C6F2368694604A89D68FFF75BFC04A9EC
:1034F0002046A84704A8FEF7F2F96846FEF7EFF960
:1035000009B030BD0B1A1B11002B14DD0268127CB0
:103510004AB34268127C0AB9043070478268127C50
:103520000AB908307047C268127C0AB90C3070477B
:103530001030013BE8E70B1A9B10022B0DD0032B38
:1035400007D0012B0ED103681B7C002B18BF084647
:10355000704703681B7C33B1043003681B7C13B1D4
:103560000430F0E708467047437B012BF7B504466B
:1035700006D0C0F0D280022B00F00B8103B0F0BD6A
:1035800000F180054FF00003D0F88C001A46294660
:10359000FFF7B8FF8542C4F88C0004D104F1100392
:1035A000C4F88C30EAE7D4F8803005680026C3F808
:1035B0000061C3F804612979D4F88000FFF7C8FDE1
:1035C000297AD4F88000FFF7C3FD3146D4F8800093
:1035D000FFF7BEFDA979D4F88000FFF7B9FD2B7A7B
:1035E000032B01D0102B6DD10021D4F88000FFF700
:1035F000AFFD0121D4F88000FFF7AAFD2B7A102B34
:1036000012D10221D4F88000FFF7A2FD2B7A102BF3
:103610000AD1EB68D4F880001988090AFFF798FDF1
:10362000EB681978FFF794FD2B7A032B01D0052B5B
:1036300056D12B6829461B6801A898479DF80510AC
:10364000D4F88000FFF784FD9DF80410FFF780FD9B
:10365000D4F89C30C4F89430D4F8B030D4F880500A
:1036600000260133C4F8B030C4F8A460D5F81001C6
:10367000FEF788F8D5F81831DA6866F30412DA60D4
:10368000D5F820311A6866F300021A60D5F81C31AB
:103690001A6866F300021A60D5F80431D5F80011F3
:1036A000D5F81C215B1A02339BB25360D5F81C314C
:1036B0001A6842F001021A601A68D207FCD500238A
:1036C00063735BE7052BAFD1EB68D4F880001988F2
:1036D000002914BFFF210021FFF73AFD314691E791
:1036E000102BB5D1D4F88000DFF8D4C0D0F8003169
:1036F000D0F80421314FFF21034486180D4613F8FA
:10370000012B4A409E421CF8021081EA0501BD5C73
:10371000F5D1FFF71DFD294698E7D0F88010D0F8C5
:103720009C20D1F80431D1F800115B1AD0F8A41014
:103730009942D0F8901038BFC0F894208A4217DC24
:10374000D0F88C3018688369C218122515750133BA
:10375000032293FBF2F202EB42029B1A8361D4F83C
:10376000AC30C4F8A0100133C4F8AC30022363734A
:10377000D4F89430C91AD4F898309942FFF6FEAEC6
:103780002046FFF737FDD4F89030C4F8A03002236C
:1037900096E7D0F89030D0F8A020093B93427FF70D
:1037A000EDAE0023C0F89030FEF7D0F8D0F88C30A2
:1037B0000433C0F88C30012382E700BF3C9A000834
:1037C0003C9900082DE9F04F394BADF5DF5D87B02E
:1037D00003F1180684AA344618685968154603C5CB
:1037E0000833B3422A46F7D118689B88AB80314B27
:1037F00028609493304B9893304BA59300224FF45C
:1038000080312F48A99384ABA691A8918DF8A92265
:10381000959296928DF85C22A292ADF88C22A49299
:10382000A7908DF8A8228DF8AA228DF8AC22999342
:10383000FF2194AB134401321E2A1976F9D10DF5FC
:103840000C780021404605F0D2F99898FDF78EFFDC
:10385000989B1A69012767F309221A611A6942F0D5
:1038600080721A6194AD00264FF6FF7A0DF24E2950
:10387000D5E9113103EB410199420FD01A781D2A85
:1038800009D80DF5147C6244587810761A7808F837
:1038900002700233F0E71A885245FAD1A993696C95
:1038A00099420FD1A2960835CEB90126E0E700BFB4
:1038B000BC94000850AD0008003C024000000A081B
:1038C00000000808AA6C01EB4202934202F048840F
:1038D00049464046A296FDF79DFE8145E3D1A29A56
:1038E00094AB03EBC201D1E91130A99903EB40037A
:1038F000994206D1A3AB012199540023A293A59B21
:10390000A9930DF24E2631464046FDF783FEB042A4
:10391000054642F02B84999B9AAAA0AF164603CE87
:10392000BE4218605960324603F10803F6D1306890
:103930001860B2889A8000238DF8AA329DF88C32E4
:103940008BB9A29B7BB1A59AA69B4FF6FF7002EBA9
:1039500043018A42134642F010840B465B1A18BF9B
:1039600001238DF88C329DF88D32ABB9A29B012BCF
:1039700012D0A79BA89A4FF6FF7003EB42029A421F
:10398000194604D00E88864203F10203F7D0521A7A
:1039900018BF01228DF88D2296AB0DF28E2603F111
:1039A00034003146FDF760FE864218BF0323989A23
:1039B00018BF8DF8A932136943F0004313610DF26B
:1039C0004E239D420DD0DE4B84AA186859681546D7
:1039D00003C50833A3422A46F7D118689B8828609C
:1039E000AB8094A8FDF7D4FFD64B1A6812F0010FF4
:1039F000D54A05D1D54E0521C2E9006101211960E2
:103A0000D34B196B41F00101196312681168012051
:103A100060F38B211160D1686FF38B21D160CD49A8
:103A20000A6812F0010F08BFC84DCB4A02BF0860F8
:103A30000424C2E90054196B41F0010119631368B1
:103A40001A684FF0010969F309221A60DA680DF566
:103A50009F646FF30922DA6004F804990DF5A262FD
:103A600000230520E2600DF5AA61BC4A8DF80A35F5
:103A7000ADF85430ADF85830E38020722374ADF8BF
:103A80000835A361CDF8F424A38384F82490A4F826
:103A9000269084F82800E164B14921640DF5A662FE
:103AA0000DF5AE61E262E166AE4AAF4922620DF504
:103AB000B26510222166C4F88C500421AB4D8DF8FC
:103AC0002A358DF84A358DF86A358DF88A3584F8AF
:103AD0003030ADF82835A363A387A4F8463084F8C6
:103AE0004820ADF84835A365A4F85C3084F8682018
:103AF000ADF86835A367A4F87C3084F88820ADF869
:103B00008835C4F8983084F8449084F86490A4F818
:103B1000669084F88490A4F88610C4F880500DF55F
:103B2000B665C4F8AC50924DC4F8A0500DF5BA6516
:103B3000C4F8CC508F4DC4F8C0500DF5BE65C4F824
:103B4000EC508D4DC4F8E0500825A4F806510DF551
:103B5000C2654FF006084FF0070EC4F80C51874DB0
:103B60008DF8AA358DF8CA358DF8EA35A4F89C3061
:103B7000A4F8A60084F8A820ADF8A835C4F8B83099
:103B8000A4F8BC30A4F8C68084F8C820ADF8C835C5
:103B9000C4F8D830A4F8DC3084F8E820ADF8E83573
:103BA000C4F8F830A4F8FC3084F8082184F8A49014
:103BB00084F8C49084F8E490A4F8E6E084F80491D2
:103BC000ADF80836C4F800510925A4F826510DF5C2
:103BD000C665C4F82C516A4DC4F820510DF5CA656C
:103BE000C4F84C51674DC4F840510DF5CE65C4F88A
:103BF0006C51654DC4F860510B274FF00A0C0C2531
:103C00008DF80A368DF82A368DF84A368DF86A36E0
:103C1000C4F81831A4F81C3184F82821ADF82836EE
:103C2000C4F83831A4F83C3184F84821ADF848365E
:103C3000C4F85831A4F85C31A4F8667184F868219E
:103C4000ADF86836C4F87831A4F87C3184F8249152
:103C500084F84491A4F846C184F8649184F884916E
:103C6000A4F886510DF5D265C4F88C51474DC4F8BF
:103C700080510D25A4F8A6510DF5D665C4F8AC51B8
:103C8000434DC4F8A0510DF5DA65C4F8CC510DF5DB
:103C9000DE6A404DC4F8C0510E260F25C4F8ECA1D1
:103CA0000DF5E26BDFF8F0A08DF88A368DF8AA36B4
:103CB0008DF8CA368DF8EA3684F88821ADF8883652
:103CC000C4F89831A4F89C3184F8A821ADF8A8363E
:103CD000C4F8B831A4F8BC31A4F8C66184F8C8218E
:103CE000ADF8C836C4F8D831A4F8DC31A4F8E651F0
:103CF00084F8E821ADF8E836C4F8F83184F8A491E6
:103D000084F8C49184F8E491C4F8E0A1C4F80CB23A
:103D1000DFF888B0C4F800B20DF5E66BC4F82CB239
:103D2000DFF87CB0C4F820B24FF0020A0DF5EA6B60
:103D3000A4F866020DF5EE60A4F806A232E000BF1A
:103D4000BC9400081C030020200300200000024057
:103D5000003802401003002014030020CC95000816
:103D6000E4950008D8950008F0950008FC95000837
:103D70000896000814960008209600082C96000863
:103D80003896000844960008509600085C96000893
:103D9000689600087496000874AD000880960008C4
:103DA0008C960008C4F84CB24FF0030AC4F86C02B9
:103DB000DFF8F4B3EA488DF80A378DF82A378DF822
:103DC0004A37A4F8FC31ADF80837C4F81832A4F823
:103DD0001C32ADF82837C4F83832A4F83C32ADF8BC
:103DE0004837C4F85832A4F85C3284F8049284F856
:103DF00008A284F82492A4F826A284F828A284F8C1
:103E00004492A4F8461284F848A2C4F840B284F858
:103E1000649284F868A284F87032C4F860020DF5E8
:103E2000F260C4F88C02CF48C4F880020DF5F66049
:103E3000C4F8AC02CC48C4F8A0020DF5FA60C4F88E
:103E4000CC02CA488DF86A378DF88A378DF8AA37C0
:103E50008DF8CA37ADF86837C4F87832A4F87C32E8
:103E6000A4F88682ADF88837C4F89832A4F89C325A
:103E700084F8B032ADF8A837C4F8B832A4F8BC3230
:103E800084F8D032ADF8C837C4F8D83284F88492B8
:103E900084F888A284F8A492A4F8A6E284F8A8A2E0
:103EA00084F8C492A4F8C6C284F8C8A2C4F8C002B8
:103EB0000DF5FE60C4F8EC02AD48C4F8E0020DF563
:103EC0000160C4F80C03AB48C4F800030DF50360AF
:103ED000C4F82C03A4F84623A7488DF8EA370DF55B
:103EE00005628DF80A388DF82A38A4F8DC32A4F877
:103EF000E672ADF8E837C4F8F832A4F8FC32A4F85A
:103F0000066384F81033ADF80838C4F81833A4F801
:103F10001C33A4F82653ADF82838C4F83833A4F875
:103F20003C3384F8E49284F8E8A284F8049384F89B
:103F300008A384F8249384F828A3C4F8200384F801
:103F4000449384F848A3C4F84C238C4AC4F8402313
:103F500011228DF84A388DF86A38ADF84838C4F81F
:103F60005833A4F85C33A4F8662384F870330DF555
:103F70000762ADF86838C4F87833A4F87C33804B16
:103F8000C4F86C237F4AC4F8602384F8649384F8EF
:103F900068A384F8509084F8709084F8909084F826
:103FA000B09084F8D09084F8F09084F8109184F860
:103FB000309184F8509184F8709184F8909184F84D
:103FC000B09184F8D09184F8F09184F8109284F83C
:103FD000309284F8509284F890921A6884F8F092A3
:103FE00012EA090284F8309384F85093BDF81272F3
:103FF0000B93654E0DF674050DF1780840F0E481E1
:10400000CDE90C12FEF76CF9C7F3400283460A9221
:104010005E483060C7F380025D480992C7F3C10271
:104020000892C6F884000D9A5A48C6F8880007EA34
:10403000090306F11000C7F34217C6E901223273E3
:1040400086F80D90C6F880B0C6E923020C994FB1EE
:104050004F4502F09A80022F02F09A80574514BF14
:10406000494602214FF000096422C6E927294A4A3D
:10407000C6F89810C6F8B890C6F8B4204749444826
:10408000C6F8BC600D93C6F8AC9086F8A890C6F848
:10409000B090FDF715FB424AC6F8C020A8F1100AFF
:1040A000C6F8C4903F49D6F88800C6F8C860FDF746
:1040B00007FB5046214648E90465CDF87498FCF7A3
:1040C0005BF99AE80300A8F1080989E8030048466B
:1040D0000DF21451FCF750F999E8030088E8030049
:1040E0000DF234514046FCF747F998E803000DF112
:1040F000800989E8030048460DF25451FCF73CF969
:1041000099E803000DF1980AAAF1100282E8030071
:1041100010460DF274510C92FCF72EF90C9A92E8AD
:104120000300AAF1080989E8030048460DF29451FA
:10413000FCF722F999E803008AE8030050460DF2E3
:10414000B451FCF719F99AE8030028AA82E80300A1
:1041500010460DF2D4510C92FCF70EF90C9A25E0A2
:10416000A4960008B0960008BC960008C8960008FF
:10417000D4960008E0960008EC960008F89600082F
:104180002803002080AD00082C0300201C970008A5
:10419000B00500203805002004970008E003002047
:1041A00010970008EC0300209896000892E803009E
:1041B0000DF1B809A9F1100A8AE8030050460DF282
:1041C000F451FCF7D9F89AE80300A9F1080282E853
:1041D000030010460DF214610C92FCF7CDF80C9A16
:1041E00092E8030089E8030048460DF23461FCF7C9
:1041F000C3F899E8030030AA82E8030010460DF2E4
:1042000054610C92FCF7B8F80C9A92E803000DF197
:10421000D80AAAF1100989E8030048460DF2746132
:10422000FCF7AAF899E80300AAF1080282E8030063
:1042300010460DF294610C92FCF79EF80C9A92E8ED
:1042400003008AE8030050460DF2B461FCF794F8CD
:104250009AE8030038AA82E8030010460DF2D46100
:104260000C92FCF789F80C9A92E803000DF1F8091A
:10427000A9F1100A8AE8030050460DF2F461FCF738
:104280007BF89AE80300A9F1080282E803001046CF
:104290000DF214710C92FCF76FF80C9A92E803007F
:1042A00089E8030048460DF23471FCF765F899E897
:1042B000030040AA82E8030010460DF254710C92EC
:1042C000FCF75AF80C9A92E803000DF58C7AAAF1E3
:1042D000100989E8030048460DF27471FCF74CF8A8
:1042E00099E80300AAF1080282E8030010460DF2E3
:1042F00094710C92FCF740F80C9A92E803008AE85B
:10430000030050460DF2B471FCF736F89AE803004A
:1043100048AA82E8030010460DF2D4710C92FCF713
:104320002BF80C9A92E803000DF59C79A9F1100A7C
:104330008AE803000DF2F4715046FCF71DF89AE884
:104340000300A9F1080282E8030010460DF61401EB
:104350000C92FCF711F80C9A92E8030089E803002C
:104360000DF634014846FCF707F899E8030050AA17
:1043700082E8030010460DF65401FBF7FDFFDBF861
:104380002421DBF818013946FDF712FB0A9BC268AD
:1043900063F34922C260C268099B63F30C32C260B6
:1043A000089B026963F30D3202610D9B002B01F043
:1043B000F286C36843F48063C360C36843F4005368
:1043C000C3600B9A01231360AEAF0023BD4A47F8C8
:1043D0000839AC9220327A60BB4AFB603B747B7434
:1043E000FB61FB62FB63FB64FB65136848F8146CBC
:1043F00013F0010FB54B05D1B5480D21C3E90001FC
:1044000001211160B34E326B42F0020232631A682E
:1044100011686FF39B611160D1686FF39B61D1608C
:104420004FF001090021ADA8C7E91A1987F87010EB
:1044300087F871107B66FDF7ABFAA74BA74AC993C3
:104440000DF549782033C8F80430136888F8101047
:1044500013F0010F08BFDFF8A4B2A14B88F81110C8
:10446000C8E90211C8F81C10C8F82C10C8F83C1094
:10447000C8F84C10C8F85C1002BF0921C3E900B1AC
:10448000C2F80090326B42F0040232631A6811687D
:104490006FF393411160D1686FF39341D1600126AE
:1044A0000021CAA8C8E91A1688F8701088F8711097
:1044B000C8F86430FDF76CFA8A4B8B4AE6932033D8
:1044C000E7931368E89113F0010F08BFDFF800A22B
:1044D000864BE9918DF8A8138DF8A913ED91F19110
:1044E000F591F991FD9102BF0F21C3E900A116607A
:1044F000784E326B42F0020232631A6811686FF331
:104500009F711160D1686FF39F71D160E7A800219E
:104510004FF00109FF93CDF800148DF808148DF8C1
:104520000914CDF80494FDF733FA714B2973C5E9EA
:104530000111CDF874380DF6780303F11500C5E9C3
:10454000041129760DF6DD01FDF706F9694A1368B5
:1045500013F0010F3046684E40F08280DFF8C0C192
:10456000DFF8C0E1DCF80030644913F0010F01BF4F
:104570000D23CCF80090CEF80010CEF80430036B79
:10458000DFF8A4C143F004030363DEF800301868C9
:104590004FF0010969F39B601860D8686FF39B6066
:1045A000D8605748036813F0010F04BF0F23CCF8FD
:1045B0000430484B04BFCCF80010C0F80090186BD2
:1045C00040F004001863DCF80000D0F800904FF0D1
:1045D000010A6AF39F79C0F80090D0F80C906FF34D
:1045E0009F79C0F80C90DFF84491D9F8000010F0E2
:1045F000010F444801BFC9F800A04FF00E0B016045
:10460000C0F804B0D3F8309049F00409C3F83090F2
:104610000368D3F800A04FF0010969F31D7AC3F8CD
:1046200000A0D3F80CA06FF31D7AC3F80CA00023F0
:10463000C6E906010DF68D013162C6E90133324942
:10464000DFF8ECA07162C6E904EC30493373C6F8B8
:1046500000A07373B16286F830307363C2F80090C3
:104660002B492C4A0B6813F0010301BF2348C2E910
:10467000000301230B60174B196B41F00401196310
:1046800012681068012161F301001060D0686FF3B7
:104690000100D0602048026812F0010F08BFDFF867
:1046A0005CC01E4A04BF0160C2E900C1196B41F041
:1046B0000401196313681A68012161F383021A6007
:1046C00038E000BF28970008680100206C01002036
:1046D0000004024000380240549700085C010020AA
:1046E0006001002080970008500100205401002044
:1046F0005CAD0008B4000020B800002000080240B3
:10470000FC000020F4000020289D000828A50008D7
:10471000A8000020AC0000209C000020A000002089
:10472000080100200C01002000010020F000002002
:1047300068AD0008DA686FF38302DA60BB4B1A6871
:1047400012F0010F08BFDFF84C93B94A02BF19609D
:104750000220C2E90090B74B196B41F004011963C4
:1047600012681168012060F305111160D1686FF3C0
:104770000511D160B0490A6812F0010F08BFDFF8D7
:1047800014E3AE4A02BF08604FF0030CC2E900EC2C
:10479000196BAB4841F00401196313681A684FF0B4
:1047A000010969F387121A60DA686FF38712DA6019
:1047B000FDF7C8FB337B0BBBA24B86F80C90DA6885
:1047C000726002B196609A68DE6002B99E60022251
:1047D0005A619D4B1A686FF300021A609B4A5A6037
:1047E00000229A601A6842F004021A601A6842F0C5
:1047F00002021A601A6842F001021A60E6ABAB6767
:1048000084ABC5E91F3415AA16ABC5E9212317AB44
:10481000C5F88C3018ABC5F890308D4BC5F8943086
:10482000C5E91B670DF674130DF58367C5F898305D
:10483000884BCDF80C5447F80C397EAEC5F874801F
:104840004FF0000AA6F11808834BC5F89CA0394622
:104850000DF59060BB60FEF72BF8804B46F8185CB6
:104860004146C8F80C3030467D4BC8F80830FEF79A
:104870001FF87C4B6F930DF5CC7B7B4B6C956CA933
:1048800072A86E93FEF714F8784B4BF8105C62A98F
:1048900065935846764B6493FEF70AF8754B5D9323
:1048A0005AA9754B5A955EA85C93FEF710F8734BA6
:1048B00055930DF61419724B529552A956A854935C
:1048C000FEF705F80DF590614846FDF7F1FF31461A
:1048D0000DF62410FDF7ECFF72A90DF63410FDF76C
:1048E000E7FF59460DF64410FDF7E2FF5EA90DF60D
:1048F0005410FDF7ECFF56A90DF66410FDF7E7FF25
:1049000056A8FCF7ECFF52A8FCF7E9FF5EA8FCF7FD
:10491000E6FF5AA8FCF7E3FF5846FCF7E0FF62A861
:10492000FCF7DDFF72A8FCF7DAFF6CA8FCF7D7FFF5
:104930003046FCF7D4FF4046FCF7D1FF0DF5906000
:10494000FCF7CDFF3846FCF7CAFF49460DF59060ED
:10495000FDF7CCFF4B4B3560F36031464A4BB360FB
:104960003846FEF71FFAD5F88430E96F0C93D5F876
:1049700088300A93D5F89430099301F119030B9309
:104980004249D5F88020C5F800110DF68403C5F81A
:1049900004310DF590610DF67C100D920893FDF732
:1049A000A5FF39460DF6DC10FEF7FCF90C9BC5F8A7
:1049B0007C310A9BC5F88031099BC5F884310B9B7B
:1049C000C5F88831324BC5F890310D9AC5F8782179
:1049D0004FF4FA73C5F8A0A1C5F88CA1C5F8A4A13D
:1049E000C5F894A1C5F8A031C5F898A185F89CA197
:1049F0000DF60420FCF7CCFF099B85F8A8A1C5F8AB
:104A0000ACA1C5F8B0A11868FDF7F4FB3846FCF777
:104A100066FF3046FCF763FF0DF59060FDF7FFFB86
:104A200049460DF59060FDF761FF35E090000020EC
:104A300094000020003802408400002088000020FC
:104A4000B8000020C805002010E000E01F48010069
:104A5000F80300205D3400088D0300089534000839
:104A6000A3030008CD340008B9030008253400086A
:104A7000CF03000865640008E50300082D64000802
:104A8000FB030008110400081B0400083CAD0008EB
:104A9000E494000800080240BF4B61935EA9BF4B3D
:104AA0005E9562A86093FEF77DF9BD4B749509226F
:104AB000CDF80C24C7E90135BA4B7B61BA4B3B6199
:104AC0000F233360B94B6E95C6E90135B84B73615E
:104AD000B84B33610C2346F8183CB74B0992C8E930
:104AE0000135B64BC8F81430B54BC8F810300C235C
:104AF0007293B44B7393B44B7793B44B7693062372
:104B00006C93B34B6D93B34B7193B34B70930E2374
:104B1000CBF80030B14BCBE90135B14BCBF81430B9
:104B2000B04BCBF81030B04BC5F8C831089BC5F876
:104B3000CC310DF590610DF64420FDF7D7FE62A94A
:104B40000DF6A420FEF72EF939460DF6B420FEF737
:104B500090FA31460DF6CC20FEF78BFA41460DF661
:104B6000E420FEF786FA72A90DF6FC20FEF781FA22
:104B70006CA90DF61430FEF77CFA59460DF62C3070
:104B8000FEF777FAC5F8D0A2C5F8D4A20BF1080059
:104B9000FCF7A5FE6EA8FCF7A2FE74AB18460E93B8
:104BA000FCF79DFEA6F1100318460B93FCF797FE49
:104BB00006F1080318460A93FCF791FE0DF2144320
:104BC00018460C93FCF78BFE62A8FCF788FE5EA8E3
:104BD000FCF785FE0DF59060FDF721FB49460DF5CC
:104BE000906085F8D8A2A5F8DAA2A5F8DCA2FDF7B6
:104BF0007DFE7E4B4BF8105C62A9659358467C4B5A
:104C00006493FEF7CFF80823CDF80C34794B099A5A
:104C10007495C7E90135784B7B61784B3B61784BE4
:104C20006E95C6E90135774B7361774B33610F237E
:104C300046F8183C754B3260C8E90135744BC8F82A
:104C40001430744BC8F810300F237293724B739367
:104C5000724B7793724B769307236C93714B6D93E2
:104C6000714B7193714B7093714BC5F8E032089B97
:104C7000C5F8E4320DF590610DF65C30FDF736FEB7
:104C800059460DF6BC30FEF78DF839460DF6CC309E
:104C9000FEF7EFF931460DF6E430FEF7EAF941464A
:104CA0000DF6FC30FEF7E5F972A90DF61440FEF79B
:104CB000E0F96CA90DF62C40FEF7DBF9C5F8D0A39E
:104CC000C5F8D4A36EA8FCF70AFE0E98FCF707FE01
:104CD0000B98FCF704FE0A98FCF701FE0C98FCF711
:104CE000FEFD5846FCF7FBFD62A8FCF7F8FD0DF54C
:104CF0009060FDF794FAEB6F49469B7E85F8D833B8
:104D00000DF59060FDF7F2FD4A496CA8FDF79DF89E
:104D100049495846FDF799F8484B3560F3603146EC
:104D2000474BB3603846FEF73DF8464B759372A982
:104D3000454B729540467493FEF734F86C9B109384
:104D40006D9B09930DF67809DBF800303F4AC5F8F2
:104D5000DC2385F8E0A30D93A9F10405DBF804300A
:104D60000F9309F10C024FF00103C5F8E42385F815
:104D7000E1330DF590610DF65C400892FDF7B6FD4C
:104D800039460DF6BC40FEF70DF841460DF6CC4015
:104D9000FEF708F8109B5BE0310400084D040008A2
:104DA00084AD0008630400088F0400088EAD00087D
:104DB000A5040008AF0400089EAD0008C504000863
:104DC000CF040008ABAD0008E5040008EF040008BC
:104DD000B8AD0008050500080F050008BFAD0008C4
:104DE0002505000849050008049500085F0500082E
:104DF0009B050008CEAD0008B1050008C9050008F4
:104E0000D7AD0008DF050008F7050008E1AD000890
:104E10000D06000825060008F1AD00083B06000855
:104E20005706000801AE00086D0600087706000866
:104E30001895000809AE0008DAAF00088D060008D2
:104E400097060008AD060008F70600082C95000834
:104E5000C5F86834099BC5F86C340D9BC5F87034EF
:104E60000F9BC5F874340DF64C43C5F8783495F8AB
:104E7000D83385F87C344046FCF731FD72A8FCF746
:104E80002EFD3846FCF72BFD3046FCF728FD0DF5CE
:104E90009060FDF7C4F9EB6F09F19C021146DB7ECF
:104EA00009920DF5906085F88034FDF71FFDC34928
:104EB0006CA8FCF7CAFFC2495846FCF7C6FFC14BB5
:104EC0003560F3603146C04BB3603846FDF76AFF8A
:104ED000BE4B759372A9BE4B729540467493FDF715
:104EE00061FF6C9B11936D9B0D93DBF800300F936A
:104EF000DBF8043010934FF00103B64A85F889348B
:104F0000089BC5F88424C5F88C3485F888A40DF571
:104F100090610DF60450FDF7E9FC39460DF664503A
:104F2000FDF740FF41460DF67450FDF73BFF119B26
:104F3000C5F810350D9BC5F814350F9BC5F818350D
:104F4000109BC5F81C350DF6F443C5F8203595F8CF
:104F5000803485F824354046FCF7C1FC72A8FCF784
:104F6000BEFC3846FCF7BBFC3046FCF7B8FC0DF540
:104F70009060FDF754F909990DF59060FDF7B6FCC6
:104F800095496CA8FCF761FF94495846FCF75DFF12
:104F9000934B3560F3603146924BB3603846FDF772
:104FA00001FF914B759372A9904B72954046749393
:104FB000FDF7F8FE6C9B11936D9B0D93DBF80030B1
:104FC0000F934FF4C842DBF80430A5F82C2510935A
:104FD000089A874BC5F82835C5F830250DF590613E
:104FE0000DF6A850FDF782FC39460DF60860FDF776
:104FF000D9FE41460DF61860FDF7D4FE119B0D9ABF
:10500000C5F8B435C5F8B82509F535730F9AC5F854
:10501000BC25C5F8C435109A95F8D832C5F8C02516
:1050200085F8C8354046FCF75AFC72A8FCF757FCD7
:105030003846FCF754FC3046FCF751FC0DF5906007
:10504000FDF7EDF809990DF59060FDF74FFC694902
:105050006CA8FCF7FAFE68495846FCF7F6FE674B69
:105060003560F3603146664BB3603846FDF79AFE13
:10507000644B759372A9644B729540467493FDF727
:1050800091FECDE9067842F6E063ADF8143009F5FB
:1050900036730393ADF810A09BE8030001AA0D92AC
:1050A00082E803006D9B089900930DF590626C9B5C
:1050B0000DF56460FDF7ECFF4046FCF710FC72A8AC
:1050C000FCF70DFC3846FCF70AFC3046FCF707FC01
:1050D0000DF59060FDF7A3F809990DF59060FDF7C7
:1050E00005FC4A496CA8FCF7B0FE49495846FCF754
:1050F000ACFE484B3560F3603146474BB3603846F1
:10510000FDF750FE454B759372A9454B729540468D
:105110007493FDF747FE4AF6C873ADF81430CDE935
:10512000067844F25063ADF8103009F2D6230393A9
:105130009BE803000D9A82E803006D9B0899009399
:105140000DF590626C9B0DF6E460FDF7A1FF404603
:10515000FCF7C5FB72A8FCF7C2FB3846FCF7BFFBA7
:105160003046FCF7BCFB0DF59060FDF758F8C5F82C
:1051700014A709990DF59060FDF7B8FB294B6F93C3
:105180006CA9294B6C9572A86E93FDF70BFE274B0B
:105190000899C5F81C170722CDF80C24C7E901357A
:1051A000234B7B61234B3B61234BC6E90135234BEA
:1051B0007361234B33610C2244E000BF16AE00083C
:1051C000DAAF00080D070008170700082D070008D0
:1051D000770700084095000820AE000831AE0008AF
:1051E0008D07000897070008AD070008CD070008E5
:1051F0005495000834AE000844AE0008E3070008E8
:10520000ED0700080308000823080008E1AD0008C6
:1052100048AE00083908000843080008590800088B
:10522000790800088F080008BB0800084CAE000889
:10523000D1080008DB08000854AE0008F108000897
:1052400009090008C74B32600E2246F8182CC8E93D
:105250000135C54BC54AC8F81430C54BC5F81827E9
:10526000C8F810300DF590610DF69470FDF73EFB17
:1052700072A90DF6F470FDF795FD0DF580503946D5
:105280000430FDF7F6FE0DF5805031461C30FDF779
:10529000F0FE0DF5815041461430FDF7EAFEC5F8E9
:1052A000D8A7C5F8DCA70B98FCF719FB0A98FCF700
:1052B00016FB0C98FCF713FB72A8FCF710FB6CA80C
:1052C000FCF70DFB0DF59060FCF7A9FF09990DF5B2
:1052D0009060FDF70BFBA74B3560F3603146A64BA2
:1052E000B3603846FDF75EFDA4494046FCF7ADFDCE
:1052F000A34972A8FCF7A9FDD8F804100F91729980
:1053000010917399D5F8803011919E49C5F8E01736
:105310000DF58250089956F8182CC5F8E41703F5D6
:1053200047730DF590611C3013931292FDF7DEFA6E
:105330000DF5855039461C30FDF734FD0F99C5F841
:105340005C181099129A139BC5F860181199C5F84A
:105350005828C5F86838C5F864183846FCF7BFFA0D
:105360003046FCF7BCFA0DF59060FCF758FF099940
:105370000DF59060FDF7BAFA83496CA8FCF765FD5E
:105380007F495846FCF761FD804B3560F36031463C
:105390007F4BB3603846FDF705FD7E4B759372A9D0
:1053A0007D4B729540467493FDF7FCFCCDE9067881
:1053B0004FF064010DF688730393ADF81410ADF847
:1053C00010A09BE803000D9BC3E900010DF5906060
:1053D0006D9B0899009302466C9B0DF58750FDF775
:1053E00057FE4046FCF77BFA72A8FCF778FA38467D
:1053F000FCF775FA3046FCF772FA0DF59060FCF791
:105400000EFF09990DF59060FDF770FA63496CA8DD
:10541000FCF71BFD5A495846FCF717FD604B3560F9
:10542000F36031465F4BB3603846FDF7BBFC5E4B23
:10543000759372A85D4B7295014640467493FDF7D3
:10544000B1FCCDE906784FF064010DF68A73039341
:10545000ADF81410ADF810A09BE803000D9BC3E954
:1054600000010DF5906002466D9B089900930DF5C3
:105470008C506C9B0430FDF70BFE4046FCF72FFA76
:1054800072A8FCF72CFA3846FCF729FA3046FCF7EC
:1054900026FA0DF59060FCF7C2FEEB6F09995B7E72
:1054A00085F8B4390DF59060FDF720FA40496CA8F5
:1054B000FCF7CBFC32495846FCF7C7FC3D4B356046
:1054C000F36031463C4BB3603846FDF76BFC3B4B19
:1054D000759372A83A4B7295014640467493FDF756
:1054E00061FC6D990F91DBF800101091DBF804104E
:1054F0006C9B11910DF590600899C5F8C01941F6A3
:105500000262014612930DF591502E4BA5F8BC296D
:10551000C5F8B8391830FDF7E9F90DF5945039465A
:105520001830FDF73FFC0DF5955041460830FDF76A
:1055300039FC129B0F99C5F8443AC5F8481A09F589
:105540001B631099C5F84C1AC5F8543A119995F88F
:10555000B43985F8583AC5F8501A4046FCF7BFF9F7
:1055600072A831E061AE00081F0900087C950008B0
:10557000370900084D0900085709000870AE0008F7
:1055800080AE0008F094000883AE00086D090008A2
:10559000770900088D090008AD09000893AE0008DE
:1055A000C3090008CD090008E3090008030A000840
:1055B00001AE0008190A0008230A0008390A000889
:1055C0004B0A000854950008FCF789F93846FCF7A7
:1055D00086F93046FCF783F90DF59060FCF71FFE65
:1055E00009990DF59060FDF781F9C34B759372A889
:1055F000C24B7295014640467493FDF7D3FBC04BF6
:105600007B600A22BF4BCDF80C247B61BE4B3B6113
:10561000BE4BBF49C5F85C1A0820C6E901353060A9
:10562000BC4B0898C5F8600A73610DF59060BA4BE1
:105630003361014609F526600F92FDF757F941469F
:1056400009F52C60FDF7AEFB394609F52D60FDF735
:1056500010FD314609F6E820FDF70BFDC5F804AB57
:10566000C5F808AB0A98FCF73AF90C98FCF737F93B
:105670004046FCF734F972A8FCF731F90DF590605B
:10568000FCF7CDFD09990DF59060FDF72FF9A34BBF
:10569000759372A8A24B7295014640467493FDF72C
:1056A00081FBA04B9A49C5F80C1B0820CDF80C04CF
:1056B000C7E901359C4B7B619C4B3B619C4B089936
:1056C000C5F8101BC6E9013507209A4B306073619D
:1056D0000DF59060984B3361014609F53160FDF797
:1056E00005F9414609F53760FDF75CFB394609F5D8
:1056F0003860FDF7BEFC314609F69830FDF7B9FC7D
:10570000C5F8B4ABC5F8B8AB0A98FCF7E8F80C9844
:10571000FCF7E5F84046FCF7E2F872A8FCF7DFF882
:105720000DF59060FCF77BFD09990DF59060FDF794
:10573000DDF8824BCBF80050CBF80C305946804B4B
:10574000CBF808306CA8FDF72DFB08207D4BCDF879
:105750000C047B617C4B3B617C4B3060C6E90135BE
:105760007B4B73617B4B33617B4B7C490F9A72920D
:105770000B2046F8180CC8E90135794BC8F81430ED
:10578000784BC8F81030784B739372A8774B7793A7
:10579000C7E90115764B7693CDE902806CA80346E4
:1057A0000DF5906002460899749509F6B830CDE978
:1057B0000076FDF7A3FC0E98FCF791F80B98FCF728
:1057C0008EF80A98FCF78BF80C98FCF788F86CA810
:1057D000FCF785F85846FCF782F80DF59060FCF769
:1057E0001EFDEB6F09991B7F85F89C3C0DF59060C1
:1057F000FDF77CF859496CA8FCF727FB5D49584632
:10580000FCF723FB5C4B3560F36031465B4BB360C8
:105810003846FDF7C7FA5A4B759372A8594B7295E3
:10582000014640467493FDF7BDFA6D98DBF80420FD
:105830000C90DBF800000E904FF0010C0DF5906E0F
:105840000F925148089A85F8A5CC71466C9BC5F813
:10585000A82CC5F8A00C85F8A4AC09F6A8401093B4
:10586000FDF744F8394609F60850FDF79BFA414622
:1058700009F61850FDF796FA109B0C9AC5F82C3DC6
:10588000C5F8302D09F698430E9AC5F8342DC5F8A1
:105890003C3D0F9A95F89C3CC5F8382D85F8403D65
:1058A0004046FCF71CF80DF5E47E7046FCF717F84F
:1058B0003846FCF714F83046FCF711F80DF5906EF9
:1058C0007046FCF7ACFCEB6F09991B8AA5F8443DC8
:1058D0000DF5906E7046FDF709F80DF5D87E70460F
:1058E0002A49FCF7B2FA2A495846FCF7AEFA294B86
:1058F0003560F36050E000BF610A00086B0A0008E1
:10590000A2AE0008810A0008830A0008ADAE0008B4
:1059100090950008671700088D0A0008A30A000880
:10592000C70A0008B6AE0008DD0A0008E70A00084A
:10593000BFAE0008FD0A0008070B00081D0B000899
:10594000410B0008570B0008610B0008D0AE00089F
:10595000770B0008810B0008D9AE0008C7AE00081D
:10596000970B0008A10B0008E5AE0008B70B000874
:10597000C10B0008DAAF0008D70B0008E10B0008E4
:10598000F70B00081F0C0008B8950008F0AE0008DF
:1059900048AE0008350C00083146CD4BB3603846A0
:1059A000FDF700FA0DF5E47ECA4B75937146CA4BBC
:1059B000729540467493FDF7F5F9CDE906784FF4FA
:1059C0007A63ADF8143009F554630393ADF810A071
:1059D0009BE803000D9AC2E900010DF5906E6D9BE6
:1059E0000899009372466C9B09F64450FDF750FBF2
:1059F0004046FBF774FF0DF5E47E7046FBF76FFF42
:105A00003846FBF76CFF3046FBF769FF0DF5906EEB
:105A10007046FCF704FCEB6F09991B7E85F8EC3DA2
:105A20000DF5906E7046FCF761FF0DF5D87E70465F
:105A3000AA49FCF70AFAAA495846FCF706FAA94B04
:105A40003560F3603146A84BB3603846FDF7AAF9DC
:105A50000DF5E47EA54B75937146A54B72954046B6
:105A60007493FDF79FF96D9A6C9B0C92DBF8002004
:105A70000F930D929F4BDBF80420C5F8F03D0DF518
:105A8000906E089B0E9246F20242A5F8F42D7146E4
:105A9000C5F8F83D09F6F850FCF728FF394609F635
:105AA0005860FDF77FF9414609F66860FDF77AF91D
:105AB0000F9BC5F87C3E0C9BC5F8803E0D9BC5F83E
:105AC000843E0E9BC5F8883E09F6E853C5F88C3E27
:105AD00095F8EC3D85F8903E4046FBF700FF0DF54C
