:020000040800F2
:100000000000022029880008798800087988000803
:1000100079880008798800087988000800000000C5
:1000200000000000000000000000000079880008C7
:100030007988000800000000798800089D180008F1
:10004000891A0008F91A00088B1A00088D1A00088E
:100050008F1A0008911A0008931A0008951A0008D0
:10006000971A0008991A00089B1A0008711B0008CB
:100070008D1B0008A91B0008C51B0008E11B000818
:10008000FD1B0008191C00089D1A00089F1A000893
:10009000A11A0008A31A0008A51A0008A71A000848
:1000A000DB1A0008DD1A0008DF1A0008E11A000850
:1000B000E31A0008E51A0008E71A0008A91A000860
:1000C000AB1A0008AD1A0008AF1A0008311D00086D
:1000D0003D1D00081D1B0008391B0008551B0008AA
:1000E000B11A0008B31A0008B51A0008EF1A000880
:1000F000F11A0008F31A0008F51A0008351C000868
:10010000B71A0008B91A0008E91A0008491D0008C2
:10011000BB1A0008BD1A0008EB1A0008ED1A000807
:10012000511C00086D1C0008891C0008A51C000853
:10013000C11C00080000000000000000BF1A0008F9
:10014000C11A0008C31A0008C51A0008C71A000817
:10015000DD1C0008F91C0008151D0008C91A00085C
:10016000CB1A0008CD1A0008CF1A0008D11A0008CF
:10017000D31A0008D51A0008000000000000000093
:08018000D71A0008D91A000883
:1001900010B5054C237833B9044B13B10448AFF3C1
:1001A00000800123237010BD6800002000000000C3
:1001B000E491000808B5034B1BB103490348AFF3B2
:1001C000008008BD000000006C000020E4910008E1
:1001D000034613F8012B002AFBD1181A0138704787
:1001E00001F0FF01102A2BDB10F0070F08D010F8E8
:1001F000013B013A8B422DD010F0070F42B3F6D1EC
:10020000F0B441EA012141EA014122F007047FF004
:1002100000070023F0E80256083C85EA010586EA5B
:10022000010685FA47F5A3FA87F586FA47F6A5FA97
:1002300087F68EB9EED1F0BC01F0FF0102F00702A3
:1002400032B110F8013B013A83EA010313B1F8D14E
:100250000020704701387047002D06BF354603382F
:10026000073815F0010F07D1013015F4807F02BF68
:10027000013015F4C03F0130F0BC0138704700BFB9
:100280004209012300F01F0003FA00F0014B43F87C
:100290002200704700E100E0436901334361704789
:1002A00070477047012A03D0022A03D0002070470C
:1002B0000160FBE70B680360F8E77047012A03D091
:1002C000022A03D0002070470160FBE70B6803603F
:1002D000F8E7012A03D0022A03D00020704701600A
:1002E000FBE70B680360F8E770B50546D0F89000AF
:1002F00003680C469B689847C5F8904023682046E1
:100300001B68BDE87040184703681A7F82F001023D
:100310001A7742681278520744BFB3F82C25A3F825
:10032000C4217047012A034603D0022A03D00020CB
:1003300070470160FBE703C983E80300F7E7036840
:1003400093F83C2082F0010283F83C204268127846
:10035000120744BFB3F82C25A3F8C4217047012A23
:10036000034603D0022A03D0002070470160FBE758
:1003700003C983E80300F7E7D0E9003010B502684D
:1003800003EB8203541C0460196110BD012A03D0E1
:10039000022A03D0002070470160FBE70B6803606E
:1003A000F8E7012A03D0022A03D000207047016039
:1003B000FBE70B680360F8E7012A03D0022A03D0A9
:1003C000002070470160FBE70B680360F8E7012A33
:1003D00003D0022A03D0002070470160FBE70B68BE
:1003E0000360F8E7012A03D0022A03D000207047F7
:1003F0000160FBE70B680360F8E7012A03D0022ADB
:1004000003D0002070470160FBE70B680360F8E74A
:10041000006800F5E071FFF767BF012A03D0022AE8
:1004200003D0002070470160FBE70B680360F8E72A
:1004300010B50446006800F1F801FFF755FF236886
:10044000D3F88030012283F8382310BD012A03D06D
:10045000022A03D0002070470160FBE70B680360AD
:10046000F8E710B50446006800F52A71FFF73CFF75
:100470002368D3F88020002382F8C0342268D2F8A1
:10048000802082F800352268D2F8802082F88035FA
:100490002268D2F8802082F8403510BD012A03D0AE
:1004A000022A03D0002070470160FBE70B6803605D
:1004B000F8E7006800F27C41FFF716BF012A03D07D
:1004C000022A03D0002070470160FBE70B6803603D
:1004D000F8E7006800F57571FFF706BF012A03D041
:1004E000022A03D0002070470160FBE70B6803601D
:1004F000F8E7006800F53A61FFF7F6BE012A03D07D
:10050000022A03D0002070470160FBE70B680360FC
:10051000F8E70368D3F88020012382F8F8310268F5
:10052000D2F8802082F8C0340268D2F8802082F8A5
:10053000D8310268D2F8802082F800350268D2F8FB
:10054000802082F838320268D2F8802082F8803524
:100550000268D2F8802082F818320268D2F880202F
:1005600082F84035006800F5E071FFF7BDBE012A52
:1005700003D0022A03D0002070470160FBE70B681C
:100580000360F8E70368D3F88020B2F8CC2483F83E
:10059000A022006800F5A461FFF7A6BE012A03D0DF
:1005A000022A03D0002070470160FBE70B6803605C
:1005B000F8E70368D3F88020B2F84C25A3F8A62208
:1005C000006800F2C451FFF78FBE012A03D0022A4F
:1005D00003D0002070470160FBE70B680360F8E779
:1005E0000368D3F88020B2F88C25A3F8A422006811
:1005F00000F5CD61FFF778BE012A03D0022A03D0AF
:10060000002070470160FBE70B680360F8E70368B0
:10061000D3F88020B2F80C25A3F8A222006800F2DB
:100620000C71FFF761BE012A03D0022A03D000201B
:1006300070470160FBE70B680360F8E70368D3F8D5
:100640008020002382F8C0350268D2F8802082F82A
:10065000E035006800F2B471FFF746BE012A03D00E
:10066000022A03D0002070470160FBE70B6803609B
:10067000F8E7006800F6FC21FFF736BE012A03D038
:10068000022A03D0002070470160FBE70B6803607B
:10069000F8E7006800F65421FFF726BE012A03D0D0
:1006A000022A03D0002070470160FBE70B6803605B
:1006B000F8E7006800F5E071FFF716BE012A03D0E5
:1006C000022A03D0002070470160FBE70B6803603B
:1006D000F8E710B40368D3F8881093F8D0230C78A7
:1006E00062F382040C70D96F8A76D3F880300022CE
:1006F00083F838230368D3F88020D3F888301B7838
:10070000C3F3800383F0010382F8B83100685DF819
:10071000044BD0F88030B3F82C25A3F8C42100F5A1
:10072000E071FFF7E1BD012A03D0022A03D00020C7
:1007300070470160FBE70B680360F8E7006800F5AD
:10074000E071FFF7D1BD012A03D0022A03D00020B7
:1007500070470160FBE70B680360F8E710B40368BB
:10076000D3F8881093F878240C7862F3C3040C70E3
:10077000D96FCA76D3F88030002283F83823036813
:10078000D3F88020D3F888301B78C3F3C00383F0FC
:10079000010382F8B83100685DF8044BD0F880306E
:1007A000B3F82C25A3F8C42100F5E071FFF79CBD38
:1007B000012A03D0022A03D0002070470160FBE722
:1007C0000B680360F8E7006800F52A71FFF78CBD3D
:1007D000012A03D0022A03D0002070470160FBE702
:1007E0000B680360F8E70368D3F8802093F8A01241
:1007F000A2F80412D3F88030002283F8F8210068B0
:1008000000F52A71FFF770BD012A03D0022A03D038
:10081000002070470160FBE70B680360F8E70068A1
:1008200000F52A71FFF760BD012A03D0022A03D028
:10083000002070470160FBE70B680360F8E703687E
:10084000D3F88020B3F8A612A2F82412D3F880308F
:10085000002283F81822006800F52A71FFF744BDD2
:10086000012A03D0022A03D0002070470160FBE771
:100870000B680360F8E7006800F52A71FFF734BDE4
:10088000012A03D0022A03D0002070470160FBE751
:100890000B680360F8E70368D3F88020B3F8A4126C
:1008A000A2F84412D3F88030002283F8382200687E
:1008B00000F52A71FFF718BD012A03D0022A03D0E0
:1008C000002070470160FBE70B680360F8E70068F1
:1008D00000F52A71FFF708BD012A03D0022A03D0D0
:1008E000002070470160FBE70B680360F8E70368CE
:1008F000D3F88020B3F8A212A2F8E411D3F8803024
:10090000002283F8D821006800F52A71FFF7ECBCBB
:10091000012A03D0022A03D0002070470160FBE7C0
:100920000B680360F8E70368D3F88020012382F89E
:1009300058320268D2F8802082F878320268D2F801
:10094000802082F8C0350268D2F8802082F8E03535
:10095000006800F5E071FFF7C7BC012A03D0022A46
:1009600003D0002070470160FBE70B680360F8E7E5
:10097000006800F67C01FFF7B7BC012A03D0022A09
:1009800003D0002070470160FBE70B680360F8E7C5
:100990000368D3F88020B2F8CC25A3F8B02700680C
:1009A00000F60811FFF7A0BC012A03D0022A03D0E9
:1009B000002070470160FBE70B680360F8E70368FD
:1009C000D3F88020B2F8EC25A3F8B227006800F62F
:1009D000AC11FFF789BC012A03D0022A03D0002002
:1009E00070470160FBE70B680360F8E7006800F2FE
:1009F000B471FFF779BC012A03D0022A03D000208A
:100A000070470160FBE70B680360F8E7006800F2DD
:100A1000B471FFF769BC012A03D0022A03D0002079
:100A200070470160FBE70B680360F8E70368D3F8E1
:100A30008020B3F8B017A2F86412D3F880300022F7
:100A400083F85822006800F2B471FFF74DBC012A08
:100A500003D0022A03D0002070470160FBE70B6837
:100A60000360F8E7006800F2B471FFF73DBC012AAB
:100A700003D0022A03D0002070470160FBE70B6817
:100A80000360F8E70368D3F88020B3F8B217A2F840
:100A90008412D3F88030002283F87822006800F2B4
:100AA000B471FFF721BC012A03D0022A03D0002031
:100AB00070470160FBE70B680360F8E7006800F52A
:100AC0002A71FFF711BC012A03D0022A03D00020AB
:100AD00070470160FBE70B680360F8E70068C36FCD
:100AE00090F8502A5A7600F52A71FFF7FDBB012ACB
:100AF00003D0022A03D0002070470160FBE70B6897
:100B00000360F8E7006800F52A71FFF7EDBB012AE2
:100B100003D0022A03D0002070470160FBE70B6876
:100B20000360F8E710B40368D3F8881093F8F82A44
:100B30004C7862F304144C70D96F8A77D3F8803004
:100B4000002283F8382300685DF8044B00F52A7111
:100B5000FFF7CABB012A03D0022A03D00020704746
:100B60000160FBE70B680360F8E70368D3F88020B7
:100B7000012382F898320268D2F8802082F8B832D5
:100B80000268D2F8802082F8D832006800F5E0715F
:100B9000FFF7AABB012A03D0022A03D00020704726
:100BA0000160FBE70B680360F8E7006800F545614A
:100BB000FFF79ABB012A03D0022A03D00020704716
:100BC0000160FBE70B680360F8E7006800F57D61F2
:100BD000FFF78ABB012A03D0022A03D00020704706
:100BE0000160FBE70B680360F8E70368D3F8802037
:100BF000012382F898320268D2F8802082F8B83255
:100C00000268D2F8802082F8D832006800F53A6194
:100C1000FFF76ABB012A03D0022A03D000207047E5
:100C20000160FBE70B680360F8E7006800F63451E9
:100C3000FFF75ABB012A03D0022A03D000207047D5
:100C40000160FBE70B680360F8E7006800F6DC5121
:100C5000FFF74ABB012A03D0022A03D000207047C5
:100C60000160FBE70B680360F8E7006800F6846149
:100C7000FFF73ABB012A03D0022A03D000207047B5
:100C80000160FBE70B680360F8E7006800F62C7171
:100C9000FFF72ABB012A03D0022A03D000207047A5
:100CA0000160FBE70B680360F8E7006800F5456149
:100CB000FFF71ABB012A03D0022A03D00020704795
:100CC0000160FBE70B680360F8E70368D3F8803046
:100CD000002283F838230068D0F8882090F8303D4F
:100CE000517863F382015170C26F00F5456113774B
:100CF000FFF7FABA012A03D0022A03D00020704776
:100D00000160FBE70B680360F8E7006800F54561E8
:100D1000FFF7EABA012A03D0022A03D00020704765
:100D20000160FBE70B680360F8E70368D3F8801005
:100D3000B3F8D82DA1F8A422D96F0A82D3F8803055
:100D4000002283F89822006800F54561FFF7CCBACD
:100D5000012A03D0022A03D0002070470160FBE77C
:100D60000B680360F8E7006800F54561FFF7BCBA5F
:100D7000012A03D0022A03D0002070470160FBE75C
:100D80000B680360F8E70368D3F8801093F8802EAF
:100D9000A1F8C422D96F0A76D3F88030002283F8F4
:100DA000B822006800F54561FFF79EBA012A03D01A
:100DB000022A03D0002070470160FBE70B68036044
:100DC000F8E7006800F54561FFF78EBA012A03D005
:100DD000022A03D0002070470160FBE70B68036024
:100DE000F8E70368D3F88010B3F8282FA1F8E422BD
:100DF000D96F4A82D3F88030002283F8D822006865
:100E000000F54561FFF770BA012A03D0022A03D02A
:100E1000002070470160FBE70B680360F8E7036898
:100E2000D3F88020012382F8F8320268D2F88020BB
:100E300082F81833006800F53A61FFF755BA012AC5
:100E400003D0022A03D0002070470160FBE70B6843
:100E50000360F8E7006800F584511C31FFF744BADD
:100E6000012A03D0022A03D0002070470160FBE76B
:100E70000B680360F8E7006800F58A510431FFF75A
:100E800033BA012A03D0022A03D000207047016040
:100E9000FBE70B680360F8E7006800F58F510C3141
:100EA000FFF722BA012A03D0022A03D0002070479C
:100EB0000160FBE70B680360F8E7006800F57D61FF
:100EC000FFF712BA012A03D0022A03D0002070478C
:100ED0000160FBE70B680360F8E70368D3F8803034
:100EE000002283F83823006841F29803D0F8882064
:100EF000C35C517863F3C3015170C26F00F57D612B
:100F00005377FFF7F1B9012A03D0022A03D000205A
:100F100070470160FBE70B680360F8E7006800F5C5
:100F20007D61FFF7E1B9012A03D0022A03D0002036
:100F300070470160FBE70B680360F8E7036803F59F
:100F40008A52D3F880101288A1F80423D96F8A82BC
:100F5000D3F88030002283F8F822006800F57D6124
:100F6000FFF7C2B9012A03D0022A03D0002070473C
:100F70000160FBE70B680360F8E7006800F57D613E
:100F8000FFF7B2B9012A03D0022A03D0002070472C
:100F90000160FBE70B680360F8E7036841F2E812C1
:100FA000D3F880109A5AA1F82423D96FCA82D3F8B3
:100FB0008030002283F81823006800F57D61FFF778
:100FC00093B9012A03D0022A03D0002070470160A0
:100FD000FBE70B680360F8E7D0F898300133C0F8FE
:100FE00098307047002202704270704700220270F1
:100FF00042707047002202704270704700220270F7
:1010000042707047002202704270704700220270E6
:1010100042707047002202704270704700220270D6
:1010200042707047002202704270704700220270C6
:1010300042707047002202704270704700220270B6
:1010400042707047002202704270704700220270A6
:1010500042707047002202704270704770477047BC
:101060007047704770477047704770477047012A54
:1010700003D0022A03D0002070470160FBE70B6811
:101080000360F8E703689A6FB2F8C4310A33A2F834
:10109000C4317047012A03D0022A03D000207047D0
:1010A0000160FBE70B680360F8E703689A6FB2F82A
:1010B000C4310A3BA2F8C4317047012A03D0022A86
:1010C00003D0002070470160FBE70B680360F8E77E
:1010D0007047012A03D0022A03D000207047016024
:1010E000FBE70B680360F8E703689A6F0B68B2F8D8
:1010F000C4110B44A2F8C4317047012A03D0022A5C
:1011000003D0002070470160FBE70B680360F8E73D
:10111000036809689A6FB2F8C4315B1AA2F8C43147
:101120007047012A03D0022A03D0002070470160D3
:10113000FBE70B680360F8E7012A03D0022A03D01B
:10114000002070470160FBE70B680360F8E7012AA5
:1011500003D0022A03D0002070470160FBE70B6830
:101160000360F8E7012A03D0022A03D00020704769
:101170000160FBE70B680360F8E7012A03D0022A4D
:1011800003D0002070470160FBE70B680360F8E7BD
:10119000012A03D0022A03D0002070470160FBE738
:1011A0000B680360F8E7012A03D0022A03D000206D
:1011B00070470160FBE70B680360F8E7012A03D082
:1011C000022A03D0002070470160FBE70B68036030
:1011D000F8E7012A03D0022A03D0002070470160FB
:1011E000FBE70B680360F8E7012A03D0022A03D06B
:1011F000002070470160FBE70B680360F8E7012AF5
:1012000003D0022A03D0002070470160FBE70B687F
:101210000360F8E7012A03D0022A03D000207047B8
:101220000160FBE70B680360F8E7012A03D0022A9C
:1012300003D0002070470160FBE70B680360F8E70C
:10124000012A03D0022A03D0002070470160FBE787
:101250000B680360F8E7012A03D0022A03D00020BC
:1012600070470160FBE70B680360F8E7012A03D0D1
:10127000022A03D0002070470160FBE70B6803607F
:10128000F8E7012A03D0022A03D00020704701604A
:10129000FBE70B680360F8E7012A03D0022A03D0BA
:1012A000002070470160FBE70B680360F8E7012A44
:1012B00003D0022A03D0002070470160FBE70B68CF
:1012C0000360F8E7012A03D0022A03D00020704708
:1012D0000160FBE70B680360F8E7012A03D0022AEC
:1012E00003D0002070470160FBE70B680360F8E75C
:1012F000012A03D0022A03D0002070470160FBE7D7
:101300000B680360F8E7012A03D0022A03D000200B
:1013100070470160FBE70B680360F8E7012A03D020
:10132000022A03D0002070470160FBE70B680360CE
:10133000F8E7012A03D0022A03D000207047016099
:10134000FBE70B680360F8E7012A03D0022A03D009
:10135000002070470160FBE70B680360F8E7012A93
:1013600003D0022A03D0002070470160FBE70B681E
:101370000360F8E7012A03D0022A03D00020704757
:101380000160FBE70B680360F8E7012A03D0022A3B
:1013900003D0002070470160FBE70B680360F8E7AB
:1013A000012A03D0022A03D0002070470160FBE726
:1013B0000B680360F8E7012A03D0022A03D000205B
:1013C00070470160FBE70B680360F8E7012A03D070
:1013D000022A03D0002070470160FBE70B6803601E
:1013E000F8E7012A03D0022A03D0002070470160E9
:1013F000FBE70B680360F8E7012A03D0022A03D059
:10140000002070470160FBE70B680360F8E7012AE2
:1014100003D0022A03D0002070470160FBE70B686D
:101420000360F8E7012A03D0022A03D000207047A6
:101430000160FBE70B680360F8E7012A03D0022A8A
:1014400003D0002070470160FBE70B680360F8E7FA
:10145000012A03D0022A03D0002070470160FBE775
:101460000B680360F8E7012A03D0022A03D00020AA
:1014700070470160FBE70B680360F8E7012A03D0BF
:10148000022A03D0002070470160FBE70B6803606D
:10149000F8E7012A03D0022A03D000207047016038
:1014A000FBE70B680360F8E7012A03D0022A03D0A8
:1014B000002070470160FBE70B680360F8E7012A32
:1014C00003D0022A03D0002070470160FBE70B68BD
:1014D0000360F8E7012A03D0022A03D000207047F6
:1014E0000160FBE70B680360F8E7012A03D0022ADA
:1014F00003D0002070470160FBE70B680360F8E74A
:10150000012A03D0022A03D0002070470160FBE7C4
:101510000B680360F8E7012A03D0022A03D00020F9
:1015200070470160FBE70B680360F8E78368D3F856
:101530008810D1F818211268D2061CD5D1F82021C4
:101540005268002092B2C1F80001C2F1FF00FF28EA
:1015500028BFFF20FF2AC1F804010CD0D3F898203F
:10156000D3F88810C3F89C20D1F80421D1F80011D9
:10157000521AC3F8AC2070470378C3F3001020B9A7
:10158000C3F3401008B9C3F3801070470B1A9B10C7
:10159000002B10DD027812B342780AB9013070478F
:1015A00082780AB902307047C2780AB903307047AE
:1015B0000430013BECE70B1A022B0BD0032B06D0B7
:1015C000012B0BD10378002B18BF08467047037816
:1015D0002BB10130037813B10130F3E708467047AF
:1015E0000B1A9B10002B10DD027812BB42780AB157
:1015F0000130704782780AB102307047C2780AB170
:10160000033070470430013BECE70B1A022B0BD080
:10161000032B06D0012B0BD10378002B08BF084603
:10162000704703782BB90130037813B90130F3E721
:1016300008467047FEF724BE036813B9016070477F
:1016400013465A68002AFBD15960704710B504460A
:101650002CB1236820461B6898476468F8E710BDE2
:10166000A8235943037A43B10F4B9B680360994207
:1016700024BFCB1A43600023037203680A4A9942CD
:1016800007D892689B1A99420CD801230372002054
:10169000704791688B4205D8536892689B1A4268DC
:1016A0009342F2D20120704710E000E0D0F894207D
:1016B0003221531CC0F89430B2FBF1F301FB132329
:1016C00023B9D0F8900003685B68184770470A1A7E
:1016D00002D0202107F02BB9704700000369002BCE
:1016E000BFBF034B436003F188334360704700BFC3
:1016F00023016745D0E9002101238B4093617047A6
:10170000D0E900120123103293408B6170470368C7
:1017100010B504469869FFF7F3FFC8216068FFF72A
:101720009FFF0028F9D123689869FFF7E3FFC821DC
:101730006068FFF795FF0028F9D110BD38B5036840
:10174000044618690D46FFF7DBFF23686068DA6915
:101750009B6A53F835309361FFF7D9FF23686068BF
:10176000996ADA6901EBC5014B689361FFF7CFFF16
:101770006421A068FFF774FF0028F9D138BD00008C
:10178000437B012B10B5044622D002D3022B2AD072
:1017900010BD4069FFF7B4FF2069FFF7ABFF626B34
:1017A000206A531C50216363B2FBF1F301FB132346
:1017B000114A52F82330C25C636A03EBC20053F84B
:1017C0003210E26943689161E36201236373DFE7EA
:1017D0008069FFF78FFFA069FFF792FFE369E26A74
:1017E0009A610223F2E78069FFF784FFA069FFF79F
:1017F00087FF0023EAE700BF4095000803684168BF
:101800001A6901238B40134214BF01200020704746
:1018100070B50D460646FFF7F1FF5DB1D6E900420F
:101820000123266903FA02F10E421DBF10329340D4
:10183000A361A1616840C0B270BD10B504682CB14D
:10184000236820461B689847A468F8E710BD10B5C8
:101850008368044613B1032201469847204610BD11
:1018600010B5044B044640F8343BFFF7F0FF204628
:1018700010BD00BF70AA000810B504460830FFF77D
:10188000DCFFD4E90421531C2361B2FBF1F301FB1B
:10189000132313B92046FFF7D0FF10BD0148FFF70F
:1018A000EBBF00BFD0050020426903699A424FF0A8
:1018B000000326BF4361012018467047037BC3B174
:1018C00000230373D0E901236AB143B193608368B5
:1018D0005A600023C0E9013370470B60F8E70549FF
:1018E00093604A60F5E70349002BF6D1C1E9003364
:1018F000EFE77047D005002000224261FFF7DEBF0E
:10190000037B53B901230373044B5A68426002B14D
:1019100090601A68586002B918607047D0050020BE
:101920000C2A10B501D0112A15D1204B9A68C2F3A8
:101930004232D2B1042A1AD0052A1AD01C4B1D4CAF
:10194000062A08BF234607291AD8DFE801F0141A2F
:101950001D202326292C0D3A032A04D8134B9A68FC
:10196000C2F38222E5E70023EDE7134BEBE7134BCD
:10197000E9E7134BE7E74FF41652B3FBF2F383604A
:1019800010BD4FF46152F8E74FF49642F5E74FF47B
:10199000E142F2E74FF41642EFE74FF46142ECE721
:1019A0004FF49632E9E74FF4E132E6E700380240BF
:1019B000A037A000406F4001007A030A00BD010576
:1019C00080DE800219B90068C0F340107047012919
:1019D00003D10068C0F3C0207047022903D100681A
:1019E000C0F340507047032903D10068C0F3C060C2
:1019F0007047042901D14068E6E7052901D1406814
:101A0000E8E7062901D14068EAE7072901D14068E3
:101A1000ECE70020704770B58668D6F8883093F8F8
:101A20002811D3F81401FFF7CDFF60B3D6F8884032
:101A30000025C4F80051C4F80451D4F81001FFF790
:101A40005FFED4F81C311A6865F300021A60D4F8FE
:101A500020311A6865F300021A60FF225A60D4F838
:101A600020311A6842F001021A601A68D207FCD5C8
:101A7000D4F81821D36843F01003D3603046BDE892
:101A80007040FFF73DBF70BDFEE7FEE7FEE7FEE7F3
:101A9000FEE7FEE7FEE7FEE7FEE7FEE7FEE7FEE71E
:101AA000FEE7FEE7FEE7FEE7FEE7FEE7FEE7FEE70E
:101AB000FEE7FEE7FEE7FEE7FEE7FEE7FEE7FEE7FE
:101AC000FEE7FEE7FEE7FEE7FEE7FEE7FEE7FEE7EE
:101AD000FEE7FEE7FEE7FEE7FEE7FEE7FEE7FEE7DE
:101AE000FEE7FEE7FEE7FEE7FEE7FEE7FEE7FEE7CE
:101AF000FEE7FEE7FEE7000010B5064C6269D3037F
:101B000003D5054B1868FFF7A1FD4FF480336361DF
:101B100010BD00BF003C01409005002008B5044BFB
:101B20001868FFF793FD034B1A685B6808BD00BF98
:101B3000B00500200010014008B5044B1868FFF7FD
:101B400085FD034B1A685B6808BD00BFB80500201F
:101B50000044004008B5044B1868FFF777FD034BBD
:101B60001A685B6808BD00BFC0050020004800403F
:101B700008B5044B1868FFF769FD034B3D229A60D6
:101B800008BD00BF100500200060024008B5044BEE
:101B90001868FFF75BFD034B4FF474629A6008BD51
:101BA000180500200060024008B5044B1868FFF7D4
:101BB0004DFD034B4FF474129A6008BD20050020C0
:101BC0000060024008B5044B1868FFF73FFD034B67
:101BD0004FF074629A6008BD280500200060024042
:101BE00008B5044B1868FFF731FD034B4FF47462DE
:101BF000DA6008BD300500200060024008B5044BE3
:101C00001868FFF723FD034B4FF47462DA6008BDD8
:101C1000380500200060024008B5044B1868FFF743
:101C200015FD034B4FF47412DA6008BD4005002027
:101C30000060024008B5044B1868FFF707FD034B2E
:101C40004FF07462DA6008BD480500200060024071
:101C500008B5044B1868FFF7F9FC034B3D229A6066
:101C600008BD00BF500500200064024008B5044BC9
:101C70001868FFF7EBFC034B4FF474629A6008BDE1
:101C8000580500200064024008B5044B1868FFF7AF
:101C9000DDFC034B4FF474129A6008BD6005002010
:101CA0000064024008B5044B1868FFF7CFFC034BF3
:101CB0004FF074629A6008BD68050020006402401D
:101CC00008B5044B1868FFF7C1FC034B3D22DA60EE
:101CD00008BD00BF700500200064024008B5044B39
:101CE0001868FFF7B3FC034B4FF47462DA6008BD69
:101CF000780500200064024008B5044B1868FFF71F
:101D0000A5FC034B4FF47412DA6008BD8005002077
:101D10000064024008B5044B1868FFF797FC034BBA
:101D20004FF07462DA6008BD88050020006402404C
:101D3000014B1868FFF78ABC98050020014B186812
:101D4000FFF784BCA0050020014B1868FFF77EBC9C
:101D5000A8050020026810B5541C024404605172AA
:101D600004685021B4FBF1F201FB1242026010BD85
:101D700010B504681421B4FBF1F201FB12420346D2
:101D800012B92021FFF7E6FF14241968B1FBF4F221
:101D900004FB121222B120211846FFF7DBFFF4E703
:101DA000184610BD08B503461A6822B1202118460E
:101DB000FFF7D0FFF8E7184608BD38B505460C46D2
:101DC000084609B1FEF704FAC5E90004284638BD03
:101DD00010B514240368B3FBF4F304FB031150247F
:101DE000B1FBF4F304FB1311016010BD38B50468B6
:101DF000D4F8AC30F3B1013BC4F8AC30D4F8A8301F
:101E0000606814256B4303600F21FFF7E1FF202179
:101E1000FFF7A0FFD4F8A8306068013B5D43C4F829
:101E2000A8300F210560FFF7D3FF7E21BDE83840C1
:101E3000FFF790BF38BD38B50468D4F8AC30012B3B
:101E40001ED00133C4F8AC30D4F8A8306068142533
:101E50006B4303600F21FFF7BBFF2021FFF77AFFE1
:101E6000D4F8A830606801335D43C4F8A8300F216E
:101E70000560FFF7ADFF7E21BDE83840FFF76ABF80
:101E800038BD437A70B5054600F10C062BB100232E
:101E90004372C1613046FFF733FD3046FFF704FD62
:101EA000012428B13046FFF727FD6C72002070BD79
:101EB0002046FCE770B58EB005AD0023CDE901509A
:101EC0000C93CDE90533CDE909330B93394E0D93CE
:101ED0000123044608968DF81D308DF81C300090C3
:101EE000CDF80CD0049564212846FFF7CAFF0028DE
:101EF000F9D12069FFF704FC6069FFF701FCA069D4
:101F0000FFF7F8FBA26AE369D2699A616846FFF7B6
:101F1000FEFB05212846FFF7B4FF0028F9D1A26A8D
:101F2000E369D2699A616846FFF7F1FB64212846AC
:101F3000FFF796FB0028F9D1A26AE369D2699A619A
:101F40006846FFF7E4FB32212846FFF789FB0028AB
:101F5000F9D1A26AE36952699A616846FFF7D7FB33
:101F600032212846FFF77CFB0028F9D1282102A85E
:101F7000FFF7E4FB0C2102A8FFF7E0FB062102A813
:101F8000FFF7DCFB012102A8FFF7D8FB802102A8A4
:101F9000FFF7D4FB01212846FFF773FF0028F9D192
:101FA0000EA8012384F8303040F8186DFFF786FC46
:101FB0000EB070BD2492000821B9036962F30203D8
:101FC00003617047012903D1036962F3C503F7E791
:101FD000022903D1036962F38813F1E7032903D1CE
:101FE000036962F34B23EBE7042903D1036962F32E
:101FF0000E33E5E7052903D1036962F3D133DFE747
:10200000062903D1036962F39443D9E7072903D171
:10201000036962F35753D3E7082903D1036962F3D5
:102020001A63CDE7092903D1036962F3DD63C7E7CA
:102030000A2904D1C36862F30203C36070470B2905
:1020400003D1C36862F3C503F7E70C2903D1C36862
:1020500062F38813F1E70D2903D1C36862F34B23C0
:10206000EBE70E2903D1C36862F30E33E5E70F29CE
:1020700003D1C36862F3D133DFE7102903D1C3680A
:1020800062F39443D9E7112903D1C36862F357532C
:10209000D3E71229D2D1C36862F31A63CDE70129CD
:1020A00004D1436B62F3040343637047022903D1F5
:1020B000436B62F34913F7E7032903D1436B62F3E0
:1020C0008E23F1E7042903D1436B62F3D333EBE7AB
:1020D000052903D1436B62F31853E5E7062903D1C1
:1020E000436B62F35D63DFE7072904D1036B62F39F
:1020F000040303637047082903D1036B62F3491398
:10210000F7E7092903D1036B62F38E23F1E70A296C
:1021100003D1036B62F3D333EBE70B2903D1036BDA
:1021200062F31853E5E70C2903D1036B62F35D6397
:10213000DFE70D2904D1C36A62F30403C362704769
:102140000E2903D1C36A62F34913F7E70F2903D1BC
:10215000C36A62F38E23F1E71029F0D1C36A62F3F8
:10216000D333EBE7836A1A6842F001021A601A68F7
:10217000D107FCD5036A9A6842F001029A609A6816
:10218000D207FCD59A6842F080429A60704710B539
:1021900004465030FFF75BFB04F14000FFF757FBAC
:1021A00004F13000FFF753FB04F12000FFF74FFB71
:1021B00004F11000FFF74BFB2046FFF748FB2046D9
:1021C00010BD0000204B1A68052161F302021A605D
:1021D000A3F580631A6842F480321A601A68920389
:1021E000FCD59A686FF307129A609A68052161F32B
:1021F0008C229A609A68042161F34F329A609A683F
:10220000022060F301029A605A6861F305025A6085
:102210005A68A82161F38E125A605A68072161F347
:102220001B625A605A686FF311425A605A6842F44E
:1022300080025A601A6842F080721A60034A13687A
:102240009B01FCD5704700BF003C024000380240B3
:102250007B487C49F8B5036813F0010F7CD17A4BB9
:102260007A4C1A6812F0010F06D1DFF8F8E1022269
:10227000C4E900E201221A60754B1A6B42F00102B8
:102280001A6322681568022666F305151560156A3B
:10229000072666F30B251562D5686FF30515D56023
:1022A0006C4D2A6812F0010F6B4A06D1DFF8B4C1F9
:1022B0000326C2E900C601262E601D6B45F001050C
:1022C0001D6313681D68022666F387151D601D6A6D
:1022D000072666F30F351D62DD686FF38715DD6035
:1022E0005E4D2B6813F0010F5D4B05D15D4F0F263E
:1022F000C3E9007601262E60554E356B45F0010589
:1023000035631D682F68012666F39F772F60EF689D
:102310006FF39F77EF60C1F81031534BC1F8143160
:10232000A3F50733C1F8183103F50733A033C1F81B
:102330001C31183BC1F820310D230025C1F8243190
:102340000623C1F80051C1F80451C1F80841C1F891
:102350000C2181F8283106603D4C236C43F4003396
:102360002364D1F81831DA6842F00802DA60DA68DA
:1023700042F00402DA605A6942F080025A615A69F6
:1023800042F040025A61394B93F90400FFF752F9C9
:10239000236B43F400132363D1F81C311A68012026
:1023A00060F387121A60D1F800210A44DA60D1F88C
:1023B000182104329A601A6842F480621A601A681E
:1023C0006FF34E321A601A686FF3CC221A601A68E3
:1023D00042F010021A60264B93F90400FFF72AF925
:1023E000D1F820311A686FF387121A60D1F80021F2
:1023F0000A44DA60D1F8182104329A60FF225A6048
:102400001A6842F480621A601A686FF34E321A60DA
:102410001A686FF3CC221A601A6842F480721A604C
:10242000D1F820311A68042060F35B621A60D1F899
:102430001C311A6860F35B621A600248F8BD00BF85
:10244000BC010020C001002004030020080300207C
:1024500000380240F8020020FC020020EC020020BC
:10246000F00200200000024000600240B805002099
:102470004005002010B50C1A134605D0014622462F
:10248000184606F03BFA0346181910BD2DE9F3472C
:1024900002AB03E906000768037A00F10908064663
:1024A000DDE9004508EB070263B3132C22D8C4F121
:1024B000140902EB590910464946FFF708F9291992
:1024C0004A462846FFF7D6FF09EB040A07F1140134
:1024D00041445046FFF7FBF8336850211433B3FBF7
:1024E000F1F201FB1233336000233046337202B045
:1024F000BDE8F087143C05EB540000F11401FFF730
:10250000B9FFE9E7C7F15001A14205EB040907D97A
:1025100049462846FFF7AEFF306804443460E3E7DD
:1025200029442846FFF7A6FF3368A4F150071F444B
:10253000E41B2C44502F2046424604F1500404D999
:102540002146FFF797FF503FF4E74946FFF792FF18
:10255000336850221F44B7FBF2F302FB1377376056
:10256000C2E7000030B589B00A460446114905A803
:1025700006F0E2FA05A901A8FFF71FFC6368019ABB
:10258000934208D99B1A13F1FF3304D3202120462C
:10259000FFF7E0FBF7E703AD05A92846FFF70DFCC1
:1025A00095E806002046FFF771FF00232046636090
:1025B00009B030BDD0980008F8B505460F464FF475
:1025C0007A7691FBF6F42146FFF7CCFF2E212846C0
:1025D000FFF7C0FB06FB14740A2394FBF3F4092CE9
:1025E00008DC00212846FFF7BDFF2146FFF7BAFFB0
:1025F0002846F8BD21462846F8E70000F7B504460E
:10260000406802260660A36FB3F82C15FFF7D4FFCD
:102610006D4607466F492846FFF7CFFB95E8060051
:102620003846FFF733FF60680D23C0E90036A36F1B
:10263000B3F8EC14FFF796FF2521FFF78BFB6068DA
:102640001E23C0E90036B4F88C10FFF78BFF6249F7
:1026500006462846FFF7B1FB95E806003046FFF72F
:1026600015FFD4F8AC20D4F88410531C496804EB4F
:1026700042020A2BA8BF002389686020B1FBF0F159
:10268000A2F8B410C4F8AC300023C4F8B03004F1A0
:10269000B40204F1C8009042D4F8B01005D032F86A
:1026A000023B1944C4F8B010F5E74C4E0A236422EB
:1026B000B1FBF3F13346C4F8B010002A0DDD501021
:1026C00003EB800C53F82070B94204D2121A0CF1BB
:1026D0000403013AF1E70246EFE79B1B9B10A4F8C5
:1026E0008C30A36F3E4F93F83C30002B58D004F150
:1026F0009000FFF7D9F894F8A830666883EA0002E2
:1027000083424FF0220384F8A82033600ED0E36F99
:102710001B78C3F3C003284657F82310FFF74DFB7F
:1027200095E806003046FFF7B1FE03E02021304671
:10273000FFF710FB666823233360E36F1B78C3F356
:102740008003284657F82310FFF737FB95E806006B
:102750003046FFF79BFEE26F1046FEF70DFF18BBF9
:1027600066682049142333602846FFF726FB95E866
:1027700006003046FFF78AFE606816230360A36FE9
:10278000B3F86C15FFF718FF174904462846FFF702
:1027900014FB95E806002046FFF778FE03B0F0BD75
:1027A000666822233360B2E71378D90604D56468DB
:1027B0000E4914232360E9E79A0604D564680C499E
:1027C00014232360E2E75B06E8D564680949142313
:1027D0002360DBE7A0980008A4980008D8980008B8
:1027E00088980008A7980008AA980008AD980008E3
:1027F000B6980008BF98000838B5002383608B683E
:1028000004460D462BB102229847EB68E360AB68A3
:10281000A360204638BD38B5002383608B6804462A
:102820000D462BB102229847EB68E360AB68A360CA
:10283000204638BD38B504460D46FFF7DDFF05F1EB
:10284000100104F11000FFF7D7FF05F1200104F19A
:102850002000FFF7D1FF05F1300104F13000FFF750
:10286000CBFF05F1400104F14000FFF7D4FF05F173
:10287000500104F15000FFF7CEFF204638BD8268BA
:1028800010B50AB905F0FEFFC368BDE8104018474F
:1028900008B500686830FFF7F2FF08BD08B50068AA
:1028A0006830FFF7ECFF08BD70B5816800220B4669
:1028B00013B19A605B68FBE7D0E9042302EB4305A0
:1028C0000B469542144609D026889C6834449C6087
:1028D0005B680232002B08BF0B46F2E7C36B13B1F3
:1028E0003430FFF7CCFF70BD006808B5D0F89C30DD
:1028F00090F8A0201A70D0F884301BB17C30FFF71C
:10290000BEFF08BD6C30FAE708B500686C30FFF711
:10291000B6FF08BD08B50368D3F8AC00182202FB67
:1029200000308030FFF7ABFF08BD08B500686830A5
:10293000FFF7A5FF08BD006808B5D0F89C3090F8F7
:10294000A0201A70D0F884301BB17C30FFF797FFBD
:1029500008BD6C30FAE708B500686C30FFF78FFFF0
:1029600008BD08B50368D3F8C400182202FB003084
:102970008030FFF784FF08BD08B500686830FFF7B6
:102980007EFF08BD006808B5D0F89C30B0F8A020E4
:102990001A80D0F884301BB17C30FFF770FF08BD7F
:1029A0006C30FAE708B500686C30FFF768FF08BDC7
:1029B00008B50368D3F89C2093F8A0301370006822
:1029C000D0F884301BB17C30FFF759FF08BD6C3064
:1029D000FAE708B500686C30FFF751FF08BD0068E2
:1029E00008B5D0F89C3090F8A0201A70D0F8843048
:1029F0001BB17C30FFF743FF08BD6C30FAE708B528
:102A000000686C30FFF73BFF08BD08B50368D3F8DA
:102A10002401182202FB00308030FFF730FF08BD90
:102A200008B500686830FFF72AFF08BD08B50368DD
:102A3000D3F8DC00182202FB00308030FFF71FFFC4
:102A400008BD08B500686830FFF719FF08BD000031
:102A500038B53B4D3B4C2B6813F0010321D13A4A6A
:102A600022603A4A226202F54072626202F5A032A6
:102A700002F58872C4E90603A26235486360242225
:102A80002146C4E90233C4E90433E0622263E3630C
:102A9000FEF7D2FD01232F4A2F492B60204605F077
:102AA000ECFE2E4A536C43F480735364236A5968D6
:102AB0006FF319615960996841F002019960996852
:102AC00041F480719960996841F400719960606A7D
:102AD000416841F440314160596841F48071596066
:102AE000116B41F48001116303F14C02A36A9A60F7
:102AF0001A686FF387121A601A68012161F34E3267
:102B00001A601A6861F3CC221A601A6842F4806273
:102B10001A601A6842F010021A601A6842F4807251
:102B20001A601A6842F480721A601A686FF35B6266
:102B30001A60E36A93F90400FEF77CFD014838BD92
:102B4000740100207801002070AA000800200140D4
:102B500050050020000000206118000800380240E5
:102B6000F8B504465148524D026812F0010F1FD1CA
:102B7000504A136813F0010F4F4B05D14F4F0721F7
:102B8000C3E90071012111604D490A6B42F0010255
:102B90000A631A68116841F440411160D1686FF30B
:102BA0008F31D1600022C5E90022EB600123036070
:102BB000236B206A243B012B8CBF00260726F7B22B
:102BC000072239462E61FFF7F7F9E169206A0131E2
:102BD000E1613A46FFF763FAD4E90732D16A013B73
:102BE00063F31751D162A2681346002B55D01969BF
:102BF0008E424DDB5B68F8E76A60E368A56003B965
:102C0000E5602069A2692F4B68B1D3F8001150F834
:102C1000045D0439491B5D18A8421ABF012183F8DD
:102C20000411C3F8001161690A4462612649D3F8AE
:102C300000518A4294BF52004FF0FF32281D1044C9
:102C4000B0F5807F03EB0501C3F800011ED893F8AF
:102C50000401D8B909B15A510431A36A21611A6833
:102C60006FF300021A60A28AD9605A601A6842F0B3
:102C700001021A601A68D207FCD50D48F8BD1A681F
:102C8000C5E900231D602B685D60BAE70021E4E719
:102C90009A42F4D16A601560AFE7002AACD0E368CD
:102CA0002B60002BACD05D60AAE700BF14010020B0
:102CB000180100202C0100203001002000000240FB
:102CC0000038024008040020FCFFFF3F38B5002315
:102CD00083608B6804460D462BB102229847EB684F
:102CE000E360AB68A360204638BD826810B50AB9BE
:102CF00005F0C8FDC368BDE81040184730B585B081
:102D000004460025694608300295FFF7EEFF684645
:102D1000FEF79DFD694604F118000295FFF7E5FFF7
:102D20006846FEF794FD694604F138000295FFF706
:102D3000DCFF6846FEF78BFD05B030BD30B585B0D1
:102D400004460025694608300295FFF7CEFF684625
:102D5000FEF77DFD694604F118000295FFF7C5FFF7
:102D60006846FEF774FD694604F128000295FFF7F6
:102D7000BCFF6846FEF76BFD694604F1380002951A
:102D8000FFF7B3FF6846FEF762FD05B030BD30B512
:102D900085B004460025694608300295FFF7A5FF77
:102DA0006846FEF754FD694604F118000295FFF7E6
:102DB0009CFF6846FEF74BFD694604F1280002952A
:102DC000FFF793FF6846FEF742FD694604F13800BD
:102DD0000295FFF78AFF6846FEF739FD05B030BD62
:102DE00030B585B004460025694608300295FFF7E6
:102DF0007CFF6846FEF72BFD694604F1180002953A
:102E0000FFF773FF6846FEF722FD694604F12800CC
:102E10000295FFF76AFF6846FEF719FD694604F15F
:102E200038000295FFF761FF6846FEF710FD05B018
:102E300030BD30B585B0044600256946083002959E
:102E4000FFF753FF6846FEF702FD694604F11800DC
:102E50000295FFF74AFF6846FEF7F9FC694604F160
:102E600028000295FFF741FF6846FEF7F0FC69462F
:102E700004F138000295FFF738FF6846FEF7E7FCDB
:102E800005B030BD1FB5224B009004466946039340
:102E90000830204B0293FFF728FF6846FEF7D7FC67
:102EA0001D4B039369461D4B029304F118000094D7
:102EB000FFF71BFF6846FEF7CAFC194B03936946F0
:102EC000184B029304F138000094FFF70EFF684698
:102ED000FEF7BDFC60680023036004F1780393E80B
:102EE0000600FFF7D3FAFEF743FF60681423036080
:102EF000D4F888301988FFF735FB04F1800393E894
:102F00000600FFF7C3FA6068FEF74CFF04B010BD7F
:102F1000A3020008A5020008BB020008BD020008C9
:102F200091280008D302000838B5002383608B681D
:102F300004460D462BB102229847EB68E360AB686C
:102F4000A360204638BD10B50B460446D1E9000108
:102F500084E8030003F1080104F10800FFF7B6FE5E
:102F6000204610BD38B51D46124B0446C0E900315D
:102F700011460830FFF75EFC294604F16800FFF7B0
:102F8000A5FE049904F17800FFF7DDFF059904F12F
:102F90009000FFF7D8FF069904F1A800FFF7D3FFD0
:102FA000079904F1C000FFF7CEFF0023C4E93633D0
:102FB000204638BD4492000882B038B50593184BBE
:102FC0000360BDF828308380BDF82C30C3800446F0
:102FD000816011460C30099DFFF72CFC0C9904F11F
:102FE0006C00FFF773FE0D9904F17C00FFF76EFE95
:102FF00005AA92E8030004F18C0307AA83E8030002
:1030000092E8030004F1940383E803002B88C4F8DA
:103010009C502046A4F8A030BDE8384002B070476C
:1030200094920008D0F80431FE2B9FBFC154D0F811
:1030300004310133C0F8043170470000F0B5D0F816
:103040008820D2F80431D2F800115C1A022C35D94C
:1030500099423EBF03F1FF33C2F80431D55CD0F88A
:103060008820DFF860C0D2F80431D2F80011144F84
:1030700028BF00258B4282BF03F1FF33C2F8043121
:10308000D65CD0F88830D3F80021D3F804114FF083
:10309000FF001A4498BF00260B44044612F8011B97
:1030A000414093421CF8010080EA04007C5CF5D1A9
:1030B000AC4203D1831B58425841F0BD0020FCE7CD
:1030C000889700088896000838B5D0F894301D68B5
:1030D000D0F88830D3F800219A5C2B799A420446C4
:1030E00011D0AB690921EA1811750133032293FB52
:1030F000F2F202EB42029B1AAB61D4F8B430013316
:10310000C4F8B43038BDFFF799FF18B9AB69102186
:10311000EA18E9E7D4F88820D2F80031D2F804118F
:10312000994284BF0133C2F80031D4F88830D3F813
:103130000021D3F80411914283BF511CC3F8001140
:103140009B5C00231B0612D5D4F88830D3F80021ED
:10315000D3F80411914282BF511CC3F800119A5C4C
:10316000AB6905EB030198BF00220A75BDE72B7A16
:10317000032BC7D1D4F88820D2F80031D2F804113B
:10318000994284BF0133C2F80031D4F88830E8682E
:10319000D3F80021D3F80411541CA14217D991424D
:1031A00084BFC3F800419C5CD3F8002198BF002481
:1031B000914283BF511CC3F800119A5C00224FF06A
:1031C000000362F3070364F30F2303809AE70023ED
:1031D000FBE713B50B460446D0E900016A4682E8D6
:1031E000030093E8030084E8030092E8030083E807
:1031F000030002B010BD38B505460C46FFF7E9FFE5
:10320000AB68A268AA60A360E268EB68EA60E3606A
:1032100038BD1FB504466846FFF758FD214668468D
:10322000FFF7E9FF6846FEF712FB204604B010BD29
:1032300008B54430FFF7EDFF08BD08B53430FFF79F
:10324000E8FF08BD08B52430FFF7E3FF08BD08B567
:103250001430FFF7DEFF08BD08B54430FFF7D9FF93
:1032600008BD08B53430FFF7D4FF08BD08B52430D9
:10327000FFF7CFFF08BD08B51430FFF7CAFF08BD40
:1032800008B54430FFF7C5FF08BD08B53430FFF777
:10329000C0FF08BD08B52430FFF7BBFF08BD08B567
:1032A0001430FFF7B6FF08BD08B53430FFF7B1FFA3
:1032B00008BD08B53430FFF7ACFF08BD08B5443091
:1032C000FFF7A7FF08BD08B54430FFF7A2FF08BD10
:1032D00008B52430FFF79DFF08BD08B51430FFF78F
:1032E00098FF08BD08B52430FFF793FF08BD08B567
:1032F0001430FFF78EFF08BD30B5044689B008468C
:10330000002369460293FFF776FF23689C6F2368CA
:10331000694604A8DD68FFF7D9FC04A92046A84740
:1033200004A8FEF794FA6846FEF791FA09B030BD9A
:1033300030B5044689B00846002369460293FFF77A
:103340005AFF23681C6F2368694604A89D68FFF72D
:10335000BDFC04A92046A84704A8FEF778FA6846F1
:10336000FEF775FA09B030BD30B5044689B008469D
:10337000002369460293FFF73EFF23685C6F2368D2
:10338000694604A89D68FFF7A1FC04A92046A84748
:1033900004A8FEF75CFA6846FEF759FA09B030BD9A
:1033A00030B5044689B00846002369460293FFF70A
:1033B00022FF23689C6F2368694604A89D68FFF775
:1033C00085FC04A92046A84704A8FEF740FA6846F1
:1033D000FEF73DFA09B030BD0B1A1B11002B14DDAE
:1033E0000268127C4AB34268127C0AB90430704702
:1033F0008268127C0AB908307047C268127C0AB928
:103400000C3070471030013BE8E70B1A9B10022B81
:103410000DD0032B07D0012B0ED103681B7C002B92
:1034200018BF0846704703681B7C33B1043003683B
:103430001B7C13B10430F0E708467047437B012B37
:10344000F7B5044606D0C0F0D280022B00F00B8105
:1034500003B0F0BD00F188054FF00003D0F89400F0
:103460001A462946FFF7B8FF8542C4F8940004D1F4
:1034700004F11003C4F89430EAE7D4F88830056802
:103480000026C3F80061C3F804612979D4F88800E4
:10349000FFF7C8FD297AD4F88800FFF7C3FD31464D
:1034A000D4F88800FFF7BEFDA979D4F88800FFF7AB
:1034B000B9FD2B7A032B01D0102B6DD10021D4F84C
:1034C0008800FFF7AFFD0121D4F88800FFF7AAFDBF
:1034D0002B7A102B12D10221D4F88800FFF7A2FD1D
:1034E0002B7A102B0AD1EB68D4F888001988090AC6
:1034F000FFF798FDEB681978FFF794FD2B7A032B03
:1035000001D0052B56D12B6829461B6801A8984786
:103510009DF80510D4F88800FFF784FD9DF804108D
:10352000FFF780FDD4F8A430C4F89C30D4F8B8304C
:10353000D4F8885000260133C4F8B830C4F8AC6021
:10354000D5F81001FEF7D6F8D5F81831DA6866F329
:103550000412DA60D5F820311A6866F300021A60A6
:10356000D5F81C311A6866F300021A60D5F80431E8
:10357000D5F80011D5F81C215B1A02339BB25360B9
:10358000D5F81C311A6842F001021A601A68D20795
:10359000FCD5002363735BE7052BAFD1EB68D4F850
:1035A00088001988002914BFFF210021FFF73AFD88
:1035B000314691E7102BB5D1D4F88800DFF8D4C09C
:1035C000D0F80031D0F80421314FFF210344861890
:1035D0000D4613F8012B4A409E421CF8021081EA66
:1035E0000501BD5CF5D1FFF71DFD294698E7D0F830
:1035F0008810D0F8A420D1F80431D1F800115B1A5A
:10360000D0F8AC109942D0F8981038BFC0F89C2080
:103610008A4217DCD0F8943018688369C2181225E2
:1036200015750133032293FBF2F202EB42029B1A5F
:103630008361D4F8B430C4F8A8100133C4F8B430AE
:1036400002236373D4F89C30C91AD4F8A03099428D
:10365000FFF6FEAE2046FFF737FDD4F89830C4F8E9
:10366000A830022396E7D0F89830D0F8A820093B7C
:1036700093427FF7EDAE0023C0F89830FEF71EF9B5
:10368000D0F894300433C0F89430012382E700BFAF
:1036900088970008889600082DE9F04F364BADF565
:1036A000EC5D85B003F1200683AC35461868596897
:1036B000224603C20833B3421446F7D194AC002229
:1036C00044F804292D4B93932D4B23612D4B2E4809
:1036D00063654FF48031C4E9113183ABC4E9130150
:1036E00084F85920A2602273A263A287226484F81E
:1036F000582084F85A2084F85C206361FF21A318C5
:103700000132202A1976FAD10DF50B7900214846AD
:1037100005F00DF92069FDF7E1FF23691A694FF003
:10372000010868F309221A611A6942F080721A616D
:10373000264600274FF6FF7B0DF5137AD6E91131A7
:1037400003EB410199420DD01A781F2A07D8224471
:10375000587810761A7809F802800233F2E71A884E
:103760005A45FAD16365716C99420FD1A763083647
:10377000CFB90127E2E700BFFC91000890AA00083A
:10378000003C024000000A0800000808B26C01EB8F
:103790004202934202F00384A76351464846FDF774
:1037A000F5FE8245E3D1A26B04EBC201D1E91130F1
:1037B000616D03EB4003994206D1A2AB01219954FC
:1037C0000023A363636C636593AF39464846FDF7F6
:1037D000DDFEB842064642F0E78394AB626999AFDA
:1037E00003F1340C3B4603CB6345106051601F4628
:1037F00002F10802F6D1002384F85A3094F83C30E4
:103800008BB9A36B7BB1D4E911234FF6FF7002EBA8
:1038100043018A42134642F0CE830B465B1A18BF1F
:10382000012384F83C3094F83D30ABB9A36B012BF5
:1038300012D0D4E913324FF6FF7003EB42029A42E2
:10384000194604D00F88874203F10203F7D0521AB9
:1038500018BF012284F83D2094AB0DF28A2703F1B2
:1038600038003946FDF7BCFE874218BF03232269A2
:1038700018BF84F85930136943F00043136193ABC8
:103880009E4209D0E54B83AE18685968324603C2A0
:103890000833AB421646F7D12046FEF731F8E04B2D
:1038A0001A6812F0010FDF4A05D1DF4E0521C2E987
:1038B000006101211960DD4B196B41F001011963B1
:1038C00012681168012060F38B211160D1686FF3D9
:1038D0008B21D160D6490A6812F0010F08BFD24D82
:1038E000D44A02BF08600424C2E90054196B41F0B5
:1038F0000101196313681A68012464F309221A602C
:10390000DA686FF30922DA600DF20C52CDF8FC246C
:10391000C94ACDF8F024002305200DF22C528DF871
:10392000F804ADF84030ADF844308DF8F444ADF80B
:10393000F6348DF80035ADF804358DF80635CDF840
:103940000835ADF80C358DF81445ADF816458DF8F1
:103950001805CDF81C25B94ACDF810250DF24C52AA
:10396000CDF83C25B64ACDF830250DF29462CDF85D
:1039700084260DF2B465B34ACDF8782610210422CE
:10398000CDF8A456B04D8DF838158DF880168DF809
:10399000A0168DF82035ADF824358DF82635CDF8F4
:1039A0002835ADF82C358DF83445ADF83635ADF801
:1039B00044358DF84635CDF84835ADF84C358DF8A1
:1039C0007C46ADF87E46ADF88C368DF88E36CDF857
:1039D0009036ADF894368DF89C46ADF89E26ADF83D
:1039E000AC368DF8AE36CDF8B036CDF898560DF22F
:1039F000D465CDF8C456954DCDF8B8560DF2F465A2
:103A0000CDF8E456924DCDF8D8560DF21475CDF898
:103A10000457904DCDF8F8560825ADF81E570DF215
:103A200034754FF0060A4FF00709CDF824578A4D38
:103A3000ADF8BE068DF8C0168DF8E0168DF80017AB
:103A40008DF82017ADF8B4368DF8BC46ADF8CC36FD
:103A50008DF8CE36CDF8D036ADF8D4368DF8DC46BC
:103A6000ADF8DEA6ADF8EC368DF8EE36CDF8F036D2
:103A7000ADF8F4368DF8FC46ADF8FE96ADF80C378F
:103A80008DF80E37CDF81037ADF814378DF81C4788
:103A9000ADF82C37CDF818570DF25475CDF84457C2
:103AA0006E4DCDF838570DF27475CDF864576C4DE6
:103AB000CDF858570DF29475CDF88457694DCDF86F
:103AC00078574FF009084FF00A0E4FF00B0C0C25F9
:103AD0008DF840178DF860178DF880178DF82E3708
:103AE000CDF83037ADF834378DF83C47ADF83E8728
:103AF000ADF84C378DF84E37CDF85037ADF8543718
:103B00008DF85C47ADF85EE7ADF86C378DF86E3731
:103B1000CDF87037ADF874378DF87C47ADF87EC7B7
:103B2000ADF88C378DF88E37CDF89037ADF89437E7
:103B30008DF89C47ADF89E570DF2B475CDF8A4579B
:103B4000494DCDF898570D25ADF8BE570DF2D475F7
:103B5000CDF8C457454DCDF8B8570DF2F475CDF8F2
:103B6000E457434DCDF8D8570DF614050E270F2610
:103B7000CDF804580DF6540B3E4D8DF8A0178DF876
:103B8000C017ADF8DE778DF8E017ADF8FE678DF859
:103B90000018ADF8AC378DF8AE37CDF8B037ADF8CA
:103BA000B4378DF8BC47ADF8CC378DF8CE37CDF8AB
:103BB000D037ADF8D4378DF8DC47ADF8EC378DF859
:103BC000EE37CDF8F037ADF8F4378DF8FC47ADF8A7
:103BD0000C388DF80E38CDF81038CDF8F8570DF6B2
:103BE0003405CDF844B8DFF894B0CDF82458CDF8BA
:103BF00038B8214DCDF818580DF69C1B0225CDF88C
:103C00008CB9DFF87CB0ADF83E58CDF880B903250B
:103C10000DF6BC1BADF81E1834E000BFFC91000887
:103C20001C03002020030020000002400038024056
:103C30001003002014030020F892000804930008E9
:103C4000109300081C930008289300083493000880
:103C5000409300084C9300085893000864930008B0
:103C6000709300087C9300088893000894930008E0
:103C7000A0930008AC930008B4AA0008B893000809
:103C8000C49300088DF82018CDF8ACB9ADF81438FD
:103C90008DF81C48ADF82C388DF82E38CDF830381A
:103CA000ADF834388DF83C488DF84058ADF84C38B4
:103CB0008DF84E38CDF85038ADF854388DF8844929
:103CC000ADF886598DF88859ADF894398DF8963944
:103CD000CDF89839ADF89C398DF8A449ADF8A629EE
:103CE0008DF8A859ADF8B439ADF8C6090DF6DC1059
:103CF000CDF8CC09E948CDF8C0090DF6FC10CDF897
:103D0000EC09E748CDF8E0090DF61C20CDF80C0AC7
:103D1000E448CDF8000ADFF8D0B38DF8B6390DF6D7
:103D20003C20CDF8B839CDF8A0B9ADF8BC398DF844
:103D3000C4498DF8C8598DF8D039ADF8D4398DF80B
:103D4000D639CDF8D839ADF8DC398DF8E449ADF87D
:103D5000E6A98DF8E859ADF8F4398DF8F639CDF8C3
:103D6000F839ADF8FC398DF8044AADF8069A8DF8AB
:103D7000085A8DF8103AADF8143A8DF8163ACDF885
:103D8000183AADF81C3ACDF82C0AC748CDF8200AED
:103D90000DF65C20CDF84C0AC448CDF8400A0DF66B
:103DA0007C20CDF86C0AC248CDF8600A0DF69C2044
:103DB000ADF8867ACDF88C0A8DF8244AADF8268ABB
:103DC0008DF8285AADF8343A8DF8363ACDF8383AAD
:103DD000ADF83C3A8DF8444AADF846EA8DF8485AB9
:103DE0008DF8503AADF8543A8DF8563ACDF8583A25
:103DF000ADF85C3A8DF8644AADF866CA8DF8685A39
:103E0000ADF8743A8DF8763ACDF8783AADF87C3A58
:103E10008DF8844A8DF8885A8DF8903AADF8C61A14
:103E20000DF6DC21CDF8CC1AA249A348CDF8C01A72
:103E30001121CDF8800AADF8E61A0DF6BC200DF67A
:103E4000FC219E4FCDF8AC0ACDF8EC1A9C489D4958
:103E5000ADF8A66ACDF8E01AADF8943A8DF8963A26
:103E6000CDF8983AADF89C3A8DF8A44A8DF8A85A46
:103E7000ADF8B43A8DF8B63ACDF8B83ACDF8A00A14
:103E8000ADF8BC3A8DF8C44A8DF8C85AADF8D43AAA
:103E90008DF8D63ACDF8D83AADF8DC3A8DF8E44A48
:103EA0008DF8E85A8DF8F03AADF8F43A8DF8F63A14
:103EB000CDF8F83AADF8FC3A39688DF84045214024
:103EC0008DF888468DF8A8468DF8C8468DF8E846E6
:103ED0008DF808478DF828478DF848478DF86847D2
:103EE0008DF888478DF8A8478DF8C8478DF8E847C2
:103EF0008DF808488DF828488DF848488DF8904985
:103F00008DF8B0498DF8F0498DF8304A8DF8704A37
:103F10008DF8B04A8DF8D04ABDF80E6240F0D081DD
:103F2000CDE90921FEF794F9804667480A99447360
:103F300006EA0409654CC0F88C40C6F34003644CA3
:103F40000893C6F3800BC6F3C10A624BC0F89040D9
:103F5000C6F3421600F11004C0E92541C0E9011181
:103F600001730360C0F888800446099A002E02F0AD
:103F70002A80012E06D0022E02F02880AE4214BF05
:103F800001250225C4F8A05064220025C4E9292592
:103F9000514AC4F8C050C4F8BC20C4F8C4404F49CA
:103FA0004A48C4F8B45084F8B050C4F8B850FDF78B
:103FB00043FB4B4AC4F8CC50C4F8C820D4F8900056
:103FC000C4F8D0404749FDF737FBCDF8005B14AD8E
:103FD0000DF5306245F804290DF59E6128461394CD
:103FE000FCF7CAF995E8030015AC84E80300204605
:103FF0000DF5A261FCF7C0F994E8030017AD85E860
:10400000030028460DF5A661FCF7B6F995E8030014
:1040100019AC84E8030020460DF5CF61FCF7ACF93C
:1040200094E803001BAD85E8030028460DF5D36135
:10403000FCF7A2F995E803001DAC84E803002046D4
:104040000DF5D761FCF798F994E803001FAD85E8FA
:10405000030028460DF5DB61FCF78EF995E80300B7
:1040600021AC84E8030020460DF5DF61FCF784F9FC
:1040700094E8030023AD85E8030028460DF5E361CD
:10408000FCF77AF995E8030025AC84E803002046A4
:104090000DF5E761FCF770F928E000BFDC9300083C
:1040A000E8930008F4930008009400080C940008BA
:1040B000189400083C940008249400082803002069
:1040C00030940008C0AA00082C030020B805002086
:1040D000400500206094000848940008E803002090
:1040E00054940008F4030020D093000894E80300DF
:1040F00027AD85E8030028460DF5EB61FCF73CF998
:1041000095E8030029AC84E8030020460DF5EF6133
:10411000FCF732F994E803002BAD85E8030028464C
:104120000DF5F361FCF728F995E803002DAC84E860
:10413000030020460DF5F761FCF71EF994E8030033
:104140002FAD85E8030028460DF5FB61FCF714F957
:1041500095E8030031AC84E8030020460DF5FF61CB
:10416000FCF70AF994E8030033AD85E8030028461C
:104170000DF61801FCF700F995E8030035AC84E86A
:10418000030020460DF63801FCF7F6F894E803002A
:1041900037AD85E8030028460DF51861FCF7ECF80B
:1041A00095E8030039AC84E8030020460DF51A6158
:1041B000FCF7E2F894E803003BAD85E803002846ED
:1041C0000DF51C61FCF7D8F895E803003DAC84E8D8
:1041D000030020460DF51E61FCF7CEF894E80300BD
:1041E0003FAD85E8030028460DF52061FCF7C4F8D3
:1041F00095E8030041AC84E8030020460DF52261F8
:10420000FCF7BAF894E8030043AD85E803002846BC
:104210000DF52461FCF7B0F895E8030045AC84E89F
:10422000030020460DF52661FCF7A6F894E803008C
:1042300047AD85E8030028460DF52861FCF79CF89A
:1042400095E8030049AC84E803000DF52A61204697
:10425000FCF792F894E803004BAD85E803000DF5F8
:104260002C612846FCF788F895E803004DAA82E8FF
:10427000030010460DF52E61FCF77EF8D8F82421D6
:10428000D8F818013146FDF74BFB089BC26863F371
:104290004922C260C3686BF30C33C36003696AF3DD
:1042A0000D330361C368B9F1000F01F0928643F446
:1042B0008063C360C36843F40053C36001233B6061
:1042C000BD4AAB920DF52B782032BC4BC8F80420C8
:1042D000BB4A12930023C8E9023388F8103088F8EB
:1042E0001130C8F81C30C8F82C30C8F83C30C8F879
:1042F0004C30C8F85C30136813F0010FB14B05D196
:10430000B1480D21C3E9000101211160AF4C226BBE
:1043100042F0020222631A6811686FF39B61116018
:10432000D1686FF39B61D16001250021ACA8C8E979
:104330001A1588F8701088F87110C8F86430FDF705
:10434000DFFAA34BA34AC893C8AF20337B6013683E
:10435000397413F0010F08BFDFF898B29E4B7974DF
:10436000C7E90211F961F962F963F964F96502BFFD
:104370000921C3E900B11560226B944D42F004029B
:1043800022631A6811686FF393411160D1686FF36B
:104390009341D16001240021C9A8C7E91A1487F804
:1043A000701087F871107B66FDF7AAFA8B4B8C4A68
:1043B000E593E5AE203373601368317413F0010F99
:1043C00008BFDFF804A2874B7174C6E90211F161DE
:1043D000F162F163F164F16502BF0F21C3E900A14D
:1043E00014602A6B42F002022A631A6811686FF3A4
:1043F0009F711160D1686FF39F71D160E6A80021B1
:104400004FF001090DF5316B7366C6E91A1986F88C
:10441000701086F87110FDF773FAABF11004724B4F
:104420002173C4E901110BF109004BF8103CC4E9F8
:10443000041121760BF15901FDF749F96B4A0892F5
:10444000136813F0010F2846694D40F08680DFF8AD
:10445000C4C1DFF8C4E1DCF80030664913F0010F95
:1044600001BF0D23CCF80090CEF80010CEF8043038
:10447000036BDFF8A89143F004030363DEF8003018
:10448000D3F800C0012060F39B6CC3F800C0D3F8E0
:104490000CC06FF39B6CC3F80CC0D9F80030DFF888
:1044A00080C113F0010F04BF0F23CCF80430474B39
:1044B00004BFCCF80010C9F80000186B40F00400ED
:1044C0001863DCF80000D0F800904FF0010A6AF39E
:1044D0009F79C0F80090D0F80C906FF39F79C0F8E6
:1044E0000C90DFF84091D9F8000010F0010F42481D
:1044F00001BFC9F800A00E2201604260D3F83090DD
:1045000049F00409C3F830900368D3F800A04FF0D5
:10451000010969F31D7AC3F800A0D3F80CA06FF36A
:104520001D7AC3F80CA00023C5E906010BF10901AF
:10453000C5E901332B736B73296285F830302F493D
:104540006B63C5E904EC089BDFF8DCA069622C49C9
:10455000C5F800A0A962C3F800902A4A2A49136846
:1045600013F0010301BF2348C1E9000301231360D5
:10457000164A136B43F0040313630B681868012198
:1045800061F301001860D8686FF30100D8601F481C
:10459000036813F0010F08BFDFF858C01C4B04BFBD
:1045A0000160C3E900C1116B41F0040111631B6894
:1045B0001A6801213AE000BF6C9400082C03002027
:1045C000680100206C010020000402400038024015
:1045D000989400085C01002060010020C494000849
:1045E00050010020540100209CAA0008B4000020C3
:1045F000B800002000080240F4000020689A00087B
:1046000068A20008A8000020AC0000209C00002048
:10461000A0000020080100200C010020FC00002068
:1046200000010020F0000020A8AA000861F3830226
:104630001A60DA686FF38302DA60B84A136813F01D
:10464000010F08BFDFF84493B54B02BF1160022091
:10465000C3E90090B34A116B41F0040111631B6878
:104660001968012060F305111960D9686FF305110D
:10467000D960AD490B6813F0010F08BFDFF80CE3F8
:10468000AA4B02BF08604FF0030CC3E900EC116BAA
:10469000A74841F0040111631B681A684FF0010933
:1046A00069F387121A60DA686FF38712DA60FDF730
:1046B00001FC2B7B0BBB9F4A85F80C90D3686B6089
:1046C00003B19D609368D56003B99560022353617F
:1046D000994B1A686FF300021A60984A5A600022D8
:1046E0009A601A6842F004021A601A6842F00202E4
:1046F0001A601A6842F001021A6083ABE3670DF595
:104700009E63C4F8803010ABC4F8843011ABC4F899
:1047100088308B4BC4F88C30C4E91B580BF1E8038C
:104720000DF58165C4F89030864BCDF80844C4E996
:104730001D764FF0000877AEEB602946824BC4F837
:1047400094800DF27C40AB60FEF756F87F4B779477
:104750003146F3607DA87E4BB360FEF74DF87D4B8C
:104760006E936BA97C4B6B9471A865AF6D93FEF74C
:1047700043F87A4B62935FA9794B5F943846619313
:10478000FEF73AF8774B5A9357A9774B57945BA8A3
:104790005993FEF740F8754B5293754B519353ABB9
:1047A0000BF1880A18464FA94F940893FEF733F887
:1047B0000DF27C415046FEF71FF87DA90BF19800E1
:1047C000FEF71AF871A90BF1A800FEF715F83946A3
:1047D0000BF1B800FEF710F85BA90BF1C800FEF76B
:1047E0001AF808990BF1D800FEF715F80898FDF7AC
:1047F0002EF84FA8FDF72BF85BA8FDF728F857A86F
:10480000FDF725F83846FDF722F85FA8FDF71FF8F9
:1048100071A8FDF71CF86BA8FDF719F87DA8FDF746
:1048200016F83046FDF713F80DF27C40FDF70FF84F
:104830002846FDF70CF851460DF27C40FDF7FAFFD3
:104840004C4B80937DA94C4B7D9428467F93FEF77B
:104850003DFAD4F88030E26F0B93D4F8843008939B
:10486000D4F88830099302F11903444AD4F88C90A3
:104870000A93C4E93E2B0DF27C410BF1F000FDF7E9
:10488000D9FF29460BF5A870FEF720FA0B9BC4F858
:104890007031089BC4F87431099BC4F878310A9BC5
:1048A000C4F88031364BC4F888314FF4FA73C4F839
:1048B0009881C4F87C91C4F89C81C4F88481C4F8C0
:1048C0009831C4F88C81C4F8908184F894810BF5F8
:1048D000BC70FDF715F884F8A081C4F8A481C4F871
:1048E000A881D9F80000FDF73DFC2846FCF7AFFF92
:1048F0007DA8FCF7ACFF0DF27C40FDF748FC51466B
:104900000DF27C40FDF796FF1E4B65943946FB6027
:104910006BA81D4BBB60FEF7D9F939E09000002071
:10492000940000200038024084000020880000200D
:10493000B8000020D005002010E000E01F48010072
:1049400000040020313300088D030008693300089B
:10495000A3030008A1330008B9030008F9320008D6
:10496000CF030008E5620008E5030008AD62000817
:10497000FB030008110400081B0400087CAA0008BF
:1049800024920008310400084D0400080008024089
:104990000923CDF80834BA4B7F94C5E90134B94BEB
:1049A0006B61B94B2B61B94B7E93B94B8293B94B79
:1049B00081930C237793B84B7394C6E90134B74BBA
:1049C0007361B74B33610C237193B64B7293B64B43
:1049D0007693B64B759371ABCDE902637DAB0DF267
:1049E0007C4259464FF00F09CDE900530BF5D870C2
:1049F0006BABCDF8F491FEF7B5FA73AB18460A939A
:104A0000FCF725FF79AB18460993FCF720FF7FAB35
:104A100018460893FCF71BFF0DF58260FCF717FFA3
:104A20006BA8FCF714FF3846FCF711FF0DF27C4031
:104A3000FDF7ADFB51460DF27C4084F8A082A4F84E
:104A4000A282A4F8A482A4F8A682FDF7F3FE984BF4
:104A50005A9357A9974B57945BA85993FEF736F989
:104A60000823CDF80834944BCDF89491C5E901346E
:104A7000924B6B61924B2B610B237D93914B8293F5
:104A8000914B819309237793904B914A7F94C6E988
:104A90000134904B7361904B3361904B7293904B08
:104AA0007693904B7593904B6C93904B7093904B87
:104AB0006F93904B7394C7E901348F4B7B618F4B9D
:104AC0003B6107235F938E4B6D947E920E92CDF8DF
:104AD000C491CDF8AC9160938A4B64938A4B6393F5
:104AE0008A4BC4F8A832C4F8ACB20DF27C410DF583
:104AF0005B606194FDF79EFE5BA90DF56160FEF7BA
:104B0000E5F829460DF56260FEF71DFA7DA90DF660
:104B10003860FEF718FA31460DF56560FEF713FAB6
:104B200071A90DF66860FEF70EFA6BA90DF56860C5
:104B3000FEF709FA39460DF69860FEF704FA5FA908
:104B40000DF56B60FEF7FFF9C4F8C883C4F8CC8399
:104B500061A8FCF77CFE67A8FCF779FE6DA8FCF75E
:104B600076FE0A98FCF773FE0998FCF770FE089829
:104B7000FCF76DFE0DF58260FCF769FE5BA8FCF7A3
:104B800066FE57A8FCF763FE0DF27C40FDF7FFFAC6
:104B9000E36F51469B7E84F8D0330DF27C40FDF7E5
:104BA00049FE5B496BA8FDF708F95A493846FDF7FD
:104BB00004F9594B80937DA9584B7D9428467F93E7
:104BC000FEF784F8564B749371A9564B7194304696
:104BD0007393FEF77BF86B9B0D936C9B0B93ABF180
:104BE0001004659B0C934FF001024F4BC4F8D43373
:104BF00084F8D92384F8D883C4F8DCB30DF27C415F
:104C00000DF56E60D7F80490FDF714FE29460DF5FA
:104C10007460FEF75BF831460DF57560FEF756F8E7
:104C20000D9BC4F860340B9AC4F864240DF56D63D1
:104C30000C9AC4F8703494F8D033C4F8682484F81B
:104C40007434C4F86C943046FCF701FE71A8FCF78C
:104C5000FEFD2846FCF7FBFD7DA8FCF7F8FD0DF2F4
:104C60007C40FDF794FAE36F5146DB7E84F878349C
:104C70000DF27C40FDF7DEFD25496BA856E000BF34
:104C8000C4AA0008630400089D040008CEAA000816
:104C9000B3040008BD040008DEAA0008D30400081D
:104CA000DD040008EBAA0008F3040008FD04000876
:104CB000130500086F050008F8AA0008850500081C
:104CC0009D050008B3050008CB0500080DAB0008E2
:104CD00001AB0008E1050008F905000817AB000862
:104CE0000F0600082706000827AB00083D0600084D
:104CF0005D06000837AB0008730600087D06000853
:104D000047AB0008930600089D060008589200086B
:104D10004FAB0008BAAC0008B3060008BD06000897
:104D2000D3060008270700086C920008FDF745F835
:104D3000CA493846FDF741F8C94B80937DA9C94B54
:104D40007D9428467F93FDF7C1FFC74B749371A9EB
:104D5000C64B719430467393FDF7B8FF6B9B6C9A0A
:104D60000D930B92C24B659AC4F87C340C920DF2F1
:104D70007C434FF0010284F88124194684F8808432
:104D8000C4F884B40DF68870D7F80490FDF752FD8E
:104D900029460DF6E870FDF799FF31460DF6F870DB
:104DA000FDF794FF0D9BC4F808350B9BC4F80C3538
:104DB0000C9BC4F810350DF67873C4F8183594F8C8
:104DC000783484F81C35C4F814953046FCF73FFD60
:104DD00071A8FCF73CFD2846FCF739FD7DA8FCF7DF
:104DE00036FD0DF27C40FDF7D2F951460DF27C40C4
:104DF000FDF720FD9F496BA8FCF7DFFF9E49384671
:104E0000FCF7DBFF9D4B80939D4B7F937DAB194659
:104E100028467D94FDF75AFF9A4B74939A4B7393EF
:104E200071AB194630467194FDF750FF6B9B0B93A5
:104E30006C9B0C937B680D93944BC4F820350DF557
:104E400081504FF4C843A4F82435C4F828B50DF2B6
:104E50007C410C30DDF89491FDF7ECFC0DF58450AD
:104E600029460C30FDF732FF0DF5845031461C30D9
:104E7000FDF72CFF0B9AC4F8AC250DF55A630C9A7C
:104E8000C4F8B025C4F8BC350D9A94F8A03284F863
:104E9000C035C4F8B825C4F8B4953046FCF7D7FC43
:104EA00071A8FCF7D4FC2846FCF7D1FC7DA8FCF7E0
:104EB000CEFC0DF27C40FDF76AF951460DF27C40C4
:104EC000FDF7B8FC0E9A6BA81146FCF776FF704907
:104ED0003846FCF772FF6F4B80937DA96E4B7D9433
:104EE00028467F93FDF7F2FE6C4B749371A96C4BCF
:104EF000719430467393FDF7E9FECDE9065642F210
:104F000010700DF6A653ADF810800393ADF81400A1
:104F100097E803000DF1040989E803000DF27C4CC9
:104F20006C9B00930DF5865062466B9B594604308E
:104F3000FEF742F83046FCF78AFC0DF5E27C60464D
:104F4000FCF785FC2846FCF782FC0DF5FA7C6046F0
:104F5000FCF77DFC0DF27C4C6046FDF718F90DF274
:104F60007C4C51466046FDF765FC0DF5D67C6046ED
:104F70004C49FCF722FF46493846FCF71EFF4A4BD6
:104F800080937DA9494B7D9428467F93FDF79EFE33
:104F9000474B749371A9474B719430467393FDF757
:104FA00095FECDE9065642F6E063ADF814300DF6F5
:104FB000A453ADF81080039397E8030089E8030039
:104FC0000DF27C4C6C9B00930DF58B5062466B9BF5
:104FD00059460830FDF7F0FF3046FCF738FC0DF578
:104FE000E27C6046FCF733FC2846FCF730FC0DF50C
:104FF000FA7C6046FCF72BFC0DF27C4C6046FDF71A
:10500000C6F80DF27C4C51466046FDF713FC0DF5D9
:10501000D67C60462849FCF7D0FE28493846FCF784
:10502000CCFE274B80937DA9264B7D9428467F9309
:10503000FDF74CFE244B749371A9244B71943046B8
:105040007393FDF743FE4AF6C873CDE90656ADF8F3
:10505000143044F25063ADF8103039E0BAAC0008B7
:105060003D070008470700085D070008B107000872
:105070006C9200085CAB00086DAB0008C707000825
:10508000D1070008E7070008090800088092000817
:1050900070AB00081F080008290800083F08000836
:1050A0006108000874AB0008770800088108000850
:1050B00097080008B908000817AB000884AB00087F
:1050C000CF080008D9080008EF08000811090008F7
:1050D0000DF6A253039397E8030089E803000DF24D
:1050E0007C4C6C9B00930DF5905062466B9B59462F
:1050F0000C30FDF761FF3046FCF7A9FB0DF5E27CB3
:105100006046FCF7A4FB2846FCF7A1FB0DF5FA7CF2
:105110006046FCF79CFB0DF27C4C6046FDF737F8CF
:105120000DF27C4CC4F8B08751466046FDF782FB17
:105130000DF5E27CC84B6E936BA9C84B6B9460462F
:105140006D93FDF7C3FDC64BC64AC4F8B4274FF0B4
:10515000070CCDF808C4C5E90134C34B6B61C34BE0
:105160002B61C34B7E93C34B8293C34B81930E231E
:105170007793C24BC4F8B8B7C6E90134C04B73612A
:105180000DF59550BF4B33614FF00C0C0DF27C4187
:105190001C30CDF8F4C17F94FDF74CFB0DF5985011
:1051A00071A91C30FDF792FD0DF5995029460C3080
:1051B000FDF7C9FE0DF59A507DA90430FDF7C3FE39
:1051C0000DF59A5031461C30FDF7BDFEC4F87488C9
:1051D000C4F878880998FCF73AFB0898FCF737FB85
:1051E0000DF5826C6046FCF732FB0DF5E27C604603
:1051F000FCF72DFB0DF5D67C6046FCF728FB0DF285
:105200007C4C6046FCF7C3FF0DF27C4C6046514677
:10521000FDF710FB9C4B80937DA99C4B7F93284608
:105220007D94FDF753FD9A493046FCF7C6FD0DF518
:10523000E27C60469749FCF7C0FD77990B91716855
:10524000D4F880300C917199934A0D910DF59C50D2
:105250007299C4F87C2803F2AC530E91C4F880B85C
:105260000DF27C4104300F93FDF7E4FA0DF59F50E9
:1052700029460430FDF72AFD0B99C4F8F4180C995F
:10528000C4F8F8180D990F9BC4F8FC180E99C4F8CF
:105290000439C4F800192846FCF7D9FA0DF5FA7C50
:1052A0006046FCF7D4FA0DF27C4C6046FCF76FFFC9
:1052B0000DF27C4C51466046FDF7BCFA0DF5D67CEC
:1052C00060467649FCF779FD72493846FCF775FD72
:1052D000734B80937DA9734B7D9428467F93FDF794
:1052E000F5FC714B749371A9704B719430467393B4
:1052F000FDF7ECFCCDE906560DF595534FF0640033
:105300001033ADF810800393ADF8140097E8030054
:1053100089E803000DF27C4C6C9B00930DF5A050C6
:1053200062466B9B59460830FDF746FE3046FCF757
:105330008EFA0DF5E27C6046FCF789FA2846FCF708
:1053400086FA0DF5FA7C6046FCF781FA0DF27C4C8A
:105350006046FCF71CFF0DF27C4C51466046FDF7A1
:1053600069FA0DF5D67C60465149FCF726FD49499E
:105370003846FCF722FD4F4B80937DA94E4B7D9420
:1053800028467F93FDF7A2FC4C4B749371A94C4BBC
:10539000719430467393FDF799FCCDE906560DF5EF
:1053A00095534FF064001233ADF810800393ADF8BD
:1053B000140097E8030089E803000DF27C4C6C9B15
:1053C00000930DF5A55062466B9B59460C30FDF7D6
:1053D000F3FD3046FCF73BFA0DF5E27C6046FCF746
:1053E00036FA2846FCF733FA0DF5FA7C6046FCF7EE
:1053F0002EFA0DF27C4C6046FCF7C9FEE36F0DF20D
:105400007C4C5B7E84F8503A51466046FDF712FAB8
:105410000DF5D67C60462B49FCF7CFFC1D4938467C
:10542000FCF7CBFC284B80937DA9284B7D94284624
:105430007F93FDF74BFC264B749371A9254B719418
:1054400030467393FDF742FC6B99234BC4F8543AF2
:105450000B9141F6026341E0270900085B0900084F
:1054600088AB0008A8920008710900087B090008B1
:1054700090AB000891090008A90900089DAB00083D
:10548000BF090008D7090008ED090008F70900085E
:10549000ACAB0008BCAB000830920008BFAB000802
:1054A0000D0A0008170A00082D0A00084F0A000814
:1054B000CFAB0008650A00086F0A0008850A0008DB
:1054C000A70A000847AB0008BD0A0008C70A000881
:1054D000DD0A0008EF0A0008809200086C997A68DB
:1054E000A4F8583A0C91C4F85CBA0DF27C410DF561
:1054F000AB500D92DDF89491FDF79CF929460DF51E
:10550000AE50FDF7E3FB0DF5AE5031461030FDF720
:10551000DDFB0DF5AA530B990D9AC4F8E01A103370
:105520000C99C4F8F03A94F8503AC4F8EC2AC4F84C
:10553000E41A84F8F43AC4F8E89A3046FCF787F99C
:105540000DF5E27C6046FCF782F92846FCF77FF90E
:105550000DF5FA7C6046FCF77AF90DF27C4C60465A
:10556000FCF715FEE36F0DF27C4C9B7F84F8F83A54
:1055700051466046FDF75EF90DF5D67C6046CA4996
:10558000FCF71BFCC9493846FCF717FCC84B809355
:105590007DA9C84B7D9428467F93FDF797FBC64BAA
:1055A000749371A9C54B719430467393FDF78EFBCC
:1055B0006B990B916C99C24B0C910DF5B0504FF05B
:1055C00001017A68C4F8FC3A84F8008B84F8011B66
:1055D000C4F804BB0DF27C4108300D92DDF89491C3
:1055E000FDF728F90DF5B35029460830FDF76EFB9D
:1055F0000DF5B35031461830FDF768FB0DF5AF538C
:105600000B990D9AC4F8881B18330C99C4F8983B71
:1056100094F8F83AC4F8942B84F89C3BC4F88C1B9B
:10562000C4F8909B3046FCF712F90DF5E27E704607
:10563000FCF70DF92846FCF70AF90DF5FA7E7046DD
:10564000FCF705F90DF27C4E7046FCF7A0FD0DF25B
:105650007C4E70465146FDF7EDF89A4B749371A954
:10566000994B719430467393FDF730FB974BC4F818
:10567000A4BB0821CDF80814C5E90134944B6B6133
:10568000944B2B61944B7E93944B8293944B8193D8
:105690000721944BC4F8A03B0DF5B5507D9108301F
:1056A0000DF27C417F94FDF7C5F80DF5B8503146F9
:1056B0000830FDF70BFB0DF5B85029461830FDF703
:1056C00042FC0DF5B9507DA91030FDF73CFCC4F843
:1056D000488CC4F84C8C0898FCF7B9F80DF5826E2C
:1056E0007046FCF7B4F83046FCF7B1F80DF5E27EF1
:1056F0007046FCF7ACF80DF27C4E7046FCF747FDA7
:105700000DF27C4E51467046FDF794F80DF5D67EAD
:10571000754B65943946FB607046744BBB60FDF772
:10572000D5FA0821724BCDF808146B61714B2B61CF
:10573000714B7E93714B8293714B81934FF0080EA6
:10574000704BCDF8F4E14FF00B0ECDF8DCE1C6E97B
:1057500001346D4B73616D4B33610A236C49719356
:105760006C4B729371A86C4B7693C5E901146B4B2B
:105770007593CDE902600DF5D67E7DA87346CDE91F
:1057800000500DF27C4E0DF5BA507246594610305D
:105790007F947394FDF7E6FB0A98FCF758F8099894
:1057A000FCF755F80898FCF752F80DF5826E704634
:1057B000FCF74DF80DF5D67E7046FCF748F83846F4
:1057C000FCF745F80DF27C4E7046FCF7E0FCE36F09
:1057D0000DF27C4E1B7F84F8303D51467046FDF73C
:1057E00029F80DF5D67E70464949FCF7E6FA2F49AF
:1057F0003846FCF7E2FA0DF5FA7E494B8093714684
:10580000484B7D9428467F93FDF760FA0DF5E27EC4
:10581000454B74937146454B719430467393FDF735
:1058200055FA6B9808904FF0010C0DF27C4E4048F1
:1058300084F839CD71466C9A7B68C4F8340D84F8CD
:10584000388DC4F83CBD0DF5C2500A920993DDF8BD
:105850009491FCF7EFFF29460DF5C550FDF736FA98
:105860000DF5C55031461030FDF730FA099BC4F8EC
:10587000CC3D0DF5C153089AC4F8C02D10330A9AD7
:10588000C4F8D03D94F8303DC4F8C42D84F8D43D1C
:10589000C4F8C89D3046FBF7DAFF0DF5E27E70468E
:1058A000FBF7D5FF46E000BFDEAB0008BAAC00084E
:1058B000050B00080F0B0008250B0008550B00080E
:1058C000BC9200086B0B0008950B0008F0AB0008B9
:1058D000AB0B0008B50B0008F9AB0008CB0B0008B8
:1058E000D50B0008D0920008EB0B0008150C00083F
:1058F0002B0C0008350C00080AAC00084B0C000803
:10590000550C000813AC00086B0C0008750C00085F
:1059100001AC00081FAC00088B0C0008950C0008B7
:10592000AB0C0008B50C0008CB0C0008F50C000807
:10593000E49200082846FBF78AFF0DF5FA7E7046D0
:10594000FBF785FF0DF27C4E7046FCF720FCE36F01
:105950000DF27C4E1B8AA4F8D83D51467046FCF7E8
:1059600069FF0DF5D67E7046D049FCF726FAD0497E
:105970003846FCF722FA0DF5FA7ECE4B809371463D
:10598000CD4B7D9428467F93FDF7A0F90DF5E27E7F
:10599000CA4B74937146CA4B719430467393FDF7AA
:1059A00095F94FF47A63CDE90656ADF814300DF54C
:1059B000C6531833ADF81080039397E803000DF138
:1059C000040989E803000DF27C4E6C9B00930DF5F1
:1059D000C65072466B9B59461C30FDF7EDFA3046B7
:1059E000FBF735FF0DF5E27E7046FBF730FF2846EA
:1059F000FBF72DFF0DF5FA7E7046FBF728FF0DF241
:105A00007C4E7046FCF7C3FBE36F0DF27C4E1B7EB1
:105A100084F8803E51467046FCF70CFF0DF5D67EAB
:105A20007046A849FCF7C9F9A7493846FCF7C5F9FB
:105A30000DF5FA7EA54B80937146A54B7D942846C3
:105A40007F93FDF743F90DF5E27EA24B7493714607
:105A5000A14B719430467393FDF738F96B9A089215
:105A60009E4B6C9AC4F8843E0DF27C4E46F2024383
:105A700009920DF5CC50659AA4F8883E71460A92B9
:105A8000C4F88CBE7A680B921030FCF7D3FE0DF58B
:105A9000CF5029461030FDF719F931460DF5D05099
:105AA000FDF714F9089BC4F8103F099BC4F8143F94
:105AB0000A9BC4F8183F0DF5CC530B9AC4F8203F4D
:105AC00094F8803EC4F81C2F84F8243F3046FBF73E
:105AD000BEFE0DF5E27E7046FBF7B9FE2846FBF7E9
