:020000040800F2
:10000000000002209D750008ED750008ED750008E0
:10001000ED750008ED750008ED75000800000000A2
:10002000000000000000000000000000ED75000866
:10003000ED75000800000000ED750008E1160008ED
:10004000C9180008CB180008CD180008CF18000800
:10005000D1180008D3180008D5180008D7180008D0
:10006000D9180008DB180008DD1800088D190008F1
:10007000A9190008C5190008E1190008FD190008B0
:10008000191A0008351A0008DF180008E1180008DE
:10009000E3180008E5180008E7180008E918000848
:1000A0001D1900081F19000821190008231900084C
:1000B000251900082719000829190008EB1800085D
:1000C000ED180008EF180008F11800084D1B000893
:1000D000591B000839190008551900087119000842
:1000E000F3180008F5180008F7180008311900087F
:1000F000331900083519000837190008511A00088B
:10010000F9180008FB1800082B190008651B0008E7
:10011000FD180008FF1800082D1900082F19000805
:100120006D1A0008891A0008A51A0008C11A0008EB
:10013000DD1A00080000000000000000011900089E
:100140000319000805190008071900080919000813
:10015000F91A0008151B0008311B00080B190008CC
:100160000D1900080F1900081119000813190008CB
:100170001519000817190008000000000000000011
:08018000191900081B19000801
:1001900010B5054C237833B9044B13B10448AFF3C1
:1001A00000800123237010BD6800002000000000C3
:1001B000587F000808B5034B1BB103490348AFF350
:1001C000008008BD000000006C000020587F00087F
:1001D000034613F8012B002AFBD1181A0138704787
:1001E00001F0FF01102A2BDB10F0070F08D010F8E8
:1001F000013B013A8B422DD010F0070F42B3F6D1EC
:10020000F0B441EA012141EA014122F007047FF004
:1002100000070023F0E80256083C85EA010586EA5B
:10022000010685FA47F5A3FA87F586FA47F6A5FA97
:1002300087F68EB9EED1F0BC01F0FF0102F00702A3
:1002400032B110F8013B013A83EA010313B1F8D14E
:100250000020704701387047002D06BF354603382F
:10026000073815F0010F07D1013015F4807F02BF68
:10027000013015F4C03F0130F0BC0138704700BFB9
:100280004209012300F01F0003FA00F0014B43F87C
:100290002200704700E100E0436901334361704789
:1002A00070477047012A03D0022A03D0002070470C
:1002B0000160FBE70B680360F8E77047012A03D091
:1002C000022A03D0002070470160FBE70B6803603F
:1002D000F8E7012A03D0022A03D00020704701600A
:1002E000FBE70B680360F8E7D0E9003010B502685F
:1002F00003EB8203541C0460196110BD012A03D072
:10030000022A03D0002070470160FBE70B680360FE
:10031000F8E7012A03D0022A03D0002070470160C9
:10032000FBE70B680360F8E7012A03D0022A03D039
:10033000002070470160FBE70B680360F8E7012AC3
:1003400003D0022A03D0002070470160FBE70B684E
:100350000360F8E7012A03D0022A03D00020704787
:100360000160FBE70B680360F8E7012A03D0022A6B
:1003700003D0002070470160FBE70B680360F8E7DB
:10038000012A03D0022A03D0002070470160FBE756
:100390000B680360F8E7012A03D0022A03D000208B
:1003A00070470160FBE70B680360F8E7012A03D0A0
:1003B000022A03D0002070470160FBE70B6803604E
:1003C000F8E7012A03D0022A03D000207047016019
:1003D000FBE70B680360F8E7012A03D0022A03D089
:1003E000002070470160FBE70B680360F8E7012A13
:1003F00003D0022A03D0002070470160FBE70B689E
:100400000360F8E7012A03D0022A03D000207047D6
:100410000160FBE70B680360F8E7012A03D0022ABA
:1004200003D0002070470160FBE70B680360F8E72A
:10043000012A03D0022A03D0002070470160FBE7A5
:100440000B680360F8E7012A03D0022A03D00020DA
:1004500070470160FBE70B680360F8E7012A03D0EF
:10046000022A03D0002070470160FBE70B6803609D
:10047000F8E7012A03D0022A03D000207047016068
:10048000FBE70B680360F8E7012A03D0022A03D0D8
:10049000002070470160FBE70B680360F8E7012A62
:1004A00003D0022A03D0002070470160FBE70B68ED
:1004B0000360F8E7012A03D0022A03D00020704726
:1004C0000160FBE70B680360F8E7012A03D0022A0A
:1004D00003D0002070470160FBE70B680360F8E77A
:1004E000012A03D0022A03D0002070470160FBE7F5
:1004F0000B680360F8E7012A03D0022A03D000202A
:1005000070470160FBE70B680360F8E7012A03D03E
:10051000022A03D0002070470160FBE70B680360EC
:10052000F8E7012A03D0022A03D0002070470160B7
:10053000FBE70B680360F8E7012A03D0022A03D027
:10054000002070470160FBE70B680360F8E7012AB1
:1005500003D0022A03D0002070470160FBE70B683C
:100560000360F8E7012A03D0022A03D00020704775
:100570000160FBE70B680360F8E7012A03D0022A59
:1005800003D0002070470160FBE70B680360F8E7C9
:10059000012A03D0022A03D0002070470160FBE744
:1005A0000B680360F8E7012A03D0022A03D0002079
:1005B00070470160FBE70B680360F8E7012A03D08E
:1005C000022A03D0002070470160FBE70B6803603C
:1005D000F8E7012A03D0022A03D000207047016007
:1005E000FBE70B680360F8E7012A03D0022A03D077
:1005F000002070470160FBE70B680360F8E7012A01
:1006000003D0022A03D0002070470160FBE70B688B
:100610000360F8E7012A03D0022A03D000207047C4
:100620000160FBE70B680360F8E7012A03D0022AA8
:1006300003D0002070470160FBE70B680360F8E718
:10064000012A03D0022A03D0002070470160FBE793
:100650000B680360F8E7012A03D0022A03D00020C8
:1006600070470160FBE70B680360F8E7012A03D0DD
:10067000022A03D0002070470160FBE70B6803608B
:10068000F8E7012A03D0022A03D000207047016056
:10069000FBE70B680360F8E7012A03D0022A03D0C6
:1006A000002070470160FBE70B680360F8E7012A50
:1006B00003D0022A03D0002070470160FBE70B68DB
:1006C0000360F8E7012A03D0022A03D00020704714
:1006D0000160FBE70B680360F8E77047012A08BF79
:1006E000016000207047012A03D0022A03D00020B5
:1006F00070470160FBE70B680360F8E7012A03D04D
:10070000022A03D0002070470160FBE70B680360FA
:10071000F8E7012A03D0022A03D0002070470160C5
:10072000FBE70B680360F8E7012A08BF01600020BF
:100730007047012A03D0022A03D0002070470160CD
:10074000FBE70B680360F8E7012A03D0022A03D015
:10075000002070470160FBE70B680360F8E7012A9F
:1007600003D0022A03D0002070470160FBE70B682A
:100770000360F8E7012A03D0022A03D00020704763
:100780000160FBE70B680360F8E7012A03D0022A47
:1007900003D0002070470160FBE70B680360F8E7B7
:1007A000012A03D0022A03D0002070470160FBE732
:1007B0000B680360F8E7012A03D0022A03D0002067
:1007C00070470160FBE70B680360F8E7012A03D07C
:1007D000022A03D0002070470160FBE70B6803602A
:1007E000F8E7012A03D0022A03D0002070470160F5
:1007F000FBE70B680360F8E7012A03D0022A03D065
:10080000002070470160FBE70B680360F8E7012AEE
:1008100003D0022A03D0002070470160FBE70B6879
:100820000360F8E7012A03D0022A03D000207047B2
:100830000160FBE70B680360F8E7012A03D0022A96
:1008400003D0002070470160FBE70B680360F8E706
:10085000012A03D0022A03D0002070470160FBE781
:100860000B680360F8E7012A03D0022A03D00020B6
:1008700070470160FBE70B680360F8E70268D2F895
:1008800090301B785B09A2F89A3F7047012A03D089
:10089000022A03D0002070470160FBE70B68036069
:1008A000F8E7012A03D0022A03D000207047016034
:1008B000FBE70B680360F8E7012A03D0022A03D0A4
:1008C000002070470160FBE70B680360F8E7012A2E
:1008D00003D0022A03D0002070470160FBE70B68B9
:1008E0000360F8E7012A03D0022A03D000207047F2
:1008F0000160FBE70B680360F8E7C36F0133C36770
:1009000070470022027042707047002202704270ED
:1009100070470022027042707047002202704270DD
:1009200070470022027042707047002202704270CD
:1009300070470022027042707047002202704270BD
:1009400070470022027042707047704770477047CE
:1009500070477047704770477047704703689A6FD9
:10096000137F83F0010313777047012A03D0022A13
:1009700003D0002070470160FBE70B680360F8E7D5
:1009800003689A6FB2F89C300A33A2F89C30704723
:10099000012A03D0022A03D0002070470160FBE740
:1009A0000B680360F8E703689A6FB2F89C300A3B63
:1009B000A2F89C307047012A03D0022A03D00020FD
:1009C00070470160FBE70B680360F8E7012A03D07A
:1009D000022A03D0002070470160FBE70B68036028
:1009E000F8E7012A03D0022A03D0002070470160F3
:1009F000FBE70B680360F8E7012A03D0022A03D063
:100A0000002070470160FBE70B680360F8E7012AEC
:100A100003D0022A03D0002070470160FBE70B6877
:100A20000360F8E7012A03D0022A03D000207047B0
:100A30000160FBE70B680360F8E7012A03D0022A94
:100A400003D0002070470160FBE70B680360F8E704
:100A5000012A03D0022A03D0002070470160FBE77F
:100A60000B680360F8E7012A03D0022A03D00020B4
:100A700070470160FBE70B680360F8E7012A03D0C9
:100A8000022A03D0002070470160FBE70B68036077
:100A9000F8E7012A03D0022A03D000207047016042
:100AA000FBE70B680360F8E7012A03D0022A03D0B2
:100AB000002070470160FBE70B680360F8E7012A3C
:100AC00003D0022A03D0002070470160FBE70B68C7
:100AD0000360F8E7012A03D0022A03D00020704700
:100AE0000160FBE70B680360F8E7012A03D0022AE4
:100AF00003D0002070470160FBE70B680360F8E754
:100B0000012A03D0022A03D0002070470160FBE7CE
:100B10000B680360F8E7012A03D0022A03D0002003
:100B200070470160FBE70B680360F8E7012A03D018
:100B3000022A03D0002070470160FBE70B680360C6
:100B4000F8E7012A03D0022A03D000207047016091
:100B5000FBE70B680360F8E7012A03D0022A03D001
:100B6000002070470160FBE70B680360F8E7012A8B
:100B700003D0022A03D0002070470160FBE70B6816
:100B80000360F8E7012A03D0022A03D0002070474F
:100B90000160FBE70B680360F8E7012A03D0022A33
:100BA00003D0002070470160FBE70B680360F8E7A3
:100BB000012A03D0022A03D0002070470160FBE71E
:100BC0000B680360F8E7012A03D0022A03D0002053
:100BD00070470160FBE70B680360F8E7012A03D068
:100BE000022A03D0002070470160FBE70B68036016
:100BF000F8E7012A03D0022A03D0002070470160E1
:100C0000FBE70B680360F8E7012A03D0022A03D050
:100C1000002070470160FBE70B680360F8E7012ADA
:100C200003D0022A03D0002070470160FBE70B6865
:100C30000360F8E7012A03D0022A03D0002070479E
:100C40000160FBE70B680360F8E7012A03D0022A82
:100C500003D0002070470160FBE70B680360F8E7F2
:100C6000012A03D0022A03D0002070470160FBE76D
:100C70000B680360F8E7012A03D0022A03D00020A2
:100C800070470160FBE70B680360F8E7012A03D0B7
:100C9000022A03D0002070470160FBE70B68036065
:100CA000F8E7012A03D0022A03D000207047016030
:100CB000FBE70B680360F8E7012A03D0022A03D0A0
:100CC000002070470160FBE70B680360F8E7012A2A
:100CD00003D0022A03D0002070470160FBE70B68B5
:100CE0000360F8E7012A03D0022A03D000207047EE
:100CF0000160FBE70B680360F8E7012A03D0022AD2
:100D000003D0002070470160FBE70B680360F8E741
:100D1000012A03D0022A03D0002070470160FBE7BC
:100D20000B680360F8E7012A03D0022A03D00020F1
:100D300070470160FBE70B680360F8E7012A03D006
:100D4000022A03D0002070470160FBE70B680360B4
:100D5000F8E7012A03D0022A03D00020704701607F
:100D6000FBE70B680360F8E7012A03D0022A03D0EF
:100D7000002070470160FBE70B680360F8E7012A79
:100D800003D0022A03D0002070470160FBE70B6804
:100D90000360F8E7012A03D0022A03D0002070473D
:100DA0000160FBE70B680360F8E7012A03D0022A21
:100DB00003D0002070470160FBE70B680360F8E791
:100DC000012A03D0022A03D0002070470160FBE70C
:100DD0000B680360F8E78368D96ED1F818211268B0
:100DE000D2061AD5D1F820215268002092B2C1F85B
:100DF0000001C2F1FF00FF2828BFFF20FF2AC1F831
:100E000004010AD0DA6FD96EC3F88020D1F804212A
:100E1000D1F80011521AC3F8902070470378C3F339
:100E2000001020B9C3F3401008B9C3F38010704715
:100E300070B50546006803680C469B6898472368B0
:100E40002C6020461B68BDE870401847006800F51C
:100E5000C2719830FFF7ECBF10B50446006800F58A
:100E600080719830FFF7E4FF2368D3F884300122C3
:100E700083F8502110BD10B50446006800F52771B5
:100E80009830FFF7D5FF2268D2F88410002381F84C
:100E9000B031D2F8841081F8F031D2F8842082F891
:100EA000503210BD0168D1F888301B789B0701F1E2
:100EB00098004CBF01F59B6101F58561FFF7B8BF54
:100EC000006800F560719830FFF7B2BF006800F667
:100ED00068319830FFF7ACBF006800F6B821983051
:100EE000FFF7A6BF10B50446006800F69C71983065
:100EF000FFF79EFF2268D2F88410002381F890311A
:100F0000D2F8842082F8703110BD0068D0F88420B7
:100F1000012382F8D030D0F8842082F8B031D0F8A4
:100F2000842082F8B030D0F8842082F8F031D0F8F4
:100F3000842082F8F030D0F8842000F5C27182F865
:100F400050329830FFF774BF0068D0F88420002337
:100F500082F89032D0F8842000F61C0182F8B0327A
:100F60009830FFF765BF006800F5C2719830FFF751
:100F70005FBF10B50446006800F5C2719830FFF7F6
:100F800057FF2368D3F88430012283F8502110BD25
:100F90000268D2F888301B78C3F3C00382F8243487
:100FA000006800F5B1619830FFF742BF10B5044604
:100FB000006800F5C2719830FFF73AFF2368D3F854
:100FC0008430012283F8502110BD0268D2F88830A5
:100FD0001B78C3F3C00382F82434006800F5B161C4
:100FE0009830FFF725BF0168D1F888301B789B0740
:100FF00001F198004CBF01F59B6101F58561FFF798
:1010000017BF0168D1F88C3091F824041A7860F386
:10101000C3021A70D1F88430002283F85021D1F82D
:1010200088301B789B0701F198004CBF01F59B614C
:1010300001F58561FFF7FCBE006800F52771983067
:10104000FFF7F6BE006800F527719830FFF7F0BE95
:10105000006800F527719830FFF7EABE0068D0F805
:101060008420012382F81031D0F8842082F83031B6
:10107000D0F8842082F89032D0F8842000F5C27134
:1010800082F8B0329830FFF7D3BE006800F6E40172
:101090009830FFF7CDBE006800F61C019830FFF7CE
:1010A000C7BE006800F61C019830FFF7C1BE00689B
:1010B00000F61C019830FFF7BBBE006800F5C27156
:1010C0009830FFF7B5BE006800F5C2719830FFF7A1
:1010D000AFBE006800F618419830FFF7A9BE00685F
:1010E00000F668319830FFF7A3BE006800F6FC41B7
:1010F0009830FFF79DBE006800F6A4519830FFF7C6
:1011000097BE006800F64C619830FFF791BE00680A
:1011100000F6F4619830FFF78BBE006800F61841C6
:101120009830FFF785BE006890F8F83CD0F8802032
:10113000003318BF012300F6184193759830FFF76C
:1011400077BE006800F618419830FFF771BE00685E
:10115000D0F88030B0F8A02D1A8200F618419830EF
:10116000FFF766BE006800F618419830FFF760BED2
:101170000068D0F8803090F8482E1A7500F61841B3
:101180009830FFF755BE006800F618419830FFF719
:101190004FBE0068D0F88030B0F8F02E5A8200F6CA
:1011A00018419830FFF744BE0068D0F8842001232E
:1011B00082F89031D0F8842082F87030D0F8842002
:1011C00082F87031D0F8842000F5C27182F8503076
:1011D0009830FFF72DBE006800F69C719830FFF73D
:1011E00027BE0068D0F88430012283F83C20D0F874
:1011F0008430002200F5807183F830209830FFF7AA
:1012000017BE0068D0F88420002382F83C30D0F864
:10121000842000F5807182F830309830FFF708BEE6
:101220000368D3F88420B2F8BC2183F894220068C4
:1012300000F22C619830FFF7FBBD0368D3F88420DF
:10124000B2F85C22A3F89822006800F5DA619830C1
:10125000FFF7EEBD0368D3F88420B2F8FC21A3F8B1
:101260009622006800F274719830FFF7E1BD0068C3
:10127000D0F88C2090F87C331178003318BF01230C
:1012800063F382011170D0F88430002283F850217A
:10129000D0F88C30D0F884201B78C3F3800383F01F
:1012A000010382F89030D0F88430B3F81C22A3F800
:1012B0009C2000F5C2719830FFF7BABD0068D0F8E5
:1012C000843090F89422A3F8DC20D0F884300022F7
:1012D00000F5277183F8D0209830FFF7A9BD00688A
:1012E000D0F88430B0F89822A3F8FC20D0F88430ED
:1012F000002200F5277183F8F0209830FFF798BDA1
:101300000068D0F88430B0F89622A3F8BC20D0F85A
:101310008430002200F5277183F8B0209830FFF761
:1013200087BD0368D3F88420B2F89C22A3F818285C
:10133000006800F517619830FFF77ABD0368D3F8AD
:101340008420B2F8BC22A3F81A28006800F6142101
:101350009830FFF76DBD0068D0F88430B0F81828D9
:10136000A3F81C21D0F88430002200F61C0183F879
:1013700010219830FFF75CBD0068D0F88430B0F8D9
:101380001A28A3F83C21D0F88430002200F61C0172
:1013900083F830219830FFF74BBD0368D3F88420E1
:1013A000B2F89C21A3F8982F006800F583511C31F6
:1013B0009830FFF73DBD0068D0F88430B0F8982F22
:1013C000A3F87C20D0F88430002200F69C7183F8CA
:1013D00070209830FFF72CBD0B1A9B10002B10DDEE
:1013E000027812B342780AB90130704782780AB99C
:1013F00002307047C2780AB9033070470430013BAD
:10140000ECE70B1A022B0BD0032B06D0012B0BD1D0
:101410000378002B18BF0846704703782BB10130C2
:10142000037813B10130F3E7084670470B1A9B109D
:10143000002B10DD027812BB42780AB101307047F0
:1014400082780AB102307047C2780AB1033070471F
:101450000430013BECE70B1A022B0BD0032B06D018
:10146000012B0BD10378002B08BF08467047037887
:101470002BB90130037813B90130F3E70846704700
:1014800010B504462CB1236820461B689847646851
:10149000F8E710BD30235943037A43B10F4B9B68E3
:1014A0000360994224BFCB1A436000230372036890
:1014B0000A4A994207D892689B1A99420CD801238C
:1014C00003720020704791688B4205D85368926878
:1014D0009B1A42689342F2D20120704710E000E06C
:1014E000D0F89C203221531CC0F89C30B2FBF1F3A1
:1014F00001FB132323B9D0F8980003685B681847F1
:10150000704770470A1A02D0202106F0CAB8704707
:1015100070477047704700000369002BBFBF034B43
:10152000436003F188334360704700BF2301674580
:10153000D0E9002101238B4093617047D0E900126C
:101540000123103293408B617047036810B5044645
:101550009869FFF7F3FFC8216068FFF79BFF002839
:10156000F9D123689869FFF7E3FFC8216068FFF7A6
:1015700091FF0028F9D110BD38B5036804461869F9
:101580000D46FFF7DBFF23686068DA699B6A53F852
:1015900035309361FFF7D9FF23686068996ADA698B
:1015A00001EBC5014B689361FFF7CFFF6421A06891
:1015B000FFF770FF0028F9D138BD0000437B012BF5
:1015C00010B5044622D002D3022B2AD010BD4069A8
:1015D000FFF7B4FF2069FFF7ABFF626B206A531C73
:1015E00050216363B2FBF1F301FB1323114A52F85C
:1015F0002330C25C636A03EBC20053F83210E26925
:1016000043689161E36201236373DFE78069FFF759
:101610008FFFA069FFF792FFE369E26A9A610223F4
:10162000F2E78069FFF784FFA069FFF787FF0023D7
:10163000EAE700BF0C820008036841681A690123C9
:101640008B40134214BF01200020704770B50D4637
:101650000646FFF7F1FF5DB1D6E900420123266996
:1016600003FA02F10E421DBF10329340A361A16143
:101670006840C0B270BD10B504682CB12368204624
:101680001B689847A468F8E710BD10B58368044646
:1016900013B1032201469847204610BD10B5064BF2
:1016A000044640F8203BFFF7F0FF04F11000FFF77D
:1016B000ECFF204610BD00BFB07F000810B5044607
:1016C0000830FFF7D8FFD4E90421531C2361B2FB93
:1016D000F1F301FB132313B92046FFF7CCFF10BD34
:1016E0000148FFF7EBBF00BF6C04002042690369AB
:1016F0009A424FF0000326BF43610120184670470D
:10170000037BC3B100230373D0E901236AB143B162
:10171000936083685A600023C0E9013370470B600F
:10172000F8E7054993604A60F5E70349002BF6D1D5
:10173000C1E90033EFE770476C04002000224261EA
:10174000FFF7DEBF037B53B901230373044B5A68D1
:10175000426002B190601A68586002B91860704720
:101760006C0400200A2A10B501D00F2A15D1204B95
:101770009A68C2F34232D2B1042A1AD0052A1AD08A
:101780001C4B1D4C062A08BF234607291AD8DFE840
:1017900001F0141A1D202326292C0B3A032A04D801
:1017A000134B9A68C2F38222E5E70023EDE7134B5F
:1017B000EBE7134BE9E7134BE7E74FF41652B3FBA4
:1017C000F2F3836010BD4FF46152F8E74FF4964294
:1017D000F5E74FF4E142F2E74FF41642EFE74FF43A
:1017E0006142ECE74FF49632E9E74FF4E132E6E785
:1017F00000380240C0C62D00808D5B00006CDC020A
:1018000000366E01001BB70019B90068C0F3401024
:101810007047012903D10068C0F3C0207047022936
:1018200003D10068C0F340507047032903D100681A
:10183000C0F3C0607047042901D14068E6E705297C
:1018400001D14068E8E7062901D14068EAE70729A5
:1018500001D14068ECE70020704770B58668F36EF0
:1018600093F82811D3F81401FFF7CEFF58B3F46EA4
:101870000025C4F80051C4F80451D4F81001FFF752
:101880005DFED4F81C311A6865F300021A60D4F8C2
:1018900020311A6865F300021A60FF225A60D4F8FA
:1018A00020311A6842F001021A601A68D207FCD58A
:1018B000D4F81821D36843F01003D3603046BDE854
:1018C0007040FFF73FBF70BDFEE7FEE7FEE7FEE7B3
:1018D000FEE7FEE7FEE7FEE7FEE7FEE7FEE7FEE7E0
:1018E000FEE7FEE7FEE7FEE7FEE7FEE7FEE7FEE7D0
:1018F000FEE7FEE7FEE7FEE7FEE7FEE7FEE7FEE7C0
:10190000FEE7FEE7FEE7FEE7FEE7FEE7FEE7FEE7AF
:10191000FEE7FEE7FEE7FEE7FEE7FEE7FEE7FEE79F
:10192000FEE7FEE7FEE7FEE7FEE7FEE7FEE7FEE78F
:10193000FEE7FEE7FEE7FEE708B5044B1868FFF791
:101940009FFD034B1A685B6808BD00BF540400206C
:101950000010014008B5044B1868FFF791FD034BD8
:101960001A685B6808BD00BF5C04002000440040AA
:1019700008B5044B1868FFF783FD034B1A685B68D2
:1019800008BD00BF640400200048004008B5044BB7
:101990001868FFF775FD034B3D229A6008BD00BF34
:1019A000BC0300200060024008B5044B1868FFF734
:1019B00067FD034B4FF474629A6008BDC4030020B6
:1019C0000060024008B5044B1868FFF759FD034B4F
:1019D0004FF474129A6008BDCC03002000600240EE
:1019E00008B5044B1868FFF74BFD034B4FF07462CA
:1019F0009A6008BDD40300200060024008B5044B83
:101A00001868FFF73DFD034B4FF47462DA6008BDC0
:101A1000DC0300200060024008B5044B1868FFF7A3
:101A20002FFD034B4FF47462DA6008BDE40300201D
:101A30000060024008B5044B1868FFF721FD034B16
:101A40004FF47412DA6008BDEC030020006002401D
:101A500008B5044B1868FFF713FD034B4FF0746291
:101A6000DA6008BDF40300200060024008B5044BB2
:101A70001868FFF705FD034B3D229A6008BD00BFC3
:101A8000FC0300200064024008B5044B1868FFF70F
:101A9000F7FC034B4FF474629A6008BD0404002005
:101AA0000064024008B5044B1868FFF7E9FC034BDB
:101AB0004FF474129A6008BD0C04002000640240C8
:101AC00008B5044B1868FFF7DBFC034B4FF074625A
:101AD0009A6008BD140400200064024008B5044B5D
:101AE0001868FFF7CDFC034B3D22DA6008BD00BF4C
:101AF0001C0400200064024008B5044B1868FFF77E
:101B0000BFFC034B4FF47462DA6008BD240400206C
:101B10000064024008B5044B1868FFF7B1FC034BA2
:101B20004FF47412DA6008BD2C04002000640240F7
:101B300008B5044B1868FFF7A3FC034B4FF0746221
:101B4000DA6008BD3404002000640240014B1868CC
:101B5000FFF796BC3C040020014B1868FFF790BCCF
:101B600044040020014B1868FFF78ABC4C04002095
:101B7000026810B5541C024404605172046850217C
:101B8000B4FBF1F201FB1242026010BD10B5046813
:101B90001421B4FBF1F201FB1242034612B92021D9
:101BA000FFF7E6FF14241968B1FBF4F204FB1212EC
:101BB00022B120211846FFF7DBFFF4E7184610BDDD
:101BC00008B503461A6822B120211846FFF7D0FF56
:101BD000F8E7184608BD38B505460C46084609B171
:101BE000FEF7F6FAC5E90004284638BD10B51424FE
:101BF0000368B3FBF4F304FB03115024B1FBF4F3CB
:101C000004FB1311016010BD38B50468D4F8AC3082
:101C1000F3B1013BC4F8AC30D4F8A83060681425A7
:101C20006B4303600F21FFF7E1FF2021FFF7A0FFC7
:101C3000D4F8A8306068013B5D43C4F8A8300F2198
:101C40000560FFF7D3FF7E21BDE83840FFF790BF66
:101C500038BD38B50468D4F8AC30012B1ED0013340
:101C6000C4F8AC30D4F8A830606814256B43036026
:101C70000F21FFF7BBFF2021FFF77AFFD4F8A83030
:101C8000606801335D43C4F8A8300F210560FFF799
:101C9000ADFF7E21BDE83840FFF76ABF38BD437A0B
:101CA00070B5054600F10C062BB100234372C161EB
:101CB0003046FFF747FD3046FFF718FD012428B1F5
:101CC0003046FFF73BFD6C72002070BD2046FCE7FC
:101CD00070B58EB005AD0023CDE901500C93CDE970
:101CE0000533CDE909330B93394E0D930123044697
:101CF00008968DF81D308DF81C300090CDF80CD072
:101D0000049564212846FFF7CAFF0028F9D120690D
:101D1000FFF714FC6069FFF711FCA069FFF708FCEE
:101D2000A26AE369D2699A616846FFF70EFC052151
:101D30002846FFF7B4FF0028F9D1A26AE369D26907
:101D40009A616846FFF701FC64212846FFF7A2FB71
:101D50000028F9D1A26AE369D2699A616846FFF75F
:101D6000F4FB32212846FFF795FB0028F9D1A26A3F
:101D7000E36952699A616846FFF7E7FB322128461A
:101D8000FFF788FB0028F9D1282102A8FFF7F4FB10
:101D90000C2102A8FFF7F0FB062102A8FFF7ECFBDD
:101DA000012102A8FFF7E8FB802102A8FFF7E4FB6E
:101DB00001212846FFF773FF0028F9D10EA801235F
:101DC00084F8303040F8186DFFF79AFC0EB070BD03
:101DD000907F000810B504465030FFF756FC04F120
:101DE0004000FFF752FC04F13000FFF74EFC04F115
:101DF0002000FFF74AFC04F11000FFF746FC2046E4
:101E0000FFF743FC204610BD204B1A68052161F303
:101E100002021A60A3F580631A6842F480321A60E5
:101E20001A689203FCD59A686FF307129A609A6851
:101E3000042161F38C229A609A686FF34F329A60A2
:101E40009A68022161F301029A605A68082161F3DD
:101E500005025A605A68C02161F38E125A605A68AE
:101E6000072161F31B625A605A68012161F3114234
:101E70005A605A6842F480025A601A6842F08072CE
:101E80001A60034A13689B01FCD57047003C02406E
:101E9000003802407B487C49F8B5036813F0010F15
:101EA0007CD17A4B7A4C1A6812F0010F06D1DFF818
:101EB000F8E10922C4E900E201221A60754B1A6BAD
:101EC00042F001021A6322681568022666F3934500
:101ED0001560556A072666F307155562D5686FF3D6
:101EE0009345D5606C4D2A6812F0010F6B4A06D1FC
:101EF000DFF8B4C10A26C2E900C601262E601D6BB8
:101F000045F001051D6313681D68022666F315552B
:101F10001D605D6A072666F30B255D62DD686FF361
:101F20001555DD605E4D2B6813F0010F5D4B05D13B
:101F30005D4F0C26C3E9007601262E60554E356BA9
:101F400045F0010535631D682F68012666F31967A2
:101F50002F60EF686FF31967EF60C1F81031534BD2
:101F6000C1F81431A3F5AA33C1F8183103F5AA3327
:101F7000B833C1F81C31783BC1F820310A23002561
:101F8000C1F824310723C1F80051C1F80451C1F848
:101F90000841C1F80C2181F8283106603D4C636C82
:101FA00043F010036364D1F81831DA6842F0080294
:101FB000DA60DA6842F00402DA605A6942F08002BC
:101FC0005A615A6942F040025A61394B93F9040050
:101FD000FEF756F9236B43F480032363D1F81C31D9
:101FE0001A68012060F387121A60D1F800210A44B0
:101FF000DA60D1F8182104329A601A6842F48062DB
:102000001A601A686FF34E321A601A686FF3CC22A6
:102010001A601A6842F010021A60264B93F9040005
:10202000FEF72EF9D1F820311A686FF387121A6083
:10203000D1F800210A44DA60D1F8182104329A60FC
:10204000FF225A601A6842F480621A601A686FF3BD
:102050004E321A601A686FF3CC221A601A6842F482
:1020600080721A60D1F820311A68042060F35B6234
:102070001A60D1F81C311A6860F35B621A6002487A
:10208000F8BD00BF9401002098010020DC02002070
:10209000E002002000380240D0020020D4020020DC
:1020A000C4020020C8020020000002400064024078
:1020B000540400203404002043490B6813F0010F3E
:1020C00070B5424C5DD1424B42481A6812F0010F84
:1020D00006D1DFF81CE10622C0E900E201221A6005
:1020E0003D4B1A6B42F004021A630268156802261F
:1020F00066F30D351560156A032666F31B651562D8
:10210000D5686FF30D35D560344D2A6812F0010F94
:10211000334A06D1DFF8D8C00726C2E900C6012637
:102120002E601D6B45F004051D6313681D680226B3
:1021300066F38F351D601D6A032666F31F751D62E9
:10214000DD686FF38F35DD600023C4E9013323734D
:10215000A361A36284F8303084F8313003F1804306
:10216000C4E90D0203F5823318481E4DE363256070
:10217000FFF7E8FA01230B601B4A1C49134805F0DE
:1021800036FA154A1148536C43F002035364E36B6B
:102190009A68032161F302029A609A69012161F34E
:1021A00001029A619A6961F309229A611A6A42F0FE
:1021B00002021A621A6A6FF3C3021A6200225A629A
:1021C0001A680A431A6070BD380100203C010020E3
:1021D000880100208C010020003802407C01002092
:1021E00080010020B07F0008000000209D1600083C
:1021F0000008024010B50C1A134605D001462246CD
:10220000184605F035FA0346181910BD2DE9F347B5
:1022100002AB03E906000768037A00F109080646E5
:10222000DDE9004508EB070263B3132C22D8C4F1A3
:10223000140902EB590910464946FFF763F92919B9
:102240004A462846FFF7D6FF09EB040A07F11401B6
:1022500041445046FFF756F9336850211433B3FB1D
:10226000F1F201FB1233336000233046337202B0C7
:10227000BDE8F087143C05EB540000F11401FFF7B2
:10228000B9FFE9E7C7F15001A14205EB040907D9FD
:1022900049462846FFF7AEFF306804443460E3E760
:1022A00029442846FFF7A6FF3368A4F150071F44CE
:1022B000E41B2C44502F2046424604F1500404D91C
:1022C0002146FFF797FF503FF4E74946FFF792FF9B
:1022D000336850221F44B7FBF2F302FB13773760D9
:1022E000C2E7000030B589B00A460446114905A886
:1022F00005F0DCFA05A901A8FFF76DFC6368019AF7
:10230000934208D99B1A13F1FF3304D320212046AE
:10231000FFF72EFCF7E703AD05A92846FFF75BFCA6
:1023200095E806002046FFF771FF00232046636012
:1023300009B030BD9C850008F8B505460F464FF43E
:102340007A7691FBF6F42146FFF7CCFF2E21284642
:10235000FFF70EFC06FB14740A2394FBF3F4092C1C
:1023600008DC00212846FFF7BDFF2146FFF7BAFF32
:102370002846F8BD21462846F8E70000F7B505468F
:10238000406802260660AB6FB3F81C12FFF7D4FF5B
:102390006C46074642492046FFF71DFC94E80600BC
:1023A0003846FFF733FF68683E4F0D23C0E900361B
:1023B000AB6FB3F8DC11FFF795FF2521FFF7D8FBD2
:1023C00068681E23C0E90036AB6FB3F87C12FFF7D4
:1023D00089FF354906462046FFF7FDFB94E80600D5
:1023E0003046FFF713FF6E6822233360EB6F1B78D4
:1023F000C3F3C003204657F82310FFF7ECFB94E823
:1024000006003046FFF702FF6E6823233360EB6F50
:102410001B78C3F38003204657F82310FFF7DBFB3C
:1024200094E806003046FFF7F1FEEA6F1046FEF72B
:10243000F5FCF8B96E681D49142333602046FFF798
:10244000CAFB94E806003046FFF7E0FE68681623F2
:102450000360AB6FB3F83C12FFF76EFF14490546FB
:102460002046FFF7B8FB94E806002846FFF7CEFEAB
:1024700003B0F0BD1378D90604D56D680D49142357
:102480002B60EDE79A0604D56D680B4914232B6089
:10249000E6E75B06ECD56D68084914232B60DFE79F
:1024A0006C8500084C85000870850008738500085D
:1024B0007685000879850008828500088B850008EC
:1024C00038B5002383608B6804460D462BB1022289
:1024D0009847EB68E360AB68A360204638BD38B529
:1024E000002383608B6804460D462BB10222984777
:1024F000EB68E360AB68A360204638BD38B504469E
:102500000D46FFF7DDFF05F1100104F11000FFF7A4
:10251000D7FF05F1200104F12000FFF7D1FF05F1FD
:10252000300104F13000FFF7CBFF05F1400104F169
:102530004000FFF7D4FF05F1500104F15000FFF710
:10254000CEFF204638BD38B5002383608B68044633
:102550000D462BB102229847EB68E360AB68A3609D
:10256000204638BD826810B50AB905F045F8C36841
:10257000BDE81040184730B585B0044600256946CF
:1025800008300295FFF7EEFF6846FFF77EF86946D0
:1025900004F118000295FFF7E5FF6846FFF775F8AC
:1025A000694604F138000295FFF7DCFF6846FFF743
:1025B0006CF805B030BD30B585B0044600256946DD
:1025C00008300295FFF7CEFF6846FFF75EF86946D0
:1025D00004F118000295FFF7C5FF6846FFF755F8AC
:1025E000694604F128000295FFF7BCFF6846FFF733
:1025F0004CF8694604F138000295FFF7B3FF6846CE
:10260000FFF743F805B030BD30B585B0044600256E
:10261000694608300295FFF7A5FF6846FFF735F8D1
:10262000694604F118000295FFF79CFF6846FFF722
:102630002CF8694604F128000295FFF793FF6846DD
:10264000FFF723F8694604F138000295FFF78AFF87
:102650006846FFF71AF805B030BD30B585B00446BE
:102660000025694608300295FFF77CFF6846FFF7B2
:102670000CF8694604F118000295FFF773FF6846ED
:10268000FFF703F8694604F128000295FFF76AFF97
:102690006846FEF7FAFF694604F138000295FFF735
:1026A00061FF6846FEF7F1FF05B030BD30B585B07B
:1026B00004460025694608300295FFF753FF684637
:1026C000FEF7E3FF694604F118000295FFF74AFFA1
:1026D0006846FEF7DAFF694604F128000295FFF725
:1026E00041FF6846FEF7D1FF694604F138000295C4
:1026F000FFF738FF6846FEF7C8FF05B030BD30B5BC
:1027000085B004460025694628300295FFF72AFF68
:102710006846FEF7BAFF694604F108000295FFF724
:1027200021FF6846FEF7B1FF694604F118000295E3
:10273000FFF718FF6846FEF7A8FF694604F1380066
:102740000295FFF70FFF6846FEF79FFF05B030BD0B
:102750001FB5224B00900446694603930830204B76
:102760000293FFF7FFFE6846FEF78FFF1D4B0393B2
:1027700069461D4B029304F118000094FFF7F2FE26
:102780006846FEF782FF194B03936946184B029384
:1027900004F138000094FFF7E5FE6846FEF775FF88
:1027A00060680023036004F1780393E80600FFF7F4
:1027B0002DFDFFF7EBF9606814230360D4F888302F
:1027C0001988FFF78FFD04F1800393E80600FFF7F7
:1027D0001DFD6068FFF7F4F904B010BDA302000806
:1027E000A5020008BB020008BD020008C9290008B4
:1027F000D3020008F0B585B06C464C4B00900546FE
:102800002146039328304A4B0293FFF7ABFE204644
:10281000FEF73BFF474B03932146474B029305F1DD
:1028200008000095FFF79EFE2046FEF72EFF434B63
:1028300003932146424B029305F118000095FFF7E0
:1028400091FE2046FEF721FF3E4B039321463E4B6F
:10285000029305F138000095FFF784FE2046FEF74D
:1028600014FF6E68394F06F1590106F10900FEF7B1
:1028700049FE002333606E68354933602046FFF718
:10288000AAF994E806003046FFF7C0FC6E683149AB
:102890000B2333602046FFF79EF994E8060030468C
:1028A000FFF7B4FC6E682C49142333602046FFF711
:1028B00092F994E806003046FFF7A8FC68681E22EB
:1028C0000223C0E90023AB6FB3F87C12FFF70AFDC7
:1028D000224906462046FFF77EF994E80600304676
:1028E000FFF794FC6E6822233360EB6F1B78C3F311
:1028F000C003204657F82310FFF76DF994E806004F
:102900003046FFF783FC6E6823233360EB6F1B7840
:10291000C3F38003204657F82310FFF75CF994E8CF
:1029200006003046FFF772FC05B0F0BD5D090008F7
:102930006B0900088109000891090008A70900082F
:10294000B7090008D5290008CD0900084C85000802
:102950009485000897850008738500089A8500080B
:10296000826810B50AB904F047FEC368BDE810409C
:10297000184708B5C36B5A6AC2F34E02012A09D13F
:1029800090F8301031B980F8302059622030FFF7CC
:10299000E7FF08BD5A6A47F6FF71C2F34E028A424A
:1029A00002D190F831204AB15B6A9BB2012BF0D87A
:1029B000002380F8303080F83130EAE7012180F8D8
:1029C00031105A621030E2E708B500686830FFF74E
:1029D000C7FF08BD08B500686830FFF7C1FF08BD34
:1029E00008B50368D3F89C2093F8A03013700068F2
:1029F000D0F884301BB17C30FFF7B2FF08BD6C30DB
:102A0000FAE708B500686C30FFF7AAFF08BD08B503
:102A10000368D3F8C400182202FB00308030FFF7AF
:102A20009FFF08BD08B500686830FFF799FF08BD33
:102A3000006808B5D0F89C30B0F8A0201A80D0F813
:102A400084301BB17C30FFF78BFF08BD6C30FAE798
:102A500008B500686C30FFF783FF08BD08B5036850
:102A6000D3F89C2093F8A03013700068D0F884301D
:102A70001BB17C30FFF774FF08BD6C30FAE708B576
:102A800000686C30FFF76CFF08BD006808B5D0F82F
:102A90009C3090F8A0201A70D0F884301BB17C30A4
:102AA000FFF75EFF08BD6C30FAE708B500686C30D0
:102AB000FFF756FF08BD08B50368D3F8AC0018222D
:102AC00002FB00308030FFF74BFF08BD08B50068FF
:102AD0006830FFF745FF08BD08B50368D3F89C20B0
:102AE00093F8A03013700068D0F884301BB17C30AC
:102AF000FFF736FF08BD6C30FAE708B500686C30A8
:102B0000FFF72EFF08BD08B50368D3F8DC001822D4
:102B100002FB00308030FFF723FF08BD08B50068D6
:102B20006830FFF71DFF08BD08B50368D3F80C0136
:102B3000182202FB00308030FFF712FF08BD08B5F5
:102B400000686830FFF70CFF08BD38B500238360CC
:102B50008B6804460D462BB102229847EB68E36070
:102B6000AB68A360204638BD10B50B460446D1E9DA
:102B7000000184E8030003F1080104F10800FFF7F5
:102B8000E2FC204610BD000038B51D46124B04463D
:102B9000C0E9003111460830FFF7B0FC294604F1C6
:102BA0006800FFF7D0FC049904F17800FFF7DCFF20
:102BB000059904F19000FFF7D7FF069904F1A800EA
:102BC000FFF7D2FF079904F1C000FFF7CDFF002304
:102BD000C4E93633204638BDD07F000838B51D46DD
:102BE0000D4B0446C0E9003111460830FFF786FC62
:102BF000294604F16800FFF7A6FC049904F1780067
:102C0000FFF7B2FF059904F19000FFF7ADFF002335
:102C1000C4E92A33204638BDF87F000882B038B5B1
:102C20000593184B0360BDF828308380BDF82C3025
:102C3000C3800446816011460C30099DFFF75EFC9D
:102C40000C9904F16C00FFF77EFC0D9904F17C00F7
:102C5000FFF779FC05AA92E8030004F18C0307AAA8
:102C600083E8030092E8030004F1940383E803007F
:102C70002B88C4F89C502046A4F8A030BDE838400A
:102C800002B0704734800008D0F80431FE2B9FBF9B
:102C9000C154D0F804310133C0F80431704713B582
:102CA0000B460446D0E900016A4682E8030093E837
:102CB000030084E8030092E8030083E8030002B005
:102CC00010BD38B505460C46FFF7E9FFAB68A268B2
:102CD000AA60A360E268EB68EA60E36038BD1FB5F4
:102CE00004466846FFF72FFC21466846FFF7E9FFD8
:102CF0006846FEF7CAFC204604B010BD08B5443053
:102D0000FFF7EDFF08BD08B53430FFF7E8FF08BD59
:102D100008B52430FFF7E3FF08BD08B51430FFF70E
:102D2000DEFF08BD08B54430FFF7D9FF08BD08B580
:102D30003430FFF7D4FF08BD08B52430FFF7CFFFCC
:102D400008BD08B51430FFF7CAFF08BD08B5443008
:102D5000FFF7C5FF08BD08B53430FFF7C0FF08BD59
:102D600008B52430FFF7BBFF08BD08B51430FFF7E6
:102D7000B6FF08BD30B5044689B008460023694651
:102D80000293FFF79EFF2368DC6F2368694604A85F
:102D9000DD68FFF7D8FB04A92046A84704A8FEF782
:102DA00074FC6846FEF771FC09B030BD10B50446EE
:102DB00088B00846002369460293FFF782FF236824
:102DC0001C6F694604A8FFF7BEFB04A904F12000AC
:102DD000FFF785FF04A8FEF758FC6846FEF755FC90
:102DE00008B010BD10B5044688B0084600236946F7
:102DF0000293FFF766FF23681C6F694604A8FFF77C
:102E0000A2FB04A904F11000FFF769FF04A8FEF774
:102E10003CFC6846FEF739FC08B010BD30B50446EE
:102E200089B00846002369460293FFF74AFF2368EA
:102E3000DC6F2368694604A89D68FFF784FB04A93A
:102E40002046A84704A8FEF720FC6846FEF71DFCB4
:102E500009B030BDF0B5C26ED2F80431D2F800111D
:102E60005C1A022C33D999423EBF03F1FF33C2F8FA
:102E70000431D55CC26EDFF860C0D2F80431D2F8FC
:102E80000011144F28BF00258B4282BF03F1FF338E
:102E9000C2F80431D65CC36ED3F80021D3F8041114
:102EA0004FF0FF001A4498BF00260B44044612F866
:102EB000011B414093421CF8010080EA04007C5C45
:102EC000F5D1AC4203D1831B58425841F0BD0020DC
:102ED000FCE700BF4C8400084C83000838B5836FC2
:102EE0001D68C36ED3F800219A5C2B799A42044680
:102EF00011D0AB690921EA1811750133032293FB44
:102F0000F2F202EB42029B1AAB61D4F89830013323
:102F1000C4F8983038BDFFF79DFF18B9AB69102190
:102F2000EA18E9E7E26ED2F80031D2F804119942CA
:102F300084BF0133C2F80031E36ED3F80021D3F827
:102F40000411914283BF511CC3F800119B5C002304
:102F50001B0611D5E36ED3F80021D3F8041191427A
:102F600082BF511CC3F800119A5CAB6905EB0301E9
:102F700098BF00220A75C0E72B7A032BCAD1E26EF4
:102F8000D2F80031D2F80411994284BF0133C2F85B
:102F90000031E36EE868D3F80021D3F80411541C23
:102FA000A14217D9914284BFC3F800419C5CD3F879
:102FB000002198BF0024914283BF511CC3F8001127
:102FC0009A5C00224FF0000362F3070364F30F23BF
:102FD00003809FE70023FBE70B1A1B11002B14DD76
:102FE0000268127C4AB34268127C0AB90430704706
:102FF0008268127C0AB908307047C268127C0AB92C
:103000000C3070471030013BE8E70B1A9B10022B85
:103010000DD0032B07D0012B0ED103681B7C002B96
:1030200018BF0846704703681B7C33B1043003683F
:103030001B7C13B10430F0E708467047437B012B3B
:10304000F7B5044606D0C0F0C280022B00F0F7802E
:1030500003B0F0BD00F16C054FF00003806F1A461D
:103060002946FFF7B9FF8542A06703D104F1100399
:10307000A367EDE7E36E05680026C3F80061C3F8B7
:1030800004612979E06EFFF7FFFD297AE06EFFF712
:10309000FBFD3146E06EFFF7F7FDA979E06EFFF723
:1030A000F3FD2B7A032B01D0102B67D10021E06EAA
:1030B000FFF7EAFD0121E06EFFF7E6FD2B7A102B0A
:1030C00010D10221E06EFFF7DFFD2B7A102B09D122
:1030D000EB68E06E1988090AFFF7D6FDEB681978EE
:1030E000FFF7D2FD2B7A032B01D0052B53D12B6890
:1030F00029461B6801A898479DF80510E06EFFF768
:10310000C3FD9DF80410FFF7BFFDD4F88830C4F864
:103110008030D4F89C30E56E00260133C4F89C3032
:10312000C4F89060D5F81001FEF702FAD5F818310E
:10313000DA6866F30412DA60D5F820311A6866F3AB
:1031400000021A60D5F81C311A6866F300021A6092
:10315000D5F80431D5F80011D5F81C215B1A0233DB
:103160009BB25360D5F81C311A6842F001021A6014
:103170001A68D207FCD50023637369E7052BB1D128
:10318000EB68E06E1988002914BFFF210021FFF7CA
:103190007BFD314696E7102BB7D1E06EDFF8C4C057
:1031A000D0F80031D0F804212D4FFF2103448618B8
:1031B0000D4613F8012B4A409E421CF8021081EA8A
:1031C0000501BD5CF5D1FFF75FFD29469BE7C16EA8
:1031D000D0F88820D1F80431D1F800115B1AD0F86A
:1031E00090109942C16F38BFC0F880208A4216DC27
:1031F000836F18688369C21812251575013303227D
:1032000093FBF2F202EB42029B1A8361D4F89830EE
:10321000C4F88C100133C4F8983002236373D4F8D7
:103220008030C91AD4F884309942FFF611AF204695
:10323000FFF754FEE36FC4F88C3002239CE7C36FA2
:10324000D0F88C20093B93427FF702AF0023C3677D
:10325000FEF756FA836F0433836701238CE700BFC0
:103260004C8400084C8300082DE9F04F364BADF537
:10327000C15D87B003F1180659AD34461868596826
:103280002A4603C20833B3421546F7D12F4B899320
:103290002F4B8D932F4B989300224FF480312E4863
:1032A0009C9359AB99919B918DF875228A928B9240
:1032B0008DF830229592ADF8582297929A908DF819
:1032C00074228DF876228DF878228E93FF2189ABB7
:1032D00013440132182A1976F9D10DF5037800212B
:1032E000404604F0DEF98D98FEF716F98D9B1A69B9
:1032F000012767F309221A611A6989AD42F08072C9
:103300001A6100264FF6FF7AA946D5E90F3103EB83
:10331000410199420FD01A78172A09D80DF5097C76
:103320006244587810761A7808F802700233F0E791
:103330001A885245FAD19C93E96B99420ED1959621
:103340000835C6B90126E0E7707F0008C09500087F
:10335000003C024000000A08000008082A6C01EB4B
:103360004202934200F06283494640469596FEF73A
:1033700033F88145E4D1959A89AB03EBC201D1E9D9
:103380000F309C9903EB4003994206D196AB012183
:10339000995400239593989B9C9389AE314640465F
:1033A000FEF71AF8B042054640F045838EAB8E9A80
:1033B0008FAE03F11C07334603CBBB421060516054
:1033C0001E4602F10802F6D100238DF876329DF8F0
:1033D00058328BB9959B7BB1989A999B4FF6FF70A9
:1033E00002EB43018A42134640F02B830B465B1AE3
:1033F00018BF01238DF858329DF85932ABB9959B0F
:10340000012B12D09A9B9B9A4FF6FF7003EB42025E
:103410009A42194604D00E88864203F10203F7D07F
:10342000521A18BF01228DF859228EAB0DF25A267E
:1034300003F120003146FDF7F9FF864218BF032350
:103440008D9A18BF8DF87532136943F000431361EC
:1034500089AB9D4209D0E54B59AD186859682A4699
:1034600003C20833A3421546F7D189A8FEF76AF9CB
:10347000DF4B1A6812F0010FDE4A05D1DE4F0A2138
:10348000C2E9007101211960DC4B196B41F00401A4
:10349000196312681168012060F315511160D16839
:1034A0006FF31551D160D6490A6812F0010F08BFB9
:1034B000D44ED54A02BF08600F24C2E90064196BDC
:1034C00041F00101196313681A68012464F39F72C3
:1034D0001A60DA686FF39F72DA600DF25442CDF829
:1034E0004424CA4ACDF83824002305200DF2744242
:1034F0000DF294418DF840048DF86004CDF86424F9
:103500008DF83C44ADF83E348DF84834ADF84C3479
:103510008DF84E34CDF85034ADF854348DF85C4409
:10352000ADF85E448DF86834CDF88414B849CDF810
:1035300078140DF2D4450DF2B441B64ACDF8A41476
:10354000CDF8C454B449B54DCDF85824CDF89814ED
:1035500010220421CDF8B8540DF2F4458DF88024E2
:103560008DF8A0248DF8C024ADF86C348DF86E343D
:10357000CDF87034ADF874348DF87C44ADF87E34F9
:10358000ADF88C348DF88E34CDF89034ADF8943499
:103590008DF89C44ADF89E44ADF8AC348DF8AE3453
:1035A000CDF8B034ADF8B4348DF8BC44ADF8BE14E9
:1035B000ADF8CC348DF8CE34CDF8D034ADF8D43469
:1035C0008DF8DC44CDF8E454954DCDF8D8540DF287
:1035D0001455CDF80455934DCDF8F8540DF23455EB
:1035E000CDF82455904DCDF818550825ADF83E5529
:1035F0000DF2545507274FF0060CCDF844558B4D6E
:10360000ADF8DE048DF8E0248DF80025ADF81E75C8
:103610008DF820258DF84025ADF8EC348DF8EE348A
:10362000CDF8F034ADF8F4348DF8FC44ADF8FEC4B8
:10363000ADF80C358DF80E35CDF81035ADF81435E4
:103640008DF81C45ADF82C358DF82E35CDF830357C
:10365000ADF834358DF83C45ADF84C358DF84E3528
:10366000CDF85035CDF838550925ADF85E550DF239
:103670007455CDF864556E4DCDF858550DF29455EE
:10368000CDF884550DF2B45E6A4DCDF87855CDF87D
:10369000A4E50225DFF8B4E1ADF89E550A2603251E
:1036A000CDF898E50DF2D45E8DF86025ADF87E6515
:1036B0008DF88025ADF854358DF85C45ADF86C3546
:1036C0008DF86E35CDF87035ADF874358DF87C45D4
:1036D000ADF88C358DF88E35CDF89035ADF8943544
:1036E0008DF89C458DF8A055ADF8AC358DF8AE350C
:1036F000CDF8B035ADF8B4358DF8BC45ADF8BE5554
:103700008DF8C055CDF8C4E5ADF8FE050DF2146096
:10371000CDF804064848DFF838E1CDF8F8050DF299
:103720003460CDF8B8E5CDF824060DF2F45E4348D8
:10373000CDF8E4E5CDF81806DFF818E1ADF8CC35A2
:103740000DF254608DF8CE35CDF8D035ADF8D435C6
:103750008DF8DC45ADF8DE158DF8E055ADF8EC35AB
:103760008DF8EE35CDF8F035CDF8D8E5ADF8F43577
:103770008DF8FC458DF800568DF80836ADF80C36FE
:103780008DF80E36CDF81036ADF814368DF81C468F
:10379000ADF81EC68DF82056ADF82C368DF82E36B5
:1037A000CDF83036ADF83436CDF844062448CDF89F
:1037B00038060DF27460CDF864062248CDF858063C
:1037C0000B20ADF87E060DF29460CDF884061E48FD
:1037D000CDF878060E20ADF89E060DF2B460ADF877
:1037E0003E76ADF85E668DF83C4635E0707F0008A9
:1037F000F4020020F80200200008024000380240D5
:10380000E802002000000240EC0200207080000866
:10381000888000087C80000894800008A080000850
:10382000AC800008B8800008C4800008D080000880
:10383000DC800008E49500080C810008188100086D
:1038400024810008308100083C810008E8800008DD
:10385000F4800008008100088DF840568DF8483645
:10386000ADF84C368DF84E36CDF85036ADF85436AE
:103870008DF85C468DF860568DF86836ADF86C367C
:103880008DF86E36CDF87036ADF874368DF87C460E
:103890008DF88056ADF88C368DF88E36CDF8903692
:1038A000ADF894368DF89C468DF8A056CDF8A40658
:1038B000ADF8DE260DF2F4627148CDF8E426714AC7
:1038C000CDF89806CDF8D8260F201122ADF8BE0607
:1038D000ADF8FE260DF2D4600DF214726A4FCDF8E9
:1038E000C406CDF804276948694A8DF8A836ADF8B2
:1038F000AC368DF8AE36CDF8B036ADF8B4368DF8BE
:10390000BC468DF8C056ADF8CC368DF8CE36CDF825
:10391000D036CDF8B806ADF8D4368DF8DC468DF843
:10392000E056ADF8EC368DF8EE36CDF8F036ADF861
:10393000F4368DF8FC468DF800578DF80837ADF851
:103940000C378DF80E37CDF81037CDF8F8263A68D9
:10395000ADF8143722408DF888448DF8A8448DF8CE
:10396000C8448DF8E8448DF808458DF828458DF851
:1039700048458DF868458DF888458DF8A8458DF83F
:10398000C8458DF8E8458DF828468DF888468DF8AD
:10399000C8468DF8E846BDF8666140F09C81CDE9E7
:1039A0000912FEF777FAC6F34003804639480893B8
:1039B000394B0A9A0360394B447306EA0409C6F38B
:1039C000800BC6F3C10A364C027300F1100EC6F329
:1039D0004216C0E90122C0F86C8003674467C0E961
:1039E0001EE29C4609999EB3012E05D0022E31D0CD
:1039F000AE4214BF012502250022C0F88450642580
:103A0000C0F89820C0E9225280F89420C0F89C2089
:103A1000C0F8A420234AC0F8A020DCF80020C0F899
:103A2000A800D2B9204ACCF800201BE089AB33446F
:103A300083F8347084E4959B96AA0121D154052320
:103A4000C3E41E88864202F102023FF4CBACCEE40E
:103A50000D46D1E73546CFE70A4651680029FBD12C
:103A6000114951600022C0F8B020104AC0F8AC20C3
:103A70002268C0F8B400F2B90D4A226020E000BF0D
:103A8000488100086081000800030020548100087C
:103A9000F0950008040300208481000854040020ED
:103AA000340400206C810008A40300207881000801
:103AB000B00300200A4651680029FBD1CE4951606D
:103AC0000DF5E36217AC0021CDE91702CDF8181708
:103AD00020460DF58761FCF707FC94E8030019AD5B
:103AE00085E8030028460DF58B61FCF7FDFB95E8A2
:103AF00003001BAC84E8030020460DF58F61FCF742
:103B0000F3FB94E803001DAD85E8030028460DF59E
:103B10009361FCF7E9FB95E803001FAC84E8030020
:103B200020460DF59761FCF7DFFB94E8030021AD1B
:103B300085E8030028460DF59B61FCF7D5FB95E869
:103B4000030023AC84E8030020460DF59F61FCF7D9
:103B5000CBFB94E8030025AD85E8030028460DF56E
:103B6000A361FCF7C1FB95E8030027AC84E80300E0
:103B700020460DF5A761FCF7B7FB94E8030029ADDB
:103B800085E8030028460DF5AB61FCF7ADFB95E831
:103B900003002BAC84E8030020460DF5AF61FCF771
:103BA000A3FB94E803002DAD85E8030028460DF53E
:103BB000B361FCF799FB95E803002FAC84E80300A0
:103BC00020460DF5B761FCF78FFB94E8030031AD9B
:103BD00085E8030028460DF5BB61FCF785FB95E8F9
:103BE000030033AC84E8030020460DF5BF61FCF709
:103BF0007BFB94E8030035AD85E8030028460DF50E
:103C0000C361FCF771FB95E8030037AC84E803005F
:103C100020460DF5C761FCF767FB94E8030039AD5A
:103C200085E8030028460DF5CB61FCF75DFB95E8C0
:103C300003003BAC84E8030020460DF5CF61FCF7A0
:103C400053FB94E803003DAD85E8030028460DF5DD
:103C5000D361FCF749FB95E803003FAC84E803001F
:103C60000DF5D7612046FCF73FFB94E8030041AD1A
:103C700085E803000DF5DB612846FCF735FB95E888
:103C8000030043AA82E8030010460DF5DF61FCF74C
:103C90002BFBD8F82421D8F818013146FDF762FD36
:103CA000089BC26863F34922C260C3686BF30C339C
:103CB000C36003696AF30D330361C368B9F1000F90
:103CC00001F0F78343F48063C360C36843F4005397
:103CD000C36001233B60FEF7EFF9484AB7920DF548
:103CE00037782032C8F80420454A16900023C8E9E6
:103CF000023388F8103088F81130C8F81C30C8F842
:103D00002C30C8F83C30C8F84C30C8F85C30136828
:103D100013F0010F3B4B05D13B480E21C3E90001D5
:103D200001211160394C226B42F0020222631A68B1
:103D300011686FF31D711160D1686FF31D71D1604F
:103D400001250021B8A8C8E91A1588F8701088F86C
:103D50007110C8F86430FDF7F5FCD6AE2C4B46F870
:103D600008192C4AD493203373601368F16013F060
:103D7000010F08BFDFF890B0274B31747174F16107
:103D8000F162F163F164F16502BF0D21C3E900B195
:103D90001560226B1D4D42F0020222631A68116801
:103DA0006FF39B611160D1686FF39B61D160012457
:103DB0000021D5A8C6E91A1486F8701086F871108B
:103DC0007366FDF7BFFC154B154AF193F1AF203335
:103DD0007B601368397413F0010F08BFDFF848A047
:103DE000104B7974C7E90211F961F962F963F9645A
:103DF000F96508BF082119E0B00300209081000890
:103E00002C01002030010020000402400038024054
:103E1000BC8100082001002024010020E881000866
:103E200014010020180100200000024004BFC3E973
:103E300000A114602A6B42F001022A631A6811681B
:103E40006FF311411160D1686FF31141D160F2A895
:103E500000214FF001097B66C7E91A1987F8701035
:103E600087F87110FDF76EFC0DF5E364169B08935F
:103E7000C4E90111B14B2173C4E90411217604F1A5
:103E8000190004F169012360FDF73CFBAC4B1A6893
:103E900012F0010F29469B46AA4D7CD1AA48DFF8B3
:103EA00004C30368A94ADFF800E313F0010F01BF60
:103EB0000D23C0F80090CCF80020CCF804300B6B38
:103EC00043F004030B63DCF800301868012161F350
:103ED0009B601860D8686FF39B60D860DEF8003094
:103EE0009B4813F0010F04BF0F234360994B04BF9D
:103EF0000260CEF80010196B41F0040119630168EB
:103F0000D1F800E04FF0010969F39F7EC1F800E0AD
:103F1000D1F80CE06FF39F7EC1F80CE0DFF88CE283
:103F2000DEF8001011F0010F8B4901BFCEF80090B0
:103F30004FF00E0A0A60C1F804A0D3F830E04EF04A
:103F4000040EC3F830E00B68D3F800904FF0010E78
:103F50006EF31D79C3F80090D3F80C906FF31D79C0
:103F6000C3F80C900023C5E9061204F119022A6275
:103F7000C5E90133794ADFF838926A62C5E904C0BD
:103F8000774A2B73C5F800906B73AA6285F83030BE
:103F90006B63CBF800E0734A136813F0010F724BA8
:103FA00006D1DFF8A8910221C3E900910121116037
:103FB000684A116B41F0040111631B681968012004
:103FC00060F305111960D9686FF30511D96067496D
:103FD0000B6813F0010F08BFDFF870E1644B02BFFC
:103FE00008604FF0030CC3E900EC116B41F00401D1
:103FF00011631B685F491A68012060F387121A6019
:10400000DA686FF38712DA605B4A1368034002BF15
:10401000DFF838C11060C1E900C34E4A136B43F0AA
:10402000040313630B681868012161F30100186031
:10403000D8686FF30100D8605048036813F0010F8F
:1040400008BFDFF808C14E4B04BFC3E900C10160DF
:10405000116B3C4841F0040111631B681A684FF072
:10406000010969F383021A60DA686FF38302DA6088
:10407000FDF72EFE2B7B13BB424A85F80C90D368CC
:104080006B6003B19D609368D56003B995600223AE
:1040900053613D4B1A686FF300021A6045F6BF5238
:1040A0005A6000229A601A6842F004021A601A6884
:1040B00042F002021A601A6842F001021A60089B7C
:1040C000E566C4E91C3859ABC4F880300DF5876348
:1040D000C4F8843012ABC4F8883013ABC4F88C3009
:1040E00014ABC4F8903015ABC4F894300DF6180337
:1040F000C4F89830254B4C934FF0000B244BC4F878
:104100009CB049A945A8C4E91E6749944B93FEF7A2
:10411000D7F9204B5493204B53934DAB51A91846DC
:1041200051940893FEF7CCF91C4B62936EAF1C4B75
:104130005F945FA955A861933CE000BFCC9500084F
:10414000B4000020B8000020080100200008024050
:104150000001002000380240F4000020A48500087F
:10416000A48D0008A8000020AC0000209C000020C6
:10417000A000002094000020900000208400002077
:10418000880000206C04002010E000E0AD2D000845
:10419000FD020008E52D0008130300081D2E00088D
:1041A000290300080C010020FC000020F000002082
:1041B000D8950008FEF784F9B84B6B9447F80C3992
:1041C0000DF5CA7877AEB64BBB6039464046FEF770
:1041D00077F9B44B77943146F36071A8B24BB36072
:1041E0007DADFEF77CF9B14BA2930DF5F769B04BAD
:1041F0009F949FA92846A193FEF771F945A94846C7
:10420000FEF75EF904F1B0000899FEF759F955A9D7
:104210000DF5FB60FEF754F904F1D0004146FEF7BE
:104220004FF971A90DF5FF60FEF759F904F1F0009F
:104230002946FEF754F92846FDF727FA9FA8FDF70F
:1042400024FA71A8FDF721FA3046FDF71EFA404620
:10425000FDF71BFA3846FDF718FA55A8FDF715FAD1
:104260005FA8FDF712FA0898FDF70FFA51A8FDF7BD
:104270000CFA45A8FDF709FA49A8FDF706FA4946E0
:104280009FA8FEF73BF98B4B7D942946EB603046A7
:10429000894BAB60FEF757F9D4F884300993D4F812
:1042A0008830864A089304F11003C4F80021C4F84A
:1042B000043104F584709FA9D4F88CA00A93FEF70A
:1042C0001DF931460DF50860FEF73DF9099BC4F86C
:1042D0007831089BC4F87C31C4F880A13046FDF7E2
:1042E000D4F92846FDF7D1F99FA8FDF773FD49469B
:1042F0009FA8FEF703F9724B589355A9714B55943B
:1043000051A85793FEF71FF96F4B60936F4B64935F
:104310006F4B63936F4B61944FF0090ACDF894A1F2
:10432000C8E901346C4BC8F814306C4BC8F8103035
:104330000C236B936A4B7394C7E90134694B7B611F
:10434000694B3B610C237193684B7293684B769376
:10435000684B759306237793674BCDF87CA1C6E92C
:104360000134664B7361664B33610E237D93654B5D
:10437000C5E90134644B6B61644B2B61644BC4F839
:1043800084319FA90A9BC4F888310DF6A400FEF77A
:10439000B5F851A90DF60410FEF7D5F85FA90DF692
:1043A0001410FEF7E1FB41460DF62C10FEF7DCFB86
:1043B00039460DF64410FEF7D7FB71A90DF65C10D7
:1043C000FEF7D2FB31460DF67410FEF7CDFB294601
:1043D0000DF68C10FEF7C8FB7FABC4F88CB2C4F8A6
:1043E00090B218460893FDF750F979AB1846099337
:1043F000FDF74BF973AB18460B93FDF746F96DAB20
:1044000018460C93FDF741F967A8FDF73EF961A83E
:10441000FDF73BF951A8FDF738F955A8FDF735F937
:104420009FA8FDF7D7FC49469FA884F894B2A4F84A
:1044300096B2A4F898B2FEF761F8364B65944146FF
:10444000C8F80C305FA8344BC8F80830FEF77BF88A
:1044500008236B93314B0A997394C7E90134304BAD
:104460007B61304B3B61304B7293304B7693304BDA
:1044700075930F2377932F4BCDF8C4A1C6E9013470
:104480002D4B73612D4B33610B237D932C4BC5E971
:1044900001342C4B6B612C4B2B6157E0752D0008C0
:1044A0003F030008D955000855030008A15500082E
:1044B0006B0300084D0E000881030008AC9500084E
:1044C000590E000897030008F4950008770E0008BD
:1044D000AD030008FE950008A50E0008C303000800
:1044E00008960008C10E0008D903000815960008B8
:1044F000CD0E0008EF03000822960008D90E000830
:104500000504000829960008E50E00081B040008B1
:10451000BC7F00080B0F0008310400083896000823
:104520002112000847040008419600083B120008C9
:104530005D0400084B96000855120008730400083B
:104540005B960008490F00088904000871AB9FAA18
:10455000CDE90073CDE902655FAB0DF6B410FEF74F
:1045600013FB0898FDF791F80998FDF78EF80B9862
:10457000FDF78BF80C98FDF788F85FA8FDF785F834
:104580004046FDF782F89FA8FDF724FCD4F8803060
:1045900049465B7D84F87C339FA8FDF7AFFFBB499C
:1045A0005FA8FDF718FBBA494046FDF714FBB94B6D
:1045B000749371A9B84B719438467393FDF7C3FF98
:1045C000B64B7D942946EB603046B54BAB60FDF7AA
:1045D000BAFF609B0F93659B0D93D8F804305F9AE8
:1045E0000E934FF48073A4F8843310920A9BAD4964
:1045F000C4F888339FAAC4F880130DF6A42011468E
:10460000FDF77CFF39460DF60430FDF79CFF31467F
:104610000DF61430FDF797FF0F9BC4F810340D9B77
:10462000C4F814340E9BC4F818340DF69423C4F85F
:104630001C34109A94F87C33C4F80C2484F8203489
:104640003046FDF722F82846FDF71FF83846FDF7FB
:104650001CF871A8FDF719F89FA8FDF7BBFBD4F86B
:1046600088301B784946C3F3C0039FA884F82434DC
:10467000FDF744FF71AA8C4B749311468B4B7194D8
:1046800038467393FDF75FFF0F237793884B0A99A2
:10469000C6E90134874B7361874B3361874B062230
:1046A0007D92C5E90134864B6B61864B2B619FAAD5
:1046B0003B46CDE900650DF53460FEF78FFA0898AA
:1046C000FCF7E3FF0998FCF7E0FF3846FCF7DDFF55
:1046D00071A8FCF7DAFF9FA8FDF77CFB49469FA86D
:1046E000FDF70CFF71AA784B74930DF5E364774BDB
:1046F0007194114638467393FDF725FF6C4BCDF846
:10470000F4A10F227792C6E90134714B7361714BAA
:104710003361714BC5E90134704B6B6104F1100AD0
:104720006F4B2B619FAA3B465146CDE900650DF5C5
:104730003F60FEF753FA0898FCF7A7FF0998FCF7CB
:10474000A4FF3846FCF7A1FF71A8FCF79EFF9FA8C5
:10475000FDF740FB49469FA8FDF7D0FE61495FA8E1
:10476000FDF739FA4A494046FDF735FA71AA5E4B22
:10477000749311465D4B719438467393FDF7E3FED5
:104780005B4B7D942946EB6030465A4BAB60FDF79E
:10479000DAFE5F9B584AC4F888250F934FF0010258
:1047A000609B84F88D250A939FAA659BC4F890A509
:1047B000114684F88CB50D930DF6AC40D8F8043052
:1047C0000E93FDF79BFE39460DF60C50FDF7BBFE30
:1047D00031460DF61C50FDF7B6FE0F9BC4F814369B
:1047E0000A9BC4F818360D9BC4F81C360E9BC4F8FF
:1047F00020360DF63C33C4F8243694F8243484F87B
:1048000028363046FCF741FF2846FCF73EFF384685
:10481000FCF73BFF71A8FCF738FF9FA8FDF7DAFA19
:1048200049469FA8FDF76AFE34495FA8FDF7D3F912
:1048300033494046FDF7CFF971AA324B74931146C4
:10484000314B719438467393FDF77DFE2F4B7D9469
:104850002946EB6030462E4BAB60FDF774FE5F9B44
:104860000F93609B0E93659B0A934FF4C842D8F850
:104870000430A4F830260D939FAA264BC4F82C369A
:10488000C4F834A611460DF5556045E0679600085A
:1048900034980008670F00089F0400086F12000892
:1048A000B5040008E47F0008730F0008CB0400087B
:1048B00074960008910F0008E1040008849600082F
:1048C000E3110008F7040008AD0F00080D0500080B
:1048D000CB0F0008230500088B9600080312000880
:1048E00039050008FE950008E70F00084F0500088D
:1048F00003100008650500080C8000089596000864
:10490000A6960008391000087B050008BD120008B3
:104910009105000820800008FDF7F0FD39460DF5EF
:104920005B60FDF710FE31460DF55C60FDF70BFE98
:104930000F9B0E9AC4F8B836C4F8BC260DF6AC131B
:104940000A9AC4F8C026C4F8C8360D9A94F894326E
:10495000C4F8C42684F8CC363046FCF796FE2846C8
:10496000FCF793FE3846FCF790FE71A8FCF78DFE2D
:104970009FA8FDF72FFA49469FA8FDF7BFFDBF4945
:104980005FA8FDF728F9BE494046FDF724F971AA52
:10499000BC4B74931146BC4B719438467393FDF72E
:1049A000D2FDBA4B7D942946EB603046B84BAB60E4
:1049B000FDF7C9FDCDE9067642F6E063ADF81430A7
:1049C0000DF51B630393ADF810B098E8030001AA3E
:1049D0000A9282E80300609B00939FAA5F9B514666
:1049E0000DF6E850FEF71AF93046FCF74EFE284661
:1049F000FCF74BFE3846FCF748FE71A8FCF745FE75
:104A00009FA8FDF7E7F949469FA8FDF777FDA14963
:104A10005FA8FDF7E0F8A0494046FDF7DCF871AA71
:104A20009E4B749311469E4B719438467393FDF7D9
:104A30008AFD9C4B7D942946EB6030469A4BAB60D7
:104A4000FDF781FD4AF6C873ADF81430CDE906765E
:104A500044F25063ADF810300DF6AE13039398E8AE
:104A600003000A9A82E80300609B00939FAA5F9B61
:104A700051460DF68C60FEF7D1F83046FCF705FE86
:104A80002846FCF702FE3846FCF7FFFD71A8FCF74C
:104A9000FCFD9FA8FDF79EF9C4F818B849469FA8E9
:104AA000FDF72CFD814B6B943946FB604046804BF3
:104AB000BB60FDF748FD7F4B72937F4B76937F4B36
:104AC000759307227E4B71920C227792C6E90134CE
:104AD0007C4B73617C4B33617C4BC4F820A80E2265
:104AE0007D92C5E901347A4B6B617A4B2B619FAAA9
:104AF000794BC4F81C3811460DF63C707394FDF7E1
:104B0000FDFC41460DF69C70FDF71DFD71AA114696
:104B10000DF6AC70FEF728F831460DF6C470FEF7BE
:104B200023F829460DF6DC70FEF71EF8C4F8DCB851
:104B3000C4F8E0B80898FCF7A8FD0998FCF7A5FDB3
:104B40000B98FCF7A2FD4046FCF79FFD3846FCF7AA
:104B50009CFD9FA8FDF73EF949469FA8FDF7CEFCB6
:104B60005E4B7D942946EB6030465D4BAB60FDF7B4
:104B7000EAFC5C493846FDF72EF85B4971A8FDF761
:104B80002AF86B9A10927A680D92719AD4F8843050
:104B90000E92729A0F925549C4F8E4189FAA0DF527
:104BA0008050C4F8E8A803F51F7311460430119330
:104BB000FDF7A4FC0DF5835031460430FDF7C3FC2E
:104BC000109AC4F85C290D9AC4F860290E9A119BBA
:104BD000C4F864290F9AC4F86829C4F86C393046BF
:104BE000FCF753FD2846FCF750FD9FA8FDF7F2F8AF
:104BF00049469FA8FDF782FC3D495FA8FCF7EBFF03
:104C000039494046FCF7E7FF71AA3A4B74931146C5
:104C1000394B719438467393FDF795FC374B7D946F
:104C20002946EB603046364BAB60FDF78CFCCDE996
:104C300006764FF064020DF57363ADF8142003930C
:104C4000ADF810B098E803000A9AC2E900019FA8E5
:104C50000246609B00930DF584505F9B51460830DF
:104C6000FDF7DCFF3046FCF710FD2846FCF70DFD94
:104C70003846FCF70AFD71A844E000BFA996000879
:104C8000B996000845100008A7050008DF120008C3
:104C9000BD0500084B960008BD960008511000089D
:104CA000D305000801130008E90500085D1000089D
:104CB000FF050008C19600088B10000815060008C3
:104CC000C9960008231300082B060008D696000892
:104CD0003D130008410600084880000897100008AE
:104CE00057060008E5960008F59600089C7F000826
:104CF000F8960008A31000086D0600085713000876
:104D000083060008FCF7C1FC9FA8FDF763F849463D
:104D10009FA8FDF7F3FBB7495FA8FCF75CFFB64916
:104D20004046FCF758FFB54B749371A9B44B71948E
:104D300038467393FDF707FCB24B7D942946EB6030
:104D40003046B14BAB60FDF7FEFBCDE906764FF088
:104D500064020DF63273ADF814200393ADF810B071
:104D600098E803000A9AC2E900019FA80246609BE6
:104D700000930DF589505F9B51460C30FDF74EFFB7
:104D80003046FCF782FC2846FCF77FFC3846FCF7EF
:104D90007CFC71A8FCF779FC9FA8FDF71BF849463D
:104DA0009FA8FDF7ABFB994B749371A9984B719435
:104DB00038467393FDF7C7FB964B73600A20964BFA
:104DC00077907361954B3361954B08207D90C5E9D1
:104DD00001349FA8934B6B610246934B2B610DF5F9
:104DE0008E503B465146CDE900651030FDF7F6FE8A
:104DF0000898FCF74AFC0998FCF747FC3846FCF792
:104E000044FC71A8FCF741FC9FA8FCF7E3FF49466E
:104E10009FA8FDF773FB854B749371A9844B719424
:104E200038467393FDF78FFB824B08207790C6E9D5
:104E30000134814B7361814B3361814B6B6007207F
:104E4000804B7D906B619FA87F4B2B6102463B4658
:104E50005146CDE900650DF59450FDF7BFFE089869
:104E6000FCF713FC0998FCF710FC3846FCF70DFC26
:104E700071A8FCF70AFC9FA8FCF7ACFF49469FA865
:104E8000FDF73CFB714B65944146C8F80C305FA8B8
:104E90006F4BC8F80830FDF756FB08206D4B6B9040
:104EA0007B616D4B3B616D4B72936D4B76936D4B9C
:104EB00075936D4B71900B207790C6E901346B4B65
:104EC00073616B4B33616B4B6B4A73940A207D901B
:104ED000C5E90134694B6B615FA8694B2B61C7E978
:104EE0000124034671AA9FA8CDE9007202460DF580
:104EF00099505146CDE902651030FDF745FE0898FE
:104F0000FCF7C3FB0998FCF7C0FB0B98FCF7BDFB53
:104F10000C98FCF7BAFB5FA8FCF7B7FB4046FCF720
:104F2000B4FB9FA8FCF756FFD4F8803049469B7D20
:104F300084F8F83C9FA8FDF7E1FA4F495FA8FCF719
:104F40004AFE50494046FCF746FE4F4B749371A908
:104F50004E4B719438467393FDF7F5FA4C4B7D94A4
:104F60002946EB6030464B4BAB60FDF7ECFA5F9A9D
:104F70004949C4F8FC1C0C924FF48071659A609BFF
:104F8000A4F8001DC4F804AD08929FA9D8F8042025
:104F90000B930DF5A1500992FDF7B0FA39460DF5C6
:104FA000A450FDF7D0FA0DF5A45031461030FDF7AE
:104FB000CAFA0B9BC4F88C3D0C9AC4F8882D0DF5E9
:104FC000A053089AC4F8902D1033099AC4F8983D5C
:104FD00094F8F83CC4F8942D84F89C3D3046FCF7D6
:104FE00054FB2846FCF751FB3846FCF74EFB71A8F2
:104FF00054E000BF08970008F5960008AF100008BD
:105000009906000879130008AF060008BB100008D5
:10501000C506000817970008DB060008DD06000833
:105020002297000813150008E7060008C7100008BB
:10503000FD0600082B970008D3100008130700088E
:10504000349700081515000829070008DF1000082C
:1050500033070008EB1000084907000845970008CF
:10506000F71000085F0700084E97000803110008BA
:10507000750700085A9700083C9700080F110008B0
:105080008B070008349800081B110008A1070008CE
:1050900027110008B70700085C800008FCF7F5FA44
:1050A0009FA8FCF797FED4F8803049461B8AA4F8E5
:1050B000A03D9FA8FDF722FABB495FA8FCF78BFD36
:1050C000BA494046FCF787FDB94B749371A9B94BB7
:1050D000719438467393FDF736FAB74B7D942946A1
:1050E000EB603046B54BAB60FDF72DFA4FF47A63B9
:1050F000ADF81430CDE906760DF5A55318330393BA
:10510000ADF810B098E803000A9AC2E900019FA91F
:10511000609B00930DF5A5500A465F9B51461C30DD
:10512000FDF77CFD3046FCF7B0FA2846FCF7ADFAF7
:105130003846FCF7AAFA71A8FCF7A7FA9FA8FCF773
:1051400049FED4F8803049461B7D84F8483E9FA82C
:10515000FDF7D4F99A495FA8FCF73DFD994940460F
:10516000FCF739FD984B749371A9984B71943846AC
:105170007393FDF7E8F9964B7D942946EB60304632
:10518000944BAB60FDF7DFF95F9A609B0C920B9339
:10519000659A914BC4F84C3E46F202410DF5AB5076
:1051A000A4F8501EC4F854AE08929FA9D8F8042061
:1051B00009921030FDF7A2F90DF5AE5039461030C6
:1051C000FDF7C1F931460DF5AF50FDF7BCF90B9B6A
:1051D000C4F8DC3E089BC4F8E03E099BC4F8E43EFA
:1051E0000DF5AB530C9AC4F8E83E94F8483EC4F869
:1051F000D82E84F8EC3E3046FCF747FA2846FCF7F8
:1052000044FA3846FCF741FA71A8FCF73EFA9FA829
:10521000FCF7E0FDD4F8803049465B8AA4F8F03E04
:105220009FA8FDF76BF96D495FA8FCF7D4FC6C49AA
:105230004046FCF7D0FC6B4B749371A96A4B719498
:1052400038467393FDF77FF9684B7D942946EB60F0
:105250003046674BAB60FDF776F94FF4FA63ADF873
:105260001430CDE906760DF5B0534FF064020833E3
:10527000ADF81020039398E803000A9B83E803002D
:105280000DF5B050609B00939FAA5F9B51460C3078
:10529000FDF7C4FC3046FCF7F8F92846FCF7F5F9B1
:1052A00038460DF5E364FCF7F0F971A8FCF7EDF969
:1052B0009FA8FCF78FFD4946C4F898BF9FA8FDF74B
:1052C0001DF94C4B65944146C8F80C305FA84A4B19
:1052D000C8F80830FDF737F905236B93474B7394F3
:1052E000C7E90134464B7B61464B3B610823719310
:1052F000454B7293454B7693454B759310237793AB
:10530000444BC6E90134444B7361444B33610F2372
:105310007D93434BC5E90134424B6B61424B2B619A
:1053200004F1100A71AB0DF5B5509FAA5146CDE9B5
:105330000073CDE902655FAB1430FDF725FC7FA853
:10534000FCF7A3F979A8FCF7A0F973A8FCF79DF97D
:105350006DA8FCF79AF95FA8FCF797F94046FCF7AF
:1053600094F99FA8FCF736FD49469FA8FDF7C6F8BB
:105370002E495FA8FCF72FFC2D494046FCF72BFC7B
:105380002C4B749371A92C4B739338467194FDF791
:10539000DAF82A4B7D942946EB603046284BAB6007
:1053A000FDF7D1F8FF234DE065970008BD96000892
:1053B00043110008CD0700084F110008E30700085B
:1053C000769700083398000865110008F90700086F
:1053D000711100080F080008208000088797000856
:1053E0009797000887110008250800089311000806
:1053F0003B080008A9110008510800089B97000805
:105400009B13000867080008A19700087D080008A2
:105410008D080008AA97000803150008A3080008D3
:10542000BB97000811150008B9080008CB970008C1
:1054300034980008D7110008CF080008B7130008F7
:10544000E5080008ADF814304FF00103ADF8103056
:10545000CDE906760DF5B5531033039398E80300B4
:1054600001AB83E803000DF5BC50609B00939FAA3D
:105470005F9B51461430FDF7D1FB3046FCF705F930
:105480002846FCF702F93846FCF7FFF871A8FCF74C
:10549000FCF89FA8FCF79EFC2046FCF753F9D4F8D3
:1054A000980003681B689847E36E93F8303023B97F
:1054B000FEE769F38A23FEF707BC0023A393A093BA
:1054C000A493A1938DF888322A4A9F924FF4FA73DD
:1054D0009FA8A393FCF736F9274F284C284DBDF819
:1054E0001437BDF84C20ADF84830DBB2ADF8942548
:1054F0001A0701D59E0705D49DF84830580725D5D1
:10550000990723D4002338468DF8C834FDF796FD5B
:105510009DF84830DA071FD59B0712A818D5FBF76E
:105520007DFCC8B99FA8FCF7E1F801462046FCF7CE
:105530008DF812A8FBF772FCC0B19FA8FCF7D6F853
:1055400001462846FCF782F830BFC8E70123DAE7B6
:10555000FBF764FC064618B12046FBF7EFFFE8E7CF
:105560002046FBF7E5FF8DF87464E2E72846FBF779
:10557000E5FFE9E7907F000804030020F80200201F
:10558000EC02002038B505460C46FDF788FBAB68F9
:10559000A268AA60A360E268EB68EA60E36038BDD5
:1055A00030B5044689B00846002369460293FFF7E8
:1055B000E9FF23689C6F2368694604A81D69FDF70D
:1055C000C4FA04A92046A84704A8FCF75EF8684678
:1055D000FCF75BF809B030BD30B5044689B0084629
:1055E000002369460293FFF7CDFF23685C6F2368B1
:1055F000694604A81D69FDF7A8FA04A92046A84732
:1056000004A8FCF742F86846FCF73FF809B030BD43
:105610001FB504466846FDF798FA21466846FFF72D
:10562000B1FF6846FCF731F8204604B010BD08B55C
:105630005430FFF7EDFF08BD08B55430FFF7E8FF21
:1056400008BD08B55430FFF7E3FF08BD1FB550B1E2
:105650006846FCF778FF029B13B16846FDF780F9B6
:105660006846FCF712F805B05DF804FB07B58268E0
:1056700001910AB901F0C0FFC36801A9984703B0BE
:105680005DF804FB7FB50446406EFBF7D5FF08B913
:10569000A36E8BB3606EFBF7CFFF054680BB637CC8
:1056A00063BB94F8706004F124016846FCF74BFF7B
:1056B00069463046FFF7CAFF6846FBF7E6FF637CA2
:1056C00033B994F870501DB194F8715085F001050C
:1056D00004F134016846FCF736FF69462846FFF7B7
:1056E000B5FF6846FBF7D1FF00230122C4E91A3257
:1056F00084F8703084F8713004B070BD0646D2E78B
:10570000A36E0133092BA36622D994F870208AB9BD
:10571000657C012384F870305D4004F11401684613
:10572000FCF711FF28466946FFF790FF6846FBF734
:10573000ACFFE1E7B3F57A7F0AD394F871203AB968
:10574000657C012384F871305D4004F14401E6E793
:10575000E26D002AD0D0B3F57A7FCDD9B3F5FA6FD8
:105760000CD8C821B3FBF1F201FB1233002BC3D1DB
:10577000012104F15400FFF779FFBDE740F6B8328C
:10578000934201D86421EDE7B3F57A6F01D8322155
:10579000E8E71921B3FBF1F201FB123241F2883143
:1057A0008B4202D8002AA7D1E2E7002AA4D1E16EF9
:1057B00004F15400FFF75AFFA16E4FF47A72B1FB67
:1057C000F2F302FB1313002B96D1E36E0133E36671
:1057D00092E7A0F1040055E77FB50446406EFBF761
:1057E0002BFF08B9A36E8BB3606EFBF725FF054650
:1057F00080BB637C63BB94F8706004F1240168464D
:10580000FCF7A1FE69463046FFF720FF6846FBF72C
:105810003CFF637C33B994F870501DB194F871501B
:1058200085F0010504F134016846FCF78CFE6946F9
:105830002846FFF70BFF6846FBF727FF00230122EE
:10584000C4E91A3284F8703084F8713004B070BD45
:105850000646D2E7A36E0133092BA36622D994F83A
:1058600070208AB9657C012384F870305D4004F1B2
:1058700014016846FCF767FE28466946FFF7E6FE16
:105880006846FBF702FFE1E7B3F57A7F0AD394F8A5
:1058900071203AB9657C012384F871305D4004F1D0
:1058A0004401E6E7E26D002AD0D0B3F57A7FCDD986
:1058B000B3F5FA6F0CD8C821B3FBF1F201FB123338
:1058C000002BC3D1012104F15400FFF7CFFEBDE747
:1058D00040F6B832934201D86421EDE7B3F57A6F10
:1058E00001D83221E8E71921B3FBF1F201FB1232B2
:1058F00041F288318B4202D8002AA7D1E2E7002A80
:10590000A4D1E16E04F15400FFF7B0FEA16E4FF494
:105910007A72B1FBF2F302FB1313002B96D1E36E04
:105920000133E36692E7A0F1040055E77FB5044632
:10593000406EFBF781FE08B9A36E8BB3606EFBF778
:105940007BFE054680BB637C63BB94F8706004F10A
:1059500024016846FCF7F7FD69463046FFF776FEFE
:105960006846FBF792FE637C33B994F870501DB122
:1059700094F8715085F0010504F134016846FCF794
:10598000E2FD69462846FFF761FE6846FBF77DFEAB
:1059900000230122C4E91A3284F8703084F871308F
:1059A00004B070BD0646D2E7A36E0133092BA3668F
:1059B00022D994F870208AB9657C012384F870306C
:1059C0005D4004F114016846FCF7BDFD28466946B8
:1059D000FFF73CFE6846FBF758FEE1E7B3F57A7F38
:1059E0000AD394F871203AB9657C012384F87130A8
:1059F0005D4004F14401E6E7E26D002AD0D0B3F542
:105A00007A7FCDD9B3F5FA6F0CD8C821B3FBF1F288
:105A100001FB1233002BC3D1012104F15400FFF725
:105A200025FEBDE740F6B832934201D86421EDE788
:105A3000B3F57A6F01D83221E8E71921B3FBF1F20F
:105A400001FB123241F288318B4202D8002AA7D1E1
:105A5000E2E7002AA4D1E16E04F15400FFF706FE4C
:105A6000A16E4FF47A72B1FBF2F302FB1313002B19
:105A700096D1E36E0133E36692E7A0F1040055E7A7
:105A800030B50025C0E900550978017012784270E0
:105A90001B788370039B1B78C370049B1B78037176
:105AA000059B1B7843710623836030BDF0B5FF234F
:105AB000074F084E1D4611F8014B5C4091423B5D7B
:105AC00083EA0503355DF6D105704370F0BD00BF74
:105AD0004C8300084C84000810B58AB000238DF870
