:020000040800F2
:10000000000002202162000871620008716200088D
:10001000716200087162000871620008000000004F
:1000200000000000000000000000000071620008F5
:10003000716200080000000071620008DD12000813
:10004000C5140008C7140008C9140008CB14000820
:10005000CD140008CF140008D1140008D3140008F0
:10006000D5140008D7140008D91400088915000811
:10007000A5150008C1150008DD150008F9150008D0
:100080001516000831160008DB140008DD140008FE
:10009000DF140008E1140008E3140008E514000868
:1000A000191500081B1500081D1500081F1500086C
:1000B000211500082315000825150008E71400087D
:1000C000E9140008EB140008ED14000849170008B3
:1000D0005517000835150008511500086D15000862
:1000E000EF140008F1140008F31400082D1500089F
:1000F0002F15000831150008331500084D160008AB
:10010000F5140008F7140008271500086117000807
:10011000F9140008FB140008291500082B15000825
:100120006916000885160008A1160008BD1600080B
:10013000D91600080000000000000000FD140008AF
:10014000FF14000801150008031500080515000834
:10015000F5160008111700082D17000807150008EC
:10016000091500080B1500080D1500080F150008EB
:100170001115000813150008000000000000000021
:08018000151500081715000811
:1001900010B5054C237833B9044B13B10448AFF3C1
:1001A00000800123237010BD6800002000000000C3
:1001B000DC6B000808B5034B1BB103490348AFF3E0
:1001C000008008BD000000006C000020DC6B00080F
:1001D000034613F8012B002AFBD1181A0138704787
:1001E00001F0FF01102A2BDB10F0070F08D010F8E8
:1001F000013B013A8B422DD010F0070F42B3F6D1EC
:10020000F0B441EA012141EA014122F007047FF004
:1002100000070023F0E80256083C85EA010586EA5B
:10022000010685FA47F5A3FA87F586FA47F6A5FA97
:1002300087F68EB9EED1F0BC01F0FF0102F00702A3
:1002400032B110F8013B013A83EA010313B1F8D14E
:100250000020704701387047002D06BF354603382F
:10026000073815F0010F07D1013015F4807F02BF68
:10027000013015F4C03F0130F0BC0138704700BFB9
:100280004209012300F01F0003FA00F0014B43F87C
:100290002200704700E100E0436901334361704789
:1002A00070477047012A03D0022A03D0002070470C
:1002B0000160FBE70B680360F8E77047012A03D091
:1002C000022A03D0002070470160FBE70B6803603F
:1002D000F8E7012A03D0022A03D00020704701600A
:1002E000FBE70B680360F8E703680A221A8070478F
:1002F000012A03D0022A03D0002070470160FBE7E7
:100300000B680360F8E7012A03D0022A03D000201B
:1003100070470160FBE70B680360F8E7012A03D030
:10032000022A03D0002070470160FBE70B680360DE
:10033000F8E7012A03D0022A03D0002070470160A9
:10034000FBE70B680360F8E7012A03D0022A03D019
:10035000002070470160FBE70B680360F8E7012AA3
:1003600003D0022A03D0002070470160FBE70B682E
:100370000360F8E7012A03D0022A03D00020704767
:100380000160FBE70B680360F8E7012A03D0022A4B
:1003900003D0002070470160FBE70B680360F8E7BB
:1003A000012A03D0022A03D0002070470160FBE736
:1003B0000B680360F8E7012A03D0022A03D000206B
:1003C00070470160FBE70B680360F8E7012A03D080
:1003D000022A03D0002070470160FBE70B6803602E
:1003E000F8E7012A03D0022A03D0002070470160F9
:1003F000FBE70B680360F8E7012A03D0022A03D069
:10040000002070470160FBE70B680360F8E7012AF2
:1004100003D0022A03D0002070470160FBE70B687D
:100420000360F8E7012A03D0022A03D000207047B6
:100430000160FBE70B680360F8E7012A03D0022A9A
:1004400003D0002070470160FBE70B680360F8E70A
:10045000012A03D0022A03D0002070470160FBE785
:100460000B680360F8E7012A03D0022A03D00020BA
:1004700070470160FBE70B680360F8E7012A03D0CF
:10048000022A03D0002070470160FBE70B6803607D
:10049000F8E7012A03D0022A03D000207047016048
:1004A000FBE70B680360F8E7012A03D0022A03D0B8
:1004B000002070470160FBE70B680360F8E7012A42
:1004C00003D0022A03D0002070470160FBE70B68CD
:1004D0000360F8E7012A03D0022A03D00020704706
:1004E0000160FBE70B680360F8E7012A03D0022AEA
:1004F00003D0002070470160FBE70B680360F8E75A
:10050000012A03D0022A03D0002070470160FBE7D4
:100510000B680360F8E7012A03D0022A03D0002009
:1005200070470160FBE70B680360F8E7012A03D01E
:10053000022A03D0002070470160FBE70B680360CC
:10054000F8E7012A03D0022A03D000207047016097
:10055000FBE70B680360F8E7012A03D0022A03D007
:10056000002070470160FBE70B680360F8E7012A91
:1005700003D0022A03D0002070470160FBE70B681C
:100580000360F8E7012A03D0022A03D00020704755
:100590000160FBE70B680360F8E7012A03D0022A39
:1005A00003D0002070470160FBE70B680360F8E7A9
:1005B000012A03D0022A03D0002070470160FBE724
:1005C0000B680360F8E7012A03D0022A03D0002059
:1005D00070470160FBE70B680360F8E7012A03D06E
:1005E000022A03D0002070470160FBE70B6803601C
:1005F000F8E7012A03D0022A03D0002070470160E7
:10060000FBE70B680360F8E7012A03D0022A03D056
:10061000002070470160FBE70B680360F8E7012AE0
:1006200003D0022A03D0002070470160FBE70B686B
:100630000360F8E7012A03D0022A03D000207047A4
:100640000160FBE70B680360F8E7012A03D0022A88
:1006500003D0002070470160FBE70B680360F8E7F8
:10066000012A03D0022A03D0002070470160FBE773
:100670000B680360F8E7012A03D0022A03D00020A8
:1006800070470160FBE70B680360F8E7012A03D0BD
:10069000022A03D0002070470160FBE70B6803606B
:1006A000F8E7012A03D0022A03D000207047016036
:1006B000FBE70B680360F8E7012A03D0022A03D0A6
:1006C000002070470160FBE70B680360F8E77047A4
:1006D000012A08BF016000207047012A03D0022AC6
:1006E00003D0002070470160FBE70B680360F8E768
:1006F000012A03D0022A03D0002070470160FBE7E3
:100700000B680360F8E7012A03D0022A03D0002017
:1007100070470160FBE70B680360F8E7012A08BF38
:10072000016000207047012A03D0022A03D0002074
:1007300070470160FBE70B680360F8E7012A03D00C
:10074000022A03D0002070470160FBE70B680360BA
:10075000F8E7012A03D0022A03D000207047016085
:10076000FBE70B680360F8E7012A03D0022A03D0F5
:10077000002070470160FBE70B680360F8E7012A7F
:1007800003D0022A03D0002070470160FBE70B680A
:100790000360F8E7012A03D0022A03D00020704743
:1007A0000160FBE70B680360F8E7012A03D0022A27
:1007B00003D0002070470160FBE70B680360F8E797
:1007C000012A03D0022A03D0002070470160FBE712
:1007D0000B680360F8E7012A03D0022A03D0002047
:1007E00070470160FBE70B680360F8E7012A03D05C
:1007F000022A03D0002070470160FBE70B6803600A
:10080000F8E7012A03D0022A03D0002070470160D4
:10081000FBE70B680360F8E7012A03D0022A03D044
:10082000002070470160FBE70B680360F8E7012ACE
:1008300003D0022A03D0002070470160FBE70B6859
:100840000360F8E7C36A0133C36270470022027095
:1008500042707047002202704270704770477047C4
:100860007047704770477047704770477047012A5C
:1008700003D0022A03D0002070470160FBE70B6819
:100880000360F8E7012A03D0022A03D00020704752
:100890000160FBE70B680360F8E7012A03D0022A36
:1008A00003D0002070470160FBE70B680360F8E7A6
:1008B000012A03D0022A03D0002070470160FBE721
:1008C0000B680360F8E7012A03D0022A03D0002056
:1008D00070470160FBE70B680360F8E7012A03D06B
:1008E000022A03D0002070470160FBE70B68036019
:1008F000F8E7012A03D0022A03D0002070470160E4
:10090000FBE70B680360F8E7012A03D0022A03D053
:10091000002070470160FBE70B680360F8E7012ADD
:1009200003D0022A03D0002070470160FBE70B6868
:100930000360F8E7012A03D0022A03D000207047A1
:100940000160FBE70B680360F8E7012A03D0022A85
:1009500003D0002070470160FBE70B680360F8E7F5
:10096000012A03D0022A03D0002070470160FBE770
:100970000B680360F8E7012A03D0022A03D00020A5
:1009800070470160FBE70B680360F8E7012A03D0BA
:10099000022A03D0002070470160FBE70B68036068
:1009A000F8E7012A03D0022A03D000207047016033
:1009B000FBE70B680360F8E7012A03D0022A03D0A3
:1009C000002070470160FBE70B680360F8E7012A2D
:1009D00003D0022A03D0002070470160FBE70B68B8
:1009E0000360F8E7012A03D0022A03D000207047F1
:1009F0000160FBE70B680360F8E7012A03D0022AD5
:100A000003D0002070470160FBE70B680360F8E744
:100A1000012A03D0022A03D0002070470160FBE7BF
:100A20000B680360F8E7012A03D0022A03D00020F4
:100A300070470160FBE70B680360F8E7012A03D009
:100A4000022A03D0002070470160FBE70B680360B7
:100A5000F8E7012A03D0022A03D000207047016082
:100A6000FBE70B680360F8E7012A03D0022A03D0F2
:100A7000002070470160FBE70B680360F8E7012A7C
:100A800003D0022A03D0002070470160FBE70B6807
:100A90000360F8E7012A03D0022A03D00020704740
:100AA0000160FBE70B680360F8E7012A03D0022A24
:100AB00003D0002070470160FBE70B680360F8E794
:100AC000012A03D0022A03D0002070470160FBE70F
:100AD0000B680360F8E7012A03D0022A03D0002044
:100AE00070470160FBE70B680360F8E7012A03D059
:100AF000022A03D0002070470160FBE70B68036007
:100B0000F8E7012A03D0022A03D0002070470160D1
:100B1000FBE70B680360F8E7012A03D0022A03D041
:100B2000002070470160FBE70B680360F8E7012ACB
:100B300003D0022A03D0002070470160FBE70B6856
:100B40000360F8E7012A03D0022A03D0002070478F
:100B50000160FBE70B680360F8E7012A03D0022A73
:100B600003D0002070470160FBE70B680360F8E7E3
:100B7000012A03D0022A03D0002070470160FBE75E
:100B80000B680360F8E7012A03D0022A03D0002093
:100B900070470160FBE70B680360F8E7012A03D0A8
:100BA000022A03D0002070470160FBE70B68036056
:100BB000F8E7012A03D0022A03D000207047016021
:100BC000FBE70B680360F8E7012A03D0022A03D091
:100BD000002070470160FBE70B680360F8E7012A1B
:100BE00003D0022A03D0002070470160FBE70B68A6
:100BF0000360F8E7012A03D0022A03D000207047DF
:100C00000160FBE70B680360F8E7012A03D0022AC2
:100C100003D0002070470160FBE70B680360F8E732
:100C2000012A03D0022A03D0002070470160FBE7AD
:100C30000B680360F8E7012A03D0022A03D00020E2
:100C400070470160FBE70B680360F8E7012A03D0F7
:100C5000022A03D0002070470160FBE70B680360A5
:100C6000F8E78368D969D1F818211268D20618D537
:100C7000D1F820215268002092B2C1F80001C2F1DF
:100C8000FF00FF2828BFFF20FF2AC1F8040108D079
:100C9000DA6AD9691A63D1F80421D1F80011521A1D
:100CA0001A64704770B50546006803680C469B6877
:100CB000984723682C6020461B68BDE870401847A1
:100CC000006800F5BA718830FFF7ECBF006800F1EA
:100CD000F0018830FFF7E6BF006800F51B7188302F
:100CE000FFF7E0BF0168D1F880309B7F01F18800F9
:100CF0001BB101F2A441FFF7D5BF01F57D71FAE701
:100D0000006800F554718830FFF7CCBF006800F62A
:100D100048318830FFF7C6BF006800F69821883058
:100D2000FFF7C0BF006800F5BA718830FFF7BABF9F
:100D3000006800F5C0618830FFF7B4BF006800F5B7
:100D4000D5618830FFF7AEBF006800F5EA618830F2
:100D5000FFF7A8BF006800F2F4718830FFF7A2BF68
:100D6000006800F5BA718830FFF79CBF006890F802
:100D70004C33D0F88020003318BF012300F5BA713E
:100D800053778830FFF78EBF006800F5BA7188305E
:100D9000FFF788BF006800F5AB618830FFF782BFBE
:100DA0000068D0F88030012200F1F0019A77883095
:100DB000FFF778BF006800F5BA718830FFF772BF9F
:100DC000006800F5AB618830FFF76CBF0068D0F8B1
:100DD0008030002200F1F0019A778830FFF762BF7F
:100DE0000168D1F880309B7F01F188001BB101F2CE
:100DF000A441FFF757BF01F57D71FAE7016891F84B
:100E00005435D1F88020003318BF01231377D1F86F
:100E100080309B7F01F188001BB101F2A441FFF7F4
:100E200041BF01F57D71FAE7006800F51B7188305C
:100E3000FFF738BF0068D0F8803090F8FC255A766C
:100E400000F51B718830FFF72DBF006800F51B719E
:100E50008830FFF727BF0068D0F88030B0F8A426AC
:100E60005A8100F51B718830FFF71CBF006800F540
:100E70001B718830FFF716BF0068D0F88030B0F8DB
:100E80004C271A8100F51B718830FFF70BBF0068F3
:100E900000F5BA718830FFF705BF006800F6BC01A5
:100EA0008830FFF7FFBE006800F64C118830FFF76E
:100EB000F9BE006800F6F4118830FFF7F3BE006851
:100EC00000F2F4718830FFF7EDBE006800F2F471B3
:100ED0008830FFF7E7BE0068D0F8803090F84829E6
:100EE0009A7600F2F4718830FFF7DCBE006800F2F9
:100EF000F4718830FFF7D6BE0068D0F8803090F8E3
:100F0000F029DA7600F2F4718830FFF7CBBE006882
:100F100000F5BA718830FFF7C5BE006800F5BA71F8
:100F20008830FFF7BFBE006800F6F8318830FFF761
:100F3000B9BE006800F648318830FFF7B3BE0068DC
:100F400000F6DC418830FFF7ADBE006800F6845142
:100F50008830FFF7A7BE006800F62C618830FFF7E5
:100F6000A1BE006800F6D4618830FFF79BBE006820
:100F700000F6F8318830FFF795BE006890F8D83C4D
:100F8000D0F88020003318BF012300F6F831D37762
:100F90008830FFF787BE006800F6F8318830FFF729
:100FA00081BE0068D0F88030B0F8802D9A8200F6BB
:100FB000F8318830FFF776BE006800F6F8318830E7
:100FC000FFF770BE0068D0F8803090F8282E1A76AF
:100FD00000F6F8318830FFF765BE006800F6F8319A
:100FE0008830FFF75FBE0068D0F88030B0F8D02EB0
:100FF000DA8200F6F8318830FFF754BE0B1A9B10E6
:10100000002B10DD027812B342780AB90130704724
:1010100082780AB902307047C2780AB90330704743
:101020000430013BECE70B1A022B0BD0032B06D04C
:10103000012B0BD10378002B18BF084670470378AB
:101040002BB10130037813B10130F3E70846704744
:101050000B1A9B10002B10DD027812BB42780AB1EC
:101060000130704782780AB102307047C2780AB105
:10107000033070470430013BECE70B1A022B0BD016
:10108000032B06D0012B0BD10378002B08BF084699
:10109000704703782BB90130037813B90130F3E7B7
:1010A0000846704710B504462CB1236820461B68DB
:1010B00098476468F8E710BD30235943037A43B179
:1010C0000F4B9B680360994224BFCB1A43600023F7
:1010D000037203680A4A994207D892689B1A994298
:1010E0000CD8012303720020704791688B4205D809
:1010F000536892689B1A42689342F2D2012070476B
:1011000010E000E0D0F88C203221531CC0F88C3065
:10111000B2FBF1F301FB132323B9D0F88800036875
:101120005B68184770470A1A02D0202105F0FBB807
:1011300070477047704700000369002BBFBF034B27
:10114000436003F188334360704700BF2301674564
:10115000D0E900120123103293408B61704703687D
:1011600010B504469869FFF7F3FFC8216068FFF7E0
:10117000A3FF0028F9D123689B69D3E9002101234B
:101180008B409361C8216068FFF796FF0028F9D172
:1011900010BD38B50368044618690D46FFF7D8FF3F
:1011A00023686068DA699B6A53F835309361FFF70A
:1011B000D6FF23686068996ADA6901EBC5014B685C
:1011C0009361FFF7CCFF6421A068FFF775FF00284B
:1011D000F9D138BD38B5437B012B044625D002D365
:1011E000022B2FD038BD4069FFF7B2FF2369256A73
:1011F0001A685B68012101FA03F39361626B502066
:1012000053186363B2FBF0F300FB1323124A52F846
:101210002330EA5C636A03EBC20553F83200E269EB
:101220006B689061E3626173DCE78069D0E900215B
:101230008B409361FFF78CFFE369E26A9A610223B6
:101240006373CFE78069D0E9002101238B4093616C
:10125000FFF77EFF0023F3E7D46D000803684168C1
:101260001A6901238B40134214BF012000207047EC
:1012700010B504682CB1236820461B689847A46801
:10128000F8E710BD10B58368044613B10322014688
:101290009847204610BD000010B5064B044640F8A4
:1012A000203BFFF7EFFF04F11000FFF7EBFF2046B4
:1012B00010BD00BF506C000810B504460830FFF7A1
:1012C000D7FFD4E90421531C2361B2FBF1F301FBE6
:1012D000132313B92046FFF7CBFF10BD0148FFF7DA
:1012E000EBBF00BF1C040020426903699A424FF023
:1012F000000326BF4361012018467047037BC3B13A
:1013000000230373D0E901236AB143B1936083687A
:101310005A600023C0E9013370470B60F8E70549C4
:1013200093604A60F5E70349002BF6D1C1E9003329
:10133000EFE770471C04002000224261FFF7DEBF88
:10134000037B53B901230373044B5A68426002B113
:1013500090601A68586002B9186070471C04002039
:101360000A2A10B501D00F2A15D1204B9A68C2F372
:101370004232D2B1042A1AD0052A1AD01C4B1D4C75
:10138000062A08BF234607291AD8DFE801F0141AF5
:101390001D202326292C0B3A032A04D8134B9A68C4
:1013A000C2F38222E5E70023EDE7134BEBE7134B93
:1013B000E9E7134BE7E74FF41652B3FBF2F3836010
:1013C00010BD4FF46152F8E74FF49642F5E74FF441
:1013D000E142F2E74FF41642EFE74FF46142ECE7E7
:1013E0004FF49632E9E74FF4E132E6E70038024085
:1013F000C0C62D00808D5B00006CDC0200366E01E3
:10140000001BB70019B90068C0F3401070470129EC
:1014100003D10068C0F3C0207047022903D10068DF
:10142000C0F340507047032903D10068C0F3C06087
:101430007047042901D14068E6E7052901D14068D9
:10144000E8E7062901D14068EAE7072901D14068A9
:10145000ECE70020704770B58668F36993F82811AF
:10146000D3F81401FFF7CEFF58B3F4690025C4F890
:101470000051C4F80451D4F81001FFF769FED4F804
:101480001C311A6865F300021A60D4F820311A681A
:1014900065F300021A60FF225A60D4F820311A68FE
:1014A00042F001021A601A68D207FCD5D4F818215C
:1014B000D36843F01003D3603046BDE87040FFF7B7
:1014C0003FBF70BDFEE7FEE7FEE7FEE7FEE7FEE793
:1014D000FEE7FEE7FEE7FEE7FEE7FEE7FEE7FEE7E4
:1014E000FEE7FEE7FEE7FEE7FEE7FEE7FEE7FEE7D4
:1014F000FEE7FEE7FEE7FEE7FEE7FEE7FEE7FEE7C4
:10150000FEE7FEE7FEE7FEE7FEE7FEE7FEE7FEE7B3
:10151000FEE7FEE7FEE7FEE7FEE7FEE7FEE7FEE7A3
:10152000FEE7FEE7FEE7FEE7FEE7FEE7FEE7FEE793
:10153000FEE7FEE708B5044B1868FFF7B3FD034B61
:101540001A685B6808BD00BF040400200010014059
:1015500008B5044B1868FFF7A5FD034B1A685B68D4
:1015600008BD00BF0C0400200044004008B5044B37
:101570001868FFF797FD034B1A685B6808BD00BF4A
:10158000140400200048004008B5044B1868FFF719
:1015900089FD034B3D229A6008BD00BF6C0300200B
:1015A0000060024008B5044B1868FFF77BFD034B51
:1015B0004FF474629A6008BD74030020006002401A
:1015C00008B5044B1868FFF76DFD034B4FF4741218
:1015D0009A6008BD7C0300200060024008B5044BFF
:1015E0001868FFF75FFD034B4FF074629A6008BD07
:1015F000840300200060024008B5044B1868FFF720
:1016000051FD034B4FF47462DA6008BD8C03002077
:101610000060024008B5044B1868FFF743FD034B18
:101620004FF47462DA6008BD940300200060024049
:1016300008B5044B1868FFF735FD034B4FF47412DF
:10164000DA6008BD9C0300200060024008B5044B2E
:101650001868FFF727FD034B4FF07462DA6008BD8E
:10166000A40300200060024008B5044B1868FFF78F
:1016700019FD034B3D229A6008BD00BFAC0300205A
:101680000064024008B5044B1868FFF70BFD034BDC
:101690004FF474629A6008BDB403002000640240F5
:1016A00008B5044B1868FFF7FDFC034B4FF47412A8
:1016B0009A6008BDBC0300200064024008B5044BDA
:1016C0001868FFF7EFFC034B4FF074629A6008BD97
:1016D000C40300200064024008B5044B1868FFF7FB
:1016E000E1FC034B3D22DA6008BD00BFCC030020C3
:1016F0000064024008B5044B1868FFF7D3FC034BA5
:101700004FF47462DA6008BDD40300200064024024
:1017100008B5044B1868FFF7C5FC034B4FF474126F
:10172000DA6008BDDC0300200064024008B5044B09
:101730001868FFF7B7FC034B4FF07462DA6008BD1E
:10174000E403002000640240014B1868FFF7AABCC4
:10175000EC030020014B1868FFF7A4BCF403002041
:10176000014B1868FFF79EBCFC030020026810B50F
:10177000541C02440460517204685021B4FBF1F21D
:1017800001FB1242026010BD10B504681421B4FBC5
:10179000F1F201FB1242034612B92021FFF7E6FFE6
:1017A00014241968B1FBF4F204FB121222B12021B7
:1017B0001846FFF7DBFFF4E7184610BD08B50346EF
:1017C0001A6822B120211846FFF7D0FFF8E7184623
:1017D00008BD38B505460C46084609B1FEF7F8FCC9
:1017E000C5E90004284638BD10B514240368B3FBCE
:1017F000F4F304FB03115024B1FBF4F304FB1311C5
:10180000016010BD38B50468D4F8AC30F3B1013BC9
:10181000C4F8AC30D4F8A830606814256B4303607A
:101820000F21FFF7E1FF2021FFF7A0FFD4F8A83038
:101830006068013B5D43C4F8A8300F210560FFF7E5
:10184000D3FF7E21BDE83840FFF790BF38BD38B5E3
:101850000468D4F8AC30012B1ED00133C4F8AC308E
:10186000D4F8A830606814256B4303600F21FFF79C
:10187000BBFF2021FFF77AFFD4F8A830606801335E
:101880005D43C4F8A8300F210560FFF7ADFF7E214E
:10189000BDE83840FFF76ABF38BD437A70B50546EA
:1018A00000F10C062BB100234372C1613046FFF7F3
:1018B00047FD3046FFF718FD012428B13046FFF7F9
:1018C0003BFD6C72002070BD2046FCE770B58EB009
:1018D00005AD0023CDE901500C93CDE90533CDE9E9
:1018E00009330B933B4E0D930123044608968DF864
:1018F0001D308DF81C300090CDF80CD0049564217B
:101900002846FFF7CAFF0028F9D12069FFF720FC1D
:101910006069FFF71DFCA369D3E9002101238B4017
:101920009361A26AE369D2699A616846FFF717FC7E
:1019300005212846FFF7B1FF0028F9D1A26AE36923
:10194000D2699A616846FFF70AFC64212846FFF7CE
:10195000B3FB0028F9D1A26AE369D2699A616846AB
:10196000FFF7FDFB32212846FFF7A6FB0028F9D13F
:10197000A26AE36952699A616846FFF7F0FB322177
:101980002846FFF799FB0028F9D1282102A8FFF784
:1019900000FC0C2102A8FFF7FCFB062102A8FFF7C0
:1019A000F8FB012102A8FFF7F4FB802102A8FFF752
:1019B000F0FB01212846FFF770FF0028F9D10EA89F
:1019C000012384F8303040F8186DFFF797FC0EB013
:1019D00070BD00BF1C6C000810B504465030FFF706
:1019E00051FC04F14000FFF74DFC04F13000FFF71B
:1019F00049FC04F12000FFF745FC04F11000FFF75B
:101A000041FC2046FFF73EFC204610BD204B1A68E3
:101A1000052161F302021A60A3F580631A6842F49B
:101A200080321A601A689203FCD59A686FF3071225
:101A30009A609A68042161F38C229A609A686FF325
:101A40004F329A609A68022161F301029A605A68E3
:101A5000082161F305025A605A68C02161F38E12B1
:101A60005A605A68072161F31B625A605A68012163
:101A700061F311425A605A6842F480025A601A684F
:101A800042F080721A60034A13689B01FCD57047CC
:101A9000003C0240003802407B487C49F8B50368AE
:101AA00013F0010F7CD17A4B7A4C1A6812F0010FB7
:101AB00006D1DFF8F8E10922C4E900E201221A6048
:101AC000754B1A6B42F001021A63226815680226F0
:101AD00066F393451560556A072666F30715556248
:101AE000D5686FF39345D5606C4D2A6812F0010FED
:101AF0006B4A06D1DFF8B4C10A26C2E900C6012646
:101B00002E601D6B45F001051D6313681D680226DC
:101B100066F315551D605D6A072666F30B255D6249
:101B2000DD686FF31555DD605E4D2B6813F0010F16
:101B30005D4B05D15D4F0C26C3E9007601262E6072
:101B4000554E356B45F0010535631D682F6801263C
:101B500066F319672F60EF686FF31967EF60C1F8DC
:101B60001031534BC1F81431A3F5AA33C1F8183121
:101B700003F5AA33B833C1F81C31783BC1F82031E2
:101B80000A230025C1F824310723C1F80051C1F808
:101B90000451C1F80841C1F80C2181F828310660D0
:101BA0003D4C636C43F010036364D1F81831DA687C
:101BB00042F00802DA60DA6842F00402DA605A6938
:101BC00042F080025A615A6942F040025A61394B30
:101BD00093F90400FEF754FB236B43F48003236363
:101BE000D1F81C311A68012060F387121A60D1F80D
:101BF00000210A44DA60D1F8182104329A601A6888
:101C000042F480621A601A686FF34E321A601A68E2
:101C10006FF3CC221A601A6842F010021A60264B49
:101C200093F90400FEF72CFBD1F820311A686FF30A
:101C300087121A60D1F800210A44DA60D1F818211D
:101C400004329A60FF225A601A6842F480621A6075
:101C50001A686FF34E321A601A686FF3CC221A605A
:101C60001A6842F480721A60D1F820311A68042090
:101C700060F35B621A60D1F81C311A6860F35B6232
:101C80001A600248F8BD00BF9401002098010020AE
:101C9000DC020020E002002000380240D0020020D8
:101CA000D4020020C4020020C8020020000002402C
:101CB0000064024004040020E403002043490B6850
:101CC00013F0010F70B5424C5DD1424B42481A6887
:101CD00012F0010F06D1DFF81CE10622C0E900E294
:101CE00001221A603D4B1A6B42F004021A6302682B
:101CF0001568022666F30D351560156A032666F32E
:101D00001B651562D5686FF30D35D560344D2A68B3
:101D100012F0010F334A06D1DFF8D8C00726C2E916
:101D200000C601262E601D6B45F004051D63136877
:101D30001D68022666F38F351D601D6A032666F353
:101D40001F751D62DD686FF38F35DD600023C4E908
:101D500001332373A361A36284F8303084F83130F7
:101D600003F18043C4E90D0203F5823318481E4D88
:101D7000E3632560FFF7E4FA01230B601B4A1C496B
:101D8000134804F076FA154A1148536C43F00203E5
:101D90005364E36B9A68032161F302029A609A69C3
:101DA000012161F301029A619A6961F309229A6142
:101DB0001A6A42F002021A621A6A6FF3C3021A62C6
:101DC00000225A621A680A431A6070BD3801002066
:101DD0003C010020880100208C01002000380240D6
:101DE0007C01002080010020506C000800000020D1
:101DF000991200080008024010B50C1A134605D0CD
:101E000001462246184604F075FA0346181910BD1B
:101E10002DE9F34702AB03E906000768037A00F1F6
:101E200009080646DDE9004508EB070263B3132CF9
:101E300022D8C4F1140902EB590910464946FFF7AC
:101E400072F929194A462846FFF7D6FF09EB040A1A
:101E500007F1140141445046FFF765F933685021FA
:101E60001433B3FBF1F201FB12333360002330462D
:101E7000337202B0BDE8F087143C05EB540000F16A
:101E80001401FFF7B9FFE9E7C7F15001A14205EBE3
:101E9000040907D949462846FFF7AEFF30680444D5
:101EA0003460E3E729442846FFF7A6FF3368A4F12E
:101EB00050071F44E41B2C44502F2046424604F197
:101EC000500404D92146FFF797FF503FF4E74946F5
:101ED000FFF792FF336850221F44B7FBF2F302FB77
:101EE00013773760C2E7000030B589B00A46044670
:101EF000114905A804F01CFB05A901A8FFF769FC1E
:101F00006368019A934208D99B1A13F1FF3304D3F3
:101F100020212046FFF72AFCF7E703AD05A9284654
:101F2000FFF757FC95E806002046FFF771FF0023F6
:101F30002046636009B030BD3A710008436837B588
:101F40001E210222C3E90012D0F880201846118811
:101F5000FFF7CAFF6C46054605492046FFF739FCE6
:101F600094E806002846FFF753FF03B030BD00BFDA
:101F70002C71000873B54468054604F1590104F159
:101F80000900FFF7D0F8002323606E681C49336016
:101F90006C462046FFF71DFC94E806003046FFF72C
:101FA00037FF6E6817490B2333602046FFF711FC9B
:101FB00094E806003046FFF72BFF6E6812491423A1
:101FC00033602046FFF705FC94E806003046FFF733
:101FD0001FFF68681E220223C0E90023D5F8803065
:101FE0001988FFF781FF094905462046FFF7F1FBF5
:101FF00094E806002846FFF70BFF02B070BD00BF53
:102000002F7100083271000835710008387100081E
:1020100038B5002383608B6804460D462BB102223D
:102020009847EB68E360AB68A360204638BD38B5DD
:10203000002383608B6804460D462BB1022298472B
:10204000EB68E360AB68A360204638BD38B5044652
:102050000D46FFF7DDFF05F1100104F11000FFF759
:10206000D7FF05F1200104F12000FFF7D1FF05F1B2
:10207000300104F13000FFF7CBFF05F1400104F11E
:102080004000FFF7D4FF05F1500104F15000FFF7C5
:10209000CEFF204638BD38B5002383608B680446E8
:1020A0000D462BB102229847EB68E360AB68A36052
:1020B000204638BD826810B50AB904F0DFF8C3685D
:1020C000BDE81040184730B585B004460025694684
:1020D00008300295FFF7EEFF6846FFF7D3F8694630
:1020E00004F118000295FFF7E5FF6846FFF7CAF80C
:1020F000694604F138000295FFF7DCFF6846FFF7F8
:10210000C1F805B030BD30B585B00446002569463C
:1021100028300295FFF7CEFF6846FFF7B3F869460F
:1021200004F108000295FFF7C5FF6846FFF7AAF81B
:10213000694604F118000295FFF7BCFF6846FFF7F7
:10214000A1F8694604F138000295FFF7B3FF68462D
:10215000FFF798F805B030BD30B585B004460025CE
:10216000694608300295FFF7A5FF6846FFF78AF831
:10217000694604F118000295FFF79CFF6846FFF7D7
:1021800081F8694604F128000295FFF793FF68463D
:10219000FFF778F8694604F138000295FFF78AFFE7
:1021A0006846FFF76FF805B030BD30B585B004461E
:1021B0000025694608300295FFF77CFF6846FFF767
:1021C00061F8694604F118000295FFF773FF68464D
:1021D000FFF758F8694604F128000295FFF76AFFF7
:1021E0006846FFF74FF8694604F138000295FFF79B
:1021F00061FF6846FFF746F805B030BD30B585B0E1
:1022000004460025694608300295FFF753FF6846EB
:10221000FFF738F8694604F118000295FFF74AFF06
:102220006846FFF72FF8694604F128000295FFF78A
:1022300041FF6846FFF726F8694604F13800029529
:10224000FFF738FF6846FFF71DF805B030BD30B521
:1022500085B004460025694608300295FFF72AFF3D
:102260006846FFF70FF8694604F118000295FFF77A
:1022700021FF6846FFF706F8694604F12800029539
:10228000FFF718FF6846FEF7FDFF694604F13800C6
:102290000295FFF70FFF6846FEF7F4FF05B030BD6B
:1022A0001FB5224B00900446694603930830204B2B
:1022B0000293FFF7FFFE6846FEF7E4FF1D4B039312
:1022C00069461D4B029304F118000094FFF7F2FEDB
:1022D0006846FEF7D7FF194B03936946184B0293E4
:1022E00004F138000094FFF7E5FE6846FEF7CAFFE8
:1022F00060680023036004F1780393E80600FFF7A9
:1023000087FDFFF741FA606814230360D4F8883032
:102310001988FFF7E9FD04F1800393E80600FFF751
:1023200077FD6068FFF74AFA04B010BDA302000809
:10233000A5020008BB020008BD020008AD2300088A
:10234000D3020008826810B50AB903F097FFC3688A
:10235000BDE81040184708B5C36B5A6AC2F34E0275
:10236000012A09D190F8301031B980F83020596233
:102370002030FFF7E7FF08BD5A6A47F6FF71C2F346
:102380004E028A4202D190F831204AB15B6A9BB278
:10239000012BF0D8002380F8303080F83130EAE7A4
:1023A000012180F831105A621030E2E708B5006868
:1023B0006830FFF7C7FF08BD08B50368D3F89C2055
:1023C00093F8A03013700068D0F884301BB17C30D3
:1023D000FFF7B8FF08BD6C30FAE708B500686C304D
:1023E000FFF7B0FF08BD08B50368D3F8C400182292
:1023F00002FB00308030FFF7A5FF08BD08B500687C
:102400006830FFF79FFF08BD006808B5D0F89C3022
:10241000B0F8A0201A80D0F884301BB17C30FFF7D0
:1024200091FF08BD6C30FAE708B500686C30FFF723
:1024300089FF08BD08B50368D3F89C2093F8A03045
:1024400013700068D0F884301BB17C30FFF77AFF3E
:1024500008BD6C30FAE708B500686C30FFF772FF12
:1024600008BD08B50368D3F89C2093F8A03013701A
:102470000068D0F884301BB17C30FFF763FF08BDE3
:102480006C30FAE708B500686C30FFF75BFF08BDF9
:1024900008B50368D3F8AC00182202FB0030803086
:1024A000FFF750FF08BD08B500686830FFF74AFF26
:1024B00008BD08B50368D3F89C2093F8A0301370CA
:1024C0000068D0F884301BB17C30FFF73BFF08BDBB
:1024D0006C30FAE708B500686C30FFF733FF08BDD1
:1024E00008B50368D3F8DC00182202FB0030803006
:1024F000FFF728FF08BD08B500686830FFF722FF26
:1025000008BD08B50368D3F8F400182202FB0030B8
:102510008030FFF717FF08BD08B500686830FFF787
:1025200011FF08BD38B5002383608B6804460D4653
:102530002BB102229847EB68E360AB68A3602046AA
:1025400038BD10B50B460446D1E9000184E803000C
:1025500003F1080104F10800FFF79DFD204610BDBE
:1025600038B51D46124B0446C0E90031114608300B
:10257000FFF76CFD294604F16800FFF78CFD049914
:1025800004F17800FFF7DDFF059904F19000FFF7F3
:10259000D8FF069904F1A800FFF7D3FF079904F1CB
:1025A000C000FFF7CEFF0023C4E93633204638BD14
:1025B000706C000838B51D460D4B0446C0E900316B
:1025C00011460830FFF742FD294604F16800FFF785
:1025D00062FD049904F17800FFF7B3FF059904F157
:1025E0009000FFF7AEFF0023C4E92A33204638BD30
:1025F000986C0008D0F80431FE2B9FBFC154D0F86E
:1026000004310133C0F80431704713B50B4604465A
:10261000D0E900016A4682E8030093E8030084E8F9
:10262000030092E8030083E8030002B010BD38B550
:1026300005460C46FFF7E9FFAB68A268AA60A360F5
:10264000E268EB68EA60E36038BD1FB5044668469F
:10265000FFF721FD21466846FFF7E9FF6846FEF7D0
:1026600011FE204604B010BD08B54430FFF7EDFF61
:1026700008BD08B53430FFF7E8FF08BD08B52430C1
:10268000FFF7E3FF08BD08B51430FFF7DEFF08BD14
:1026900008B54430FFF7D9FF08BD08B53430FFF75F
:1026A000D4FF08BD08B52430FFF7CFFF08BD08B53B
:1026B0001430FFF7CAFF08BD08B54430FFF7C5FF67
:1026C00008BD08B53430FFF7C0FF08BD08B5243099
:1026D000FFF7BBFF08BD08B51430FFF7B6FF08BD14
:1026E00030B5044689B00846002369460293FFF7D7
:1026F0009EFF2368DC6F2368694604A8DD68FFF746
:10270000CAFC04A92046A84704A8FEF7BBFD6846FA
:10271000FEF7B8FD09B030BD10B5044688B00846D4
:10272000002369460293FFF782FF23681C6F694606
:1027300004A8FFF7B0FC04A904F12000FFF785FF0F
:1027400004A8FEF79FFD6846FEF79CFD08B010BD8B
:1027500010B5044688B00846002369460293FFF787
:1027600066FF23681C6F694604A8FFF794FC04A960
:1027700004F11000FFF769FF04A8FEF783FD684627
:10278000FEF780FD08B010BD30B5044689B008469C
:10279000002369460293FFF74AFF2368DC6F236832
:1027A000694604A89D68FFF776FC04A92046A8475F
:1027B00004A8FEF767FD6846FEF764FD09B030BD6A
:1027C000F0B5C269D2F80431D2F800115C1A022CBB
:1027D00033D999423EBF03F1FF33C2F80431D55CCF
:1027E000C269DFF860C0D2F80431D2F80011144F8A
:1027F00028BF00258B4282BF03F1FF33C2F80431AA
:10280000D65CC369D3F80021D3F804114FF0FF0060
:102810001A4498BF00260B44044612F8011B41409D
:1028200093421CF8010080EA04007C5CF5D1AC42C4
:1028300003D1831B58425841F0BD0020FCE700BF84
:1028400014700008146F000838B5836A1D68C369E6
:10285000D3F800219A5C2B799A4204460FD0AB69D9
:102860000921EA1811750133032293FBF2F202EBFE
:1028700042029B1AAB61A36C0133A36438BDFFF71E
:102880009FFF18B9AB691021EA18EBE7E269D2F8AB
:102890000031D2F80411994284BF0133C2F80031EB
:1028A000E369D3F80021D3F80411914283BF511C8E
:1028B000C3F800119B5C00231B0611D5E369D3F814
:1028C0000021D3F80411914282BF511CC3F80011BA
:1028D0009A5CAB6905EB030198BF00220A75C2E759
:1028E0002B7A032BCAD1E269D2F80031D2F8041155
:1028F000994284BF0133C2F80031E369E868D3F834
:102900000021D3F80411541CA14217D9914284BF6D
:10291000C3F800419C5CD3F8002198BF0024914289
:1029200083BF511CC3F800119A5C00224FF00003D2
:1029300062F3070364F30F2303809FE70023FBE7A1
:102940000B1A1B11002B14DD0268127C4AB342687B
:10295000127C0AB9043070478268127C0AB90830C8
:102960007047C268127C0AB90C3070471030013BC6
:10297000E8E70B1A9B10022B0DD0032B07D0012B7D
:102980000ED103681B7C002B18BF084670470368F4
:102990001B7C33B1043003681B7C13B10430F0E7B7
:1029A00008467047437B012BF7B5044606D0C0F0BC
:1029B000B780022B00F0E38003B0F0BD00F11C05EE
:1029C0004FF00003806A1A462946FFF7B9FF854297
:1029D000A06203D104F11003A362EDE7E369056887
:1029E0000026C3F80061C3F804612979E069FFF7A4
:1029F00001FE297AE069FFF7FDFD3146E069FFF746
:102A0000F9FDA979E069FFF7F5FD2B7A032B01D0D9
:102A1000102B5CD10021E069FFF7ECFD0121E0699A
:102A2000FFF7E8FD2B7A102B07D10021E069FFF7B3
:102A3000E1FDEB681978FFF7DDFD2B7A032B01D060
:102A4000052B51D12B6829461B6801A898479DF892
:102A50000510E069FFF7CEFD9DF80410FFF7CAFDF1
:102A6000A36B2363E36C0133E3640022E369226414
:102A7000D3F81011D1E900050121A9408161D3F8F3
:102A80001811C86862F30410C860D3F820110868F0
:102A900062F300000860D3F81C11086862F30000BC
:102AA0000860D3F80421D3F80001D3F81C11121ADE
:102AB000023292B24A60D3F81C311A6842F0010225
:102AC0001A601A68D207FCD50023637374E7052BDC
:102AD000A8D1EB68E0691988002914BFFF21002103
:102AE000FFF788FD31469AE7102BB9D1E069DFF88E
:102AF000B0C0D0F80031D0F80421284FFF210344A2
:102B000086180D4613F8012B4A409E421CF802100D
:102B100081EA0501BD5CF5D1FFF76CFD29469DE713
:102B2000C169826BD1F80431D1F800115B1A016CD4
:102B30009942C16A38BF02638A4213DC836A18680B
:102B40008369C218122515750133032293FBF2F233
:102B500002EB42029B1A8361A36CE1630133A3641D
:102B600002236373236BC91A636B9942FFF624AF88
:102B70002046FFF769FEE36AE3630223A5E7C36A21
:102B8000C26B093B93427FF717AF0023C362FEF786
:102B9000B5FB836A04338362012396E7147000084F
:102BA000146F00082DE9F04F374BADF59A5D81B0F9
:102BB00043AD03F120072E463C461868596832465B
:102BC00003C20833BB421646F7D1304B5393304B08
:102BD000579300224FF480312E4B2F486591679117
:102BE0008DF8A521549255928DF858216192ADF837
:102BF000882163926493669068938DF8A4218DF880
:102C0000A6218DF8A8215895FF2153AB134401321A
:102C1000202A1976F9D10DF596790021484603F05E
:102C200082FB5798FEF788FA579B1A694FF0010804
:102C300068F309221A611A6953AE42F080721A6170
:102C400000274FF6FF7BB246D6E9113103EB410175
:102C500099420FD01A781F2A09D80DF5A67C624434
:102C6000587810761A7809F802800233F0E71A884B
:102C70005A45FAD16893716C99420FD16197083621
:102C8000CFB90127E0E700BFF46B000848810008D6
:102C9000003C024000000A0800000808B26C01EB8A
:102CA0004202934200F04581514648466197FEF743
:102CB000A5F98245E3D1619A53AB03EBC201D1E997
:102CC0001130689903EB4003994206D162AB0121B0
:102CD000995400236193649B689353AF39464846E7
:102CE000FEF78CF9B842064640F0288158AB589A56
:102CF00059AF03F1240C3B4603CB63451060516090
:102D00001F4602F10802F6D100238DF8A6319DF886
:102D100088318BB9619B7BB1649A659B4FF6FF70DC
:102D200002EB43018A42134640F00E810B465B1AC8
:102D300018BF01238DF888319DF88931ABB9619BAB
:102D4000012B12D0669B679A4FF6FF7003EB42028D
:102D50009A42194604D00F88874203F10203F7D044
:102D6000521A18BF01228DF8892158AB0DF5C5778D
:102D700003F128003946FEF76BF9874218BF032399
:102D8000579A18BF8DF8A531136943F000431361BA
:102D900053AB9E4209D07B4B2E4618685968324689
:102DA00003C20833A3421646F7D153A8FEF7C8FA68
:102DB000754B1A6812F0010F744A05D1744F0A213D
:102DC000C2E9007101211960724B196B41F00401D5
:102DD000196312681168012060F315511160D16800
:102DE0006FF31551D1606C490A6812F0010F08BFEA
:102DF0006A4E6B4A02BF08600F24C2E90064196B77
:102E0000684841F00101196313681A684FF0010B1B
:102E10006BF39F721A60DA686FF39F72DA601021A9
:102E200072AB8DF8B4116E936B9000238DF8D411B2
:102E300004227AA905208DF8BC31ADF8C0318DF897
:102E4000C2317193ADF8C83176918DF8B0B1ADF85B
:102E5000B2218DF8D0B1ADF8D2018DF8DC31ADF8EA
:102E6000E0318DF8E2317993ADF8E8318DF8FC313D
:102E7000ADF800328DF802328193ADF808324A4B3A
:102E80004A4973911E688DF8F0B10E21ADF8F21128
:102E900082A903247E9116EA0B0645497B918DF8A1
:102EA000F4416988059340F0C180CDE90612FEF730
:102EB000F3FD404B0699DFF810C1C3F800C001EAEA
:102EC0000B07C1F3400AC1F38009C1F3C10883F8BD
:102ED0000DB0DFF8F8E0DFF8F8C01E7303F1100B57
:102EE000C1F34211C3E90166D861C3F820E0C3F819
:102EF00024C0C3E90AB6079A69B3012905D002299B
:102F00002BD0A14214BF0124022400225C6364245C
:102F10009A64C3E90E4283F84420DA645A65264A6B
:102F20001A65DEF800209B65D2B9244ACEF800204D
:102F30001BE053AB3B4483F83C80A0E6619B62AA54
:102F40000121D1540523E0E61F88874202F10202E5
:102F50003FF4E8AEEBE61446D7E70C46D5E7224649
:102F60005468002CFBD1154C546000221A66144A98
:102F7000DA65DCF800205B666ABB124ACCF80020F8
:102F80002EE000BFF46B0008F4020020F8020020DD
:102F90000008024000380240E80200200000024021
:102FA000EC020020106D0008000300201C6D0008DA
:102FB000286D000804030020346D0008540300202D
:102FC000406D0008600300204C6D000804040020E0
:102FD000E403002022465468002CFBD1B94C546015
:102FE0006BAA1A6173AA5A617BAA9A61D0F824214C
:102FF000D0F81801FEF7B4F9C3686AF34923C36037
:10300000C36869F30C33C360036968F30D3303616C
:10301000C368002F01F0748343F48063C360C36806
:1030200043F40053C360059A01231360FEF746FE84
:10303000A54A9B929BAE20327260A44A0C9000235A
:10304000C6E9023333747374F361F362F363F364B8
:10305000F365136813F0010F9D4B06D1DFF8B8B28A
:103060000E21C3E900B1012111609A4C226B42F09C
:10307000020222631A6811686FF31D711160D16832
:103080006FF31D71D160012700219CA8C6E91A17B2
:1030900086F8701086F871107366FEF751F98E4B42
:1030A0008E4AB8932033B9931368BA9113F0010F85
:1030B00008BFDFF864A28A4BBB918DF8F0128DF83F
:1030C000F112BF91C391C791CB91CF9102BF0D2156
:1030D000C3E900A11760226BDFF8F8A142F00202F9
:1030E00022631A6811686FF39B611160D1686FF3F6
:1030F0009B61D16001240021B9A8D2918DF85013B1
:103100008DF85113D193D394FEF71AF9754B764A83
:10311000D5932033D6931368D79113F0010F08BFCE
:10312000DFF8F891714BD8918DF864138DF8651321
:10313000DC91E091E491E891EC9102BF0821C3E9B0
:1031400000911460DAF8302042F00102CAF8302011
:103150001A6811686FF311411160D1686FF3114162
:10316000D1600DF5727B0024D6A84FF00109EE93D3
:10317000EF948DF8C4438DF8C543CDF8C093FEF7A6
:10318000DFF85B4BCBF80C3059465A4BCBF800506C
:10319000DAA8CBF808300DF2E138FFF756FA5846B6
:1031A000FEF770F8544B8BF80C40CBE90144CBE9A7
:1031B00004448BF818400DF231414046CBF8003002
:1031C0000C9F4E4CFDF7AFFF4D4A0592136813F06C
:1031D000010F40F0B6804B48DFF844E103684A49EC
:1031E000DFF840C113F0010F01BF0D23C0F80090BC
:1031F000CEF80010CEF80430DAF8303043F0040393
:10320000CAF83030DEF8003018684FF0010969F371
:103210009B601860D8686FF39B60D8603B48036878
:1032200013F0010F04BF0F23CCF80430294B04BF67
:10323000CCF80010C0F80090186B40F00400186340
:10324000DCF80000D0F800904FF0010A6AF39F7993
:10325000C0F80090D0F80C906FF39F79C0F80C90F4
:10326000DFF8C490D9F8000010F0010F284801BF22
:10327000C9F800A00E2201604260D3F8309049F0F6
:103280000409C3F830900368D3F800A04FF0010997
:1032900069F31D7AC3F800A0D3F80CA06FF31D7A70
:1032A000C3F80CA00023C4E9013323736373C4E99A
:1032B000060184F8303017496363C4E904EC059BC8
:1032C00034E000BF60030020586D00082C0100208E
:1032D0003001002000380240846D000820010020E9
:1032E00024010020B06D0008140100201801002006
:1032F000E9020008F102000854810008B80000202B
:10330000B40000200801002000080240FC0000205A
:10331000F400002040710008000402400000024058
:103320000C01002000010020F0000020DFF840A385
:103330006162B349C4F800A0C4F82080A162C3F858
:103340000090B04B1A6812F0010FAF4A06D1DFF8B7
:1033500024830221C2E9008101211960AB4B196B62
:1033600041F00401196312681168012060F305112E
:103370001160D1686FF30511D160A5490A6812F098
:10338000010F08BFDFF8ECE2A24A02BF08604FF06D
:10339000030CC2E900EC196B41F0040119631368D6
:1033A0009D491A68012060F387121A60DA686FF38A
:1033B0008712DA600B68994A034002BFDFF8B4C293
:1033C0000860C2E900C3914B196B41F00401196315
:1033D00012681068012161F301001060D0686FF37A
:1033E0000100D0608E48026812F0010F08BFDFF8BC
:1033F00084C28C4A04BFC2E900C10160196B8A48CB
:1034000041F00401196313681A684FF0010868F36A
:1034100083021A60DA686FF38302DA60FEF756FA05
:10342000237B13BB814B84F80C80DA68626002B1A5
:1034300094609A68DC6002B99C6002225A617C4BFD
:103440001A686FF300021A6045F6BF525A600022F4
:103450009A601A6842F004021A601A6842F0020286
:103460001A601A6842F001021A60B8ABCBF87830E3
:10347000D5ABCBE91F356BABCBF884300DF597633B
:10348000CBF888300023CBF88C306A4B149311A909
:10349000694BCBF874600DA8CBE91B47CDF844B05D
:1034A0001393FEF7B5FD654B1C93654B1B9315AB52
:1034B00019A91846CDF864B00593FEF7A9FD614B34
:1034C0002493614B23931DAB21A91846CDF884B0FA
:1034D0000793FEF79DFD5D4B2E9337AD5C4BCDF80A
:1034E000ACB02BA925A82D93FEF792FD594BCDF832
:1034F000DCB02946EB6031A8574BAB603DACFEF722
:1035000096FD564B869383A9554B85932046CDF85F
:103510000CB2FEF78CFD0DA90DF58B60FEF778FD62
:103520000599DFF854A10DF58D60FEF771FD07993F
:103530000DF58F60FEF76CFD25A90DF59160FEF786
:1035400067FD31A90DF59360FEF771FD21460DF57C
:103550009560FEF76CFD2046FDF794FE83A8FDF70D
:1035600091FE31A8FDF78EFE2846FDF78BFE25A8BB
:10357000FDF788FE2BA8FDF785FE0798FDF782FE74
:1035800021A8FDF77FFE0598FDF77CFE19A8FDF741
:1035900079FE0DA8FDF776FE11A8FDF773FE0DF577
:1035A0008B6183A8FEF752FD2E4BCDF8F4B0214677
:1035B000E36028462C4BA360F6AEFEF76CFD2B4B68
:1035C000DBF88470CBF8F030CBF8F46083A90DF50C
:1035D0009860FEF73BFD29460DF5A460FEF75BFD04
:1035E00007F11C03CBF8683107F13C035C37CBF8DB
:1035F0006C31CBF870712846FDF744FE20463DE063
:1036000040790008A8000020AC00002000380240EB
:103610009C000020A00000209000002094000020CA
:103620008400002088000020B80000201C04002036
:1036300010E000E0192700080703000851270008E0
:103640001D0300088927000833030008E12600084D
:10365000490300088D4700085F030008554700082C
:1036600075030008C10C00088B030008286C0008D3
:1036700060810008000802406E810008FDF702FE2C
:1036800083A8FEF7A9F90DF58B6183A8FEF7DEFC90
:10369000B54B249321A9B54B0798CDF884B023935B
:1036A000FEF7F9FCB24BCBF87861CDE9263BB14B84
:1036B0002A93B14B2993B14B3093B14B2F930C23E9
:1036C0003193B04BCDE9323BAF4B3693AF4B359393
:1036D0000C233793AE4BC5E9013BAE4B6B61AE4B50
:1036E0002B6106233D93AD4BC4E9013BAC4B6361B9
:1036F000AC4B2361AC4BCBF87431092783A90DF295
:10370000445025972B97CDE92CABFEF79FFC0799EA
:103710000DF2A450FEF7BFFC25A90DF2B450FEF740
:1037200010FF2BA90DF2CC50FEF70BFF31A90DF2C3
:10373000E450FEF706FF29460DF2FC50FEF701FFAC
:1037400021460DF21460FEF7FCFE0023CBF8643234
:10375000CBF868323FAB18460593FDF793FD39ABC4
:1037600018460693FDF78EFD33AB18460893FDF718
:1037700089FD2DAB18460993FDF784FD27A8FDF7B9
:1037800081FD0798FDF77EFD21A8FDF77BFD83A84D
:10379000FEF722F90DF58B6183A8FEF757FC834BEA
:1037A000289325A9824BCDF894B021A82793FEF742
:1037B00072FC08232B937F4B3197CDE92C3B7E4B3A
:1037C00030937E4B2F937E4BCDE9323B7D4B36932E
:1037D0007D4B35937D4B4FF00F08CDF8DC80C5E96C
:1037E000013B7B4B6B617B4B2B610B233D937A4BF6
:1037F000C4E9013B794B6361794B236131AB0193A0
:103800002BAB83AA31460093CDE9025421AB0DF2D4
:103810003460FEF7A5FE0598FDF734FD0698FDF728
:1038200031FD0898FDF72EFD0998FDF72BFD21A825
:10383000FDF728FD25A8FDF725FD83A8FEF7CCF8A8
:10384000DBF880300DF58B615B7F8BF84C3383A800
:10385000FEF7FCFB634921A8FDF7BBFF624925A8E1
:10386000FDF7B7FF614B349331A9614BCDF8C4B07C
:103870002BA83393FEF70FFC5E4BCDF8F4B0214636
:10388000E36028465C4BA360FEF705FC219B0B938D
:10389000229B0A93259B594A07934FF48073CBF8D8
:1038A0005023ABF85433CBF8586383A90DF224703E
:1038B000DDF89890FEF7CAFB2BA90DF28470FEF795
:1038C000EAFB29460DF29470FEF7E5FB0B9BCBF863
:1038D000DC330A9BCBF8E033079BCBF8E4330DF2E3
:1038E0001473CBF8EC339BF84C338BF8F033CBF8F4
:1038F000E8932846FDF7C6FC2046FDF7C3FC2BA83D
:10390000FDF7C0FC31A8FDF7BDFC83A8FEF764F805
:103910000DF58B6183A8FEF799FB394B349331A9E0
:10392000384BCDF8C4B02BA83393FEF7B4FB364B1D
:10393000CDF8DC806B61354B2B61354BDFF8DC90CB
:1039400006223D92C4E9013B324B63612BAA324B04
:10395000236131461346C5E9019B83AACDE9005492
:103960000DF2BC705CE000BFCD0C0008A1030008A4
:1039700064810008D90C0008B7030008E50C0008B2
:10398000CD03000878810008010D0008E30300085A
:10399000858100080D0D0008F903000892810008D8
:1039A000190D00080F0400085C6C0008250D0008C4
:1039B0002504000899810008310D00083B04000827
:1039C000A28100083D0D000851040008AC810008E8
:1039D000490D000867040008BC810008550D000867
:1039E0007D040008C881000854830008610D0008A8
:1039F000930400086D0D0008A9040008846C0008F9
:103A0000890D0008BF040008950D0008D5040008C2
:103A1000E5810008A10D0008EB040008D58100082D
:103A2000FEF7C8FD0598FDF72DFC0698FDF72AFC6A
:103A30002BA8FDF727FC31A8FDF724FC83A8FDF790
:103A4000CBFF0DF58B6183A8FEF700FBC24B3493CF
:103A500031A9C24BCDF8C4B02BA83393FEF71BFBA2
:103A6000BF4BCDF8DC806B61BE4B2B61BE4B6360FE
:103A7000BE4B3D972BAAF2AF6361BD4BA7603146A9
:103A8000C5E9019B23610DF66C001346CDE9005496
:103A900083AAFEF78FFD0598FDF7F4FB0698FDF766
:103AA000F1FB2BA8FDF7EEFB31A8FDF7EBFB83A89C
:103AB000FDF792FFD7F880300DF58B611B7F87F8FB
:103AC000543583A8FEF7C2FA514621A8FDF781FEBE
:103AD000A84925A8FDF77DFEA74B349331A9A74B34
:103AE00031972BA83393FEF7D6FAA54B3D97214685
:103AF000E3602846A34BA360FEF7CDFAA24BC7F8BC
:103B0000583583AA4FF48073A7F85C35C7F8606511
:103B100011460DF62C10DDE921BADDE92598FEF7F6
:103B200095FA2BAA11460DF68C10FEF7B4FA294629
:103B30000DF69C10FEF7AFFA0DF61C13C7F8F4351E
:103B400097F8543587F8F835C7F8E4B5C7F8E8A50D
:103B5000C7F8EC95C7F8F0852846FDF793FB20469B
:103B6000FDF790FB2BA8FDF78DFB31A8FDF78AFB35
:103B700083A8FDF731FFD7F880300DF58B625B7EAF
:103B800087F8FC35114683A8FEF760FA7F4921A823
:103B9000FDF71FFE7E4925A8FDF71BFE31AA7D4BD0
:103BA000349311467C4B31972BA83393FEF773FA6D
:103BB0007A4B3D972146E3602846794BA360FEF798
:103BC0006AFA4FF4C842774BA7F804260A9283AAF0
:103BD000C7F80036C7F8086611460DF6D410DDE9BF
:103BE00021BADDE92598FEF731FA2BAA11460DF628
:103BF0003420FEF750FA29460DF64420FEF74BFA22
:103C00000DF6C413C7F89C3697F8FC3587F8A03634
:103C1000C7F88CB6C7F890A6C7F89496C7F89886E8
:103C20002846FDF72FFB2046FDF72CFB2BA8FDF7C0
:103C300029FB31A8FDF726FB83A8FDF7CDFED7F8B9
:103C400080300DF58B625B89A7F8A436114683A8F6
:103C5000FEF7FCF9544921A8FDF7BBFD534925A8FF
:103C6000FDF7B7FD31AA524B34931146514B3197B2
:103C70002BA83393FEF70FFA4F4B3D972146E36095
:103C800028464E4BA360FEF706FA4D4A4D4BC7F847
:103C9000A826C7F8AC36C7F8B06683A90DF67C2015
:103CA000DDE921BADDE92598FEF7D0F92BA90DF65B
:103CB000DC20FEF7F0F929460DF6EC20FEF7EBF9D3
:103CC0000DF66C23C7F84437B7F8A436A7F8483781
:103CD000C7F834B7C7F838A7C7F83C97C7F8408784
:103CE0002846FDF7CFFA2046FDF7CCFA2BA8FDF7C2
:103CF000C9FA31A8FDF7C6FA83A8FDF76DFED7F81B
:103D000080300DF58B611B89A7F84C3783A8FEF72F
:103D10009DF92D4921A8FDF75CFD2C4925A8FDF74B
:103D200058FD2B4B349331A92A4B31972BA8339351
:103D3000FEF7B1F9284B3D972146E3602846274B13
:103D4000A360FEF7A8F91E4A254BC7F85027C7F80D
:103D50005437C7F8586745E0B50D0008010500085D
:103D6000C10D000817050008EC810008CD0D000802
:103D70002D05000854830008E10D000843050008E4
:103D8000FD0D000859050008AC6C0008F68100081C
:103D900007820008290E00086F050008350E00088C
:103DA00085050008C06C00080A8200081A82000815
:103DB0004B0E00089B050008570E0008B1050008CF
:103DC000D46C00080000E02EAC8100081E820008C0
:103DD0006D0E0008C7050008790E0008DD05000813
:103DE0005046C8AF83A90DF62430DDE921BADDE9DC
:103DF0002598FEF72BF92BA90DF68430FEF74BF929
:103E000029460DF69430FEF746F90DF61433C7F83F
:103E1000EC37B7F84C37A7F8F037C7F8DCB7C7F876
:103E2000E0A7C7F8E497C7F8E8872846FDF72AFA1D
:103E30002046FDF727FA2BA8FDF724FA31A8FDF755
:103E400021FA83A8FDF7C8FD0DF58B6183A8FEF765
:103E5000FDF8C04B2E932BA9BF4B2B9725A82D9374
:103E6000FEF719F9BD4BC7F8F867CDE93237BC4BFF
:103E70003693BC4B35930721BB4B31910C213791C5
:103E8000C5E90137B94B6B61B94B2B610E233D93EB
:103E9000B84BC4E90137B84B6361B84B2361B84BE9
:103EA000C7F8F43783A90DF6C430FEF7CFF825A97B
:103EB0000DF62440FEF7EFF831A90DF63440FEF779
:103EC00040FB29460DF64C40FEF73BFB21460DF624
:103ED0006440FEF736FB0021C7F8B418C7F8B818DD
:103EE0000598FDF7CFF90698FDF7CCF90898FDF78E
:103EF000C9F925A8FDF7C6F92BA8FDF7C3F983A8D2
:103F0000FDF76AFD0DF58B6183A8FEF79FF89D4BC9
:103F10003D972146E36028469B4BA360FEF7BBF824
:103F20009A492BA8FDF755FC994931A8FDF751FC9A
:103F3000D7F884309749C7F8BC18DDE931A9C7F82C
:103F4000C06803F15C0883A92B9B07930DF68C4096
:103F5000DDF8B0B0FEF77AF829460DF6EC40FEF732
:103F60009AF8079BC7F83439C7F838B9C7F83CA99D
:103F7000C7F84099C7F844892846FDF783F92046D9
:103F8000FDF780F983A8FDF727FDD7F880300DF500
:103F90008B619B7E87F8483983A8FEF757F87E49E6
:103FA00021A8FDF716FC7A4925A8FDF712FC7B4BEA
:103FB000349331A97A4B31972BA83393FEF76BF8E2
:103FC000784B3D972146E3602846774BA360FEF788
:103FD00062F80A9A754BA7F85029C7F84C39C7F808
:103FE000546983A90DF552600792DDE921BADDE934
:103FF0002598FEF72BF82BA90DF55860FEF74BF826
:1040000029460DF55960FEF746F80DF55163C7F8DE
:10401000E83997F8483987F8EC39C7F8D8B9C7F8BC
:10402000DCA9C7F8E099C7F8E4892846FDF72AF922
:104030002046FDF727F92BA8FDF724F931A8FDF755
:1040400021F983A8FDF7C8FCD7F880300DF58B6106
:10405000DB7E87F8F03983A8FDF7F8FF544921A8E3
:10406000FDF7B7FB4A4925A8FDF7B3FB514B349345
:1040700031A9514B31972BA83393FEF70CF84F4BD6
:104080003D972146E36028464D4BA360FEF703F8B9
:10409000079A464BA7F8F829C7F8F439C7F8FC691E
:1040A00083A90DF6C850DDE92598DDE921BAFDF7B1
:1040B000CDFF2BA90DF62860FDF7EDFF29460DF683
:1040C0003860FDF7E8FF0DF6B853C7F8903A97F857
:1040D000F03987F8943AC7F880BAC7F884AAC7F8C5
:1040E000889AC7F88C8A2846FDF7CCF82046FDF759
:1040F000C9F82BA8FDF7C6F831A8FDF7C3F883A8C7
:10410000FDF76AFC0DF58B6183A8FDF79FFF2D4B32
:10411000349331A92C4B31972BA83393FDF7BBFF78
:104120002A4B6B604FF00A09294BCDF8DC906B618C
:10413000284B2B61284BDFF8AC8008213D91C4E966
:104140000137264B63612BA8254B2361034683A8C7
:10415000024649E08F0E0008F3050008228200089D
:104160009B0E0008090600082A820008A70E000816
:104170001F06000837820008B30E00083506000845
:10418000E86C0008BF0E00084B06000846820008D5
:10419000568200083C6C000859820008CB0E0008CB
:1041A00061060008D70E000877060008C06C0008FA
:1041B00069820008ED0E00088D060008F90E00085F
:1041C000A30600080F0F0008B9060008788200084F
:1041D000CF060008D10600088382000835110008C8
:1041E000DB0600089D8200083146CDE900540DF53C
:1041F0006660FEF7DFF90598FDF744F80698FDF7CD
:1042000041F82BA8FDF73EF831A8FDF73BF883A84D
:10421000FDF7E2FB0DF58B6183A8FDF717FFBA4BA5
:10422000349331A9B94B31972BA83393FDF733FF62
:10423000B74B08213791C5E90137B64B6B61B64BD7
:104240002B61B64B63600721B54B3D912BA8636191
:10425000B44B2361034683A802463146CDE900549E
:104260000DF57160FEF7A6F90598FDF70BF80698B5
:10427000FDF708F82BA8FDF705F831A8FDF702F8BF
:1042800083A8FDF7A9FB0DF58B6183A8FDF7DEFE82
:10429000A54B289325A9A54B259721A82793FDF782
:1042A000FAFEA34B3093A34B2F93A34BCDF8F4907E
:1042B000CDE93237A14B3693A14B35930821A14B61
:1042C0002B9131910B213791C5E901379E4B6B61E1
:1042D0009E4B2B619E4BC4E901379E4B636131A914
:1042E0009D4B236121A80346019183A82BA9024677
:1042F0000091CDE9025431460DF57C60CDE92C8763
:10430000FEF72EF90598FCF7BDFF0698FCF7BAFFFB
:104310000898FCF7B7FF0998FCF7B4FF21A8FCF751
:10432000B1FF25A8FCF7AEFF83A8FDF755FBD7F832
:1043300080300DF58B61DB7F87F8D83C83A8FDF7D3
:1043400085FE414621A8FDF744FA844925A8FDF7DA
:1043500040FA834B349331A9824B31972BA8339386
:10436000FDF799FE804B3D972146E36028467F4B41
:10437000A360FDF790FE7E4BC7F8DC3C4FF48071E4
:104380000DF58550A7F8E01CC7F8E46C83A9103040
:10439000DDE921BADDE92598FDF758FE0DF58850D5
:1043A0002BA91030FDF777FE29460DF58950FDF752
:1043B00072FE0DF58553C7F8783D97F8D83C87F81D
:1043C0007C3DC7F868BDC7F86CADC7F8709DC7F8ED
:1043D000748D2846FCF756FF2046FCF753FF2BA8A8
:1043E000FCF750FF31A8FCF74DFF83A8FDF7F4FA66
:1043F000D7F880300DF58B619B8AA7F8803D83A8A4
:10440000FDF724FE5B4921A8FDF7E3F95A4925A8E9
:10441000FDF7DFF9594B349331A9594B31972BA84C
:104420003393FDF738FE574B3D972146E36028460E
:10443000554BA360FDF72FFE544AC7F8842D4FF06B
:104440007A630DF58A50C7F8883DC7F88C6D83A94B
:104450001830DDE921BADDE92598FDF7F7FD0DF506
:104460008D502BA91830FDF716FE0DF58E502946FC
:104470000830FDF710FE0DF58A530833C7F8203ECB
:10448000B7F8803DA7F8243EC7F810BEC7F814AEB1
:10449000C7F8189EC7F81C8E2846FCF7F3FE204686
:1044A000FCF7F0FE2BA8FCF7EDFE31A8FCF7EAFEC6
:1044B00083A8FDF791FAD7F880300DF58B611B7E4C
:1044C00087F8283E83A8FDF7C1FD314921A8FDF7F3
:1044D00080F9304925A8FDF77CF92F4B349331A999
:1044E0002E4B31972BA83393FDF7D5FD2C4B3D97E1
:1044F0002146E36028462B4BA360FDF7CCFD2A4BF9
:10450000C7F82C3E52E000BF1B0F0008F106000860
:104510008C820008270F0008070700089582000812
:10452000331100081D070008330F00082707000893
:104530003F0F00083D070008A68200084B0F000847
:1045400053070008AF820008570F000869070008EA
:10455000BB820008630F00087F070008548300082F
:104560006F0F0008950700087B0F0008AB070008D5
:10457000FC6C0008C68200081E820008970F000825
:10458000C1070008A30F0008D7070008D46C000873
:10459000D782000853830008B90F0008ED07000810
:1045A000C50F000803080008C06C000846F202436B
:1045B000A7F8303EC7F8346E83A90DF59050DDE9B9
:1045C00021BADDE92598FDF741FD2BA90DF59350A2
:1045D000FDF761FD0DF5935029461030FDF75BFDA9
:1045E0000DF58F531033C7F8C83E97F8283E87F86B
:1045F000CC3EC7F8B8BEC7F8BCAEC7F8C09EC7F877
:10460000C48E2846FCF73EFE2046FCF73BFE2BA856
:10461000FCF738FE31A8FCF735FE83A8FDF7DCF97E
:10462000D7F880300DF58B61DB8AA7F8D03E83A8E0
:10463000FDF70CFD374921A8FDF7CBF8364925A831
:10464000FDF7C7F8354B349331A9354B31972BA87B
:10465000F2AF3393FDF71FFD324B3D972146E360E8
:104660002846314BA360FDF716FD304A304BC7F8A2
:10467000D42E0DF59550C7F8D83E83A9C7F8DC6E47
:104680000830DDE921BADDE92598FDF7DFFC0DF5FD
:1046900098502BA90830FDF7FEFC0DF598502946DF
:1046A0001830FDF7F8FC0DF594531833C7F8703F38
:1046B000B7F8D03EA7F8743FC7F860BFC7F864AF3B
:1046C000C7F8689FC7F86C8F2846FCF7DBFD2046CB
:1046D000FCF7D8FD2BA8FCF7D5FD31A8FCF7D2FDDF
:1046E00083A8FDF779F93846FCF72AFED7F8880049
:1046F00003681B689847FB6E93F8303023B9FEE7D8
:1047000067F38A23FEF78ABC0A4C2046FEF74AF973
:1047100030BFFAE7E8820008F8820008DB0F0008E3
:1047200019080008E70F00082F080008D46C0008DB
:104730006400D0070403002038B505460C46FDF799
:1047400064FFAB68A268AA60A360E268EB68EA60F5
:10475000E36038BD30B5044689B008460023694699
:104760000293FFF7E9FF23689C6F2368694604A85A
:104770001D69FDF7D7FE04A92046A84704A8FCF749
:1047800081FD6846FCF77EFD09B030BD30B50446BA
:1047900089B00846002369460293FFF7CDFF2368DE
:1047A0005C6F2368694604A81D69FDF7BBFE04A978
:1047B0002046A84704A8FCF765FD6846FCF762FDA3
:1047C00009B030BD1FB504466846FDF7ABFE214673
:1047D0006846FFF7B1FF6846FCF754FD204604B079
:1047E00010BD08B55430FFF7EDFF08BD08B55430D3
:1047F000FFF7E8FF08BD08B55430FFF7E3FF08BD39
:104800001FB550B16846FDF746FC029B13B16846E0
:10481000FDF798FD6846FCF735FD05B05DF804FB33
:1048200007B5826801910AB901F028FDC36801A9A2
:10483000984703B05DF804FB7FB50446406EFCF773
:104840000DFD08B9A36E8BB3606EFCF707FD05463E
:1048500080BB637C63BB94F8706004F124016846FC
:10486000FDF719FC69463046FFF7CAFF6846FCF7BA
:1048700009FD637C33B994F870501DB194F8715000
:1048800085F0010504F134016846FDF704FC694632
:104890002846FFF7B5FF6846FCF7F4FC0023012229
:1048A000C4E91A3284F8703084F8713004B070BDF5
:1048B0000646D2E7A36E0133092BA36622D994F8EA
:1048C00070208AB9657C012384F870305D4004F162
:1048D00014016846FDF7DFFB28466946FFF790FFA5
:1048E0006846FCF7CFFCE1E7B3F57A7F0AD394F88A
:1048F00071203AB9657C012384F871305D4004F180
:104900004401E6E7E26D002AD0D0B3F57A7FCDD935
:10491000B3F5FA6F0CD8C821B3FBF1F201FB1233E7
:10492000002BC3D1012104F15400FFF779FFBDE74B
:1049300040F6B832934201D86421EDE7B3F57A6FBF
:1049400001D83221E8E71921B3FBF1F201FB123261
:1049500041F288318B4202D8002AA7D1E2E7002A2F
:10496000A4D1E16E04F15400FFF75AFFA16E4FF499
:104970007A72B1FBF2F302FB1313002B96D1E36EB4
:104980000133E36692E7A0F1040055E77FB50446E2
:10499000406EFCF763FC08B9A36E8BB3606EFCF746
:1049A0005DFC054680BB637C63BB94F8706004F1DA
:1049B00024016846FDF76FFB69463046FFF720FF8C
:1049C0006846FCF75FFC637C33B994F870501DB106
:1049D00094F8715085F0010504F134016846FDF743
:1049E0005AFB69462846FFF70BFF6846FCF74AFC6E
:1049F00000230122C4E91A3284F8703084F871303F
:104A000004B070BD0646D2E7A36E0133092BA3663E
:104A100022D994F870208AB9657C012384F870301B
:104A20005D4004F114016846FDF735FB28466946F0
:104A3000FFF7E6FE6846FCF725FCE1E7B3F57A7F71
:104A40000AD394F871203AB9657C012384F8713057
:104A50005D4004F14401E6E7E26D002AD0D0B3F5F1
:104A60007A7FCDD9B3F5FA6F0CD8C821B3FBF1F238
:104A700001FB1233002BC3D1012104F15400FFF7D5
:104A8000CFFEBDE740F6B832934201D86421EDE78E
:104A9000B3F57A6F01D83221E8E71921B3FBF1F2BF
:104AA00001FB123241F288318B4202D8002AA7D191
:104AB000E2E7002AA4D1E16E04F15400FFF7B0FE52
:104AC000A16E4FF47A72B1FBF2F302FB1313002BC9
:104AD00096D1E36E0133E36692E7A0F1040055E757
:104AE0007FB50446406EFCF7B9FB08B9A36E8BB3E3
:104AF000606EFCF7B3FB054680BB637C63BB94F838
:104B0000706004F124016846FDF7C5FA6946304635
:104B1000FFF776FE6846FCF7B5FB637C33B994F883
:104B200070501DB194F8715085F0010504F1340105
:104B30006846FDF7B0FA69462846FFF761FE684609
:104B4000FCF7A0FB00230122C4E91A3284F870307C
:104B500084F8713004B070BD0646D2E7A36E01330D
:104B6000092BA36622D994F870208AB9657C0123A9
:104B700084F870305D4004F114016846FDF78BFA4B
:104B800028466946FFF73CFE6846FCF77BFBE1E7F9
:104B9000B3F57A7F0AD394F871203AB9657C012382
:104BA00084F871305D4004F14401E6E7E26D002ACB
:104BB000D0D0B3F57A7FCDD9B3F5FA6F0CD8C82130
:104BC000B3FBF1F201FB1233002BC3D1012104F13D
:104BD0005400FFF725FEBDE740F6B832934201D8F6
:104BE0006421EDE7B3F57A6F01D83221E8E71921A6
:104BF000B3FBF1F201FB123241F288318B4202D851
:104C0000002AA7D1E2E7002AA4D1E16E04F1540002
:104C1000FFF706FEA16E4FF47A72B1FBF2F302FBCE
:104C20001313002B96D1E36E0133E36692E7A0F1F4
:104C3000040055E7F0B585B040F201320023ADF82D
:104C400004200E22CDF806308DF8072001228DF8C1
:104C50000920062203920A4E0A4DADF80A30FF22BF
:104C6000144601AFD95D51400133725C062B82EAD4
:104C700004026C5CF6D10470427005B0F0BD00BF58
:104C8000146F00081470000810B50446FFF7D2FF37
:104C9000204610BD30B50B1A9B10002B15DD147883
:104CA0000578A54203D04578A54201D1013030BD39
:104CB0008578A54201D10230F9E7C578A54201D136
:104CC0000330F4E70430013BE7E70B1A022B0ED068
:104CD000032B07D0012B10D1047813789C4218BF06
:104CE0000846E4E7047813789C42E0D00130047869
:104CF00013789C42DBD00130EEE70846D7E700008E
:104D00002DE9F34190F8593041690446052B1BD831
:104D1000DFE813F006001D004A008200B400E8003E
:104D200090F85C30C218C95C127E914240F0F68067
:104D30000133DBB2202B28BF002380F85C30B3FAAC
:104D400083F35B0980F8583002B0BDE8F081006958
:104D5000C268C2F30042002AF6D10369002BF3DADD
:104D6000FCF7EAF92369186962F3410018611A69CE
:104D700042F001021A6123691A69012060F30922D5
:104D80001A611A6942F080721A6194F85C30CA5C48
:104D900084F85B2094F85B10626D43EA0123138072
:104DA000022384F85930CFE70369DA68D107CBD5FD
:104DB000DA6842F00102DA601A6942F000421A61D0
:104DC00090F85C3090F85B2003441A76426D836B58
:104DD0000232426500EBC300D0E9111501EB450139
:104DE0008A4203D094F85A30DBB2DAE70122E118A4
:104DF0001344022B28BF002381F83C20A36304EB5B
:104E0000C3035B6C6365002384F85C3084F859202D
:104E1000052384F85A3097E70769FD68C5F3004514
:104E2000002D91D13B69002B8EDA02AA00F13E06DB
:104E3000012300F13C0802F8013D31464046FFF7EE
:104E400029FFB042CED0A0EB080020643846FCF722
:104E500073F9236C324AD25C036965F30003036182
:104E6000036943F002030361036962F3C60303614C
:104E7000036943F480330361042392E70369DA682A
:104E8000D2077FF561AFDA6842F00102DA601A6991
:104E900042F000421A61016C00EBC103D3E9112317
:104EA0004FF6FF7502EB43039342104618D0068875
:104EB000AE4202F10202F7D01B1A214418BF0123AF
:104EC00004F13E0581F83C3004F13C002946FCF732
:104ED000BFF8854214BF0320002084F8590033E74F
:104EE0001846E9E790F85C300133DBB21F2B11D98B
:104EF000002380F85C3004F13E05294604F13C00B3
:104F0000FCF7A6F8854214BF0320002084F859005E
:104F100000237EE780F85C30002BECD0012340E7D3
:104F20003D71000873B590F8A03086681944437944
:104F3000C9B28B4238BF037980F8A01038BF80F81F
:104F4000A0301423336090F8A0200B4B6D4653F82B
:104F5000221004462846FCF73CFC943495E80600F1
:104F60003046FCF755FF94E80600FCF751FFFCF7CC
:104F70000BFC02B070BD00BF2471000808B5012110
:104F80000068FFF7CFFF08BD08B509680068FFF7A4
:104F9000C9FF08BD73B590F8A030591A0379C9B29A
:104FA0008B42044680F8A01001D8FF2902D1637912
:104FB00084F8A030A6681423336094F8A0200A4B2C
:104FC0006D4653F822102846FCF703FC943495E80C
:104FD00006003046FCF71CFF94E80600FCF718FFBB
:104FE000FCF7D2FB02B070BD2471000808B50121A6
:104FF0000068FFF7CFFF08BD08B509680068FFF734
:10500000C9FF08BD826810B50AB901F037F9C36855
:10501000BDE81040184730B585B004460025694604
:105020000C300295FDF746F86846FCF72BF9694607
:1050300004F11C000295FDF73DF86846FCF722F9E3
:10504000694604F12C000295FDF734F86846FCF738
:1050500019F9694604F13C000295FDF72BF8684602
:10506000FCF710F9694604F14C000295FFF7CAFFFE
:105070006846FCF707F9694604F15C000295FFF702
:10508000C1FF6846FCF7FEF805B030BD30B585B00D
:105090000446002569460C300295FDF70BF868467A
:1050A000FCF7F0F8694604F11C000295FDF702F8E0
:1050B0006846FCF7E7F8694604F12C000295FCF716
:1050C000F9FF6846FCF7DEF8694604F13C000295FA
:1050D000FCF7F0FF6846FCF7D5F8694604F14C0090
:1050E0000295FFF78FFF6846FCF7CCF8694604F19C
:1050F0005C000295FFF786FF6846FCF7C3F805B031
:1051000030BD30B585B00446002569460C300295A7
:10511000FCF7D0FF6846FCF7B5F8694604F11C00BF
:105120000295FCF7C7FF6846FCF7ACF8694604F146
:105130002C000295FCF7BEFF6846FCF7A3F8694611
:1051400004F13C000295FCF7B5FF6846FCF79AF8BD
:10515000694604F14C000295FFF754FF6846FCF7DE
:1051600091F8694604F15C000295FFF74BFF684631
:10517000FCF788F805B030BD30B585B00446002591
:1051800069460C300295FCF795FF6846FCF77AF803
:10519000694604F11C000295FCF78CFF6846FCF799
:1051A00071F8694604F12C000295FCF783FF68460C
:1051B000FCF768F8694604F13C000295FCF77AFFB9
:1051C0006846FCF75FF8694604F14C000295FFF76A
:1051D00019FF6846FCF756F8694604F15C00029531
:1051E000FFF710FF6846FCF74DF805B030BD30B54D
:1051F00085B00446002569460C300295FCF75AFF3D
:105200006846FCF73FF8694604F11C000295FCF77C
:1052100051FF6846FCF736F8694604F12C00029508
:10522000FCF748FF6846FCF72DF8694604F13C009E
:105230000295FCF73FFF6846FCF724F8694604F145
:105240004C000295FFF7DEFE6846FCF71BF8694646
:1052500004F15C000295FFF7D5FE6846FCF712F8F2
:1052600005B030BD7FB53C4B00906D4604462946E5
:1052700003930C30394B0293FCF71CFF2846FCF7D4
:1052800001F8374B03932946364B029304F11C0077
:105290000094FCF70FFF2846FBF7F4FF324B039313
:1052A0002946324B029304F14C000094FFF7AAFE0A
:1052B0002846FBF7E7FF2E4B039329462D4B02931D
:1052C00004F15C000094FFF79DFE2846FBF7DAFF2F
:1052D000294B03932946294B029304F12C00009497
:1052E000FCF7E8FE2846FBF7CDFF254B0393294644
:1052F000244B029304F13C000094FCF7DBFE2846AB
:10530000FBF7C0FFA0680023036004F18C0393E85F
:105310000600FCF77DFDFCF737FAD4F89C30A66850
:105320001B7884F8A0301423336094F8A020164B27
:10533000284653F82210FCF74CFA943495E80600FE
:105340003046FCF765FD94E80600FCF761FDFCF7CC
:105350001BFA04B070BD00BF7D4F00086F08000845
:10536000ED4F000885080008894F00089B080008D9
:10537000F94F0008B1080008B9230008C708000861
:10538000DB230008DD080008247100081FB5354B39
:1053900000900446694603930C30334B0293FCF7AC
:1053A00089FE6846FBF76EFF304B03936946304B2E
:1053B000029304F11C000094FCF77CFE6846FBF7A6
:1053C00061FF2C4B039369462B4B029304F14C0075
:1053D0000094FFF717FE6846FBF754FF274B039333
:1053E0006946274B029304F15C000094FFF70AFE24
:1053F0006846FBF747FF234B03936946224B029312
:1054000004F12C000094FCF755FE6846FBF73AFFC8
:105410001E4B039369461E4B029304F13C0000941B
:10542000FCF748FE6846FBF72DFFA06800230360E9
:1054300004F18C0393E80600FCF7EAFCFCF7A4F9FE
:10544000D4F89C30A0681988A4F8A0109434FCF714
:105450004BFD94E80600FCF7DBFCFCF795F904B083
:1054600010BD00BFC75900084B090008235A0008A7
:1054700061090008D3590008770900082F5A00086D
:105480008D09000809240008A30900082924000840
:10549000B90900081FB5354B0090044669460393CF
:1054A0000C30334B0293FCF705FE6846FBF7EAFE2F
:1054B000304B03936946304B029304F11C00009477
:1054C000FCF7F8FD6846FBF7DDFE2C4B03936946BD
:1054D0002B4B029304F14C000094FFF793FD6846B8
:1054E000FBF7D0FE274B03936946274B029304F149
:1054F0005C000094FFF786FD6846FBF7C3FE234B74
:1055000003936946224B029304F12C000094FCF7AC
:10551000D1FD6846FBF7B6FE1E4B039369461E4B52
:10552000029304F13C000094FCF7C4FD6846FBF7CD
:10553000A9FEA0680023036004F18C0393E8060031
:10554000FCF766FCFCF720F9D4F89C30A0681978C9
:1055500084F8A0109434FCF7C7FC94E80600FCF72C
:1055600057FCFCF711F904B010BD00BF795A0008D0
:10557000CF090008D15A0008E5090008855A00083B
:10558000FB090008DD5A0008110A0008352400084C
:10559000270A0008572400083D0A00087FB53C4B45
:1055A00000906D460446294603930C30394B029314
:1055B000FCF780FD2846FBF765FE374B0393294631
:1055C000364B029304F11C000094FCF773FD28464F
:1055D000FBF758FE324B03932946324B029304F1FA
:1055E0004C000094FFF70EFD2846FBF74BFE2E4BB8
:1055F000039329462D4B029304F15C000094FFF7BE
:1056000001FD2846FBF73EFE294B03932946294B13
:10561000029304F12C000094FCF74CFD2846FBF7A4
:1056200031FE254B03932946244B029304F13C00A1
:105630000094FCF73FFD2846FBF724FEA0680023FA
:10564000036004F18C0393E80600FCF7E1FBFCF730
:105650009BF8D4F89C30A6681B7884F8A0301423FB
:10566000336094F8A020164B284653F82210FCF71C
:10567000B0F8943495E806003046FCF7C9FB94E88E
:105680000600FCF7C5FBFCF77FF804B070BD00BF57
:10569000415B0008530A0008B15B0008690A000872
:1056A0004D5B00087F0A0008BD5B0008950A0008F2
:1056B00063240008AB0A000885240008C10A00081A
:1056C0001C7100087FB53C4B00906D46044629468E
:1056D00003930C30394B0293FCF7ECFC2846FBF7A4
:1056E000D1FD374B03932946364B029304F11C003E
:1056F0000094FCF7DFFC2846FBF7C4FD324B039314
:105700002946324B029304F14C000094FFF77AFCD7
:105710002846FBF7B7FD2E4B039329462D4B0293EA
:1057200004F15C000094FFF76DFC2846FBF7AAFD2E
:10573000294B03932946294B029304F12C00009432
:10574000FCF7B8FC2846FBF79DFD254B0393294643
:10575000244B029304F13C000094FCF7ABFC284678
:10576000FBF790FDA0680023036004F18C0393E82D
:105770000600FCF74DFBFCF707F8D4F89C30A66850
:105780001B7884F8A0301423336094F8A020164BC3
:10579000284653F82210FCF71CF8943495E80600CC
:1057A0003046FCF735FB94E80600FCF731FBFBF7CD
:1057B000EBFF04B070BD00BF115D00082F0B0008A7
:1057C000815D0008450B00081D5D00085B0B0008AB
:1057D0008D5D0008710B0008B3240008870B0008DA
:1057E000D52400089D0B0008147100080246D0F86B
:1057F000C43052F8C01F70B55B1A00F1780418214C
:1058000001FB034404F130069642436828BF164664
:10581000002205461A60B442686807D094E8060082
:10582000FCF7F6FAFBF7B0FF1834F4E7D5F8C02020
:10583000142353430F210360FBF7D6FF7E21BDE8FD
:105840007040FBF793BF38B50468D4F8C4301BB37D
:10585000013BC4F8C430E3B9D4F8C030CBB16068C0
:1058600014256B4303600F21FBF7BEFF2021FBF7DC
:105870007DFFD4F8C0306068013B5D43C4F8C030A0
:105880000F210560FBF7B0FF7E21BDE83840FBF734
:105890006DBF2046FFF7AAFF38BD38B50468D4F8BD
:1058A000C430022B25D00133022BC4F8C4301DD1E3
:1058B000D4F8C030012B19D0606814256B43036005
:1058C0000F21FBF791FF2021FBF750FFD4F8C030E8
:1058D000606801335D43C4F8C0300F210560FBF7F9
:1058E00083FF7E21BDE83840FBF740BF2046FFF72D
:1058F0007DFF38BD1FB51C4B0090044669460393DD
:1059000008301A4B0293FCF7D5FB6846FBF7BAFC4C
:10591000174B03936946174B029304F11800009448
:10592000FCF7C8FB6846FBF7ADFC134B03936946D5
:10593000124B029304F128000094FCF7BBFB68466D
:10594000FBF7A0FC0E4B039369460E4B029304F148
:1059500038000094FCF7AEFB6846FBF793FC20464A
:10596000FFF744FF04B010BD47580008F3080008D3
:105970009B58000809090008E72300081F090008D0
:10598000FD23000835090008B0F8A0301944C38889
:1059900089B28B4238BF838810B5A0F8A0100446A6
:1059A00038BFA0F8A030806814230360B4F8A010BA
:1059B0009434FCF799FA94E80600FCF729FABDE85C
:1059C0001040FBF7E1BE08B501210068FFF7DCFFDE
:1059D00008BD08B509680068FFF7D6FF08BDB0F834
:1059E000A030591A838889B28B4210B50446A0F8BA
:1059F000A01003D84FF6FF73994202D1E388A4F8B0
:105A0000A030A06814230360B4F8A0109434FCF70D
:105A10006BFA94E80600FCF7FBF9BDE81040FBF7D1
:105A2000B3BE08B501210068FFF7D9FF08BD08B56E
:105A300009680068FFF7D3FF08BD10B590F8A030E3
:105A400019444379C9B28B4238BF037980F8A0105A
:105A5000044638BF80F8A03080681423036094F8AF
:105A6000A0109434FCF740FA94E80600FCF7D0F953
:105A7000BDE81040FBF788BE08B501210068FFF7BC
:105A8000DCFF08BD08B509680068FFF7D6FF08BD50
:105A900010B590F8A030591A0379C9B28B42044668
:105AA00080F8A01001D8FF2902D1637984F8A030D2
:105AB000A0681423036094F8A0109434FCF714FA3F
:105AC00094E80600FCF7A4F9BDE81040FBF75CBEC3
:105AD00008B501210068FFF7DBFF08BD08B50968BC
