:020000040800F2
:1000000000000220F18000084181000841810008C1
:100010004181000841810008418100080000000082
:100020000000000000000000000000004181000806
:10003000418100080000000041810008DD16000831
:10004000C918000839190008CB180008CD18000895
:10005000CF180008D1180008D3180008D5180008D8
:10006000D7180008D9180008DB180008B1190008D3
:10007000CD190008E9190008051A0008211A00081E
:100080003D1A0008591A0008DD180008DF1800089A
:10009000E1180008E3180008E5180008E718000850
:1000A0001B1900081D1900081F1900082119000854
:1000B000231900082519000827190008E918000865
:1000C000EB180008ED180008EF180008711B000875
:1000D0007D1B00085D1900087919000895190008B2
:1000E000F1180008F3180008F51800082F19000887
:1000F000311900083319000835190008751A00086D
:10010000F7180008F918000829190008891B0008C9
:10011000FB180008FD1800082B1900082D1900080D
:10012000911A0008AD1A0008C91A0008E51A00085B
:10013000011B00080000000000000000FF1800087C
:10014000011900080319000805190008071900081B
:100150001D1B0008391B0008551B00080919000861
:100160000B1900080D1900080F19000811190008D3
:100170001319000815190008000000000000000015
:08018000171900081919000805
:1001900010B5054C237833B9044B13B10448AFF3C1
:1001A00000800123237010BD6800002000000000C3
:1001B000AC8A000808B5034B1BB103490348AFF3F1
:1001C000008008BD000000006C000020AC8A000820
:1001D000034613F8012B002AFBD1181A0138704787
:1001E00001F0FF01102A2BDB10F0070F08D010F8E8
:1001F000013B013A8B422DD010F0070F42B3F6D1EC
:10020000F0B441EA012141EA014122F007047FF004
:1002100000070023F0E80256083C85EA010586EA5B
:10022000010685FA47F5A3FA87F586FA47F6A5FA97
:1002300087F68EB9EED1F0BC01F0FF0102F00702A3
:1002400032B110F8013B013A83EA010313B1F8D14E
:100250000020704701387047002D06BF354603382F
:10026000073815F0010F07D1013015F4807F02BF68
:10027000013015F4C03F0130F0BC0138704700BFB9
:100280004209012300F01F0003FA00F0014B43F87C
:100290002200704700E100E0436901334361704789
:1002A00070477047012A03D0022A03D0002070470C
:1002B0000160FBE70B680360F8E77047012A03D091
:1002C000022A03D0002070470160FBE70B6803603F
:1002D000F8E7012A03D0022A03D00020704701600A
:1002E000FBE70B680360F8E770B50546D0F89000AF
:1002F00003680C469B689847C5F8904023682046E1
:100300001B68BDE87040184703681A7F82F001023D
:100310001A7742681278520744BFB3F80C25A3F845
:10032000C4217047012A034603D0022A03D00020CB
:1003300070470160FBE703C983E80300F7E7036840
:1003400093F83C2082F0010283F83C204268127846
:10035000120744BFB3F80C25A3F8C4217047012A43
:10036000034603D0022A03D0002070470160FBE758
:1003700003C983E80300F7E7D0E9003010B502684D
:1003800003EB8203541C0460196110BD012A03D0E1
:10039000022A03D0002070470160FBE70B6803606E
:1003A000F8E7012A03D0022A03D000207047016039
:1003B000FBE70B680360F8E7012A03D0022A03D0A9
:1003C000002070470160FBE70B680360F8E7012A33
:1003D00003D0022A03D0002070470160FBE70B68BE
:1003E0000360F8E7012A03D0022A03D000207047F7
:1003F0000160FBE70B680360F8E7012A03D0022ADB
:1004000003D0002070470160FBE70B680360F8E74A
:10041000006800F5E071FFF767BF012A03D0022AE8
:1004200003D0002070470160FBE70B680360F8E72A
:1004300010B50446006800F1F801FFF755FF236886
:10044000D3F88030012283F8182310BD012A03D08D
:10045000022A03D0002070470160FBE70B680360AD
:10046000F8E710B50446006800F52A71FFF73CFF75
:100470002368D3F88020002382F8A0342268D2F8C1
:10048000802082F8E0342268D2F8802082F840355B
:1004900010BD012A03D0022A03D00020704701605A
:1004A000FBE70B680360F8E7006800F24C41FFF7D8
:1004B0001BBF012A03D0022A03D00020704701602D
:1004C000FBE70B680360F8E7006800F56971FFF768
:1004D0000BBF012A03D0022A03D00020704701601D
:1004E000FBE70B680360F8E7006800F62421FFF7DC
:1004F000FBBE012A03D0022A03D00020704701600E
:10050000FBE70B680360F8E70368D3F8802001235A
:1005100082F8F8310268D2F8802082F8A0340268AC
:10052000D2F8802082F8D8310268D2F8802082F890
:10053000E0340268D2F8802082F818320268D2F8DB
:10054000802082F84035006800F5E071FFF7CCBEEE
:10055000012A03D0022A03D0002070470160FBE784
:100560000B680360F8E70368D3F88020B2F8AC2486
:1005700083F8A022006800F59E61FFF7B5BE012A4E
:1005800003D0022A03D0002070470160FBE70B680C
:100590000360F8E70368D3F88020B2F84C25A3F88D
:1005A000A422006800F29451FFF79EBE012A03D0F6
:1005B000022A03D0002070470160FBE70B6803604C
:1005C000F8E70368D3F88020B2F8EC24A3F8A2225D
:1005D000006800F5C761FFF787BE012A03D0022A31
:1005E00003D0002070470160FBE70B680360F8E769
:1005F0000368D3F88020002382F880350268D2F89F
:10060000802082F8A035006800F5DC61FFF76CBE41
:10061000012A03D0022A03D0002070470160FBE7C3
:100620000B680360F8E7006800F51861FFF75CBE2F
:10063000012A03D0022A03D0002070470160FBE7A3
:100640000B680360F8E7006800F5E071FFF74CBE47
:10065000012A03D0022A03D0002070470160FBE783
:100660000B680360F8E710B40368D3F8881093F8B8
:10067000A0230C7862F382040C70D96F8A76D3F8C9
:100680008030002283F818230368D3F88020D3F841
:1006900088301B78C3F3800383F0010382F8B831FC
:1006A00000685DF8044BD0F88030B3F80C25A3F84F
:1006B000C42100F5E071FFF717BE012A03D0022A1A
:1006C00003D0002070470160FBE70B680360F8E788
:1006D000006800F5E071FFF707BE012A03D0022A87
:1006E00003D0002070470160FBE70B680360F8E768
:1006F00010B40368D3F8881093F848240C7862F398
:10070000C3040C70D96FCA76D3F88030002283F806
:1007100018230368D3F88020D3F888301B78C3F3FC
:10072000C00383F0010382F8B83100685DF8044B20
:10073000D0F88030B3F80C25A3F8C42100F5E0719F
:10074000FFF7D2BD012A03D0022A03D00020704750
:100750000160FBE70B680360F8E7006800F52A71A9
:10076000FFF7C2BD012A03D0022A03D00020704740
:100770000160FBE70B680360F8E70368D3F88020AB
:1007800093F8A012A2F80412D3F88030002283F864
:10079000F821006800F52A71FFF7A6BD012A03D0F1
:1007A000022A03D0002070470160FBE70B6803605A
:1007B000F8E7006800F52A71FFF796BD012A03D01B
:1007C000022A03D0002070470160FBE70B6803603A
:1007D000F8E70368D3F88020B3F8A412A2F8241233
:1007E000D3F88030002283F81822006800F52A71BF
:1007F000FFF77ABD012A03D0022A03D000207047F8
:100800000160FBE70B680360F8E7006800F52A71F8
:10081000FFF76ABD012A03D0022A03D000207047E7
:100820000160FBE70B680360F8E70368D3F88020FA
:10083000B3F8A212A2F8E411D3F88030002283F8B2
:10084000D821006800F52A71FFF74EBD012A03D0B8
:10085000022A03D0002070470160FBE70B680360A9
:10086000F8E70368D3F88020012382F83832026861
:10087000D2F8802082F858320268D2F8802082F8BC
:1008800080350268D2F8802082F8A035006800F533
:10089000E071FFF729BD012A03D0022A03D000200E
:1008A00070470160FBE70B680360F8E7006800F53C
:1008B000F561FFF719BD012A03D0022A03D00020F9
:1008C00070470160FBE70B680360F8E70368D3F843
:1008D0008020B2F88C25A3F8DC26006800F63401ED
:1008E000FFF702BD012A03D0022A03D0002070477F
:1008F0000160FBE70B680360F8E70368D3F880202A
:10090000B2F8AC25A3F8DE26006800F6D801FFF7A0
:10091000EBBC012A03D0022A03D0002070470160FB
:10092000FBE70B680360F8E7006800F5DC61FFF7A0
:10093000DBBC012A03D0022A03D0002070470160EB
:10094000FBE70B680360F8E7006800F5DC61FFF780
:10095000CBBC012A03D0022A03D0002070470160DB
:10096000FBE70B680360F8E70368D3F88020B3F86F
:10097000DC16A2F84412D3F88030002283F8382223
:10098000006800F5DC61FFF7AFBC012A03D0022A42
:1009900003D0002070470160FBE70B680360F8E7B5
:1009A000006800F5DC61FFF79FBC012A03D0022A32
:1009B00003D0002070470160FBE70B680360F8E795
:1009C0000368D3F88020B3F8DE16A2F86412D3F8D7
:1009D0008030002283F85822006800F5DC61FFF7C0
:1009E00083BC012A03D0022A03D000207047016093
:1009F000FBE70B680360F8E7006800F52A71FFF772
:100A000073BC012A03D0022A03D000207047016082
:100A1000FBE70B680360F8E70068C36F90F87C2978
:100A20005A7600F52A71FFF75FBC012A03D0022A2B
:100A300003D0002070470160FBE70B680360F8E714
:100A40000368D3F88020012382F878320268D2F854
:100A5000802082F898320268D2F8802082F8B8327A
:100A6000006800F5E071FFF73FBC012A03D0022ABD
:100A700003D0002070470160FBE70B680360F8E7D4
:100A8000006800F6D421FFF72FBC012A03D0022A08
:100A900003D0002070470160FBE70B680360F8E7B4
:100AA000006800F65461FFF71FBC012A03D0022A38
:100AB00003D0002070470160FBE70B680360F8E794
:100AC0000368D3F88020012382F878320268D2F8D4
:100AD000802082F898320268D2F8802082F8B832FA
:100AE000006800F62421FFF7FFBB012A03D0022A89
:100AF00003D0002070470160FBE70B680360F8E754
:100B0000006800F6B831FFF7EFBB012A03D0022AD4
:100B100003D0002070470160FBE70B680360F8E733
:100B2000006800F54661FFF7DFBB012A03D0022A07
:100B300003D0002070470160FBE70B680360F8E713
:100B4000006800F60851FFF7CFBB012A03D0022A44
:100B500003D0002070470160FBE70B680360F8E7F3
:100B6000006800F55B61FFF7BFBB012A03D0022AD2
:100B700003D0002070470160FBE70B680360F8E7D3
:100B8000006800F6D421FFF7AFBB012A03D0022A88
:100B900003D0002070470160FBE70B680360F8E7B3
:100BA0000368D3F88030002283F818230068D0F857
:100BB000882090F8B43B517863F382015170C26F82
:100BC00000F6D4211377FFF78FBB012A03D0022A46
:100BD00003D0002070470160FBE70B680360F8E773
:100BE000006800F6D421FFF77FBB012A03D0022A58
:100BF00003D0002070470160FBE70B680360F8E753
:100C00000368D3F88010B3F85C2CA1F88422D96F64
:100C10000A82D3F88030002283F87822006800F638
:100C2000D421FFF761BB012A03D0022A03D00020A0
:100C300070470160FBE70B680360F8E7006800F6A7
:100C4000D421FFF751BB012A03D0022A03D0002090
:100C500070470160FBE70B680360F8E70368D3F8AF
:100C6000801093F8042DA1F8A422D96F0A76D3F846
:100C70008030002283F89822006800F6D421FFF724
:100C800033BB012A03D0022A03D000207047016041
:100C9000FBE70B680360F8E7006800F6D421FFF774
:100CA00023BB012A03D0022A03D000207047016031
:100CB000FBE70B680360F8E70368D3F88010B3F82C
:100CC000AC2DA1F8C422D96F4A82D3F8803000221B
:100CD00083F8B822006800F6D421FFF705BB012A8B
:100CE00003D0022A03D0002070470160FBE70B68A5
:100CF0000360F8E70368D3F88020012382F8D83234
:100D00000268D2F8802082F8F832006800F62421C8
:100D1000FFF7EABA012A03D0022A03D00020704765
:100D20000160FBE70B680360F8E7006800F572619B
:100D3000FFF7DABA012A03D0022A03D00020704755
:100D40000160FBE70B680360F8E7006800F6C87114
:100D5000FFF7CABA012A03D0022A03D00020704745
:100D60000160FBE70B680360F8E7006800F583515A
:100D70001031FFF7B9BA012A03D0022A03D00020AC
:100D800070470160FBE70B680360F8E7006800F656
:100D90005461FFF7A9BA012A03D0022A03D0002028
:100DA00070470160FBE70B680360F8E70368D3F85E
:100DB0008030002283F818230068D0F8882090F84B
:100DC0001C3F517863F3C3015170C26F00F6546148
:100DD0005377FFF789BA012A03D0022A03D00020F3
:100DE00070470160FBE70B680360F8E7006800F6F6
:100DF0005461FFF779BA012A03D0022A03D00020F8
:100E000070470160FBE70B680360F8E70368D3F8FD
:100E10008010B3F8C42FA1F8E422D96F8A82D3F8E6
:100E20008030002283F8D822006800F65461FFF772
:100E30005BBA012A03D0022A03D000207047016068
:100E4000FBE70B680360F8E7006800F65461FFF702
:100E50004BBA012A03D0022A03D000207047016058
:100E6000FBE70B680360F8E7036841F26C02D3F814
:100E700080109A5AA1F80423D96FCA82D3F880301F
:100E8000002283F8F822006800F65461FFF72CBABC
:100E9000012A03D0022A03D0002070470160FBE73B
:100EA0000B680360F8E7D0F890300133C0F8903059
:100EB0007047002202704270704700220270427038
:100EC0007047002202704270704700220270427028
:100ED0007047002202704270704700220270427018
:100EE0007047002202704270704700220270427008
:100EF00070470022027042707047002202704270F8
:100F000070470022027042707047002202704270E7
:100F100070470022027042707047002202704270D7
:100F20007047704770477047704770477047704709
:100F30007047012A03D0022A03D0002070470160C5
:100F4000FBE70B680360F8E703689A6FB2F8C431F7
:100F50000A33A2F8C4317047012A03D0022A03D011
:100F6000002070470160FBE70B680360F8E7036847
:100F70009A6FB2F8C4310A3BA2F8C4317047012A13
:100F800003D0022A03D0002070470160FBE70B6802
:100F90000360F8E77047012A03D0022A03D000203B
:100FA00070470160FBE70B680360F8E703689A6F1E
:100FB0000B68B2F8C4110B44A2F8C4317047012A7F
:100FC00003D0022A03D0002070470160FBE70B68C2
:100FD0000360F8E7036809689A6FB2F8C4315B1AD6
:100FE000A2F8C4317047012A03D0022A03D000209E
:100FF00070470160FBE70B680360F8E7012A03D044
:10100000022A03D0002070470160FBE70B680360F1
:10101000F8E7012A03D0022A03D0002070470160BC
:10102000FBE70B680360F8E7012A03D0022A03D02C
:10103000002070470160FBE70B680360F8E7012AB6
:1010400003D0022A03D0002070470160FBE70B6841
:101050000360F8E7012A03D0022A03D0002070477A
:101060000160FBE70B680360F8E7012A03D0022A5E
:1010700003D0002070470160FBE70B680360F8E7CE
:10108000012A03D0022A03D0002070470160FBE749
:101090000B680360F8E7012A03D0022A03D000207E
:1010A00070470160FBE70B680360F8E7012A03D093
:1010B000022A03D0002070470160FBE70B68036041
:1010C000F8E7012A03D0022A03D00020704701600C
:1010D000FBE70B680360F8E7012A03D0022A03D07C
:1010E000002070470160FBE70B680360F8E7012A06
:1010F00003D0022A03D0002070470160FBE70B6891
:101100000360F8E7012A03D0022A03D000207047C9
:101110000160FBE70B680360F8E7012A03D0022AAD
:1011200003D0002070470160FBE70B680360F8E71D
:10113000012A03D0022A03D0002070470160FBE798
:101140000B680360F8E7012A03D0022A03D00020CD
:1011500070470160FBE70B680360F8E7012A03D0E2
:10116000022A03D0002070470160FBE70B68036090
:10117000F8E7012A03D0022A03D00020704701605B
:10118000FBE70B680360F8E7012A03D0022A03D0CB
:10119000002070470160FBE70B680360F8E7012A55
:1011A00003D0022A03D0002070470160FBE70B68E0
:1011B0000360F8E7012A03D0022A03D00020704719
:1011C0000160FBE70B680360F8E7012A03D0022AFD
:1011D00003D0002070470160FBE70B680360F8E76D
:1011E000012A03D0022A03D0002070470160FBE7E8
:1011F0000B680360F8E7012A03D0022A03D000201D
:1012000070470160FBE70B680360F8E7012A03D031
:10121000022A03D0002070470160FBE70B680360DF
:10122000F8E7012A03D0022A03D0002070470160AA
:10123000FBE70B680360F8E7012A03D0022A03D01A
:10124000002070470160FBE70B680360F8E7012AA4
:1012500003D0022A03D0002070470160FBE70B682F
:101260000360F8E7012A03D0022A03D00020704768
:101270000160FBE70B680360F8E7012A03D0022A4C
:1012800003D0002070470160FBE70B680360F8E7BC
:10129000012A03D0022A03D0002070470160FBE737
:1012A0000B680360F8E7012A03D0022A03D000206C
:1012B00070470160FBE70B680360F8E7012A03D081
:1012C000022A03D0002070470160FBE70B6803602F
:1012D000F8E7012A03D0022A03D0002070470160FA
:1012E000FBE70B680360F8E7012A03D0022A03D06A
:1012F000002070470160FBE70B680360F8E7012AF4
:1013000003D0022A03D0002070470160FBE70B687E
:101310000360F8E7012A03D0022A03D000207047B7
:101320000160FBE70B680360F8E7012A03D0022A9B
:1013300003D0002070470160FBE70B680360F8E70B
:10134000012A03D0022A03D0002070470160FBE786
:101350000B680360F8E7012A03D0022A03D00020BB
:1013600070470160FBE70B680360F8E78368D3F818
:101370008010D1F818211268D2061CD5D1F820218E
:101380005268002092B2C1F80001C2F1FF00FF28AC
:1013900028BFFF20FF2AC1F804010CD0D3F8902009
:1013A000D3F88010C3F89420D1F80421D1F80011AB
:1013B000521AC3F8A42070470378C3F3001020B971
:1013C000C3F3401008B9C3F3801070470B1A9B1089
:1013D000002B10DD027812B342780AB90130704751
:1013E00082780AB902307047C2780AB90330704770
:1013F0000430013BECE70B1A022B0BD0032B06D079
:10140000012B0BD10378002B18BF084670470378D7
:101410002BB10130037813B10130F3E70846704770
:101420000B1A9B10002B10DD027812BB42780AB118
:101430000130704782780AB102307047C2780AB131
:10144000033070470430013BECE70B1A022B0BD042
:10145000032B06D0012B0BD10378002B08BF0846C5
:10146000704703782BB90130037813B90130F3E7E3
:1014700008467047FEF704BF036813B90160704760
:1014800013465A68002AFBD15960704710B50446CC
:101490002CB1236820461B6898476468F8E710BDA4
:1014A000A8235943037A43B10F4B9B6803609942C9
:1014B00024BFCB1A43600023037203680A4A99428F
:1014C00007D892689B1A99420CD801230372002016
:1014D000704791688B4205D8536892689B1A42689E
:1014E0009342F2D20120704710E000E0D0F894203F
:1014F0003221531CC0F89430B2FBF1F301FB1323EB
:1015000023B9D0F8900003685B68184770470A1A3F
:1015100002D0202106F06FBE704700000369002B47
:10152000BFBF034B436003F188334360704700BF84
:1015300023016745D0E9002101238B409361704767
:10154000D0E900120123103293408B617047036889
:1015500010B504469869FFF7F3FFC8216068FFF7EC
:101560009FFF0028F9D123689869FFF7E3FFC8219E
:101570006068FFF795FF0028F9D110BD38B5036802
:10158000044618690D46FFF7DBFF23686068DA69D7
:101590009B6A53F835309361FFF7D9FF2368606881
:1015A000996ADA6901EBC5014B689361FFF7CFFFD8
:1015B0006421A068FFF774FF0028F9D138BD00004E
:1015C000437B012B10B5044622D002D3022B2AD034
:1015D00010BD4069FFF7B4FF2069FFF7ABFF626BF6
:1015E000206A531C50216363B2FBF1F301FB132308
:1015F000114A52F82330C25C636A03EBC20053F80D
:101600003210E26943689161E36201236373DFE7AB
:101610008069FFF78FFFA069FFF792FFE369E26A35
:101620009A610223F2E78069FFF784FFA069FFF760
:1016300087FF0023EAE700BFDC8D000803684168EC
:101640001A6901238B40134214BF01200020704708
:1016500070B50D460646FFF7F1FF5DB1D6E90042D1
:101660000123266903FA02F10E421DBF1032934096
:10167000A361A1616840C0B270BD10B504682CB10F
:10168000236820461B689847A468F8E710BD10B58A
:101690008368044613B1032201469847204610BDD3
:1016A00010B5044B044640F8343BFFF7F0FF2046EA
:1016B00010BD00BF04A3000810B504460830FFF7B2
:1016C000DCFFD4E90421531C2361B2FBF1F301FBDD
:1016D000132313B92046FFF7D0FF10BD0148FFF7D1
:1016E000EBBF00BFC8050020426903699A424FF072
:1016F000000326BF4361012018467047037BC3B136
:1017000000230373D0E901236AB143B19360836876
:101710005A600023C0E9013370470B60F8E70549C0
:1017200093604A60F5E70349002BF6D1C1E9003325
:10173000EFE77047C805002000224261FFF7DEBFD7
:10174000037B53B901230373044B5A68426002B10F
:1017500090601A68586002B918607047C805002088
:101760000C2A10B501D0112A15D1204B9A68C2F36A
:101770004232D2B1042A1AD0052A1AD01C4B1D4C71
:10178000062A08BF234607291AD8DFE801F0141AF1
:101790001D202326292C0D3A032A04D8134B9A68BE
:1017A000C2F38222E5E70023EDE7134BEBE7134B8F
:1017B000E9E7134BE7E74FF41652B3FBF2F383600C
:1017C00010BD4FF46152F8E74FF49642F5E74FF43D
:1017D000E142F2E74FF41642EFE74FF46142ECE7E3
:1017E0004FF49632E9E74FF4E132E6E70038024081
:1017F000A037A000406F4001007A030A00BD010538
:1018000080DE800219B90068C0F3401070470129DA
:1018100003D10068C0F3C0207047022903D10068DB
:10182000C0F340507047032903D10068C0F3C06083
:101830007047042901D14068E6E7052901D14068D5
:10184000E8E7062901D14068EAE7072901D14068A5
:10185000ECE70020704770B58668D6F8803093F8C2
:101860002811D3F81401FFF7CDFF60B3D6F88040FC
:101870000025C4F80051C4F80451D4F81001FFF752
:101880005FFED4F81C311A6865F300021A60D4F8C0
:1018900020311A6865F300021A60FF225A60D4F8FA
:1018A00020311A6842F001021A601A68D207FCD58A
:1018B000D4F81821D36843F01003D3603046BDE854
:1018C0007040FFF73DBF70BDFEE7FEE7FEE7FEE7B5
:1018D000FEE7FEE7FEE7FEE7FEE7FEE7FEE7FEE7E0
:1018E000FEE7FEE7FEE7FEE7FEE7FEE7FEE7FEE7D0
:1018F000FEE7FEE7FEE7FEE7FEE7FEE7FEE7FEE7C0
:10190000FEE7FEE7FEE7FEE7FEE7FEE7FEE7FEE7AF
:10191000FEE7FEE7FEE7FEE7FEE7FEE7FEE7FEE79F
:10192000FEE7FEE7FEE7FEE7FEE7FEE7FEE7FEE78F
:10193000FEE7FEE7FEE7000010B5064C6269D30340
:1019400003D5054B1868FFF7A1FD4FF480336361A1
:1019500010BD00BF003C01408805002008B5044BC5
:101960001868FFF793FD034B1A685B6808BD00BF5A
:10197000A80500200010014008B5044B1868FFF7C7
:1019800085FD034B1A685B6808BD00BFB0050020E9
:101990000044004008B5044B1868FFF777FD034B7F
:1019A0001A685B6808BD00BFB80500200048004009
:1019B00008B5044B1868FFF769FD034B3D229A6098
:1019C00008BD00BF080500200060024008B5044BB8
:1019D0001868FFF75BFD034B4FF474629A6008BD13
:1019E000100500200060024008B5044B1868FFF79E
:1019F0004DFD034B4FF474129A6008BD180500208A
:101A00000060024008B5044B1868FFF73FFD034B28
:101A10004FF074629A6008BD20050020006002400B
:101A200008B5044B1868FFF731FD034B4FF474629F
:101A3000DA6008BD280500200060024008B5044BAC
:101A40001868FFF723FD034B4FF47462DA6008BD9A
:101A5000300500200060024008B5044B1868FFF70D
:101A600015FD034B4FF47412DA6008BD38050020F1
:101A70000060024008B5044B1868FFF707FD034BF0
:101A80004FF07462DA6008BD40050020006002403B
:101A900008B5044B1868FFF7F9FC034B3D229A6028
:101AA00008BD00BF480500200064024008B5044B93
:101AB0001868FFF7EBFC034B4FF474629A6008BDA3
:101AC000500500200064024008B5044B1868FFF779
:101AD000DDFC034B4FF474129A6008BD58050020DA
:101AE0000064024008B5044B1868FFF7CFFC034BB5
:101AF0004FF074629A6008BD6005002000640240E7
:101B000008B5044B1868FFF7C1FC034B3D22DA60AF
:101B100008BD00BF680500200064024008B5044B02
:101B20001868FFF7B3FC034B4FF47462DA6008BD2A
:101B3000700500200064024008B5044B1868FFF7E8
:101B4000A5FC034B4FF47412DA6008BD7805002041
:101B50000064024008B5044B1868FFF797FC034B7C
:101B60004FF07462DA6008BD800500200064024016
:101B7000014B1868FFF78ABC90050020014B1868DC
:101B8000FFF784BC98050020014B1868FFF77EBC66
:101B9000A0050020026810B5541C02440460517274
:101BA00004685021B4FBF1F201FB1242026010BD47
:101BB00010B504681421B4FBF1F201FB1242034694
:101BC00012B92021FFF7E6FF14241968B1FBF4F2E3
:101BD00004FB121222B120211846FFF7DBFFF4E7C5
:101BE000184610BD08B503461A6822B120211846D0
:101BF000FFF7D0FFF8E7184608BD38B505460C4694
:101C0000084609B1FEF7E4FAC5E90004284638BDE4
:101C100010B514240368B3FBF4F304FB0311502440
:101C2000B1FBF4F304FB1311016010BD38B5046877
:101C3000D4F8AC30F3B1013BC4F8AC30D4F8A830E0
:101C4000606814256B4303600F21FFF7E1FF20213B
:101C5000FFF7A0FFD4F8A8306068013B5D43C4F8EB
:101C6000A8300F210560FFF7D3FF7E21BDE8384083
:101C7000FFF790BF38BD38B50468D4F8AC30012BFD
:101C80001ED00133C4F8AC30D4F8A83060681425F5
:101C90006B4303600F21FFF7BBFF2021FFF77AFFA3
:101CA000D4F8A830606801335D43C4F8A8300F2130
:101CB0000560FFF7ADFF7E21BDE83840FFF76ABF42
:101CC00038BD437A70B5054600F10C062BB10023F0
:101CD0004372C1613046FFF733FD3046FFF704FD24
:101CE000012428B13046FFF727FD6C72002070BD3B
:101CF0002046FCE770B58EB005AD0023CDE901505C
:101D00000C93CDE90533CDE909330B93394E0D938F
:101D10000123044608968DF81D308DF81C30009084
:101D2000CDF80CD0049564212846FFF7CAFF00289F
:101D3000F9D12069FFF704FC6069FFF701FCA06995
:101D4000FFF7F8FBA26AE369D2699A616846FFF778
:101D5000FEFB05212846FFF7B4FF0028F9D1A26A4F
:101D6000E369D2699A616846FFF7F1FB642128466E
:101D7000FFF796FB0028F9D1A26AE369D2699A615C
:101D80006846FFF7E4FB32212846FFF789FB00286D
:101D9000F9D1A26AE36952699A616846FFF7D7FBF5
:101DA00032212846FFF77CFB0028F9D1282102A820
:101DB000FFF7E4FB0C2102A8FFF7E0FB062102A8D5
:101DC000FFF7DCFB012102A8FFF7D8FB802102A866
:101DD000FFF7D4FB01212846FFF773FF0028F9D154
:101DE0000EA8012384F8303040F8186DFFF786FC08
:101DF0000EB070BDEC8A000821B9036962F30203DA
:101E000003617047012903D1036962F3C503F7E752
:101E1000022903D1036962F38813F1E7032903D18F
:101E2000036962F34B23EBE7042903D1036962F3EF
:101E30000E33E5E7052903D1036962F3D133DFE708
:101E4000062903D1036962F39443D9E7072903D133
:101E5000036962F35753D3E7082903D1036962F397
:101E60001A63CDE7092903D1036962F3DD63C7E78C
:101E70000A2904D1C36862F30203C36070470B29C7
:101E800003D1C36862F3C503F7E70C2903D1C36824
:101E900062F38813F1E70D2903D1C36862F34B2382
:101EA000EBE70E2903D1C36862F30E33E5E70F2990
:101EB00003D1C36862F3D133DFE7102903D1C368CC
:101EC00062F39443D9E7112903D1C36862F35753EE
:101ED000D3E71229D2D1C36862F31A63CDE701298F
:101EE00004D1436B62F3040343637047022903D1B7
:101EF000436B62F34913F7E7032903D1436B62F3A2
:101F00008E23F1E7042903D1436B62F3D333EBE76C
:101F1000052903D1436B62F31853E5E7062903D182
:101F2000436B62F35D63DFE7072904D1036B62F360
:101F3000040303637047082903D1036B62F3491359
:101F4000F7E7092903D1036B62F38E23F1E70A292E
:101F500003D1036B62F3D333EBE70B2903D1036B9C
:101F600062F31853E5E70C2903D1036B62F35D6359
:101F7000DFE70D2904D1C36A62F30403C36270472B
:101F80000E2903D1C36A62F34913F7E70F2903D17E
:101F9000C36A62F38E23F1E71029F0D1C36A62F3BA
:101FA000D333EBE7836A1A6842F001021A601A68B9
:101FB000D107FCD5036A9A6842F001029A609A68D8
:101FC000D207FCD59A6842F080429A60704710B5FB
:101FD00004465030FFF75BFB04F14000FFF757FB6E
:101FE00004F13000FFF753FB04F12000FFF74FFB33
:101FF00004F11000FFF74BFB2046FFF748FB20469B
:1020000010BD0000204B1A68052161F302021A601E
:10201000A3F580631A6842F480321A601A6892034A
:10202000FCD59A686FF307129A609A68052161F3EC
:102030008C229A609A68042161F34F329A609A6800
:10204000022060F301029A605A6861F305025A6047
:102050005A68A82161F38E125A605A68072161F309
:102060001B625A605A686FF311425A605A6842F410
:1020700080025A601A6842F080721A60034A13683C
:102080009B01FCD5704700BF003C02400038024075
:102090007B487C49F8B5036813F0010F7CD17A4B7B
:1020A0007A4C1A6812F0010F06D1DFF8F8E102222B
:1020B000C4E900E201221A60754B1A6B42F001027A
:1020C0001A6322681568022666F305151560156AFD
:1020D000072666F30B251562D5686FF30515D560E5
:1020E0006C4D2A6812F0010F6B4A06D1DFF8B4C1BB
:1020F0000326C2E900C601262E601D6B45F00105CE
:102100001D6313681D68022666F387151D601D6A2E
:10211000072666F30F351D62DD686FF38715DD60F6
:102120005E4D2B6813F0010F5D4B05D15D4F0F26FF
:10213000C3E9007601262E60554E356B45F001054A
:1021400035631D682F68012666F39F772F60EF685F
:102150006FF39F77EF60C1F81031534BC1F8143122
:10216000A3F50733C1F8183103F50733A033C1F8DD
:102170001C31183BC1F820310D230025C1F8243152
:102180000623C1F80051C1F80451C1F80841C1F853
:102190000C2181F8283106603D4C236C43F4003358
:1021A0002364D1F81831DA6842F00802DA60DA689C
:1021B00042F00402DA605A6942F080025A615A69B8
:1021C00042F040025A61394B93F90400FFF752F98B
:1021D000236B43F400132363D1F81C311A680120E8
:1021E00060F387121A60D1F800210A44DA60D1F84E
:1021F000182104329A601A6842F480621A601A68E0
:102200006FF34E321A601A686FF3CC221A601A68A4
:1022100042F010021A60264B93F90400FFF72AF9E6
:10222000D1F820311A686FF387121A60D1F80021B3
:102230000A44DA60D1F8182104329A60FF225A6009
:102240001A6842F480621A601A686FF34E321A609C
:102250001A686FF3CC221A601A6842F480721A600E
:10226000D1F820311A68042060F35B621A60D1F85B
:102270001C311A6860F35B621A600248F8BD00BF47
:10228000BC010020C001002004030020080300203E
:1022900000380240F8020020FC020020EC0200207E
:1022A000F00200200000024000600240B005002063
:1022B0003805002010B50C1A134605D001462246F9
:1022C000184605F07FFF0346181910BD2DE9F347A6
:1022D00002AB03E906000768037A00F10908064625
:1022E000DDE9004508EB070263B3132C22D8C4F1E3
:1022F000140902EB590910464946FFF708F9291954
:102300004A462846FFF7D6FF09EB040A07F11401F5
:1023100041445046FFF7FBF8336850211433B3FBB8
:10232000F1F201FB1233336000233046337202B006
:10233000BDE8F087143C05EB540000F11401FFF7F1
:10234000B9FFE9E7C7F15001A14205EB040907D93C
:1023500049462846FFF7AEFF306804443460E3E79F
:1023600029442846FFF7A6FF3368A4F150071F440D
:10237000E41B2C44502F2046424604F1500404D95B
:102380002146FFF797FF503FF4E74946FFF792FFDA
:10239000336850221F44B7FBF2F302FB1377376018
:1023A000C2E7000030B589B00A460446114905A8C5
:1023B00006F026F805A901A8FFF71FFC6368019A3B
:1023C000934208D99B1A13F1FF3304D320212046EE
:1023D000FFF7E0FBF7E703AD05A92846FFF70DFC83
:1023E00095E806002046FFF771FF00232046636052
:1023F00009B030BD64910008F8B505460F464FF4AA
:102400007A7691FBF6F42146FFF7CCFF2E21284681
:10241000FFF7C0FB06FB14740A2394FBF3F4092CAA
:1024200008DC00212846FFF7BDFF2146FFF7BAFF71
:102430002846F8BD21462846F8E70000F7B50446CF
:10244000406802260660A36FB3F80C15FFF7D4FFAF
:102450006D4607467A492846FFF7CFFB95E8060008
:102460003846FFF733FF60680D23C0E90036A36FDD
:10247000B3F8CC14FFF796FF2521FFF78BFB6068BC
:102480001E23C0E90036A36FB3F86C15FFF78AFF6F
:102490006C4906462846FFF7B0FB95E80600304633
:1024A000FFF714FFD4F8AC20D4F88410531C49680B
:1024B00004EB42020A2BA8BF002389686020B1FB0D
:1024C000F0F1A2F8B410C4F8AC300023C4F8B03076
:1024D00004F1B40204F1C8009042D4F8B01005D061
:1024E00032F8023B1944C4F8B010F5E7564E0A23FF
:1024F0006422B1FBF3F13346C4F8B010002A0DDDBD
:10250000501003EB800C53F82070B94204D2121A19
:102510000CF10403013AF1E70246EFE79B1B9B1025
:10252000B4F88E109AB2531AD4F88810A4F88C20FC
:10253000002B0978B8BF5B428B4207DBD4F88010D0
:102540004B7843F001034B70A4F88E20A36F3F4FEC
:1025500093F83C30002B58D004F19000FFF7C4F8FA
:1025600094F8A830666883EA000283424FF02203A1
:1025700084F8A82033600ED0E36F1B78C3F3C00348
:10258000284657F82310FFF738FB95E80600304639
:10259000FFF79CFE03E020213046FFF7FBFA666858
:1025A00023233360E36F1B78C3F38003284657F877
:1025B0002310FFF722FB95E806003046FFF786FE62
:1025C000E26F1046FEF7F8FE18BB66682049142338
:1025D00033602846FFF711FB95E806003046FFF709
:1025E00075FE606816230360A36FB3F82C15FFF720
:1025F00003FF184904462846FFF7FFFA95E806004E
:102600002046FFF763FE03B0F0BD66682223336007
:10261000B2E71378D90604D564680F491423236000
:10262000E9E79A0604D564680C4914232360E2E7BD
:102630005B06E8D564680A4914232360DBE700BF22
:1026400034910008389100086C9100081C91000832
:102650003B9100083E910008419100084A91000812
:102660005391000838B5002383608B6804460D46FB
:102670002BB102229847EB68E360AB68A360204669
:1026800038BD38B5002383608B6804460D462BB1F6
:1026900002229847EB68E360AB68A360204638BD30
:1026A00038B504460D46FFF7DDFF05F1100104F1D2
:1026B0001000FFF7D7FF05F1200104F12000FFF71C
:1026C000D1FF05F1300104F13000FFF7CBFF05F138
:1026D000400104F14000FFF7D4FF05F1500104F17F
:1026E0005000FFF7CEFF204638BD826810B50AB90A
:1026F00005F02CFDC368BDE81040184708B5006818
:102700006830FFF7F2FF08BD08B500686830FFF7D2
:10271000ECFF08BD70B5816800220B4613B19A60CA
:102720005B68FBE7D0E9042302EB43050B469542C7
:10273000144609D026889C6834449C605B68023249
:10274000002B08BF0B46F2E7C36B13B13430FFF721
:10275000CCFF70BD006808B5D0F89C3090F8A02080
:102760001A70D0F884301BB17C30FFF7BEFF08BD73
:102770006C30FAE708B500686C30FFF7B6FF08BDAB
:1027800008B50368D3F8AC00182202FB0030803093
:10279000FFF7ABFF08BD08B500686830FFF7A5FF7D
:1027A00008BD08B50368D3F8C400182202FB003046
:1027B0008030FFF79AFF08BD08B500686830FFF762
:1027C00094FF08BD006808B5D0F89C30B0F8A02090
:1027D0001A80D0F884301BB17C30FFF786FF08BD2B
:1027E0006C30FAE708B500686C30FFF77EFF08BD73
:1027F00008B50368D3F89C2093F8A03013700068E4
:10280000D0F884301BB17C30FFF76FFF08BD6C300F
:10281000FAE708B500686C30FFF767FF08BD00688D
:1028200008B5D0F89C3090F8A0201A70D0F8843009
:102830001BB17C30FFF759FF08BD6C30FAE708B5D3
:1028400000686C30FFF751FF08BD08B50368D3F886
:10285000F400182202FB00308030FFF746FF08BD6D
:1028600008B500686830FFF740FF08BD08B5036889
:10287000D3F8DC00182202FB00308030FFF735FF70
:1028800008BD08B500686830FFF72FFF08BD0000DD
:1028900038B53B4D3B4C2B6813F0010321D13A4A2C
:1028A00022603A4A226202F54072626202F5A03268
:1028B00002F58872C4E90603A262354863602422E7
:1028C0002146C4E90233C4E90433E0622263E363CE
:1028D000FEF7D2FD01232F4A2F492B60204605F039
:1028E00030FC2E4A536C43F480735364236A596856
:1028F0006FF319615960996841F002019960996814
:1029000041F480719960996841F400719960606A3E
:10291000416841F440314160596841F48071596027
:10292000116B41F48001116303F14C02A36A9A60B8
:102930001A686FF387121A601A68012161F34E3228
:102940001A601A6861F3CC221A601A6842F4806235
:102950001A601A6842F010021A601A6842F4807213
:102960001A601A6842F480721A601A686FF35B6228
:102970001A60E36A93F90400FEF77CFD014838BD54
:10298000740100207801002004A300080020014009
:102990004805002000000020A11600080038024071
:1029A000F8B504465148524D026812F0010F1FD18C
:1029B000504A136813F0010F4F4B05D14F4F0721B9
:1029C000C3E90071012111604D490A6B42F0010217
:1029D0000A631A68116841F440411160D1686FF3CD
:1029E0008F31D1600022C5E90022EB600123036032
:1029F000236B206A243B012B8CBF00260726F7B2ED
:102A0000072239462E61FFF7F7F9E169206A0131A3
:102A1000E1613A46FFF763FAD4E90732D16A013B34
:102A200063F31751D162A2681346002B55D0196980
:102A30008E424DDB5B68F8E76A60E368A56003B926
:102A4000E5602069A2692F4B68B1D3F8001150F8F6
:102A5000045D0439491B5D18A8421ABF012183F89F
:102A60000411C3F8001161690A4462612649D3F870
:102A700000518A4294BF52004FF0FF32281D10448B
:102A8000B0F5807F03EB0501C3F800011ED893F871
:102A90000401D8B909B15A510431A36A21611A68F5
:102AA0006FF300021A60A28AD9605A601A6842F075
:102AB00001021A601A68D207FCD50D48F8BD1A68E1
:102AC000C5E900231D602B685D60BAE70021E4E7DB
:102AD0009A42F4D16A601560AFE7002AACD0E3688F
:102AE0002B60002BACD05D60AAE700BF1401002072
:102AF000180100202C0100203001002000000240BD
:102B00000038024000040020FCFFFF3F38B50023DE
:102B100083608B6804460D462BB102229847EB6810
:102B2000E360AB68A360204638BD826810B50AB97F
:102B300005F00CFBC368BDE81040184730B585B000
:102B400004460025694608300295FFF7EEFF684607
:102B5000FEF79DFD694604F118000295FFF7E5FFB9
:102B60006846FEF794FD694604F138000295FFF7C8
:102B7000DCFF6846FEF78BFD05B030BD30B585B093
:102B800004460025694608300295FFF7CEFF6846E7
:102B9000FEF77DFD694604F118000295FFF7C5FFB9
:102BA0006846FEF774FD694604F128000295FFF7B8
:102BB000BCFF6846FEF76BFD694604F138000295DC
:102BC000FFF7B3FF6846FEF762FD05B030BD30B5D4
:102BD00085B004460025694608300295FFF7A5FF39
:102BE0006846FEF754FD694604F118000295FFF7A8
:102BF0009CFF6846FEF74BFD694604F128000295EC
:102C0000FFF793FF6846FEF742FD694604F138007E
:102C10000295FFF78AFF6846FEF739FD05B030BD23
:102C200030B585B004460025694608300295FFF7A7
:102C30007CFF6846FEF72BFD694604F118000295FB
:102C4000FFF773FF6846FEF722FD694604F128008E
:102C50000295FFF76AFF6846FEF719FD694604F121
:102C600038000295FFF761FF6846FEF710FD05B0DA
:102C700030BD30B585B00446002569460830029560
:102C8000FFF753FF6846FEF702FD694604F118009E
:102C90000295FFF74AFF6846FEF7F9FC694604F122
:102CA00028000295FFF741FF6846FEF7F0FC6946F1
:102CB00004F138000295FFF738FF6846FEF7E7FC9D
:102CC00005B030BD1FB5224B009004466946039302
:102CD0000830204B0293FFF728FF6846FEF7D7FC29
:102CE0001D4B039369461D4B029304F11800009499
:102CF000FFF71BFF6846FEF7CAFC194B03936946B2
:102D0000184B029304F138000094FFF70EFF684659
:102D1000FEF7BDFC60680023036004F1780393E8CC
:102D20000600FFF7D3FAFEF743FF60681423036041
:102D3000D4F888301988FFF735FB04F1800393E855
:102D40000600FFF7C3FA6068FEF74CFF04B010BD41
:102D5000A3020008A5020008BB020008BD0200088B
:102D6000FD260008D302000838B5002383608B6875
:102D700004460D462BB102229847EB68E360AB682E
:102D8000A360204638BD10B50B460446D1E90001CA
:102D900084E8030003F1080104F10800FFF7B6FE20
:102DA000204610BD38B51D46124B0446C0E900311F
:102DB00011460830FFF774FC294604F16800FFF75C
:102DC000A5FE049904F17800FFF7DDFF059904F1F1
:102DD0009000FFF7D8FF069904F1A800FFF7D3FF92
:102DE000079904F1C000FFF7CEFF0023C4E9363392
:102DF000204638BD0C8B000882B038B50593184BBF
:102E00000360BDF828308380BDF82C30C3800446B1
:102E1000816011460C30099DFFF742FC0C9904F1CA
:102E20006C00FFF773FE0D9904F17C00FFF76EFE56
:102E300005AA92E8030004F18C0307AA83E80300C3
:102E400092E8030004F1940383E803002B88C4F89C
:102E50009C502046A4F8A030BDE8384002B070472E
:102E60005C8B0008D0F80431FE2B9FBFC154D0F812
:102E700004310133C0F8043170470000F0B5D0F8D8
:102E80008020D2F80431D2F800115C1A022C35D916
:102E900099423EBF03F1FF33C2F80431D55CD0F84C
:102EA0008020DFF860C0D2F80431D2F80011144F4E
:102EB00028BF00258B4282BF03F1FF33C2F80431E3
:102EC000D65CD0F88030D3F80021D3F804114FF04D
:102ED000FF001A4498BF00260B44044612F8011B59
:102EE000414093421CF8010080EA04007C5CF5D16B
:102EF000AC4203D1831B58425841F0BD0020FCE78F
:102F00001C9000081C8F000838B5D0F88C301D6864
:102F1000D0F88030D3F800219A5C2B799A4204468D
:102F200011D0AB690921EA1811750133032293FB13
:102F3000F2F202EB42029B1AAB61D4F8AC300133DF
:102F4000C4F8AC3038BDFFF799FF18B9AB69102150
:102F5000EA18E9E7D4F88020D2F80031D2F8041159
:102F6000994284BF0133C2F80031D4F88030D3F8DD
:102F70000021D3F80411914283BF511CC3F8001102
:102F80009B5C00231B0612D5D4F88030D3F80021B7
:102F9000D3F80411914282BF511CC3F800119A5C0E
:102FA000AB6905EB030198BF00220A75BDE72B7AD8
:102FB000032BC7D1D4F88020D2F80031D2F8041105
:102FC000994284BF0133C2F80031D4F88030E868F8
:102FD000D3F80021D3F80411541CA14217D991420F
:102FE00084BFC3F800419C5CD3F8002198BF002443
:102FF000914283BF511CC3F800119A5C00224FF02C
:10300000000362F3070364F30F2303809AE70023AE
:10301000FBE713B50B460446D0E900016A4682E897
:10302000030093E8030084E8030092E8030083E8C8
:10303000030002B010BD38B505460C46FFF7E9FFA6
:10304000AB68A268AA60A360E268EB68EA60E3602C
:1030500038BD1FB504466846FFF758FD214668464F
:10306000FFF7E9FF6846FEF712FB204604B010BDEB
:1030700008B54430FFF7EDFF08BD08B53430FFF761
:10308000E8FF08BD08B52430FFF7E3FF08BD08B529
:103090001430FFF7DEFF08BD08B54430FFF7D9FF55
:1030A00008BD08B53430FFF7D4FF08BD08B524309B
:1030B000FFF7CFFF08BD08B51430FFF7CAFF08BD02
:1030C00008B54430FFF7C5FF08BD08B53430FFF739
:1030D000C0FF08BD08B52430FFF7BBFF08BD08B529
:1030E0001430FFF7B6FF08BD08B53430FFF7B1FF65
:1030F00008BD08B53430FFF7ACFF08BD08B5443053
:10310000FFF7A7FF08BD08B54430FFF7A2FF08BDD1
:1031100008B52430FFF79DFF08BD08B51430FFF750
:1031200098FF08BD08B52430FFF793FF08BD08B528
:103130001430FFF78EFF08BD30B5044689B008464D
:10314000002369460293FFF776FF23689C6F23688C
:10315000694604A8DD68FFF7D9FC04A92046A84702
:1031600004A8FEF794FA6846FEF791FA09B030BD5C
:1031700030B5044689B00846002369460293FFF73C
:103180005AFF23681C6F2368694604A89D68FFF7EF
:10319000BDFC04A92046A84704A8FEF778FA6846B3
:1031A000FEF775FA09B030BD30B5044689B008465F
:1031B000002369460293FFF73EFF23685C6F236894
:1031C000694604A89D68FFF7A1FC04A92046A8470A
:1031D00004A8FEF75CFA6846FEF759FA09B030BD5C
:1031E00030B5044689B00846002369460293FFF7CC
:1031F00022FF23689C6F2368694604A89D68FFF737
:1032000085FC04A92046A84704A8FEF740FA6846B2
:10321000FEF73DFA09B030BD0B1A1B11002B14DD6F
:103220000268127C4AB34268127C0AB904307047C3
:103230008268127C0AB908307047C268127C0AB9E9
:103240000C3070471030013BE8E70B1A9B10022B43
:103250000DD0032B07D0012B0ED103681B7C002B54
:1032600018BF0846704703681B7C33B104300368FD
:103270001B7C13B10430F0E708467047437B012BF9
:10328000F7B5044606D0C0F0D280022B00F00B81C7
:1032900003B0F0BD00F180054FF00003D0F88C00C2
:1032A0001A462946FFF7B8FF8542C4F88C0004D1BE
:1032B00004F11003C4F88C30EAE7D4F880300568D4
:1032C0000026C3F80061C3F804612979D4F88000AE
:1032D000FFF7C8FD297AD4F88000FFF7C3FD314617
:1032E000D4F88000FFF7BEFDA979D4F88000FFF77D
:1032F000B9FD2B7A032B01D0102B6DD10021D4F80E
:103300008000FFF7AFFD0121D4F88000FFF7AAFD90
:103310002B7A102B12D10221D4F88000FFF7A2FDE6
:103320002B7A102B0AD1EB68D4F880001988090A8F
:10333000FFF798FDEB681978FFF794FD2B7A032BC4
:1033400001D0052B56D12B6829461B6801A8984748
:103350009DF80510D4F88000FFF784FD9DF8041057
:10336000FFF780FDD4F89C30C4F89430D4F8B03026
:10337000D4F8805000260133C4F8B030C4F8A460FB
:10338000D5F81001FEF7D6F8D5F81831DA6866F3EB
:103390000412DA60D5F820311A6866F300021A6068
:1033A000D5F81C311A6866F300021A60D5F80431AA
:1033B000D5F80011D5F81C215B1A02339BB253607B
:1033C000D5F81C311A6842F001021A601A68D20757
:1033D000FCD5002363735BE7052BAFD1EB68D4F812
:1033E00080001988002914BFFF210021FFF73AFD52
:1033F000314691E7102BB5D1D4F88000DFF8D4C066
:10340000D0F80031D0F80421314FFF210344861851
:103410000D4613F8012B4A409E421CF8021081EA27
:103420000501BD5CF5D1FFF71DFD294698E7D0F8F1
:103430008010D0F89C20D1F80431D1F800115B1A2B
:10344000D0F8A4109942D0F8901038BFC0F894205A
:103450008A4217DCD0F88C3018688369C2181225AC
:1034600015750133032293FBF2F202EB42029B1A21
:103470008361D4F8AC30C4F8A0100133C4F8AC3088
:1034800002236373D4F89430C91AD4F8983099425F
:10349000FFF6FEAE2046FFF737FDD4F89030C4F8B3
:1034A000A030022396E7D0F89030D0F8A020093B56
:1034B00093427FF7EDAE0023C0F89030FEF71EF97F
:1034C000D0F88C300433C0F88C30012382E700BF81
:1034D0001C9000081C8F00082DE9F04F394BADF50A
:1034E000DE5D83B003F1180680AA34461868596877
:1034F000154603C50833B3422A46F7D118689B889E
:10350000AB80314B28609093304B9493304BA19318
:1035100000224FF480312F48A59380ABA291A49153
:103520008DF89922919292928DF84C229E92ADF84C
:103530007C22A092A3908DF898228DF89A228DF883
:103540009C229593FF2190AB134401321E2A1976D9
:10355000F9D10DF508780021404604F04CFE94980E
:10356000FDF7DCFF949B1A69012767F309221A61B2
:103570001A6942F080721A6190AD00264FF6FF7A08
:103580000DF23E29D5E9113103EB410199420FD0EB
:103590001A781D2A09D80DF5107C624458781076E7
:1035A0001A7808F802700233F0E71A885245FAD107
:1035B000A593696C99420FD19E960835CEB9012624
:1035C000E0E700BFC48A000824A30008003C0240D2
:1035D00000000A0800000808AA6C01EB42029342AE
:1035E00002F0CA82494640469E96FDF7EFFE8145AD
:1035F000E3D19E9A90AB03EBC201D1E91130A599BA
:1036000003EB4003994206D19FAB0121995400235B
:103610009E93A19BA5930DF23E2631464046FDF7B1
:10362000D5FEB042054642F0AD82959B96AA9CAF6E
:10363000164603CEBE4218605960324603F10803B5
:10364000F6D130681860B2889A8000238DF89A32DB
:103650009DF87C328BB99E9B7BB1A19AA29B4FF6C1
:10366000FF7002EB43018A42134642F092820B46FE
:103670005B1A18BF01238DF87C329DF87D32ABB9FF
:103680009E9B012B12D0A39BA49A4FF6FF7003EBD5
:1036900042029A42194604D00E88864203F1020380
:1036A000F7D0521A18BF01228DF87D2292AB0DF28D
:1036B0007E2603F134003146FDF7B2FE864218BF84
:1036C0000323949A18BF8DF89932136943F000438D
:1036D00013610DF23E239D420DD0DE4B80AA186887
:1036E0005968154603C50833A3422A46F7D118681E
:1036F0009B882860AB8090A8FEF722F8D64B1A680A
:1037000012F0010FD54A05D1D54E0521C2E900615D
:1037100001211960D34B196B41F001011963126843
:103720001168012060F38B211160D1686FF38B2148
:10373000D160CD490A6812F0010F08BFC84DCB4ACD
:1037400002BF08600424C2E90054196B41F0010172
:10375000196313681A68012565F309221A60DA688B
:103760000DF59D646FF30922DA6004F804590DF534
:10377000A06200230521E2600DF5A860BC4A8DF827
:10378000FA34ADF85430ADF85830E3802172237428
:10379000ADF8F834A361CDF8E424A38384F8245071
:1037A000E58484F82810E064B24820640DF5D16007
:1037B0000DF5A462C4F89401AF48E262C4F8880130
:1037C000AE4A22620DF5D56010220427C4F8B40178
:1037D000AB488DF81A358DF83A358DF882368DF86C
:1037E000A23684F83030ADF81835A363A387A4F867
:1037F000463084F84820ADF83835A365A4F85C302D
:1038000084F89021ADF88036C4F8A031A4F8A43132
:1038100084F8B021ADF8A036C4F8C03184F8445023
:1038200084F88C51A4F88E5184F8AC51A4F8AE7190
:10383000C4F8A8010DF5D960C4F8D4019148C4F8C2
:10384000C8010DF5DD60C4F8F4018F48C4F8E80143
:103850000DF5E160C4F814028C48C4F80802082091
:10386000A4F82E020DF5E5604FF0060A4FF00709A7
:10387000C4F8340286488DF8C2368DF8E2368DF8E9
:103880000237A4F8C431A4F8CE1184F8D021ADF8E1
:10389000C036C4F8E031A4F8E431A4F8EEA184F80D
:1038A000F021ADF8E036C4F80032A4F80432A4F8F0
:1038B0000E9284F81022ADF80037C4F82032A4F834
:1038C000243284F8302284F8CC5184F8EC5184F806
:1038D0000C5284F82C52ADF82037C4F82802092085
:1038E000A4F84E020DF5E960C4F854026948C4F822
:1038F00048020DF5ED60C4F874026748C4F8680228
:103900000DF5F160C4F894026448C4F888024FF0E1
:103910000A084FF00B0E0C208DF822378DF8423735
:103920008DF862378DF88237C4F84032A4F84432FB
:1039300084F85022ADF84037C4F86032A4F86432FD
:10394000A4F86E8284F87022ADF86037C4F8803233
:10395000A4F8843284F89022ADF88037C4F8A032FD
:10396000A4F8A43284F84C5284F86C5284F88C5237
:10397000A4F88EE284F8AC52A4F8AE020DF5F5601E
:10398000C4F8B4024648C4F8A8020D20A4F8CE0238
:103990000DF5F960C4F8D4024248C4F8C8020DF528
:1039A000FD60C4F8F4020DF608063F48C4F8E802CA
:1039B0004FF00E0C0F20C4F814630DF6280B3B4E8D
:1039C0008DF8A2378DF8C2378DF8E2378DF80238BE
:1039D00084F8B022ADF8A037C4F8C032A4F8C432DD
:1039E00084F8D022ADF8C037C4F8E032A4F8E4324D
:1039F00084F8F022ADF8E037C4F80033A4F80433BB
:103A000084F81023ADF80038C4F8203384F8CC5281
:103A100084F8EC52A4F8EEC284F80C53A4F80E0318
:103A2000C4F80863C4F834B3DFF884B0C4F828B32A
:103A30000DF5176BC4F87CB4DFF878B0C4F870B437
:103A400002260DF5196BA4F8B6140DF51B61A4F848
:103A50002E6331E0C48A00081C03002020030020EC
:103A60000000024000380240100300201403002030
:103A7000AC8B0008C48B0008D08B0008B88B000802
:103A8000DC8B0008E88B0008F48B0008008C000831
:103A90000C8C0008188C0008248C0008308C00085E
:103AA0003C8C0008488C0008548C000848A300088F
:103AB000608C00086C8C0008C4F89CB40326C4F821
:103AC000BC14DFF8F4B3EB498DF822388DF86A396D
:103AD0008DF88A39A4F82433ADF82038C4F840337F
:103AE000A4F84433ADF86839C4F88834A4F88C34A9
:103AF000ADF88839C4F8A834A4F8AC3484F82C5351
:103B000084F8306384F87454A4F8766484F8786494
:103B100084F89454A4F8967484F89864C4F890B423
:103B200084F8B45484F8B86484F8C034C4F8B01489
:103B30000DF51D61C4F8DC14CF49C4F8D0140DF59F
:103B40001F61C4F8FC14CD49C4F8F0140DF52161CF
:103B5000C4F81C15CA498DF8AA398DF8CA398DF8F0
:103B6000EA398DF80A3AADF8A839C4F8C834A4F88F
:103B7000CC34A4F8D6A4ADF8C839C4F8E834A4F815
:103B8000EC34A4F8F69484F80035ADF8E839C4F8BC
:103B90000835A4F80C35A4F8168584F82035ADF85E
:103BA000083AC4F8283584F8D45484F8D86484F8E2
:103BB000F45484F8F86484F8145584F81865C4F84B
:103BC00010150DF52361C4F83C15AE49C4F8301545
:103BD0000DF52561C4F85C15AB49C4F850150DF519
:103BE0002761C4F87C15A4F89625A8498DF82A3ACF
:103BF0000DF529628DF84A3A8DF86A3AA4F82C3509
:103C0000ADF8283AC4F84835A4F84C3584F8603546
:103C1000ADF8483AC4F86835A4F86C35ADF8683AA0
:103C2000C4F88835A4F88C3584F83455A4F836E502
:103C300084F8386584F85455A4F856C584F8586556
:103C400084F87455A4F8760584F87865C4F870157E
:103C500084F8945584F89865C4F89C258C4AC4F877
:103C6000902511228DF88A3A8DF8AA3AADF8883A53
:103C7000C4F8A835A4F8AC35A4F8B62584F8C03546
:103C80000DF52B62ADF8A83AC4F8C835A4F8CC35C8
:103C9000804BC4F8BC25804AC4F8B02584F8B455DC
:103CA00084F8B86584F8505084F8985184F8B85175
:103CB00084F8D85184F8F85184F8185284F83852AE
:103CC00084F8585284F8785284F8985284F8B8529C
:103CD00084F8D85284F8F85284F8185384F838538A
:103CE00084F8805484F8A05484F8E0541A6884F866
:103CF00040552A4084F8805584F8A055BDF802A2AA
:103D00000C93DFF8B8910DF6B42840F0CA810D92FB
:103D1000FEF7BEF9CAF3400260490B92CAF3800273
:103D20000A92C9F80010CAF3C1025D490992C9F8A4
:103D300084100D9A5B49C9F888100AEA050309F155
:103D40001001CAF3421A8346C9E9012289F80C20FE
:103D500089F80D50C9F88000C9E92312BAF1000FA3
:103D600001F01F87AA4507D0BAF1020F01F01C87A6
:103D7000B24514BF2E46022600256422C9E9272534
:103D8000494AC9F8B850C9F8B42048494448C9F864
:103D9000BC900D93C9F8AC50C9F8986089F8A85048
:103DA000C9F8B050FDF768FB414AC9F8C020C9F80E
:103DB000C4504049D9F88800C9F8C890FDF75CFBA9
:103DC000CDF8B45A18AD28462146CDE91898FCF72D
:103DD000D3FA95E803001AAB83E803000DF204510F
:103DE0001AA8FCF7C9FA1AAB93E803001CAD85E8E2
:103DF000030028460DF22451FCF7BEFA95E80300B3
:103E000022AEA6F1100787E8030038460DF26C6178
:103E1000FCF7B2FA97E80300A6F1080585E803006D
:103E200028460DF28C61FCF7A7FA95E8030086E8B6
:103E3000030030460DF2AC61FCF79EFA96E80300F1
:103E400024AF87E8030038460DF2CC61FCF794FA02
:103E500097E803002AADA5F1100686E80300304676
:103E60000DF2EC61FCF788FA96E80300A5F108076B
:103E700026E000BF848C0008908C00089C8C000811
:103E8000A88C0008B48C0008C08C0008CC8C0008FA
:103E9000D88C00082803002054A30008FC8C0008DC
:103EA000B005002038050020E48C0008E003002065
:103EB000F08C0008EC030020788C00082C03002014
:103EC00087E8030038460DF20C71FCF755FA97E8C5
:103ED000030085E8030028460DF22C71FCF74CFA2C
:103EE00095E803002CAF87E8030038460DF24C71CB
:103EF000FCF742FA97E8030032AEA6F1100585E818
:103F0000030028460DF26C71FCF736FA95E80300C1
:103F1000A6F1080787E8030038460DF28C71FCF71C
:103F20002BFA97E8030086E8030030460DF2AC71E7
:103F3000FCF722FA96E8030034AF87E8030038461E
:103F40000DF2CC71FCF718FA97E803003AADA5F131
:103F5000100686E8030030460DF2EC71FCF70CFA0F
:103F600096E80300A5F1080787E8030038460DF638
:103F70000C01FCF701FA97E8030085E803002846E6
:103F80000DF65411FCF7F8F995E803003CAF87E80B
:103F9000030038460DF67411FCF7EEF997E80300BC
:103FA00042AEA6F1100585E8030028460DF69411EF
:103FB000FCF7E2F995E80300A6F1080787E803009B
:103FC00038460DF6B411FCF7D7F997E8030086E8F8
:103FD000030030460DF6D411FCF7CEF996E8030045
:103FE00044AF87E8030038460DF6F411FCF7C4F936
:103FF00097E803004AADA5F1100686E803003046B5
:104000000DF61421FCF7B8F996E80300A5F10807AE
:1040100087E803000DF634213846FCF7ADF997E840
:10402000030085E803000DF654212846FCF7A4F9A7
:1040300095E803004CAE86E803000DF67421304687
:10404000FCF79AF996E803004EAA82E803001046AE
:104050000DF69421FCF790F9DBF82421DBF8180128
:104060005146FDF77DFB0B9BC26863F34922C2609A
:10407000C2680A9B63F30C32C260099B026963F356
:104080000D3202610D9B002B01F09185C36843F452
:104090008063C360C36843F40053C3600C9A012378
:1040A0001360AAAE0023B84A46F80839A892203215
:1040B0007260B64AF36033747374F361F362F3634E
:1040C000F364F3651368CDF85C9013F0010FB04B07
:1040D00005D1B0480D21C3E9000101211160AE4DA9
:1040E0002A6B42F002022A631A6811686FF39B611F
:1040F0001160D1686FF39B61D1604FF0010900211D
:10410000A9A8C6E91A1986F8701086F871107366A6
:10411000FDF716FBA14BA24AC593C5AF20337B60C8
:104120001368397413F0010F08BFDFF894B29D4B88
:104130007974C7E90211F961F962F963F964F96503
:1041400002BF0921C3E900B1C2F800902A6B42F016
:1041500004022A631A6811686FF393411160D168F1
:104160006FF39341D16001250021C6A8C7E91A1554
:1041700087F8701087F871107B66FDF7E1FA8A4BBB
:104180008A4AE2932033E3931368E49113F0010F1A
:1041900008BFDFF800A2864BE5918DF898138DF8E3
:1041A0009913E991ED91F191F591F99102BF0F21E8
:1041B000C3E900A11560784D2A6B42F002022A6320
:1041C0001A6811686FF39F711160D1686FF39F7166
:1041D000D160E3A800214FF00109FB93FC918DF819
:1041E000F8138DF8F913CDF8F493FDF7A9FA714B94
:1041F00088F80C10C8E90111CDF8B43A0DF6C823BF
:10420000581DC8E9041188F818100DF61D31FDF786
:104210007EF9694A136813F0010F2846674D40F094
:104220008280DFF8C0C1DFF8C0E1DCF8003064490B
:1042300013F0010F01BF0D23CCF80090CEF8001051
:10424000CEF80430036BDFF8A4C143F0040303632A
:10425000DEF8003018684FF0010969F39B601860C0
:10426000D8686FF39B60D8605648036813F0010F5D
:1042700004BF0F23CCF80430474B04BFCCF8001028
:10428000C0F80090186B40F004001863DCF80000E0
:10429000D0F800904FF0010A6AF39F79C0F80090BF
:1042A000D0F80C906FF39F79C0F80C90DFF8409134
:1042B000D9F8000010F0010F434801BFC9F800A071
:1042C0004FF00E0B0160C0F804B0D3F8309049F005
:1042D0000409C3F830900368D3F800A04FF0010937
:1042E00069F31D7AC3F800A0D3F80CA06FF31D7A10
:1042F000C3F80CA00023C5E906010DF6CD21296203
:10430000C5E901333149DFF8ECA06962C5E904EC85
:104310002F492B73C5F800A06B73A96285F8303064
:104320006B63C2F800902B492B4A0B6813F0010312
:1043300001BF2348C2E9000301230B60164B196B30
:1043400041F00401196312681068012161F3010052
:104350001060D0686FF30100D0602048026812F04E
:10436000010F08BFDFF858C01D4A04BF0160C2E951
:1043700000C1196B41F00401196313681A68012127
:1043800061F383021A6037E0088D0008680100209D
:104390006C0100200004024000380240348D000807
:1043A0005C01002060010020608D000850010020A9
:1043B0005401002030A30008B4000020B800002001
:1043C00000080240FC000020F4000020FC920008DD
:1043D000FC9A0008A8000020AC0000209C000020EF
:1043E000A0000020080100200C0100200001002096
:1043F000F00000203CA30008DA686FF38302DA6063
:10440000BE4B1A6812F0010F08BFDFF85C93BC4A7C
:1044100002BF19600220C2E90090BA4B196B41F04B
:104420000401196312681168012060F3051111601D
:10443000D1686FF30511D160B3490A6812F0010F1A
:1044400008BFDFF824E3B14A02BF08604FF0030C55
:10445000C2E900EC196BAE4841F00401196313681E
:104460001A684FF0010969F387121A60DA686FF36E
:104470008712DA60FDF73EFC2B7B0BBBA54B85F862
:104480000C90DA686A6002B195609A68DD6002B9E2
:104490009D6002225A61A04B1A686FF300021A60F5
:1044A0009E4A5A6000229A601A6842F004021A601A
:1044B0001A6842F002021A601A6842F001021A6099
:1044C000E2ABC8F8783080ABC8E91F3415ABC8F848
:1044D000843016ABC8F88830914BC8F88C30C8E9E6
:1044E0001B560DF6AC330DF58166C8F890308D4B38
:1044F000CDF8FC8346F80C397AADC8F874704FF0EB
:10450000000AA5F11807884BC8F894A031460DF5AC
:104510008E60B360FEF7A6F8844B45F8188C3946D8
:10452000FB602846824BBB60FEF79CF8814B6B9387
:1045300068A9814BCDF8A0816EA80DF5C87B6A9360
:10454000FEF790F87D4B639360A97D4BCDF8808199
:1045500058466293FEF786F87A4B5B9358A97A4BDC
:10456000CDF860815CA85A93FEF78BF8774B539394
:10457000774B529354AB18460DF64C3950A9CDF8F1
:1045800040810993FEF77DF80DF58E614846FEF7F0
:1045900069F829460DF65C30FEF764F86EA90DF651
:1045A0006C30FEF75FF859460DF67C30FEF75AF88E
:1045B0005CA90DF68C30FEF764F809990DF69C3075
:1045C000FEF75FF80998FDF762F850A8FDF75FF86D
:1045D0005CA8FDF75CF858A8FDF759F85846FDF7B8
:1045E00056F860A8FDF753F86EA8FDF750F868A8D4
:1045F000FDF74DF82846FDF74AF83846FDF747F82D
:104600000DF58E60FDF743F83046FDF740F849465A
:104610000DF58E60FEF744F84E4BC5F80080EB6058
:1046200029464D4BAB603046FEF770FAD8F884301F
:10463000D8F87C100D93D8F888300B93D8F88C30CC
:104640000A9301F119030C934449D8F88020C8F863
:10465000F8100DF6C423C8F8FC300DF58E610DF688
:10466000B4300E920993FEF71BF831460DF6144054
:10467000FEF74CFA0D9BC8F874310B9BC8F87831E3
:104680000A9BC8F87C310C9BC8F88031344BC8F8C1
:1046900088310E9AC8F870214FF4FA73C8F898A1BF
:1046A000C8F884A1C8F89CA1C8F88CA1C8F890A14A
:1046B00088F894A1C8F898310DF63C40FDF740F811
:1046C0000A9B88F8A0A1C8F8A4A1C8F8A8A11868F6
:1046D000FDF768FC3046FCF7DAFF2846FCF7D7FF09
:1046E0000DF58E60FDF773FC49460DF58E60FDF704
:1046F000D7FF1C4BCDF89081594637E09000002041
:10470000940000200038024084000020880000202F
:10471000B8000020C805002010E000E01F4801009C
:10472000F8030020713100088D030008A93100084A
:10473000A3030008E1310008B9030008393100087B
:10474000CF0300088D5E0008E5030008555E0008F1
:10475000FB030008110400081B04000810A3000854
:10476000EC8A00083104000800080240CBF80C3045
:1047700068A8C14BCBF80830FEF7C8F90923FF93AE
:10478000BE4B0999CDF8C081C6E90138BC4B7361B5
:10479000BC4B33610F232B60BB4BC5E90138BB4BCE
:1047A0006B61BB4B2B610C2345F8183CB94BC7E937
:1047B0000138B94B7B61B94B3B610C236E93B84B0D
:1047C0006F93B84B7393B84B72936EAB0DF58E62CB
:1047D000CDE90273CDE9006568AB0DF67440FEF7D4
:1047E000E1FA70AB18460E93FCF751FFA5F11003E8
:1047F00018460B93FCF74BFF05F1080318460A9384
:10480000FCF745FF0DF2044318460C93FCF73FFFFD
:1048100068A8FCF73CFF5846FCF739FF0DF58E60A1
:10482000FDF7D5FB49460DF58E6088F8A0A2A8F8E3
:10483000A2A2A8F8A4A2FDF733FF9C4B639360A942
:104840009B4BCDF8808158466293FEF75FF90823B1
:10485000FF93984BCDF8C081C6E90138964B736140
:10486000964B336109232B60954BCDF8A881C5E9A0
:104870000138944B6B61944B2B610F2345F8183C26
:10488000924BC7E90138924B7B61924B3B610F23FE
:104890006E93914B6F93914B7393914B729307234C
:1048A0006893904B6993904B6D93904B6C93904BA6
:1048B000C8F8A832099BC8F8AC320DF58E610DF628
:1048C0006450FDF7EDFE59460DF6C450FEF71EF993
:1048D00031460DF6D450FEF756FA29460DF6EC5047
:1048E000FEF751FA39460DF60460FEF74CFA6EA950
:1048F0000DF61C60FEF747FA68A90DF63460FEF766
:1049000042FAC8F898A3C8F89CA36AA8FCF7BFFEAF
:104910000E98FCF7BCFE0B98FCF7B9FE0A98FCF762
:10492000B6FE0C98FCF7B3FE5846FCF7B0FE60A844
:10493000FCF7ADFE0DF58E60FDF749FBD8F87C3035
:1049400049469B7E88F8A0330DF58E60FDF7A8FEE2
:104950006849DFF8C89168A8FDF74FF966495846DD
:10496000FDF74BF9654BC5F80080EB602946644BB9
:10497000AB603046FEF7CAF8624B71936EA9624B8A
:10498000CDF8B88138467093FEF7C0F8699B109354
:10499000649B0D93DBF804300F934FF0010388F80C
:1049A000A933099BC8F8AC33C8F8A49388F8A8A326
:1049B000689A11920DF58E610DF66460FDF770FE38
:1049C00031460DF6C460FEF7A1F839460DF6D46005
:1049D000FEF79CF8109BC8F834340D9BC8F83834A7
:1049E0000F9BC8F83C340DF65463C8F84034119A54
:1049F00098F8A033C8F8302488F844343846FCF7D7
:104A000046FE6EA8FCF743FE3046FCF740FE284603
:104A1000FCF73DFE0DF58E60FDF7D9FAD8F87C3035
:104A200008F19801DB7E88F848340DF58E60FDF7BB
:104A300037FE304968A8FDF7E0F82F4958460DF6D3
:104A4000B428FDF7DAF8314BC5F80080EB60294651
:104A50002F4BAB603046FEF759F82E4B71936EA981
:104A60002D4BCDF8B88138467093FEF74FF8699B0F
:104A70001093649B54E000BF4D04000858A3000845
:104A8000630400089304000862A30008A904000856
:104A9000B304000872A30008C9040008D304000886
:104AA0007FA30008E9040008F304000809050008D2
:104AB000510500088CA30008670500087F05000861
:104AC00095A3000895050008AD0500089FA3000800
:104AD000C3050008DB050008AFA30008F1050008C6
:104AE00011060008BFA300082706000831060008C9
:104AF000208B0008C7A300081BA500084706000874
:104B00005106000867060008BB060008D106000829
:104B1000DB060008F106000845070008348B000892
:104B2000689A0D93DBF8043011920F930DF6C422AE
:104B30004FF0010388F85134C8F85424C8F84C9455
:104B400088F850A40DF58E610DF60C700992FDF7F2
:104B5000A7FD31460DF66C70FDF7D8FF39460DF60E
:104B60007C70FDF7D3FF109BC8F8DC340D9BC8F8B0
:104B7000E0340F9BC8F8E4340DF6FC63119AC8F8D2
:104B8000E83498F84834C8F8D82488F8EC34384623
:104B9000FCF77DFD6EA8FCF77AFD3046FCF777FD4B
:104BA00028460DF64C39FCF772FD0DF58E60FDF7C9
:104BB0000EFA49460DF58E60FDF772FDC64968A8EC
:104BC000FDF71BF8C5495846FDF717F8C44BC5F863
:104BD0000080EB602946C34BAB603046FDF796FF83
:104BE000C14B71936EA9C14BCDF8B8813846709313
:104BF000FDF78CFF689B1193699B0D93649B0F934A
:104C00004FF4C842DBF80430A8F8F4241093099A52
:104C1000B74BC8F8F034C8F8F8240DF58E610DF5DF
:104C20007B60FDF73DFD0DF5805031461030FDF7FE
:104C30006DFF39460DF58150FDF768FF119B0D9A08
:104C4000C8F87C35C8F880250DF654530F9AC8F87B
:104C50008425C8F88C35109A98F8A032C8F88825B1
:104C600088F890353846FCF712FD6EA8FCF70FFD6A
:104C70003046FCF70CFD2846FCF709FD0DF58E606B
:104C8000FDF7A5F949460DF58E60FDF709FD994937
:104C900068A8FCF7B2FF98495846FCF7AEFF974B5F
:104CA000C5F80080EB602946954BAB603046FDF7B8
:104CB0002DFF944B71936EA9934BCDF8B881384674
:104CC0007093FDF723FFCDE9066742F6E063ADF888
:104CD00014300DF65853ADF810A003939BE8030071
:104CE00001AA0D9282E803000DF58250699B099993
:104CF00000930DF58E62689B0830FEF77DF838460C
:104D0000FCF7C5FC6EA8FCF7C2FC3046FCF7BFFC04
:104D10002846FCF7BCFC0DF58E60FDF758F94946B6
:104D20000DF58E60FDF7BCFC784968A8FCF765FFBF
:104D300077495846FCF761FF764BC5F80080EB6079
:104D40002946754BAB603046FDF7E0FE734B71931F
:104D50006EA9734BCDF8B88138467093FDF7D6FE37
:104D60004AF6C873CDE90667ADF8143044F25063D3
:104D7000ADF810300DF6565303939BE803000D9ADF
:104D800082E803000DF58750699B099900930DF5A2
:104D90008E62689B0C30FEF72FF83846FCF777FCE4
:104DA0006EA8FCF774FC3046FCF771FC2846FCF753
:104DB0006EFC0DF58E60FDF70AF9C8F8DCA64946D1
:104DC0000DF58E60FDF76CFC564B6B9368A9564B46
:104DD000CDF8A0816EA86A93FDF798FE534B099910
:104DE000C8F8E4160722FF92C6E90138504B7361F8
:104DF000504B3361504BC5E90138504B6B61504B00
:104E00002B610E2345F8183C4E4B0C22C7E90138A4
:104E10004D4B7B612A604D4B4D4AC8F8E0260DF59D
:104E20008C503B610DF58E611C30FDF739FC0DF5A2
:104E30008F506EA91C30FDF769FE0DF5905031467C
:104E40000C30FDF7A0FF0DF5915029460430FDF719
:104E50009AFF0DF5915039461C30FDF794FFC8F8C4
:104E6000A0A7C8F8A4A70B98FCF711FC0A98FCF7B8
:104E70000EFC0C98FCF70BFC6EA8FCF708FC68A86D
:104E8000FCF705FC0DF58E60FDF7A1F849460DF520
:104E90008E60FDF705FC2F4BC5F80080EB602946BE
:104EA0002D4BAB603046FDF731FE2C493846FCF700
:104EB000A4FE2B496EA8FCF7A0FE79680F916E99AD
:104EC00010916F99D8F8803011912649C8F8A81729
:104ED0000DF59350099947E0D4A30008E5A3000815
:104EE0005B070008650700087B0700089D070008AE
:104EF000488B0008E8A30008F8A30008B3070008DF
:104F0000BD070008D3070008F50700089FA30008A5
:104F1000FCA300080B080008150800082B0800086F
:104F20004D080008630800089708000800A400085E
:104F3000AD080008B708000808A40008CD0800085C
:104F4000E508000815A40008FB080008130900087C
:104F5000708B0008290900083309000824A4000800
:104F600034A40008F88A0008C8F8AC1703F26C53A0
:104F700055F8182C13930DF58E6104301292FDF73D
:104F80008FFB0DF5965031460430FDF7BFFD0F99AC
:104F9000C8F824181099129AC8F82818139B119968
:104FA000C8F82028C8F83038C8F82C183046FCF764
:104FB0006EFB2846FCF76BFB0DF58E60FDF707F8DE
:104FC00049460DF58E60FDF76BFBC74968A8FCF7F5
:104FD00014FEC6495846FCF710FEC54BC5F80080C4
:104FE000EB602946C34BAB603046FDF78FFDC24BEB
:104FF00071936EA9C14BCDF8B88138467093FDF717
:1050000085FDCDE906670DF58C534FF06401103333
:10501000ADF810A00393ADF814109BE803000D9BAE
:10502000C3E900010DF58E600246699B0999009362
:105030000DF59750689B0830FDF7DEFE3846FCF70B
:1050400026FB6EA8FCF723FB3046FCF720FB284626
:10505000FCF71DFB0DF58E60FCF7B9FF49460DF519
:105060008E60FDF71DFBA64968A8FCF7C6FD9F49A9
:105070005846FCF7C2FDA34BC5F80080EB602946FB
:10508000A14BAB603046FDF741FDA04B71936EA87C
:105090009F4BCDF8B881014638467093FDF736FD39
:1050A000CDE906670DF58C534FF064011233ADF86E
:1050B00010A00393ADF814109BE803000D9BC3E907
:1050C00000010DF58E600246699B099900930DF56C
:1050D0009C50689B0C30FDF78FFE3846FCF7D7FAE2
:1050E0006EA8FCF7D4FA3046FCF7D1FA2846FCF754
:1050F000CEFA0DF58E60FCF76AFFD8F87C30494691
:105100005B7E88F87C390DF58E60FDF7C9FA814920
:1051100068A8FCF772FD75495846FCF76EFD7E4B9A
:10512000C5F80080EB6029467C4BAB603046FDF74C
:10513000EDFC7B4B71936EA87A4BCDF8B88101469C
:1051400038467093FDF7E2FC69990F916499689B6A
:105150001091DBF80410129341F60262724B119128
:105160000DF58E600999A8F88429C8F88039C8F827
:10517000881901460DF5A250FDF792FA31460DF55A
:10518000A550FDF7C3FC0DF5A55039461030FDF7CD
:10519000BDFC129BC8F80C3A0F99C8F8101A0DF50F
:1051A000A1531099C8F8141A1033C8F81C3A119971
:1051B00098F87C3988F8203AC8F8181A3846FCF76D
:1051C00066FA6EA8FCF763FA3046FCF760FA2846E8
:1051D000FCF75DFA0DF58E60FCF7F9FE49460DF51A
:1051E0008E60FDF75DFA514B71936EA8504BCDF870
:1051F000B881014638467093FDF788FC4D4B0999FC
:10520000C8F8281A0820FF90C6E901384A4B736194
:105210004A4B33614A4BC5E901384A4B6B61072061
:10522000494B28602B610DF58E60484BC8F8243A35
:1052300001460DF5A750FDF733FA39460DF5AA5092
:10524000FDF764FC0DF6C820314600F68820FDF716
:105250009AFD0DF6C820294600F52A60FDF793FD5A
:10526000C8F8CCAAC8F8D0AA0A98FCF710FA0C988B
:10527000FCF70DFA3846FCF70AFA6EA8FCF707FAB5
:105280000DF58E60FCF7A3FE49460DF58E60FDF727
:1052900007FA2F4BCDF890815946CBF80C3068A80F
:1052A0002C4BCBF80830FDF731FC08202A4BFF903F
:1052B00073612A4B33612A4B2860C5E90138294BB9
:1052C0006B61294B2B61294B2949CDF8C0810B20FB
:1052D00045F8180CC7E90138264B7B61264B3B612A
:1052E0000A236E934AE000BF37A4000834A40008E4
:1052F0004909000853090008690900088B090008DA
:1053000047A40008A1090008AB090008C10900086A
:10531000E3090008BFA30008F9090008030A000810
:10532000190A00082B0A0008488B0008410A0008E7
:105330006B0A000856A40008810A00088B0A0008BE
:105340005FA40008A10A0008AB0A0008848B0008CB
:10535000C10A0008EB0A0008010B00080B0B00084B
:1053600070A40008210B00082B0B000879A400088A
:1053700067A40008410B00084B0B0008D14B6F934A
:105380006EA8D14B7393C6E90118D04B7293CDE947
:10539000027068A803460DF58E6002460DF6C8201F
:1053A0000999CDE9006500F52C60FDF7FBFC0E982E
:1053B000FCF76DF90B98FCF76AF90A98FCF767F9A6
:1053C0000C98FCF764F968A8FCF761F95846FCF7FB
:1053D0005EF90DF58E60FCF7FAFDD8F87C30494691
:1053E0001B7F88F8B43B0DF58E60FDF759F9B8497D
:1053F00068A8FCF702FCB7495846FCF7FEFBB64B21
:10540000C5F80080EB602946B44BAB603046FDF731
:105410007DFBB34B71936EA8B24BCDF8B8810146BA
:1054200038467093FDF772FB6998DBF804200C9006
:105430000DF58E6E64980E904FF0010C71460F9230
:105440000DF6C82E099AA84888F8BDCBC8F8C02B1D
:10545000C8F8B80B88F8BCAB689B10930EF53B609E
:10546000FDF71EF90DF6C82E31460EF54160FDF729
:105470004DFB0DF6C82E39460EF54260FDF746FB92
:10548000109B0C9AC8F8443C0DF6C82EC8F8482C5E
:105490000EF53A630E9AC8F84C2CC8F8543C0F9A93
:1054A00098F8B43BC8F8502C88F8583C3846FCF7BC
:1054B000EEF80DF5DC7E7046FCF7E9F83046FCF7B7
:1054C000E6F82846FCF7E3F80DF58E6E7046FCF71B
:1054D0007EFDD8F87C300DF58E6E1B8AA8F85C3CFA
:1054E00049467046FDF7DCF80DF5D07E70467F49E1
:1054F000FCF783FB7E495846FCF77FFB7D4BC5F8E4
:105500000080EB6029467C4BAB603046FDF7FEFA2D
:105510000DF5DC7E794B71937146794BCDF8B881EE
:1055200038467093FDF7F2FACDE906674FF47A63D7
:105530000DF6C82EADF814300EF64843ADF810A0A5
:1055400003939BE803000D9AC2E900010DF58E6EEE
:105550007246699B099900930DF6C82E689B0EF65A
:105560004C40FDF749FC3846FCF791F80DF5DC7E20
:105570007046FCF78CF83046FCF789F82846FCF7B3
:1055800086F80DF58E6E7046FCF721FDD8F87C305C
:105590000DF58E6E1B7E88F8043D49467046FDF77A
:1055A0007FF80DF5D07E70465649FCF726FB56492C
:1055B0005846FCF722FB554BC5F80080EB602946A6
:1055C000534BAB603046FDF7A1FA0DF5DC7E514B35
:1055D00071937146504BCDF8B88138467093FDF702
:1055E00095FA699A689B0C92649A0F930D924B4BB3
:1055F000DBF80420C8F8083D0DF58E6E099B0E926D
:10560000714646F202420DF6C82EA8F80C2DC8F8D5
:10561000103D0EF55060FDF743F80DF6C82E3146EB
:105620000EF55660FDF772FA0DF6C82E39460EF5E6
:105630005760FDF76BFA0F9BC8F8943D0C9BC8F8B8
:10564000983D0D9BC8F89C3D0DF6C82E0E9BC8F8E2
:10565000A03D0EF54F63C8F8A43D98F8043D88F8C6
:10566000A83D3846FCF713F80DF5DC7E7046FCF7D4
:105670000EF83046FCF70BF82846FCF708F80DF555
:105680008E6E7046FCF7A3FCD8F87C300DF58E6E5C
:105690005B8AA8F8AC3D49467046FDF701F80DF568
:1056A000D07E70461E49FCF7A8FA1E495846FCF702
:1056B000A4FA1D4BC5F80080EB6029461B4BAB607C
:1056C000304635E085A40008610B00086B0B00082C
:1056D00067A400081BA50008810B00088B0B0008BD
:1056E000A10B0008CB0B0008988B000890A40008C1
:1056F000FCA30008E10B0008EB0B0008010C0008FC
:10570000270C0008A1A400081AA500083D0C0008F9
:10571000470C00085D0C0008830C0008488B00084B
:10572000B2A40008C2A40008990C0008A30C000849
:10573000FDF7ECF90DF5DC7ED04B71937146D04B43
:10574000CDF8B88138467093FDF7E0F94FF4FA636D
:10575000CDE90667ADF814304FF06403ADF81030B2
:105760000DF5C35303939BE803000DF6C82EAEF16D
:10577000040ECDF824E00DF1040ECDF830E08EE8F3
:1057800003000DF58E6E699B099900930DF5C350CA
:105790007246689B0430FDF72FFB3846FBF777FF16
:1057A0000DF5DC7E7046FBF772FF3046FBF76FFFAE
:1057B0002846FBF76CFF0DF58E6E7046FCF707FC74
:1057C0000DF64C390DF58E6E49467046FCF768FFB4
:1057D0000DF5D07E7146AB4B6B930DF5DC7E0DF66F
:1057E000B428A94B6A937046CDF8A081FDF78EF9D5
:1057F0004FF0080EA54BCDF8FCE37361A44B336169
:10580000A44B6B61A44B2B614FF00C0EA34BC5F85E
:1058100000E04FF00B0E45F818ECC7E90138A04B3B
:10582000A04A7B61A049A14B3B616A60099B0F9232
:105830000DF5C8509E4AC8F8583EC8F8542EC6E91F
:105840000118C5F808800DF58E611030FCF728FFAF
:105850000DF5CB506EA91030FDF758F931460DF516
:10586000CC50FDF790FA0DF5CC5029461830FDF7D5
:105870008AFA0DF5CD5039461030FDF784FAC8F894
:1058800014AFC8F818AF0B98FBF701FF0A98FBF7A5
:10589000FEFE0DF20440FBF7FAFE6EAA1046FBF77F
:1058A000F6FE68AA1046FBF7F2FE0DF58E62104672
:1058B000FCF78DFBD8F87C300DF58E625B7F88F8A5
:1058C0001C3F49461046FCF7EBFE68AA1046764995
:1058D000FCF793F977495846FCF78FF9764BEB6064
:1058E0002946764BC5F800803046AB60FDF70EF9CF
:1058F000734B71936EA9734B70933846CDF8B88192
:10590000FDF704F9689B0A93699B0E93649B0B93C4
:10591000DBF804300D934FF0010C099B6A4888F8BE
:1059200025CFC8F8283FC8F8200F88F824AF0DF518
:105930008E610DF5CF50FCF7B3FE31460DF5D25018
:10594000FDF7E4F80DF5D25039461030FDF7DEF8DA
:105950000A9BC8F8AC3F0E9BC8F8B03F0B9BC8F839
:10596000B43F0D9BC8F8B83F0DF5CE531033C8F8BF
:10597000BC3F98F81C3F88F8C03F3846FBF787FECD
:105980006EA8FBF784FE3046FBF781FE2846FBF746
:105990007EFE0DF58E60FCF71AFBD8F87C30494688
:1059A0009B8AA8F8C43F0DF58E60FCF779FE0F9A2C
:1059B00068A81146FCF721F944495846FCF71DF93F
:1059C000434BEB602946434BC5F800803046AB6043
:1059D000FDF79CF8404B71936EA9404B709338468D
:1059E000CDF8B881FDF792F84FF06403CDE9066772
:1059F000ADF810300DF5D35342F2107A18330393FB
:105A0000ADF814A09BE803000C9BC3E900010DF561
:105A1000D350699B099900930DF58E62689B1C30E9
:105A2000FDF7EAF93846FBF732FE6EA8FBF72FFECA
:105A30003046FBF72CFE2846FBF729FE0DF58E605D
:105A4000FCF7C5FAD8F87C30DA8A41F26C0308EB2F
:105A500003010A910DF58E60494628F80320FCF7F2
:105A60001FFE0E4968A8FCF7C8F818495846FCF70D
:105A7000C4F81B4BEB60294634E000BFB90C0008AA
:105A8000DF0C0008F50C0008150D00082B0D0008B0
:105A9000350D00084B0D0008550D0008D3A4000873
:105AA0006B0D0008C6A4000867A40008770D000865
:105AB000708B00081BA500088D0D0008970D0008CD
:105AC000AD0D0008D70D0008988B0008C2A400088F
:105AD000ED0D0008F70D00080D0E0008330E00084C
